{
	"contracts/Arcade.sol": {
		"Arcade": {
			"abi": [
				{
					"inputs": [],
					"stateMutability": "nonpayable",
					"type": "constructor"
				},
				{
					"anonymous": false,
					"inputs": [
						{
							"indexed": false,
							"internalType": "uint256",
							"name": "id",
							"type": "uint256"
						}
					],
					"name": "CloseGame",
					"type": "event"
				},
				{
					"anonymous": false,
					"inputs": [
						{
							"indexed": false,
							"internalType": "uint256",
							"name": "id",
							"type": "uint256"
						}
					],
					"name": "CreateGame",
					"type": "event"
				},
				{
					"anonymous": false,
					"inputs": [
						{
							"indexed": false,
							"internalType": "uint256",
							"name": "id",
							"type": "uint256"
						}
					],
					"name": "DeleteGame",
					"type": "event"
				},
				{
					"anonymous": false,
					"inputs": [
						{
							"indexed": false,
							"internalType": "uint256",
							"name": "fee",
							"type": "uint256"
						}
					],
					"name": "Fee",
					"type": "event"
				},
				{
					"anonymous": false,
					"inputs": [
						{
							"indexed": false,
							"internalType": "uint256",
							"name": "id",
							"type": "uint256"
						}
					],
					"name": "OpenGame",
					"type": "event"
				},
				{
					"anonymous": false,
					"inputs": [
						{
							"indexed": false,
							"internalType": "uint256",
							"name": "payout",
							"type": "uint256"
						}
					],
					"name": "Payout",
					"type": "event"
				},
				{
					"anonymous": false,
					"inputs": [
						{
							"indexed": false,
							"internalType": "address",
							"name": "player",
							"type": "address"
						},
						{
							"indexed": false,
							"internalType": "uint256",
							"name": "id",
							"type": "uint256"
						}
					],
					"name": "PlacePlayer",
					"type": "event"
				},
				{
					"anonymous": false,
					"inputs": [
						{
							"indexed": false,
							"internalType": "uint256",
							"name": "id",
							"type": "uint256"
						},
						{
							"indexed": false,
							"internalType": "address",
							"name": "player",
							"type": "address"
						},
						{
							"indexed": false,
							"internalType": "uint256",
							"name": "amount",
							"type": "uint256"
						}
					],
					"name": "Refund",
					"type": "event"
				},
				{
					"anonymous": false,
					"inputs": [
						{
							"indexed": true,
							"internalType": "address",
							"name": "_player",
							"type": "address"
						},
						{
							"indexed": false,
							"internalType": "uint256",
							"name": "id",
							"type": "uint256"
						}
					],
					"name": "Register",
					"type": "event"
				},
				{
					"anonymous": false,
					"inputs": [
						{
							"indexed": false,
							"internalType": "address",
							"name": "player",
							"type": "address"
						}
					],
					"name": "RemovePlayer",
					"type": "event"
				},
				{
					"anonymous": false,
					"inputs": [
						{
							"indexed": true,
							"internalType": "bytes32",
							"name": "role",
							"type": "bytes32"
						},
						{
							"indexed": true,
							"internalType": "bytes32",
							"name": "previousAdminRole",
							"type": "bytes32"
						},
						{
							"indexed": true,
							"internalType": "bytes32",
							"name": "newAdminRole",
							"type": "bytes32"
						}
					],
					"name": "RoleAdminChanged",
					"type": "event"
				},
				{
					"anonymous": false,
					"inputs": [
						{
							"indexed": true,
							"internalType": "bytes32",
							"name": "role",
							"type": "bytes32"
						},
						{
							"indexed": true,
							"internalType": "address",
							"name": "account",
							"type": "address"
						},
						{
							"indexed": true,
							"internalType": "address",
							"name": "sender",
							"type": "address"
						}
					],
					"name": "RoleGranted",
					"type": "event"
				},
				{
					"anonymous": false,
					"inputs": [
						{
							"indexed": true,
							"internalType": "bytes32",
							"name": "role",
							"type": "bytes32"
						},
						{
							"indexed": true,
							"internalType": "address",
							"name": "account",
							"type": "address"
						},
						{
							"indexed": true,
							"internalType": "address",
							"name": "sender",
							"type": "address"
						}
					],
					"name": "RoleRevoked",
					"type": "event"
				},
				{
					"inputs": [],
					"name": "DEFAULT_ADMIN_ROLE",
					"outputs": [
						{
							"internalType": "bytes32",
							"name": "",
							"type": "bytes32"
						}
					],
					"stateMutability": "view",
					"type": "function"
				},
				{
					"inputs": [],
					"name": "TREASURER_ROLE",
					"outputs": [
						{
							"internalType": "bytes32",
							"name": "",
							"type": "bytes32"
						}
					],
					"stateMutability": "view",
					"type": "function"
				},
				{
					"inputs": [
						{
							"internalType": "address",
							"name": "",
							"type": "address"
						}
					],
					"name": "acceptedArcadeTokens",
					"outputs": [
						{
							"internalType": "contract IERC20",
							"name": "native_token",
							"type": "address"
						},
						{
							"internalType": "bool",
							"name": "active",
							"type": "bool"
						},
						{
							"internalType": "uint256",
							"name": "redemption_rate",
							"type": "uint256"
						}
					],
					"stateMutability": "view",
					"type": "function"
				},
				{
					"inputs": [
						{
							"internalType": "address",
							"name": "token_address",
							"type": "address"
						},
						{
							"internalType": "uint256",
							"name": "redemption_rate",
							"type": "uint256"
						},
						{
							"internalType": "bool",
							"name": "_active",
							"type": "bool"
						}
					],
					"name": "addArcadeToken",
					"outputs": [],
					"stateMutability": "nonpayable",
					"type": "function"
				},
				{
					"inputs": [
						{
							"internalType": "uint256",
							"name": "game_id",
							"type": "uint256"
						}
					],
					"name": "closeGame",
					"outputs": [],
					"stateMutability": "nonpayable",
					"type": "function"
				},
				{
					"inputs": [
						{
							"internalType": "uint256",
							"name": "game_id",
							"type": "uint256"
						},
						{
							"internalType": "uint256",
							"name": "registration_fee",
							"type": "uint256"
						},
						{
							"internalType": "address",
							"name": "arcade_token",
							"type": "address"
						},
						{
							"internalType": "uint256",
							"name": "player_limit",
							"type": "uint256"
						},
						{
							"internalType": "bool",
							"name": "exchange",
							"type": "bool"
						}
					],
					"name": "createGame",
					"outputs": [],
					"stateMutability": "nonpayable",
					"type": "function"
				},
				{
					"inputs": [],
					"name": "decimals",
					"outputs": [
						{
							"internalType": "uint256",
							"name": "",
							"type": "uint256"
						}
					],
					"stateMutability": "view",
					"type": "function"
				},
				{
					"inputs": [
						{
							"internalType": "uint256",
							"name": "game_id",
							"type": "uint256"
						}
					],
					"name": "deleteGame",
					"outputs": [],
					"stateMutability": "nonpayable",
					"type": "function"
				},
				{
					"inputs": [],
					"name": "fee_percentage",
					"outputs": [
						{
							"internalType": "uint256",
							"name": "",
							"type": "uint256"
						}
					],
					"stateMutability": "view",
					"type": "function"
				},
				{
					"inputs": [
						{
							"internalType": "uint256",
							"name": "",
							"type": "uint256"
						}
					],
					"name": "gameData",
					"outputs": [
						{
							"internalType": "bool",
							"name": "exchange",
							"type": "bool"
						},
						{
							"internalType": "uint256",
							"name": "player_count",
							"type": "uint256"
						},
						{
							"internalType": "uint256",
							"name": "player_limit",
							"type": "uint256"
						},
						{
							"internalType": "uint256",
							"name": "registration_fee",
							"type": "uint256"
						},
						{
							"internalType": "uint256",
							"name": "status",
							"type": "uint256"
						},
						{
							"internalType": "address",
							"name": "arcade_token",
							"type": "address"
						},
						{
							"internalType": "uint256",
							"name": "total_fee",
							"type": "uint256"
						}
					],
					"stateMutability": "view",
					"type": "function"
				},
				{
					"inputs": [
						{
							"internalType": "bytes32",
							"name": "role",
							"type": "bytes32"
						}
					],
					"name": "getRoleAdmin",
					"outputs": [
						{
							"internalType": "bytes32",
							"name": "",
							"type": "bytes32"
						}
					],
					"stateMutability": "view",
					"type": "function"
				},
				{
					"inputs": [
						{
							"internalType": "address",
							"name": "token_address",
							"type": "address"
						}
					],
					"name": "getStablecoin",
					"outputs": [
						{
							"internalType": "bool",
							"name": "",
							"type": "bool"
						},
						{
							"internalType": "uint256",
							"name": "",
							"type": "uint256"
						}
					],
					"stateMutability": "view",
					"type": "function"
				},
				{
					"inputs": [
						{
							"internalType": "bytes32",
							"name": "role",
							"type": "bytes32"
						},
						{
							"internalType": "address",
							"name": "account",
							"type": "address"
						}
					],
					"name": "grantRole",
					"outputs": [],
					"stateMutability": "nonpayable",
					"type": "function"
				},
				{
					"inputs": [
						{
							"internalType": "bytes32",
							"name": "role",
							"type": "bytes32"
						},
						{
							"internalType": "address",
							"name": "account",
							"type": "address"
						}
					],
					"name": "hasRole",
					"outputs": [
						{
							"internalType": "bool",
							"name": "",
							"type": "bool"
						}
					],
					"stateMutability": "view",
					"type": "function"
				},
				{
					"inputs": [
						{
							"internalType": "address",
							"name": "token_address",
							"type": "address"
						}
					],
					"name": "isAccepted",
					"outputs": [
						{
							"internalType": "bool",
							"name": "",
							"type": "bool"
						}
					],
					"stateMutability": "view",
					"type": "function"
				},
				{
					"inputs": [],
					"name": "market_maker",
					"outputs": [
						{
							"internalType": "address",
							"name": "",
							"type": "address"
						}
					],
					"stateMutability": "view",
					"type": "function"
				},
				{
					"inputs": [
						{
							"internalType": "uint256",
							"name": "game_id",
							"type": "uint256"
						}
					],
					"name": "openGame",
					"outputs": [],
					"stateMutability": "nonpayable",
					"type": "function"
				},
				{
					"inputs": [],
					"name": "owner",
					"outputs": [
						{
							"internalType": "address",
							"name": "",
							"type": "address"
						}
					],
					"stateMutability": "view",
					"type": "function"
				},
				{
					"inputs": [
						{
							"internalType": "uint256",
							"name": "game_id",
							"type": "uint256"
						},
						{
							"internalType": "address",
							"name": "player",
							"type": "address"
						}
					],
					"name": "placePlayer",
					"outputs": [],
					"stateMutability": "nonpayable",
					"type": "function"
				},
				{
					"inputs": [],
					"name": "reconcile",
					"outputs": [],
					"stateMutability": "nonpayable",
					"type": "function"
				},
				{
					"inputs": [
						{
							"internalType": "uint256",
							"name": "game_id",
							"type": "uint256"
						},
						{
							"internalType": "address",
							"name": "player",
							"type": "address"
						}
					],
					"name": "refund",
					"outputs": [],
					"stateMutability": "nonpayable",
					"type": "function"
				},
				{
					"inputs": [
						{
							"internalType": "uint256",
							"name": "game_id",
							"type": "uint256"
						}
					],
					"name": "register",
					"outputs": [],
					"stateMutability": "nonpayable",
					"type": "function"
				},
				{
					"inputs": [
						{
							"internalType": "address",
							"name": "token_address",
							"type": "address"
						}
					],
					"name": "removeArcadeToken",
					"outputs": [],
					"stateMutability": "nonpayable",
					"type": "function"
				},
				{
					"inputs": [
						{
							"internalType": "uint256",
							"name": "game_id",
							"type": "uint256"
						},
						{
							"internalType": "address",
							"name": "player",
							"type": "address"
						}
					],
					"name": "removePlayer",
					"outputs": [],
					"stateMutability": "nonpayable",
					"type": "function"
				},
				{
					"inputs": [
						{
							"internalType": "bytes32",
							"name": "role",
							"type": "bytes32"
						},
						{
							"internalType": "address",
							"name": "account",
							"type": "address"
						}
					],
					"name": "renounceRole",
					"outputs": [],
					"stateMutability": "nonpayable",
					"type": "function"
				},
				{
					"inputs": [
						{
							"internalType": "bytes32",
							"name": "role",
							"type": "bytes32"
						},
						{
							"internalType": "address",
							"name": "account",
							"type": "address"
						}
					],
					"name": "revokeRole",
					"outputs": [],
					"stateMutability": "nonpayable",
					"type": "function"
				},
				{
					"inputs": [
						{
							"internalType": "uint256",
							"name": "percentage",
							"type": "uint256"
						}
					],
					"name": "setArcadeFeePercentage",
					"outputs": [],
					"stateMutability": "nonpayable",
					"type": "function"
				},
				{
					"inputs": [
						{
							"internalType": "address",
							"name": "incoming",
							"type": "address"
						}
					],
					"name": "setMarketMaker",
					"outputs": [],
					"stateMutability": "nonpayable",
					"type": "function"
				},
				{
					"inputs": [
						{
							"internalType": "uint256",
							"name": "game_id",
							"type": "uint256"
						},
						{
							"internalType": "address",
							"name": "winner",
							"type": "address"
						}
					],
					"name": "setWinner",
					"outputs": [],
					"stateMutability": "nonpayable",
					"type": "function"
				},
				{
					"inputs": [
						{
							"internalType": "bytes4",
							"name": "interfaceId",
							"type": "bytes4"
						}
					],
					"name": "supportsInterface",
					"outputs": [
						{
							"internalType": "bool",
							"name": "",
							"type": "bool"
						}
					],
					"stateMutability": "view",
					"type": "function"
				},
				{
					"inputs": [
						{
							"internalType": "uint256",
							"name": "game_id",
							"type": "uint256"
						}
					],
					"name": "swap",
					"outputs": [],
					"stateMutability": "payable",
					"type": "function"
				}
			],
			"devdoc": {
				"kind": "dev",
				"methods": {
					"addArcadeToken(address,uint256,bool)": {
						"details": "Adds token to {acceptedArcadeTokens} Require `token_address` for proxy balance exchange.   `redemption_rate` is set and determines the rate that proxy balance is exchanged.   Set `active` to reflect status of exchange."
					},
					"closeGame(uint256)": {
						"details": "Returns {active} for `token_address`."
					},
					"createGame(uint256,uint256,address,uint256,bool)": {
						"details": "Returns {active} for `token_address`."
					},
					"deleteGame(uint256)": {
						"details": "Returns {active} for `token_address`."
					},
					"getRoleAdmin(bytes32)": {
						"details": "Returns the admin role that controls `role`. See {grantRole} and {revokeRole}. To change a role's admin, use {_setRoleAdmin}."
					},
					"getStablecoin(address)": {
						"details": "Returns {Stablecoin} struct for `token_address`."
					},
					"grantRole(bytes32,address)": {
						"details": "Grants `role` to `account`. If `account` had not been already granted `role`, emits a {RoleGranted} event. Requirements: - the caller must have ``role``'s admin role."
					},
					"hasRole(bytes32,address)": {
						"details": "Returns `true` if `account` has been granted `role`."
					},
					"isAccepted(address)": {
						"details": "Returns {active} for `token_address`."
					},
					"openGame(uint256)": {
						"details": "Returns {active} for `token_address`."
					},
					"placePlayer(uint256,address)": {
						"details": "Returns {active} for `token_address`."
					},
					"reconcile()": {
						"details": "Returns {active} for `token_address`."
					},
					"refund(uint256,address)": {
						"details": "Returns {active} for `token_address`."
					},
					"register(uint256)": {
						"details": "Returns {active} for `token_address`."
					},
					"removeArcadeToken(address)": {
						"details": "Disable token for proxy balance exchange."
					},
					"removePlayer(uint256,address)": {
						"details": "Returns {active} for `token_address`."
					},
					"renounceRole(bytes32,address)": {
						"details": "Revokes `role` from the calling account. Roles are often managed via {grantRole} and {revokeRole}: this function's purpose is to provide a mechanism for accounts to lose their privileges if they are compromised (such as when a trusted device is misplaced). If the calling account had been revoked `role`, emits a {RoleRevoked} event. Requirements: - the caller must be `account`."
					},
					"revokeRole(bytes32,address)": {
						"details": "Revokes `role` from `account`. If `account` had been granted `role`, emits a {RoleRevoked} event. Requirements: - the caller must have ``role``'s admin role."
					},
					"setArcadeFeePercentage(uint256)": {
						"details": "Returns {active} for `token_address`."
					},
					"setMarketMaker(address)": {
						"details": "Returns {active} for `token_address`."
					},
					"setWinner(uint256,address)": {
						"details": "Returns {active} for `token_address`."
					},
					"supportsInterface(bytes4)": {
						"details": "See {IERC165-supportsInterface}."
					},
					"swap(uint256)": {
						"details": "Returns {active} for `token_address`."
					}
				},
				"version": 1
			},
			"evm": {
				"assembly": "    /* \"contracts/Arcade.sol\":263:9872  contract Arcade is AccessControl {... */\n  mstore(0x40, 0x80)\n    /* \"contracts/Arcade.sol\":1438:1440  18 */\n  0x12\n    /* \"contracts/Arcade.sol\":1412:1440  uint256 public decimals = 18 */\n  0x03\n  dup2\n  swap1\n  sstore\n    /* \"contracts/Arcade.sol\":1506:1529  10**(uint256(decimals)) */\n  tag_1\n  swap1\n    /* \"contracts/Arcade.sol\":1506:1508  10 */\n  0x0a\n    /* \"contracts/Arcade.sol\":1506:1529  10**(uint256(decimals)) */\n  tag_2\n  jump\t// in\ntag_1:\n    /* \"contracts/Arcade.sol\":1483:1529  uint256 private base = 10**(uint256(decimals)) */\n  0x05\n  sstore\n    /* \"contracts/Arcade.sol\":1597:1716  constructor() {... */\n  callvalue\n  dup1\n  iszero\n  tag_3\n  jumpi\n  0x00\n  dup1\n  revert\ntag_3:\n  pop\n    /* \"contracts/Arcade.sol\":1621:1626  owner */\n  0x07\n    /* \"contracts/Arcade.sol\":1621:1641  owner = _msgSender() */\n  dup1\n  sload\n    /* \"@openzeppelin/contracts@4.6.0/utils/Context.sol\":719:729  msg.sender */\n  caller\n  not(sub(shl(0xa0, 0x01), 0x01))\n    /* \"contracts/Arcade.sol\":1621:1641  owner = _msgSender() */\n  swap2\n  dup3\n  and\n  dup2\n  or\n  swap1\n  swap3\n  sstore\n    /* \"contracts/Arcade.sol\":1668:1672  1e17 */\n  0x016345785d8a0000\n    /* \"contracts/Arcade.sol\":1651:1665  fee_percentage */\n  0x04\n    /* \"contracts/Arcade.sol\":1651:1672  fee_percentage = 1e17 */\n  sstore\n    /* \"contracts/Arcade.sol\":1682:1694  market_maker */\n  0x06\n    /* \"contracts/Arcade.sol\":1682:1709  market_maker = _msgSender() */\n  dup1\n  sload\n  swap1\n  swap2\n  and\n  swap1\n  swap2\n  or\n  swap1\n  sstore\n    /* \"contracts/Arcade.sol\":263:9872  contract Arcade is AccessControl {... */\n  jump(tag_11)\n    /* \"#utility.yul\":14:436   */\ntag_12:\n    /* \"#utility.yul\":103:104   */\n  0x01\n    /* \"#utility.yul\":146:151   */\n  dup2\n    /* \"#utility.yul\":103:104   */\n  dup2\n    /* \"#utility.yul\":160:430   */\ntag_14:\n    /* \"#utility.yul\":181:188   */\n  dup1\n    /* \"#utility.yul\":171:179   */\n  dup6\n    /* \"#utility.yul\":168:189   */\n  gt\n    /* \"#utility.yul\":160:430   */\n  iszero\n  tag_16\n  jumpi\n    /* \"#utility.yul\":240:244   */\n  dup2\n    /* \"#utility.yul\":236:237   */\n  0x00\n    /* \"#utility.yul\":232:238   */\n  not\n    /* \"#utility.yul\":228:245   */\n  div\n    /* \"#utility.yul\":222:226   */\n  dup3\n    /* \"#utility.yul\":219:246   */\n  gt\n    /* \"#utility.yul\":216:218   */\n  iszero\n  tag_18\n  jumpi\n    /* \"#utility.yul\":249:267   */\n  tag_18\n  tag_19\n  jump\t// in\ntag_18:\n    /* \"#utility.yul\":299:306   */\n  dup1\n    /* \"#utility.yul\":289:297   */\n  dup6\n    /* \"#utility.yul\":285:307   */\n  and\n    /* \"#utility.yul\":282:284   */\n  iszero\n  tag_20\n  jumpi\n    /* \"#utility.yul\":319:335   */\n  swap2\n  dup2\n  mul\n  swap2\n    /* \"#utility.yul\":282:284   */\ntag_20:\n    /* \"#utility.yul\":398:420   */\n  swap4\n  dup5\n  shr\n  swap4\n    /* \"#utility.yul\":358:373   */\n  swap1\n  dup1\n  mul\n  swap1\n    /* \"#utility.yul\":160:430   */\n  jump(tag_14)\ntag_16:\n    /* \"#utility.yul\":164:167   */\n  pop\n    /* \"#utility.yul\":78:436   */\n  swap3\n  pop\n  swap3\n  swap1\n  pop\n  jump\t// out\n    /* \"#utility.yul\":441:572   */\ntag_2:\n    /* \"#utility.yul\":501:506   */\n  0x00\n    /* \"#utility.yul\":530:566   */\n  tag_22\n    /* \"#utility.yul\":557:565   */\n  dup4\n    /* \"#utility.yul\":551:555   */\n  dup4\n    /* \"#utility.yul\":530:566   */\n  tag_23\n  jump\t// in\ntag_22:\n    /* \"#utility.yul\":521:566   */\n  swap4\n    /* \"#utility.yul\":511:572   */\n  swap3\n  pop\n  pop\n  pop\n  jump\t// out\n    /* \"#utility.yul\":577:1383   */\ntag_23:\n    /* \"#utility.yul\":626:631   */\n  0x00\n    /* \"#utility.yul\":656:664   */\n  dup3\n    /* \"#utility.yul\":646:648   */\n  tag_25\n  jumpi\n  pop\n    /* \"#utility.yul\":697:698   */\n  0x01\n    /* \"#utility.yul\":711:716   */\n  jump(tag_24)\n    /* \"#utility.yul\":646:648   */\ntag_25:\n    /* \"#utility.yul\":745:749   */\n  dup2\n    /* \"#utility.yul\":735:737   */\n  tag_26\n  jumpi\n  pop\n    /* \"#utility.yul\":782:783   */\n  0x00\n    /* \"#utility.yul\":796:801   */\n  jump(tag_24)\n    /* \"#utility.yul\":735:737   */\ntag_26:\n    /* \"#utility.yul\":827:831   */\n  dup2\n    /* \"#utility.yul\":845:846   */\n  0x01\n    /* \"#utility.yul\":840:899   */\n  dup2\n  eq\n  tag_28\n  jumpi\n    /* \"#utility.yul\":913:914   */\n  0x02\n    /* \"#utility.yul\":908:1038   */\n  dup2\n  eq\n  tag_29\n  jumpi\n    /* \"#utility.yul\":820:1038   */\n  jump(tag_27)\n    /* \"#utility.yul\":840:899   */\ntag_28:\n    /* \"#utility.yul\":870:871   */\n  0x01\n    /* \"#utility.yul\":861:871   */\n  swap2\n  pop\n    /* \"#utility.yul\":884:889   */\n  pop\n  jump(tag_24)\n    /* \"#utility.yul\":908:1038   */\ntag_29:\n    /* \"#utility.yul\":945:948   */\n  0xff\n    /* \"#utility.yul\":935:943   */\n  dup5\n    /* \"#utility.yul\":932:949   */\n  gt\n    /* \"#utility.yul\":929:931   */\n  iszero\n  tag_31\n  jumpi\n    /* \"#utility.yul\":952:970   */\n  tag_31\n  tag_19\n  jump\t// in\ntag_31:\n  pop\n  pop\n    /* \"#utility.yul\":1008:1009   */\n  0x01\n    /* \"#utility.yul\":994:1010   */\n  dup3\n  shl\n    /* \"#utility.yul\":1023:1028   */\n  jump(tag_24)\n    /* \"#utility.yul\":820:1038   */\ntag_27:\n  pop\n    /* \"#utility.yul\":1122:1124   */\n  0x20\n    /* \"#utility.yul\":1112:1120   */\n  dup4\n    /* \"#utility.yul\":1109:1125   */\n  lt\n    /* \"#utility.yul\":1103:1106   */\n  0x0133\n    /* \"#utility.yul\":1097:1101   */\n  dup4\n    /* \"#utility.yul\":1094:1107   */\n  lt\n    /* \"#utility.yul\":1090:1126   */\n  and\n    /* \"#utility.yul\":1084:1086   */\n  0x4e\n    /* \"#utility.yul\":1074:1082   */\n  dup5\n    /* \"#utility.yul\":1071:1087   */\n  lt\n    /* \"#utility.yul\":1066:1068   */\n  0x0b\n    /* \"#utility.yul\":1060:1064   */\n  dup5\n    /* \"#utility.yul\":1057:1069   */\n  lt\n    /* \"#utility.yul\":1053:1088   */\n  and\n    /* \"#utility.yul\":1050:1127   */\n  or\n    /* \"#utility.yul\":1047:1049   */\n  iszero\n  tag_32\n  jumpi\n  pop\n    /* \"#utility.yul\":1159:1178   */\n  dup2\n  dup2\n  exp\n    /* \"#utility.yul\":1191:1196   */\n  jump(tag_24)\n    /* \"#utility.yul\":1047:1049   */\ntag_32:\n    /* \"#utility.yul\":1238:1272   */\n  tag_33\n    /* \"#utility.yul\":1263:1271   */\n  dup4\n    /* \"#utility.yul\":1257:1261   */\n  dup4\n    /* \"#utility.yul\":1238:1272   */\n  tag_12\n  jump\t// in\ntag_33:\n    /* \"#utility.yul\":1308:1314   */\n  dup1\n    /* \"#utility.yul\":1304:1305   */\n  0x00\n    /* \"#utility.yul\":1300:1306   */\n  not\n    /* \"#utility.yul\":1296:1315   */\n  div\n    /* \"#utility.yul\":1287:1294   */\n  dup3\n    /* \"#utility.yul\":1284:1316   */\n  gt\n    /* \"#utility.yul\":1281:1283   */\n  iszero\n  tag_35\n  jumpi\n    /* \"#utility.yul\":1319:1337   */\n  tag_35\n  tag_19\n  jump\t// in\ntag_35:\n    /* \"#utility.yul\":1357:1377   */\n  mul\n  swap1\n  pop\n    /* \"#utility.yul\":636:1383   */\ntag_24:\n  swap3\n  swap2\n  pop\n  pop\n  jump\t// out\n    /* \"#utility.yul\":1388:1515   */\ntag_19:\n    /* \"#utility.yul\":1449:1459   */\n  0x4e487b71\n    /* \"#utility.yul\":1444:1447   */\n  0xe0\n    /* \"#utility.yul\":1440:1460   */\n  shl\n    /* \"#utility.yul\":1437:1438   */\n  0x00\n    /* \"#utility.yul\":1430:1461   */\n  mstore\n    /* \"#utility.yul\":1480:1484   */\n  0x11\n    /* \"#utility.yul\":1477:1478   */\n  0x04\n    /* \"#utility.yul\":1470:1485   */\n  mstore\n    /* \"#utility.yul\":1504:1508   */\n  0x24\n    /* \"#utility.yul\":1501:1502   */\n  0x00\n    /* \"#utility.yul\":1494:1509   */\n  revert\n    /* \"#utility.yul\":1420:1515   */\ntag_11:\n    /* \"contracts/Arcade.sol\":263:9872  contract Arcade is AccessControl {... */\n  dataSize(sub_0)\n  dup1\n  dataOffset(sub_0)\n  0x00\n  codecopy\n  0x00\n  return\nstop\n\nsub_0: assembly {\n        /* \"contracts/Arcade.sol\":263:9872  contract Arcade is AccessControl {... */\n      mstore(0x40, 0x80)\n      jumpi(tag_1, lt(calldatasize, 0x04))\n      shr(0xe0, calldataload(0x00))\n      dup1\n      0x8da5cb5b\n      gt\n      tag_33\n      jumpi\n      dup1\n      0xc46ed45a\n      gt\n      tag_34\n      jumpi\n      dup1\n      0xf0a3a97c\n      gt\n      tag_35\n      jumpi\n      dup1\n      0xf0a3a97c\n      eq\n      tag_29\n      jumpi\n      dup1\n      0xf207564e\n      eq\n      tag_30\n      jumpi\n      dup1\n      0xf336ee3c\n      eq\n      tag_31\n      jumpi\n      dup1\n      0xf54c42d7\n      eq\n      tag_32\n      jumpi\n      0x00\n      dup1\n      revert\n    tag_35:\n      dup1\n      0xc46ed45a\n      eq\n      tag_25\n      jumpi\n      dup1\n      0xccaf237f\n      eq\n      tag_26\n      jumpi\n      dup1\n      0xd547741f\n      eq\n      tag_27\n      jumpi\n      dup1\n      0xe6f091f9\n      eq\n      tag_28\n      jumpi\n      0x00\n      dup1\n      revert\n    tag_34:\n      dup1\n      0x9c623683\n      gt\n      tag_36\n      jumpi\n      dup1\n      0x9c623683\n      eq\n      tag_21\n      jumpi\n      dup1\n      0xa217fddf\n      eq\n      tag_22\n      jumpi\n      dup1\n      0xb22c376d\n      eq\n      tag_23\n      jumpi\n      dup1\n      0xb9888d89\n      eq\n      tag_24\n      jumpi\n      0x00\n      dup1\n      revert\n    tag_36:\n      dup1\n      0x8da5cb5b\n      eq\n      tag_17\n      jumpi\n      dup1\n      0x8f0d7e35\n      eq\n      tag_18\n      jumpi\n      dup1\n      0x91d14854\n      eq\n      tag_19\n      jumpi\n      dup1\n      0x94b918de\n      eq\n      tag_20\n      jumpi\n      0x00\n      dup1\n      revert\n    tag_33:\n      dup1\n      0x2d6ef310\n      gt\n      tag_37\n      jumpi\n      dup1\n      0x3e16518f\n      gt\n      tag_38\n      jumpi\n      dup1\n      0x3e16518f\n      eq\n      tag_13\n      jumpi\n      dup1\n      0x4575624b\n      eq\n      tag_14\n      jumpi\n      dup1\n      0x75ca7603\n      eq\n      tag_15\n      jumpi\n      dup1\n      0x7ad226dc\n      eq\n      tag_16\n      jumpi\n      0x00\n      dup1\n      revert\n    tag_38:\n      dup1\n      0x2d6ef310\n      eq\n      tag_9\n      jumpi\n      dup1\n      0x2f2ff15d\n      eq\n      tag_10\n      jumpi\n      dup1\n      0x313ce567\n      eq\n      tag_11\n      jumpi\n      dup1\n      0x36568abe\n      eq\n      tag_12\n      jumpi\n      0x00\n      dup1\n      revert\n    tag_37:\n      dup1\n      0x248a55a1\n      gt\n      tag_39\n      jumpi\n      dup1\n      0x248a55a1\n      eq\n      tag_5\n      jumpi\n      dup1\n      0x248a9ca3\n      eq\n      tag_6\n      jumpi\n      dup1\n      0x2ac5016f\n      eq\n      tag_7\n      jumpi\n      dup1\n      0x2ba67100\n      eq\n      tag_8\n      jumpi\n      0x00\n      dup1\n      revert\n    tag_39:\n      dup1\n      0xf5544f\n      eq\n      tag_2\n      jumpi\n      dup1\n      0x01ffc9a7\n      eq\n      tag_3\n      jumpi\n      dup1\n      0x06602a48\n      eq\n      tag_4\n      jumpi\n    tag_1:\n      0x00\n      dup1\n      revert\n        /* \"contracts/Arcade.sol\":4397:4546  function openGame(uint256 game_id) public onlyRole(DEFAULT_ADMIN_ROLE) {... */\n    tag_2:\n      callvalue\n      dup1\n      iszero\n      tag_40\n      jumpi\n      0x00\n      dup1\n      revert\n    tag_40:\n      pop\n      tag_41\n      tag_42\n      calldatasize\n      0x04\n      tag_64\n      jump\t// in\n    tag_42:\n      tag_44\n      jump\t// in\n    tag_41:\n      stop\n        /* \"@openzeppelin/contracts@4.6.0/access/AccessControl.sol\":2606:2808  function supportsInterface(bytes4 interfaceId) public view virtual override returns (bool) {... */\n    tag_3:\n      callvalue\n      dup1\n      iszero\n      tag_45\n      jumpi\n      0x00\n      dup1\n      revert\n    tag_45:\n      pop\n      tag_46\n      tag_47\n      calldatasize\n      0x04\n      tag_48\n      jump\t// in\n    tag_47:\n      tag_49\n      jump\t// in\n    tag_46:\n      mload(0x40)\n        /* \"#utility.yul\":5223:5237   */\n      swap1\n      iszero\n        /* \"#utility.yul\":5216:5238   */\n      iszero\n        /* \"#utility.yul\":5198:5239   */\n      dup2\n      mstore\n        /* \"#utility.yul\":5186:5188   */\n      0x20\n        /* \"#utility.yul\":5171:5189   */\n      add\n        /* \"@openzeppelin/contracts@4.6.0/access/AccessControl.sol\":2606:2808  function supportsInterface(bytes4 interfaceId) public view virtual override returns (bool) {... */\n    tag_50:\n      mload(0x40)\n      dup1\n      swap2\n      sub\n      swap1\n      return\n        /* \"contracts/Arcade.sol\":2191:2755  function addArcadeToken(address token_address, uint256 redemption_rate, bool _active) public onlyRole(TREASURER_ROLE) {... */\n    tag_4:\n      callvalue\n      dup1\n      iszero\n      tag_52\n      jumpi\n      0x00\n      dup1\n      revert\n    tag_52:\n      pop\n      tag_41\n      tag_54\n      calldatasize\n      0x04\n      tag_55\n      jump\t// in\n    tag_54:\n      tag_56\n      jump\t// in\n        /* \"contracts/Arcade.sol\":4176:4325  function deleteGame(uint256 game_id) public onlyRole(DEFAULT_ADMIN_ROLE) {... */\n    tag_5:\n      callvalue\n      dup1\n      iszero\n      tag_57\n      jumpi\n      0x00\n      dup1\n      revert\n    tag_57:\n      pop\n      tag_41\n      tag_59\n      calldatasize\n      0x04\n      tag_64\n      jump\t// in\n    tag_59:\n      tag_60\n      jump\t// in\n        /* \"@openzeppelin/contracts@4.6.0/access/AccessControl.sol\":4391:4520  function getRoleAdmin(bytes32 role) public view virtual override returns (bytes32) {... */\n    tag_6:\n      callvalue\n      dup1\n      iszero\n      tag_61\n      jumpi\n      0x00\n      dup1\n      revert\n    tag_61:\n      pop\n      tag_62\n      tag_63\n      calldatasize\n      0x04\n      tag_64\n      jump\t// in\n    tag_63:\n        /* \"@openzeppelin/contracts@4.6.0/access/AccessControl.sol\":4465:4472  bytes32 */\n      0x00\n        /* \"@openzeppelin/contracts@4.6.0/access/AccessControl.sol\":4491:4503  _roles[role] */\n      swap1\n      dup2\n      mstore\n      0x20\n      dup2\n      swap1\n      mstore\n      0x40\n      swap1\n      keccak256\n        /* \"@openzeppelin/contracts@4.6.0/access/AccessControl.sol\":4491:4513  _roles[role].adminRole */\n      0x01\n      add\n      sload\n      swap1\n        /* \"@openzeppelin/contracts@4.6.0/access/AccessControl.sol\":4391:4520  function getRoleAdmin(bytes32 role) public view virtual override returns (bytes32) {... */\n      jump\n    tag_62:\n      mload(0x40)\n        /* \"#utility.yul\":6307:6332   */\n      swap1\n      dup2\n      mstore\n        /* \"#utility.yul\":6295:6297   */\n      0x20\n        /* \"#utility.yul\":6280:6298   */\n      add\n        /* \"@openzeppelin/contracts@4.6.0/access/AccessControl.sol\":4391:4520  function getRoleAdmin(bytes32 role) public view virtual override returns (bytes32) {... */\n      tag_50\n        /* \"#utility.yul\":6262:6338   */\n      jump\n        /* \"contracts/Arcade.sol\":8610:8742  function setArcadeFeePercentage(uint256 percentage) public onlyRole(DEFAULT_ADMIN_ROLE) {... */\n    tag_7:\n      callvalue\n      dup1\n      iszero\n      tag_68\n      jumpi\n      0x00\n      dup1\n      revert\n    tag_68:\n      pop\n      tag_41\n      tag_70\n      calldatasize\n      0x04\n      tag_64\n      jump\t// in\n    tag_70:\n      tag_71\n      jump\t// in\n        /* \"contracts/Arcade.sol\":8359:8538  function removePlayer(uint256 game_id, address player) public onlyRole(DEFAULT_ADMIN_ROLE) {... */\n    tag_8:\n      callvalue\n      dup1\n      iszero\n      tag_72\n      jumpi\n      0x00\n      dup1\n      revert\n    tag_72:\n      pop\n      tag_41\n      tag_74\n      calldatasize\n      0x04\n      tag_84\n      jump\t// in\n    tag_74:\n      tag_76\n      jump\t// in\n        /* \"contracts/Arcade.sol\":3338:3489  function closeGame(uint256 game_id) public onlyRole(DEFAULT_ADMIN_ROLE) {... */\n    tag_9:\n      callvalue\n      dup1\n      iszero\n      tag_77\n      jumpi\n      0x00\n      dup1\n      revert\n    tag_77:\n      pop\n      tag_41\n      tag_79\n      calldatasize\n      0x04\n      tag_64\n      jump\t// in\n    tag_79:\n      tag_80\n      jump\t// in\n        /* \"@openzeppelin/contracts@4.6.0/access/AccessControl.sol\":4770:4915  function grantRole(bytes32 role, address account) public virtual override onlyRole(getRoleAdmin(role)) {... */\n    tag_10:\n      callvalue\n      dup1\n      iszero\n      tag_81\n      jumpi\n      0x00\n      dup1\n      revert\n    tag_81:\n      pop\n      tag_41\n      tag_83\n      calldatasize\n      0x04\n      tag_84\n      jump\t// in\n    tag_83:\n      tag_85\n      jump\t// in\n        /* \"contracts/Arcade.sol\":1412:1440  uint256 public decimals = 18 */\n    tag_11:\n      callvalue\n      dup1\n      iszero\n      tag_86\n      jumpi\n      0x00\n      dup1\n      revert\n    tag_86:\n      pop\n      tag_62\n      sload(0x03)\n      dup2\n      jump\n        /* \"@openzeppelin/contracts@4.6.0/access/AccessControl.sol\":5787:6001  function renounceRole(bytes32 role, address account) public virtual override {... */\n    tag_12:\n      callvalue\n      dup1\n      iszero\n      tag_91\n      jumpi\n      0x00\n      dup1\n      revert\n    tag_91:\n      pop\n      tag_41\n      tag_93\n      calldatasize\n      0x04\n      tag_84\n      jump\t// in\n    tag_93:\n      tag_94\n      jump\t// in\n        /* \"contracts/Arcade.sol\":2831:2980  function removeArcadeToken(address token_address) public onlyRole(TREASURER_ROLE) {... */\n    tag_13:\n      callvalue\n      dup1\n      iszero\n      tag_95\n      jumpi\n      0x00\n      dup1\n      revert\n    tag_95:\n      pop\n      tag_41\n      tag_97\n      calldatasize\n      0x04\n      tag_98\n      jump\t// in\n    tag_97:\n      tag_99\n      jump\t// in\n        /* \"contracts/Arcade.sol\":3063:3266  function getStablecoin(address token_address) public view returns (bool, uint256) {... */\n    tag_14:\n      callvalue\n      dup1\n      iszero\n      tag_100\n      jumpi\n      0x00\n      dup1\n      revert\n    tag_100:\n      pop\n      tag_101\n      tag_102\n      calldatasize\n      0x04\n      tag_98\n      jump\t// in\n    tag_102:\n      sub(shl(0xa0, 0x01), 0x01)\n        /* \"contracts/Arcade.sol\":3163:3198  acceptedArcadeTokens[token_address] */\n      and\n        /* \"contracts/Arcade.sol\":3130:3134  bool */\n      0x00\n        /* \"contracts/Arcade.sol\":3163:3198  acceptedArcadeTokens[token_address] */\n      swap1\n      dup2\n      mstore\n        /* \"contracts/Arcade.sol\":3163:3183  acceptedArcadeTokens */\n      0x01\n        /* \"contracts/Arcade.sol\":3163:3198  acceptedArcadeTokens[token_address] */\n      0x20\n      dup2\n      swap1\n      mstore\n      0x40\n      swap1\n      swap2\n      keccak256\n        /* \"contracts/Arcade.sol\":3163:3205  acceptedArcadeTokens[token_address].active */\n      dup1\n      sload\n        /* \"contracts/Arcade.sol\":3207:3258  acceptedArcadeTokens[token_address].redemption_rate */\n      swap2\n      add\n      sload\n      shl(0xa0, 0x01)\n        /* \"contracts/Arcade.sol\":3163:3205  acceptedArcadeTokens[token_address].active */\n      swap1\n      swap2\n      div\n      0xff\n      and\n      swap2\n        /* \"contracts/Arcade.sol\":3063:3266  function getStablecoin(address token_address) public view returns (bool, uint256) {... */\n      jump\n    tag_101:\n      0x40\n      dup1\n      mload\n        /* \"#utility.yul\":5443:5457   */\n      swap3\n      iszero\n        /* \"#utility.yul\":5436:5458   */\n      iszero\n        /* \"#utility.yul\":5418:5459   */\n      dup4\n      mstore\n        /* \"#utility.yul\":5490:5492   */\n      0x20\n        /* \"#utility.yul\":5475:5493   */\n      dup4\n      add\n        /* \"#utility.yul\":5468:5502   */\n      swap2\n      swap1\n      swap2\n      mstore\n        /* \"#utility.yul\":5391:5409   */\n      add\n        /* \"contracts/Arcade.sol\":3063:3266  function getStablecoin(address token_address) public view returns (bool, uint256) {... */\n      tag_50\n        /* \"#utility.yul\":5373:5508   */\n      jump\n        /* \"contracts/Arcade.sol\":1536:1563  address public market_maker */\n    tag_15:\n      callvalue\n      dup1\n      iszero\n      tag_106\n      jumpi\n      0x00\n      dup1\n      revert\n    tag_106:\n      pop\n      sload(0x06)\n      tag_107\n      swap1\n      sub(shl(0xa0, 0x01), 0x01)\n      and\n      dup2\n      jump\n    tag_107:\n      mload(0x40)\n      sub(shl(0xa0, 0x01), 0x01)\n        /* \"#utility.yul\":3991:4023   */\n      swap1\n      swap2\n      and\n        /* \"#utility.yul\":3973:4024   */\n      dup2\n      mstore\n        /* \"#utility.yul\":3961:3963   */\n      0x20\n        /* \"#utility.yul\":3946:3964   */\n      add\n        /* \"contracts/Arcade.sol\":1536:1563  address public market_maker */\n      tag_50\n        /* \"#utility.yul\":3928:4030   */\n      jump\n        /* \"contracts/Arcade.sol\":5332:6024  function refund(uint256 game_id, address player) public onlyRole(DEFAULT_ADMIN_ROLE) {... */\n    tag_16:\n      callvalue\n      dup1\n      iszero\n      tag_111\n      jumpi\n      0x00\n      dup1\n      revert\n    tag_111:\n      pop\n      tag_41\n      tag_113\n      calldatasize\n      0x04\n      tag_84\n      jump\t// in\n    tag_113:\n      tag_114\n      jump\t// in\n        /* \"contracts/Arcade.sol\":1570:1590  address public owner */\n    tag_17:\n      callvalue\n      dup1\n      iszero\n      tag_115\n      jumpi\n      0x00\n      dup1\n      revert\n    tag_115:\n      pop\n      sload(0x07)\n      tag_107\n      swap1\n      sub(shl(0xa0, 0x01), 0x01)\n      and\n      dup2\n      jump\n        /* \"contracts/Arcade.sol\":4971:5260  function reconcile() public onlyRole(DEFAULT_ADMIN_ROLE) {... */\n    tag_18:\n      callvalue\n      dup1\n      iszero\n      tag_119\n      jumpi\n      0x00\n      dup1\n      revert\n    tag_119:\n      pop\n      tag_41\n      tag_121\n      jump\t// in\n        /* \"@openzeppelin/contracts@4.6.0/access/AccessControl.sol\":2895:3040  function hasRole(bytes32 role, address account) public view virtual override returns (bool) {... */\n    tag_19:\n      callvalue\n      dup1\n      iszero\n      tag_122\n      jumpi\n      0x00\n      dup1\n      revert\n    tag_122:\n      pop\n      tag_46\n      tag_124\n      calldatasize\n      0x04\n      tag_84\n      jump\t// in\n    tag_124:\n      tag_125\n      jump\t// in\n        /* \"contracts/Arcade.sol\":7421:8287  function swap(uint256 game_id) public payable {... */\n    tag_20:\n      tag_41\n      tag_128\n      calldatasize\n      0x04\n      tag_64\n      jump\t// in\n    tag_128:\n      tag_129\n      jump\t// in\n        /* \"contracts/Arcade.sol\":9004:9870  function setWinner(uint256 game_id, address winner) public onlyRole(DEFAULT_ADMIN_ROLE) {... */\n    tag_21:\n      callvalue\n      dup1\n      iszero\n      tag_130\n      jumpi\n      0x00\n      dup1\n      revert\n    tag_130:\n      pop\n      tag_41\n      tag_132\n      calldatasize\n      0x04\n      tag_84\n      jump\t// in\n    tag_132:\n      tag_133\n      jump\t// in\n        /* \"@openzeppelin/contracts@4.6.0/access/AccessControl.sol\":2027:2076  bytes32 public constant DEFAULT_ADMIN_ROLE = 0x00 */\n    tag_22:\n      callvalue\n      dup1\n      iszero\n      tag_134\n      jumpi\n      0x00\n      dup1\n      revert\n    tag_134:\n      pop\n      tag_62\n        /* \"@openzeppelin/contracts@4.6.0/access/AccessControl.sol\":2072:2076  0x00 */\n      0x00\n        /* \"@openzeppelin/contracts@4.6.0/access/AccessControl.sol\":2027:2076  bytes32 public constant DEFAULT_ADMIN_ROLE = 0x00 */\n      dup2\n      jump\n        /* \"contracts/Arcade.sol\":1295:1354  mapping(address => ArcadeToken) public acceptedArcadeTokens */\n    tag_23:\n      callvalue\n      dup1\n      iszero\n      tag_138\n      jumpi\n      0x00\n      dup1\n      revert\n    tag_138:\n      pop\n      tag_139\n      tag_140\n      calldatasize\n      0x04\n      tag_98\n      jump\t// in\n    tag_140:\n      0x01\n      0x20\n      dup2\n      swap1\n      mstore\n      0x00\n      swap2\n      dup3\n      mstore\n      0x40\n      swap1\n      swap2\n      keccak256\n      dup1\n      sload\n      swap2\n      add\n      sload\n      sub(shl(0xa0, 0x01), 0x01)\n      dup3\n      and\n      swap2\n      shl(0xa0, 0x01)\n      swap1\n      div\n      0xff\n      and\n      swap1\n      dup4\n      jump\n    tag_139:\n      0x40\n      dup1\n      mload\n      sub(shl(0xa0, 0x01), 0x01)\n        /* \"#utility.yul\":6572:6604   */\n      swap1\n      swap5\n      and\n        /* \"#utility.yul\":6554:6605   */\n      dup5\n      mstore\n        /* \"#utility.yul\":6648:6662   */\n      swap2\n      iszero\n        /* \"#utility.yul\":6641:6663   */\n      iszero\n        /* \"#utility.yul\":6636:6638   */\n      0x20\n        /* \"#utility.yul\":6621:6639   */\n      dup5\n      add\n        /* \"#utility.yul\":6614:6664   */\n      mstore\n        /* \"#utility.yul\":6680:6698   */\n      swap1\n      dup3\n      add\n        /* \"#utility.yul\":6673:6707   */\n      mstore\n        /* \"#utility.yul\":6542:6544   */\n      0x60\n        /* \"#utility.yul\":6527:6545   */\n      add\n        /* \"contracts/Arcade.sol\":1295:1354  mapping(address => ArcadeToken) public acceptedArcadeTokens */\n      tag_50\n        /* \"#utility.yul\":6509:6713   */\n      jump\n        /* \"contracts/Arcade.sol\":4618:4899  function placePlayer(uint256 game_id, address player) public onlyRole(DEFAULT_ADMIN_ROLE) {... */\n    tag_24:\n      callvalue\n      dup1\n      iszero\n      tag_144\n      jumpi\n      0x00\n      dup1\n      revert\n    tag_144:\n      pop\n      tag_41\n      tag_146\n      calldatasize\n      0x04\n      tag_84\n      jump\t// in\n    tag_146:\n      tag_147\n      jump\t// in\n        /* \"contracts/Arcade.sol\":1447:1476  uint256 public fee_percentage */\n    tag_25:\n      callvalue\n      dup1\n      iszero\n      tag_148\n      jumpi\n      0x00\n      dup1\n      revert\n    tag_148:\n      pop\n      tag_62\n      sload(0x04)\n      dup2\n      jump\n        /* \"contracts/Arcade.sol\":1361:1405  mapping(uint256 => GameInfo) public gameData */\n    tag_26:\n      callvalue\n      dup1\n      iszero\n      tag_152\n      jumpi\n      0x00\n      dup1\n      revert\n    tag_152:\n      pop\n      tag_153\n      tag_154\n      calldatasize\n      0x04\n      tag_64\n      jump\t// in\n    tag_154:\n      0x02\n      0x20\n      dup2\n      swap1\n      mstore\n      0x00\n      swap2\n      dup3\n      mstore\n      0x40\n      swap1\n      swap2\n      keccak256\n      dup1\n      sload\n      0x01\n      dup3\n      add\n      sload\n      swap3\n      dup3\n      add\n      sload\n      0x03\n      dup4\n      add\n      sload\n      0x04\n      dup5\n      add\n      sload\n      0x05\n      dup6\n      add\n      sload\n      0x06\n      swap1\n      swap6\n      add\n      sload\n      0xff\n      swap1\n      swap5\n      and\n      swap6\n      swap5\n      swap3\n      swap4\n      swap2\n      swap3\n      swap1\n      swap2\n      sub(shl(0xa0, 0x01), 0x01)\n      swap1\n      swap2\n      and\n      swap1\n      dup8\n      jump\n    tag_153:\n      0x40\n      dup1\n      mload\n        /* \"#utility.yul\":5847:5861   */\n      swap8\n      iszero\n        /* \"#utility.yul\":5840:5862   */\n      iszero\n        /* \"#utility.yul\":5822:5863   */\n      dup9\n      mstore\n        /* \"#utility.yul\":5894:5896   */\n      0x20\n        /* \"#utility.yul\":5879:5897   */\n      dup9\n      add\n        /* \"#utility.yul\":5872:5906   */\n      swap7\n      swap1\n      swap7\n      mstore\n        /* \"#utility.yul\":5922:5940   */\n      swap5\n      dup7\n      add\n        /* \"#utility.yul\":5915:5949   */\n      swap4\n      swap1\n      swap4\n      mstore\n        /* \"#utility.yul\":5980:5982   */\n      0x60\n        /* \"#utility.yul\":5965:5983   */\n      dup6\n      add\n        /* \"#utility.yul\":5958:5992   */\n      swap2\n      swap1\n      swap2\n      mstore\n        /* \"#utility.yul\":6023:6026   */\n      0x80\n        /* \"#utility.yul\":6008:6027   */\n      dup5\n      add\n        /* \"#utility.yul\":6001:6036   */\n      mstore\n      sub(shl(0xa0, 0x01), 0x01)\n        /* \"#utility.yul\":6073:6105   */\n      and\n        /* \"#utility.yul\":6093:6096   */\n      0xa0\n        /* \"#utility.yul\":6052:6071   */\n      dup4\n      add\n        /* \"#utility.yul\":6045:6106   */\n      mstore\n        /* \"#utility.yul\":6137:6140   */\n      0xc0\n        /* \"#utility.yul\":6122:6141   */\n      dup3\n      add\n        /* \"#utility.yul\":6115:6150   */\n      mstore\n        /* \"#utility.yul\":5809:5812   */\n      0xe0\n        /* \"#utility.yul\":5794:5813   */\n      add\n        /* \"contracts/Arcade.sol\":1361:1405  mapping(uint256 => GameInfo) public gameData */\n      tag_50\n        /* \"#utility.yul\":5776:6156   */\n      jump\n        /* \"@openzeppelin/contracts@4.6.0/access/AccessControl.sol\":5149:5296  function revokeRole(bytes32 role, address account) public virtual override onlyRole(getRoleAdmin(role)) {... */\n    tag_27:\n      callvalue\n      dup1\n      iszero\n      tag_158\n      jumpi\n      0x00\n      dup1\n      revert\n    tag_158:\n      pop\n      tag_41\n      tag_160\n      calldatasize\n      0x04\n      tag_84\n      jump\t// in\n    tag_160:\n      tag_161\n      jump\t// in\n        /* \"contracts/Arcade.sol\":1788:1924  function isAccepted(address token_address) public view returns (bool) {... */\n    tag_28:\n      callvalue\n      dup1\n      iszero\n      tag_162\n      jumpi\n      0x00\n      dup1\n      revert\n    tag_162:\n      pop\n      tag_46\n      tag_164\n      calldatasize\n      0x04\n      tag_98\n      jump\t// in\n    tag_164:\n      sub(shl(0xa0, 0x01), 0x01)\n        /* \"contracts/Arcade.sol\":1875:1910  acceptedArcadeTokens[token_address] */\n      and\n        /* \"contracts/Arcade.sol\":1852:1856  bool */\n      0x00\n        /* \"contracts/Arcade.sol\":1875:1910  acceptedArcadeTokens[token_address] */\n      swap1\n      dup2\n      mstore\n        /* \"contracts/Arcade.sol\":1875:1895  acceptedArcadeTokens */\n      0x01\n        /* \"contracts/Arcade.sol\":1875:1910  acceptedArcadeTokens[token_address] */\n      0x20\n      mstore\n      0x40\n      swap1\n      keccak256\n        /* \"contracts/Arcade.sol\":1875:1917  acceptedArcadeTokens[token_address].active */\n      sload\n      shl(0xa0, 0x01)\n      swap1\n      div\n      0xff\n      and\n      swap1\n        /* \"contracts/Arcade.sol\":1788:1924  function isAccepted(address token_address) public view returns (bool) {... */\n      jump\n        /* \"contracts/Arcade.sol\":745:813  bytes32 public constant TREASURER_ROLE = keccak256(\"TREASURER_ROLE\") */\n    tag_29:\n      callvalue\n      dup1\n      iszero\n      tag_167\n      jumpi\n      0x00\n      dup1\n      revert\n    tag_167:\n      pop\n      tag_62\n        /* \"contracts/Arcade.sol\":786:813  keccak256(\"TREASURER_ROLE\") */\n      0x3496e2e73c4d42b75d702e60d9e48102720b8691234415963a5a857b86425d07\n        /* \"contracts/Arcade.sol\":745:813  bytes32 public constant TREASURER_ROLE = keccak256(\"TREASURER_ROLE\") */\n      dup2\n      jump\n        /* \"contracts/Arcade.sol\":6504:7349  function register(uint256 game_id) public {... */\n    tag_30:\n      callvalue\n      dup1\n      iszero\n      tag_171\n      jumpi\n      0x00\n      dup1\n      revert\n    tag_171:\n      pop\n      tag_41\n      tag_173\n      calldatasize\n      0x04\n      tag_64\n      jump\t// in\n    tag_173:\n      tag_174\n      jump\t// in\n        /* \"contracts/Arcade.sol\":3561:4104  function createGame(uint256 game_id, uint256 registration_fee, address arcade_token, uint256 player_limit, bool exchange) public onlyRole(DEFAULT_ADMIN_ROLE) {... */\n    tag_31:\n      callvalue\n      dup1\n      iszero\n      tag_175\n      jumpi\n      0x00\n      dup1\n      revert\n    tag_175:\n      pop\n      tag_41\n      tag_177\n      calldatasize\n      0x04\n      tag_178\n      jump\t// in\n    tag_177:\n      tag_179\n      jump\t// in\n        /* \"contracts/Arcade.sol\":8814:8932  function setMarketMaker(address incoming) public onlyRole(DEFAULT_ADMIN_ROLE) {... */\n    tag_32:\n      callvalue\n      dup1\n      iszero\n      tag_180\n      jumpi\n      0x00\n      dup1\n      revert\n    tag_180:\n      pop\n      tag_41\n      tag_182\n      calldatasize\n      0x04\n      tag_98\n      jump\t// in\n    tag_182:\n      tag_183\n      jump\t// in\n        /* \"contracts/Arcade.sol\":4397:4546  function openGame(uint256 game_id) public onlyRole(DEFAULT_ADMIN_ROLE) {... */\n    tag_44:\n        /* \"@openzeppelin/contracts@4.6.0/access/AccessControl.sol\":2072:2076  0x00 */\n      0x00\n        /* \"@openzeppelin/contracts@4.6.0/access/AccessControl.sol\":2505:2521  _checkRole(role) */\n      tag_185\n        /* \"@openzeppelin/contracts@4.6.0/access/AccessControl.sol\":2072:2076  0x00 */\n      dup2\n        /* \"@openzeppelin/contracts@4.6.0/access/AccessControl.sol\":2505:2515  _checkRole */\n      tag_186\n        /* \"@openzeppelin/contracts@4.6.0/access/AccessControl.sol\":2505:2521  _checkRole(role) */\n      jump\t// in\n    tag_185:\n        /* \"contracts/Arcade.sol\":4478:4495  gameData[game_id] */\n      0x00\n      dup3\n      dup2\n      mstore\n        /* \"contracts/Arcade.sol\":4478:4486  gameData */\n      0x02\n        /* \"contracts/Arcade.sol\":4478:4495  gameData[game_id] */\n      0x20\n      mstore\n      0x40\n      swap1\n      dup2\n      swap1\n      keccak256\n        /* \"contracts/Arcade.sol\":4505:4506  1 */\n      0x01\n        /* \"contracts/Arcade.sol\":4478:4502  gameData[game_id].status */\n      0x04\n      swap1\n      swap2\n      add\n        /* \"contracts/Arcade.sol\":4478:4506  gameData[game_id].status = 1 */\n      sstore\n        /* \"contracts/Arcade.sol\":4522:4539  OpenGame(game_id) */\n      mload\n      0x651a9760985edc53055bf2462cb4437b9be3de87aa3eecf2c05782e8b58eba19\n      swap1\n      tag_188\n      swap1\n        /* \"contracts/Arcade.sol\":4487:4494  game_id */\n      dup5\n        /* \"#utility.yul\":6307:6332   */\n      dup2\n      mstore\n        /* \"#utility.yul\":6295:6297   */\n      0x20\n        /* \"#utility.yul\":6280:6298   */\n      add\n      swap1\n        /* \"#utility.yul\":6262:6338   */\n      jump\n        /* \"contracts/Arcade.sol\":4522:4539  OpenGame(game_id) */\n    tag_188:\n      mload(0x40)\n      dup1\n      swap2\n      sub\n      swap1\n      log1\n        /* \"contracts/Arcade.sol\":4397:4546  function openGame(uint256 game_id) public onlyRole(DEFAULT_ADMIN_ROLE) {... */\n      pop\n      pop\n      jump\t// out\n        /* \"@openzeppelin/contracts@4.6.0/access/AccessControl.sol\":2606:2808  function supportsInterface(bytes4 interfaceId) public view virtual override returns (bool) {... */\n    tag_49:\n        /* \"@openzeppelin/contracts@4.6.0/access/AccessControl.sol\":2691:2695  bool */\n      0x00\n      not(sub(shl(0xe0, 0x01), 0x01))\n        /* \"@openzeppelin/contracts@4.6.0/access/AccessControl.sol\":2714:2761  interfaceId == type(IAccessControl).interfaceId */\n      dup3\n      and\n      shl(0xe0, 0x7965db0b)\n      eq\n      dup1\n        /* \"@openzeppelin/contracts@4.6.0/access/AccessControl.sol\":2714:2801  interfaceId == type(IAccessControl).interfaceId || super.supportsInterface(interfaceId) */\n      tag_191\n      jumpi\n      pop\n      shl(0xe0, 0x01ffc9a7)\n      not(sub(shl(0xe0, 0x01), 0x01))\n        /* \"@openzeppelin/contracts@4.6.0/utils/introspection/ERC165.sol\":937:977  interfaceId == type(IERC165).interfaceId */\n      dup4\n      and\n      eq\n        /* \"@openzeppelin/contracts@4.6.0/access/AccessControl.sol\":2765:2801  super.supportsInterface(interfaceId) */\n    tag_191:\n        /* \"@openzeppelin/contracts@4.6.0/access/AccessControl.sol\":2707:2801  return interfaceId == type(IAccessControl).interfaceId || super.supportsInterface(interfaceId) */\n      swap3\n        /* \"@openzeppelin/contracts@4.6.0/access/AccessControl.sol\":2606:2808  function supportsInterface(bytes4 interfaceId) public view virtual override returns (bool) {... */\n      swap2\n      pop\n      pop\n      jump\t// out\n        /* \"contracts/Arcade.sol\":2191:2755  function addArcadeToken(address token_address, uint256 redemption_rate, bool _active) public onlyRole(TREASURER_ROLE) {... */\n    tag_56:\n        /* \"contracts/Arcade.sol\":786:813  keccak256(\"TREASURER_ROLE\") */\n      0x3496e2e73c4d42b75d702e60d9e48102720b8691234415963a5a857b86425d07\n        /* \"@openzeppelin/contracts@4.6.0/access/AccessControl.sol\":2505:2521  _checkRole(role) */\n      tag_194\n        /* \"@openzeppelin/contracts@4.6.0/access/AccessControl.sol\":2516:2520  role */\n      dup2\n        /* \"@openzeppelin/contracts@4.6.0/access/AccessControl.sol\":2505:2515  _checkRole */\n      tag_186\n        /* \"@openzeppelin/contracts@4.6.0/access/AccessControl.sol\":2505:2521  _checkRole(role) */\n      jump\t// in\n    tag_194:\n      sub(shl(0xa0, 0x01), 0x01)\n        /* \"contracts/Arcade.sol\":2319:2354  acceptedArcadeTokens[token_address] */\n      dup5\n      and\n      0x00\n      dup2\n      dup2\n      mstore\n        /* \"contracts/Arcade.sol\":2319:2339  acceptedArcadeTokens */\n      0x01\n        /* \"contracts/Arcade.sol\":2319:2354  acceptedArcadeTokens[token_address] */\n      0x20\n      dup2\n      swap1\n      mstore\n      0x40\n      swap1\n      swap2\n      keccak256\n        /* \"contracts/Arcade.sol\":2319:2370  acceptedArcadeTokens[token_address].redemption_rate */\n      swap1\n      dup2\n      add\n        /* \"contracts/Arcade.sol\":2319:2388  acceptedArcadeTokens[token_address].redemption_rate = redemption_rate */\n      dup6\n      swap1\n      sstore\n        /* \"contracts/Arcade.sol\":2398:2450  acceptedArcadeTokens[token_address].active = _active */\n      dup1\n      sload\n      not(sub(shl(0xa8, 0x01), 0x01))\n        /* \"contracts/Arcade.sol\":2517:2588  acceptedArcadeTokens[token_address].native_token = IERC20(tokenAddress) */\n      and\n      shl(0xa0, 0x01)\n        /* \"contracts/Arcade.sol\":2398:2450  acceptedArcadeTokens[token_address].active = _active */\n      dup6\n      iszero\n      iszero\n      mul\n      not(sub(shl(0xa0, 0x01), 0x01))\n        /* \"contracts/Arcade.sol\":2517:2588  acceptedArcadeTokens[token_address].native_token = IERC20(tokenAddress) */\n      and\n      or\n      dup3\n      or\n      swap1\n      sstore\n        /* \"contracts/Arcade.sol\":2319:2354  acceptedArcadeTokens[token_address] */\n      dup5\n      swap1\n        /* \"contracts/Arcade.sol\":2598:2654  acceptedArcadeTokens[token_address].native_token.approve */\n      0x095ea7b3\n        /* \"@openzeppelin/contracts@4.6.0/utils/Context.sol\":719:729  msg.sender */\n      caller\n        /* \"contracts/Arcade.sol\":2598:2748  acceptedArcadeTokens[token_address].native_token.approve(_msgSender(), 115792089237316195423570985008687907853269984665640564039457584007913129639935) */\n      mload(0x40)\n      not(sub(shl(0xe0, 0x01), 0x01))\n      0xe0\n      dup5\n      swap1\n      shl\n      and\n      dup2\n      mstore\n      sub(shl(0xa0, 0x01), 0x01)\n        /* \"#utility.yul\":4692:4724   */\n      swap1\n      swap2\n      and\n        /* \"contracts/Arcade.sol\":2598:2748  acceptedArcadeTokens[token_address].native_token.approve(_msgSender(), 115792089237316195423570985008687907853269984665640564039457584007913129639935) */\n      0x04\n      dup3\n      add\n        /* \"#utility.yul\":4674:4725   */\n      mstore\n      not(0x00)\n        /* \"#utility.yul\":4741:4759   */\n      0x24\n      dup3\n      add\n        /* \"#utility.yul\":4734:4768   */\n      mstore\n        /* \"#utility.yul\":4647:4665   */\n      0x44\n      add\n        /* \"contracts/Arcade.sol\":2598:2748  acceptedArcadeTokens[token_address].native_token.approve(_msgSender(), 115792089237316195423570985008687907853269984665640564039457584007913129639935) */\n      0x20\n      mload(0x40)\n      dup1\n      dup4\n      sub\n      dup2\n      0x00\n      dup8\n      dup1\n      extcodesize\n      iszero\n      dup1\n      iszero\n      tag_200\n      jumpi\n      0x00\n      dup1\n      revert\n    tag_200:\n      pop\n      gas\n      call\n      iszero\n      dup1\n      iszero\n      tag_202\n      jumpi\n      returndatasize\n      0x00\n      dup1\n      returndatacopy\n      revert(0x00, returndatasize)\n    tag_202:\n      pop\n      pop\n      pop\n      pop\n      mload(0x40)\n      returndatasize\n      not(0x1f)\n      0x1f\n      dup3\n      add\n      and\n      dup3\n      add\n      dup1\n      0x40\n      mstore\n      pop\n      dup2\n      add\n      swap1\n      tag_203\n      swap2\n      swap1\n      tag_204\n      jump\t// in\n    tag_203:\n      pop\n        /* \"@openzeppelin/contracts@4.6.0/access/AccessControl.sol\":2531:2532  _ */\n      pop\n        /* \"contracts/Arcade.sol\":2191:2755  function addArcadeToken(address token_address, uint256 redemption_rate, bool _active) public onlyRole(TREASURER_ROLE) {... */\n      pop\n      pop\n      pop\n      pop\n      jump\t// out\n        /* \"contracts/Arcade.sol\":4176:4325  function deleteGame(uint256 game_id) public onlyRole(DEFAULT_ADMIN_ROLE) {... */\n    tag_60:\n        /* \"@openzeppelin/contracts@4.6.0/access/AccessControl.sol\":2072:2076  0x00 */\n      0x00\n        /* \"@openzeppelin/contracts@4.6.0/access/AccessControl.sol\":2505:2521  _checkRole(role) */\n      tag_206\n        /* \"@openzeppelin/contracts@4.6.0/access/AccessControl.sol\":2072:2076  0x00 */\n      dup2\n        /* \"@openzeppelin/contracts@4.6.0/access/AccessControl.sol\":2505:2515  _checkRole */\n      tag_186\n        /* \"@openzeppelin/contracts@4.6.0/access/AccessControl.sol\":2505:2521  _checkRole(role) */\n      jump\t// in\n    tag_206:\n        /* \"contracts/Arcade.sol\":4266:4283  gameData[game_id] */\n      0x00\n      dup3\n      dup2\n      mstore\n        /* \"contracts/Arcade.sol\":4266:4274  gameData */\n      0x02\n        /* \"contracts/Arcade.sol\":4266:4283  gameData[game_id] */\n      0x20\n      dup2\n      dup2\n      mstore\n      0x40\n      dup1\n      dup5\n      keccak256\n        /* \"contracts/Arcade.sol\":4259:4283  delete gameData[game_id] */\n      dup1\n      sload\n      not(0xff)\n      and\n      dup2\n      sstore\n      0x01\n      dup2\n      add\n      dup6\n      swap1\n      sstore\n      swap3\n      dup4\n      add\n      dup5\n      swap1\n      sstore\n      0x03\n      dup4\n      add\n      dup5\n      swap1\n      sstore\n      0x04\n      dup4\n      add\n      dup5\n      swap1\n      sstore\n      0x05\n      dup4\n      add\n      dup1\n      sload\n      not(sub(shl(0xa0, 0x01), 0x01))\n      and\n      swap1\n      sstore\n      0x06\n      swap1\n      swap3\n      add\n      swap3\n      swap1\n      swap3\n      sstore\n        /* \"contracts/Arcade.sol\":4299:4318  DeleteGame(game_id) */\n      mload\n        /* \"#utility.yul\":6307:6332   */\n      dup4\n      dup2\n      mstore\n        /* \"contracts/Arcade.sol\":4299:4318  DeleteGame(game_id) */\n      0xd0b153e02e23f4f21d020465b4dac7b1114893d05db395ed2511f879c3ac90b4\n      swap2\n        /* \"#utility.yul\":6280:6298   */\n      add\n        /* \"contracts/Arcade.sol\":4299:4318  DeleteGame(game_id) */\n      tag_188\n        /* \"#utility.yul\":6262:6338   */\n      jump\n        /* \"contracts/Arcade.sol\":8610:8742  function setArcadeFeePercentage(uint256 percentage) public onlyRole(DEFAULT_ADMIN_ROLE) {... */\n    tag_71:\n        /* \"@openzeppelin/contracts@4.6.0/access/AccessControl.sol\":2072:2076  0x00 */\n      0x00\n        /* \"@openzeppelin/contracts@4.6.0/access/AccessControl.sol\":2505:2521  _checkRole(role) */\n      tag_211\n        /* \"@openzeppelin/contracts@4.6.0/access/AccessControl.sol\":2072:2076  0x00 */\n      dup2\n        /* \"@openzeppelin/contracts@4.6.0/access/AccessControl.sol\":2505:2515  _checkRole */\n      tag_186\n        /* \"@openzeppelin/contracts@4.6.0/access/AccessControl.sol\":2505:2521  _checkRole(role) */\n      jump\t// in\n    tag_211:\n      pop\n        /* \"contracts/Arcade.sol\":8708:8722  fee_percentage */\n      0x04\n        /* \"contracts/Arcade.sol\":8708:8735  fee_percentage = percentage */\n      sstore\n        /* \"contracts/Arcade.sol\":8610:8742  function setArcadeFeePercentage(uint256 percentage) public onlyRole(DEFAULT_ADMIN_ROLE) {... */\n      jump\t// out\n        /* \"contracts/Arcade.sol\":8359:8538  function removePlayer(uint256 game_id, address player) public onlyRole(DEFAULT_ADMIN_ROLE) {... */\n    tag_76:\n        /* \"@openzeppelin/contracts@4.6.0/access/AccessControl.sol\":2072:2076  0x00 */\n      0x00\n        /* \"@openzeppelin/contracts@4.6.0/access/AccessControl.sol\":2505:2521  _checkRole(role) */\n      tag_214\n        /* \"@openzeppelin/contracts@4.6.0/access/AccessControl.sol\":2072:2076  0x00 */\n      dup2\n        /* \"@openzeppelin/contracts@4.6.0/access/AccessControl.sol\":2505:2515  _checkRole */\n      tag_186\n        /* \"@openzeppelin/contracts@4.6.0/access/AccessControl.sol\":2505:2521  _checkRole(role) */\n      jump\t// in\n    tag_214:\n        /* \"contracts/Arcade.sol\":8494:8495  0 */\n      0x00\n        /* \"contracts/Arcade.sol\":8460:8477  gameData[game_id] */\n      dup4\n      dup2\n      mstore\n        /* \"contracts/Arcade.sol\":8460:8468  gameData */\n      0x02\n        /* \"contracts/Arcade.sol\":8460:8477  gameData[game_id] */\n      0x20\n      swap1\n      dup2\n      mstore\n      0x40\n      dup1\n      dup4\n      keccak256\n      sub(shl(0xa0, 0x01), 0x01)\n        /* \"contracts/Arcade.sol\":8460:8491  gameData[game_id].seats[player] */\n      dup7\n      and\n      dup1\n      dup6\n      mstore\n        /* \"contracts/Arcade.sol\":8460:8483  gameData[game_id].seats */\n      0x09\n      swap1\n      swap2\n      add\n        /* \"contracts/Arcade.sol\":8460:8491  gameData[game_id].seats[player] */\n      dup4\n      mstore\n      dup2\n      dup5\n      keccak256\n        /* \"contracts/Arcade.sol\":8460:8495  gameData[game_id].seats[player] = 0 */\n      swap4\n      swap1\n      swap4\n      sstore\n        /* \"contracts/Arcade.sol\":8511:8531  RemovePlayer(player) */\n      mload\n        /* \"#utility.yul\":3973:4024   */\n      swap2\n      dup3\n      mstore\n        /* \"contracts/Arcade.sol\":8511:8531  RemovePlayer(player) */\n      0x34aeefd5030be05fe70eebc8866d82f935a308eb9f334cba88f5e3bea1a0cae8\n      swap2\n        /* \"#utility.yul\":3946:3964   */\n      add\n        /* \"contracts/Arcade.sol\":8511:8531  RemovePlayer(player) */\n    tag_216:\n      mload(0x40)\n      dup1\n      swap2\n      sub\n      swap1\n      log1\n        /* \"contracts/Arcade.sol\":8359:8538  function removePlayer(uint256 game_id, address player) public onlyRole(DEFAULT_ADMIN_ROLE) {... */\n      pop\n      pop\n      pop\n      jump\t// out\n        /* \"contracts/Arcade.sol\":3338:3489  function closeGame(uint256 game_id) public onlyRole(DEFAULT_ADMIN_ROLE) {... */\n    tag_80:\n        /* \"@openzeppelin/contracts@4.6.0/access/AccessControl.sol\":2072:2076  0x00 */\n      0x00\n        /* \"@openzeppelin/contracts@4.6.0/access/AccessControl.sol\":2505:2521  _checkRole(role) */\n      tag_218\n        /* \"@openzeppelin/contracts@4.6.0/access/AccessControl.sol\":2072:2076  0x00 */\n      dup2\n        /* \"@openzeppelin/contracts@4.6.0/access/AccessControl.sol\":2505:2515  _checkRole */\n      tag_186\n        /* \"@openzeppelin/contracts@4.6.0/access/AccessControl.sol\":2505:2521  _checkRole(role) */\n      jump\t// in\n    tag_218:\n        /* \"contracts/Arcade.sol\":3447:3448  0 */\n      0x00\n        /* \"contracts/Arcade.sol\":3420:3437  gameData[game_id] */\n      dup3\n      dup2\n      mstore\n        /* \"contracts/Arcade.sol\":3420:3428  gameData */\n      0x02\n        /* \"contracts/Arcade.sol\":3420:3437  gameData[game_id] */\n      0x20\n      mstore\n      0x40\n      dup1\n      dup3\n      keccak256\n        /* \"contracts/Arcade.sol\":3420:3444  gameData[game_id].status */\n      0x04\n      add\n        /* \"contracts/Arcade.sol\":3420:3448  gameData[game_id].status = 0 */\n      swap2\n      swap1\n      swap2\n      sstore\n        /* \"contracts/Arcade.sol\":3464:3482  CloseGame(game_id) */\n      mload\n      0x827e8bff9f46048f8351964d2c871d09e4f4231513cf2fcb786649c68732e24f\n      swap1\n      tag_188\n      swap1\n        /* \"contracts/Arcade.sol\":3429:3436  game_id */\n      dup5\n        /* \"#utility.yul\":6307:6332   */\n      dup2\n      mstore\n        /* \"#utility.yul\":6295:6297   */\n      0x20\n        /* \"#utility.yul\":6280:6298   */\n      add\n      swap1\n        /* \"#utility.yul\":6262:6338   */\n      jump\n        /* \"@openzeppelin/contracts@4.6.0/access/AccessControl.sol\":4770:4915  function grantRole(bytes32 role, address account) public virtual override onlyRole(getRoleAdmin(role)) {... */\n    tag_85:\n        /* \"@openzeppelin/contracts@4.6.0/access/AccessControl.sol\":4465:4472  bytes32 */\n      0x00\n        /* \"@openzeppelin/contracts@4.6.0/access/AccessControl.sol\":4491:4503  _roles[role] */\n      dup3\n      dup2\n      mstore\n      0x20\n      dup2\n      swap1\n      mstore\n      0x40\n      swap1\n      keccak256\n        /* \"@openzeppelin/contracts@4.6.0/access/AccessControl.sol\":4491:4513  _roles[role].adminRole */\n      0x01\n      add\n      sload\n        /* \"@openzeppelin/contracts@4.6.0/access/AccessControl.sol\":2505:2521  _checkRole(role) */\n      tag_223\n        /* \"@openzeppelin/contracts@4.6.0/access/AccessControl.sol\":2516:2520  role */\n      dup2\n        /* \"@openzeppelin/contracts@4.6.0/access/AccessControl.sol\":2505:2515  _checkRole */\n      tag_186\n        /* \"@openzeppelin/contracts@4.6.0/access/AccessControl.sol\":2505:2521  _checkRole(role) */\n      jump\t// in\n    tag_223:\n        /* \"@openzeppelin/contracts@4.6.0/access/AccessControl.sol\":4883:4908  _grantRole(role, account) */\n      tag_225\n        /* \"@openzeppelin/contracts@4.6.0/access/AccessControl.sol\":4894:4898  role */\n      dup4\n        /* \"@openzeppelin/contracts@4.6.0/access/AccessControl.sol\":4900:4907  account */\n      dup4\n        /* \"@openzeppelin/contracts@4.6.0/access/AccessControl.sol\":4883:4893  _grantRole */\n      tag_226\n        /* \"@openzeppelin/contracts@4.6.0/access/AccessControl.sol\":4883:4908  _grantRole(role, account) */\n      jump\t// in\n    tag_225:\n        /* \"@openzeppelin/contracts@4.6.0/access/AccessControl.sol\":4770:4915  function grantRole(bytes32 role, address account) public virtual override onlyRole(getRoleAdmin(role)) {... */\n      pop\n      pop\n      pop\n      jump\t// out\n        /* \"@openzeppelin/contracts@4.6.0/access/AccessControl.sol\":5787:6001  function renounceRole(bytes32 role, address account) public virtual override {... */\n    tag_94:\n      sub(shl(0xa0, 0x01), 0x01)\n        /* \"@openzeppelin/contracts@4.6.0/access/AccessControl.sol\":5882:5905  account == _msgSender() */\n      dup2\n      and\n        /* \"@openzeppelin/contracts@4.6.0/utils/Context.sol\":719:729  msg.sender */\n      caller\n        /* \"@openzeppelin/contracts@4.6.0/access/AccessControl.sol\":5882:5905  account == _msgSender() */\n      eq\n        /* \"@openzeppelin/contracts@4.6.0/access/AccessControl.sol\":5874:5957  require(account == _msgSender(), \"AccessControl: can only renounce roles for self\") */\n      tag_229\n      jumpi\n      mload(0x40)\n      shl(0xe5, 0x461bcd)\n      dup2\n      mstore\n        /* \"#utility.yul\":12541:12543   */\n      0x20\n        /* \"@openzeppelin/contracts@4.6.0/access/AccessControl.sol\":5874:5957  require(account == _msgSender(), \"AccessControl: can only renounce roles for self\") */\n      0x04\n      dup3\n      add\n        /* \"#utility.yul\":12523:12544   */\n      mstore\n        /* \"#utility.yul\":12580:12582   */\n      0x2f\n        /* \"#utility.yul\":12560:12578   */\n      0x24\n      dup3\n      add\n        /* \"#utility.yul\":12553:12583   */\n      mstore\n        /* \"#utility.yul\":12619:12653   */\n      0x416363657373436f6e74726f6c3a2063616e206f6e6c792072656e6f756e6365\n        /* \"#utility.yul\":12599:12617   */\n      0x44\n      dup3\n      add\n        /* \"#utility.yul\":12592:12654   */\n      mstore\n      shl(0x89, 0x103937b632b9903337b91039b2b633)\n        /* \"#utility.yul\":12670:12688   */\n      0x64\n      dup3\n      add\n        /* \"#utility.yul\":12663:12708   */\n      mstore\n        /* \"#utility.yul\":12725:12744   */\n      0x84\n      add\n        /* \"@openzeppelin/contracts@4.6.0/access/AccessControl.sol\":5874:5957  require(account == _msgSender(), \"AccessControl: can only renounce roles for self\") */\n    tag_230:\n      mload(0x40)\n      dup1\n      swap2\n      sub\n      swap1\n      revert\n    tag_229:\n        /* \"@openzeppelin/contracts@4.6.0/access/AccessControl.sol\":5968:5994  _revokeRole(role, account) */\n      tag_232\n        /* \"@openzeppelin/contracts@4.6.0/access/AccessControl.sol\":5980:5984  role */\n      dup3\n        /* \"@openzeppelin/contracts@4.6.0/access/AccessControl.sol\":5986:5993  account */\n      dup3\n        /* \"@openzeppelin/contracts@4.6.0/access/AccessControl.sol\":5968:5979  _revokeRole */\n      tag_233\n        /* \"@openzeppelin/contracts@4.6.0/access/AccessControl.sol\":5968:5994  _revokeRole(role, account) */\n      jump\t// in\n    tag_232:\n        /* \"@openzeppelin/contracts@4.6.0/access/AccessControl.sol\":5787:6001  function renounceRole(bytes32 role, address account) public virtual override {... */\n      pop\n      pop\n      jump\t// out\n        /* \"contracts/Arcade.sol\":2831:2980  function removeArcadeToken(address token_address) public onlyRole(TREASURER_ROLE) {... */\n    tag_99:\n        /* \"contracts/Arcade.sol\":786:813  keccak256(\"TREASURER_ROLE\") */\n      0x3496e2e73c4d42b75d702e60d9e48102720b8691234415963a5a857b86425d07\n        /* \"@openzeppelin/contracts@4.6.0/access/AccessControl.sol\":2505:2521  _checkRole(role) */\n      tag_235\n        /* \"@openzeppelin/contracts@4.6.0/access/AccessControl.sol\":2516:2520  role */\n      dup2\n        /* \"@openzeppelin/contracts@4.6.0/access/AccessControl.sol\":2505:2515  _checkRole */\n      tag_186\n        /* \"@openzeppelin/contracts@4.6.0/access/AccessControl.sol\":2505:2521  _checkRole(role) */\n      jump\t// in\n    tag_235:\n      pop\n      sub(shl(0xa0, 0x01), 0x01)\n        /* \"contracts/Arcade.sol\":2923:2958  acceptedArcadeTokens[token_address] */\n      and\n        /* \"contracts/Arcade.sol\":2968:2973  false */\n      0x00\n        /* \"contracts/Arcade.sol\":2923:2958  acceptedArcadeTokens[token_address] */\n      swap1\n      dup2\n      mstore\n        /* \"contracts/Arcade.sol\":2923:2943  acceptedArcadeTokens */\n      0x01\n        /* \"contracts/Arcade.sol\":2923:2958  acceptedArcadeTokens[token_address] */\n      0x20\n      mstore\n      0x40\n      swap1\n      keccak256\n        /* \"contracts/Arcade.sol\":2923:2973  acceptedArcadeTokens[token_address].active = false */\n      dup1\n      sload\n      not(shl(0xa0, 0xff))\n      and\n      swap1\n      sstore\n        /* \"contracts/Arcade.sol\":2831:2980  function removeArcadeToken(address token_address) public onlyRole(TREASURER_ROLE) {... */\n      jump\t// out\n        /* \"contracts/Arcade.sol\":5332:6024  function refund(uint256 game_id, address player) public onlyRole(DEFAULT_ADMIN_ROLE) {... */\n    tag_114:\n        /* \"@openzeppelin/contracts@4.6.0/access/AccessControl.sol\":2072:2076  0x00 */\n      0x00\n        /* \"@openzeppelin/contracts@4.6.0/access/AccessControl.sol\":2505:2521  _checkRole(role) */\n      tag_239\n        /* \"@openzeppelin/contracts@4.6.0/access/AccessControl.sol\":2072:2076  0x00 */\n      dup2\n        /* \"@openzeppelin/contracts@4.6.0/access/AccessControl.sol\":2505:2515  _checkRole */\n      tag_186\n        /* \"@openzeppelin/contracts@4.6.0/access/AccessControl.sol\":2505:2521  _checkRole(role) */\n      jump\t// in\n    tag_239:\n        /* \"contracts/Arcade.sol\":5431:5448  gameData[game_id] */\n      0x00\n      dup4\n      dup2\n      mstore\n        /* \"contracts/Arcade.sol\":5431:5439  gameData */\n      0x02\n        /* \"contracts/Arcade.sol\":5431:5448  gameData[game_id] */\n      0x20\n      mstore\n      0x40\n      swap1\n      keccak256\n        /* \"contracts/Arcade.sol\":5431:5457  gameData[game_id].exchange */\n      sload\n      0xff\n      and\n        /* \"contracts/Arcade.sol\":5427:6018  if (gameData[game_id].exchange == false) {... */\n      tag_225\n      jumpi\n        /* \"contracts/Arcade.sol\":5490:5507  gameData[game_id] */\n      0x00\n      dup4\n      dup2\n      mstore\n        /* \"contracts/Arcade.sol\":5490:5498  gameData */\n      0x02\n        /* \"contracts/Arcade.sol\":5490:5507  gameData[game_id] */\n      0x20\n      swap1\n      dup2\n      mstore\n      0x40\n      dup1\n      dup4\n      keccak256\n      sub(shl(0xa0, 0x01), 0x01)\n        /* \"contracts/Arcade.sol\":5490:5520  gameData[game_id].paid[player] */\n      dup7\n      and\n      dup5\n      mstore\n        /* \"contracts/Arcade.sol\":5490:5512  gameData[game_id].paid */\n      0x08\n      add\n        /* \"contracts/Arcade.sol\":5490:5520  gameData[game_id].paid[player] */\n      swap1\n      swap2\n      mstore\n      swap1\n      keccak256\n      sload\n        /* \"contracts/Arcade.sol\":5524:5525  1 */\n      0x01\n        /* \"contracts/Arcade.sol\":5490:5525  gameData[game_id].paid[player] == 1 */\n      eq\n        /* \"contracts/Arcade.sol\":5482:5579  require(gameData[game_id].paid[player] == 1, \"Trophy King Arcade: Not registered for this game.\") */\n      tag_242\n      jumpi\n      mload(0x40)\n      shl(0xe5, 0x461bcd)\n      dup2\n      mstore\n        /* \"#utility.yul\":11720:11722   */\n      0x20\n        /* \"contracts/Arcade.sol\":5482:5579  require(gameData[game_id].paid[player] == 1, \"Trophy King Arcade: Not registered for this game.\") */\n      0x04\n      dup3\n      add\n        /* \"#utility.yul\":11702:11723   */\n      mstore\n        /* \"#utility.yul\":11759:11761   */\n      0x31\n        /* \"#utility.yul\":11739:11757   */\n      0x24\n      dup3\n      add\n        /* \"#utility.yul\":11732:11762   */\n      mstore\n        /* \"#utility.yul\":11798:11832   */\n      0x54726f706879204b696e67204172636164653a204e6f74207265676973746572\n        /* \"#utility.yul\":11778:11796   */\n      0x44\n      dup3\n      add\n        /* \"#utility.yul\":11771:11833   */\n      mstore\n      shl(0x79, 0x32b2103337b9103a3434b99033b0b6b297)\n        /* \"#utility.yul\":11849:11867   */\n      0x64\n      dup3\n      add\n        /* \"#utility.yul\":11842:11889   */\n      mstore\n        /* \"#utility.yul\":11906:11925   */\n      0x84\n      add\n        /* \"contracts/Arcade.sol\":5482:5579  require(gameData[game_id].paid[player] == 1, \"Trophy King Arcade: Not registered for this game.\") */\n      tag_230\n        /* \"#utility.yul\":11692:11931   */\n      jump\n        /* \"contracts/Arcade.sol\":5482:5579  require(gameData[game_id].paid[player] == 1, \"Trophy King Arcade: Not registered for this game.\") */\n    tag_242:\n        /* \"contracts/Arcade.sol\":5594:5613  GameInfo storage gi */\n      0x00\n        /* \"contracts/Arcade.sol\":5616:5633  gameData[game_id] */\n      dup4\n      dup2\n      mstore\n        /* \"contracts/Arcade.sol\":5616:5624  gameData */\n      0x02\n        /* \"contracts/Arcade.sol\":5616:5633  gameData[game_id] */\n      0x20\n      swap1\n      dup2\n      mstore\n      0x40\n      dup1\n      dup4\n      keccak256\n        /* \"contracts/Arcade.sol\":5678:5693  gi.arcade_token */\n      0x05\n      dup2\n      add\n      sload\n      sub(shl(0xa0, 0x01), 0x01)\n      swap1\n      dup2\n      and\n        /* \"contracts/Arcade.sol\":5656:5695  acceptedArcadeTokens[(gi.arcade_token)] */\n      dup6\n      mstore\n        /* \"contracts/Arcade.sol\":5656:5676  acceptedArcadeTokens */\n      0x01\n        /* \"contracts/Arcade.sol\":5656:5695  acceptedArcadeTokens[(gi.arcade_token)] */\n      swap1\n      swap4\n      mstore\n      swap3\n      keccak256\n        /* \"contracts/Arcade.sol\":5656:5708  acceptedArcadeTokens[(gi.arcade_token)].native_token */\n      sload\n      and\n        /* \"contracts/Arcade.sol\":5656:5717  acceptedArcadeTokens[(gi.arcade_token)].native_token.transfer */\n      0xa9059cbb\n        /* \"@openzeppelin/contracts@4.6.0/utils/Context.sol\":719:729  msg.sender */\n      caller\n        /* \"contracts/Arcade.sol\":5732:5751  gi.registration_fee */\n      0x03\n      dup5\n      add\n      sload\n        /* \"contracts/Arcade.sol\":5656:5752  acceptedArcadeTokens[(gi.arcade_token)].native_token.transfer(_msgSender(), gi.registration_fee) */\n      mload(0x40)\n      not(sub(shl(0xe0, 0x01), 0x01))\n      0xe0\n      dup6\n      swap1\n      shl\n      and\n      dup2\n      mstore\n      sub(shl(0xa0, 0x01), 0x01)\n        /* \"#utility.yul\":4692:4724   */\n      swap1\n      swap3\n      and\n        /* \"contracts/Arcade.sol\":5656:5752  acceptedArcadeTokens[(gi.arcade_token)].native_token.transfer(_msgSender(), gi.registration_fee) */\n      0x04\n      dup4\n      add\n        /* \"#utility.yul\":4674:4725   */\n      mstore\n        /* \"#utility.yul\":4741:4759   */\n      0x24\n      dup3\n      add\n        /* \"#utility.yul\":4734:4768   */\n      mstore\n        /* \"#utility.yul\":4647:4665   */\n      0x44\n      add\n        /* \"contracts/Arcade.sol\":5656:5752  acceptedArcadeTokens[(gi.arcade_token)].native_token.transfer(_msgSender(), gi.registration_fee) */\n      0x20\n      mload(0x40)\n      dup1\n      dup4\n      sub\n      dup2\n      0x00\n      dup8\n      dup1\n      extcodesize\n      iszero\n      dup1\n      iszero\n      tag_248\n      jumpi\n      0x00\n      dup1\n      revert\n    tag_248:\n      pop\n      gas\n      call\n      iszero\n      dup1\n      iszero\n      tag_250\n      jumpi\n      returndatasize\n      0x00\n      dup1\n      returndatacopy\n      revert(0x00, returndatasize)\n    tag_250:\n      pop\n      pop\n      pop\n      pop\n      mload(0x40)\n      returndatasize\n      not(0x1f)\n      0x1f\n      dup3\n      add\n      and\n      dup3\n      add\n      dup1\n      0x40\n      mstore\n      pop\n      dup2\n      add\n      swap1\n      tag_251\n      swap2\n      swap1\n      tag_204\n      jump\t// in\n    tag_251:\n        /* \"contracts/Arcade.sol\":5648:5791  require(acceptedArcadeTokens[(gi.arcade_token)].native_token.transfer(_msgSender(), gi.registration_fee), \"Trophy King Arcade: Refund failed.\") */\n      tag_252\n      jumpi\n      mload(0x40)\n      shl(0xe5, 0x461bcd)\n      dup2\n      mstore\n        /* \"#utility.yul\":12138:12140   */\n      0x20\n        /* \"contracts/Arcade.sol\":5648:5791  require(acceptedArcadeTokens[(gi.arcade_token)].native_token.transfer(_msgSender(), gi.registration_fee), \"Trophy King Arcade: Refund failed.\") */\n      0x04\n      dup3\n      add\n        /* \"#utility.yul\":12120:12141   */\n      mstore\n        /* \"#utility.yul\":12177:12179   */\n      0x22\n        /* \"#utility.yul\":12157:12175   */\n      0x24\n      dup3\n      add\n        /* \"#utility.yul\":12150:12180   */\n      mstore\n        /* \"#utility.yul\":12216:12250   */\n      0x54726f706879204b696e67204172636164653a20526566756e64206661696c65\n        /* \"#utility.yul\":12196:12214   */\n      0x44\n      dup3\n      add\n        /* \"#utility.yul\":12189:12251   */\n      mstore\n      shl(0xf1, 0x3217)\n        /* \"#utility.yul\":12267:12285   */\n      0x64\n      dup3\n      add\n        /* \"#utility.yul\":12260:12292   */\n      mstore\n        /* \"#utility.yul\":12309:12328   */\n      0x84\n      add\n        /* \"contracts/Arcade.sol\":5648:5791  require(acceptedArcadeTokens[(gi.arcade_token)].native_token.transfer(_msgSender(), gi.registration_fee), \"Trophy King Arcade: Refund failed.\") */\n      tag_230\n        /* \"#utility.yul\":12110:12334   */\n      jump\n        /* \"contracts/Arcade.sol\":5648:5791  require(acceptedArcadeTokens[(gi.arcade_token)].native_token.transfer(_msgSender(), gi.registration_fee), \"Trophy King Arcade: Refund failed.\") */\n    tag_252:\n        /* \"contracts/Arcade.sol\":5835:5854  gi.registration_fee */\n      0x03\n      dup2\n      add\n      sload\n        /* \"contracts/Arcade.sol\":5811:5855  Refund(game_id, player, gi.registration_fee) */\n      0x40\n      dup1\n      mload\n        /* \"#utility.yul\":13139:13164   */\n      dup7\n      dup2\n      mstore\n      sub(shl(0xa0, 0x01), 0x01)\n        /* \"#utility.yul\":13200:13232   */\n      dup7\n      and\n        /* \"#utility.yul\":13195:13197   */\n      0x20\n        /* \"#utility.yul\":13180:13198   */\n      dup3\n      add\n        /* \"#utility.yul\":13173:13233   */\n      mstore\n        /* \"#utility.yul\":13249:13267   */\n      dup1\n      dup3\n      add\n        /* \"#utility.yul\":13242:13276   */\n      swap3\n      swap1\n      swap3\n      mstore\n        /* \"contracts/Arcade.sol\":5811:5855  Refund(game_id, player, gi.registration_fee) */\n      mload\n      0x21e12a7cad0da5928167e1084ea4d5fdf8d9af66657a2543a9ac76a0ca081477\n      swap2\n      dup2\n      swap1\n      sub\n        /* \"#utility.yul\":13127:13129   */\n      0x60\n        /* \"contracts/Arcade.sol\":5811:5855  Refund(game_id, player, gi.registration_fee) */\n      add\n      swap1\n      log1\n        /* \"contracts/Arcade.sol\":5887:5889  gi */\n      dup1\n        /* \"contracts/Arcade.sol\":5887:5906  gi.registration_fee */\n      0x03\n      add\n      sload\n        /* \"contracts/Arcade.sol\":5870:5872  gi */\n      dup2\n        /* \"contracts/Arcade.sol\":5870:5882  gi.total_fee */\n      0x06\n      add\n      0x00\n        /* \"contracts/Arcade.sol\":5870:5907  gi.total_fee -= (gi.registration_fee) */\n      dup3\n      dup3\n      sload\n      tag_257\n      swap2\n      swap1\n      tag_258\n      jump\t// in\n    tag_257:\n      swap1\n      swap2\n      sstore\n      pop\n      pop\n      sub(shl(0xa0, 0x01), 0x01)\n        /* \"contracts/Arcade.sol\":5922:5936  gi.fee[player] */\n      dup4\n      and\n        /* \"contracts/Arcade.sol\":5939:5940  0 */\n      0x00\n        /* \"contracts/Arcade.sol\":5922:5936  gi.fee[player] */\n      swap1\n      dup2\n      mstore\n        /* \"contracts/Arcade.sol\":5922:5928  gi.fee */\n      0x07\n      dup3\n      add\n        /* \"contracts/Arcade.sol\":5922:5936  gi.fee[player] */\n      0x20\n      swap1\n      dup2\n      mstore\n      0x40\n      dup1\n      dup4\n      keccak256\n        /* \"contracts/Arcade.sol\":5922:5940  gi.fee[player] = 0 */\n      dup4\n      swap1\n      sstore\n        /* \"contracts/Arcade.sol\":5954:5961  gi.paid */\n      0x08\n      dup5\n      add\n        /* \"contracts/Arcade.sol\":5954:5969  gi.paid[player] */\n      swap1\n      swap2\n      mstore\n      dup2\n      keccak256\n        /* \"contracts/Arcade.sol\":5954:5973  gi.paid[player] = 0 */\n      dup2\n      swap1\n      sstore\n        /* \"contracts/Arcade.sol\":6006:6007  1 */\n      0x01\n        /* \"contracts/Arcade.sol\":5987:6002  gi.player_count */\n      dup1\n      dup4\n      add\n        /* \"contracts/Arcade.sol\":5987:6007  gi.player_count -= 1 */\n      dup1\n      sload\n        /* \"contracts/Arcade.sol\":6006:6007  1 */\n      swap2\n      swap3\n        /* \"contracts/Arcade.sol\":5987:6002  gi.player_count */\n      swap1\n      swap2\n        /* \"contracts/Arcade.sol\":5987:6007  gi.player_count -= 1 */\n      tag_259\n      swap1\n        /* \"contracts/Arcade.sol\":6006:6007  1 */\n      dup5\n      swap1\n        /* \"contracts/Arcade.sol\":5987:6007  gi.player_count -= 1 */\n      tag_258\n      jump\t// in\n    tag_259:\n      swap1\n      swap2\n      sstore\n      pop\n      pop\n      pop\n        /* \"contracts/Arcade.sol\":5332:6024  function refund(uint256 game_id, address player) public onlyRole(DEFAULT_ADMIN_ROLE) {... */\n      pop\n      pop\n      pop\n      jump\t// out\n        /* \"contracts/Arcade.sol\":4971:5260  function reconcile() public onlyRole(DEFAULT_ADMIN_ROLE) {... */\n    tag_121:\n        /* \"@openzeppelin/contracts@4.6.0/access/AccessControl.sol\":2072:2076  0x00 */\n      0x00\n        /* \"@openzeppelin/contracts@4.6.0/access/AccessControl.sol\":2505:2521  _checkRole(role) */\n      tag_261\n        /* \"@openzeppelin/contracts@4.6.0/access/AccessControl.sol\":2072:2076  0x00 */\n      dup2\n        /* \"@openzeppelin/contracts@4.6.0/access/AccessControl.sol\":2505:2515  _checkRole */\n      tag_186\n        /* \"@openzeppelin/contracts@4.6.0/access/AccessControl.sol\":2505:2521  _checkRole(role) */\n      jump\t// in\n    tag_261:\n        /* \"contracts/Arcade.sol\":5056:5077  address(this).balance */\n      selfbalance\n        /* \"contracts/Arcade.sol\":5092:5103  balance > 0 */\n      dup1\n      iszero\n        /* \"contracts/Arcade.sol\":5088:5254  if (balance > 0) {... */\n      tag_232\n      jumpi\n        /* \"contracts/Arcade.sol\":5138:5143  owner */\n      sload(0x07)\n        /* \"contracts/Arcade.sol\":5138:5170  owner.call{ value: balance }(\"\") */\n      mload(0x40)\n        /* \"contracts/Arcade.sol\":5120:5132  bool success */\n      0x00\n      swap2\n      sub(shl(0xa0, 0x01), 0x01)\n        /* \"contracts/Arcade.sol\":5138:5143  owner */\n      and\n      swap1\n        /* \"contracts/Arcade.sol\":5157:5164  balance */\n      dup4\n      swap1\n        /* \"contracts/Arcade.sol\":5120:5132  bool success */\n      dup4\n        /* \"contracts/Arcade.sol\":5138:5170  owner.call{ value: balance }(\"\") */\n      dup2\n        /* \"contracts/Arcade.sol\":5120:5132  bool success */\n      dup2\n        /* \"contracts/Arcade.sol\":5138:5170  owner.call{ value: balance }(\"\") */\n      dup2\n        /* \"contracts/Arcade.sol\":5157:5164  balance */\n      dup6\n        /* \"contracts/Arcade.sol\":5138:5143  owner */\n      dup8\n        /* \"contracts/Arcade.sol\":5138:5170  owner.call{ value: balance }(\"\") */\n      gas\n      call\n      swap3\n      pop\n      pop\n      pop\n      returndatasize\n      dup1\n      0x00\n      dup2\n      eq\n      tag_268\n      jumpi\n      mload(0x40)\n      swap2\n      pop\n      and(add(returndatasize, 0x3f), not(0x1f))\n      dup3\n      add\n      0x40\n      mstore\n      returndatasize\n      dup3\n      mstore\n      returndatasize\n      0x00\n      0x20\n      dup5\n      add\n      returndatacopy\n      jump(tag_267)\n    tag_268:\n      0x60\n      swap2\n      pop\n    tag_267:\n      pop\n        /* \"contracts/Arcade.sol\":5119:5170  (bool success, ) = owner.call{ value: balance }(\"\") */\n      pop\n      swap1\n      pop\n        /* \"contracts/Arcade.sol\":5192:5199  success */\n      dup1\n        /* \"contracts/Arcade.sol\":5184:5243  require(success, \"Trophy King Arcade: Unable to transfer.\") */\n      tag_225\n      jumpi\n      mload(0x40)\n      shl(0xe5, 0x461bcd)\n      dup2\n      mstore\n      0x04\n      add\n      tag_230\n      swap1\n      tag_271\n      jump\t// in\n        /* \"@openzeppelin/contracts@4.6.0/access/AccessControl.sol\":2895:3040  function hasRole(bytes32 role, address account) public view virtual override returns (bool) {... */\n    tag_125:\n        /* \"@openzeppelin/contracts@4.6.0/access/AccessControl.sol\":2981:2985  bool */\n      0x00\n        /* \"@openzeppelin/contracts@4.6.0/access/AccessControl.sol\":3004:3016  _roles[role] */\n      swap2\n      dup3\n      mstore\n      0x20\n      dup3\n      dup2\n      mstore\n      0x40\n      dup1\n      dup5\n      keccak256\n      sub(shl(0xa0, 0x01), 0x01)\n        /* \"@openzeppelin/contracts@4.6.0/access/AccessControl.sol\":3004:3033  _roles[role].members[account] */\n      swap4\n      swap1\n      swap4\n      and\n      dup5\n      mstore\n      swap2\n      swap1\n      mstore\n      swap1\n      keccak256\n      sload\n      0xff\n      and\n      swap1\n        /* \"@openzeppelin/contracts@4.6.0/access/AccessControl.sol\":2895:3040  function hasRole(bytes32 role, address account) public view virtual override returns (bool) {... */\n      jump\t// out\n        /* \"contracts/Arcade.sol\":7421:8287  function swap(uint256 game_id) public payable {... */\n    tag_129:\n        /* \"contracts/Arcade.sol\":7485:7502  gameData[game_id] */\n      0x00\n      dup2\n      dup2\n      mstore\n        /* \"contracts/Arcade.sol\":7485:7493  gameData */\n      0x02\n        /* \"contracts/Arcade.sol\":7485:7502  gameData[game_id] */\n      0x20\n      swap1\n      dup2\n      mstore\n      0x40\n      dup1\n      dup4\n      keccak256\n        /* \"contracts/Arcade.sol\":7509:7519  msg.sender */\n      caller\n        /* \"contracts/Arcade.sol\":7485:7520  gameData[game_id].seats[msg.sender] */\n      dup5\n      mstore\n        /* \"contracts/Arcade.sol\":7485:7508  gameData[game_id].seats */\n      0x09\n      add\n        /* \"contracts/Arcade.sol\":7485:7520  gameData[game_id].seats[msg.sender] */\n      swap1\n      swap2\n      mstore\n      swap1\n      keccak256\n      sload\n        /* \"contracts/Arcade.sol\":7524:7525  1 */\n      0x01\n        /* \"contracts/Arcade.sol\":7485:7525  gameData[game_id].seats[msg.sender] == 1 */\n      eq\n        /* \"contracts/Arcade.sol\":7477:7563  require(gameData[game_id].seats[msg.sender] == 1, \"Trophy King Arcade: Unauthorized.\") */\n      tag_274\n      jumpi\n      mload(0x40)\n      shl(0xe5, 0x461bcd)\n      dup2\n      mstore\n      0x04\n      add\n      tag_230\n      swap1\n      tag_276\n      jump\t// in\n    tag_274:\n        /* \"contracts/Arcade.sol\":7581:7598  gameData[game_id] */\n      0x00\n      dup2\n      dup2\n      mstore\n        /* \"contracts/Arcade.sol\":7581:7589  gameData */\n      0x02\n        /* \"contracts/Arcade.sol\":7581:7598  gameData[game_id] */\n      0x20\n      mstore\n      0x40\n      swap1\n      keccak256\n        /* \"contracts/Arcade.sol\":7581:7605  gameData[game_id].status */\n      0x04\n      add\n      sload\n        /* \"contracts/Arcade.sol\":7609:7610  1 */\n      0x01\n        /* \"contracts/Arcade.sol\":7581:7610  gameData[game_id].status == 1 */\n      eq\n        /* \"contracts/Arcade.sol\":7573:7647  require(gameData[game_id].status == 1, \"Trophy King Arcade: Game closed.\") */\n      tag_277\n      jumpi\n      mload(0x40)\n      shl(0xe5, 0x461bcd)\n      dup2\n      mstore\n        /* \"#utility.yul\":7669:7671   */\n      0x20\n        /* \"contracts/Arcade.sol\":7573:7647  require(gameData[game_id].status == 1, \"Trophy King Arcade: Game closed.\") */\n      0x04\n      dup3\n      add\n        /* \"#utility.yul\":7651:7672   */\n      dup2\n      swap1\n      mstore\n        /* \"#utility.yul\":7688:7706   */\n      0x24\n      dup3\n      add\n        /* \"#utility.yul\":7681:7711   */\n      mstore\n        /* \"#utility.yul\":7747:7781   */\n      0x54726f706879204b696e67204172636164653a2047616d6520636c6f7365642e\n        /* \"#utility.yul\":7727:7745   */\n      0x44\n      dup3\n      add\n        /* \"#utility.yul\":7720:7782   */\n      mstore\n        /* \"#utility.yul\":7799:7817   */\n      0x64\n      add\n        /* \"contracts/Arcade.sol\":7573:7647  require(gameData[game_id].status == 1, \"Trophy King Arcade: Game closed.\") */\n      tag_230\n        /* \"#utility.yul\":7641:7823   */\n      jump\n        /* \"contracts/Arcade.sol\":7573:7647  require(gameData[game_id].status == 1, \"Trophy King Arcade: Game closed.\") */\n    tag_277:\n        /* \"contracts/Arcade.sol\":7698:7715  gameData[game_id] */\n      0x00\n      dup2\n      dup2\n      mstore\n        /* \"contracts/Arcade.sol\":7698:7706  gameData */\n      0x02\n        /* \"contracts/Arcade.sol\":7698:7715  gameData[game_id] */\n      0x20\n      dup2\n      swap1\n      mstore\n      0x40\n      swap1\n      swap2\n      keccak256\n        /* \"contracts/Arcade.sol\":7698:7728  gameData[game_id].player_count */\n      0x01\n      dup2\n      add\n      sload\n        /* \"contracts/Arcade.sol\":7665:7695  gameData[game_id].player_limit */\n      swap2\n      add\n      sload\n        /* \"contracts/Arcade.sol\":7665:7728  gameData[game_id].player_limit > gameData[game_id].player_count */\n      gt\n        /* \"contracts/Arcade.sol\":7657:7775  require(gameData[game_id].player_limit > gameData[game_id].player_count, \"Trophy King Arcade: Game full.  Try again.\") */\n      tag_280\n      jumpi\n      mload(0x40)\n      shl(0xe5, 0x461bcd)\n      dup2\n      mstore\n      0x04\n      add\n      tag_230\n      swap1\n      tag_282\n      jump\t// in\n    tag_280:\n        /* \"contracts/Arcade.sol\":7793:7810  gameData[game_id] */\n      0x00\n      dup2\n      dup2\n      mstore\n        /* \"contracts/Arcade.sol\":7793:7801  gameData */\n      0x02\n        /* \"contracts/Arcade.sol\":7793:7810  gameData[game_id] */\n      0x20\n      swap1\n      dup2\n      mstore\n      0x40\n      dup1\n      dup4\n      keccak256\n        /* \"contracts/Arcade.sol\":7816:7826  msg.sender */\n      caller\n        /* \"contracts/Arcade.sol\":7793:7827  gameData[game_id].paid[msg.sender] */\n      dup5\n      mstore\n        /* \"contracts/Arcade.sol\":7793:7815  gameData[game_id].paid */\n      0x08\n      add\n        /* \"contracts/Arcade.sol\":7793:7827  gameData[game_id].paid[msg.sender] */\n      swap1\n      swap2\n      mstore\n      swap1\n      keccak256\n      sload\n        /* \"contracts/Arcade.sol\":7793:7832  gameData[game_id].paid[msg.sender] == 0 */\n      iszero\n        /* \"contracts/Arcade.sol\":7785:7876  require(gameData[game_id].paid[msg.sender] == 0, \"Trophy King Arcade: Already registered.\") */\n      tag_283\n      jumpi\n      mload(0x40)\n      shl(0xe5, 0x461bcd)\n      dup2\n      mstore\n      0x04\n      add\n      tag_230\n      swap1\n      tag_285\n      jump\t// in\n    tag_283:\n        /* \"contracts/Arcade.sol\":7927:7928  0 */\n      0x00\n        /* \"contracts/Arcade.sol\":7894:7911  gameData[game_id] */\n      dup2\n      dup2\n      mstore\n        /* \"contracts/Arcade.sol\":7894:7902  gameData */\n      0x02\n        /* \"contracts/Arcade.sol\":7894:7911  gameData[game_id] */\n      0x20\n      dup2\n      swap1\n      mstore\n      0x40\n      swap1\n      swap2\n      keccak256\n        /* \"contracts/Arcade.sol\":7894:7924  gameData[game_id].player_limit */\n      add\n      sload\n        /* \"contracts/Arcade.sol\":7886:7968  require(gameData[game_id].player_limit > 0, \"Trophy King Arcade: Game not found.\") */\n      tag_286\n      jumpi\n      mload(0x40)\n      shl(0xe5, 0x461bcd)\n      dup2\n      mstore\n      0x04\n      add\n      tag_230\n      swap1\n      tag_288\n      jump\t// in\n    tag_286:\n        /* \"contracts/Arcade.sol\":8000:8017  gameData[game_id] */\n      0x00\n      dup2\n      dup2\n      mstore\n        /* \"contracts/Arcade.sol\":8000:8008  gameData */\n      0x02\n        /* \"contracts/Arcade.sol\":8000:8017  gameData[game_id] */\n      0x20\n      mstore\n      0x40\n      swap1\n      keccak256\n        /* \"contracts/Arcade.sol\":8000:8034  gameData[game_id].registration_fee */\n      0x03\n      add\n      sload\n        /* \"contracts/Arcade.sol\":7986:7995  msg.value */\n      callvalue\n        /* \"contracts/Arcade.sol\":7986:8035  msg.value == (gameData[game_id].registration_fee) */\n      eq\n        /* \"contracts/Arcade.sol\":7978:8088  require(msg.value == (gameData[game_id].registration_fee), \"Trophy King Arcade: Must match registration fee.\") */\n      tag_289\n      jumpi\n      mload(0x40)\n      shl(0xe5, 0x461bcd)\n      dup2\n      mstore\n        /* \"#utility.yul\":10086:10088   */\n      0x20\n        /* \"contracts/Arcade.sol\":7978:8088  require(msg.value == (gameData[game_id].registration_fee), \"Trophy King Arcade: Must match registration fee.\") */\n      0x04\n      dup3\n      add\n        /* \"#utility.yul\":10068:10089   */\n      mstore\n        /* \"#utility.yul\":10125:10127   */\n      0x30\n        /* \"#utility.yul\":10105:10123   */\n      0x24\n      dup3\n      add\n        /* \"#utility.yul\":10098:10128   */\n      mstore\n        /* \"#utility.yul\":10164:10198   */\n      0x54726f706879204b696e67204172636164653a204d757374206d617463682072\n        /* \"#utility.yul\":10144:10162   */\n      0x44\n      dup3\n      add\n        /* \"#utility.yul\":10137:10199   */\n      mstore\n      shl(0x81, 0x32b3b4b9ba3930ba34b7b7103332b297)\n        /* \"#utility.yul\":10215:10233   */\n      0x64\n      dup3\n      add\n        /* \"#utility.yul\":10208:10254   */\n      mstore\n        /* \"#utility.yul\":10271:10290   */\n      0x84\n      add\n        /* \"contracts/Arcade.sol\":7978:8088  require(msg.value == (gameData[game_id].registration_fee), \"Trophy King Arcade: Must match registration fee.\") */\n      tag_230\n        /* \"#utility.yul\":10058:10296   */\n      jump\n        /* \"contracts/Arcade.sol\":7978:8088  require(msg.value == (gameData[game_id].registration_fee), \"Trophy King Arcade: Must match registration fee.\") */\n    tag_289:\n        /* \"contracts/Arcade.sol\":8118:8130  market_maker */\n      sload(0x06)\n        /* \"contracts/Arcade.sol\":8118:8159  market_maker.call{ value: msg.value }(\"\") */\n      mload(0x40)\n        /* \"contracts/Arcade.sol\":8100:8112  bool success */\n      0x00\n      swap2\n      sub(shl(0xa0, 0x01), 0x01)\n        /* \"contracts/Arcade.sol\":8118:8130  market_maker */\n      and\n      swap1\n        /* \"contracts/Arcade.sol\":8144:8153  msg.value */\n      callvalue\n      swap1\n        /* \"contracts/Arcade.sol\":8100:8112  bool success */\n      dup4\n        /* \"contracts/Arcade.sol\":8118:8159  market_maker.call{ value: msg.value }(\"\") */\n      dup2\n        /* \"contracts/Arcade.sol\":8100:8112  bool success */\n      dup2\n        /* \"contracts/Arcade.sol\":8118:8159  market_maker.call{ value: msg.value }(\"\") */\n      dup2\n        /* \"contracts/Arcade.sol\":8144:8153  msg.value */\n      dup6\n        /* \"contracts/Arcade.sol\":8118:8130  market_maker */\n      dup8\n        /* \"contracts/Arcade.sol\":8118:8159  market_maker.call{ value: msg.value }(\"\") */\n      gas\n      call\n      swap3\n      pop\n      pop\n      pop\n      returndatasize\n      dup1\n      0x00\n      dup2\n      eq\n      tag_295\n      jumpi\n      mload(0x40)\n      swap2\n      pop\n      and(add(returndatasize, 0x3f), not(0x1f))\n      dup3\n      add\n      0x40\n      mstore\n      returndatasize\n      dup3\n      mstore\n      returndatasize\n      0x00\n      0x20\n      dup5\n      add\n      returndatacopy\n      jump(tag_294)\n    tag_295:\n      0x60\n      swap2\n      pop\n    tag_294:\n      pop\n        /* \"contracts/Arcade.sol\":8099:8159  (bool success, ) = market_maker.call{ value: msg.value }(\"\") */\n      pop\n      swap1\n      pop\n        /* \"contracts/Arcade.sol\":8177:8184  success */\n      dup1\n        /* \"contracts/Arcade.sol\":8169:8228  require(success, \"Trophy King Arcade: Unable to transfer.\") */\n      tag_296\n      jumpi\n      mload(0x40)\n      shl(0xe5, 0x461bcd)\n      dup2\n      mstore\n      0x04\n      add\n      tag_230\n      swap1\n      tag_271\n      jump\t// in\n    tag_296:\n        /* \"contracts/Arcade.sol\":8239:8280  _register(game_id, msg.sender, msg.value) */\n      tag_232\n        /* \"contracts/Arcade.sol\":8249:8256  game_id */\n      dup3\n        /* \"contracts/Arcade.sol\":8258:8268  msg.sender */\n      caller\n        /* \"contracts/Arcade.sol\":8270:8279  msg.value */\n      callvalue\n        /* \"contracts/Arcade.sol\":8239:8248  _register */\n      tag_299\n        /* \"contracts/Arcade.sol\":8239:8280  _register(game_id, msg.sender, msg.value) */\n      jump\t// in\n        /* \"contracts/Arcade.sol\":9004:9870  function setWinner(uint256 game_id, address winner) public onlyRole(DEFAULT_ADMIN_ROLE) {... */\n    tag_133:\n        /* \"@openzeppelin/contracts@4.6.0/access/AccessControl.sol\":2072:2076  0x00 */\n      0x00\n        /* \"@openzeppelin/contracts@4.6.0/access/AccessControl.sol\":2505:2521  _checkRole(role) */\n      tag_301\n        /* \"@openzeppelin/contracts@4.6.0/access/AccessControl.sol\":2072:2076  0x00 */\n      dup2\n        /* \"@openzeppelin/contracts@4.6.0/access/AccessControl.sol\":2505:2515  _checkRole */\n      tag_186\n        /* \"@openzeppelin/contracts@4.6.0/access/AccessControl.sol\":2505:2521  _checkRole(role) */\n      jump\t// in\n    tag_301:\n        /* \"contracts/Arcade.sol\":9106:9123  gameData[game_id] */\n      0x00\n      dup4\n      dup2\n      mstore\n        /* \"contracts/Arcade.sol\":9106:9114  gameData */\n      0x02\n        /* \"contracts/Arcade.sol\":9106:9123  gameData[game_id] */\n      0x20\n      mstore\n      0x40\n      swap1\n      keccak256\n        /* \"contracts/Arcade.sol\":9106:9132  gameData[game_id].exchange */\n      sload\n      0xff\n      and\n        /* \"contracts/Arcade.sol\":9102:9835  if (gameData[game_id].exchange == false) {... */\n      tag_303\n      jumpi\n        /* \"contracts/Arcade.sol\":9166:9183  gameData[game_id] */\n      0x00\n      dup4\n      dup2\n      mstore\n        /* \"contracts/Arcade.sol\":9166:9174  gameData */\n      0x02\n        /* \"contracts/Arcade.sol\":9166:9183  gameData[game_id] */\n      0x20\n      swap1\n      dup2\n      mstore\n      0x40\n      dup1\n      dup4\n      keccak256\n      sub(shl(0xa0, 0x01), 0x01)\n        /* \"contracts/Arcade.sol\":9166:9195  gameData[game_id].fee[winner] */\n      dup7\n      and\n      dup5\n      mstore\n        /* \"contracts/Arcade.sol\":9166:9187  gameData[game_id].fee */\n      0x07\n      add\n        /* \"contracts/Arcade.sol\":9166:9195  gameData[game_id].fee[winner] */\n      dup3\n      mstore\n      swap2\n      dup3\n      swap1\n      keccak256\n      sload\n        /* \"contracts/Arcade.sol\":9162:9196  Fee(gameData[game_id].fee[winner]) */\n      swap2\n      mload\n        /* \"#utility.yul\":6307:6332   */\n      swap2\n      dup3\n      mstore\n        /* \"contracts/Arcade.sol\":9162:9196  Fee(gameData[game_id].fee[winner]) */\n      0x557809284da7314475b1582804ae28e5f1349efc1fe970ea25d50fce75eb4f43\n      swap2\n        /* \"#utility.yul\":6280:6298   */\n      add\n        /* \"contracts/Arcade.sol\":9162:9196  Fee(gameData[game_id].fee[winner]) */\n      mload(0x40)\n      dup1\n      swap2\n      sub\n      swap1\n      log1\n        /* \"contracts/Arcade.sol\":9219:9236  gameData[game_id] */\n      0x00\n      dup4\n      dup2\n      mstore\n        /* \"contracts/Arcade.sol\":9219:9227  gameData */\n      0x02\n        /* \"contracts/Arcade.sol\":9219:9236  gameData[game_id] */\n      0x20\n      swap1\n      dup2\n      mstore\n      0x40\n      dup1\n      dup4\n      keccak256\n      sub(shl(0xa0, 0x01), 0x01)\n        /* \"contracts/Arcade.sol\":9219:9249  gameData[game_id].paid[winner] */\n      dup7\n      and\n      dup5\n      mstore\n        /* \"contracts/Arcade.sol\":9219:9241  gameData[game_id].paid */\n      0x08\n      add\n        /* \"contracts/Arcade.sol\":9219:9249  gameData[game_id].paid[winner] */\n      swap1\n      swap2\n      mstore\n      swap1\n      keccak256\n      sload\n        /* \"contracts/Arcade.sol\":9253:9254  1 */\n      0x01\n        /* \"contracts/Arcade.sol\":9219:9254  gameData[game_id].paid[winner] == 1 */\n      eq\n        /* \"contracts/Arcade.sol\":9211:9307  require(gameData[game_id].paid[winner] == 1, \"Trophy King Arcade: Not registered for this game\") */\n      tag_305\n      jumpi\n      mload(0x40)\n      shl(0xe5, 0x461bcd)\n      dup2\n      mstore\n        /* \"#utility.yul\":9261:9263   */\n      0x20\n        /* \"contracts/Arcade.sol\":9211:9307  require(gameData[game_id].paid[winner] == 1, \"Trophy King Arcade: Not registered for this game\") */\n      0x04\n      dup3\n      add\n        /* \"#utility.yul\":9243:9264   */\n      mstore\n        /* \"#utility.yul\":9300:9302   */\n      0x30\n        /* \"#utility.yul\":9280:9298   */\n      0x24\n      dup3\n      add\n        /* \"#utility.yul\":9273:9303   */\n      mstore\n        /* \"#utility.yul\":9339:9373   */\n      0x54726f706879204b696e67204172636164653a204e6f74207265676973746572\n        /* \"#utility.yul\":9319:9337   */\n      0x44\n      dup3\n      add\n        /* \"#utility.yul\":9312:9374   */\n      mstore\n      shl(0x80, 0x656420666f7220746869732067616d65)\n        /* \"#utility.yul\":9390:9408   */\n      0x64\n      dup3\n      add\n        /* \"#utility.yul\":9383:9429   */\n      mstore\n        /* \"#utility.yul\":9446:9465   */\n      0x84\n      add\n        /* \"contracts/Arcade.sol\":9211:9307  require(gameData[game_id].paid[winner] == 1, \"Trophy King Arcade: Not registered for this game\") */\n      tag_230\n        /* \"#utility.yul\":9233:9471   */\n      jump\n        /* \"contracts/Arcade.sol\":9211:9307  require(gameData[game_id].paid[winner] == 1, \"Trophy King Arcade: Not registered for this game\") */\n    tag_305:\n        /* \"contracts/Arcade.sol\":9399:9403  base */\n      sload(0x05)\n        /* \"contracts/Arcade.sol\":9374:9388  fee_percentage */\n      sload(0x04)\n        /* \"contracts/Arcade.sol\":9322:9340  uint256 arcade_fee */\n      0x00\n        /* \"contracts/Arcade.sol\":9344:9361  gameData[game_id] */\n      dup6\n      dup2\n      mstore\n        /* \"contracts/Arcade.sol\":9344:9352  gameData */\n      0x02\n        /* \"contracts/Arcade.sol\":9344:9361  gameData[game_id] */\n      0x20\n      mstore\n      0x40\n      dup2\n      keccak256\n        /* \"contracts/Arcade.sol\":9344:9371  gameData[game_id].total_fee */\n      0x06\n      add\n      sload\n        /* \"contracts/Arcade.sol\":9322:9340  uint256 arcade_fee */\n      swap1\n      swap3\n        /* \"contracts/Arcade.sol\":9399:9403  base */\n      swap2\n      dup3\n      swap2\n        /* \"contracts/Arcade.sol\":9344:9388  gameData[game_id].total_fee * fee_percentage */\n      tag_308\n      swap2\n        /* \"contracts/Arcade.sol\":9374:9388  fee_percentage */\n      swap1\n        /* \"contracts/Arcade.sol\":9344:9388  gameData[game_id].total_fee * fee_percentage */\n      tag_309\n      jump\t// in\n    tag_308:\n        /* \"contracts/Arcade.sol\":9343:9396  (gameData[game_id].total_fee * fee_percentage) / base */\n      tag_310\n      swap2\n      swap1\n      tag_311\n      jump\t// in\n    tag_310:\n        /* \"contracts/Arcade.sol\":9343:9403  (gameData[game_id].total_fee * fee_percentage) / base / base */\n      tag_312\n      swap2\n      swap1\n      tag_311\n      jump\t// in\n    tag_312:\n        /* \"contracts/Arcade.sol\":9417:9431  uint256 payout */\n      0x00\n        /* \"contracts/Arcade.sol\":9434:9451  gameData[game_id] */\n      dup6\n      dup2\n      mstore\n        /* \"contracts/Arcade.sol\":9434:9442  gameData */\n      0x02\n        /* \"contracts/Arcade.sol\":9434:9451  gameData[game_id] */\n      0x20\n      mstore\n      0x40\n      dup2\n      keccak256\n        /* \"contracts/Arcade.sol\":9434:9461  gameData[game_id].total_fee */\n      0x06\n      add\n      sload\n        /* \"contracts/Arcade.sol\":9322:9403  uint256 arcade_fee = (gameData[game_id].total_fee * fee_percentage) / base / base */\n      swap2\n      swap3\n      pop\n        /* \"contracts/Arcade.sol\":9417:9431  uint256 payout */\n      swap1\n        /* \"contracts/Arcade.sol\":9434:9474  gameData[game_id].total_fee - arcade_fee */\n      tag_313\n      swap1\n        /* \"contracts/Arcade.sol\":9322:9403  uint256 arcade_fee = (gameData[game_id].total_fee * fee_percentage) / base / base */\n      dup4\n      swap1\n        /* \"contracts/Arcade.sol\":9434:9474  gameData[game_id].total_fee - arcade_fee */\n      tag_258\n      jump\t// in\n    tag_313:\n        /* \"contracts/Arcade.sol\":9417:9474  uint256 payout = gameData[game_id].total_fee - arcade_fee */\n      swap1\n      pop\n        /* \"contracts/Arcade.sol\":9515:9536  address(this).balance */\n      selfbalance\n        /* \"contracts/Arcade.sol\":9555:9580  contract_balance < payout */\n      dup2\n      dup2\n      lt\n        /* \"contracts/Arcade.sol\":9551:9640  if (contract_balance < payout) {... */\n      iszero\n      tag_314\n      jumpi\n        /* \"contracts/Arcade.sol\":9609:9625  contract_balance */\n      dup1\n        /* \"contracts/Arcade.sol\":9600:9625  payout = contract_balance */\n      swap2\n      pop\n        /* \"contracts/Arcade.sol\":9551:9640  if (contract_balance < payout) {... */\n    tag_314:\n        /* \"contracts/Arcade.sol\":9655:9667  bool success */\n      0x00\n        /* \"contracts/Arcade.sol\":9673:9679  winner */\n      dup6\n      sub(shl(0xa0, 0x01), 0x01)\n        /* \"contracts/Arcade.sol\":9673:9684  winner.call */\n      and\n        /* \"contracts/Arcade.sol\":9693:9699  payout */\n      dup4\n        /* \"contracts/Arcade.sol\":9673:9705  winner.call{ value: payout }(\"\") */\n      mload(0x40)\n      0x00\n      mload(0x40)\n      dup1\n      dup4\n      sub\n      dup2\n      dup6\n      dup8\n      gas\n      call\n      swap3\n      pop\n      pop\n      pop\n      returndatasize\n      dup1\n      0x00\n      dup2\n      eq\n      tag_318\n      jumpi\n      mload(0x40)\n      swap2\n      pop\n      and(add(returndatasize, 0x3f), not(0x1f))\n      dup3\n      add\n      0x40\n      mstore\n      returndatasize\n      dup3\n      mstore\n      returndatasize\n      0x00\n      0x20\n      dup5\n      add\n      returndatacopy\n      jump(tag_317)\n    tag_318:\n      0x60\n      swap2\n      pop\n    tag_317:\n      pop\n        /* \"contracts/Arcade.sol\":9654:9705  (bool success, ) = winner.call{ value: payout }(\"\") */\n      pop\n      swap1\n      pop\n        /* \"contracts/Arcade.sol\":9727:9734  success */\n      dup1\n        /* \"contracts/Arcade.sol\":9719:9778  require(success, \"Trophy King Arcade: Unable to transfer.\") */\n      tag_319\n      jumpi\n      mload(0x40)\n      shl(0xe5, 0x461bcd)\n      dup2\n      mstore\n      0x04\n      add\n      tag_230\n      swap1\n      tag_271\n      jump\t// in\n    tag_319:\n        /* \"contracts/Arcade.sol\":9810:9824  Payout(payout) */\n      mload(0x40)\n        /* \"#utility.yul\":6307:6332   */\n      dup4\n      dup2\n      mstore\n        /* \"contracts/Arcade.sol\":9810:9824  Payout(payout) */\n      0x22427047e1a674a9aff59700a2c8d00ea96e017ddf9236690bdedf1f21f28d9d\n      swap1\n        /* \"#utility.yul\":6295:6297   */\n      0x20\n        /* \"#utility.yul\":6280:6298   */\n      add\n        /* \"contracts/Arcade.sol\":9810:9824  Payout(payout) */\n      mload(0x40)\n      dup1\n      swap2\n      sub\n      swap1\n      log1\n        /* \"contracts/Arcade.sol\":9102:9835  if (gameData[game_id].exchange == false) {... */\n      pop\n      pop\n      pop\n      pop\n    tag_303:\n        /* \"contracts/Arcade.sol\":9845:9863  closeGame(game_id) */\n      tag_225\n        /* \"contracts/Arcade.sol\":9855:9862  game_id */\n      dup4\n        /* \"contracts/Arcade.sol\":9845:9854  closeGame */\n      tag_80\n        /* \"contracts/Arcade.sol\":9845:9863  closeGame(game_id) */\n      jump\t// in\n        /* \"contracts/Arcade.sol\":4618:4899  function placePlayer(uint256 game_id, address player) public onlyRole(DEFAULT_ADMIN_ROLE) {... */\n    tag_147:\n        /* \"@openzeppelin/contracts@4.6.0/access/AccessControl.sol\":2072:2076  0x00 */\n      0x00\n        /* \"@openzeppelin/contracts@4.6.0/access/AccessControl.sol\":2505:2521  _checkRole(role) */\n      tag_324\n        /* \"@openzeppelin/contracts@4.6.0/access/AccessControl.sol\":2072:2076  0x00 */\n      dup2\n        /* \"@openzeppelin/contracts@4.6.0/access/AccessControl.sol\":2505:2515  _checkRole */\n      tag_186\n        /* \"@openzeppelin/contracts@4.6.0/access/AccessControl.sol\":2505:2521  _checkRole(role) */\n      jump\t// in\n    tag_324:\n        /* \"contracts/Arcade.sol\":4726:4743  gameData[game_id] */\n      0x00\n      dup4\n      dup2\n      mstore\n        /* \"contracts/Arcade.sol\":4726:4734  gameData */\n      0x02\n        /* \"contracts/Arcade.sol\":4726:4743  gameData[game_id] */\n      0x20\n      swap1\n      dup2\n      mstore\n      0x40\n      dup1\n      dup4\n      keccak256\n      sub(shl(0xa0, 0x01), 0x01)\n        /* \"contracts/Arcade.sol\":4726:4757  gameData[game_id].seats[player] */\n      dup7\n      and\n      dup5\n      mstore\n        /* \"contracts/Arcade.sol\":4726:4749  gameData[game_id].seats */\n      0x09\n      add\n        /* \"contracts/Arcade.sol\":4726:4757  gameData[game_id].seats[player] */\n      swap1\n      swap2\n      mstore\n      swap1\n      keccak256\n      sload\n        /* \"contracts/Arcade.sol\":4761:4762  1 */\n      0x01\n        /* \"contracts/Arcade.sol\":4726:4762  gameData[game_id].seats[player] != 1 */\n      eq\n      iszero\n        /* \"contracts/Arcade.sol\":4718:4802  require(gameData[game_id].seats[player] != 1, \"Trophy King Arcade: Already seated.\") */\n      tag_326\n      jumpi\n      mload(0x40)\n      shl(0xe5, 0x461bcd)\n      dup2\n      mstore\n        /* \"#utility.yul\":8857:8859   */\n      0x20\n        /* \"contracts/Arcade.sol\":4718:4802  require(gameData[game_id].seats[player] != 1, \"Trophy King Arcade: Already seated.\") */\n      0x04\n      dup3\n      add\n        /* \"#utility.yul\":8839:8860   */\n      mstore\n        /* \"#utility.yul\":8896:8898   */\n      0x23\n        /* \"#utility.yul\":8876:8894   */\n      0x24\n      dup3\n      add\n        /* \"#utility.yul\":8869:8899   */\n      mstore\n        /* \"#utility.yul\":8935:8969   */\n      0x54726f706879204b696e67204172636164653a20416c72656164792073656174\n        /* \"#utility.yul\":8915:8933   */\n      0x44\n      dup3\n      add\n        /* \"#utility.yul\":8908:8970   */\n      mstore\n      shl(0xe9, 0x32b217)\n        /* \"#utility.yul\":8986:9004   */\n      0x64\n      dup3\n      add\n        /* \"#utility.yul\":8979:9012   */\n      mstore\n        /* \"#utility.yul\":9029:9048   */\n      0x84\n      add\n        /* \"contracts/Arcade.sol\":4718:4802  require(gameData[game_id].seats[player] != 1, \"Trophy King Arcade: Already seated.\") */\n      tag_230\n        /* \"#utility.yul\":8829:9054   */\n      jump\n        /* \"contracts/Arcade.sol\":4718:4802  require(gameData[game_id].seats[player] != 1, \"Trophy King Arcade: Already seated.\") */\n    tag_326:\n        /* \"contracts/Arcade.sol\":4813:4830  gameData[game_id] */\n      0x00\n      dup4\n      dup2\n      mstore\n        /* \"contracts/Arcade.sol\":4813:4821  gameData */\n      0x02\n        /* \"contracts/Arcade.sol\":4813:4830  gameData[game_id] */\n      0x20\n      swap1\n      dup2\n      mstore\n      0x40\n      dup1\n      dup4\n      keccak256\n      sub(shl(0xa0, 0x01), 0x01)\n        /* \"contracts/Arcade.sol\":4813:4844  gameData[game_id].seats[player] */\n      dup7\n      and\n      dup1\n      dup6\n      mstore\n        /* \"contracts/Arcade.sol\":4813:4836  gameData[game_id].seats */\n      0x09\n      swap1\n      swap2\n      add\n        /* \"contracts/Arcade.sol\":4813:4844  gameData[game_id].seats[player] */\n      dup4\n      mstore\n      swap3\n      dup2\n      swap1\n      keccak256\n        /* \"contracts/Arcade.sol\":4847:4848  1 */\n      0x01\n        /* \"contracts/Arcade.sol\":4813:4848  gameData[game_id].seats[player] = 1 */\n      swap1\n      sstore\n        /* \"contracts/Arcade.sol\":4864:4892  PlacePlayer(player, game_id) */\n      dup1\n      mload\n        /* \"#utility.yul\":4674:4725   */\n      swap3\n      dup4\n      mstore\n        /* \"#utility.yul\":4741:4759   */\n      swap1\n      dup3\n      add\n        /* \"#utility.yul\":4734:4768   */\n      dup6\n      swap1\n      mstore\n        /* \"contracts/Arcade.sol\":4864:4892  PlacePlayer(player, game_id) */\n      0x9f2deefff0a36949d580cdd4ba9959b4a94786e786bad5650001b58b625fbbb1\n      swap2\n        /* \"#utility.yul\":4647:4665   */\n      add\n        /* \"contracts/Arcade.sol\":4864:4892  PlacePlayer(player, game_id) */\n      tag_216\n        /* \"#utility.yul\":4629:4774   */\n      jump\n        /* \"@openzeppelin/contracts@4.6.0/access/AccessControl.sol\":5149:5296  function revokeRole(bytes32 role, address account) public virtual override onlyRole(getRoleAdmin(role)) {... */\n    tag_161:\n        /* \"@openzeppelin/contracts@4.6.0/access/AccessControl.sol\":4465:4472  bytes32 */\n      0x00\n        /* \"@openzeppelin/contracts@4.6.0/access/AccessControl.sol\":4491:4503  _roles[role] */\n      dup3\n      dup2\n      mstore\n      0x20\n      dup2\n      swap1\n      mstore\n      0x40\n      swap1\n      keccak256\n        /* \"@openzeppelin/contracts@4.6.0/access/AccessControl.sol\":4491:4513  _roles[role].adminRole */\n      0x01\n      add\n      sload\n        /* \"@openzeppelin/contracts@4.6.0/access/AccessControl.sol\":2505:2521  _checkRole(role) */\n      tag_332\n        /* \"@openzeppelin/contracts@4.6.0/access/AccessControl.sol\":2516:2520  role */\n      dup2\n        /* \"@openzeppelin/contracts@4.6.0/access/AccessControl.sol\":2505:2515  _checkRole */\n      tag_186\n        /* \"@openzeppelin/contracts@4.6.0/access/AccessControl.sol\":2505:2521  _checkRole(role) */\n      jump\t// in\n    tag_332:\n        /* \"@openzeppelin/contracts@4.6.0/access/AccessControl.sol\":5263:5289  _revokeRole(role, account) */\n      tag_225\n        /* \"@openzeppelin/contracts@4.6.0/access/AccessControl.sol\":5275:5279  role */\n      dup4\n        /* \"@openzeppelin/contracts@4.6.0/access/AccessControl.sol\":5281:5288  account */\n      dup4\n        /* \"@openzeppelin/contracts@4.6.0/access/AccessControl.sol\":5263:5274  _revokeRole */\n      tag_233\n        /* \"@openzeppelin/contracts@4.6.0/access/AccessControl.sol\":5263:5289  _revokeRole(role, account) */\n      jump\t// in\n        /* \"contracts/Arcade.sol\":6504:7349  function register(uint256 game_id) public {... */\n    tag_174:\n        /* \"contracts/Arcade.sol\":6564:6581  gameData[game_id] */\n      0x00\n      dup2\n      dup2\n      mstore\n        /* \"contracts/Arcade.sol\":6564:6572  gameData */\n      0x02\n        /* \"contracts/Arcade.sol\":6564:6581  gameData[game_id] */\n      0x20\n      swap1\n      dup2\n      mstore\n      0x40\n      dup1\n      dup4\n      keccak256\n        /* \"contracts/Arcade.sol\":6588:6598  msg.sender */\n      caller\n        /* \"contracts/Arcade.sol\":6564:6599  gameData[game_id].seats[msg.sender] */\n      dup5\n      mstore\n        /* \"contracts/Arcade.sol\":6564:6587  gameData[game_id].seats */\n      0x09\n      add\n        /* \"contracts/Arcade.sol\":6564:6599  gameData[game_id].seats[msg.sender] */\n      swap1\n      swap2\n      mstore\n      swap1\n      keccak256\n      sload\n        /* \"contracts/Arcade.sol\":6603:6604  1 */\n      0x01\n        /* \"contracts/Arcade.sol\":6564:6604  gameData[game_id].seats[msg.sender] == 1 */\n      eq\n        /* \"contracts/Arcade.sol\":6556:6642  require(gameData[game_id].seats[msg.sender] == 1, \"Trophy King Arcade: Unauthorized.\") */\n      tag_337\n      jumpi\n      mload(0x40)\n      shl(0xe5, 0x461bcd)\n      dup2\n      mstore\n      0x04\n      add\n      tag_230\n      swap1\n      tag_276\n      jump\t// in\n    tag_337:\n        /* \"contracts/Arcade.sol\":6660:6677  gameData[game_id] */\n      0x00\n      dup2\n      dup2\n      mstore\n        /* \"contracts/Arcade.sol\":6660:6668  gameData */\n      0x02\n        /* \"contracts/Arcade.sol\":6660:6677  gameData[game_id] */\n      0x20\n      mstore\n      0x40\n      swap1\n      keccak256\n        /* \"contracts/Arcade.sol\":6660:6684  gameData[game_id].status */\n      0x04\n      add\n      sload\n        /* \"contracts/Arcade.sol\":6688:6689  1 */\n      0x01\n        /* \"contracts/Arcade.sol\":6660:6689  gameData[game_id].status == 1 */\n      eq\n        /* \"contracts/Arcade.sol\":6652:6726  require(gameData[game_id].status == 1, \"Trophy King Arcade: Game closed.\") */\n      tag_339\n      jumpi\n      mload(0x40)\n      shl(0xe5, 0x461bcd)\n      dup2\n      mstore\n        /* \"#utility.yul\":7669:7671   */\n      0x20\n        /* \"contracts/Arcade.sol\":6652:6726  require(gameData[game_id].status == 1, \"Trophy King Arcade: Game closed.\") */\n      0x04\n      dup3\n      add\n        /* \"#utility.yul\":7651:7672   */\n      dup2\n      swap1\n      mstore\n        /* \"#utility.yul\":7688:7706   */\n      0x24\n      dup3\n      add\n        /* \"#utility.yul\":7681:7711   */\n      mstore\n        /* \"#utility.yul\":7747:7781   */\n      0x54726f706879204b696e67204172636164653a2047616d6520636c6f7365642e\n        /* \"#utility.yul\":7727:7745   */\n      0x44\n      dup3\n      add\n        /* \"#utility.yul\":7720:7782   */\n      mstore\n        /* \"#utility.yul\":7799:7817   */\n      0x64\n      add\n        /* \"contracts/Arcade.sol\":6652:6726  require(gameData[game_id].status == 1, \"Trophy King Arcade: Game closed.\") */\n      tag_230\n        /* \"#utility.yul\":7641:7823   */\n      jump\n        /* \"contracts/Arcade.sol\":6652:6726  require(gameData[game_id].status == 1, \"Trophy King Arcade: Game closed.\") */\n    tag_339:\n        /* \"contracts/Arcade.sol\":6777:6794  gameData[game_id] */\n      0x00\n      dup2\n      dup2\n      mstore\n        /* \"contracts/Arcade.sol\":6777:6785  gameData */\n      0x02\n        /* \"contracts/Arcade.sol\":6777:6794  gameData[game_id] */\n      0x20\n      dup2\n      swap1\n      mstore\n      0x40\n      swap1\n      swap2\n      keccak256\n        /* \"contracts/Arcade.sol\":6777:6807  gameData[game_id].player_count */\n      0x01\n      dup2\n      add\n      sload\n        /* \"contracts/Arcade.sol\":6744:6774  gameData[game_id].player_limit */\n      swap2\n      add\n      sload\n        /* \"contracts/Arcade.sol\":6744:6807  gameData[game_id].player_limit > gameData[game_id].player_count */\n      gt\n        /* \"contracts/Arcade.sol\":6736:6854  require(gameData[game_id].player_limit > gameData[game_id].player_count, \"Trophy King Arcade: Game full.  Try again.\") */\n      tag_341\n      jumpi\n      mload(0x40)\n      shl(0xe5, 0x461bcd)\n      dup2\n      mstore\n      0x04\n      add\n      tag_230\n      swap1\n      tag_282\n      jump\t// in\n    tag_341:\n        /* \"contracts/Arcade.sol\":6872:6889  gameData[game_id] */\n      0x00\n      dup2\n      dup2\n      mstore\n        /* \"contracts/Arcade.sol\":6872:6880  gameData */\n      0x02\n        /* \"contracts/Arcade.sol\":6872:6889  gameData[game_id] */\n      0x20\n      swap1\n      dup2\n      mstore\n      0x40\n      dup1\n      dup4\n      keccak256\n        /* \"contracts/Arcade.sol\":6895:6905  msg.sender */\n      caller\n        /* \"contracts/Arcade.sol\":6872:6906  gameData[game_id].paid[msg.sender] */\n      dup5\n      mstore\n        /* \"contracts/Arcade.sol\":6872:6894  gameData[game_id].paid */\n      0x08\n      add\n        /* \"contracts/Arcade.sol\":6872:6906  gameData[game_id].paid[msg.sender] */\n      swap1\n      swap2\n      mstore\n      swap1\n      keccak256\n      sload\n        /* \"contracts/Arcade.sol\":6872:6911  gameData[game_id].paid[msg.sender] == 0 */\n      iszero\n        /* \"contracts/Arcade.sol\":6864:6955  require(gameData[game_id].paid[msg.sender] == 0, \"Trophy King Arcade: Already registered.\") */\n      tag_343\n      jumpi\n      mload(0x40)\n      shl(0xe5, 0x461bcd)\n      dup2\n      mstore\n      0x04\n      add\n      tag_230\n      swap1\n      tag_285\n      jump\t// in\n    tag_343:\n        /* \"contracts/Arcade.sol\":7006:7007  0 */\n      0x00\n        /* \"contracts/Arcade.sol\":6973:6990  gameData[game_id] */\n      dup2\n      dup2\n      mstore\n        /* \"contracts/Arcade.sol\":6973:6981  gameData */\n      0x02\n        /* \"contracts/Arcade.sol\":6973:6990  gameData[game_id] */\n      0x20\n      dup2\n      swap1\n      mstore\n      0x40\n      swap1\n      swap2\n      keccak256\n        /* \"contracts/Arcade.sol\":6973:7003  gameData[game_id].player_limit */\n      add\n      sload\n        /* \"contracts/Arcade.sol\":6965:7047  require(gameData[game_id].player_limit > 0, \"Trophy King Arcade: Game not found.\") */\n      tag_345\n      jumpi\n      mload(0x40)\n      shl(0xe5, 0x461bcd)\n      dup2\n      mstore\n      0x04\n      add\n      tag_230\n      swap1\n      tag_288\n      jump\t// in\n    tag_345:\n        /* \"contracts/Arcade.sol\":7065:7119  acceptedArcadeTokens[(gameData[game_id].arcade_token)] */\n      0x00\n        /* \"contracts/Arcade.sol\":7087:7104  gameData[game_id] */\n      dup2\n      dup2\n      mstore\n        /* \"contracts/Arcade.sol\":7087:7095  gameData */\n      0x02\n        /* \"contracts/Arcade.sol\":7087:7104  gameData[game_id] */\n      0x20\n      swap1\n      dup2\n      mstore\n      0x40\n      dup1\n      dup4\n      keccak256\n        /* \"contracts/Arcade.sol\":7087:7117  gameData[game_id].arcade_token */\n      0x05\n      add\n      sload\n      sub(shl(0xa0, 0x01), 0x01)\n      swap1\n      dup2\n      and\n        /* \"contracts/Arcade.sol\":7065:7119  acceptedArcadeTokens[(gameData[game_id].arcade_token)] */\n      dup5\n      mstore\n        /* \"contracts/Arcade.sol\":7065:7085  acceptedArcadeTokens */\n      0x01\n        /* \"contracts/Arcade.sol\":7065:7119  acceptedArcadeTokens[(gameData[game_id].arcade_token)] */\n      swap1\n      swap3\n      mstore\n      swap1\n      swap2\n      keccak256\n        /* \"contracts/Arcade.sol\":7065:7132  acceptedArcadeTokens[(gameData[game_id].arcade_token)].native_token */\n      sload\n      and\n        /* \"contracts/Arcade.sol\":7065:7145  acceptedArcadeTokens[(gameData[game_id].arcade_token)].native_token.transferFrom */\n      0x23b872dd\n        /* \"@openzeppelin/contracts@4.6.0/utils/Context.sol\":719:729  msg.sender */\n      caller\n        /* \"contracts/Arcade.sol\":7175:7192  gameData[game_id] */\n      0x00\n      dup5\n      dup2\n      mstore\n        /* \"contracts/Arcade.sol\":7175:7183  gameData */\n      0x02\n        /* \"contracts/Arcade.sol\":7175:7192  gameData[game_id] */\n      0x20\n      mstore\n      0x40\n      swap1\n      dup2\n      swap1\n      keccak256\n        /* \"contracts/Arcade.sol\":7175:7209  gameData[game_id].registration_fee */\n      0x03\n      add\n      sload\n        /* \"contracts/Arcade.sol\":7065:7210  acceptedArcadeTokens[(gameData[game_id].arcade_token)].native_token.transferFrom(_msgSender(), address(this), gameData[game_id].registration_fee) */\n      swap1\n      mload\n      0xe0\n      dup5\n      swap1\n      shl\n      not(sub(shl(0xe0, 0x01), 0x01))\n      and\n      dup2\n      mstore\n      sub(shl(0xa0, 0x01), 0x01)\n        /* \"#utility.yul\":4293:4308   */\n      swap1\n      swap3\n      and\n        /* \"contracts/Arcade.sol\":7065:7210  acceptedArcadeTokens[(gameData[game_id].arcade_token)].native_token.transferFrom(_msgSender(), address(this), gameData[game_id].registration_fee) */\n      0x04\n      dup4\n      add\n        /* \"#utility.yul\":4275:4309   */\n      mstore\n        /* \"contracts/Arcade.sol\":7168:7172  this */\n      address\n        /* \"#utility.yul\":4325:4343   */\n      0x24\n      dup4\n      add\n        /* \"#utility.yul\":4318:4361   */\n      mstore\n        /* \"#utility.yul\":4377:4395   */\n      0x44\n      dup3\n      add\n        /* \"#utility.yul\":4370:4404   */\n      mstore\n        /* \"#utility.yul\":4210:4228   */\n      0x64\n      add\n        /* \"contracts/Arcade.sol\":7065:7210  acceptedArcadeTokens[(gameData[game_id].arcade_token)].native_token.transferFrom(_msgSender(), address(this), gameData[game_id].registration_fee) */\n      0x20\n      mload(0x40)\n      dup1\n      dup4\n      sub\n      dup2\n      0x00\n      dup8\n      dup1\n      extcodesize\n      iszero\n      dup1\n      iszero\n      tag_350\n      jumpi\n      0x00\n      dup1\n      revert\n    tag_350:\n      pop\n      gas\n      call\n      iszero\n      dup1\n      iszero\n      tag_352\n      jumpi\n      returndatasize\n      0x00\n      dup1\n      returndatacopy\n      revert(0x00, returndatasize)\n    tag_352:\n      pop\n      pop\n      pop\n      pop\n      mload(0x40)\n      returndatasize\n      not(0x1f)\n      0x1f\n      dup3\n      add\n      and\n      dup3\n      add\n      dup1\n      0x40\n      mstore\n      pop\n      dup2\n      add\n      swap1\n      tag_353\n      swap2\n      swap1\n      tag_204\n      jump\t// in\n    tag_353:\n        /* \"contracts/Arcade.sol\":7057:7265  require(acceptedArcadeTokens[(gameData[game_id].arcade_token)].native_token.transferFrom(_msgSender(), address(this), gameData[game_id].registration_fee), \"Trophy King Arcade: Must approve registration fee.\") */\n      tag_354\n      jumpi\n      mload(0x40)\n      shl(0xe5, 0x461bcd)\n      dup2\n      mstore\n        /* \"#utility.yul\":8438:8440   */\n      0x20\n        /* \"contracts/Arcade.sol\":7057:7265  require(acceptedArcadeTokens[(gameData[game_id].arcade_token)].native_token.transferFrom(_msgSender(), address(this), gameData[game_id].registration_fee), \"Trophy King Arcade: Must approve registration fee.\") */\n      0x04\n      dup3\n      add\n        /* \"#utility.yul\":8420:8441   */\n      mstore\n        /* \"#utility.yul\":8477:8479   */\n      0x32\n        /* \"#utility.yul\":8457:8475   */\n      0x24\n      dup3\n      add\n        /* \"#utility.yul\":8450:8480   */\n      mstore\n        /* \"#utility.yul\":8516:8550   */\n      0x54726f706879204b696e67204172636164653a204d75737420617070726f7665\n        /* \"#utility.yul\":8496:8514   */\n      0x44\n      dup3\n      add\n        /* \"#utility.yul\":8489:8551   */\n      mstore\n      shl(0x71, 0x103932b3b4b9ba3930ba34b7b7103332b297)\n        /* \"#utility.yul\":8567:8585   */\n      0x64\n      dup3\n      add\n        /* \"#utility.yul\":8560:8608   */\n      mstore\n        /* \"#utility.yul\":8625:8644   */\n      0x84\n      add\n        /* \"contracts/Arcade.sol\":7057:7265  require(acceptedArcadeTokens[(gameData[game_id].arcade_token)].native_token.transferFrom(_msgSender(), address(this), gameData[game_id].registration_fee), \"Trophy King Arcade: Must approve registration fee.\") */\n      tag_230\n        /* \"#utility.yul\":8410:8650   */\n      jump\n        /* \"contracts/Arcade.sol\":7057:7265  require(acceptedArcadeTokens[(gameData[game_id].arcade_token)].native_token.transferFrom(_msgSender(), address(this), gameData[game_id].registration_fee), \"Trophy King Arcade: Must approve registration fee.\") */\n    tag_354:\n        /* \"contracts/Arcade.sol\":7307:7324  gameData[game_id] */\n      0x00\n      dup2\n      dup2\n      mstore\n        /* \"contracts/Arcade.sol\":7307:7315  gameData */\n      0x02\n        /* \"contracts/Arcade.sol\":7307:7324  gameData[game_id] */\n      0x20\n      mstore\n      0x40\n      swap1\n      keccak256\n        /* \"contracts/Arcade.sol\":7307:7341  gameData[game_id].registration_fee */\n      0x03\n      add\n      sload\n        /* \"contracts/Arcade.sol\":7276:7342  _register(game_id, msg.sender, gameData[game_id].registration_fee) */\n      tag_357\n      swap1\n        /* \"contracts/Arcade.sol\":7286:7293  game_id */\n      dup3\n      swap1\n        /* \"contracts/Arcade.sol\":7295:7305  msg.sender */\n      caller\n      swap1\n        /* \"contracts/Arcade.sol\":7276:7285  _register */\n      tag_299\n        /* \"contracts/Arcade.sol\":7276:7342  _register(game_id, msg.sender, gameData[game_id].registration_fee) */\n      jump\t// in\n    tag_357:\n        /* \"contracts/Arcade.sol\":6504:7349  function register(uint256 game_id) public {... */\n      pop\n      jump\t// out\n        /* \"contracts/Arcade.sol\":3561:4104  function createGame(uint256 game_id, uint256 registration_fee, address arcade_token, uint256 player_limit, bool exchange) public onlyRole(DEFAULT_ADMIN_ROLE) {... */\n    tag_179:\n        /* \"@openzeppelin/contracts@4.6.0/access/AccessControl.sol\":2072:2076  0x00 */\n      0x00\n        /* \"@openzeppelin/contracts@4.6.0/access/AccessControl.sol\":2505:2521  _checkRole(role) */\n      tag_359\n        /* \"@openzeppelin/contracts@4.6.0/access/AccessControl.sol\":2072:2076  0x00 */\n      dup2\n        /* \"@openzeppelin/contracts@4.6.0/access/AccessControl.sol\":2505:2515  _checkRole */\n      tag_186\n        /* \"@openzeppelin/contracts@4.6.0/access/AccessControl.sol\":2505:2521  _checkRole(role) */\n      jump\t// in\n    tag_359:\n        /* \"contracts/Arcade.sol\":3729:3746  gameData[game_id] */\n      0x00\n      dup7\n      dup2\n      mstore\n        /* \"contracts/Arcade.sol\":3729:3737  gameData */\n      0x02\n        /* \"contracts/Arcade.sol\":3729:3746  gameData[game_id] */\n      0x20\n      dup2\n      dup2\n      mstore\n      0x40\n      dup1\n      dup5\n      keccak256\n        /* \"contracts/Arcade.sol\":3756:3757  1 */\n      0x01\n        /* \"contracts/Arcade.sol\":3729:3753  gameData[game_id].status */\n      0x04\n      dup3\n      add\n        /* \"contracts/Arcade.sol\":3729:3757  gameData[game_id].status = 1 */\n      dup2\n      swap1\n      sstore\n        /* \"contracts/Arcade.sol\":3767:3794  gameData[game_id].total_fee */\n      0x06\n      dup3\n      add\n        /* \"contracts/Arcade.sol\":3767:3798  gameData[game_id].total_fee = 0 */\n      dup7\n      swap1\n      sstore\n        /* \"contracts/Arcade.sol\":3808:3842  gameData[game_id].registration_fee */\n      0x03\n      dup3\n      add\n        /* \"contracts/Arcade.sol\":3808:3861  gameData[game_id].registration_fee = registration_fee */\n      dup12\n      swap1\n      sstore\n        /* \"contracts/Arcade.sol\":3871:3901  gameData[game_id].arcade_token */\n      0x05\n      dup3\n      add\n        /* \"contracts/Arcade.sol\":3871:3916  gameData[game_id].arcade_token = arcade_token */\n      dup1\n      sload\n      not(sub(shl(0xa0, 0x01), 0x01))\n      and\n      sub(shl(0xa0, 0x01), 0x01)\n      dup13\n      and\n      or\n      swap1\n      sstore\n        /* \"contracts/Arcade.sol\":3926:3956  gameData[game_id].player_count */\n      dup2\n      add\n        /* \"contracts/Arcade.sol\":3926:3960  gameData[game_id].player_count = 0 */\n      swap5\n      swap1\n      swap5\n      sstore\n        /* \"contracts/Arcade.sol\":3970:4000  gameData[game_id].player_limit */\n      swap2\n      dup4\n      add\n        /* \"contracts/Arcade.sol\":3970:4015  gameData[game_id].player_limit = player_limit */\n      dup7\n      swap1\n      sstore\n        /* \"contracts/Arcade.sol\":4025:4062  gameData[game_id].exchange = exchange */\n      dup3\n      sload\n      not(0xff)\n      and\n      dup6\n      iszero\n      iszero\n      or\n      swap1\n      swap3\n      sstore\n        /* \"contracts/Arcade.sol\":4078:4097  CreateGame(game_id) */\n      mload\n        /* \"#utility.yul\":6307:6332   */\n      dup8\n      dup2\n      mstore\n        /* \"contracts/Arcade.sol\":4078:4097  CreateGame(game_id) */\n      0x9e5237c6a8bb45df74799cf138ebda4fed0574bed906da41387acdc4a3cbe3d8\n      swap2\n        /* \"#utility.yul\":6280:6298   */\n      add\n        /* \"contracts/Arcade.sol\":4078:4097  CreateGame(game_id) */\n      mload(0x40)\n      dup1\n      swap2\n      sub\n      swap1\n      log1\n        /* \"contracts/Arcade.sol\":3561:4104  function createGame(uint256 game_id, uint256 registration_fee, address arcade_token, uint256 player_limit, bool exchange) public onlyRole(DEFAULT_ADMIN_ROLE) {... */\n      pop\n      pop\n      pop\n      pop\n      pop\n      pop\n      jump\t// out\n        /* \"contracts/Arcade.sol\":8814:8932  function setMarketMaker(address incoming) public onlyRole(DEFAULT_ADMIN_ROLE) {... */\n    tag_183:\n        /* \"@openzeppelin/contracts@4.6.0/access/AccessControl.sol\":2072:2076  0x00 */\n      0x00\n        /* \"@openzeppelin/contracts@4.6.0/access/AccessControl.sol\":2505:2521  _checkRole(role) */\n      tag_363\n        /* \"@openzeppelin/contracts@4.6.0/access/AccessControl.sol\":2072:2076  0x00 */\n      dup2\n        /* \"@openzeppelin/contracts@4.6.0/access/AccessControl.sol\":2505:2515  _checkRole */\n      tag_186\n        /* \"@openzeppelin/contracts@4.6.0/access/AccessControl.sol\":2505:2521  _checkRole(role) */\n      jump\t// in\n    tag_363:\n      pop\n        /* \"contracts/Arcade.sol\":8902:8914  market_maker */\n      0x06\n        /* \"contracts/Arcade.sol\":8902:8925  market_maker = incoming */\n      dup1\n      sload\n      not(sub(shl(0xa0, 0x01), 0x01))\n      and\n      sub(shl(0xa0, 0x01), 0x01)\n      swap3\n      swap1\n      swap3\n      and\n      swap2\n      swap1\n      swap2\n      or\n      swap1\n      sstore\n        /* \"contracts/Arcade.sol\":8814:8932  function setMarketMaker(address incoming) public onlyRole(DEFAULT_ADMIN_ROLE) {... */\n      jump\t// out\n        /* \"@openzeppelin/contracts@4.6.0/access/AccessControl.sol\":3334:3437  function _checkRole(bytes32 role) internal view virtual {... */\n    tag_186:\n        /* \"@openzeppelin/contracts@4.6.0/access/AccessControl.sol\":3400:3430  _checkRole(role, _msgSender()) */\n      tag_357\n        /* \"@openzeppelin/contracts@4.6.0/access/AccessControl.sol\":3411:3415  role */\n      dup2\n        /* \"@openzeppelin/contracts@4.6.0/utils/Context.sol\":719:729  msg.sender */\n      caller\n        /* \"@openzeppelin/contracts@4.6.0/access/AccessControl.sol\":3400:3410  _checkRole */\n      tag_368\n        /* \"@openzeppelin/contracts@4.6.0/access/AccessControl.sol\":3400:3430  _checkRole(role, _msgSender()) */\n      jump\t// in\n        /* \"@openzeppelin/contracts@4.6.0/access/AccessControl.sol\":7244:7477  function _grantRole(bytes32 role, address account) internal virtual {... */\n    tag_226:\n        /* \"@openzeppelin/contracts@4.6.0/access/AccessControl.sol\":7327:7349  hasRole(role, account) */\n      tag_372\n        /* \"@openzeppelin/contracts@4.6.0/access/AccessControl.sol\":7335:7339  role */\n      dup3\n        /* \"@openzeppelin/contracts@4.6.0/access/AccessControl.sol\":7341:7348  account */\n      dup3\n        /* \"@openzeppelin/contracts@4.6.0/access/AccessControl.sol\":7327:7334  hasRole */\n      tag_125\n        /* \"@openzeppelin/contracts@4.6.0/access/AccessControl.sol\":7327:7349  hasRole(role, account) */\n      jump\t// in\n    tag_372:\n        /* \"@openzeppelin/contracts@4.6.0/access/AccessControl.sol\":7322:7471  if (!hasRole(role, account)) {... */\n      tag_232\n      jumpi\n        /* \"@openzeppelin/contracts@4.6.0/access/AccessControl.sol\":7365:7371  _roles */\n      0x00\n        /* \"@openzeppelin/contracts@4.6.0/access/AccessControl.sol\":7365:7377  _roles[role] */\n      dup3\n      dup2\n      mstore\n      0x20\n      dup2\n      dup2\n      mstore\n      0x40\n      dup1\n      dup4\n      keccak256\n      sub(shl(0xa0, 0x01), 0x01)\n        /* \"@openzeppelin/contracts@4.6.0/access/AccessControl.sol\":7365:7394  _roles[role].members[account] */\n      dup6\n      and\n      dup5\n      mstore\n      swap1\n      swap2\n      mstore\n      swap1\n      keccak256\n        /* \"@openzeppelin/contracts@4.6.0/access/AccessControl.sol\":7365:7401  _roles[role].members[account] = true */\n      dup1\n      sload\n      not(0xff)\n      and\n        /* \"@openzeppelin/contracts@4.6.0/access/AccessControl.sol\":7397:7401  true */\n      0x01\n        /* \"@openzeppelin/contracts@4.6.0/access/AccessControl.sol\":7365:7401  _roles[role].members[account] = true */\n      or\n      swap1\n      sstore\n        /* \"@openzeppelin/contracts@4.6.0/access/AccessControl.sol\":7447:7459  _msgSender() */\n      tag_374\n        /* \"@openzeppelin/contracts@4.6.0/utils/Context.sol\":719:729  msg.sender */\n      caller\n      swap1\n        /* \"@openzeppelin/contracts@4.6.0/utils/Context.sol\":640:736  function _msgSender() internal view virtual returns (address) {... */\n      jump\n        /* \"@openzeppelin/contracts@4.6.0/access/AccessControl.sol\":7447:7459  _msgSender() */\n    tag_374:\n      sub(shl(0xa0, 0x01), 0x01)\n        /* \"@openzeppelin/contracts@4.6.0/access/AccessControl.sol\":7420:7460  RoleGranted(role, account, _msgSender()) */\n      and\n        /* \"@openzeppelin/contracts@4.6.0/access/AccessControl.sol\":7438:7445  account */\n      dup2\n      sub(shl(0xa0, 0x01), 0x01)\n        /* \"@openzeppelin/contracts@4.6.0/access/AccessControl.sol\":7420:7460  RoleGranted(role, account, _msgSender()) */\n      and\n        /* \"@openzeppelin/contracts@4.6.0/access/AccessControl.sol\":7432:7436  role */\n      dup4\n        /* \"@openzeppelin/contracts@4.6.0/access/AccessControl.sol\":7420:7460  RoleGranted(role, account, _msgSender()) */\n      0x2f8788117e7eff1d82e926ec794901d17c78024a50270940304540a733656f0d\n      mload(0x40)\n      mload(0x40)\n      dup1\n      swap2\n      sub\n      swap1\n      log4\n        /* \"@openzeppelin/contracts@4.6.0/access/AccessControl.sol\":7244:7477  function _grantRole(bytes32 role, address account) internal virtual {... */\n      pop\n      pop\n      jump\t// out\n        /* \"@openzeppelin/contracts@4.6.0/access/AccessControl.sol\":7602:7836  function _revokeRole(bytes32 role, address account) internal virtual {... */\n    tag_233:\n        /* \"@openzeppelin/contracts@4.6.0/access/AccessControl.sol\":7685:7707  hasRole(role, account) */\n      tag_376\n        /* \"@openzeppelin/contracts@4.6.0/access/AccessControl.sol\":7693:7697  role */\n      dup3\n        /* \"@openzeppelin/contracts@4.6.0/access/AccessControl.sol\":7699:7706  account */\n      dup3\n        /* \"@openzeppelin/contracts@4.6.0/access/AccessControl.sol\":7685:7692  hasRole */\n      tag_125\n        /* \"@openzeppelin/contracts@4.6.0/access/AccessControl.sol\":7685:7707  hasRole(role, account) */\n      jump\t// in\n    tag_376:\n        /* \"@openzeppelin/contracts@4.6.0/access/AccessControl.sol\":7681:7830  if (hasRole(role, account)) {... */\n      iszero\n      tag_232\n      jumpi\n        /* \"@openzeppelin/contracts@4.6.0/access/AccessControl.sol\":7755:7760  false */\n      0x00\n        /* \"@openzeppelin/contracts@4.6.0/access/AccessControl.sol\":7723:7735  _roles[role] */\n      dup3\n      dup2\n      mstore\n      0x20\n      dup2\n      dup2\n      mstore\n      0x40\n      dup1\n      dup4\n      keccak256\n      sub(shl(0xa0, 0x01), 0x01)\n        /* \"@openzeppelin/contracts@4.6.0/access/AccessControl.sol\":7723:7752  _roles[role].members[account] */\n      dup6\n      and\n      dup1\n      dup6\n      mstore\n      swap3\n      mstore\n      dup1\n      dup4\n      keccak256\n        /* \"@openzeppelin/contracts@4.6.0/access/AccessControl.sol\":7723:7760  _roles[role].members[account] = false */\n      dup1\n      sload\n      not(0xff)\n      and\n      swap1\n      sstore\n        /* \"@openzeppelin/contracts@4.6.0/access/AccessControl.sol\":7779:7819  RoleRevoked(role, account, _msgSender()) */\n      mload\n        /* \"@openzeppelin/contracts@4.6.0/utils/Context.sol\":719:729  msg.sender */\n      caller\n      swap3\n        /* \"@openzeppelin/contracts@4.6.0/access/AccessControl.sol\":7723:7735  _roles[role] */\n      dup6\n      swap2\n        /* \"@openzeppelin/contracts@4.6.0/access/AccessControl.sol\":7779:7819  RoleRevoked(role, account, _msgSender()) */\n      0xf6391f5c32d9c69d2a47ea670b442974b53935d1edc7fd64eb21e047a839171b\n      swap2\n        /* \"@openzeppelin/contracts@4.6.0/access/AccessControl.sol\":7755:7760  false */\n      swap1\n        /* \"@openzeppelin/contracts@4.6.0/access/AccessControl.sol\":7779:7819  RoleRevoked(role, account, _msgSender()) */\n      log4\n        /* \"@openzeppelin/contracts@4.6.0/access/AccessControl.sol\":7602:7836  function _revokeRole(bytes32 role, address account) internal virtual {... */\n      pop\n      pop\n      jump\t// out\n        /* \"contracts/Arcade.sol\":6097:6432  function _register(uint256 game_id, address player_address, uint256 amount) internal {... */\n    tag_299:\n        /* \"contracts/Arcade.sol\":6192:6211  GameInfo storage gi */\n      0x00\n        /* \"contracts/Arcade.sol\":6214:6231  gameData[game_id] */\n      dup4\n      dup2\n      mstore\n        /* \"contracts/Arcade.sol\":6214:6222  gameData */\n      0x02\n        /* \"contracts/Arcade.sol\":6214:6231  gameData[game_id] */\n      0x20\n      mstore\n      0x40\n      dup2\n      keccak256\n        /* \"contracts/Arcade.sol\":6261:6262  1 */\n      0x01\n        /* \"contracts/Arcade.sol\":6242:6257  gi.player_count */\n      dup1\n      dup3\n      add\n        /* \"contracts/Arcade.sol\":6242:6262  gi.player_count += 1 */\n      dup1\n      sload\n        /* \"contracts/Arcade.sol\":6214:6231  gameData[game_id] */\n      swap3\n      swap4\n        /* \"contracts/Arcade.sol\":6261:6262  1 */\n      swap2\n      swap3\n        /* \"contracts/Arcade.sol\":6242:6257  gi.player_count */\n      swap1\n      swap2\n        /* \"contracts/Arcade.sol\":6192:6211  GameInfo storage gi */\n      swap1\n        /* \"contracts/Arcade.sol\":6242:6262  gi.player_count += 1 */\n      tag_380\n      swap1\n        /* \"contracts/Arcade.sol\":6261:6262  1 */\n      dup5\n      swap1\n        /* \"contracts/Arcade.sol\":6242:6262  gi.player_count += 1 */\n      tag_381\n      jump\t// in\n    tag_380:\n      swap1\n      swap2\n      sstore\n      pop\n      pop\n      sub(shl(0xa0, 0x01), 0x01)\n        /* \"contracts/Arcade.sol\":6272:6294  gi.fee[player_address] */\n      dup4\n      and\n      0x00\n      swap1\n      dup2\n      mstore\n        /* \"contracts/Arcade.sol\":6272:6278  gi.fee */\n      0x07\n      dup3\n      add\n        /* \"contracts/Arcade.sol\":6272:6294  gi.fee[player_address] */\n      0x20\n      swap1\n      dup2\n      mstore\n      0x40\n      dup1\n      dup4\n      keccak256\n        /* \"contracts/Arcade.sol\":6272:6303  gi.fee[player_address] = amount */\n      dup6\n      swap1\n      sstore\n        /* \"contracts/Arcade.sol\":6313:6320  gi.paid */\n      0x08\n      dup5\n      add\n        /* \"contracts/Arcade.sol\":6313:6336  gi.paid[player_address] */\n      swap1\n      swap2\n      mstore\n      dup2\n      keccak256\n        /* \"contracts/Arcade.sol\":6339:6340  1 */\n      0x01\n        /* \"contracts/Arcade.sol\":6313:6340  gi.paid[player_address] = 1 */\n      swap1\n      sstore\n        /* \"contracts/Arcade.sol\":6350:6362  gi.total_fee */\n      0x06\n      dup3\n      add\n        /* \"contracts/Arcade.sol\":6350:6372  gi.total_fee += amount */\n      dup1\n      sload\n        /* \"contracts/Arcade.sol\":6297:6303  amount */\n      dup5\n      swap3\n        /* \"contracts/Arcade.sol\":6272:6294  gi.fee[player_address] */\n      swap1\n        /* \"contracts/Arcade.sol\":6350:6372  gi.total_fee += amount */\n      tag_382\n      swap1\n        /* \"contracts/Arcade.sol\":6297:6303  amount */\n      dup5\n      swap1\n        /* \"contracts/Arcade.sol\":6350:6372  gi.total_fee += amount */\n      tag_381\n      jump\t// in\n    tag_382:\n      swap1\n      swap2\n      sstore\n      pop\n      pop\n        /* \"contracts/Arcade.sol\":6396:6425  Register(msg.sender, game_id) */\n      mload(0x40)\n        /* \"#utility.yul\":6307:6332   */\n      dup5\n      dup2\n      mstore\n        /* \"contracts/Arcade.sol\":6405:6415  msg.sender */\n      caller\n      swap1\n        /* \"contracts/Arcade.sol\":6396:6425  Register(msg.sender, game_id) */\n      0x7dc6ab80cc84c043b7b8d4fcafc802187470087f7ea7fccd2e17aecd0256a1\n      swap1\n        /* \"#utility.yul\":6295:6297   */\n      0x20\n        /* \"#utility.yul\":6280:6298   */\n      add\n        /* \"contracts/Arcade.sol\":6396:6425  Register(msg.sender, game_id) */\n      mload(0x40)\n      dup1\n      swap2\n      sub\n      swap1\n      log2\n        /* \"contracts/Arcade.sol\":6097:6432  function _register(uint256 game_id, address player_address, uint256 amount) internal {... */\n      pop\n      pop\n      pop\n      pop\n      jump\t// out\n        /* \"@openzeppelin/contracts@4.6.0/access/AccessControl.sol\":3718:4210  function _checkRole(bytes32 role, address account) internal view virtual {... */\n    tag_368:\n        /* \"@openzeppelin/contracts@4.6.0/access/AccessControl.sol\":3806:3828  hasRole(role, account) */\n      tag_385\n        /* \"@openzeppelin/contracts@4.6.0/access/AccessControl.sol\":3814:3818  role */\n      dup3\n        /* \"@openzeppelin/contracts@4.6.0/access/AccessControl.sol\":3820:3827  account */\n      dup3\n        /* \"@openzeppelin/contracts@4.6.0/access/AccessControl.sol\":3806:3813  hasRole */\n      tag_125\n        /* \"@openzeppelin/contracts@4.6.0/access/AccessControl.sol\":3806:3828  hasRole(role, account) */\n      jump\t// in\n    tag_385:\n        /* \"@openzeppelin/contracts@4.6.0/access/AccessControl.sol\":3801:4204  if (!hasRole(role, account)) {... */\n      tag_232\n      jumpi\n        /* \"@openzeppelin/contracts@4.6.0/access/AccessControl.sol\":3989:4030  Strings.toHexString(uint160(account), 20) */\n      tag_387\n        /* \"@openzeppelin/contracts@4.6.0/access/AccessControl.sol\":4017:4024  account */\n      dup2\n      sub(shl(0xa0, 0x01), 0x01)\n        /* \"@openzeppelin/contracts@4.6.0/access/AccessControl.sol\":3989:4030  Strings.toHexString(uint160(account), 20) */\n      and\n        /* \"@openzeppelin/contracts@4.6.0/access/AccessControl.sol\":4027:4029  20 */\n      0x14\n        /* \"@openzeppelin/contracts@4.6.0/access/AccessControl.sol\":3989:4008  Strings.toHexString */\n      tag_388\n        /* \"@openzeppelin/contracts@4.6.0/access/AccessControl.sol\":3989:4030  Strings.toHexString(uint160(account), 20) */\n      jump\t// in\n    tag_387:\n        /* \"@openzeppelin/contracts@4.6.0/access/AccessControl.sol\":4101:4139  Strings.toHexString(uint256(role), 32) */\n      tag_389\n        /* \"@openzeppelin/contracts@4.6.0/access/AccessControl.sol\":4129:4133  role */\n      dup4\n        /* \"@openzeppelin/contracts@4.6.0/access/AccessControl.sol\":4136:4138  32 */\n      0x20\n        /* \"@openzeppelin/contracts@4.6.0/access/AccessControl.sol\":4101:4120  Strings.toHexString */\n      tag_388\n        /* \"@openzeppelin/contracts@4.6.0/access/AccessControl.sol\":4101:4139  Strings.toHexString(uint256(role), 32) */\n      jump\t// in\n    tag_389:\n        /* \"@openzeppelin/contracts@4.6.0/access/AccessControl.sol\":3896:4161  abi.encodePacked(... */\n      add(0x20, mload(0x40))\n      tag_390\n      swap3\n      swap2\n      swap1\n      tag_391\n      jump\t// in\n    tag_390:\n      0x40\n      dup1\n      mload\n      not(0x1f)\n      dup2\n      dup5\n      sub\n      add\n      dup2\n      mstore\n      swap1\n      dup3\n      swap1\n      mstore\n      shl(0xe5, 0x461bcd)\n        /* \"@openzeppelin/contracts@4.6.0/access/AccessControl.sol\":3844:4193  revert(... */\n      dup3\n      mstore\n      tag_230\n      swap2\n      0x04\n      add\n      tag_393\n      jump\t// in\n        /* \"@openzeppelin/contracts@4.6.0/utils/Strings.sol\":1588:2029  function toHexString(uint256 value, uint256 length) internal pure returns (string memory) {... */\n    tag_388:\n        /* \"@openzeppelin/contracts@4.6.0/utils/Strings.sol\":1663:1676  string memory */\n      0x60\n        /* \"@openzeppelin/contracts@4.6.0/utils/Strings.sol\":1688:1707  bytes memory buffer */\n      0x00\n        /* \"@openzeppelin/contracts@4.6.0/utils/Strings.sol\":1720:1730  2 * length */\n      tag_395\n        /* \"@openzeppelin/contracts@4.6.0/utils/Strings.sol\":1724:1730  length */\n      dup4\n        /* \"@openzeppelin/contracts@4.6.0/utils/Strings.sol\":1720:1721  2 */\n      0x02\n        /* \"@openzeppelin/contracts@4.6.0/utils/Strings.sol\":1720:1730  2 * length */\n      tag_309\n      jump\t// in\n    tag_395:\n        /* \"@openzeppelin/contracts@4.6.0/utils/Strings.sol\":1720:1734  2 * length + 2 */\n      tag_396\n      swap1\n        /* \"@openzeppelin/contracts@4.6.0/utils/Strings.sol\":1733:1734  2 */\n      0x02\n        /* \"@openzeppelin/contracts@4.6.0/utils/Strings.sol\":1720:1734  2 * length + 2 */\n      tag_381\n      jump\t// in\n    tag_396:\n        /* \"@openzeppelin/contracts@4.6.0/utils/Strings.sol\":1710:1735  new bytes(2 * length + 2) */\n      0xffffffffffffffff\n      dup2\n      gt\n      iszero\n      tag_397\n      jumpi\n      mstore(0x00, shl(0xe0, 0x4e487b71))\n      mstore(0x04, 0x41)\n      revert(0x00, 0x24)\n    tag_397:\n      mload(0x40)\n      swap1\n      dup1\n      dup3\n      mstore\n      dup1\n      0x1f\n      add\n      not(0x1f)\n      and\n      0x20\n      add\n      dup3\n      add\n      0x40\n      mstore\n      dup1\n      iszero\n      tag_398\n      jumpi\n      0x20\n      dup3\n      add\n      dup2\n      dup1\n      calldatasize\n      dup4\n      calldatacopy\n      add\n      swap1\n      pop\n    tag_398:\n      pop\n        /* \"@openzeppelin/contracts@4.6.0/utils/Strings.sol\":1688:1735  bytes memory buffer = new bytes(2 * length + 2) */\n      swap1\n      pop\n      shl(0xfc, 0x03)\n        /* \"@openzeppelin/contracts@4.6.0/utils/Strings.sol\":1745:1751  buffer */\n      dup2\n        /* \"@openzeppelin/contracts@4.6.0/utils/Strings.sol\":1752:1753  0 */\n      0x00\n        /* \"@openzeppelin/contracts@4.6.0/utils/Strings.sol\":1745:1754  buffer[0] */\n      dup2\n      mload\n      dup2\n      lt\n      tag_399\n      jumpi\n      mstore(0x00, shl(0xe0, 0x4e487b71))\n      mstore(0x04, 0x32)\n      revert(0x00, 0x24)\n    tag_399:\n      0x20\n      add\n      add\n        /* \"@openzeppelin/contracts@4.6.0/utils/Strings.sol\":1745:1760  buffer[0] = \"0\" */\n      swap1\n      not(sub(shl(0xf8, 0x01), 0x01))\n      and\n      swap1\n      dup2\n      0x00\n      byte\n      swap1\n      mstore8\n      pop\n      shl(0xfb, 0x0f)\n        /* \"@openzeppelin/contracts@4.6.0/utils/Strings.sol\":1770:1776  buffer */\n      dup2\n        /* \"@openzeppelin/contracts@4.6.0/utils/Strings.sol\":1777:1778  1 */\n      0x01\n        /* \"@openzeppelin/contracts@4.6.0/utils/Strings.sol\":1770:1779  buffer[1] */\n      dup2\n      mload\n      dup2\n      lt\n      tag_400\n      jumpi\n      mstore(0x00, shl(0xe0, 0x4e487b71))\n      mstore(0x04, 0x32)\n      revert(0x00, 0x24)\n    tag_400:\n      0x20\n      add\n      add\n        /* \"@openzeppelin/contracts@4.6.0/utils/Strings.sol\":1770:1785  buffer[1] = \"x\" */\n      swap1\n      not(sub(shl(0xf8, 0x01), 0x01))\n      and\n      swap1\n      dup2\n      0x00\n      byte\n      swap1\n      mstore8\n      pop\n        /* \"@openzeppelin/contracts@4.6.0/utils/Strings.sol\":1800:1809  uint256 i */\n      0x00\n        /* \"@openzeppelin/contracts@4.6.0/utils/Strings.sol\":1812:1822  2 * length */\n      tag_404\n        /* \"@openzeppelin/contracts@4.6.0/utils/Strings.sol\":1816:1822  length */\n      dup5\n        /* \"@openzeppelin/contracts@4.6.0/utils/Strings.sol\":1812:1813  2 */\n      0x02\n        /* \"@openzeppelin/contracts@4.6.0/utils/Strings.sol\":1812:1822  2 * length */\n      tag_309\n      jump\t// in\n    tag_404:\n        /* \"@openzeppelin/contracts@4.6.0/utils/Strings.sol\":1812:1826  2 * length + 1 */\n      tag_405\n      swap1\n        /* \"@openzeppelin/contracts@4.6.0/utils/Strings.sol\":1825:1826  1 */\n      0x01\n        /* \"@openzeppelin/contracts@4.6.0/utils/Strings.sol\":1812:1826  2 * length + 1 */\n      tag_381\n      jump\t// in\n    tag_405:\n        /* \"@openzeppelin/contracts@4.6.0/utils/Strings.sol\":1800:1826  uint256 i = 2 * length + 1 */\n      swap1\n      pop\n        /* \"@openzeppelin/contracts@4.6.0/utils/Strings.sol\":1795:1927  for (uint256 i = 2 * length + 1; i > 1; --i) {... */\n    tag_401:\n        /* \"@openzeppelin/contracts@4.6.0/utils/Strings.sol\":1832:1833  1 */\n      0x01\n        /* \"@openzeppelin/contracts@4.6.0/utils/Strings.sol\":1828:1829  i */\n      dup2\n        /* \"@openzeppelin/contracts@4.6.0/utils/Strings.sol\":1828:1833  i > 1 */\n      gt\n        /* \"@openzeppelin/contracts@4.6.0/utils/Strings.sol\":1795:1927  for (uint256 i = 2 * length + 1; i > 1; --i) {... */\n      iszero\n      tag_402\n      jumpi\n      shl(0x81, 0x181899199a1a9b1b9c1cb0b131b232b3)\n        /* \"@openzeppelin/contracts@4.6.0/utils/Strings.sol\":1879:1884  value */\n      dup6\n        /* \"@openzeppelin/contracts@4.6.0/utils/Strings.sol\":1887:1890  0xf */\n      0x0f\n        /* \"@openzeppelin/contracts@4.6.0/utils/Strings.sol\":1879:1890  value & 0xf */\n      and\n        /* \"@openzeppelin/contracts@4.6.0/utils/Strings.sol\":1866:1891  _HEX_SYMBOLS[value & 0xf] */\n      0x10\n      dup2\n      lt\n      tag_406\n      jumpi\n      mstore(0x00, shl(0xe0, 0x4e487b71))\n      mstore(0x04, 0x32)\n      revert(0x00, 0x24)\n    tag_406:\n      byte\n      0xf8\n      shl\n        /* \"@openzeppelin/contracts@4.6.0/utils/Strings.sol\":1854:1860  buffer */\n      dup3\n        /* \"@openzeppelin/contracts@4.6.0/utils/Strings.sol\":1861:1862  i */\n      dup3\n        /* \"@openzeppelin/contracts@4.6.0/utils/Strings.sol\":1854:1863  buffer[i] */\n      dup2\n      mload\n      dup2\n      lt\n      tag_407\n      jumpi\n      mstore(0x00, shl(0xe0, 0x4e487b71))\n      mstore(0x04, 0x32)\n      revert(0x00, 0x24)\n    tag_407:\n      0x20\n      add\n      add\n        /* \"@openzeppelin/contracts@4.6.0/utils/Strings.sol\":1854:1891  buffer[i] = _HEX_SYMBOLS[value & 0xf] */\n      swap1\n      not(sub(shl(0xf8, 0x01), 0x01))\n      and\n      swap1\n      dup2\n      0x00\n      byte\n      swap1\n      mstore8\n      pop\n        /* \"@openzeppelin/contracts@4.6.0/utils/Strings.sol\":1915:1916  4 */\n      0x04\n        /* \"@openzeppelin/contracts@4.6.0/utils/Strings.sol\":1905:1916  value >>= 4 */\n      swap5\n      swap1\n      swap5\n      shr\n      swap4\n        /* \"@openzeppelin/contracts@4.6.0/utils/Strings.sol\":1835:1838  --i */\n      tag_408\n      dup2\n      tag_409\n      jump\t// in\n    tag_408:\n      swap1\n      pop\n        /* \"@openzeppelin/contracts@4.6.0/utils/Strings.sol\":1795:1927  for (uint256 i = 2 * length + 1; i > 1; --i) {... */\n      jump(tag_401)\n    tag_402:\n      pop\n        /* \"@openzeppelin/contracts@4.6.0/utils/Strings.sol\":1944:1954  value == 0 */\n      dup4\n      iszero\n        /* \"@openzeppelin/contracts@4.6.0/utils/Strings.sol\":1936:1991  require(value == 0, \"Strings: hex length insufficient\") */\n      tag_410\n      jumpi\n      mload(0x40)\n      shl(0xe5, 0x461bcd)\n      dup2\n      mstore\n        /* \"#utility.yul\":7308:7310   */\n      0x20\n        /* \"@openzeppelin/contracts@4.6.0/utils/Strings.sol\":1936:1991  require(value == 0, \"Strings: hex length insufficient\") */\n      0x04\n      dup3\n      add\n        /* \"#utility.yul\":7290:7311   */\n      dup2\n      swap1\n      mstore\n        /* \"#utility.yul\":7327:7345   */\n      0x24\n      dup3\n      add\n        /* \"#utility.yul\":7320:7350   */\n      mstore\n        /* \"#utility.yul\":7386:7420   */\n      0x537472696e67733a20686578206c656e67746820696e73756666696369656e74\n        /* \"#utility.yul\":7366:7384   */\n      0x44\n      dup3\n      add\n        /* \"#utility.yul\":7359:7421   */\n      mstore\n        /* \"#utility.yul\":7438:7456   */\n      0x64\n      add\n        /* \"@openzeppelin/contracts@4.6.0/utils/Strings.sol\":1936:1991  require(value == 0, \"Strings: hex length insufficient\") */\n      tag_230\n        /* \"#utility.yul\":7280:7462   */\n      jump\n        /* \"@openzeppelin/contracts@4.6.0/utils/Strings.sol\":1936:1991  require(value == 0, \"Strings: hex length insufficient\") */\n    tag_410:\n        /* \"@openzeppelin/contracts@4.6.0/utils/Strings.sol\":2015:2021  buffer */\n      swap4\n        /* \"@openzeppelin/contracts@4.6.0/utils/Strings.sol\":1588:2029  function toHexString(uint256 value, uint256 length) internal pure returns (string memory) {... */\n      swap3\n      pop\n      pop\n      pop\n      jump\t// out\n        /* \"#utility.yul\":14:187   */\n    tag_414:\n        /* \"#utility.yul\":82:102   */\n      dup1\n      calldataload\n      sub(shl(0xa0, 0x01), 0x01)\n        /* \"#utility.yul\":131:162   */\n      dup2\n      and\n        /* \"#utility.yul\":121:163   */\n      dup2\n      eq\n        /* \"#utility.yul\":111:113   */\n      tag_416\n      jumpi\n        /* \"#utility.yul\":177:178   */\n      0x00\n        /* \"#utility.yul\":174:175   */\n      dup1\n        /* \"#utility.yul\":167:179   */\n      revert\n        /* \"#utility.yul\":111:113   */\n    tag_416:\n        /* \"#utility.yul\":63:187   */\n      swap2\n      swap1\n      pop\n      jump\t// out\n        /* \"#utility.yul\":192:388   */\n    tag_98:\n        /* \"#utility.yul\":251:257   */\n      0x00\n        /* \"#utility.yul\":304:306   */\n      0x20\n        /* \"#utility.yul\":292:301   */\n      dup3\n        /* \"#utility.yul\":283:290   */\n      dup5\n        /* \"#utility.yul\":279:302   */\n      sub\n        /* \"#utility.yul\":275:307   */\n      slt\n        /* \"#utility.yul\":272:274   */\n      iszero\n      tag_418\n      jumpi\n        /* \"#utility.yul\":325:331   */\n      dup1\n        /* \"#utility.yul\":317:323   */\n      dup2\n        /* \"#utility.yul\":310:332   */\n      revert\n        /* \"#utility.yul\":272:274   */\n    tag_418:\n        /* \"#utility.yul\":353:382   */\n      tag_410\n        /* \"#utility.yul\":372:381   */\n      dup3\n        /* \"#utility.yul\":353:382   */\n      tag_414\n      jump\t// in\n        /* \"#utility.yul\":393:786   */\n    tag_55:\n        /* \"#utility.yul\":467:473   */\n      0x00\n        /* \"#utility.yul\":475:481   */\n      dup1\n        /* \"#utility.yul\":483:489   */\n      0x00\n        /* \"#utility.yul\":536:538   */\n      0x60\n        /* \"#utility.yul\":524:533   */\n      dup5\n        /* \"#utility.yul\":515:522   */\n      dup7\n        /* \"#utility.yul\":511:534   */\n      sub\n        /* \"#utility.yul\":507:539   */\n      slt\n        /* \"#utility.yul\":504:506   */\n      iszero\n      tag_421\n      jumpi\n        /* \"#utility.yul\":557:563   */\n      dup2\n        /* \"#utility.yul\":549:555   */\n      dup3\n        /* \"#utility.yul\":542:564   */\n      revert\n        /* \"#utility.yul\":504:506   */\n    tag_421:\n        /* \"#utility.yul\":585:614   */\n      tag_422\n        /* \"#utility.yul\":604:613   */\n      dup5\n        /* \"#utility.yul\":585:614   */\n      tag_414\n      jump\t// in\n    tag_422:\n        /* \"#utility.yul\":575:614   */\n      swap3\n      pop\n        /* \"#utility.yul\":661:663   */\n      0x20\n        /* \"#utility.yul\":650:659   */\n      dup5\n        /* \"#utility.yul\":646:664   */\n      add\n        /* \"#utility.yul\":633:665   */\n      calldataload\n        /* \"#utility.yul\":623:665   */\n      swap2\n      pop\n        /* \"#utility.yul\":715:717   */\n      0x40\n        /* \"#utility.yul\":704:713   */\n      dup5\n        /* \"#utility.yul\":700:718   */\n      add\n        /* \"#utility.yul\":687:719   */\n      calldataload\n        /* \"#utility.yul\":728:756   */\n      tag_423\n        /* \"#utility.yul\":750:755   */\n      dup2\n        /* \"#utility.yul\":728:756   */\n      tag_424\n      jump\t// in\n    tag_423:\n        /* \"#utility.yul\":775:780   */\n      dup1\n        /* \"#utility.yul\":765:780   */\n      swap2\n      pop\n      pop\n        /* \"#utility.yul\":494:786   */\n      swap3\n      pop\n      swap3\n      pop\n      swap3\n      jump\t// out\n        /* \"#utility.yul\":791:1046   */\n    tag_204:\n        /* \"#utility.yul\":858:864   */\n      0x00\n        /* \"#utility.yul\":911:913   */\n      0x20\n        /* \"#utility.yul\":899:908   */\n      dup3\n        /* \"#utility.yul\":890:897   */\n      dup5\n        /* \"#utility.yul\":886:909   */\n      sub\n        /* \"#utility.yul\":882:914   */\n      slt\n        /* \"#utility.yul\":879:881   */\n      iszero\n      tag_426\n      jumpi\n        /* \"#utility.yul\":932:938   */\n      dup1\n        /* \"#utility.yul\":924:930   */\n      dup2\n        /* \"#utility.yul\":917:939   */\n      revert\n        /* \"#utility.yul\":879:881   */\n    tag_426:\n        /* \"#utility.yul\":969:978   */\n      dup2\n        /* \"#utility.yul\":963:979   */\n      mload\n        /* \"#utility.yul\":988:1016   */\n      tag_410\n        /* \"#utility.yul\":1010:1015   */\n      dup2\n        /* \"#utility.yul\":988:1016   */\n      tag_424\n      jump\t// in\n        /* \"#utility.yul\":1051:1241   */\n    tag_64:\n        /* \"#utility.yul\":1110:1116   */\n      0x00\n        /* \"#utility.yul\":1163:1165   */\n      0x20\n        /* \"#utility.yul\":1151:1160   */\n      dup3\n        /* \"#utility.yul\":1142:1149   */\n      dup5\n        /* \"#utility.yul\":1138:1161   */\n      sub\n        /* \"#utility.yul\":1134:1166   */\n      slt\n        /* \"#utility.yul\":1131:1133   */\n      iszero\n      tag_429\n      jumpi\n        /* \"#utility.yul\":1184:1190   */\n      dup1\n        /* \"#utility.yul\":1176:1182   */\n      dup2\n        /* \"#utility.yul\":1169:1191   */\n      revert\n        /* \"#utility.yul\":1131:1133   */\n    tag_429:\n      pop\n        /* \"#utility.yul\":1212:1235   */\n      calldataload\n      swap2\n        /* \"#utility.yul\":1121:1241   */\n      swap1\n      pop\n      jump\t// out\n        /* \"#utility.yul\":1246:1510   */\n    tag_84:\n        /* \"#utility.yul\":1314:1320   */\n      0x00\n        /* \"#utility.yul\":1322:1328   */\n      dup1\n        /* \"#utility.yul\":1375:1377   */\n      0x40\n        /* \"#utility.yul\":1363:1372   */\n      dup4\n        /* \"#utility.yul\":1354:1361   */\n      dup6\n        /* \"#utility.yul\":1350:1373   */\n      sub\n        /* \"#utility.yul\":1346:1378   */\n      slt\n        /* \"#utility.yul\":1343:1345   */\n      iszero\n      tag_431\n      jumpi\n        /* \"#utility.yul\":1396:1402   */\n      dup2\n        /* \"#utility.yul\":1388:1394   */\n      dup3\n        /* \"#utility.yul\":1381:1403   */\n      revert\n        /* \"#utility.yul\":1343:1345   */\n    tag_431:\n        /* \"#utility.yul\":1437:1446   */\n      dup3\n        /* \"#utility.yul\":1424:1447   */\n      calldataload\n        /* \"#utility.yul\":1414:1447   */\n      swap2\n      pop\n        /* \"#utility.yul\":1466:1504   */\n      tag_432\n        /* \"#utility.yul\":1500:1502   */\n      0x20\n        /* \"#utility.yul\":1489:1498   */\n      dup5\n        /* \"#utility.yul\":1485:1503   */\n      add\n        /* \"#utility.yul\":1466:1504   */\n      tag_414\n      jump\t// in\n    tag_432:\n        /* \"#utility.yul\":1456:1504   */\n      swap1\n      pop\n        /* \"#utility.yul\":1333:1510   */\n      swap3\n      pop\n      swap3\n      swap1\n      pop\n      jump\t// out\n        /* \"#utility.yul\":1515:1821   */\n    tag_48:\n        /* \"#utility.yul\":1573:1579   */\n      0x00\n        /* \"#utility.yul\":1626:1628   */\n      0x20\n        /* \"#utility.yul\":1614:1623   */\n      dup3\n        /* \"#utility.yul\":1605:1612   */\n      dup5\n        /* \"#utility.yul\":1601:1624   */\n      sub\n        /* \"#utility.yul\":1597:1629   */\n      slt\n        /* \"#utility.yul\":1594:1596   */\n      iszero\n      tag_434\n      jumpi\n        /* \"#utility.yul\":1647:1653   */\n      dup1\n        /* \"#utility.yul\":1639:1645   */\n      dup2\n        /* \"#utility.yul\":1632:1654   */\n      revert\n        /* \"#utility.yul\":1594:1596   */\n    tag_434:\n        /* \"#utility.yul\":1678:1701   */\n      dup2\n      calldataload\n      not(sub(shl(0xe0, 0x01), 0x01))\n        /* \"#utility.yul\":1730:1762   */\n      dup2\n      and\n        /* \"#utility.yul\":1720:1763   */\n      dup2\n      eq\n        /* \"#utility.yul\":1710:1712   */\n      tag_410\n      jumpi\n        /* \"#utility.yul\":1782:1788   */\n      dup2\n        /* \"#utility.yul\":1774:1780   */\n      dup3\n        /* \"#utility.yul\":1767:1789   */\n      revert\n        /* \"#utility.yul\":2290:2821   */\n    tag_178:\n        /* \"#utility.yul\":2382:2388   */\n      0x00\n        /* \"#utility.yul\":2390:2396   */\n      dup1\n        /* \"#utility.yul\":2398:2404   */\n      0x00\n        /* \"#utility.yul\":2406:2412   */\n      dup1\n        /* \"#utility.yul\":2414:2420   */\n      0x00\n        /* \"#utility.yul\":2467:2470   */\n      0xa0\n        /* \"#utility.yul\":2455:2464   */\n      dup7\n        /* \"#utility.yul\":2446:2453   */\n      dup9\n        /* \"#utility.yul\":2442:2465   */\n      sub\n        /* \"#utility.yul\":2438:2471   */\n      slt\n        /* \"#utility.yul\":2435:2437   */\n      iszero\n      tag_442\n      jumpi\n        /* \"#utility.yul\":2489:2495   */\n      dup1\n        /* \"#utility.yul\":2481:2487   */\n      dup2\n        /* \"#utility.yul\":2474:2496   */\n      revert\n        /* \"#utility.yul\":2435:2437   */\n    tag_442:\n        /* \"#utility.yul\":2530:2539   */\n      dup6\n        /* \"#utility.yul\":2517:2540   */\n      calldataload\n        /* \"#utility.yul\":2507:2540   */\n      swap5\n      pop\n        /* \"#utility.yul\":2587:2589   */\n      0x20\n        /* \"#utility.yul\":2576:2585   */\n      dup7\n        /* \"#utility.yul\":2572:2590   */\n      add\n        /* \"#utility.yul\":2559:2591   */\n      calldataload\n        /* \"#utility.yul\":2549:2591   */\n      swap4\n      pop\n        /* \"#utility.yul\":2610:2648   */\n      tag_443\n        /* \"#utility.yul\":2644:2646   */\n      0x40\n        /* \"#utility.yul\":2633:2642   */\n      dup8\n        /* \"#utility.yul\":2629:2647   */\n      add\n        /* \"#utility.yul\":2610:2648   */\n      tag_414\n      jump\t// in\n    tag_443:\n        /* \"#utility.yul\":2600:2648   */\n      swap3\n      pop\n        /* \"#utility.yul\":2695:2697   */\n      0x60\n        /* \"#utility.yul\":2684:2693   */\n      dup7\n        /* \"#utility.yul\":2680:2698   */\n      add\n        /* \"#utility.yul\":2667:2699   */\n      calldataload\n        /* \"#utility.yul\":2657:2699   */\n      swap2\n      pop\n        /* \"#utility.yul\":2749:2752   */\n      0x80\n        /* \"#utility.yul\":2738:2747   */\n      dup7\n        /* \"#utility.yul\":2734:2753   */\n      add\n        /* \"#utility.yul\":2721:2754   */\n      calldataload\n        /* \"#utility.yul\":2763:2791   */\n      tag_444\n        /* \"#utility.yul\":2785:2790   */\n      dup2\n        /* \"#utility.yul\":2763:2791   */\n      tag_424\n      jump\t// in\n    tag_444:\n        /* \"#utility.yul\":2810:2815   */\n      dup1\n        /* \"#utility.yul\":2800:2815   */\n      swap2\n      pop\n      pop\n        /* \"#utility.yul\":2425:2821   */\n      swap3\n      swap6\n      pop\n      swap3\n      swap6\n      swap1\n      swap4\n      pop\n      jump\t// out\n        /* \"#utility.yul\":3036:3822   */\n    tag_391:\n        /* \"#utility.yul\":3447:3472   */\n      0x416363657373436f6e74726f6c3a206163636f756e7420000000000000000000\n        /* \"#utility.yul\":3442:3445   */\n      dup2\n        /* \"#utility.yul\":3435:3473   */\n      mstore\n        /* \"#utility.yul\":3417:3420   */\n      0x00\n        /* \"#utility.yul\":3502:3508   */\n      dup4\n        /* \"#utility.yul\":3496:3509   */\n      mload\n        /* \"#utility.yul\":3518:3580   */\n      tag_447\n        /* \"#utility.yul\":3573:3579   */\n      dup2\n        /* \"#utility.yul\":3568:3570   */\n      0x17\n        /* \"#utility.yul\":3563:3566   */\n      dup6\n        /* \"#utility.yul\":3559:3571   */\n      add\n        /* \"#utility.yul\":3552:3556   */\n      0x20\n        /* \"#utility.yul\":3544:3550   */\n      dup9\n        /* \"#utility.yul\":3540:3557   */\n      add\n        /* \"#utility.yul\":3518:3580   */\n      tag_448\n      jump\t// in\n    tag_447:\n      shl(0x7d, 0x01034b99036b4b9b9b4b733903937b6329)\n        /* \"#utility.yul\":3639:3641   */\n      0x17\n        /* \"#utility.yul\":3599:3615   */\n      swap2\n      dup5\n      add\n        /* \"#utility.yul\":3631:3642   */\n      swap2\n      dup3\n      add\n        /* \"#utility.yul\":3624:3664   */\n      mstore\n        /* \"#utility.yul\":3689:3702   */\n      dup4\n      mload\n        /* \"#utility.yul\":3711:3774   */\n      tag_449\n        /* \"#utility.yul\":3689:3702   */\n      dup2\n        /* \"#utility.yul\":3760:3762   */\n      0x28\n        /* \"#utility.yul\":3752:3763   */\n      dup5\n      add\n        /* \"#utility.yul\":3745:3749   */\n      0x20\n        /* \"#utility.yul\":3733:3750   */\n      dup9\n      add\n        /* \"#utility.yul\":3711:3774   */\n      tag_448\n      jump\t// in\n    tag_449:\n        /* \"#utility.yul\":3794:3811   */\n      add\n        /* \"#utility.yul\":3813:3815   */\n      0x28\n        /* \"#utility.yul\":3790:3816   */\n      add\n      swap5\n        /* \"#utility.yul\":3425:3822   */\n      swap4\n      pop\n      pop\n      pop\n      pop\n      jump\t// out\n        /* \"#utility.yul\":6718:7101   */\n    tag_393:\n        /* \"#utility.yul\":6867:6869   */\n      0x20\n        /* \"#utility.yul\":6856:6865   */\n      dup2\n        /* \"#utility.yul\":6849:6870   */\n      mstore\n        /* \"#utility.yul\":6830:6834   */\n      0x00\n        /* \"#utility.yul\":6899:6905   */\n      dup3\n        /* \"#utility.yul\":6893:6906   */\n      mload\n        /* \"#utility.yul\":6942:6948   */\n      dup1\n        /* \"#utility.yul\":6937:6939   */\n      0x20\n        /* \"#utility.yul\":6926:6935   */\n      dup5\n        /* \"#utility.yul\":6922:6940   */\n      add\n        /* \"#utility.yul\":6915:6949   */\n      mstore\n        /* \"#utility.yul\":6958:7024   */\n      tag_460\n        /* \"#utility.yul\":7017:7023   */\n      dup2\n        /* \"#utility.yul\":7012:7014   */\n      0x40\n        /* \"#utility.yul\":7001:7010   */\n      dup6\n        /* \"#utility.yul\":6997:7015   */\n      add\n        /* \"#utility.yul\":6992:6994   */\n      0x20\n        /* \"#utility.yul\":6984:6990   */\n      dup8\n        /* \"#utility.yul\":6980:6995   */\n      add\n        /* \"#utility.yul\":6958:7024   */\n      tag_448\n      jump\t// in\n    tag_460:\n        /* \"#utility.yul\":7085:7087   */\n      0x1f\n        /* \"#utility.yul\":7064:7079   */\n      add\n      not(0x1f)\n        /* \"#utility.yul\":7060:7089   */\n      and\n        /* \"#utility.yul\":7045:7090   */\n      swap2\n      swap1\n      swap2\n      add\n        /* \"#utility.yul\":7092:7094   */\n      0x40\n        /* \"#utility.yul\":7041:7095   */\n      add\n      swap3\n        /* \"#utility.yul\":6839:7101   */\n      swap2\n      pop\n      pop\n      jump\t// out\n        /* \"#utility.yul\":7828:8231   */\n    tag_285:\n        /* \"#utility.yul\":8030:8032   */\n      0x20\n        /* \"#utility.yul\":8012:8033   */\n      dup1\n      dup3\n      mstore\n        /* \"#utility.yul\":8069:8071   */\n      0x27\n        /* \"#utility.yul\":8049:8067   */\n      swap1\n      dup3\n      add\n        /* \"#utility.yul\":8042:8072   */\n      mstore\n        /* \"#utility.yul\":8108:8142   */\n      0x54726f706879204b696e67204172636164653a20416c72656164792072656769\n        /* \"#utility.yul\":8103:8105   */\n      0x40\n        /* \"#utility.yul\":8088:8106   */\n      dup3\n      add\n        /* \"#utility.yul\":8081:8143   */\n      mstore\n      shl(0xc9, 0x39ba32b932b217)\n        /* \"#utility.yul\":8174:8176   */\n      0x60\n        /* \"#utility.yul\":8159:8177   */\n      dup3\n      add\n        /* \"#utility.yul\":8152:8189   */\n      mstore\n        /* \"#utility.yul\":8221:8224   */\n      0x80\n        /* \"#utility.yul\":8206:8225   */\n      add\n      swap1\n        /* \"#utility.yul\":8002:8231   */\n      jump\t// out\n        /* \"#utility.yul\":9476:9879   */\n    tag_271:\n        /* \"#utility.yul\":9678:9680   */\n      0x20\n        /* \"#utility.yul\":9660:9681   */\n      dup1\n      dup3\n      mstore\n        /* \"#utility.yul\":9717:9719   */\n      0x27\n        /* \"#utility.yul\":9697:9715   */\n      swap1\n      dup3\n      add\n        /* \"#utility.yul\":9690:9720   */\n      mstore\n        /* \"#utility.yul\":9756:9790   */\n      0x54726f706879204b696e67204172636164653a20556e61626c6520746f207472\n        /* \"#utility.yul\":9751:9753   */\n      0x40\n        /* \"#utility.yul\":9736:9754   */\n      dup3\n      add\n        /* \"#utility.yul\":9729:9791   */\n      mstore\n      shl(0xc9, 0x30b739b332b917)\n        /* \"#utility.yul\":9822:9824   */\n      0x60\n        /* \"#utility.yul\":9807:9825   */\n      dup3\n      add\n        /* \"#utility.yul\":9800:9837   */\n      mstore\n        /* \"#utility.yul\":9869:9872   */\n      0x80\n        /* \"#utility.yul\":9854:9873   */\n      add\n      swap1\n        /* \"#utility.yul\":9650:9879   */\n      jump\t// out\n        /* \"#utility.yul\":10301:10707   */\n    tag_282:\n        /* \"#utility.yul\":10503:10505   */\n      0x20\n        /* \"#utility.yul\":10485:10506   */\n      dup1\n      dup3\n      mstore\n        /* \"#utility.yul\":10542:10544   */\n      0x2a\n        /* \"#utility.yul\":10522:10540   */\n      swap1\n      dup3\n      add\n        /* \"#utility.yul\":10515:10545   */\n      mstore\n        /* \"#utility.yul\":10581:10615   */\n      0x54726f706879204b696e67204172636164653a2047616d652066756c6c2e2020\n        /* \"#utility.yul\":10576:10578   */\n      0x40\n        /* \"#utility.yul\":10561:10579   */\n      dup3\n      add\n        /* \"#utility.yul\":10554:10616   */\n      mstore\n      shl(0xb1, 0x2a393c9030b3b0b4b717)\n        /* \"#utility.yul\":10647:10649   */\n      0x60\n        /* \"#utility.yul\":10632:10650   */\n      dup3\n      add\n        /* \"#utility.yul\":10625:10665   */\n      mstore\n        /* \"#utility.yul\":10697:10700   */\n      0x80\n        /* \"#utility.yul\":10682:10701   */\n      add\n      swap1\n        /* \"#utility.yul\":10475:10707   */\n      jump\t// out\n        /* \"#utility.yul\":10712:11111   */\n    tag_288:\n        /* \"#utility.yul\":10914:10916   */\n      0x20\n        /* \"#utility.yul\":10896:10917   */\n      dup1\n      dup3\n      mstore\n        /* \"#utility.yul\":10953:10955   */\n      0x23\n        /* \"#utility.yul\":10933:10951   */\n      swap1\n      dup3\n      add\n        /* \"#utility.yul\":10926:10956   */\n      mstore\n        /* \"#utility.yul\":10992:11026   */\n      0x54726f706879204b696e67204172636164653a2047616d65206e6f7420666f75\n        /* \"#utility.yul\":10987:10989   */\n      0x40\n        /* \"#utility.yul\":10972:10990   */\n      dup3\n      add\n        /* \"#utility.yul\":10965:11027   */\n      mstore\n      shl(0xe9, 0x373217)\n        /* \"#utility.yul\":11058:11060   */\n      0x60\n        /* \"#utility.yul\":11043:11061   */\n      dup3\n      add\n        /* \"#utility.yul\":11036:11069   */\n      mstore\n        /* \"#utility.yul\":11101:11104   */\n      0x80\n        /* \"#utility.yul\":11086:11105   */\n      add\n      swap1\n        /* \"#utility.yul\":10886:11111   */\n      jump\t// out\n        /* \"#utility.yul\":11116:11513   */\n    tag_276:\n        /* \"#utility.yul\":11318:11320   */\n      0x20\n        /* \"#utility.yul\":11300:11321   */\n      dup1\n      dup3\n      mstore\n        /* \"#utility.yul\":11357:11359   */\n      0x21\n        /* \"#utility.yul\":11337:11355   */\n      swap1\n      dup3\n      add\n        /* \"#utility.yul\":11330:11360   */\n      mstore\n        /* \"#utility.yul\":11396:11430   */\n      0x54726f706879204b696e67204172636164653a20556e617574686f72697a6564\n        /* \"#utility.yul\":11391:11393   */\n      0x40\n        /* \"#utility.yul\":11376:11394   */\n      dup3\n      add\n        /* \"#utility.yul\":11369:11431   */\n      mstore\n      shl(0xf9, 0x17)\n        /* \"#utility.yul\":11462:11464   */\n      0x60\n        /* \"#utility.yul\":11447:11465   */\n      dup3\n      add\n        /* \"#utility.yul\":11440:11471   */\n      mstore\n        /* \"#utility.yul\":11503:11506   */\n      0x80\n        /* \"#utility.yul\":11488:11507   */\n      add\n      swap1\n        /* \"#utility.yul\":11290:11513   */\n      jump\t// out\n        /* \"#utility.yul\":13287:13415   */\n    tag_381:\n        /* \"#utility.yul\":13327:13330   */\n      0x00\n        /* \"#utility.yul\":13358:13359   */\n      dup3\n        /* \"#utility.yul\":13354:13360   */\n      not\n        /* \"#utility.yul\":13351:13352   */\n      dup3\n        /* \"#utility.yul\":13348:13361   */\n      gt\n        /* \"#utility.yul\":13345:13347   */\n      iszero\n      tag_479\n      jumpi\n        /* \"#utility.yul\":13364:13382   */\n      tag_479\n      tag_480\n      jump\t// in\n    tag_479:\n      pop\n        /* \"#utility.yul\":13400:13409   */\n      add\n      swap1\n        /* \"#utility.yul\":13335:13415   */\n      jump\t// out\n        /* \"#utility.yul\":13420:13637   */\n    tag_311:\n        /* \"#utility.yul\":13460:13461   */\n      0x00\n        /* \"#utility.yul\":13486:13487   */\n      dup3\n        /* \"#utility.yul\":13476:13478   */\n      tag_482\n      jumpi\n      shl(0xe0, 0x4e487b71)\n        /* \"#utility.yul\":13511:13542   */\n      dup2\n      mstore\n        /* \"#utility.yul\":13565:13569   */\n      0x12\n        /* \"#utility.yul\":13562:13563   */\n      0x04\n        /* \"#utility.yul\":13555:13570   */\n      mstore\n        /* \"#utility.yul\":13593:13597   */\n      0x24\n        /* \"#utility.yul\":13518:13519   */\n      dup2\n        /* \"#utility.yul\":13583:13598   */\n      revert\n        /* \"#utility.yul\":13476:13478   */\n    tag_482:\n      pop\n        /* \"#utility.yul\":13622:13631   */\n      div\n      swap1\n        /* \"#utility.yul\":13466:13637   */\n      jump\t// out\n        /* \"#utility.yul\":13642:13810   */\n    tag_309:\n        /* \"#utility.yul\":13682:13689   */\n      0x00\n        /* \"#utility.yul\":13748:13749   */\n      dup2\n        /* \"#utility.yul\":13744:13745   */\n      0x00\n        /* \"#utility.yul\":13740:13746   */\n      not\n        /* \"#utility.yul\":13736:13750   */\n      div\n        /* \"#utility.yul\":13733:13734   */\n      dup4\n        /* \"#utility.yul\":13730:13751   */\n      gt\n        /* \"#utility.yul\":13725:13726   */\n      dup3\n        /* \"#utility.yul\":13718:13727   */\n      iszero\n        /* \"#utility.yul\":13711:13728   */\n      iszero\n        /* \"#utility.yul\":13707:13752   */\n      and\n        /* \"#utility.yul\":13704:13706   */\n      iszero\n      tag_485\n      jumpi\n        /* \"#utility.yul\":13755:13773   */\n      tag_485\n      tag_480\n      jump\t// in\n    tag_485:\n      pop\n        /* \"#utility.yul\":13795:13804   */\n      mul\n      swap1\n        /* \"#utility.yul\":13694:13810   */\n      jump\t// out\n        /* \"#utility.yul\":13815:13940   */\n    tag_258:\n        /* \"#utility.yul\":13855:13859   */\n      0x00\n        /* \"#utility.yul\":13883:13884   */\n      dup3\n        /* \"#utility.yul\":13880:13881   */\n      dup3\n        /* \"#utility.yul\":13877:13885   */\n      lt\n        /* \"#utility.yul\":13874:13876   */\n      iszero\n      tag_488\n      jumpi\n        /* \"#utility.yul\":13888:13906   */\n      tag_488\n      tag_480\n      jump\t// in\n    tag_488:\n      pop\n        /* \"#utility.yul\":13925:13934   */\n      sub\n      swap1\n        /* \"#utility.yul\":13864:13940   */\n      jump\t// out\n        /* \"#utility.yul\":13945:14203   */\n    tag_448:\n        /* \"#utility.yul\":14017:14018   */\n      0x00\n        /* \"#utility.yul\":14027:14140   */\n    tag_490:\n        /* \"#utility.yul\":14041:14047   */\n      dup4\n        /* \"#utility.yul\":14038:14039   */\n      dup2\n        /* \"#utility.yul\":14035:14048   */\n      lt\n        /* \"#utility.yul\":14027:14140   */\n      iszero\n      tag_492\n      jumpi\n        /* \"#utility.yul\":14117:14128   */\n      dup2\n      dup2\n      add\n        /* \"#utility.yul\":14111:14129   */\n      mload\n        /* \"#utility.yul\":14098:14109   */\n      dup4\n      dup3\n      add\n        /* \"#utility.yul\":14091:14130   */\n      mstore\n        /* \"#utility.yul\":14063:14065   */\n      0x20\n        /* \"#utility.yul\":14056:14066   */\n      add\n        /* \"#utility.yul\":14027:14140   */\n      jump(tag_490)\n    tag_492:\n        /* \"#utility.yul\":14158:14164   */\n      dup4\n        /* \"#utility.yul\":14155:14156   */\n      dup2\n        /* \"#utility.yul\":14152:14165   */\n      gt\n        /* \"#utility.yul\":14149:14151   */\n      iszero\n      tag_493\n      jumpi\n        /* \"#utility.yul\":14193:14194   */\n      0x00\n        /* \"#utility.yul\":14184:14190   */\n      dup5\n        /* \"#utility.yul\":14179:14182   */\n      dup5\n        /* \"#utility.yul\":14175:14191   */\n      add\n        /* \"#utility.yul\":14168:14195   */\n      mstore\n        /* \"#utility.yul\":14149:14151   */\n    tag_493:\n      pop\n        /* \"#utility.yul\":13998:14203   */\n      pop\n      pop\n      pop\n      jump\t// out\n        /* \"#utility.yul\":14208:14344   */\n    tag_409:\n        /* \"#utility.yul\":14247:14250   */\n      0x00\n        /* \"#utility.yul\":14275:14280   */\n      dup2\n        /* \"#utility.yul\":14265:14267   */\n      tag_496\n      jumpi\n        /* \"#utility.yul\":14284:14302   */\n      tag_496\n      tag_480\n      jump\t// in\n    tag_496:\n      pop\n      not(0x00)\n        /* \"#utility.yul\":14320:14338   */\n      add\n      swap1\n        /* \"#utility.yul\":14255:14344   */\n      jump\t// out\n        /* \"#utility.yul\":14349:14476   */\n    tag_480:\n        /* \"#utility.yul\":14410:14420   */\n      0x4e487b71\n        /* \"#utility.yul\":14405:14408   */\n      0xe0\n        /* \"#utility.yul\":14401:14421   */\n      shl\n        /* \"#utility.yul\":14398:14399   */\n      0x00\n        /* \"#utility.yul\":14391:14422   */\n      mstore\n        /* \"#utility.yul\":14441:14445   */\n      0x11\n        /* \"#utility.yul\":14438:14439   */\n      0x04\n        /* \"#utility.yul\":14431:14446   */\n      mstore\n        /* \"#utility.yul\":14465:14469   */\n      0x24\n        /* \"#utility.yul\":14462:14463   */\n      0x00\n        /* \"#utility.yul\":14455:14470   */\n      revert\n        /* \"#utility.yul\":14481:14599   */\n    tag_424:\n        /* \"#utility.yul\":14567:14572   */\n      dup1\n        /* \"#utility.yul\":14560:14573   */\n      iszero\n        /* \"#utility.yul\":14553:14574   */\n      iszero\n        /* \"#utility.yul\":14546:14551   */\n      dup2\n        /* \"#utility.yul\":14543:14575   */\n      eq\n        /* \"#utility.yul\":14533:14535   */\n      tag_357\n      jumpi\n        /* \"#utility.yul\":14589:14590   */\n      0x00\n        /* \"#utility.yul\":14586:14587   */\n      dup1\n        /* \"#utility.yul\":14579:14591   */\n      revert\n\n    auxdata: 0xa264697066735822122099912042cfacd34a5750bd2693a5b603f78a6356342f1f70a1427cbd262cbd6564736f6c63430008040033\n}\n",
				"bytecode": {
					"linkReferences": {},
					"object": "6080604052601260038190556200001890600a620000a6565b6005553480156200002857600080fd5b5060078054336001600160a01b0319918216811790925567016345785d8a000060045560068054909116909117905562000187565b600181815b808511156200009e57816000190482111562000082576200008262000171565b808516156200009057918102915b93841c939080029062000062565b509250929050565b6000620000b48383620000bb565b9392505050565b600082620000cc575060016200016b565b81620000db575060006200016b565b8160018114620000f45760028114620000ff576200011f565b60019150506200016b565b60ff84111562000113576200011362000171565b50506001821b6200016b565b5060208310610133831016604e8410600b841016171562000144575081810a6200016b565b6200015083836200005d565b806000190482111562000167576200016762000171565b0290505b92915050565b634e487b7160e01b600052601160045260246000fd5b611f3780620001976000396000f3fe6080604052600436106101d75760003560e01c80638da5cb5b11610102578063c46ed45a11610095578063f0a3a97c11610064578063f0a3a97c14610688578063f207564e146106bc578063f336ee3c146106dc578063f54c42d7146106fc57600080fd5b8063c46ed45a1461056a578063ccaf237f14610580578063d547741f14610628578063e6f091f91461064857600080fd5b80639c623683116100d15780639c623683146104a6578063a217fddf146104c6578063b22c376d146104db578063b9888d891461054a57600080fd5b80638da5cb5b1461043e5780638f0d7e351461045e57806391d148541461047357806394b918de1461049357600080fd5b80632d6ef3101161017a5780633e16518f116101495780633e16518f146103675780634575624b1461038757806375ca7603146103e65780637ad226dc1461041e57600080fd5b80632d6ef310146102f15780632f2ff15d14610311578063313ce5671461033157806336568abe1461034757600080fd5b8063248a55a1116101b6578063248a55a114610253578063248a9ca3146102735780632ac5016f146102b15780632ba67100146102d157600080fd5b8062f5544f146101dc57806301ffc9a7146101fe57806306602a4814610233575b600080fd5b3480156101e857600080fd5b506101fc6101f7366004611b66565b61071c565b005b34801561020a57600080fd5b5061021e610219366004611ba9565b61077b565b60405190151581526020015b60405180910390f35b34801561023f57600080fd5b506101fc61024e366004611b0b565b6107b2565b34801561025f57600080fd5b506101fc61026e366004611b66565b6108b2565b34801561027f57600080fd5b506102a361028e366004611b66565b60009081526020819052604090206001015490565b60405190815260200161022a565b3480156102bd57600080fd5b506101fc6102cc366004611b66565b610938565b3480156102dd57600080fd5b506101fc6102ec366004611b7e565b610949565b3480156102fd57600080fd5b506101fc61030c366004611b66565b6109b5565b34801561031d57600080fd5b506101fc61032c366004611b7e565b610a06565b34801561033d57600080fd5b506102a360035481565b34801561035357600080fd5b506101fc610362366004611b7e565b610a30565b34801561037357600080fd5b506101fc610382366004611af1565b610ab3565b34801561039357600080fd5b506103cf6103a2366004611af1565b6001600160a01b031660009081526001602081905260409091208054910154600160a01b90910460ff1691565b60408051921515835260208301919091520161022a565b3480156103f257600080fd5b50600654610406906001600160a01b031681565b6040516001600160a01b03909116815260200161022a565b34801561042a57600080fd5b506101fc610439366004611b7e565b610b02565b34801561044a57600080fd5b50600754610406906001600160a01b031681565b34801561046a57600080fd5b506101fc610d75565b34801561047f57600080fd5b5061021e61048e366004611b7e565b610dfa565b6101fc6104a1366004611b66565b610e23565b3480156104b257600080fd5b506101fc6104c1366004611b7e565b611056565b3480156104d257600080fd5b506102a3600081565b3480156104e757600080fd5b506105256104f6366004611af1565b600160208190526000918252604090912080549101546001600160a01b03821691600160a01b900460ff169083565b604080516001600160a01b03909416845291151560208401529082015260600161022a565b34801561055657600080fd5b506101fc610565366004611b7e565b61127b565b34801561057657600080fd5b506102a360045481565b34801561058c57600080fd5b506105e861059b366004611b66565b6002602081905260009182526040909120805460018201549282015460038301546004840154600585015460069095015460ff90941695949293919290916001600160a01b039091169087565b604080519715158852602088019690965294860193909352606085019190915260808401526001600160a01b031660a083015260c082015260e00161022a565b34801561063457600080fd5b506101fc610643366004611b7e565b611368565b34801561065457600080fd5b5061021e610663366004611af1565b6001600160a01b0316600090815260016020526040902054600160a01b900460ff1690565b34801561069457600080fd5b506102a37f3496e2e73c4d42b75d702e60d9e48102720b8691234415963a5a857b86425d0781565b3480156106c857600080fd5b506101fc6106d7366004611b66565b61138d565b3480156106e857600080fd5b506101fc6106f7366004611bd1565b61161b565b34801561070857600080fd5b506101fc610717366004611af1565b6116bb565b6000610727816116e9565b600082815260026020526040908190206001600490910155517f651a9760985edc53055bf2462cb4437b9be3de87aa3eecf2c05782e8b58eba199061076f9084815260200190565b60405180910390a15050565b60006001600160e01b03198216637965db0b60e01b14806107ac57506301ffc9a760e01b6001600160e01b03198316145b92915050565b7f3496e2e73c4d42b75d702e60d9e48102720b8691234415963a5a857b86425d076107dc816116e9565b6001600160a01b038416600081815260016020819052604090912090810185905580546001600160a81b031916600160a01b851515026001600160a01b0319161782179055849063095ea7b3336040516001600160e01b031960e084901b1681526001600160a01b0390911660048201526000196024820152604401602060405180830381600087803b15801561087257600080fd5b505af1158015610886573d6000803e3d6000fd5b505050506040513d601f19601f820116820180604052508101906108aa9190611b4a565b505050505050565b60006108bd816116e9565b6000828152600260208181526040808420805460ff191681556001810185905592830184905560038301849055600483018490556005830180546001600160a01b0319169055600690920192909255518381527fd0b153e02e23f4f21d020465b4dac7b1114893d05db395ed2511f879c3ac90b4910161076f565b6000610943816116e9565b50600455565b6000610954816116e9565b60008381526002602090815260408083206001600160a01b0386168085526009909101835281842093909355519182527f34aeefd5030be05fe70eebc8866d82f935a308eb9f334cba88f5e3bea1a0cae891015b60405180910390a1505050565b60006109c0816116e9565b60008281526002602052604080822060040191909155517f827e8bff9f46048f8351964d2c871d09e4f4231513cf2fcb786649c68732e24f9061076f9084815260200190565b600082815260208190526040902060010154610a21816116e9565b610a2b83836116f3565b505050565b6001600160a01b0381163314610aa55760405162461bcd60e51b815260206004820152602f60248201527f416363657373436f6e74726f6c3a2063616e206f6e6c792072656e6f756e636560448201526e103937b632b9903337b91039b2b63360891b60648201526084015b60405180910390fd5b610aaf8282611777565b5050565b7f3496e2e73c4d42b75d702e60d9e48102720b8691234415963a5a857b86425d07610add816116e9565b506001600160a01b03166000908152600160205260409020805460ff60a01b19169055565b6000610b0d816116e9565b60008381526002602052604090205460ff16610a2b5760008381526002602090815260408083206001600160a01b0386168452600801909152902054600114610bb25760405162461bcd60e51b815260206004820152603160248201527f54726f706879204b696e67204172636164653a204e6f7420726567697374657260448201527032b2103337b9103a3434b99033b0b6b29760791b6064820152608401610a9c565b600083815260026020908152604080832060058101546001600160a01b03908116855260019093529220541663a9059cbb3360038401546040516001600160e01b031960e085901b1681526001600160a01b0390921660048301526024820152604401602060405180830381600087803b158015610c2f57600080fd5b505af1158015610c43573d6000803e3d6000fd5b505050506040513d601f19601f82011682018060405250810190610c679190611b4a565b610cbe5760405162461bcd60e51b815260206004820152602260248201527f54726f706879204b696e67204172636164653a20526566756e64206661696c65604482015261321760f11b6064820152608401610a9c565b6003810154604080518681526001600160a01b038616602082015280820192909252517f21e12a7cad0da5928167e1084ea4d5fdf8d9af66657a2543a9ac76a0ca0814779181900360600190a18060030154816006016000828254610d239190611e7f565b90915550506001600160a01b038316600090815260078201602090815260408083208390556008840190915281208190556001808301805491929091610d6a908490611e7f565b909155505050505050565b6000610d80816116e9565b478015610aaf576007546040516000916001600160a01b03169083908381818185875af1925050503d8060008114610dd4576040519150601f19603f3d011682016040523d82523d6000602084013e610dd9565b606091505b5050905080610a2b5760405162461bcd60e51b8152600401610a9c90611d13565b6000918252602082815260408084206001600160a01b0393909316845291905290205460ff1690565b6000818152600260209081526040808320338452600901909152902054600114610e5f5760405162461bcd60e51b8152600401610a9c90611de7565b600081815260026020526040902060040154600114610ec05760405162461bcd60e51b815260206004820181905260248201527f54726f706879204b696e67204172636164653a2047616d6520636c6f7365642e6044820152606401610a9c565b6000818152600260208190526040909120600181015491015411610ef65760405162461bcd60e51b8152600401610a9c90611d5a565b600081815260026020908152604080832033845260080190915290205415610f305760405162461bcd60e51b8152600401610a9c90611ccc565b60008181526002602081905260409091200154610f5f5760405162461bcd60e51b8152600401610a9c90611da4565b6000818152600260205260409020600301543414610fd85760405162461bcd60e51b815260206004820152603060248201527f54726f706879204b696e67204172636164653a204d757374206d61746368207260448201526f32b3b4b9ba3930ba34b7b7103332b29760811b6064820152608401610a9c565b6006546040516000916001600160a01b03169034908381818185875af1925050503d8060008114611025576040519150601f19603f3d011682016040523d82523d6000602084013e61102a565b606091505b505090508061104b5760405162461bcd60e51b8152600401610a9c90611d13565b610aaf8233346117dc565b6000611061816116e9565b60008381526002602052604090205460ff166112725760008381526002602090815260408083206001600160a01b03861684526007018252918290205491519182527f557809284da7314475b1582804ae28e5f1349efc1fe970ea25d50fce75eb4f43910160405180910390a160008381526002602090815260408083206001600160a01b038616845260080190915290205460011461115c5760405162461bcd60e51b815260206004820152603060248201527f54726f706879204b696e67204172636164653a204e6f7420726567697374657260448201526f656420666f7220746869732067616d6560801b6064820152608401610a9c565b60055460045460008581526002602052604081206006015490929182916111839190611e60565b61118d9190611e40565b6111979190611e40565b600085815260026020526040812060060154919250906111b8908390611e7f565b905047818110156111c7578091505b6000856001600160a01b03168360405160006040518083038185875af1925050503d8060008114611214576040519150601f19603f3d011682016040523d82523d6000602084013e611219565b606091505b505090508061123a5760405162461bcd60e51b8152600401610a9c90611d13565b6040518381527f22427047e1a674a9aff59700a2c8d00ea96e017ddf9236690bdedf1f21f28d9d9060200160405180910390a1505050505b610a2b836109b5565b6000611286816116e9565b60008381526002602090815260408083206001600160a01b0386168452600901909152902054600114156113085760405162461bcd60e51b815260206004820152602360248201527f54726f706879204b696e67204172636164653a20416c7265616479207365617460448201526232b21760e91b6064820152608401610a9c565b60008381526002602090815260408083206001600160a01b03861680855260099091018352928190206001905580519283529082018590527f9f2deefff0a36949d580cdd4ba9959b4a94786e786bad5650001b58b625fbbb191016109a8565b600082815260208190526040902060010154611383816116e9565b610a2b8383611777565b60008181526002602090815260408083203384526009019091529020546001146113c95760405162461bcd60e51b8152600401610a9c90611de7565b60008181526002602052604090206004015460011461142a5760405162461bcd60e51b815260206004820181905260248201527f54726f706879204b696e67204172636164653a2047616d6520636c6f7365642e6044820152606401610a9c565b60008181526002602081905260409091206001810154910154116114605760405162461bcd60e51b8152600401610a9c90611d5a565b60008181526002602090815260408083203384526008019091529020541561149a5760405162461bcd60e51b8152600401610a9c90611ccc565b600081815260026020819052604090912001546114c95760405162461bcd60e51b8152600401610a9c90611da4565b6000818152600260209081526040808320600501546001600160a01b039081168452600190925290912054166323b872dd336000848152600260205260409081902060030154905160e084901b6001600160e01b03191681526001600160a01b0390921660048301523060248301526044820152606401602060405180830381600087803b15801561155a57600080fd5b505af115801561156e573d6000803e3d6000fd5b505050506040513d601f19601f820116820180604052508101906115929190611b4a565b6115f95760405162461bcd60e51b815260206004820152603260248201527f54726f706879204b696e67204172636164653a204d75737420617070726f7665604482015271103932b3b4b9ba3930ba34b7b7103332b29760711b6064820152608401610a9c565b60008181526002602052604090206003015461161890829033906117dc565b50565b6000611626816116e9565b600086815260026020818152604080842060016004820181905560068201869055600382018b90556005820180546001600160a01b0319166001600160a01b038c16179055810194909455918301869055825460ff191685151517909255518781527f9e5237c6a8bb45df74799cf138ebda4fed0574bed906da41387acdc4a3cbe3d8910160405180910390a1505050505050565b60006116c6816116e9565b50600680546001600160a01b0319166001600160a01b0392909216919091179055565b6116188133611888565b6116fd8282610dfa565b610aaf576000828152602081815260408083206001600160a01b03851684529091529020805460ff191660011790556117333390565b6001600160a01b0316816001600160a01b0316837f2f8788117e7eff1d82e926ec794901d17c78024a50270940304540a733656f0d60405160405180910390a45050565b6117818282610dfa565b15610aaf576000828152602081815260408083206001600160a01b0385168085529252808320805460ff1916905551339285917ff6391f5c32d9c69d2a47ea670b442974b53935d1edc7fd64eb21e047a839171b9190a45050565b60008381526002602052604081206001808201805492939192909190611803908490611e28565b90915550506001600160a01b0383166000908152600782016020908152604080832085905560088401909152812060019055600682018054849290611849908490611e28565b909155505060405184815233907e7dc6ab80cc84c043b7b8d4fcafc802187470087f7ea7fccd2e17aecd0256a19060200160405180910390a250505050565b6118928282610dfa565b610aaf576118aa816001600160a01b031660146118ec565b6118b58360206118ec565b6040516020016118c6929190611c24565b60408051601f198184030181529082905262461bcd60e51b8252610a9c91600401611c99565b606060006118fb836002611e60565b611906906002611e28565b67ffffffffffffffff81111561192c57634e487b7160e01b600052604160045260246000fd5b6040519080825280601f01601f191660200182016040528015611956576020820181803683370190505b509050600360fc1b8160008151811061197f57634e487b7160e01b600052603260045260246000fd5b60200101906001600160f81b031916908160001a905350600f60fb1b816001815181106119bc57634e487b7160e01b600052603260045260246000fd5b60200101906001600160f81b031916908160001a90535060006119e0846002611e60565b6119eb906001611e28565b90505b6001811115611a7f576f181899199a1a9b1b9c1cb0b131b232b360811b85600f1660108110611a2d57634e487b7160e01b600052603260045260246000fd5b1a60f81b828281518110611a5157634e487b7160e01b600052603260045260246000fd5b60200101906001600160f81b031916908160001a90535060049490941c93611a7881611ec6565b90506119ee565b508315611ace5760405162461bcd60e51b815260206004820181905260248201527f537472696e67733a20686578206c656e67746820696e73756666696369656e746044820152606401610a9c565b9392505050565b80356001600160a01b0381168114611aec57600080fd5b919050565b600060208284031215611b02578081fd5b611ace82611ad5565b600080600060608486031215611b1f578182fd5b611b2884611ad5565b9250602084013591506040840135611b3f81611ef3565b809150509250925092565b600060208284031215611b5b578081fd5b8151611ace81611ef3565b600060208284031215611b77578081fd5b5035919050565b60008060408385031215611b90578182fd5b82359150611ba060208401611ad5565b90509250929050565b600060208284031215611bba578081fd5b81356001600160e01b031981168114611ace578182fd5b600080600080600060a08688031215611be8578081fd5b8535945060208601359350611bff60408701611ad5565b9250606086013591506080860135611c1681611ef3565b809150509295509295909350565b7f416363657373436f6e74726f6c3a206163636f756e7420000000000000000000815260008351611c5c816017850160208801611e96565b7001034b99036b4b9b9b4b733903937b6329607d1b6017918401918201528351611c8d816028840160208801611e96565b01602801949350505050565b6020815260008251806020840152611cb8816040850160208701611e96565b601f01601f19169190910160400192915050565b60208082526027908201527f54726f706879204b696e67204172636164653a20416c7265616479207265676960408201526639ba32b932b21760c91b606082015260800190565b60208082526027908201527f54726f706879204b696e67204172636164653a20556e61626c6520746f20747260408201526630b739b332b91760c91b606082015260800190565b6020808252602a908201527f54726f706879204b696e67204172636164653a2047616d652066756c6c2e20206040820152692a393c9030b3b0b4b71760b11b606082015260800190565b60208082526023908201527f54726f706879204b696e67204172636164653a2047616d65206e6f7420666f7560408201526237321760e91b606082015260800190565b60208082526021908201527f54726f706879204b696e67204172636164653a20556e617574686f72697a65646040820152601760f91b606082015260800190565b60008219821115611e3b57611e3b611edd565b500190565b600082611e5b57634e487b7160e01b81526012600452602481fd5b500490565b6000816000190483118215151615611e7a57611e7a611edd565b500290565b600082821015611e9157611e91611edd565b500390565b60005b83811015611eb1578181015183820152602001611e99565b83811115611ec0576000848401525b50505050565b600081611ed557611ed5611edd565b506000190190565b634e487b7160e01b600052601160045260246000fd5b801515811461161857600080fdfea264697066735822122099912042cfacd34a5750bd2693a5b603f78a6356342f1f70a1427cbd262cbd6564736f6c63430008040033",
					"opcodes": "PUSH1 0x80 PUSH1 0x40 MSTORE PUSH1 0x12 PUSH1 0x3 DUP2 SWAP1 SSTORE PUSH3 0x18 SWAP1 PUSH1 0xA PUSH3 0xA6 JUMP JUMPDEST PUSH1 0x5 SSTORE CALLVALUE DUP1 ISZERO PUSH3 0x28 JUMPI PUSH1 0x0 DUP1 REVERT JUMPDEST POP PUSH1 0x7 DUP1 SLOAD CALLER PUSH1 0x1 PUSH1 0x1 PUSH1 0xA0 SHL SUB NOT SWAP2 DUP3 AND DUP2 OR SWAP1 SWAP3 SSTORE PUSH8 0x16345785D8A0000 PUSH1 0x4 SSTORE PUSH1 0x6 DUP1 SLOAD SWAP1 SWAP2 AND SWAP1 SWAP2 OR SWAP1 SSTORE PUSH3 0x187 JUMP JUMPDEST PUSH1 0x1 DUP2 DUP2 JUMPDEST DUP1 DUP6 GT ISZERO PUSH3 0x9E JUMPI DUP2 PUSH1 0x0 NOT DIV DUP3 GT ISZERO PUSH3 0x82 JUMPI PUSH3 0x82 PUSH3 0x171 JUMP JUMPDEST DUP1 DUP6 AND ISZERO PUSH3 0x90 JUMPI SWAP2 DUP2 MUL SWAP2 JUMPDEST SWAP4 DUP5 SHR SWAP4 SWAP1 DUP1 MUL SWAP1 PUSH3 0x62 JUMP JUMPDEST POP SWAP3 POP SWAP3 SWAP1 POP JUMP JUMPDEST PUSH1 0x0 PUSH3 0xB4 DUP4 DUP4 PUSH3 0xBB JUMP JUMPDEST SWAP4 SWAP3 POP POP POP JUMP JUMPDEST PUSH1 0x0 DUP3 PUSH3 0xCC JUMPI POP PUSH1 0x1 PUSH3 0x16B JUMP JUMPDEST DUP2 PUSH3 0xDB JUMPI POP PUSH1 0x0 PUSH3 0x16B JUMP JUMPDEST DUP2 PUSH1 0x1 DUP2 EQ PUSH3 0xF4 JUMPI PUSH1 0x2 DUP2 EQ PUSH3 0xFF JUMPI PUSH3 0x11F JUMP JUMPDEST PUSH1 0x1 SWAP2 POP POP PUSH3 0x16B JUMP JUMPDEST PUSH1 0xFF DUP5 GT ISZERO PUSH3 0x113 JUMPI PUSH3 0x113 PUSH3 0x171 JUMP JUMPDEST POP POP PUSH1 0x1 DUP3 SHL PUSH3 0x16B JUMP JUMPDEST POP PUSH1 0x20 DUP4 LT PUSH2 0x133 DUP4 LT AND PUSH1 0x4E DUP5 LT PUSH1 0xB DUP5 LT AND OR ISZERO PUSH3 0x144 JUMPI POP DUP2 DUP2 EXP PUSH3 0x16B JUMP JUMPDEST PUSH3 0x150 DUP4 DUP4 PUSH3 0x5D JUMP JUMPDEST DUP1 PUSH1 0x0 NOT DIV DUP3 GT ISZERO PUSH3 0x167 JUMPI PUSH3 0x167 PUSH3 0x171 JUMP JUMPDEST MUL SWAP1 POP JUMPDEST SWAP3 SWAP2 POP POP JUMP JUMPDEST PUSH4 0x4E487B71 PUSH1 0xE0 SHL PUSH1 0x0 MSTORE PUSH1 0x11 PUSH1 0x4 MSTORE PUSH1 0x24 PUSH1 0x0 REVERT JUMPDEST PUSH2 0x1F37 DUP1 PUSH3 0x197 PUSH1 0x0 CODECOPY PUSH1 0x0 RETURN INVALID PUSH1 0x80 PUSH1 0x40 MSTORE PUSH1 0x4 CALLDATASIZE LT PUSH2 0x1D7 JUMPI PUSH1 0x0 CALLDATALOAD PUSH1 0xE0 SHR DUP1 PUSH4 0x8DA5CB5B GT PUSH2 0x102 JUMPI DUP1 PUSH4 0xC46ED45A GT PUSH2 0x95 JUMPI DUP1 PUSH4 0xF0A3A97C GT PUSH2 0x64 JUMPI DUP1 PUSH4 0xF0A3A97C EQ PUSH2 0x688 JUMPI DUP1 PUSH4 0xF207564E EQ PUSH2 0x6BC JUMPI DUP1 PUSH4 0xF336EE3C EQ PUSH2 0x6DC JUMPI DUP1 PUSH4 0xF54C42D7 EQ PUSH2 0x6FC JUMPI PUSH1 0x0 DUP1 REVERT JUMPDEST DUP1 PUSH4 0xC46ED45A EQ PUSH2 0x56A JUMPI DUP1 PUSH4 0xCCAF237F EQ PUSH2 0x580 JUMPI DUP1 PUSH4 0xD547741F EQ PUSH2 0x628 JUMPI DUP1 PUSH4 0xE6F091F9 EQ PUSH2 0x648 JUMPI PUSH1 0x0 DUP1 REVERT JUMPDEST DUP1 PUSH4 0x9C623683 GT PUSH2 0xD1 JUMPI DUP1 PUSH4 0x9C623683 EQ PUSH2 0x4A6 JUMPI DUP1 PUSH4 0xA217FDDF EQ PUSH2 0x4C6 JUMPI DUP1 PUSH4 0xB22C376D EQ PUSH2 0x4DB JUMPI DUP1 PUSH4 0xB9888D89 EQ PUSH2 0x54A JUMPI PUSH1 0x0 DUP1 REVERT JUMPDEST DUP1 PUSH4 0x8DA5CB5B EQ PUSH2 0x43E JUMPI DUP1 PUSH4 0x8F0D7E35 EQ PUSH2 0x45E JUMPI DUP1 PUSH4 0x91D14854 EQ PUSH2 0x473 JUMPI DUP1 PUSH4 0x94B918DE EQ PUSH2 0x493 JUMPI PUSH1 0x0 DUP1 REVERT JUMPDEST DUP1 PUSH4 0x2D6EF310 GT PUSH2 0x17A JUMPI DUP1 PUSH4 0x3E16518F GT PUSH2 0x149 JUMPI DUP1 PUSH4 0x3E16518F EQ PUSH2 0x367 JUMPI DUP1 PUSH4 0x4575624B EQ PUSH2 0x387 JUMPI DUP1 PUSH4 0x75CA7603 EQ PUSH2 0x3E6 JUMPI DUP1 PUSH4 0x7AD226DC EQ PUSH2 0x41E JUMPI PUSH1 0x0 DUP1 REVERT JUMPDEST DUP1 PUSH4 0x2D6EF310 EQ PUSH2 0x2F1 JUMPI DUP1 PUSH4 0x2F2FF15D EQ PUSH2 0x311 JUMPI DUP1 PUSH4 0x313CE567 EQ PUSH2 0x331 JUMPI DUP1 PUSH4 0x36568ABE EQ PUSH2 0x347 JUMPI PUSH1 0x0 DUP1 REVERT JUMPDEST DUP1 PUSH4 0x248A55A1 GT PUSH2 0x1B6 JUMPI DUP1 PUSH4 0x248A55A1 EQ PUSH2 0x253 JUMPI DUP1 PUSH4 0x248A9CA3 EQ PUSH2 0x273 JUMPI DUP1 PUSH4 0x2AC5016F EQ PUSH2 0x2B1 JUMPI DUP1 PUSH4 0x2BA67100 EQ PUSH2 0x2D1 JUMPI PUSH1 0x0 DUP1 REVERT JUMPDEST DUP1 PUSH3 0xF5544F EQ PUSH2 0x1DC JUMPI DUP1 PUSH4 0x1FFC9A7 EQ PUSH2 0x1FE JUMPI DUP1 PUSH4 0x6602A48 EQ PUSH2 0x233 JUMPI JUMPDEST PUSH1 0x0 DUP1 REVERT JUMPDEST CALLVALUE DUP1 ISZERO PUSH2 0x1E8 JUMPI PUSH1 0x0 DUP1 REVERT JUMPDEST POP PUSH2 0x1FC PUSH2 0x1F7 CALLDATASIZE PUSH1 0x4 PUSH2 0x1B66 JUMP JUMPDEST PUSH2 0x71C JUMP JUMPDEST STOP JUMPDEST CALLVALUE DUP1 ISZERO PUSH2 0x20A JUMPI PUSH1 0x0 DUP1 REVERT JUMPDEST POP PUSH2 0x21E PUSH2 0x219 CALLDATASIZE PUSH1 0x4 PUSH2 0x1BA9 JUMP JUMPDEST PUSH2 0x77B JUMP JUMPDEST PUSH1 0x40 MLOAD SWAP1 ISZERO ISZERO DUP2 MSTORE PUSH1 0x20 ADD JUMPDEST PUSH1 0x40 MLOAD DUP1 SWAP2 SUB SWAP1 RETURN JUMPDEST CALLVALUE DUP1 ISZERO PUSH2 0x23F JUMPI PUSH1 0x0 DUP1 REVERT JUMPDEST POP PUSH2 0x1FC PUSH2 0x24E CALLDATASIZE PUSH1 0x4 PUSH2 0x1B0B JUMP JUMPDEST PUSH2 0x7B2 JUMP JUMPDEST CALLVALUE DUP1 ISZERO PUSH2 0x25F JUMPI PUSH1 0x0 DUP1 REVERT JUMPDEST POP PUSH2 0x1FC PUSH2 0x26E CALLDATASIZE PUSH1 0x4 PUSH2 0x1B66 JUMP JUMPDEST PUSH2 0x8B2 JUMP JUMPDEST CALLVALUE DUP1 ISZERO PUSH2 0x27F JUMPI PUSH1 0x0 DUP1 REVERT JUMPDEST POP PUSH2 0x2A3 PUSH2 0x28E CALLDATASIZE PUSH1 0x4 PUSH2 0x1B66 JUMP JUMPDEST PUSH1 0x0 SWAP1 DUP2 MSTORE PUSH1 0x20 DUP2 SWAP1 MSTORE PUSH1 0x40 SWAP1 KECCAK256 PUSH1 0x1 ADD SLOAD SWAP1 JUMP JUMPDEST PUSH1 0x40 MLOAD SWAP1 DUP2 MSTORE PUSH1 0x20 ADD PUSH2 0x22A JUMP JUMPDEST CALLVALUE DUP1 ISZERO PUSH2 0x2BD JUMPI PUSH1 0x0 DUP1 REVERT JUMPDEST POP PUSH2 0x1FC PUSH2 0x2CC CALLDATASIZE PUSH1 0x4 PUSH2 0x1B66 JUMP JUMPDEST PUSH2 0x938 JUMP JUMPDEST CALLVALUE DUP1 ISZERO PUSH2 0x2DD JUMPI PUSH1 0x0 DUP1 REVERT JUMPDEST POP PUSH2 0x1FC PUSH2 0x2EC CALLDATASIZE PUSH1 0x4 PUSH2 0x1B7E JUMP JUMPDEST PUSH2 0x949 JUMP JUMPDEST CALLVALUE DUP1 ISZERO PUSH2 0x2FD JUMPI PUSH1 0x0 DUP1 REVERT JUMPDEST POP PUSH2 0x1FC PUSH2 0x30C CALLDATASIZE PUSH1 0x4 PUSH2 0x1B66 JUMP JUMPDEST PUSH2 0x9B5 JUMP JUMPDEST CALLVALUE DUP1 ISZERO PUSH2 0x31D JUMPI PUSH1 0x0 DUP1 REVERT JUMPDEST POP PUSH2 0x1FC PUSH2 0x32C CALLDATASIZE PUSH1 0x4 PUSH2 0x1B7E JUMP JUMPDEST PUSH2 0xA06 JUMP JUMPDEST CALLVALUE DUP1 ISZERO PUSH2 0x33D JUMPI PUSH1 0x0 DUP1 REVERT JUMPDEST POP PUSH2 0x2A3 PUSH1 0x3 SLOAD DUP2 JUMP JUMPDEST CALLVALUE DUP1 ISZERO PUSH2 0x353 JUMPI PUSH1 0x0 DUP1 REVERT JUMPDEST POP PUSH2 0x1FC PUSH2 0x362 CALLDATASIZE PUSH1 0x4 PUSH2 0x1B7E JUMP JUMPDEST PUSH2 0xA30 JUMP JUMPDEST CALLVALUE DUP1 ISZERO PUSH2 0x373 JUMPI PUSH1 0x0 DUP1 REVERT JUMPDEST POP PUSH2 0x1FC PUSH2 0x382 CALLDATASIZE PUSH1 0x4 PUSH2 0x1AF1 JUMP JUMPDEST PUSH2 0xAB3 JUMP JUMPDEST CALLVALUE DUP1 ISZERO PUSH2 0x393 JUMPI PUSH1 0x0 DUP1 REVERT JUMPDEST POP PUSH2 0x3CF PUSH2 0x3A2 CALLDATASIZE PUSH1 0x4 PUSH2 0x1AF1 JUMP JUMPDEST PUSH1 0x1 PUSH1 0x1 PUSH1 0xA0 SHL SUB AND PUSH1 0x0 SWAP1 DUP2 MSTORE PUSH1 0x1 PUSH1 0x20 DUP2 SWAP1 MSTORE PUSH1 0x40 SWAP1 SWAP2 KECCAK256 DUP1 SLOAD SWAP2 ADD SLOAD PUSH1 0x1 PUSH1 0xA0 SHL SWAP1 SWAP2 DIV PUSH1 0xFF AND SWAP2 JUMP JUMPDEST PUSH1 0x40 DUP1 MLOAD SWAP3 ISZERO ISZERO DUP4 MSTORE PUSH1 0x20 DUP4 ADD SWAP2 SWAP1 SWAP2 MSTORE ADD PUSH2 0x22A JUMP JUMPDEST CALLVALUE DUP1 ISZERO PUSH2 0x3F2 JUMPI PUSH1 0x0 DUP1 REVERT JUMPDEST POP PUSH1 0x6 SLOAD PUSH2 0x406 SWAP1 PUSH1 0x1 PUSH1 0x1 PUSH1 0xA0 SHL SUB AND DUP2 JUMP JUMPDEST PUSH1 0x40 MLOAD PUSH1 0x1 PUSH1 0x1 PUSH1 0xA0 SHL SUB SWAP1 SWAP2 AND DUP2 MSTORE PUSH1 0x20 ADD PUSH2 0x22A JUMP JUMPDEST CALLVALUE DUP1 ISZERO PUSH2 0x42A JUMPI PUSH1 0x0 DUP1 REVERT JUMPDEST POP PUSH2 0x1FC PUSH2 0x439 CALLDATASIZE PUSH1 0x4 PUSH2 0x1B7E JUMP JUMPDEST PUSH2 0xB02 JUMP JUMPDEST CALLVALUE DUP1 ISZERO PUSH2 0x44A JUMPI PUSH1 0x0 DUP1 REVERT JUMPDEST POP PUSH1 0x7 SLOAD PUSH2 0x406 SWAP1 PUSH1 0x1 PUSH1 0x1 PUSH1 0xA0 SHL SUB AND DUP2 JUMP JUMPDEST CALLVALUE DUP1 ISZERO PUSH2 0x46A JUMPI PUSH1 0x0 DUP1 REVERT JUMPDEST POP PUSH2 0x1FC PUSH2 0xD75 JUMP JUMPDEST CALLVALUE DUP1 ISZERO PUSH2 0x47F JUMPI PUSH1 0x0 DUP1 REVERT JUMPDEST POP PUSH2 0x21E PUSH2 0x48E CALLDATASIZE PUSH1 0x4 PUSH2 0x1B7E JUMP JUMPDEST PUSH2 0xDFA JUMP JUMPDEST PUSH2 0x1FC PUSH2 0x4A1 CALLDATASIZE PUSH1 0x4 PUSH2 0x1B66 JUMP JUMPDEST PUSH2 0xE23 JUMP JUMPDEST CALLVALUE DUP1 ISZERO PUSH2 0x4B2 JUMPI PUSH1 0x0 DUP1 REVERT JUMPDEST POP PUSH2 0x1FC PUSH2 0x4C1 CALLDATASIZE PUSH1 0x4 PUSH2 0x1B7E JUMP JUMPDEST PUSH2 0x1056 JUMP JUMPDEST CALLVALUE DUP1 ISZERO PUSH2 0x4D2 JUMPI PUSH1 0x0 DUP1 REVERT JUMPDEST POP PUSH2 0x2A3 PUSH1 0x0 DUP2 JUMP JUMPDEST CALLVALUE DUP1 ISZERO PUSH2 0x4E7 JUMPI PUSH1 0x0 DUP1 REVERT JUMPDEST POP PUSH2 0x525 PUSH2 0x4F6 CALLDATASIZE PUSH1 0x4 PUSH2 0x1AF1 JUMP JUMPDEST PUSH1 0x1 PUSH1 0x20 DUP2 SWAP1 MSTORE PUSH1 0x0 SWAP2 DUP3 MSTORE PUSH1 0x40 SWAP1 SWAP2 KECCAK256 DUP1 SLOAD SWAP2 ADD SLOAD PUSH1 0x1 PUSH1 0x1 PUSH1 0xA0 SHL SUB DUP3 AND SWAP2 PUSH1 0x1 PUSH1 0xA0 SHL SWAP1 DIV PUSH1 0xFF AND SWAP1 DUP4 JUMP JUMPDEST PUSH1 0x40 DUP1 MLOAD PUSH1 0x1 PUSH1 0x1 PUSH1 0xA0 SHL SUB SWAP1 SWAP5 AND DUP5 MSTORE SWAP2 ISZERO ISZERO PUSH1 0x20 DUP5 ADD MSTORE SWAP1 DUP3 ADD MSTORE PUSH1 0x60 ADD PUSH2 0x22A JUMP JUMPDEST CALLVALUE DUP1 ISZERO PUSH2 0x556 JUMPI PUSH1 0x0 DUP1 REVERT JUMPDEST POP PUSH2 0x1FC PUSH2 0x565 CALLDATASIZE PUSH1 0x4 PUSH2 0x1B7E JUMP JUMPDEST PUSH2 0x127B JUMP JUMPDEST CALLVALUE DUP1 ISZERO PUSH2 0x576 JUMPI PUSH1 0x0 DUP1 REVERT JUMPDEST POP PUSH2 0x2A3 PUSH1 0x4 SLOAD DUP2 JUMP JUMPDEST CALLVALUE DUP1 ISZERO PUSH2 0x58C JUMPI PUSH1 0x0 DUP1 REVERT JUMPDEST POP PUSH2 0x5E8 PUSH2 0x59B CALLDATASIZE PUSH1 0x4 PUSH2 0x1B66 JUMP JUMPDEST PUSH1 0x2 PUSH1 0x20 DUP2 SWAP1 MSTORE PUSH1 0x0 SWAP2 DUP3 MSTORE PUSH1 0x40 SWAP1 SWAP2 KECCAK256 DUP1 SLOAD PUSH1 0x1 DUP3 ADD SLOAD SWAP3 DUP3 ADD SLOAD PUSH1 0x3 DUP4 ADD SLOAD PUSH1 0x4 DUP5 ADD SLOAD PUSH1 0x5 DUP6 ADD SLOAD PUSH1 0x6 SWAP1 SWAP6 ADD SLOAD PUSH1 0xFF SWAP1 SWAP5 AND SWAP6 SWAP5 SWAP3 SWAP4 SWAP2 SWAP3 SWAP1 SWAP2 PUSH1 0x1 PUSH1 0x1 PUSH1 0xA0 SHL SUB SWAP1 SWAP2 AND SWAP1 DUP8 JUMP JUMPDEST PUSH1 0x40 DUP1 MLOAD SWAP8 ISZERO ISZERO DUP9 MSTORE PUSH1 0x20 DUP9 ADD SWAP7 SWAP1 SWAP7 MSTORE SWAP5 DUP7 ADD SWAP4 SWAP1 SWAP4 MSTORE PUSH1 0x60 DUP6 ADD SWAP2 SWAP1 SWAP2 MSTORE PUSH1 0x80 DUP5 ADD MSTORE PUSH1 0x1 PUSH1 0x1 PUSH1 0xA0 SHL SUB AND PUSH1 0xA0 DUP4 ADD MSTORE PUSH1 0xC0 DUP3 ADD MSTORE PUSH1 0xE0 ADD PUSH2 0x22A JUMP JUMPDEST CALLVALUE DUP1 ISZERO PUSH2 0x634 JUMPI PUSH1 0x0 DUP1 REVERT JUMPDEST POP PUSH2 0x1FC PUSH2 0x643 CALLDATASIZE PUSH1 0x4 PUSH2 0x1B7E JUMP JUMPDEST PUSH2 0x1368 JUMP JUMPDEST CALLVALUE DUP1 ISZERO PUSH2 0x654 JUMPI PUSH1 0x0 DUP1 REVERT JUMPDEST POP PUSH2 0x21E PUSH2 0x663 CALLDATASIZE PUSH1 0x4 PUSH2 0x1AF1 JUMP JUMPDEST PUSH1 0x1 PUSH1 0x1 PUSH1 0xA0 SHL SUB AND PUSH1 0x0 SWAP1 DUP2 MSTORE PUSH1 0x1 PUSH1 0x20 MSTORE PUSH1 0x40 SWAP1 KECCAK256 SLOAD PUSH1 0x1 PUSH1 0xA0 SHL SWAP1 DIV PUSH1 0xFF AND SWAP1 JUMP JUMPDEST CALLVALUE DUP1 ISZERO PUSH2 0x694 JUMPI PUSH1 0x0 DUP1 REVERT JUMPDEST POP PUSH2 0x2A3 PUSH32 0x3496E2E73C4D42B75D702E60D9E48102720B8691234415963A5A857B86425D07 DUP2 JUMP JUMPDEST CALLVALUE DUP1 ISZERO PUSH2 0x6C8 JUMPI PUSH1 0x0 DUP1 REVERT JUMPDEST POP PUSH2 0x1FC PUSH2 0x6D7 CALLDATASIZE PUSH1 0x4 PUSH2 0x1B66 JUMP JUMPDEST PUSH2 0x138D JUMP JUMPDEST CALLVALUE DUP1 ISZERO PUSH2 0x6E8 JUMPI PUSH1 0x0 DUP1 REVERT JUMPDEST POP PUSH2 0x1FC PUSH2 0x6F7 CALLDATASIZE PUSH1 0x4 PUSH2 0x1BD1 JUMP JUMPDEST PUSH2 0x161B JUMP JUMPDEST CALLVALUE DUP1 ISZERO PUSH2 0x708 JUMPI PUSH1 0x0 DUP1 REVERT JUMPDEST POP PUSH2 0x1FC PUSH2 0x717 CALLDATASIZE PUSH1 0x4 PUSH2 0x1AF1 JUMP JUMPDEST PUSH2 0x16BB JUMP JUMPDEST PUSH1 0x0 PUSH2 0x727 DUP2 PUSH2 0x16E9 JUMP JUMPDEST PUSH1 0x0 DUP3 DUP2 MSTORE PUSH1 0x2 PUSH1 0x20 MSTORE PUSH1 0x40 SWAP1 DUP2 SWAP1 KECCAK256 PUSH1 0x1 PUSH1 0x4 SWAP1 SWAP2 ADD SSTORE MLOAD PUSH32 0x651A9760985EDC53055BF2462CB4437B9BE3DE87AA3EECF2C05782E8B58EBA19 SWAP1 PUSH2 0x76F SWAP1 DUP5 DUP2 MSTORE PUSH1 0x20 ADD SWAP1 JUMP JUMPDEST PUSH1 0x40 MLOAD DUP1 SWAP2 SUB SWAP1 LOG1 POP POP JUMP JUMPDEST PUSH1 0x0 PUSH1 0x1 PUSH1 0x1 PUSH1 0xE0 SHL SUB NOT DUP3 AND PUSH4 0x7965DB0B PUSH1 0xE0 SHL EQ DUP1 PUSH2 0x7AC JUMPI POP PUSH4 0x1FFC9A7 PUSH1 0xE0 SHL PUSH1 0x1 PUSH1 0x1 PUSH1 0xE0 SHL SUB NOT DUP4 AND EQ JUMPDEST SWAP3 SWAP2 POP POP JUMP JUMPDEST PUSH32 0x3496E2E73C4D42B75D702E60D9E48102720B8691234415963A5A857B86425D07 PUSH2 0x7DC DUP2 PUSH2 0x16E9 JUMP JUMPDEST PUSH1 0x1 PUSH1 0x1 PUSH1 0xA0 SHL SUB DUP5 AND PUSH1 0x0 DUP2 DUP2 MSTORE PUSH1 0x1 PUSH1 0x20 DUP2 SWAP1 MSTORE PUSH1 0x40 SWAP1 SWAP2 KECCAK256 SWAP1 DUP2 ADD DUP6 SWAP1 SSTORE DUP1 SLOAD PUSH1 0x1 PUSH1 0x1 PUSH1 0xA8 SHL SUB NOT AND PUSH1 0x1 PUSH1 0xA0 SHL DUP6 ISZERO ISZERO MUL PUSH1 0x1 PUSH1 0x1 PUSH1 0xA0 SHL SUB NOT AND OR DUP3 OR SWAP1 SSTORE DUP5 SWAP1 PUSH4 0x95EA7B3 CALLER PUSH1 0x40 MLOAD PUSH1 0x1 PUSH1 0x1 PUSH1 0xE0 SHL SUB NOT PUSH1 0xE0 DUP5 SWAP1 SHL AND DUP2 MSTORE PUSH1 0x1 PUSH1 0x1 PUSH1 0xA0 SHL SUB SWAP1 SWAP2 AND PUSH1 0x4 DUP3 ADD MSTORE PUSH1 0x0 NOT PUSH1 0x24 DUP3 ADD MSTORE PUSH1 0x44 ADD PUSH1 0x20 PUSH1 0x40 MLOAD DUP1 DUP4 SUB DUP2 PUSH1 0x0 DUP8 DUP1 EXTCODESIZE ISZERO DUP1 ISZERO PUSH2 0x872 JUMPI PUSH1 0x0 DUP1 REVERT JUMPDEST POP GAS CALL ISZERO DUP1 ISZERO PUSH2 0x886 JUMPI RETURNDATASIZE PUSH1 0x0 DUP1 RETURNDATACOPY RETURNDATASIZE PUSH1 0x0 REVERT JUMPDEST POP POP POP POP PUSH1 0x40 MLOAD RETURNDATASIZE PUSH1 0x1F NOT PUSH1 0x1F DUP3 ADD AND DUP3 ADD DUP1 PUSH1 0x40 MSTORE POP DUP2 ADD SWAP1 PUSH2 0x8AA SWAP2 SWAP1 PUSH2 0x1B4A JUMP JUMPDEST POP POP POP POP POP POP JUMP JUMPDEST PUSH1 0x0 PUSH2 0x8BD DUP2 PUSH2 0x16E9 JUMP JUMPDEST PUSH1 0x0 DUP3 DUP2 MSTORE PUSH1 0x2 PUSH1 0x20 DUP2 DUP2 MSTORE PUSH1 0x40 DUP1 DUP5 KECCAK256 DUP1 SLOAD PUSH1 0xFF NOT AND DUP2 SSTORE PUSH1 0x1 DUP2 ADD DUP6 SWAP1 SSTORE SWAP3 DUP4 ADD DUP5 SWAP1 SSTORE PUSH1 0x3 DUP4 ADD DUP5 SWAP1 SSTORE PUSH1 0x4 DUP4 ADD DUP5 SWAP1 SSTORE PUSH1 0x5 DUP4 ADD DUP1 SLOAD PUSH1 0x1 PUSH1 0x1 PUSH1 0xA0 SHL SUB NOT AND SWAP1 SSTORE PUSH1 0x6 SWAP1 SWAP3 ADD SWAP3 SWAP1 SWAP3 SSTORE MLOAD DUP4 DUP2 MSTORE PUSH32 0xD0B153E02E23F4F21D020465B4DAC7B1114893D05DB395ED2511F879C3AC90B4 SWAP2 ADD PUSH2 0x76F JUMP JUMPDEST PUSH1 0x0 PUSH2 0x943 DUP2 PUSH2 0x16E9 JUMP JUMPDEST POP PUSH1 0x4 SSTORE JUMP JUMPDEST PUSH1 0x0 PUSH2 0x954 DUP2 PUSH2 0x16E9 JUMP JUMPDEST PUSH1 0x0 DUP4 DUP2 MSTORE PUSH1 0x2 PUSH1 0x20 SWAP1 DUP2 MSTORE PUSH1 0x40 DUP1 DUP4 KECCAK256 PUSH1 0x1 PUSH1 0x1 PUSH1 0xA0 SHL SUB DUP7 AND DUP1 DUP6 MSTORE PUSH1 0x9 SWAP1 SWAP2 ADD DUP4 MSTORE DUP2 DUP5 KECCAK256 SWAP4 SWAP1 SWAP4 SSTORE MLOAD SWAP2 DUP3 MSTORE PUSH32 0x34AEEFD5030BE05FE70EEBC8866D82F935A308EB9F334CBA88F5E3BEA1A0CAE8 SWAP2 ADD JUMPDEST PUSH1 0x40 MLOAD DUP1 SWAP2 SUB SWAP1 LOG1 POP POP POP JUMP JUMPDEST PUSH1 0x0 PUSH2 0x9C0 DUP2 PUSH2 0x16E9 JUMP JUMPDEST PUSH1 0x0 DUP3 DUP2 MSTORE PUSH1 0x2 PUSH1 0x20 MSTORE PUSH1 0x40 DUP1 DUP3 KECCAK256 PUSH1 0x4 ADD SWAP2 SWAP1 SWAP2 SSTORE MLOAD PUSH32 0x827E8BFF9F46048F8351964D2C871D09E4F4231513CF2FCB786649C68732E24F SWAP1 PUSH2 0x76F SWAP1 DUP5 DUP2 MSTORE PUSH1 0x20 ADD SWAP1 JUMP JUMPDEST PUSH1 0x0 DUP3 DUP2 MSTORE PUSH1 0x20 DUP2 SWAP1 MSTORE PUSH1 0x40 SWAP1 KECCAK256 PUSH1 0x1 ADD SLOAD PUSH2 0xA21 DUP2 PUSH2 0x16E9 JUMP JUMPDEST PUSH2 0xA2B DUP4 DUP4 PUSH2 0x16F3 JUMP JUMPDEST POP POP POP JUMP JUMPDEST PUSH1 0x1 PUSH1 0x1 PUSH1 0xA0 SHL SUB DUP2 AND CALLER EQ PUSH2 0xAA5 JUMPI PUSH1 0x40 MLOAD PUSH3 0x461BCD PUSH1 0xE5 SHL DUP2 MSTORE PUSH1 0x20 PUSH1 0x4 DUP3 ADD MSTORE PUSH1 0x2F PUSH1 0x24 DUP3 ADD MSTORE PUSH32 0x416363657373436F6E74726F6C3A2063616E206F6E6C792072656E6F756E6365 PUSH1 0x44 DUP3 ADD MSTORE PUSH15 0x103937B632B9903337B91039B2B633 PUSH1 0x89 SHL PUSH1 0x64 DUP3 ADD MSTORE PUSH1 0x84 ADD JUMPDEST PUSH1 0x40 MLOAD DUP1 SWAP2 SUB SWAP1 REVERT JUMPDEST PUSH2 0xAAF DUP3 DUP3 PUSH2 0x1777 JUMP JUMPDEST POP POP JUMP JUMPDEST PUSH32 0x3496E2E73C4D42B75D702E60D9E48102720B8691234415963A5A857B86425D07 PUSH2 0xADD DUP2 PUSH2 0x16E9 JUMP JUMPDEST POP PUSH1 0x1 PUSH1 0x1 PUSH1 0xA0 SHL SUB AND PUSH1 0x0 SWAP1 DUP2 MSTORE PUSH1 0x1 PUSH1 0x20 MSTORE PUSH1 0x40 SWAP1 KECCAK256 DUP1 SLOAD PUSH1 0xFF PUSH1 0xA0 SHL NOT AND SWAP1 SSTORE JUMP JUMPDEST PUSH1 0x0 PUSH2 0xB0D DUP2 PUSH2 0x16E9 JUMP JUMPDEST PUSH1 0x0 DUP4 DUP2 MSTORE PUSH1 0x2 PUSH1 0x20 MSTORE PUSH1 0x40 SWAP1 KECCAK256 SLOAD PUSH1 0xFF AND PUSH2 0xA2B JUMPI PUSH1 0x0 DUP4 DUP2 MSTORE PUSH1 0x2 PUSH1 0x20 SWAP1 DUP2 MSTORE PUSH1 0x40 DUP1 DUP4 KECCAK256 PUSH1 0x1 PUSH1 0x1 PUSH1 0xA0 SHL SUB DUP7 AND DUP5 MSTORE PUSH1 0x8 ADD SWAP1 SWAP2 MSTORE SWAP1 KECCAK256 SLOAD PUSH1 0x1 EQ PUSH2 0xBB2 JUMPI PUSH1 0x40 MLOAD PUSH3 0x461BCD PUSH1 0xE5 SHL DUP2 MSTORE PUSH1 0x20 PUSH1 0x4 DUP3 ADD MSTORE PUSH1 0x31 PUSH1 0x24 DUP3 ADD MSTORE PUSH32 0x54726F706879204B696E67204172636164653A204E6F74207265676973746572 PUSH1 0x44 DUP3 ADD MSTORE PUSH17 0x32B2103337B9103A3434B99033B0B6B297 PUSH1 0x79 SHL PUSH1 0x64 DUP3 ADD MSTORE PUSH1 0x84 ADD PUSH2 0xA9C JUMP JUMPDEST PUSH1 0x0 DUP4 DUP2 MSTORE PUSH1 0x2 PUSH1 0x20 SWAP1 DUP2 MSTORE PUSH1 0x40 DUP1 DUP4 KECCAK256 PUSH1 0x5 DUP2 ADD SLOAD PUSH1 0x1 PUSH1 0x1 PUSH1 0xA0 SHL SUB SWAP1 DUP2 AND DUP6 MSTORE PUSH1 0x1 SWAP1 SWAP4 MSTORE SWAP3 KECCAK256 SLOAD AND PUSH4 0xA9059CBB CALLER PUSH1 0x3 DUP5 ADD SLOAD PUSH1 0x40 MLOAD PUSH1 0x1 PUSH1 0x1 PUSH1 0xE0 SHL SUB NOT PUSH1 0xE0 DUP6 SWAP1 SHL AND DUP2 MSTORE PUSH1 0x1 PUSH1 0x1 PUSH1 0xA0 SHL SUB SWAP1 SWAP3 AND PUSH1 0x4 DUP4 ADD MSTORE PUSH1 0x24 DUP3 ADD MSTORE PUSH1 0x44 ADD PUSH1 0x20 PUSH1 0x40 MLOAD DUP1 DUP4 SUB DUP2 PUSH1 0x0 DUP8 DUP1 EXTCODESIZE ISZERO DUP1 ISZERO PUSH2 0xC2F JUMPI PUSH1 0x0 DUP1 REVERT JUMPDEST POP GAS CALL ISZERO DUP1 ISZERO PUSH2 0xC43 JUMPI RETURNDATASIZE PUSH1 0x0 DUP1 RETURNDATACOPY RETURNDATASIZE PUSH1 0x0 REVERT JUMPDEST POP POP POP POP PUSH1 0x40 MLOAD RETURNDATASIZE PUSH1 0x1F NOT PUSH1 0x1F DUP3 ADD AND DUP3 ADD DUP1 PUSH1 0x40 MSTORE POP DUP2 ADD SWAP1 PUSH2 0xC67 SWAP2 SWAP1 PUSH2 0x1B4A JUMP JUMPDEST PUSH2 0xCBE JUMPI PUSH1 0x40 MLOAD PUSH3 0x461BCD PUSH1 0xE5 SHL DUP2 MSTORE PUSH1 0x20 PUSH1 0x4 DUP3 ADD MSTORE PUSH1 0x22 PUSH1 0x24 DUP3 ADD MSTORE PUSH32 0x54726F706879204B696E67204172636164653A20526566756E64206661696C65 PUSH1 0x44 DUP3 ADD MSTORE PUSH2 0x3217 PUSH1 0xF1 SHL PUSH1 0x64 DUP3 ADD MSTORE PUSH1 0x84 ADD PUSH2 0xA9C JUMP JUMPDEST PUSH1 0x3 DUP2 ADD SLOAD PUSH1 0x40 DUP1 MLOAD DUP7 DUP2 MSTORE PUSH1 0x1 PUSH1 0x1 PUSH1 0xA0 SHL SUB DUP7 AND PUSH1 0x20 DUP3 ADD MSTORE DUP1 DUP3 ADD SWAP3 SWAP1 SWAP3 MSTORE MLOAD PUSH32 0x21E12A7CAD0DA5928167E1084EA4D5FDF8D9AF66657A2543A9AC76A0CA081477 SWAP2 DUP2 SWAP1 SUB PUSH1 0x60 ADD SWAP1 LOG1 DUP1 PUSH1 0x3 ADD SLOAD DUP2 PUSH1 0x6 ADD PUSH1 0x0 DUP3 DUP3 SLOAD PUSH2 0xD23 SWAP2 SWAP1 PUSH2 0x1E7F JUMP JUMPDEST SWAP1 SWAP2 SSTORE POP POP PUSH1 0x1 PUSH1 0x1 PUSH1 0xA0 SHL SUB DUP4 AND PUSH1 0x0 SWAP1 DUP2 MSTORE PUSH1 0x7 DUP3 ADD PUSH1 0x20 SWAP1 DUP2 MSTORE PUSH1 0x40 DUP1 DUP4 KECCAK256 DUP4 SWAP1 SSTORE PUSH1 0x8 DUP5 ADD SWAP1 SWAP2 MSTORE DUP2 KECCAK256 DUP2 SWAP1 SSTORE PUSH1 0x1 DUP1 DUP4 ADD DUP1 SLOAD SWAP2 SWAP3 SWAP1 SWAP2 PUSH2 0xD6A SWAP1 DUP5 SWAP1 PUSH2 0x1E7F JUMP JUMPDEST SWAP1 SWAP2 SSTORE POP POP POP POP POP POP JUMP JUMPDEST PUSH1 0x0 PUSH2 0xD80 DUP2 PUSH2 0x16E9 JUMP JUMPDEST SELFBALANCE DUP1 ISZERO PUSH2 0xAAF JUMPI PUSH1 0x7 SLOAD PUSH1 0x40 MLOAD PUSH1 0x0 SWAP2 PUSH1 0x1 PUSH1 0x1 PUSH1 0xA0 SHL SUB AND SWAP1 DUP4 SWAP1 DUP4 DUP2 DUP2 DUP2 DUP6 DUP8 GAS CALL SWAP3 POP POP POP RETURNDATASIZE DUP1 PUSH1 0x0 DUP2 EQ PUSH2 0xDD4 JUMPI PUSH1 0x40 MLOAD SWAP2 POP PUSH1 0x1F NOT PUSH1 0x3F RETURNDATASIZE ADD AND DUP3 ADD PUSH1 0x40 MSTORE RETURNDATASIZE DUP3 MSTORE RETURNDATASIZE PUSH1 0x0 PUSH1 0x20 DUP5 ADD RETURNDATACOPY PUSH2 0xDD9 JUMP JUMPDEST PUSH1 0x60 SWAP2 POP JUMPDEST POP POP SWAP1 POP DUP1 PUSH2 0xA2B JUMPI PUSH1 0x40 MLOAD PUSH3 0x461BCD PUSH1 0xE5 SHL DUP2 MSTORE PUSH1 0x4 ADD PUSH2 0xA9C SWAP1 PUSH2 0x1D13 JUMP JUMPDEST PUSH1 0x0 SWAP2 DUP3 MSTORE PUSH1 0x20 DUP3 DUP2 MSTORE PUSH1 0x40 DUP1 DUP5 KECCAK256 PUSH1 0x1 PUSH1 0x1 PUSH1 0xA0 SHL SUB SWAP4 SWAP1 SWAP4 AND DUP5 MSTORE SWAP2 SWAP1 MSTORE SWAP1 KECCAK256 SLOAD PUSH1 0xFF AND SWAP1 JUMP JUMPDEST PUSH1 0x0 DUP2 DUP2 MSTORE PUSH1 0x2 PUSH1 0x20 SWAP1 DUP2 MSTORE PUSH1 0x40 DUP1 DUP4 KECCAK256 CALLER DUP5 MSTORE PUSH1 0x9 ADD SWAP1 SWAP2 MSTORE SWAP1 KECCAK256 SLOAD PUSH1 0x1 EQ PUSH2 0xE5F JUMPI PUSH1 0x40 MLOAD PUSH3 0x461BCD PUSH1 0xE5 SHL DUP2 MSTORE PUSH1 0x4 ADD PUSH2 0xA9C SWAP1 PUSH2 0x1DE7 JUMP JUMPDEST PUSH1 0x0 DUP2 DUP2 MSTORE PUSH1 0x2 PUSH1 0x20 MSTORE PUSH1 0x40 SWAP1 KECCAK256 PUSH1 0x4 ADD SLOAD PUSH1 0x1 EQ PUSH2 0xEC0 JUMPI PUSH1 0x40 MLOAD PUSH3 0x461BCD PUSH1 0xE5 SHL DUP2 MSTORE PUSH1 0x20 PUSH1 0x4 DUP3 ADD DUP2 SWAP1 MSTORE PUSH1 0x24 DUP3 ADD MSTORE PUSH32 0x54726F706879204B696E67204172636164653A2047616D6520636C6F7365642E PUSH1 0x44 DUP3 ADD MSTORE PUSH1 0x64 ADD PUSH2 0xA9C JUMP JUMPDEST PUSH1 0x0 DUP2 DUP2 MSTORE PUSH1 0x2 PUSH1 0x20 DUP2 SWAP1 MSTORE PUSH1 0x40 SWAP1 SWAP2 KECCAK256 PUSH1 0x1 DUP2 ADD SLOAD SWAP2 ADD SLOAD GT PUSH2 0xEF6 JUMPI PUSH1 0x40 MLOAD PUSH3 0x461BCD PUSH1 0xE5 SHL DUP2 MSTORE PUSH1 0x4 ADD PUSH2 0xA9C SWAP1 PUSH2 0x1D5A JUMP JUMPDEST PUSH1 0x0 DUP2 DUP2 MSTORE PUSH1 0x2 PUSH1 0x20 SWAP1 DUP2 MSTORE PUSH1 0x40 DUP1 DUP4 KECCAK256 CALLER DUP5 MSTORE PUSH1 0x8 ADD SWAP1 SWAP2 MSTORE SWAP1 KECCAK256 SLOAD ISZERO PUSH2 0xF30 JUMPI PUSH1 0x40 MLOAD PUSH3 0x461BCD PUSH1 0xE5 SHL DUP2 MSTORE PUSH1 0x4 ADD PUSH2 0xA9C SWAP1 PUSH2 0x1CCC JUMP JUMPDEST PUSH1 0x0 DUP2 DUP2 MSTORE PUSH1 0x2 PUSH1 0x20 DUP2 SWAP1 MSTORE PUSH1 0x40 SWAP1 SWAP2 KECCAK256 ADD SLOAD PUSH2 0xF5F JUMPI PUSH1 0x40 MLOAD PUSH3 0x461BCD PUSH1 0xE5 SHL DUP2 MSTORE PUSH1 0x4 ADD PUSH2 0xA9C SWAP1 PUSH2 0x1DA4 JUMP JUMPDEST PUSH1 0x0 DUP2 DUP2 MSTORE PUSH1 0x2 PUSH1 0x20 MSTORE PUSH1 0x40 SWAP1 KECCAK256 PUSH1 0x3 ADD SLOAD CALLVALUE EQ PUSH2 0xFD8 JUMPI PUSH1 0x40 MLOAD PUSH3 0x461BCD PUSH1 0xE5 SHL DUP2 MSTORE PUSH1 0x20 PUSH1 0x4 DUP3 ADD MSTORE PUSH1 0x30 PUSH1 0x24 DUP3 ADD MSTORE PUSH32 0x54726F706879204B696E67204172636164653A204D757374206D617463682072 PUSH1 0x44 DUP3 ADD MSTORE PUSH16 0x32B3B4B9BA3930BA34B7B7103332B297 PUSH1 0x81 SHL PUSH1 0x64 DUP3 ADD MSTORE PUSH1 0x84 ADD PUSH2 0xA9C JUMP JUMPDEST PUSH1 0x6 SLOAD PUSH1 0x40 MLOAD PUSH1 0x0 SWAP2 PUSH1 0x1 PUSH1 0x1 PUSH1 0xA0 SHL SUB AND SWAP1 CALLVALUE SWAP1 DUP4 DUP2 DUP2 DUP2 DUP6 DUP8 GAS CALL SWAP3 POP POP POP RETURNDATASIZE DUP1 PUSH1 0x0 DUP2 EQ PUSH2 0x1025 JUMPI PUSH1 0x40 MLOAD SWAP2 POP PUSH1 0x1F NOT PUSH1 0x3F RETURNDATASIZE ADD AND DUP3 ADD PUSH1 0x40 MSTORE RETURNDATASIZE DUP3 MSTORE RETURNDATASIZE PUSH1 0x0 PUSH1 0x20 DUP5 ADD RETURNDATACOPY PUSH2 0x102A JUMP JUMPDEST PUSH1 0x60 SWAP2 POP JUMPDEST POP POP SWAP1 POP DUP1 PUSH2 0x104B JUMPI PUSH1 0x40 MLOAD PUSH3 0x461BCD PUSH1 0xE5 SHL DUP2 MSTORE PUSH1 0x4 ADD PUSH2 0xA9C SWAP1 PUSH2 0x1D13 JUMP JUMPDEST PUSH2 0xAAF DUP3 CALLER CALLVALUE PUSH2 0x17DC JUMP JUMPDEST PUSH1 0x0 PUSH2 0x1061 DUP2 PUSH2 0x16E9 JUMP JUMPDEST PUSH1 0x0 DUP4 DUP2 MSTORE PUSH1 0x2 PUSH1 0x20 MSTORE PUSH1 0x40 SWAP1 KECCAK256 SLOAD PUSH1 0xFF AND PUSH2 0x1272 JUMPI PUSH1 0x0 DUP4 DUP2 MSTORE PUSH1 0x2 PUSH1 0x20 SWAP1 DUP2 MSTORE PUSH1 0x40 DUP1 DUP4 KECCAK256 PUSH1 0x1 PUSH1 0x1 PUSH1 0xA0 SHL SUB DUP7 AND DUP5 MSTORE PUSH1 0x7 ADD DUP3 MSTORE SWAP2 DUP3 SWAP1 KECCAK256 SLOAD SWAP2 MLOAD SWAP2 DUP3 MSTORE PUSH32 0x557809284DA7314475B1582804AE28E5F1349EFC1FE970EA25D50FCE75EB4F43 SWAP2 ADD PUSH1 0x40 MLOAD DUP1 SWAP2 SUB SWAP1 LOG1 PUSH1 0x0 DUP4 DUP2 MSTORE PUSH1 0x2 PUSH1 0x20 SWAP1 DUP2 MSTORE PUSH1 0x40 DUP1 DUP4 KECCAK256 PUSH1 0x1 PUSH1 0x1 PUSH1 0xA0 SHL SUB DUP7 AND DUP5 MSTORE PUSH1 0x8 ADD SWAP1 SWAP2 MSTORE SWAP1 KECCAK256 SLOAD PUSH1 0x1 EQ PUSH2 0x115C JUMPI PUSH1 0x40 MLOAD PUSH3 0x461BCD PUSH1 0xE5 SHL DUP2 MSTORE PUSH1 0x20 PUSH1 0x4 DUP3 ADD MSTORE PUSH1 0x30 PUSH1 0x24 DUP3 ADD MSTORE PUSH32 0x54726F706879204B696E67204172636164653A204E6F74207265676973746572 PUSH1 0x44 DUP3 ADD MSTORE PUSH16 0x656420666F7220746869732067616D65 PUSH1 0x80 SHL PUSH1 0x64 DUP3 ADD MSTORE PUSH1 0x84 ADD PUSH2 0xA9C JUMP JUMPDEST PUSH1 0x5 SLOAD PUSH1 0x4 SLOAD PUSH1 0x0 DUP6 DUP2 MSTORE PUSH1 0x2 PUSH1 0x20 MSTORE PUSH1 0x40 DUP2 KECCAK256 PUSH1 0x6 ADD SLOAD SWAP1 SWAP3 SWAP2 DUP3 SWAP2 PUSH2 0x1183 SWAP2 SWAP1 PUSH2 0x1E60 JUMP JUMPDEST PUSH2 0x118D SWAP2 SWAP1 PUSH2 0x1E40 JUMP JUMPDEST PUSH2 0x1197 SWAP2 SWAP1 PUSH2 0x1E40 JUMP JUMPDEST PUSH1 0x0 DUP6 DUP2 MSTORE PUSH1 0x2 PUSH1 0x20 MSTORE PUSH1 0x40 DUP2 KECCAK256 PUSH1 0x6 ADD SLOAD SWAP2 SWAP3 POP SWAP1 PUSH2 0x11B8 SWAP1 DUP4 SWAP1 PUSH2 0x1E7F JUMP JUMPDEST SWAP1 POP SELFBALANCE DUP2 DUP2 LT ISZERO PUSH2 0x11C7 JUMPI DUP1 SWAP2 POP JUMPDEST PUSH1 0x0 DUP6 PUSH1 0x1 PUSH1 0x1 PUSH1 0xA0 SHL SUB AND DUP4 PUSH1 0x40 MLOAD PUSH1 0x0 PUSH1 0x40 MLOAD DUP1 DUP4 SUB DUP2 DUP6 DUP8 GAS CALL SWAP3 POP POP POP RETURNDATASIZE DUP1 PUSH1 0x0 DUP2 EQ PUSH2 0x1214 JUMPI PUSH1 0x40 MLOAD SWAP2 POP PUSH1 0x1F NOT PUSH1 0x3F RETURNDATASIZE ADD AND DUP3 ADD PUSH1 0x40 MSTORE RETURNDATASIZE DUP3 MSTORE RETURNDATASIZE PUSH1 0x0 PUSH1 0x20 DUP5 ADD RETURNDATACOPY PUSH2 0x1219 JUMP JUMPDEST PUSH1 0x60 SWAP2 POP JUMPDEST POP POP SWAP1 POP DUP1 PUSH2 0x123A JUMPI PUSH1 0x40 MLOAD PUSH3 0x461BCD PUSH1 0xE5 SHL DUP2 MSTORE PUSH1 0x4 ADD PUSH2 0xA9C SWAP1 PUSH2 0x1D13 JUMP JUMPDEST PUSH1 0x40 MLOAD DUP4 DUP2 MSTORE PUSH32 0x22427047E1A674A9AFF59700A2C8D00EA96E017DDF9236690BDEDF1F21F28D9D SWAP1 PUSH1 0x20 ADD PUSH1 0x40 MLOAD DUP1 SWAP2 SUB SWAP1 LOG1 POP POP POP POP JUMPDEST PUSH2 0xA2B DUP4 PUSH2 0x9B5 JUMP JUMPDEST PUSH1 0x0 PUSH2 0x1286 DUP2 PUSH2 0x16E9 JUMP JUMPDEST PUSH1 0x0 DUP4 DUP2 MSTORE PUSH1 0x2 PUSH1 0x20 SWAP1 DUP2 MSTORE PUSH1 0x40 DUP1 DUP4 KECCAK256 PUSH1 0x1 PUSH1 0x1 PUSH1 0xA0 SHL SUB DUP7 AND DUP5 MSTORE PUSH1 0x9 ADD SWAP1 SWAP2 MSTORE SWAP1 KECCAK256 SLOAD PUSH1 0x1 EQ ISZERO PUSH2 0x1308 JUMPI PUSH1 0x40 MLOAD PUSH3 0x461BCD PUSH1 0xE5 SHL DUP2 MSTORE PUSH1 0x20 PUSH1 0x4 DUP3 ADD MSTORE PUSH1 0x23 PUSH1 0x24 DUP3 ADD MSTORE PUSH32 0x54726F706879204B696E67204172636164653A20416C72656164792073656174 PUSH1 0x44 DUP3 ADD MSTORE PUSH3 0x32B217 PUSH1 0xE9 SHL PUSH1 0x64 DUP3 ADD MSTORE PUSH1 0x84 ADD PUSH2 0xA9C JUMP JUMPDEST PUSH1 0x0 DUP4 DUP2 MSTORE PUSH1 0x2 PUSH1 0x20 SWAP1 DUP2 MSTORE PUSH1 0x40 DUP1 DUP4 KECCAK256 PUSH1 0x1 PUSH1 0x1 PUSH1 0xA0 SHL SUB DUP7 AND DUP1 DUP6 MSTORE PUSH1 0x9 SWAP1 SWAP2 ADD DUP4 MSTORE SWAP3 DUP2 SWAP1 KECCAK256 PUSH1 0x1 SWAP1 SSTORE DUP1 MLOAD SWAP3 DUP4 MSTORE SWAP1 DUP3 ADD DUP6 SWAP1 MSTORE PUSH32 0x9F2DEEFFF0A36949D580CDD4BA9959B4A94786E786BAD5650001B58B625FBBB1 SWAP2 ADD PUSH2 0x9A8 JUMP JUMPDEST PUSH1 0x0 DUP3 DUP2 MSTORE PUSH1 0x20 DUP2 SWAP1 MSTORE PUSH1 0x40 SWAP1 KECCAK256 PUSH1 0x1 ADD SLOAD PUSH2 0x1383 DUP2 PUSH2 0x16E9 JUMP JUMPDEST PUSH2 0xA2B DUP4 DUP4 PUSH2 0x1777 JUMP JUMPDEST PUSH1 0x0 DUP2 DUP2 MSTORE PUSH1 0x2 PUSH1 0x20 SWAP1 DUP2 MSTORE PUSH1 0x40 DUP1 DUP4 KECCAK256 CALLER DUP5 MSTORE PUSH1 0x9 ADD SWAP1 SWAP2 MSTORE SWAP1 KECCAK256 SLOAD PUSH1 0x1 EQ PUSH2 0x13C9 JUMPI PUSH1 0x40 MLOAD PUSH3 0x461BCD PUSH1 0xE5 SHL DUP2 MSTORE PUSH1 0x4 ADD PUSH2 0xA9C SWAP1 PUSH2 0x1DE7 JUMP JUMPDEST PUSH1 0x0 DUP2 DUP2 MSTORE PUSH1 0x2 PUSH1 0x20 MSTORE PUSH1 0x40 SWAP1 KECCAK256 PUSH1 0x4 ADD SLOAD PUSH1 0x1 EQ PUSH2 0x142A JUMPI PUSH1 0x40 MLOAD PUSH3 0x461BCD PUSH1 0xE5 SHL DUP2 MSTORE PUSH1 0x20 PUSH1 0x4 DUP3 ADD DUP2 SWAP1 MSTORE PUSH1 0x24 DUP3 ADD MSTORE PUSH32 0x54726F706879204B696E67204172636164653A2047616D6520636C6F7365642E PUSH1 0x44 DUP3 ADD MSTORE PUSH1 0x64 ADD PUSH2 0xA9C JUMP JUMPDEST PUSH1 0x0 DUP2 DUP2 MSTORE PUSH1 0x2 PUSH1 0x20 DUP2 SWAP1 MSTORE PUSH1 0x40 SWAP1 SWAP2 KECCAK256 PUSH1 0x1 DUP2 ADD SLOAD SWAP2 ADD SLOAD GT PUSH2 0x1460 JUMPI PUSH1 0x40 MLOAD PUSH3 0x461BCD PUSH1 0xE5 SHL DUP2 MSTORE PUSH1 0x4 ADD PUSH2 0xA9C SWAP1 PUSH2 0x1D5A JUMP JUMPDEST PUSH1 0x0 DUP2 DUP2 MSTORE PUSH1 0x2 PUSH1 0x20 SWAP1 DUP2 MSTORE PUSH1 0x40 DUP1 DUP4 KECCAK256 CALLER DUP5 MSTORE PUSH1 0x8 ADD SWAP1 SWAP2 MSTORE SWAP1 KECCAK256 SLOAD ISZERO PUSH2 0x149A JUMPI PUSH1 0x40 MLOAD PUSH3 0x461BCD PUSH1 0xE5 SHL DUP2 MSTORE PUSH1 0x4 ADD PUSH2 0xA9C SWAP1 PUSH2 0x1CCC JUMP JUMPDEST PUSH1 0x0 DUP2 DUP2 MSTORE PUSH1 0x2 PUSH1 0x20 DUP2 SWAP1 MSTORE PUSH1 0x40 SWAP1 SWAP2 KECCAK256 ADD SLOAD PUSH2 0x14C9 JUMPI PUSH1 0x40 MLOAD PUSH3 0x461BCD PUSH1 0xE5 SHL DUP2 MSTORE PUSH1 0x4 ADD PUSH2 0xA9C SWAP1 PUSH2 0x1DA4 JUMP JUMPDEST PUSH1 0x0 DUP2 DUP2 MSTORE PUSH1 0x2 PUSH1 0x20 SWAP1 DUP2 MSTORE PUSH1 0x40 DUP1 DUP4 KECCAK256 PUSH1 0x5 ADD SLOAD PUSH1 0x1 PUSH1 0x1 PUSH1 0xA0 SHL SUB SWAP1 DUP2 AND DUP5 MSTORE PUSH1 0x1 SWAP1 SWAP3 MSTORE SWAP1 SWAP2 KECCAK256 SLOAD AND PUSH4 0x23B872DD CALLER PUSH1 0x0 DUP5 DUP2 MSTORE PUSH1 0x2 PUSH1 0x20 MSTORE PUSH1 0x40 SWAP1 DUP2 SWAP1 KECCAK256 PUSH1 0x3 ADD SLOAD SWAP1 MLOAD PUSH1 0xE0 DUP5 SWAP1 SHL PUSH1 0x1 PUSH1 0x1 PUSH1 0xE0 SHL SUB NOT AND DUP2 MSTORE PUSH1 0x1 PUSH1 0x1 PUSH1 0xA0 SHL SUB SWAP1 SWAP3 AND PUSH1 0x4 DUP4 ADD MSTORE ADDRESS PUSH1 0x24 DUP4 ADD MSTORE PUSH1 0x44 DUP3 ADD MSTORE PUSH1 0x64 ADD PUSH1 0x20 PUSH1 0x40 MLOAD DUP1 DUP4 SUB DUP2 PUSH1 0x0 DUP8 DUP1 EXTCODESIZE ISZERO DUP1 ISZERO PUSH2 0x155A JUMPI PUSH1 0x0 DUP1 REVERT JUMPDEST POP GAS CALL ISZERO DUP1 ISZERO PUSH2 0x156E JUMPI RETURNDATASIZE PUSH1 0x0 DUP1 RETURNDATACOPY RETURNDATASIZE PUSH1 0x0 REVERT JUMPDEST POP POP POP POP PUSH1 0x40 MLOAD RETURNDATASIZE PUSH1 0x1F NOT PUSH1 0x1F DUP3 ADD AND DUP3 ADD DUP1 PUSH1 0x40 MSTORE POP DUP2 ADD SWAP1 PUSH2 0x1592 SWAP2 SWAP1 PUSH2 0x1B4A JUMP JUMPDEST PUSH2 0x15F9 JUMPI PUSH1 0x40 MLOAD PUSH3 0x461BCD PUSH1 0xE5 SHL DUP2 MSTORE PUSH1 0x20 PUSH1 0x4 DUP3 ADD MSTORE PUSH1 0x32 PUSH1 0x24 DUP3 ADD MSTORE PUSH32 0x54726F706879204B696E67204172636164653A204D75737420617070726F7665 PUSH1 0x44 DUP3 ADD MSTORE PUSH18 0x103932B3B4B9BA3930BA34B7B7103332B297 PUSH1 0x71 SHL PUSH1 0x64 DUP3 ADD MSTORE PUSH1 0x84 ADD PUSH2 0xA9C JUMP JUMPDEST PUSH1 0x0 DUP2 DUP2 MSTORE PUSH1 0x2 PUSH1 0x20 MSTORE PUSH1 0x40 SWAP1 KECCAK256 PUSH1 0x3 ADD SLOAD PUSH2 0x1618 SWAP1 DUP3 SWAP1 CALLER SWAP1 PUSH2 0x17DC JUMP JUMPDEST POP JUMP JUMPDEST PUSH1 0x0 PUSH2 0x1626 DUP2 PUSH2 0x16E9 JUMP JUMPDEST PUSH1 0x0 DUP7 DUP2 MSTORE PUSH1 0x2 PUSH1 0x20 DUP2 DUP2 MSTORE PUSH1 0x40 DUP1 DUP5 KECCAK256 PUSH1 0x1 PUSH1 0x4 DUP3 ADD DUP2 SWAP1 SSTORE PUSH1 0x6 DUP3 ADD DUP7 SWAP1 SSTORE PUSH1 0x3 DUP3 ADD DUP12 SWAP1 SSTORE PUSH1 0x5 DUP3 ADD DUP1 SLOAD PUSH1 0x1 PUSH1 0x1 PUSH1 0xA0 SHL SUB NOT AND PUSH1 0x1 PUSH1 0x1 PUSH1 0xA0 SHL SUB DUP13 AND OR SWAP1 SSTORE DUP2 ADD SWAP5 SWAP1 SWAP5 SSTORE SWAP2 DUP4 ADD DUP7 SWAP1 SSTORE DUP3 SLOAD PUSH1 0xFF NOT AND DUP6 ISZERO ISZERO OR SWAP1 SWAP3 SSTORE MLOAD DUP8 DUP2 MSTORE PUSH32 0x9E5237C6A8BB45DF74799CF138EBDA4FED0574BED906DA41387ACDC4A3CBE3D8 SWAP2 ADD PUSH1 0x40 MLOAD DUP1 SWAP2 SUB SWAP1 LOG1 POP POP POP POP POP POP JUMP JUMPDEST PUSH1 0x0 PUSH2 0x16C6 DUP2 PUSH2 0x16E9 JUMP JUMPDEST POP PUSH1 0x6 DUP1 SLOAD PUSH1 0x1 PUSH1 0x1 PUSH1 0xA0 SHL SUB NOT AND PUSH1 0x1 PUSH1 0x1 PUSH1 0xA0 SHL SUB SWAP3 SWAP1 SWAP3 AND SWAP2 SWAP1 SWAP2 OR SWAP1 SSTORE JUMP JUMPDEST PUSH2 0x1618 DUP2 CALLER PUSH2 0x1888 JUMP JUMPDEST PUSH2 0x16FD DUP3 DUP3 PUSH2 0xDFA JUMP JUMPDEST PUSH2 0xAAF JUMPI PUSH1 0x0 DUP3 DUP2 MSTORE PUSH1 0x20 DUP2 DUP2 MSTORE PUSH1 0x40 DUP1 DUP4 KECCAK256 PUSH1 0x1 PUSH1 0x1 PUSH1 0xA0 SHL SUB DUP6 AND DUP5 MSTORE SWAP1 SWAP2 MSTORE SWAP1 KECCAK256 DUP1 SLOAD PUSH1 0xFF NOT AND PUSH1 0x1 OR SWAP1 SSTORE PUSH2 0x1733 CALLER SWAP1 JUMP JUMPDEST PUSH1 0x1 PUSH1 0x1 PUSH1 0xA0 SHL SUB AND DUP2 PUSH1 0x1 PUSH1 0x1 PUSH1 0xA0 SHL SUB AND DUP4 PUSH32 0x2F8788117E7EFF1D82E926EC794901D17C78024A50270940304540A733656F0D PUSH1 0x40 MLOAD PUSH1 0x40 MLOAD DUP1 SWAP2 SUB SWAP1 LOG4 POP POP JUMP JUMPDEST PUSH2 0x1781 DUP3 DUP3 PUSH2 0xDFA JUMP JUMPDEST ISZERO PUSH2 0xAAF JUMPI PUSH1 0x0 DUP3 DUP2 MSTORE PUSH1 0x20 DUP2 DUP2 MSTORE PUSH1 0x40 DUP1 DUP4 KECCAK256 PUSH1 0x1 PUSH1 0x1 PUSH1 0xA0 SHL SUB DUP6 AND DUP1 DUP6 MSTORE SWAP3 MSTORE DUP1 DUP4 KECCAK256 DUP1 SLOAD PUSH1 0xFF NOT AND SWAP1 SSTORE MLOAD CALLER SWAP3 DUP6 SWAP2 PUSH32 0xF6391F5C32D9C69D2A47EA670B442974B53935D1EDC7FD64EB21E047A839171B SWAP2 SWAP1 LOG4 POP POP JUMP JUMPDEST PUSH1 0x0 DUP4 DUP2 MSTORE PUSH1 0x2 PUSH1 0x20 MSTORE PUSH1 0x40 DUP2 KECCAK256 PUSH1 0x1 DUP1 DUP3 ADD DUP1 SLOAD SWAP3 SWAP4 SWAP2 SWAP3 SWAP1 SWAP2 SWAP1 PUSH2 0x1803 SWAP1 DUP5 SWAP1 PUSH2 0x1E28 JUMP JUMPDEST SWAP1 SWAP2 SSTORE POP POP PUSH1 0x1 PUSH1 0x1 PUSH1 0xA0 SHL SUB DUP4 AND PUSH1 0x0 SWAP1 DUP2 MSTORE PUSH1 0x7 DUP3 ADD PUSH1 0x20 SWAP1 DUP2 MSTORE PUSH1 0x40 DUP1 DUP4 KECCAK256 DUP6 SWAP1 SSTORE PUSH1 0x8 DUP5 ADD SWAP1 SWAP2 MSTORE DUP2 KECCAK256 PUSH1 0x1 SWAP1 SSTORE PUSH1 0x6 DUP3 ADD DUP1 SLOAD DUP5 SWAP3 SWAP1 PUSH2 0x1849 SWAP1 DUP5 SWAP1 PUSH2 0x1E28 JUMP JUMPDEST SWAP1 SWAP2 SSTORE POP POP PUSH1 0x40 MLOAD DUP5 DUP2 MSTORE CALLER SWAP1 PUSH31 0x7DC6AB80CC84C043B7B8D4FCAFC802187470087F7EA7FCCD2E17AECD0256A1 SWAP1 PUSH1 0x20 ADD PUSH1 0x40 MLOAD DUP1 SWAP2 SUB SWAP1 LOG2 POP POP POP POP JUMP JUMPDEST PUSH2 0x1892 DUP3 DUP3 PUSH2 0xDFA JUMP JUMPDEST PUSH2 0xAAF JUMPI PUSH2 0x18AA DUP2 PUSH1 0x1 PUSH1 0x1 PUSH1 0xA0 SHL SUB AND PUSH1 0x14 PUSH2 0x18EC JUMP JUMPDEST PUSH2 0x18B5 DUP4 PUSH1 0x20 PUSH2 0x18EC JUMP JUMPDEST PUSH1 0x40 MLOAD PUSH1 0x20 ADD PUSH2 0x18C6 SWAP3 SWAP2 SWAP1 PUSH2 0x1C24 JUMP JUMPDEST PUSH1 0x40 DUP1 MLOAD PUSH1 0x1F NOT DUP2 DUP5 SUB ADD DUP2 MSTORE SWAP1 DUP3 SWAP1 MSTORE PUSH3 0x461BCD PUSH1 0xE5 SHL DUP3 MSTORE PUSH2 0xA9C SWAP2 PUSH1 0x4 ADD PUSH2 0x1C99 JUMP JUMPDEST PUSH1 0x60 PUSH1 0x0 PUSH2 0x18FB DUP4 PUSH1 0x2 PUSH2 0x1E60 JUMP JUMPDEST PUSH2 0x1906 SWAP1 PUSH1 0x2 PUSH2 0x1E28 JUMP JUMPDEST PUSH8 0xFFFFFFFFFFFFFFFF DUP2 GT ISZERO PUSH2 0x192C JUMPI PUSH4 0x4E487B71 PUSH1 0xE0 SHL PUSH1 0x0 MSTORE PUSH1 0x41 PUSH1 0x4 MSTORE PUSH1 0x24 PUSH1 0x0 REVERT JUMPDEST PUSH1 0x40 MLOAD SWAP1 DUP1 DUP3 MSTORE DUP1 PUSH1 0x1F ADD PUSH1 0x1F NOT AND PUSH1 0x20 ADD DUP3 ADD PUSH1 0x40 MSTORE DUP1 ISZERO PUSH2 0x1956 JUMPI PUSH1 0x20 DUP3 ADD DUP2 DUP1 CALLDATASIZE DUP4 CALLDATACOPY ADD SWAP1 POP JUMPDEST POP SWAP1 POP PUSH1 0x3 PUSH1 0xFC SHL DUP2 PUSH1 0x0 DUP2 MLOAD DUP2 LT PUSH2 0x197F JUMPI PUSH4 0x4E487B71 PUSH1 0xE0 SHL PUSH1 0x0 MSTORE PUSH1 0x32 PUSH1 0x4 MSTORE PUSH1 0x24 PUSH1 0x0 REVERT JUMPDEST PUSH1 0x20 ADD ADD SWAP1 PUSH1 0x1 PUSH1 0x1 PUSH1 0xF8 SHL SUB NOT AND SWAP1 DUP2 PUSH1 0x0 BYTE SWAP1 MSTORE8 POP PUSH1 0xF PUSH1 0xFB SHL DUP2 PUSH1 0x1 DUP2 MLOAD DUP2 LT PUSH2 0x19BC JUMPI PUSH4 0x4E487B71 PUSH1 0xE0 SHL PUSH1 0x0 MSTORE PUSH1 0x32 PUSH1 0x4 MSTORE PUSH1 0x24 PUSH1 0x0 REVERT JUMPDEST PUSH1 0x20 ADD ADD SWAP1 PUSH1 0x1 PUSH1 0x1 PUSH1 0xF8 SHL SUB NOT AND SWAP1 DUP2 PUSH1 0x0 BYTE SWAP1 MSTORE8 POP PUSH1 0x0 PUSH2 0x19E0 DUP5 PUSH1 0x2 PUSH2 0x1E60 JUMP JUMPDEST PUSH2 0x19EB SWAP1 PUSH1 0x1 PUSH2 0x1E28 JUMP JUMPDEST SWAP1 POP JUMPDEST PUSH1 0x1 DUP2 GT ISZERO PUSH2 0x1A7F JUMPI PUSH16 0x181899199A1A9B1B9C1CB0B131B232B3 PUSH1 0x81 SHL DUP6 PUSH1 0xF AND PUSH1 0x10 DUP2 LT PUSH2 0x1A2D JUMPI PUSH4 0x4E487B71 PUSH1 0xE0 SHL PUSH1 0x0 MSTORE PUSH1 0x32 PUSH1 0x4 MSTORE PUSH1 0x24 PUSH1 0x0 REVERT JUMPDEST BYTE PUSH1 0xF8 SHL DUP3 DUP3 DUP2 MLOAD DUP2 LT PUSH2 0x1A51 JUMPI PUSH4 0x4E487B71 PUSH1 0xE0 SHL PUSH1 0x0 MSTORE PUSH1 0x32 PUSH1 0x4 MSTORE PUSH1 0x24 PUSH1 0x0 REVERT JUMPDEST PUSH1 0x20 ADD ADD SWAP1 PUSH1 0x1 PUSH1 0x1 PUSH1 0xF8 SHL SUB NOT AND SWAP1 DUP2 PUSH1 0x0 BYTE SWAP1 MSTORE8 POP PUSH1 0x4 SWAP5 SWAP1 SWAP5 SHR SWAP4 PUSH2 0x1A78 DUP2 PUSH2 0x1EC6 JUMP JUMPDEST SWAP1 POP PUSH2 0x19EE JUMP JUMPDEST POP DUP4 ISZERO PUSH2 0x1ACE JUMPI PUSH1 0x40 MLOAD PUSH3 0x461BCD PUSH1 0xE5 SHL DUP2 MSTORE PUSH1 0x20 PUSH1 0x4 DUP3 ADD DUP2 SWAP1 MSTORE PUSH1 0x24 DUP3 ADD MSTORE PUSH32 0x537472696E67733A20686578206C656E67746820696E73756666696369656E74 PUSH1 0x44 DUP3 ADD MSTORE PUSH1 0x64 ADD PUSH2 0xA9C JUMP JUMPDEST SWAP4 SWAP3 POP POP POP JUMP JUMPDEST DUP1 CALLDATALOAD PUSH1 0x1 PUSH1 0x1 PUSH1 0xA0 SHL SUB DUP2 AND DUP2 EQ PUSH2 0x1AEC JUMPI PUSH1 0x0 DUP1 REVERT JUMPDEST SWAP2 SWAP1 POP JUMP JUMPDEST PUSH1 0x0 PUSH1 0x20 DUP3 DUP5 SUB SLT ISZERO PUSH2 0x1B02 JUMPI DUP1 DUP2 REVERT JUMPDEST PUSH2 0x1ACE DUP3 PUSH2 0x1AD5 JUMP JUMPDEST PUSH1 0x0 DUP1 PUSH1 0x0 PUSH1 0x60 DUP5 DUP7 SUB SLT ISZERO PUSH2 0x1B1F JUMPI DUP2 DUP3 REVERT JUMPDEST PUSH2 0x1B28 DUP5 PUSH2 0x1AD5 JUMP JUMPDEST SWAP3 POP PUSH1 0x20 DUP5 ADD CALLDATALOAD SWAP2 POP PUSH1 0x40 DUP5 ADD CALLDATALOAD PUSH2 0x1B3F DUP2 PUSH2 0x1EF3 JUMP JUMPDEST DUP1 SWAP2 POP POP SWAP3 POP SWAP3 POP SWAP3 JUMP JUMPDEST PUSH1 0x0 PUSH1 0x20 DUP3 DUP5 SUB SLT ISZERO PUSH2 0x1B5B JUMPI DUP1 DUP2 REVERT JUMPDEST DUP2 MLOAD PUSH2 0x1ACE DUP2 PUSH2 0x1EF3 JUMP JUMPDEST PUSH1 0x0 PUSH1 0x20 DUP3 DUP5 SUB SLT ISZERO PUSH2 0x1B77 JUMPI DUP1 DUP2 REVERT JUMPDEST POP CALLDATALOAD SWAP2 SWAP1 POP JUMP JUMPDEST PUSH1 0x0 DUP1 PUSH1 0x40 DUP4 DUP6 SUB SLT ISZERO PUSH2 0x1B90 JUMPI DUP2 DUP3 REVERT JUMPDEST DUP3 CALLDATALOAD SWAP2 POP PUSH2 0x1BA0 PUSH1 0x20 DUP5 ADD PUSH2 0x1AD5 JUMP JUMPDEST SWAP1 POP SWAP3 POP SWAP3 SWAP1 POP JUMP JUMPDEST PUSH1 0x0 PUSH1 0x20 DUP3 DUP5 SUB SLT ISZERO PUSH2 0x1BBA JUMPI DUP1 DUP2 REVERT JUMPDEST DUP2 CALLDATALOAD PUSH1 0x1 PUSH1 0x1 PUSH1 0xE0 SHL SUB NOT DUP2 AND DUP2 EQ PUSH2 0x1ACE JUMPI DUP2 DUP3 REVERT JUMPDEST PUSH1 0x0 DUP1 PUSH1 0x0 DUP1 PUSH1 0x0 PUSH1 0xA0 DUP7 DUP9 SUB SLT ISZERO PUSH2 0x1BE8 JUMPI DUP1 DUP2 REVERT JUMPDEST DUP6 CALLDATALOAD SWAP5 POP PUSH1 0x20 DUP7 ADD CALLDATALOAD SWAP4 POP PUSH2 0x1BFF PUSH1 0x40 DUP8 ADD PUSH2 0x1AD5 JUMP JUMPDEST SWAP3 POP PUSH1 0x60 DUP7 ADD CALLDATALOAD SWAP2 POP PUSH1 0x80 DUP7 ADD CALLDATALOAD PUSH2 0x1C16 DUP2 PUSH2 0x1EF3 JUMP JUMPDEST DUP1 SWAP2 POP POP SWAP3 SWAP6 POP SWAP3 SWAP6 SWAP1 SWAP4 POP JUMP JUMPDEST PUSH32 0x416363657373436F6E74726F6C3A206163636F756E7420000000000000000000 DUP2 MSTORE PUSH1 0x0 DUP4 MLOAD PUSH2 0x1C5C DUP2 PUSH1 0x17 DUP6 ADD PUSH1 0x20 DUP9 ADD PUSH2 0x1E96 JUMP JUMPDEST PUSH17 0x1034B99036B4B9B9B4B733903937B6329 PUSH1 0x7D SHL PUSH1 0x17 SWAP2 DUP5 ADD SWAP2 DUP3 ADD MSTORE DUP4 MLOAD PUSH2 0x1C8D DUP2 PUSH1 0x28 DUP5 ADD PUSH1 0x20 DUP9 ADD PUSH2 0x1E96 JUMP JUMPDEST ADD PUSH1 0x28 ADD SWAP5 SWAP4 POP POP POP POP JUMP JUMPDEST PUSH1 0x20 DUP2 MSTORE PUSH1 0x0 DUP3 MLOAD DUP1 PUSH1 0x20 DUP5 ADD MSTORE PUSH2 0x1CB8 DUP2 PUSH1 0x40 DUP6 ADD PUSH1 0x20 DUP8 ADD PUSH2 0x1E96 JUMP JUMPDEST PUSH1 0x1F ADD PUSH1 0x1F NOT AND SWAP2 SWAP1 SWAP2 ADD PUSH1 0x40 ADD SWAP3 SWAP2 POP POP JUMP JUMPDEST PUSH1 0x20 DUP1 DUP3 MSTORE PUSH1 0x27 SWAP1 DUP3 ADD MSTORE PUSH32 0x54726F706879204B696E67204172636164653A20416C72656164792072656769 PUSH1 0x40 DUP3 ADD MSTORE PUSH7 0x39BA32B932B217 PUSH1 0xC9 SHL PUSH1 0x60 DUP3 ADD MSTORE PUSH1 0x80 ADD SWAP1 JUMP JUMPDEST PUSH1 0x20 DUP1 DUP3 MSTORE PUSH1 0x27 SWAP1 DUP3 ADD MSTORE PUSH32 0x54726F706879204B696E67204172636164653A20556E61626C6520746F207472 PUSH1 0x40 DUP3 ADD MSTORE PUSH7 0x30B739B332B917 PUSH1 0xC9 SHL PUSH1 0x60 DUP3 ADD MSTORE PUSH1 0x80 ADD SWAP1 JUMP JUMPDEST PUSH1 0x20 DUP1 DUP3 MSTORE PUSH1 0x2A SWAP1 DUP3 ADD MSTORE PUSH32 0x54726F706879204B696E67204172636164653A2047616D652066756C6C2E2020 PUSH1 0x40 DUP3 ADD MSTORE PUSH10 0x2A393C9030B3B0B4B717 PUSH1 0xB1 SHL PUSH1 0x60 DUP3 ADD MSTORE PUSH1 0x80 ADD SWAP1 JUMP JUMPDEST PUSH1 0x20 DUP1 DUP3 MSTORE PUSH1 0x23 SWAP1 DUP3 ADD MSTORE PUSH32 0x54726F706879204B696E67204172636164653A2047616D65206E6F7420666F75 PUSH1 0x40 DUP3 ADD MSTORE PUSH3 0x373217 PUSH1 0xE9 SHL PUSH1 0x60 DUP3 ADD MSTORE PUSH1 0x80 ADD SWAP1 JUMP JUMPDEST PUSH1 0x20 DUP1 DUP3 MSTORE PUSH1 0x21 SWAP1 DUP3 ADD MSTORE PUSH32 0x54726F706879204B696E67204172636164653A20556E617574686F72697A6564 PUSH1 0x40 DUP3 ADD MSTORE PUSH1 0x17 PUSH1 0xF9 SHL PUSH1 0x60 DUP3 ADD MSTORE PUSH1 0x80 ADD SWAP1 JUMP JUMPDEST PUSH1 0x0 DUP3 NOT DUP3 GT ISZERO PUSH2 0x1E3B JUMPI PUSH2 0x1E3B PUSH2 0x1EDD JUMP JUMPDEST POP ADD SWAP1 JUMP JUMPDEST PUSH1 0x0 DUP3 PUSH2 0x1E5B JUMPI PUSH4 0x4E487B71 PUSH1 0xE0 SHL DUP2 MSTORE PUSH1 0x12 PUSH1 0x4 MSTORE PUSH1 0x24 DUP2 REVERT JUMPDEST POP DIV SWAP1 JUMP JUMPDEST PUSH1 0x0 DUP2 PUSH1 0x0 NOT DIV DUP4 GT DUP3 ISZERO ISZERO AND ISZERO PUSH2 0x1E7A JUMPI PUSH2 0x1E7A PUSH2 0x1EDD JUMP JUMPDEST POP MUL SWAP1 JUMP JUMPDEST PUSH1 0x0 DUP3 DUP3 LT ISZERO PUSH2 0x1E91 JUMPI PUSH2 0x1E91 PUSH2 0x1EDD JUMP JUMPDEST POP SUB SWAP1 JUMP JUMPDEST PUSH1 0x0 JUMPDEST DUP4 DUP2 LT ISZERO PUSH2 0x1EB1 JUMPI DUP2 DUP2 ADD MLOAD DUP4 DUP3 ADD MSTORE PUSH1 0x20 ADD PUSH2 0x1E99 JUMP JUMPDEST DUP4 DUP2 GT ISZERO PUSH2 0x1EC0 JUMPI PUSH1 0x0 DUP5 DUP5 ADD MSTORE JUMPDEST POP POP POP POP JUMP JUMPDEST PUSH1 0x0 DUP2 PUSH2 0x1ED5 JUMPI PUSH2 0x1ED5 PUSH2 0x1EDD JUMP JUMPDEST POP PUSH1 0x0 NOT ADD SWAP1 JUMP JUMPDEST PUSH4 0x4E487B71 PUSH1 0xE0 SHL PUSH1 0x0 MSTORE PUSH1 0x11 PUSH1 0x4 MSTORE PUSH1 0x24 PUSH1 0x0 REVERT JUMPDEST DUP1 ISZERO ISZERO DUP2 EQ PUSH2 0x1618 JUMPI PUSH1 0x0 DUP1 REVERT INVALID LOG2 PUSH5 0x6970667358 0x22 SLT KECCAK256 SWAP10 SWAP2 KECCAK256 TIMESTAMP 0xCF 0xAC 0xD3 0x4A JUMPI POP 0xBD 0x26 SWAP4 0xA5 0xB6 SUB 0xF7 DUP11 PUSH4 0x56342F1F PUSH17 0xA1427CBD262CBD6564736F6C6343000804 STOP CALLER "
				},
				"gasEstimates": {
					"creation": {
						"codeDepositCost": "1598200",
						"executionCost": "103704",
						"totalCost": "1701904"
					},
					"external": {
						"DEFAULT_ADMIN_ROLE()": "262",
						"TREASURER_ROLE()": "239",
						"acceptedArcadeTokens(address)": "2239",
						"addArcadeToken(address,uint256,bool)": "infinite",
						"closeGame(uint256)": "infinite",
						"createGame(uint256,uint256,address,uint256,bool)": "infinite",
						"decimals()": "1085",
						"deleteGame(uint256)": "infinite",
						"fee_percentage()": "1040",
						"gameData(uint256)": "6281",
						"getRoleAdmin(bytes32)": "1215",
						"getStablecoin(address)": "2178",
						"grantRole(bytes32,address)": "infinite",
						"hasRole(bytes32,address)": "1441",
						"isAccepted(address)": "1366",
						"market_maker()": "1126",
						"openGame(uint256)": "infinite",
						"owner()": "1083",
						"placePlayer(uint256,address)": "infinite",
						"reconcile()": "infinite",
						"refund(uint256,address)": "infinite",
						"register(uint256)": "infinite",
						"removeArcadeToken(address)": "infinite",
						"removePlayer(uint256,address)": "infinite",
						"renounceRole(bytes32,address)": "24407",
						"revokeRole(bytes32,address)": "infinite",
						"setArcadeFeePercentage(uint256)": "infinite",
						"setMarketMaker(address)": "infinite",
						"setWinner(uint256,address)": "infinite",
						"supportsInterface(bytes4)": "495",
						"swap(uint256)": "infinite"
					},
					"internal": {
						"_register(uint256,address,uint256)": "infinite"
					}
				},
				"methodIdentifiers": {
					"DEFAULT_ADMIN_ROLE()": "a217fddf",
					"TREASURER_ROLE()": "f0a3a97c",
					"acceptedArcadeTokens(address)": "b22c376d",
					"addArcadeToken(address,uint256,bool)": "06602a48",
					"closeGame(uint256)": "2d6ef310",
					"createGame(uint256,uint256,address,uint256,bool)": "f336ee3c",
					"decimals()": "313ce567",
					"deleteGame(uint256)": "248a55a1",
					"fee_percentage()": "c46ed45a",
					"gameData(uint256)": "ccaf237f",
					"getRoleAdmin(bytes32)": "248a9ca3",
					"getStablecoin(address)": "4575624b",
					"grantRole(bytes32,address)": "2f2ff15d",
					"hasRole(bytes32,address)": "91d14854",
					"isAccepted(address)": "e6f091f9",
					"market_maker()": "75ca7603",
					"openGame(uint256)": "00f5544f",
					"owner()": "8da5cb5b",
					"placePlayer(uint256,address)": "b9888d89",
					"reconcile()": "8f0d7e35",
					"refund(uint256,address)": "7ad226dc",
					"register(uint256)": "f207564e",
					"removeArcadeToken(address)": "3e16518f",
					"removePlayer(uint256,address)": "2ba67100",
					"renounceRole(bytes32,address)": "36568abe",
					"revokeRole(bytes32,address)": "d547741f",
					"setArcadeFeePercentage(uint256)": "2ac5016f",
					"setMarketMaker(address)": "f54c42d7",
					"setWinner(uint256,address)": "9c623683",
					"supportsInterface(bytes4)": "01ffc9a7",
					"swap(uint256)": "94b918de"
				}
			},
			"storageLayout": {
				"storage": [
					{
						"astId": 24,
						"contract": "contracts/Arcade.sol:Arcade",
						"label": "_roles",
						"offset": 0,
						"slot": "0",
						"type": "t_mapping(t_bytes32,t_struct(RoleData)19_storage)"
					},
					{
						"astId": 1757,
						"contract": "contracts/Arcade.sol:Arcade",
						"label": "acceptedArcadeTokens",
						"offset": 0,
						"slot": "1",
						"type": "t_mapping(t_address,t_struct(ArcadeToken)1752_storage)"
					},
					{
						"astId": 1762,
						"contract": "contracts/Arcade.sol:Arcade",
						"label": "gameData",
						"offset": 0,
						"slot": "2",
						"type": "t_mapping(t_uint256,t_struct(GameInfo)1744_storage)"
					},
					{
						"astId": 1765,
						"contract": "contracts/Arcade.sol:Arcade",
						"label": "decimals",
						"offset": 0,
						"slot": "3",
						"type": "t_uint256"
					},
					{
						"astId": 1767,
						"contract": "contracts/Arcade.sol:Arcade",
						"label": "fee_percentage",
						"offset": 0,
						"slot": "4",
						"type": "t_uint256"
					},
					{
						"astId": 1776,
						"contract": "contracts/Arcade.sol:Arcade",
						"label": "base",
						"offset": 0,
						"slot": "5",
						"type": "t_uint256"
					},
					{
						"astId": 1778,
						"contract": "contracts/Arcade.sol:Arcade",
						"label": "market_maker",
						"offset": 0,
						"slot": "6",
						"type": "t_address"
					},
					{
						"astId": 1780,
						"contract": "contracts/Arcade.sol:Arcade",
						"label": "owner",
						"offset": 0,
						"slot": "7",
						"type": "t_address"
					}
				],
				"types": {
					"t_address": {
						"encoding": "inplace",
						"label": "address",
						"numberOfBytes": "20"
					},
					"t_bool": {
						"encoding": "inplace",
						"label": "bool",
						"numberOfBytes": "1"
					},
					"t_bytes32": {
						"encoding": "inplace",
						"label": "bytes32",
						"numberOfBytes": "32"
					},
					"t_contract(IERC20)1056": {
						"encoding": "inplace",
						"label": "contract IERC20",
						"numberOfBytes": "20"
					},
					"t_mapping(t_address,t_bool)": {
						"encoding": "mapping",
						"key": "t_address",
						"label": "mapping(address => bool)",
						"numberOfBytes": "32",
						"value": "t_bool"
					},
					"t_mapping(t_address,t_struct(ArcadeToken)1752_storage)": {
						"encoding": "mapping",
						"key": "t_address",
						"label": "mapping(address => struct Arcade.ArcadeToken)",
						"numberOfBytes": "32",
						"value": "t_struct(ArcadeToken)1752_storage"
					},
					"t_mapping(t_address,t_uint256)": {
						"encoding": "mapping",
						"key": "t_address",
						"label": "mapping(address => uint256)",
						"numberOfBytes": "32",
						"value": "t_uint256"
					},
					"t_mapping(t_bytes32,t_struct(RoleData)19_storage)": {
						"encoding": "mapping",
						"key": "t_bytes32",
						"label": "mapping(bytes32 => struct AccessControl.RoleData)",
						"numberOfBytes": "32",
						"value": "t_struct(RoleData)19_storage"
					},
					"t_mapping(t_uint256,t_struct(GameInfo)1744_storage)": {
						"encoding": "mapping",
						"key": "t_uint256",
						"label": "mapping(uint256 => struct Arcade.GameInfo)",
						"numberOfBytes": "32",
						"value": "t_struct(GameInfo)1744_storage"
					},
					"t_struct(ArcadeToken)1752_storage": {
						"encoding": "inplace",
						"label": "struct Arcade.ArcadeToken",
						"members": [
							{
								"astId": 1747,
								"contract": "contracts/Arcade.sol:Arcade",
								"label": "native_token",
								"offset": 0,
								"slot": "0",
								"type": "t_contract(IERC20)1056"
							},
							{
								"astId": 1749,
								"contract": "contracts/Arcade.sol:Arcade",
								"label": "active",
								"offset": 20,
								"slot": "0",
								"type": "t_bool"
							},
							{
								"astId": 1751,
								"contract": "contracts/Arcade.sol:Arcade",
								"label": "redemption_rate",
								"offset": 0,
								"slot": "1",
								"type": "t_uint256"
							}
						],
						"numberOfBytes": "64"
					},
					"t_struct(GameInfo)1744_storage": {
						"encoding": "inplace",
						"label": "struct Arcade.GameInfo",
						"members": [
							{
								"astId": 1719,
								"contract": "contracts/Arcade.sol:Arcade",
								"label": "exchange",
								"offset": 0,
								"slot": "0",
								"type": "t_bool"
							},
							{
								"astId": 1721,
								"contract": "contracts/Arcade.sol:Arcade",
								"label": "player_count",
								"offset": 0,
								"slot": "1",
								"type": "t_uint256"
							},
							{
								"astId": 1723,
								"contract": "contracts/Arcade.sol:Arcade",
								"label": "player_limit",
								"offset": 0,
								"slot": "2",
								"type": "t_uint256"
							},
							{
								"astId": 1725,
								"contract": "contracts/Arcade.sol:Arcade",
								"label": "registration_fee",
								"offset": 0,
								"slot": "3",
								"type": "t_uint256"
							},
							{
								"astId": 1727,
								"contract": "contracts/Arcade.sol:Arcade",
								"label": "status",
								"offset": 0,
								"slot": "4",
								"type": "t_uint256"
							},
							{
								"astId": 1729,
								"contract": "contracts/Arcade.sol:Arcade",
								"label": "arcade_token",
								"offset": 0,
								"slot": "5",
								"type": "t_address"
							},
							{
								"astId": 1731,
								"contract": "contracts/Arcade.sol:Arcade",
								"label": "total_fee",
								"offset": 0,
								"slot": "6",
								"type": "t_uint256"
							},
							{
								"astId": 1735,
								"contract": "contracts/Arcade.sol:Arcade",
								"label": "fee",
								"offset": 0,
								"slot": "7",
								"type": "t_mapping(t_address,t_uint256)"
							},
							{
								"astId": 1739,
								"contract": "contracts/Arcade.sol:Arcade",
								"label": "paid",
								"offset": 0,
								"slot": "8",
								"type": "t_mapping(t_address,t_uint256)"
							},
							{
								"astId": 1743,
								"contract": "contracts/Arcade.sol:Arcade",
								"label": "seats",
								"offset": 0,
								"slot": "9",
								"type": "t_mapping(t_address,t_uint256)"
							}
						],
						"numberOfBytes": "320"
					},
					"t_struct(RoleData)19_storage": {
						"encoding": "inplace",
						"label": "struct AccessControl.RoleData",
						"members": [
							{
								"astId": 16,
								"contract": "contracts/Arcade.sol:Arcade",
								"label": "members",
								"offset": 0,
								"slot": "0",
								"type": "t_mapping(t_address,t_bool)"
							},
							{
								"astId": 18,
								"contract": "contracts/Arcade.sol:Arcade",
								"label": "adminRole",
								"offset": 0,
								"slot": "1",
								"type": "t_bytes32"
							}
						],
						"numberOfBytes": "64"
					},
					"t_uint256": {
						"encoding": "inplace",
						"label": "uint256",
						"numberOfBytes": "32"
					}
				}
			},
			"userdoc": {
				"kind": "user",
				"methods": {},
				"version": 1
			}
		}
	}
}