{
	"contracts/Arcade.sol": {
		"Arcade": {
			"abi": [
				{
					"inputs": [],
					"stateMutability": "nonpayable",
					"type": "constructor"
				},
				{
					"anonymous": false,
					"inputs": [
						{
							"indexed": false,
							"internalType": "uint256",
							"name": "id",
							"type": "uint256"
						}
					],
					"name": "CloseGame",
					"type": "event"
				},
				{
					"anonymous": false,
					"inputs": [
						{
							"indexed": false,
							"internalType": "uint256",
							"name": "id",
							"type": "uint256"
						}
					],
					"name": "CreateGame",
					"type": "event"
				},
				{
					"anonymous": false,
					"inputs": [
						{
							"indexed": false,
							"internalType": "uint256",
							"name": "id",
							"type": "uint256"
						}
					],
					"name": "DeleteGame",
					"type": "event"
				},
				{
					"anonymous": false,
					"inputs": [
						{
							"indexed": false,
							"internalType": "uint256",
							"name": "fee",
							"type": "uint256"
						}
					],
					"name": "Fee",
					"type": "event"
				},
				{
					"anonymous": false,
					"inputs": [
						{
							"indexed": false,
							"internalType": "uint256",
							"name": "id",
							"type": "uint256"
						}
					],
					"name": "OpenGame",
					"type": "event"
				},
				{
					"anonymous": false,
					"inputs": [
						{
							"indexed": true,
							"internalType": "address",
							"name": "previousOwner",
							"type": "address"
						},
						{
							"indexed": true,
							"internalType": "address",
							"name": "newOwner",
							"type": "address"
						}
					],
					"name": "OwnershipTransferred",
					"type": "event"
				},
				{
					"anonymous": false,
					"inputs": [
						{
							"indexed": false,
							"internalType": "uint256",
							"name": "payout",
							"type": "uint256"
						}
					],
					"name": "Payout",
					"type": "event"
				},
				{
					"anonymous": false,
					"inputs": [
						{
							"indexed": false,
							"internalType": "address",
							"name": "player",
							"type": "address"
						},
						{
							"indexed": false,
							"internalType": "uint256",
							"name": "id",
							"type": "uint256"
						}
					],
					"name": "PlacePlayer",
					"type": "event"
				},
				{
					"anonymous": false,
					"inputs": [
						{
							"indexed": false,
							"internalType": "uint256",
							"name": "id",
							"type": "uint256"
						},
						{
							"indexed": false,
							"internalType": "address",
							"name": "player",
							"type": "address"
						},
						{
							"indexed": false,
							"internalType": "uint256",
							"name": "amount",
							"type": "uint256"
						}
					],
					"name": "Refund",
					"type": "event"
				},
				{
					"anonymous": false,
					"inputs": [
						{
							"indexed": true,
							"internalType": "address",
							"name": "_player",
							"type": "address"
						},
						{
							"indexed": false,
							"internalType": "uint256",
							"name": "id",
							"type": "uint256"
						}
					],
					"name": "Register",
					"type": "event"
				},
				{
					"anonymous": false,
					"inputs": [
						{
							"indexed": false,
							"internalType": "address",
							"name": "player",
							"type": "address"
						}
					],
					"name": "RemovePlayer",
					"type": "event"
				},
				{
					"inputs": [
						{
							"internalType": "uint256",
							"name": "game_id",
							"type": "uint256"
						}
					],
					"name": "closeGame",
					"outputs": [],
					"stateMutability": "nonpayable",
					"type": "function"
				},
				{
					"inputs": [
						{
							"internalType": "uint256",
							"name": "game_id",
							"type": "uint256"
						},
						{
							"internalType": "uint256",
							"name": "registration_fee",
							"type": "uint256"
						},
						{
							"internalType": "uint256",
							"name": "player_limit",
							"type": "uint256"
						},
						{
							"internalType": "bool",
							"name": "exchange",
							"type": "bool"
						}
					],
					"name": "createGame",
					"outputs": [],
					"stateMutability": "nonpayable",
					"type": "function"
				},
				{
					"inputs": [],
					"name": "decimals",
					"outputs": [
						{
							"internalType": "uint256",
							"name": "",
							"type": "uint256"
						}
					],
					"stateMutability": "view",
					"type": "function"
				},
				{
					"inputs": [
						{
							"internalType": "uint256",
							"name": "game_id",
							"type": "uint256"
						}
					],
					"name": "deleteGame",
					"outputs": [],
					"stateMutability": "nonpayable",
					"type": "function"
				},
				{
					"inputs": [],
					"name": "fee_percentage",
					"outputs": [
						{
							"internalType": "uint256",
							"name": "",
							"type": "uint256"
						}
					],
					"stateMutability": "view",
					"type": "function"
				},
				{
					"inputs": [
						{
							"internalType": "uint256",
							"name": "",
							"type": "uint256"
						}
					],
					"name": "gameData",
					"outputs": [
						{
							"internalType": "bool",
							"name": "exchange",
							"type": "bool"
						},
						{
							"internalType": "uint256",
							"name": "player_count",
							"type": "uint256"
						},
						{
							"internalType": "uint256",
							"name": "player_limit",
							"type": "uint256"
						},
						{
							"internalType": "uint256",
							"name": "registration_fee",
							"type": "uint256"
						},
						{
							"internalType": "uint256",
							"name": "status",
							"type": "uint256"
						},
						{
							"internalType": "uint256",
							"name": "total_fee",
							"type": "uint256"
						}
					],
					"stateMutability": "view",
					"type": "function"
				},
				{
					"inputs": [],
					"name": "market_maker",
					"outputs": [
						{
							"internalType": "address",
							"name": "",
							"type": "address"
						}
					],
					"stateMutability": "view",
					"type": "function"
				},
				{
					"inputs": [
						{
							"internalType": "uint256",
							"name": "game_id",
							"type": "uint256"
						}
					],
					"name": "openGame",
					"outputs": [],
					"stateMutability": "nonpayable",
					"type": "function"
				},
				{
					"inputs": [],
					"name": "owner",
					"outputs": [
						{
							"internalType": "address",
							"name": "",
							"type": "address"
						}
					],
					"stateMutability": "view",
					"type": "function"
				},
				{
					"inputs": [
						{
							"internalType": "uint256",
							"name": "game_id",
							"type": "uint256"
						},
						{
							"internalType": "address",
							"name": "player",
							"type": "address"
						}
					],
					"name": "placePlayer",
					"outputs": [],
					"stateMutability": "nonpayable",
					"type": "function"
				},
				{
					"inputs": [],
					"name": "reconcile",
					"outputs": [],
					"stateMutability": "nonpayable",
					"type": "function"
				},
				{
					"inputs": [
						{
							"internalType": "uint256",
							"name": "game_id",
							"type": "uint256"
						},
						{
							"internalType": "address",
							"name": "player",
							"type": "address"
						}
					],
					"name": "refund",
					"outputs": [],
					"stateMutability": "nonpayable",
					"type": "function"
				},
				{
					"inputs": [
						{
							"internalType": "uint256",
							"name": "game_id",
							"type": "uint256"
						}
					],
					"name": "register",
					"outputs": [],
					"stateMutability": "payable",
					"type": "function"
				},
				{
					"inputs": [
						{
							"internalType": "uint256",
							"name": "game_id",
							"type": "uint256"
						},
						{
							"internalType": "address",
							"name": "player",
							"type": "address"
						}
					],
					"name": "removePlayer",
					"outputs": [],
					"stateMutability": "nonpayable",
					"type": "function"
				},
				{
					"inputs": [],
					"name": "renounceOwnership",
					"outputs": [],
					"stateMutability": "nonpayable",
					"type": "function"
				},
				{
					"inputs": [
						{
							"internalType": "uint256",
							"name": "percentage",
							"type": "uint256"
						}
					],
					"name": "setArcadeFeePercentage",
					"outputs": [],
					"stateMutability": "nonpayable",
					"type": "function"
				},
				{
					"inputs": [
						{
							"internalType": "address",
							"name": "incoming",
							"type": "address"
						}
					],
					"name": "setMarketMaker",
					"outputs": [],
					"stateMutability": "nonpayable",
					"type": "function"
				},
				{
					"inputs": [
						{
							"internalType": "uint256",
							"name": "game_id",
							"type": "uint256"
						},
						{
							"internalType": "address",
							"name": "winner",
							"type": "address"
						}
					],
					"name": "setWinner",
					"outputs": [],
					"stateMutability": "nonpayable",
					"type": "function"
				},
				{
					"inputs": [
						{
							"internalType": "address",
							"name": "newOwner",
							"type": "address"
						}
					],
					"name": "transferOwnership",
					"outputs": [],
					"stateMutability": "nonpayable",
					"type": "function"
				}
			],
			"devdoc": {
				"kind": "dev",
				"methods": {
					"owner()": {
						"details": "Returns the address of the current owner."
					},
					"renounceOwnership()": {
						"details": "Leaves the contract without owner. It will not be possible to call `onlyOwner` functions anymore. Can only be called by the current owner. NOTE: Renouncing ownership will leave the contract without an owner, thereby removing any functionality that is only available to the owner."
					},
					"transferOwnership(address)": {
						"details": "Transfers ownership of the contract to a new account (`newOwner`). Can only be called by the current owner."
					}
				},
				"version": 1
			},
			"evm": {
				"assembly": "    /* \"contracts/Arcade.sol\":257:5669  contract Arcade is Ownable {... */\n  mstore(0x40, 0x80)\n    /* \"contracts/Arcade.sol\":1136:1140  1e18 */\n  0x0de0b6b3a7640000\n    /* \"contracts/Arcade.sol\":1110:1140  uint256 public decimals = 1e18 */\n  0x02\n  sstore\n    /* \"contracts/Arcade.sol\":1215:1305  constructor() {... */\n  callvalue\n  dup1\n  iszero\n  tag_1\n  jumpi\n  0x00\n  dup1\n  revert\ntag_1:\n  pop\n    /* \"@openzeppelin/contracts@4.6.0/access/Ownable.sol\":921:953  _transferOwnership(_msgSender()) */\n  tag_5\n    /* \"@openzeppelin/contracts@4.6.0/utils/Context.sol\":719:729  msg.sender */\n  caller\n    /* \"@openzeppelin/contracts@4.6.0/access/Ownable.sol\":921:939  _transferOwnership */\n  tag_8\n    /* \"@openzeppelin/contracts@4.6.0/access/Ownable.sol\":921:953  _transferOwnership(_msgSender()) */\n  jump\t// in\ntag_5:\n    /* \"contracts/Arcade.sol\":1256:1261  10e16 */\n  0x016345785d8a0000\n    /* \"contracts/Arcade.sol\":1239:1253  fee_percentage */\n  0x03\n    /* \"contracts/Arcade.sol\":1239:1261  fee_percentage = 10e16 */\n  sstore\n    /* \"contracts/Arcade.sol\":1271:1283  market_maker */\n  0x04\n    /* \"contracts/Arcade.sol\":1271:1298  market_maker = _msgSender() */\n  dup1\n  sload\n  not(sub(shl(0xa0, 0x01), 0x01))\n  and\n    /* \"@openzeppelin/contracts@4.6.0/utils/Context.sol\":719:729  msg.sender */\n  caller\n    /* \"contracts/Arcade.sol\":1271:1298  market_maker = _msgSender() */\n  or\n  swap1\n  sstore\n    /* \"contracts/Arcade.sol\":257:5669  contract Arcade is Ownable {... */\n  jump(tag_11)\n    /* \"@openzeppelin/contracts@4.6.0/access/Ownable.sol\":2270:2457  function _transferOwnership(address newOwner) internal virtual {... */\ntag_8:\n    /* \"@openzeppelin/contracts@4.6.0/access/Ownable.sol\":2343:2359  address oldOwner */\n  0x00\n    /* \"@openzeppelin/contracts@4.6.0/access/Ownable.sol\":2362:2368  _owner */\n  dup1\n  sload\n  sub(shl(0xa0, 0x01), 0x01)\n    /* \"@openzeppelin/contracts@4.6.0/access/Ownable.sol\":2378:2395  _owner = newOwner */\n  dup4\n  dup2\n  and\n  not(sub(shl(0xa0, 0x01), 0x01))\n  dup4\n  and\n  dup2\n  or\n  dup5\n  sstore\n    /* \"@openzeppelin/contracts@4.6.0/access/Ownable.sol\":2410:2450  OwnershipTransferred(oldOwner, newOwner) */\n  mload(0x40)\n    /* \"@openzeppelin/contracts@4.6.0/access/Ownable.sol\":2362:2368  _owner */\n  swap2\n  swap1\n  swap3\n  and\n  swap3\n  dup4\n  swap2\n    /* \"@openzeppelin/contracts@4.6.0/access/Ownable.sol\":2410:2450  OwnershipTransferred(oldOwner, newOwner) */\n  0x8be0079c531659141344cd1fd0a4f28419497f9722a3daafe3b4186f6b6457e0\n  swap2\n    /* \"@openzeppelin/contracts@4.6.0/access/Ownable.sol\":2343:2359  address oldOwner */\n  swap1\n    /* \"@openzeppelin/contracts@4.6.0/access/Ownable.sol\":2410:2450  OwnershipTransferred(oldOwner, newOwner) */\n  log3\n    /* \"@openzeppelin/contracts@4.6.0/access/Ownable.sol\":2270:2457  function _transferOwnership(address newOwner) internal virtual {... */\n  pop\n  pop\n  jump\t// out\n    /* \"contracts/Arcade.sol\":257:5669  contract Arcade is Ownable {... */\ntag_11:\n  dataSize(sub_0)\n  dup1\n  dataOffset(sub_0)\n  0x00\n  codecopy\n  0x00\n  return\nstop\n\nsub_0: assembly {\n        /* \"contracts/Arcade.sol\":257:5669  contract Arcade is Ownable {... */\n      mstore(0x40, 0x80)\n      jumpi(tag_1, lt(calldatasize, 0x04))\n      shr(0xe0, calldataload(0x00))\n      dup1\n      0x8da5cb5b\n      gt\n      tag_21\n      jumpi\n      dup1\n      0xccaf237f\n      gt\n      tag_22\n      jumpi\n      dup1\n      0xccaf237f\n      eq\n      tag_16\n      jumpi\n      dup1\n      0xf207564e\n      eq\n      tag_17\n      jumpi\n      dup1\n      0xf2fde38b\n      eq\n      tag_18\n      jumpi\n      dup1\n      0xf54c42d7\n      eq\n      tag_19\n      jumpi\n      dup1\n      0xfc3af0d6\n      eq\n      tag_20\n      jumpi\n      0x00\n      dup1\n      revert\n    tag_22:\n      dup1\n      0x8da5cb5b\n      eq\n      tag_11\n      jumpi\n      dup1\n      0x8f0d7e35\n      eq\n      tag_12\n      jumpi\n      dup1\n      0x9c623683\n      eq\n      tag_13\n      jumpi\n      dup1\n      0xb9888d89\n      eq\n      tag_14\n      jumpi\n      dup1\n      0xc46ed45a\n      eq\n      tag_15\n      jumpi\n      0x00\n      dup1\n      revert\n    tag_21:\n      dup1\n      0x2d6ef310\n      gt\n      tag_23\n      jumpi\n      dup1\n      0x2d6ef310\n      eq\n      tag_6\n      jumpi\n      dup1\n      0x313ce567\n      eq\n      tag_7\n      jumpi\n      dup1\n      0x715018a6\n      eq\n      tag_8\n      jumpi\n      dup1\n      0x75ca7603\n      eq\n      tag_9\n      jumpi\n      dup1\n      0x7ad226dc\n      eq\n      tag_10\n      jumpi\n      0x00\n      dup1\n      revert\n    tag_23:\n      dup1\n      0xf5544f\n      eq\n      tag_2\n      jumpi\n      dup1\n      0x248a55a1\n      eq\n      tag_3\n      jumpi\n      dup1\n      0x2ac5016f\n      eq\n      tag_4\n      jumpi\n      dup1\n      0x2ba67100\n      eq\n      tag_5\n      jumpi\n    tag_1:\n      0x00\n      dup1\n      revert\n        /* \"contracts/Arcade.sol\":2038:2168  function openGame(uint256 game_id) public onlyOwner {... */\n    tag_2:\n      callvalue\n      dup1\n      iszero\n      tag_24\n      jumpi\n      0x00\n      dup1\n      revert\n    tag_24:\n      pop\n      tag_25\n      tag_26\n      calldatasize\n      0x04\n      tag_27\n      jump\t// in\n    tag_26:\n      tag_28\n      jump\t// in\n    tag_25:\n      stop\n        /* \"contracts/Arcade.sol\":1902:2032  function deleteGame(uint256 game_id) public onlyOwner {... */\n    tag_3:\n      callvalue\n      dup1\n      iszero\n      tag_29\n      jumpi\n      0x00\n      dup1\n      revert\n    tag_29:\n      pop\n      tag_25\n      tag_31\n      calldatasize\n      0x04\n      tag_27\n      jump\t// in\n    tag_31:\n      tag_32\n      jump\t// in\n        /* \"contracts/Arcade.sol\":4613:4726  function setArcadeFeePercentage(uint256 percentage) public onlyOwner {... */\n    tag_4:\n      callvalue\n      dup1\n      iszero\n      tag_33\n      jumpi\n      0x00\n      dup1\n      revert\n    tag_33:\n      pop\n      tag_25\n      tag_35\n      calldatasize\n      0x04\n      tag_27\n      jump\t// in\n    tag_35:\n      tag_36\n      jump\t// in\n        /* \"contracts/Arcade.sol\":4447:4607  function removePlayer(uint256 game_id, address player) public onlyOwner {... */\n    tag_5:\n      callvalue\n      dup1\n      iszero\n      tag_37\n      jumpi\n      0x00\n      dup1\n      revert\n    tag_37:\n      pop\n      tag_25\n      tag_39\n      calldatasize\n      0x04\n      tag_40\n      jump\t// in\n    tag_39:\n      tag_41\n      jump\t// in\n        /* \"contracts/Arcade.sol\":1311:1443  function closeGame(uint256 game_id) public onlyOwner {... */\n    tag_6:\n      callvalue\n      dup1\n      iszero\n      tag_42\n      jumpi\n      0x00\n      dup1\n      revert\n    tag_42:\n      pop\n      tag_25\n      tag_44\n      calldatasize\n      0x04\n      tag_27\n      jump\t// in\n    tag_44:\n      tag_45\n      jump\t// in\n        /* \"contracts/Arcade.sol\":1110:1140  uint256 public decimals = 1e18 */\n    tag_7:\n      callvalue\n      dup1\n      iszero\n      tag_46\n      jumpi\n      0x00\n      dup1\n      revert\n    tag_46:\n      pop\n      tag_47\n      sload(0x02)\n      dup2\n      jump\n    tag_47:\n      mload(0x40)\n        /* \"#utility.yul\":7071:7096   */\n      swap1\n      dup2\n      mstore\n        /* \"#utility.yul\":7059:7061   */\n      0x20\n        /* \"#utility.yul\":7044:7062   */\n      add\n        /* \"contracts/Arcade.sol\":1110:1140  uint256 public decimals = 1e18 */\n    tag_49:\n      mload(0x40)\n      dup1\n      swap2\n      sub\n      swap1\n      return\n        /* \"@openzeppelin/contracts@4.6.0/access/Ownable.sol\":1668:1769  function renounceOwnership() public virtual onlyOwner {... */\n    tag_8:\n      callvalue\n      dup1\n      iszero\n      tag_51\n      jumpi\n      0x00\n      dup1\n      revert\n    tag_51:\n      pop\n      tag_25\n      tag_53\n      jump\t// in\n        /* \"contracts/Arcade.sol\":1181:1208  address public market_maker */\n    tag_9:\n      callvalue\n      dup1\n      iszero\n      tag_54\n      jumpi\n      0x00\n      dup1\n      revert\n    tag_54:\n      pop\n      sload(0x04)\n      tag_55\n      swap1\n      sub(shl(0xa0, 0x01), 0x01)\n      and\n      dup2\n      jump\n    tag_55:\n      mload(0x40)\n      sub(shl(0xa0, 0x01), 0x01)\n        /* \"#utility.yul\":1734:1766   */\n      swap1\n      swap2\n      and\n        /* \"#utility.yul\":1716:1767   */\n      dup2\n      mstore\n        /* \"#utility.yul\":1704:1706   */\n      0x20\n        /* \"#utility.yul\":1689:1707   */\n      add\n        /* \"contracts/Arcade.sol\":1181:1208  address public market_maker */\n      tag_49\n        /* \"#utility.yul\":1671:1773   */\n      jump\n        /* \"contracts/Arcade.sol\":2700:3347  function refund(uint256 game_id, address player) public onlyOwner {... */\n    tag_10:\n      callvalue\n      dup1\n      iszero\n      tag_59\n      jumpi\n      0x00\n      dup1\n      revert\n    tag_59:\n      pop\n      tag_25\n      tag_61\n      calldatasize\n      0x04\n      tag_40\n      jump\t// in\n    tag_61:\n      tag_62\n      jump\t// in\n        /* \"@openzeppelin/contracts@4.6.0/access/Ownable.sol\":1036:1121  function owner() public view virtual returns (address) {... */\n    tag_11:\n      callvalue\n      dup1\n      iszero\n      tag_63\n      jumpi\n      0x00\n      dup1\n      revert\n    tag_63:\n      pop\n        /* \"@openzeppelin/contracts@4.6.0/access/Ownable.sol\":1082:1089  address */\n      0x00\n        /* \"@openzeppelin/contracts@4.6.0/access/Ownable.sol\":1108:1114  _owner */\n      sload\n      sub(shl(0xa0, 0x01), 0x01)\n      and\n        /* \"@openzeppelin/contracts@4.6.0/access/Ownable.sol\":1036:1121  function owner() public view virtual returns (address) {... */\n      jump(tag_55)\n        /* \"contracts/Arcade.sol\":2422:2694  function reconcile() public onlyOwner {... */\n    tag_12:\n      callvalue\n      dup1\n      iszero\n      tag_67\n      jumpi\n      0x00\n      dup1\n      revert\n    tag_67:\n      pop\n      tag_25\n      tag_69\n      jump\t// in\n        /* \"contracts/Arcade.sol\":4837:5667  function setWinner(uint256 game_id, address winner) public onlyOwner {... */\n    tag_13:\n      callvalue\n      dup1\n      iszero\n      tag_70\n      jumpi\n      0x00\n      dup1\n      revert\n    tag_70:\n      pop\n      tag_25\n      tag_72\n      calldatasize\n      0x04\n      tag_40\n      jump\t// in\n    tag_72:\n      tag_73\n      jump\t// in\n        /* \"contracts/Arcade.sol\":2174:2416  function placePlayer(uint256 game_id, address player) public onlyOwner {... */\n    tag_14:\n      callvalue\n      dup1\n      iszero\n      tag_74\n      jumpi\n      0x00\n      dup1\n      revert\n    tag_74:\n      pop\n      tag_25\n      tag_76\n      calldatasize\n      0x04\n      tag_40\n      jump\t// in\n    tag_76:\n      tag_77\n      jump\t// in\n        /* \"contracts/Arcade.sol\":1146:1175  uint256 public fee_percentage */\n    tag_15:\n      callvalue\n      dup1\n      iszero\n      tag_78\n      jumpi\n      0x00\n      dup1\n      revert\n    tag_78:\n      pop\n      tag_47\n      sload(0x03)\n      dup2\n      jump\n        /* \"contracts/Arcade.sol\":1059:1103  mapping(uint256 => GameInfo) public gameData */\n    tag_16:\n      callvalue\n      dup1\n      iszero\n      tag_82\n      jumpi\n      0x00\n      dup1\n      revert\n    tag_82:\n      pop\n      tag_83\n      tag_84\n      calldatasize\n      0x04\n      tag_27\n      jump\t// in\n    tag_84:\n      mstore(0x20, 0x01)\n      0x00\n      swap1\n      dup2\n      mstore\n      0x40\n      swap1\n      keccak256\n      dup1\n      sload\n      0x03\n      dup3\n      add\n      sload\n      0x04\n      dup4\n      add\n      sload\n      0x05\n      dup5\n      add\n      sload\n      0x07\n      dup6\n      add\n      sload\n      0x08\n      swap1\n      swap6\n      add\n      sload\n      0xff\n      swap1\n      swap5\n      and\n      swap5\n      swap3\n      swap4\n      swap2\n      swap3\n      swap1\n      swap2\n      dup7\n      jump\n    tag_83:\n      0x40\n      dup1\n      mload\n        /* \"#utility.yul\":2363:2377   */\n      swap7\n      iszero\n        /* \"#utility.yul\":2356:2378   */\n      iszero\n        /* \"#utility.yul\":2338:2379   */\n      dup8\n      mstore\n        /* \"#utility.yul\":2410:2412   */\n      0x20\n        /* \"#utility.yul\":2395:2413   */\n      dup8\n      add\n        /* \"#utility.yul\":2388:2422   */\n      swap6\n      swap1\n      swap6\n      mstore\n        /* \"#utility.yul\":2438:2456   */\n      swap4\n      dup6\n      add\n        /* \"#utility.yul\":2431:2465   */\n      swap3\n      swap1\n      swap3\n      mstore\n        /* \"#utility.yul\":2496:2498   */\n      0x60\n        /* \"#utility.yul\":2481:2499   */\n      dup5\n      add\n        /* \"#utility.yul\":2474:2508   */\n      mstore\n        /* \"#utility.yul\":2539:2542   */\n      0x80\n        /* \"#utility.yul\":2524:2543   */\n      dup4\n      add\n        /* \"#utility.yul\":2517:2552   */\n      mstore\n        /* \"#utility.yul\":2583:2586   */\n      0xa0\n        /* \"#utility.yul\":2568:2587   */\n      dup3\n      add\n        /* \"#utility.yul\":2561:2596   */\n      mstore\n        /* \"#utility.yul\":2325:2328   */\n      0xc0\n        /* \"#utility.yul\":2310:2329   */\n      add\n        /* \"contracts/Arcade.sol\":1059:1103  mapping(uint256 => GameInfo) public gameData */\n      tag_49\n        /* \"#utility.yul\":2292:2602   */\n      jump\n        /* \"contracts/Arcade.sol\":3831:4441  function register(uint256 game_id) public payable {... */\n    tag_17:\n      tag_25\n      tag_89\n      calldatasize\n      0x04\n      tag_27\n      jump\t// in\n    tag_89:\n      tag_90\n      jump\t// in\n        /* \"@openzeppelin/contracts@4.6.0/access/Ownable.sol\":1918:2116  function transferOwnership(address newOwner) public virtual onlyOwner {... */\n    tag_18:\n      callvalue\n      dup1\n      iszero\n      tag_91\n      jumpi\n      0x00\n      dup1\n      revert\n    tag_91:\n      pop\n      tag_25\n      tag_93\n      calldatasize\n      0x04\n      tag_94\n      jump\t// in\n    tag_93:\n      tag_95\n      jump\t// in\n        /* \"contracts/Arcade.sol\":4732:4831  function setMarketMaker(address incoming) public onlyOwner {... */\n    tag_19:\n      callvalue\n      dup1\n      iszero\n      tag_96\n      jumpi\n      0x00\n      dup1\n      revert\n    tag_96:\n      pop\n      tag_25\n      tag_98\n      calldatasize\n      0x04\n      tag_94\n      jump\t// in\n    tag_98:\n      tag_99\n      jump\t// in\n        /* \"contracts/Arcade.sol\":1449:1896  function createGame(uint256 game_id, uint256 registration_fee, uint256 player_limit, bool exchange) public onlyOwner {... */\n    tag_20:\n      callvalue\n      dup1\n      iszero\n      tag_100\n      jumpi\n      0x00\n      dup1\n      revert\n    tag_100:\n      pop\n      tag_25\n      tag_102\n      calldatasize\n      0x04\n      tag_103\n      jump\t// in\n    tag_102:\n      tag_104\n      jump\t// in\n        /* \"contracts/Arcade.sol\":2038:2168  function openGame(uint256 game_id) public onlyOwner {... */\n    tag_28:\n        /* \"@openzeppelin/contracts@4.6.0/access/Ownable.sol\":1082:1089  address */\n      0x00\n        /* \"@openzeppelin/contracts@4.6.0/access/Ownable.sol\":1108:1114  _owner */\n      sload\n      sub(shl(0xa0, 0x01), 0x01)\n      and\n        /* \"@openzeppelin/contracts@4.6.0/utils/Context.sol\":719:729  msg.sender */\n      caller\n        /* \"@openzeppelin/contracts@4.6.0/access/Ownable.sol\":1248:1271  owner() == _msgSender() */\n      eq\n        /* \"@openzeppelin/contracts@4.6.0/access/Ownable.sol\":1240:1308  require(owner() == _msgSender(), \"Ownable: caller is not the owner\") */\n      tag_109\n      jumpi\n      mload(0x40)\n      shl(0xe5, 0x461bcd)\n      dup2\n      mstore\n      0x04\n      add\n      tag_110\n      swap1\n      tag_111\n      jump\t// in\n    tag_110:\n      mload(0x40)\n      dup1\n      swap2\n      sub\n      swap1\n      revert\n    tag_109:\n        /* \"contracts/Arcade.sol\":2100:2117  gameData[game_id] */\n      0x00\n      dup2\n      dup2\n      mstore\n        /* \"contracts/Arcade.sol\":2127:2128  1 */\n      0x01\n        /* \"contracts/Arcade.sol\":2100:2117  gameData[game_id] */\n      0x20\n      dup2\n      swap1\n      mstore\n      0x40\n      swap2\n      dup3\n      swap1\n      keccak256\n        /* \"contracts/Arcade.sol\":2100:2124  gameData[game_id].status */\n      0x07\n      add\n        /* \"contracts/Arcade.sol\":2100:2128  gameData[game_id].status = 1 */\n      sstore\n        /* \"contracts/Arcade.sol\":2144:2161  OpenGame(game_id) */\n      mload\n      0x651a9760985edc53055bf2462cb4437b9be3de87aa3eecf2c05782e8b58eba19\n      swap1\n      tag_113\n      swap1\n        /* \"contracts/Arcade.sol\":2109:2116  game_id */\n      dup4\n        /* \"#utility.yul\":7071:7096   */\n      dup2\n      mstore\n        /* \"#utility.yul\":7059:7061   */\n      0x20\n        /* \"#utility.yul\":7044:7062   */\n      add\n      swap1\n        /* \"#utility.yul\":7026:7102   */\n      jump\n        /* \"contracts/Arcade.sol\":2144:2161  OpenGame(game_id) */\n    tag_113:\n      mload(0x40)\n      dup1\n      swap2\n      sub\n      swap1\n      log1\n        /* \"contracts/Arcade.sol\":2038:2168  function openGame(uint256 game_id) public onlyOwner {... */\n      pop\n      jump\t// out\n        /* \"contracts/Arcade.sol\":1902:2032  function deleteGame(uint256 game_id) public onlyOwner {... */\n    tag_32:\n        /* \"@openzeppelin/contracts@4.6.0/access/Ownable.sol\":1082:1089  address */\n      0x00\n        /* \"@openzeppelin/contracts@4.6.0/access/Ownable.sol\":1108:1114  _owner */\n      sload\n      sub(shl(0xa0, 0x01), 0x01)\n      and\n        /* \"@openzeppelin/contracts@4.6.0/utils/Context.sol\":719:729  msg.sender */\n      caller\n        /* \"@openzeppelin/contracts@4.6.0/access/Ownable.sol\":1248:1271  owner() == _msgSender() */\n      eq\n        /* \"@openzeppelin/contracts@4.6.0/access/Ownable.sol\":1240:1308  require(owner() == _msgSender(), \"Ownable: caller is not the owner\") */\n      tag_117\n      jumpi\n      mload(0x40)\n      shl(0xe5, 0x461bcd)\n      dup2\n      mstore\n      0x04\n      add\n      tag_110\n      swap1\n      tag_111\n      jump\t// in\n    tag_117:\n        /* \"contracts/Arcade.sol\":1973:1990  gameData[game_id] */\n      0x00\n      dup2\n      dup2\n      mstore\n        /* \"contracts/Arcade.sol\":1973:1981  gameData */\n      0x01\n        /* \"contracts/Arcade.sol\":1973:1990  gameData[game_id] */\n      0x20\n      mstore\n      0x40\n      dup1\n      dup3\n      keccak256\n        /* \"contracts/Arcade.sol\":1966:1990  delete gameData[game_id] */\n      dup1\n      sload\n      not(0xff)\n      and\n      dup2\n      sstore\n      0x03\n      dup2\n      add\n      dup4\n      swap1\n      sstore\n      0x04\n      dup2\n      add\n      dup4\n      swap1\n      sstore\n      0x05\n      dup2\n      add\n      dup4\n      swap1\n      sstore\n      0x07\n      dup2\n      add\n      dup4\n      swap1\n      sstore\n      0x08\n      add\n      swap2\n      swap1\n      swap2\n      sstore\n        /* \"contracts/Arcade.sol\":2006:2025  DeleteGame(game_id) */\n      mload\n      0xd0b153e02e23f4f21d020465b4dac7b1114893d05db395ed2511f879c3ac90b4\n      swap1\n      tag_113\n      swap1\n        /* \"contracts/Arcade.sol\":1982:1989  game_id */\n      dup4\n        /* \"#utility.yul\":7071:7096   */\n      dup2\n      mstore\n        /* \"#utility.yul\":7059:7061   */\n      0x20\n        /* \"#utility.yul\":7044:7062   */\n      add\n      swap1\n        /* \"#utility.yul\":7026:7102   */\n      jump\n        /* \"contracts/Arcade.sol\":4613:4726  function setArcadeFeePercentage(uint256 percentage) public onlyOwner {... */\n    tag_36:\n        /* \"@openzeppelin/contracts@4.6.0/access/Ownable.sol\":1082:1089  address */\n      0x00\n        /* \"@openzeppelin/contracts@4.6.0/access/Ownable.sol\":1108:1114  _owner */\n      sload\n      sub(shl(0xa0, 0x01), 0x01)\n      and\n        /* \"@openzeppelin/contracts@4.6.0/utils/Context.sol\":719:729  msg.sender */\n      caller\n        /* \"@openzeppelin/contracts@4.6.0/access/Ownable.sol\":1248:1271  owner() == _msgSender() */\n      eq\n        /* \"@openzeppelin/contracts@4.6.0/access/Ownable.sol\":1240:1308  require(owner() == _msgSender(), \"Ownable: caller is not the owner\") */\n      tag_124\n      jumpi\n      mload(0x40)\n      shl(0xe5, 0x461bcd)\n      dup2\n      mstore\n      0x04\n      add\n      tag_110\n      swap1\n      tag_111\n      jump\t// in\n    tag_124:\n        /* \"contracts/Arcade.sol\":4692:4706  fee_percentage */\n      0x03\n        /* \"contracts/Arcade.sol\":4692:4719  fee_percentage = percentage */\n      sstore\n        /* \"contracts/Arcade.sol\":4613:4726  function setArcadeFeePercentage(uint256 percentage) public onlyOwner {... */\n      jump\t// out\n        /* \"contracts/Arcade.sol\":4447:4607  function removePlayer(uint256 game_id, address player) public onlyOwner {... */\n    tag_41:\n        /* \"@openzeppelin/contracts@4.6.0/access/Ownable.sol\":1082:1089  address */\n      0x00\n        /* \"@openzeppelin/contracts@4.6.0/access/Ownable.sol\":1108:1114  _owner */\n      sload\n      sub(shl(0xa0, 0x01), 0x01)\n      and\n        /* \"@openzeppelin/contracts@4.6.0/utils/Context.sol\":719:729  msg.sender */\n      caller\n        /* \"@openzeppelin/contracts@4.6.0/access/Ownable.sol\":1248:1271  owner() == _msgSender() */\n      eq\n        /* \"@openzeppelin/contracts@4.6.0/access/Ownable.sol\":1240:1308  require(owner() == _msgSender(), \"Ownable: caller is not the owner\") */\n      tag_130\n      jumpi\n      mload(0x40)\n      shl(0xe5, 0x461bcd)\n      dup2\n      mstore\n      0x04\n      add\n      tag_110\n      swap1\n      tag_111\n      jump\t// in\n    tag_130:\n        /* \"contracts/Arcade.sol\":4563:4564  0 */\n      0x00\n        /* \"contracts/Arcade.sol\":4529:4546  gameData[game_id] */\n      dup3\n      dup2\n      mstore\n        /* \"contracts/Arcade.sol\":4529:4537  gameData */\n      0x01\n        /* \"contracts/Arcade.sol\":4529:4546  gameData[game_id] */\n      0x20\n      swap1\n      dup2\n      mstore\n      0x40\n      dup1\n      dup4\n      keccak256\n      sub(shl(0xa0, 0x01), 0x01)\n        /* \"contracts/Arcade.sol\":4529:4560  gameData[game_id].seats[player] */\n      dup6\n      and\n      dup1\n      dup6\n      mstore\n        /* \"contracts/Arcade.sol\":4529:4552  gameData[game_id].seats */\n      0x06\n      swap1\n      swap2\n      add\n        /* \"contracts/Arcade.sol\":4529:4560  gameData[game_id].seats[player] */\n      dup4\n      mstore\n      dup2\n      dup5\n      keccak256\n        /* \"contracts/Arcade.sol\":4529:4564  gameData[game_id].seats[player] = 0 */\n      swap4\n      swap1\n      swap4\n      sstore\n        /* \"contracts/Arcade.sol\":4580:4600  RemovePlayer(player) */\n      mload\n        /* \"#utility.yul\":1716:1767   */\n      swap2\n      dup3\n      mstore\n        /* \"contracts/Arcade.sol\":4580:4600  RemovePlayer(player) */\n      0x34aeefd5030be05fe70eebc8866d82f935a308eb9f334cba88f5e3bea1a0cae8\n      swap2\n        /* \"#utility.yul\":1689:1707   */\n      add\n        /* \"contracts/Arcade.sol\":4580:4600  RemovePlayer(player) */\n    tag_133:\n      mload(0x40)\n      dup1\n      swap2\n      sub\n      swap1\n      log1\n        /* \"contracts/Arcade.sol\":4447:4607  function removePlayer(uint256 game_id, address player) public onlyOwner {... */\n      pop\n      pop\n      jump\t// out\n        /* \"contracts/Arcade.sol\":1311:1443  function closeGame(uint256 game_id) public onlyOwner {... */\n    tag_45:\n        /* \"@openzeppelin/contracts@4.6.0/access/Ownable.sol\":1082:1089  address */\n      0x00\n        /* \"@openzeppelin/contracts@4.6.0/access/Ownable.sol\":1108:1114  _owner */\n      sload\n      sub(shl(0xa0, 0x01), 0x01)\n      and\n        /* \"@openzeppelin/contracts@4.6.0/utils/Context.sol\":719:729  msg.sender */\n      caller\n        /* \"@openzeppelin/contracts@4.6.0/access/Ownable.sol\":1248:1271  owner() == _msgSender() */\n      eq\n        /* \"@openzeppelin/contracts@4.6.0/access/Ownable.sol\":1240:1308  require(owner() == _msgSender(), \"Ownable: caller is not the owner\") */\n      tag_137\n      jumpi\n      mload(0x40)\n      shl(0xe5, 0x461bcd)\n      dup2\n      mstore\n      0x04\n      add\n      tag_110\n      swap1\n      tag_111\n      jump\t// in\n    tag_137:\n        /* \"contracts/Arcade.sol\":1401:1402  0 */\n      0x00\n        /* \"contracts/Arcade.sol\":1374:1391  gameData[game_id] */\n      dup2\n      dup2\n      mstore\n        /* \"contracts/Arcade.sol\":1374:1382  gameData */\n      0x01\n        /* \"contracts/Arcade.sol\":1374:1391  gameData[game_id] */\n      0x20\n      mstore\n      0x40\n      dup1\n      dup3\n      keccak256\n        /* \"contracts/Arcade.sol\":1374:1398  gameData[game_id].status */\n      0x07\n      add\n        /* \"contracts/Arcade.sol\":1374:1402  gameData[game_id].status = 0 */\n      swap2\n      swap1\n      swap2\n      sstore\n        /* \"contracts/Arcade.sol\":1418:1436  CloseGame(game_id) */\n      mload\n      0x827e8bff9f46048f8351964d2c871d09e4f4231513cf2fcb786649c68732e24f\n      swap1\n      tag_113\n      swap1\n        /* \"contracts/Arcade.sol\":1383:1390  game_id */\n      dup4\n        /* \"#utility.yul\":7071:7096   */\n      dup2\n      mstore\n        /* \"#utility.yul\":7059:7061   */\n      0x20\n        /* \"#utility.yul\":7044:7062   */\n      add\n      swap1\n        /* \"#utility.yul\":7026:7102   */\n      jump\n        /* \"@openzeppelin/contracts@4.6.0/access/Ownable.sol\":1668:1769  function renounceOwnership() public virtual onlyOwner {... */\n    tag_53:\n        /* \"@openzeppelin/contracts@4.6.0/access/Ownable.sol\":1082:1089  address */\n      0x00\n        /* \"@openzeppelin/contracts@4.6.0/access/Ownable.sol\":1108:1114  _owner */\n      sload\n      sub(shl(0xa0, 0x01), 0x01)\n      and\n        /* \"@openzeppelin/contracts@4.6.0/utils/Context.sol\":719:729  msg.sender */\n      caller\n        /* \"@openzeppelin/contracts@4.6.0/access/Ownable.sol\":1248:1271  owner() == _msgSender() */\n      eq\n        /* \"@openzeppelin/contracts@4.6.0/access/Ownable.sol\":1240:1308  require(owner() == _msgSender(), \"Ownable: caller is not the owner\") */\n      tag_144\n      jumpi\n      mload(0x40)\n      shl(0xe5, 0x461bcd)\n      dup2\n      mstore\n      0x04\n      add\n      tag_110\n      swap1\n      tag_111\n      jump\t// in\n    tag_144:\n        /* \"@openzeppelin/contracts@4.6.0/access/Ownable.sol\":1732:1762  _transferOwnership(address(0)) */\n      tag_147\n        /* \"@openzeppelin/contracts@4.6.0/access/Ownable.sol\":1759:1760  0 */\n      0x00\n        /* \"@openzeppelin/contracts@4.6.0/access/Ownable.sol\":1732:1750  _transferOwnership */\n      tag_148\n        /* \"@openzeppelin/contracts@4.6.0/access/Ownable.sol\":1732:1762  _transferOwnership(address(0)) */\n      jump\t// in\n    tag_147:\n        /* \"@openzeppelin/contracts@4.6.0/access/Ownable.sol\":1668:1769  function renounceOwnership() public virtual onlyOwner {... */\n      jump\t// out\n        /* \"contracts/Arcade.sol\":2700:3347  function refund(uint256 game_id, address player) public onlyOwner {... */\n    tag_62:\n        /* \"@openzeppelin/contracts@4.6.0/access/Ownable.sol\":1082:1089  address */\n      0x00\n        /* \"@openzeppelin/contracts@4.6.0/access/Ownable.sol\":1108:1114  _owner */\n      sload\n      sub(shl(0xa0, 0x01), 0x01)\n      and\n        /* \"@openzeppelin/contracts@4.6.0/utils/Context.sol\":719:729  msg.sender */\n      caller\n        /* \"@openzeppelin/contracts@4.6.0/access/Ownable.sol\":1248:1271  owner() == _msgSender() */\n      eq\n        /* \"@openzeppelin/contracts@4.6.0/access/Ownable.sol\":1240:1308  require(owner() == _msgSender(), \"Ownable: caller is not the owner\") */\n      tag_152\n      jumpi\n      mload(0x40)\n      shl(0xe5, 0x461bcd)\n      dup2\n      mstore\n      0x04\n      add\n      tag_110\n      swap1\n      tag_111\n      jump\t// in\n    tag_152:\n        /* \"contracts/Arcade.sol\":2780:2797  gameData[game_id] */\n      0x00\n      dup3\n      dup2\n      mstore\n        /* \"contracts/Arcade.sol\":2780:2788  gameData */\n      0x01\n        /* \"contracts/Arcade.sol\":2780:2797  gameData[game_id] */\n      0x20\n      mstore\n      0x40\n      swap1\n      keccak256\n        /* \"contracts/Arcade.sol\":2780:2806  gameData[game_id].exchange */\n      sload\n      0xff\n      and\n        /* \"contracts/Arcade.sol\":2776:3341  if (gameData[game_id].exchange == false) {... */\n      tag_155\n      jumpi\n        /* \"contracts/Arcade.sol\":2839:2856  gameData[game_id] */\n      0x00\n      dup3\n      dup2\n      mstore\n        /* \"contracts/Arcade.sol\":2839:2847  gameData */\n      0x01\n        /* \"contracts/Arcade.sol\":2839:2856  gameData[game_id] */\n      0x20\n      dup2\n      dup2\n      mstore\n      0x40\n      dup1\n      dup5\n      keccak256\n      sub(shl(0xa0, 0x01), 0x01)\n        /* \"contracts/Arcade.sol\":2839:2869  gameData[game_id].paid[player] */\n      dup7\n      and\n      dup6\n      mstore\n        /* \"contracts/Arcade.sol\":2839:2861  gameData[game_id].paid */\n      0x02\n      add\n        /* \"contracts/Arcade.sol\":2839:2869  gameData[game_id].paid[player] */\n      swap1\n      swap2\n      mstore\n      swap1\n      swap2\n      keccak256\n      sload\n        /* \"contracts/Arcade.sol\":2839:2874  gameData[game_id].paid[player] == 1 */\n      eq\n        /* \"contracts/Arcade.sol\":2831:2908  require(gameData[game_id].paid[player] == 1, \"Not registered for this game.\") */\n      tag_156\n      jumpi\n      mload(0x40)\n      shl(0xe5, 0x461bcd)\n      dup2\n      mstore\n        /* \"#utility.yul\":4265:4267   */\n      0x20\n        /* \"contracts/Arcade.sol\":2831:2908  require(gameData[game_id].paid[player] == 1, \"Not registered for this game.\") */\n      0x04\n      dup3\n      add\n        /* \"#utility.yul\":4247:4268   */\n      mstore\n        /* \"#utility.yul\":4304:4306   */\n      0x1d\n        /* \"#utility.yul\":4284:4302   */\n      0x24\n      dup3\n      add\n        /* \"#utility.yul\":4277:4307   */\n      mstore\n        /* \"#utility.yul\":4343:4374   */\n      0x4e6f74207265676973746572656420666f7220746869732067616d652e000000\n        /* \"#utility.yul\":4323:4341   */\n      0x44\n      dup3\n      add\n        /* \"#utility.yul\":4316:4375   */\n      mstore\n        /* \"#utility.yul\":4392:4410   */\n      0x64\n      add\n        /* \"contracts/Arcade.sol\":2831:2908  require(gameData[game_id].paid[player] == 1, \"Not registered for this game.\") */\n      tag_110\n        /* \"#utility.yul\":4237:4416   */\n      jump\n        /* \"contracts/Arcade.sol\":2831:2908  require(gameData[game_id].paid[player] == 1, \"Not registered for this game.\") */\n    tag_156:\n        /* \"contracts/Arcade.sol\":2923:2942  GameInfo storage gi */\n      0x00\n        /* \"contracts/Arcade.sol\":2945:2962  gameData[game_id] */\n      dup3\n      dup2\n      mstore\n        /* \"contracts/Arcade.sol\":2945:2953  gameData */\n      0x01\n        /* \"contracts/Arcade.sol\":2945:2962  gameData[game_id] */\n      0x20\n      mstore\n      0x40\n      dup1\n      dup3\n      keccak256\n        /* \"contracts/Arcade.sol\":3016:3035  gi.registration_fee */\n      0x05\n      dup2\n      add\n      sload\n        /* \"contracts/Arcade.sol\":2996:3041  player.call{ value: gi.registration_fee }(\"\") */\n      swap2\n      mload\n        /* \"contracts/Arcade.sol\":2945:2962  gameData[game_id] */\n      swap1\n      swap3\n        /* \"contracts/Arcade.sol\":2923:2942  GameInfo storage gi */\n      swap2\n      sub(shl(0xa0, 0x01), 0x01)\n        /* \"contracts/Arcade.sol\":2996:3007  player.call */\n      dup6\n      and\n      swap2\n        /* \"contracts/Arcade.sol\":2923:2942  GameInfo storage gi */\n      dup4\n        /* \"contracts/Arcade.sol\":2996:3041  player.call{ value: gi.registration_fee }(\"\") */\n      dup2\n        /* \"contracts/Arcade.sol\":2923:2942  GameInfo storage gi */\n      dup2\n        /* \"contracts/Arcade.sol\":2996:3041  player.call{ value: gi.registration_fee }(\"\") */\n      dup2\n        /* \"contracts/Arcade.sol\":3016:3035  gi.registration_fee */\n      dup6\n        /* \"contracts/Arcade.sol\":2996:3007  player.call */\n      dup8\n        /* \"contracts/Arcade.sol\":2996:3041  player.call{ value: gi.registration_fee }(\"\") */\n      gas\n      call\n      swap3\n      pop\n      pop\n      pop\n      returndatasize\n      dup1\n      0x00\n      dup2\n      eq\n      tag_163\n      jumpi\n      mload(0x40)\n      swap2\n      pop\n      and(add(returndatasize, 0x3f), not(0x1f))\n      dup3\n      add\n      0x40\n      mstore\n      returndatasize\n      dup3\n      mstore\n      returndatasize\n      0x00\n      0x20\n      dup5\n      add\n      returndatacopy\n      jump(tag_162)\n    tag_163:\n      0x60\n      swap2\n      pop\n    tag_162:\n      pop\n        /* \"contracts/Arcade.sol\":2977:3041  (bool success, ) = player.call{ value: gi.registration_fee }(\"\") */\n      pop\n      swap1\n      pop\n        /* \"contracts/Arcade.sol\":3063:3070  success */\n      dup1\n        /* \"contracts/Arcade.sol\":3055:3114  require(success, \"Trophy King Arcade: Unable to transfer.\") */\n      tag_164\n      jumpi\n      mload(0x40)\n      shl(0xe5, 0x461bcd)\n      dup2\n      mstore\n      0x04\n      add\n      tag_110\n      swap1\n      tag_166\n      jump\t// in\n    tag_164:\n        /* \"contracts/Arcade.sol\":3158:3177  gi.registration_fee */\n      0x05\n      dup3\n      add\n      sload\n        /* \"contracts/Arcade.sol\":3134:3178  Refund(game_id, player, gi.registration_fee) */\n      0x40\n      dup1\n      mload\n        /* \"#utility.yul\":7309:7334   */\n      dup7\n      dup2\n      mstore\n      sub(shl(0xa0, 0x01), 0x01)\n        /* \"#utility.yul\":7370:7402   */\n      dup7\n      and\n        /* \"#utility.yul\":7365:7367   */\n      0x20\n        /* \"#utility.yul\":7350:7368   */\n      dup3\n      add\n        /* \"#utility.yul\":7343:7403   */\n      mstore\n        /* \"#utility.yul\":7419:7437   */\n      dup1\n      dup3\n      add\n        /* \"#utility.yul\":7412:7446   */\n      swap3\n      swap1\n      swap3\n      mstore\n        /* \"contracts/Arcade.sol\":3134:3178  Refund(game_id, player, gi.registration_fee) */\n      mload\n      0x21e12a7cad0da5928167e1084ea4d5fdf8d9af66657a2543a9ac76a0ca081477\n      swap2\n      dup2\n      swap1\n      sub\n        /* \"#utility.yul\":7297:7299   */\n      0x60\n        /* \"contracts/Arcade.sol\":3134:3178  Refund(game_id, player, gi.registration_fee) */\n      add\n      swap1\n      log1\n        /* \"contracts/Arcade.sol\":3210:3212  gi */\n      dup2\n        /* \"contracts/Arcade.sol\":3210:3229  gi.registration_fee */\n      0x05\n      add\n      sload\n        /* \"contracts/Arcade.sol\":3193:3195  gi */\n      dup3\n        /* \"contracts/Arcade.sol\":3193:3205  gi.total_fee */\n      0x08\n      add\n      0x00\n        /* \"contracts/Arcade.sol\":3193:3230  gi.total_fee -= (gi.registration_fee) */\n      dup3\n      dup3\n      sload\n      tag_169\n      swap2\n      swap1\n      tag_170\n      jump\t// in\n    tag_169:\n      swap1\n      swap2\n      sstore\n      pop\n      pop\n      sub(shl(0xa0, 0x01), 0x01)\n        /* \"contracts/Arcade.sol\":3245:3259  gi.fee[player] */\n      dup4\n      and\n        /* \"contracts/Arcade.sol\":3262:3263  0 */\n      0x00\n        /* \"contracts/Arcade.sol\":3245:3259  gi.fee[player] */\n      swap1\n      dup2\n      mstore\n        /* \"contracts/Arcade.sol\":3245:3251  gi.fee */\n      0x01\n      dup1\n      dup5\n      add\n        /* \"contracts/Arcade.sol\":3245:3259  gi.fee[player] */\n      0x20\n      swap1\n      dup2\n      mstore\n      0x40\n      dup1\n      dup5\n      keccak256\n        /* \"contracts/Arcade.sol\":3245:3263  gi.fee[player] = 0 */\n      dup5\n      swap1\n      sstore\n        /* \"contracts/Arcade.sol\":3277:3284  gi.paid */\n      0x02\n      dup7\n      add\n        /* \"contracts/Arcade.sol\":3277:3292  gi.paid[player] */\n      swap1\n      swap2\n      mstore\n      dup3\n      keccak256\n        /* \"contracts/Arcade.sol\":3277:3296  gi.paid[player] = 0 */\n      dup3\n      swap1\n      sstore\n        /* \"contracts/Arcade.sol\":3310:3325  gi.player_count */\n      0x03\n      dup5\n      add\n        /* \"contracts/Arcade.sol\":3310:3330  gi.player_count -= 1 */\n      dup1\n      sload\n        /* \"contracts/Arcade.sol\":3245:3251  gi.fee */\n      swap2\n      swap3\n        /* \"contracts/Arcade.sol\":3310:3325  gi.player_count */\n      swap1\n      swap2\n        /* \"contracts/Arcade.sol\":3310:3330  gi.player_count -= 1 */\n      tag_171\n      swap1\n        /* \"contracts/Arcade.sol\":3245:3251  gi.fee */\n      dup5\n      swap1\n        /* \"contracts/Arcade.sol\":3310:3330  gi.player_count -= 1 */\n      tag_170\n      jump\t// in\n    tag_171:\n      swap1\n      swap2\n      sstore\n      pop\n      pop\n      pop\n      pop\n        /* \"contracts/Arcade.sol\":2776:3341  if (gameData[game_id].exchange == false) {... */\n    tag_155:\n        /* \"contracts/Arcade.sol\":2700:3347  function refund(uint256 game_id, address player) public onlyOwner {... */\n      pop\n      pop\n      jump\t// out\n        /* \"contracts/Arcade.sol\":2422:2694  function reconcile() public onlyOwner {... */\n    tag_69:\n        /* \"@openzeppelin/contracts@4.6.0/access/Ownable.sol\":1082:1089  address */\n      0x00\n        /* \"@openzeppelin/contracts@4.6.0/access/Ownable.sol\":1108:1114  _owner */\n      sload\n      sub(shl(0xa0, 0x01), 0x01)\n      and\n        /* \"@openzeppelin/contracts@4.6.0/utils/Context.sol\":719:729  msg.sender */\n      caller\n        /* \"@openzeppelin/contracts@4.6.0/access/Ownable.sol\":1248:1271  owner() == _msgSender() */\n      eq\n        /* \"@openzeppelin/contracts@4.6.0/access/Ownable.sol\":1240:1308  require(owner() == _msgSender(), \"Ownable: caller is not the owner\") */\n      tag_176\n      jumpi\n      mload(0x40)\n      shl(0xe5, 0x461bcd)\n      dup2\n      mstore\n      0x04\n      add\n      tag_110\n      swap1\n      tag_111\n      jump\t// in\n    tag_176:\n        /* \"contracts/Arcade.sol\":2488:2509  address(this).balance */\n      selfbalance\n        /* \"contracts/Arcade.sol\":2524:2535  balance > 0 */\n      dup1\n      iszero\n        /* \"contracts/Arcade.sol\":2520:2688  if (balance > 0) {... */\n      tag_179\n      jumpi\n        /* \"contracts/Arcade.sol\":2552:2564  bool success */\n      0x00\n        /* \"@openzeppelin/contracts@4.6.0/access/Ownable.sol\":1108:1114  _owner */\n      dup1\n      sload\n        /* \"contracts/Arcade.sol\":2570:2604  owner().call{ value: balance }(\"\") */\n      mload(0x40)\n      sub(shl(0xa0, 0x01), 0x01)\n        /* \"@openzeppelin/contracts@4.6.0/access/Ownable.sol\":1108:1114  _owner */\n      swap1\n      swap2\n      and\n      swap1\n        /* \"contracts/Arcade.sol\":2591:2598  balance */\n      dup4\n      swap1\n        /* \"contracts/Arcade.sol\":2552:2564  bool success */\n      dup4\n        /* \"contracts/Arcade.sol\":2570:2604  owner().call{ value: balance }(\"\") */\n      dup2\n        /* \"contracts/Arcade.sol\":2552:2564  bool success */\n      dup2\n        /* \"contracts/Arcade.sol\":2570:2604  owner().call{ value: balance }(\"\") */\n      dup2\n        /* \"contracts/Arcade.sol\":2591:2598  balance */\n      dup6\n        /* \"@openzeppelin/contracts@4.6.0/access/Ownable.sol\":1108:1114  _owner */\n      dup8\n        /* \"contracts/Arcade.sol\":2570:2604  owner().call{ value: balance }(\"\") */\n      gas\n      call\n      swap3\n      pop\n      pop\n      pop\n      returndatasize\n      dup1\n      0x00\n      dup2\n      eq\n      tag_184\n      jumpi\n      mload(0x40)\n      swap2\n      pop\n      and(add(returndatasize, 0x3f), not(0x1f))\n      dup3\n      add\n      0x40\n      mstore\n      returndatasize\n      dup3\n      mstore\n      returndatasize\n      0x00\n      0x20\n      dup5\n      add\n      returndatacopy\n      jump(tag_183)\n    tag_184:\n      0x60\n      swap2\n      pop\n    tag_183:\n      pop\n        /* \"contracts/Arcade.sol\":2551:2604  (bool success, ) = owner().call{ value: balance }(\"\") */\n      pop\n      swap1\n      pop\n        /* \"contracts/Arcade.sol\":2626:2633  success */\n      dup1\n        /* \"contracts/Arcade.sol\":2618:2677  require(success, \"Trophy King Arcade: Unable to transfer.\") */\n      tag_155\n      jumpi\n      mload(0x40)\n      shl(0xe5, 0x461bcd)\n      dup2\n      mstore\n      0x04\n      add\n      tag_110\n      swap1\n      tag_166\n      jump\t// in\n        /* \"contracts/Arcade.sol\":2520:2688  if (balance > 0) {... */\n    tag_179:\n        /* \"@openzeppelin/contracts@4.6.0/access/Ownable.sol\":1318:1319  _ */\n      pop\n        /* \"contracts/Arcade.sol\":2422:2694  function reconcile() public onlyOwner {... */\n      jump\t// out\n        /* \"contracts/Arcade.sol\":4837:5667  function setWinner(uint256 game_id, address winner) public onlyOwner {... */\n    tag_73:\n        /* \"@openzeppelin/contracts@4.6.0/access/Ownable.sol\":1082:1089  address */\n      0x00\n        /* \"@openzeppelin/contracts@4.6.0/access/Ownable.sol\":1108:1114  _owner */\n      sload\n      sub(shl(0xa0, 0x01), 0x01)\n      and\n        /* \"@openzeppelin/contracts@4.6.0/utils/Context.sol\":719:729  msg.sender */\n      caller\n        /* \"@openzeppelin/contracts@4.6.0/access/Ownable.sol\":1248:1271  owner() == _msgSender() */\n      eq\n        /* \"@openzeppelin/contracts@4.6.0/access/Ownable.sol\":1240:1308  require(owner() == _msgSender(), \"Ownable: caller is not the owner\") */\n      tag_190\n      jumpi\n      mload(0x40)\n      shl(0xe5, 0x461bcd)\n      dup2\n      mstore\n      0x04\n      add\n      tag_110\n      swap1\n      tag_111\n      jump\t// in\n    tag_190:\n        /* \"contracts/Arcade.sol\":4920:4937  gameData[game_id] */\n      0x00\n      dup3\n      dup2\n      mstore\n        /* \"contracts/Arcade.sol\":4920:4928  gameData */\n      0x01\n        /* \"contracts/Arcade.sol\":4920:4937  gameData[game_id] */\n      0x20\n      mstore\n      0x40\n      swap1\n      keccak256\n        /* \"contracts/Arcade.sol\":4920:4946  gameData[game_id].exchange */\n      sload\n      0xff\n      and\n        /* \"contracts/Arcade.sol\":4916:5632  if (gameData[game_id].exchange == false) {... */\n      tag_193\n      jumpi\n        /* \"contracts/Arcade.sol\":4980:4997  gameData[game_id] */\n      0x00\n      dup3\n      dup2\n      mstore\n        /* \"contracts/Arcade.sol\":4980:4988  gameData */\n      0x01\n        /* \"contracts/Arcade.sol\":4980:4997  gameData[game_id] */\n      0x20\n      dup2\n      dup2\n      mstore\n      0x40\n      dup1\n      dup5\n      keccak256\n      sub(shl(0xa0, 0x01), 0x01)\n        /* \"contracts/Arcade.sol\":4980:5009  gameData[game_id].fee[winner] */\n      dup7\n      and\n      dup6\n      mstore\n        /* \"contracts/Arcade.sol\":4980:5001  gameData[game_id].fee */\n      swap1\n      swap3\n      add\n        /* \"contracts/Arcade.sol\":4980:5009  gameData[game_id].fee[winner] */\n      dup2\n      mstore\n      swap2\n      dup2\n      swap1\n      keccak256\n      sload\n        /* \"contracts/Arcade.sol\":4976:5010  Fee(gameData[game_id].fee[winner]) */\n      swap1\n      mload\n        /* \"#utility.yul\":7071:7096   */\n      swap1\n      dup2\n      mstore\n        /* \"contracts/Arcade.sol\":4976:5010  Fee(gameData[game_id].fee[winner]) */\n      0x557809284da7314475b1582804ae28e5f1349efc1fe970ea25d50fce75eb4f43\n      swap2\n        /* \"#utility.yul\":7044:7062   */\n      add\n        /* \"contracts/Arcade.sol\":4976:5010  Fee(gameData[game_id].fee[winner]) */\n      mload(0x40)\n      dup1\n      swap2\n      sub\n      swap1\n      log1\n        /* \"contracts/Arcade.sol\":5033:5050  gameData[game_id] */\n      0x00\n      dup3\n      dup2\n      mstore\n        /* \"contracts/Arcade.sol\":5033:5041  gameData */\n      0x01\n        /* \"contracts/Arcade.sol\":5033:5050  gameData[game_id] */\n      0x20\n      dup2\n      dup2\n      mstore\n      0x40\n      dup1\n      dup5\n      keccak256\n      sub(shl(0xa0, 0x01), 0x01)\n        /* \"contracts/Arcade.sol\":5033:5063  gameData[game_id].paid[winner] */\n      dup7\n      and\n      dup6\n      mstore\n        /* \"contracts/Arcade.sol\":5033:5055  gameData[game_id].paid */\n      0x02\n      add\n        /* \"contracts/Arcade.sol\":5033:5063  gameData[game_id].paid[winner] */\n      swap1\n      swap2\n      mstore\n      swap1\n      swap2\n      keccak256\n      sload\n        /* \"contracts/Arcade.sol\":5033:5068  gameData[game_id].paid[winner] == 1 */\n      eq\n        /* \"contracts/Arcade.sol\":5025:5101  require(gameData[game_id].paid[winner] == 1, \"Not registered for this game\") */\n      tag_195\n      jumpi\n      mload(0x40)\n      shl(0xe5, 0x461bcd)\n      dup2\n      mstore\n        /* \"#utility.yul\":5667:5669   */\n      0x20\n        /* \"contracts/Arcade.sol\":5025:5101  require(gameData[game_id].paid[winner] == 1, \"Not registered for this game\") */\n      0x04\n      dup3\n      add\n        /* \"#utility.yul\":5649:5670   */\n      mstore\n        /* \"#utility.yul\":5706:5708   */\n      0x1c\n        /* \"#utility.yul\":5686:5704   */\n      0x24\n      dup3\n      add\n        /* \"#utility.yul\":5679:5709   */\n      mstore\n        /* \"#utility.yul\":5745:5775   */\n      0x4e6f74207265676973746572656420666f7220746869732067616d6500000000\n        /* \"#utility.yul\":5725:5743   */\n      0x44\n      dup3\n      add\n        /* \"#utility.yul\":5718:5776   */\n      mstore\n        /* \"#utility.yul\":5793:5811   */\n      0x64\n      add\n        /* \"contracts/Arcade.sol\":5025:5101  require(gameData[game_id].paid[winner] == 1, \"Not registered for this game\") */\n      tag_110\n        /* \"#utility.yul\":5639:5817   */\n      jump\n        /* \"contracts/Arcade.sol\":5025:5101  require(gameData[game_id].paid[winner] == 1, \"Not registered for this game\") */\n    tag_195:\n        /* \"contracts/Arcade.sol\":5192:5200  decimals */\n      sload(0x02)\n        /* \"contracts/Arcade.sol\":5168:5182  fee_percentage */\n      sload(0x03)\n        /* \"contracts/Arcade.sol\":5116:5134  uint256 arcade_fee */\n      0x00\n        /* \"contracts/Arcade.sol\":5138:5155  gameData[game_id] */\n      dup5\n      dup2\n      mstore\n        /* \"contracts/Arcade.sol\":5138:5146  gameData */\n      0x01\n        /* \"contracts/Arcade.sol\":5138:5155  gameData[game_id] */\n      0x20\n      mstore\n      0x40\n      dup2\n      keccak256\n        /* \"contracts/Arcade.sol\":5138:5165  gameData[game_id].total_fee */\n      0x08\n      add\n      sload\n        /* \"contracts/Arcade.sol\":5116:5134  uint256 arcade_fee */\n      swap1\n      swap3\n        /* \"contracts/Arcade.sol\":5192:5200  decimals */\n      swap2\n        /* \"contracts/Arcade.sol\":5186:5189  100 */\n      0x64\n      swap2\n        /* \"contracts/Arcade.sol\":5138:5182  gameData[game_id].total_fee * fee_percentage */\n      tag_198\n      swap2\n        /* \"contracts/Arcade.sol\":5168:5182  fee_percentage */\n      swap1\n        /* \"contracts/Arcade.sol\":5138:5182  gameData[game_id].total_fee * fee_percentage */\n      tag_199\n      jump\t// in\n    tag_198:\n        /* \"contracts/Arcade.sol\":5137:5189  (gameData[game_id].total_fee * fee_percentage) / 100 */\n      tag_200\n      swap2\n      swap1\n      tag_201\n      jump\t// in\n    tag_200:\n        /* \"contracts/Arcade.sol\":5137:5200  (gameData[game_id].total_fee * fee_percentage) / 100 / decimals */\n      tag_202\n      swap2\n      swap1\n      tag_201\n      jump\t// in\n    tag_202:\n        /* \"contracts/Arcade.sol\":5214:5228  uint256 payout */\n      0x00\n        /* \"contracts/Arcade.sol\":5231:5248  gameData[game_id] */\n      dup5\n      dup2\n      mstore\n        /* \"contracts/Arcade.sol\":5231:5239  gameData */\n      0x01\n        /* \"contracts/Arcade.sol\":5231:5248  gameData[game_id] */\n      0x20\n      mstore\n      0x40\n      dup2\n      keccak256\n        /* \"contracts/Arcade.sol\":5231:5258  gameData[game_id].total_fee */\n      0x08\n      add\n      sload\n        /* \"contracts/Arcade.sol\":5116:5200  uint256 arcade_fee = (gameData[game_id].total_fee * fee_percentage) / 100 / decimals */\n      swap2\n      swap3\n      pop\n        /* \"contracts/Arcade.sol\":5214:5228  uint256 payout */\n      swap1\n        /* \"contracts/Arcade.sol\":5231:5271  gameData[game_id].total_fee - arcade_fee */\n      tag_203\n      swap1\n        /* \"contracts/Arcade.sol\":5116:5200  uint256 arcade_fee = (gameData[game_id].total_fee * fee_percentage) / 100 / decimals */\n      dup4\n      swap1\n        /* \"contracts/Arcade.sol\":5231:5271  gameData[game_id].total_fee - arcade_fee */\n      tag_170\n      jump\t// in\n    tag_203:\n        /* \"contracts/Arcade.sol\":5214:5271  uint256 payout = gameData[game_id].total_fee - arcade_fee */\n      swap1\n      pop\n        /* \"contracts/Arcade.sol\":5312:5333  address(this).balance */\n      selfbalance\n        /* \"contracts/Arcade.sol\":5352:5377  contract_balance < payout */\n      dup2\n      dup2\n      lt\n        /* \"contracts/Arcade.sol\":5348:5437  if (contract_balance < payout) {... */\n      iszero\n      tag_204\n      jumpi\n        /* \"contracts/Arcade.sol\":5406:5422  contract_balance */\n      dup1\n        /* \"contracts/Arcade.sol\":5397:5422  payout = contract_balance */\n      swap2\n      pop\n        /* \"contracts/Arcade.sol\":5348:5437  if (contract_balance < payout) {... */\n    tag_204:\n        /* \"contracts/Arcade.sol\":5452:5464  bool success */\n      0x00\n        /* \"contracts/Arcade.sol\":5470:5476  winner */\n      dup5\n      sub(shl(0xa0, 0x01), 0x01)\n        /* \"contracts/Arcade.sol\":5470:5481  winner.call */\n      and\n        /* \"contracts/Arcade.sol\":5490:5496  payout */\n      dup4\n        /* \"contracts/Arcade.sol\":5470:5502  winner.call{ value: payout }(\"\") */\n      mload(0x40)\n      0x00\n      mload(0x40)\n      dup1\n      dup4\n      sub\n      dup2\n      dup6\n      dup8\n      gas\n      call\n      swap3\n      pop\n      pop\n      pop\n      returndatasize\n      dup1\n      0x00\n      dup2\n      eq\n      tag_208\n      jumpi\n      mload(0x40)\n      swap2\n      pop\n      and(add(returndatasize, 0x3f), not(0x1f))\n      dup3\n      add\n      0x40\n      mstore\n      returndatasize\n      dup3\n      mstore\n      returndatasize\n      0x00\n      0x20\n      dup5\n      add\n      returndatacopy\n      jump(tag_207)\n    tag_208:\n      0x60\n      swap2\n      pop\n    tag_207:\n      pop\n        /* \"contracts/Arcade.sol\":5451:5502  (bool success, ) = winner.call{ value: payout }(\"\") */\n      pop\n      swap1\n      pop\n        /* \"contracts/Arcade.sol\":5524:5531  success */\n      dup1\n        /* \"contracts/Arcade.sol\":5516:5575  require(success, \"Trophy King Arcade: Unable to transfer.\") */\n      tag_209\n      jumpi\n      mload(0x40)\n      shl(0xe5, 0x461bcd)\n      dup2\n      mstore\n      0x04\n      add\n      tag_110\n      swap1\n      tag_166\n      jump\t// in\n    tag_209:\n        /* \"contracts/Arcade.sol\":5607:5621  Payout(payout) */\n      mload(0x40)\n        /* \"#utility.yul\":7071:7096   */\n      dup4\n      dup2\n      mstore\n        /* \"contracts/Arcade.sol\":5607:5621  Payout(payout) */\n      0x22427047e1a674a9aff59700a2c8d00ea96e017ddf9236690bdedf1f21f28d9d\n      swap1\n        /* \"#utility.yul\":7059:7061   */\n      0x20\n        /* \"#utility.yul\":7044:7062   */\n      add\n        /* \"contracts/Arcade.sol\":5607:5621  Payout(payout) */\n      mload(0x40)\n      dup1\n      swap2\n      sub\n      swap1\n      log1\n        /* \"contracts/Arcade.sol\":4916:5632  if (gameData[game_id].exchange == false) {... */\n      pop\n      pop\n      pop\n      pop\n    tag_193:\n        /* \"contracts/Arcade.sol\":5642:5660  closeGame(game_id) */\n      tag_155\n        /* \"contracts/Arcade.sol\":5652:5659  game_id */\n      dup3\n        /* \"contracts/Arcade.sol\":5642:5651  closeGame */\n      tag_45\n        /* \"contracts/Arcade.sol\":5642:5660  closeGame(game_id) */\n      jump\t// in\n        /* \"contracts/Arcade.sol\":2174:2416  function placePlayer(uint256 game_id, address player) public onlyOwner {... */\n    tag_77:\n        /* \"@openzeppelin/contracts@4.6.0/access/Ownable.sol\":1082:1089  address */\n      0x00\n        /* \"@openzeppelin/contracts@4.6.0/access/Ownable.sol\":1108:1114  _owner */\n      sload\n      sub(shl(0xa0, 0x01), 0x01)\n      and\n        /* \"@openzeppelin/contracts@4.6.0/utils/Context.sol\":719:729  msg.sender */\n      caller\n        /* \"@openzeppelin/contracts@4.6.0/access/Ownable.sol\":1248:1271  owner() == _msgSender() */\n      eq\n        /* \"@openzeppelin/contracts@4.6.0/access/Ownable.sol\":1240:1308  require(owner() == _msgSender(), \"Ownable: caller is not the owner\") */\n      tag_216\n      jumpi\n      mload(0x40)\n      shl(0xe5, 0x461bcd)\n      dup2\n      mstore\n      0x04\n      add\n      tag_110\n      swap1\n      tag_111\n      jump\t// in\n    tag_216:\n        /* \"contracts/Arcade.sol\":2263:2280  gameData[game_id] */\n      0x00\n      dup3\n      dup2\n      mstore\n        /* \"contracts/Arcade.sol\":2263:2271  gameData */\n      0x01\n        /* \"contracts/Arcade.sol\":2263:2280  gameData[game_id] */\n      0x20\n      dup2\n      dup2\n      mstore\n      0x40\n      dup1\n      dup5\n      keccak256\n      sub(shl(0xa0, 0x01), 0x01)\n        /* \"contracts/Arcade.sol\":2263:2294  gameData[game_id].seats[player] */\n      dup7\n      and\n      dup6\n      mstore\n        /* \"contracts/Arcade.sol\":2263:2286  gameData[game_id].seats */\n      0x06\n      add\n        /* \"contracts/Arcade.sol\":2263:2294  gameData[game_id].seats[player] */\n      swap1\n      swap2\n      mstore\n      swap1\n      swap2\n      keccak256\n      sload\n        /* \"contracts/Arcade.sol\":2263:2299  gameData[game_id].seats[player] != 1 */\n      eq\n      iszero\n        /* \"contracts/Arcade.sol\":2255:2319  require(gameData[game_id].seats[player] != 1, \"Already seated.\") */\n      tag_219\n      jumpi\n      mload(0x40)\n      shl(0xe5, 0x461bcd)\n      dup2\n      mstore\n        /* \"#utility.yul\":6432:6434   */\n      0x20\n        /* \"contracts/Arcade.sol\":2255:2319  require(gameData[game_id].seats[player] != 1, \"Already seated.\") */\n      0x04\n      dup3\n      add\n        /* \"#utility.yul\":6414:6435   */\n      mstore\n        /* \"#utility.yul\":6471:6473   */\n      0x0f\n        /* \"#utility.yul\":6451:6469   */\n      0x24\n      dup3\n      add\n        /* \"#utility.yul\":6444:6474   */\n      mstore\n      shl(0x89, 0x20b63932b0b23c9039b2b0ba32b217)\n        /* \"#utility.yul\":6490:6508   */\n      0x44\n      dup3\n      add\n        /* \"#utility.yul\":6483:6528   */\n      mstore\n        /* \"#utility.yul\":6545:6563   */\n      0x64\n      add\n        /* \"contracts/Arcade.sol\":2255:2319  require(gameData[game_id].seats[player] != 1, \"Already seated.\") */\n      tag_110\n        /* \"#utility.yul\":6404:6569   */\n      jump\n        /* \"contracts/Arcade.sol\":2255:2319  require(gameData[game_id].seats[player] != 1, \"Already seated.\") */\n    tag_219:\n        /* \"contracts/Arcade.sol\":2330:2347  gameData[game_id] */\n      0x00\n      dup3\n      dup2\n      mstore\n        /* \"contracts/Arcade.sol\":2364:2365  1 */\n      0x01\n        /* \"contracts/Arcade.sol\":2330:2347  gameData[game_id] */\n      0x20\n      dup2\n      dup2\n      mstore\n      0x40\n      dup1\n      dup5\n      keccak256\n      sub(shl(0xa0, 0x01), 0x01)\n        /* \"contracts/Arcade.sol\":2330:2361  gameData[game_id].seats[player] */\n      dup7\n      and\n      dup1\n      dup7\n      mstore\n        /* \"contracts/Arcade.sol\":2330:2353  gameData[game_id].seats */\n      0x06\n      swap1\n      swap2\n      add\n        /* \"contracts/Arcade.sol\":2330:2361  gameData[game_id].seats[player] */\n      dup4\n      mstore\n      swap4\n      dup2\n      swap1\n      keccak256\n        /* \"contracts/Arcade.sol\":2330:2365  gameData[game_id].seats[player] = 1 */\n      swap3\n      swap1\n      swap3\n      sstore\n        /* \"contracts/Arcade.sol\":2381:2409  PlacePlayer(player, game_id) */\n      dup2\n      mload\n        /* \"#utility.yul\":1952:2003   */\n      swap3\n      dup4\n      mstore\n        /* \"#utility.yul\":2019:2037   */\n      dup3\n      add\n        /* \"#utility.yul\":2012:2046   */\n      dup5\n      swap1\n      mstore\n        /* \"contracts/Arcade.sol\":2381:2409  PlacePlayer(player, game_id) */\n      0x9f2deefff0a36949d580cdd4ba9959b4a94786e786bad5650001b58b625fbbb1\n      swap2\n        /* \"#utility.yul\":1925:1943   */\n      add\n        /* \"contracts/Arcade.sol\":2381:2409  PlacePlayer(player, game_id) */\n      tag_133\n        /* \"#utility.yul\":1907:2052   */\n      jump\n        /* \"contracts/Arcade.sol\":3831:4441  function register(uint256 game_id) public payable {... */\n    tag_90:\n        /* \"contracts/Arcade.sol\":3899:3916  gameData[game_id] */\n      0x00\n      dup2\n      dup2\n      mstore\n        /* \"contracts/Arcade.sol\":3899:3907  gameData */\n      0x01\n        /* \"contracts/Arcade.sol\":3899:3916  gameData[game_id] */\n      0x20\n      dup2\n      dup2\n      mstore\n      0x40\n      dup1\n      dup5\n      keccak256\n        /* \"contracts/Arcade.sol\":3923:3933  msg.sender */\n      caller\n        /* \"contracts/Arcade.sol\":3899:3934  gameData[game_id].seats[msg.sender] */\n      dup6\n      mstore\n        /* \"contracts/Arcade.sol\":3899:3922  gameData[game_id].seats */\n      0x06\n      add\n        /* \"contracts/Arcade.sol\":3899:3934  gameData[game_id].seats[msg.sender] */\n      swap1\n      swap2\n      mstore\n      swap1\n      swap2\n      keccak256\n      sload\n        /* \"contracts/Arcade.sol\":3899:3939  gameData[game_id].seats[msg.sender] == 1 */\n      eq\n        /* \"contracts/Arcade.sol\":3891:3957  require(gameData[game_id].seats[msg.sender] == 1, \"Unauthorized.\") */\n      tag_225\n      jumpi\n      mload(0x40)\n      shl(0xe5, 0x461bcd)\n      dup2\n      mstore\n        /* \"#utility.yul\":4623:4625   */\n      0x20\n        /* \"contracts/Arcade.sol\":3891:3957  require(gameData[game_id].seats[msg.sender] == 1, \"Unauthorized.\") */\n      0x04\n      dup3\n      add\n        /* \"#utility.yul\":4605:4626   */\n      mstore\n        /* \"#utility.yul\":4662:4664   */\n      0x0d\n        /* \"#utility.yul\":4642:4660   */\n      0x24\n      dup3\n      add\n        /* \"#utility.yul\":4635:4665   */\n      mstore\n      shl(0x99, 0x2ab730baba3437b934bd32b217)\n        /* \"#utility.yul\":4681:4699   */\n      0x44\n      dup3\n      add\n        /* \"#utility.yul\":4674:4717   */\n      mstore\n        /* \"#utility.yul\":4734:4752   */\n      0x64\n      add\n        /* \"contracts/Arcade.sol\":3891:3957  require(gameData[game_id].seats[msg.sender] == 1, \"Unauthorized.\") */\n      tag_110\n        /* \"#utility.yul\":4595:4758   */\n      jump\n        /* \"contracts/Arcade.sol\":3891:3957  require(gameData[game_id].seats[msg.sender] == 1, \"Unauthorized.\") */\n    tag_225:\n        /* \"contracts/Arcade.sol\":3975:3992  gameData[game_id] */\n      0x00\n      dup2\n      dup2\n      mstore\n        /* \"contracts/Arcade.sol\":3975:3983  gameData */\n      0x01\n        /* \"contracts/Arcade.sol\":3975:3992  gameData[game_id] */\n      0x20\n      dup2\n      swap1\n      mstore\n      0x40\n      swap1\n      swap2\n      keccak256\n        /* \"contracts/Arcade.sol\":3975:3999  gameData[game_id].status */\n      0x07\n      add\n      sload\n        /* \"contracts/Arcade.sol\":3975:4004  gameData[game_id].status == 1 */\n      eq\n        /* \"contracts/Arcade.sol\":3967:4021  require(gameData[game_id].status == 1, \"Game closed.\") */\n      tag_228\n      jumpi\n      mload(0x40)\n      shl(0xe5, 0x461bcd)\n      dup2\n      mstore\n        /* \"#utility.yul\":5326:5328   */\n      0x20\n        /* \"contracts/Arcade.sol\":3967:4021  require(gameData[game_id].status == 1, \"Game closed.\") */\n      0x04\n      dup3\n      add\n        /* \"#utility.yul\":5308:5329   */\n      mstore\n        /* \"#utility.yul\":5365:5367   */\n      0x0c\n        /* \"#utility.yul\":5345:5363   */\n      0x24\n      dup3\n      add\n        /* \"#utility.yul\":5338:5368   */\n      mstore\n      shl(0xa1, 0x23b0b6b29031b637b9b2b217)\n        /* \"#utility.yul\":5384:5402   */\n      0x44\n      dup3\n      add\n        /* \"#utility.yul\":5377:5419   */\n      mstore\n        /* \"#utility.yul\":5436:5454   */\n      0x64\n      add\n        /* \"contracts/Arcade.sol\":3967:4021  require(gameData[game_id].status == 1, \"Game closed.\") */\n      tag_110\n        /* \"#utility.yul\":5298:5460   */\n      jump\n        /* \"contracts/Arcade.sol\":3967:4021  require(gameData[game_id].status == 1, \"Game closed.\") */\n    tag_228:\n        /* \"contracts/Arcade.sol\":4072:4089  gameData[game_id] */\n      0x00\n      dup2\n      dup2\n      mstore\n        /* \"contracts/Arcade.sol\":4072:4080  gameData */\n      0x01\n        /* \"contracts/Arcade.sol\":4072:4089  gameData[game_id] */\n      0x20\n      mstore\n      0x40\n      swap1\n      keccak256\n        /* \"contracts/Arcade.sol\":4072:4102  gameData[game_id].player_count */\n      0x03\n      dup2\n      add\n      sload\n        /* \"contracts/Arcade.sol\":4039:4069  gameData[game_id].player_limit */\n      0x04\n      swap1\n      swap2\n      add\n      sload\n        /* \"contracts/Arcade.sol\":4039:4102  gameData[game_id].player_limit > gameData[game_id].player_count */\n      gt\n        /* \"contracts/Arcade.sol\":4031:4129  require(gameData[game_id].player_limit > gameData[game_id].player_count, \"Game full.  Try again.\") */\n      tag_231\n      jumpi\n      mload(0x40)\n      shl(0xe5, 0x461bcd)\n      dup2\n      mstore\n        /* \"#utility.yul\":6776:6778   */\n      0x20\n        /* \"contracts/Arcade.sol\":4031:4129  require(gameData[game_id].player_limit > gameData[game_id].player_count, \"Game full.  Try again.\") */\n      0x04\n      dup3\n      add\n        /* \"#utility.yul\":6758:6779   */\n      mstore\n        /* \"#utility.yul\":6815:6817   */\n      0x16\n        /* \"#utility.yul\":6795:6813   */\n      0x24\n      dup3\n      add\n        /* \"#utility.yul\":6788:6818   */\n      mstore\n      shl(0x51, 0x23b0b6b290333ab6361710102a393c9030b3b0b4b717)\n        /* \"#utility.yul\":6834:6852   */\n      0x44\n      dup3\n      add\n        /* \"#utility.yul\":6827:6879   */\n      mstore\n        /* \"#utility.yul\":6896:6914   */\n      0x64\n      add\n        /* \"contracts/Arcade.sol\":4031:4129  require(gameData[game_id].player_limit > gameData[game_id].player_count, \"Game full.  Try again.\") */\n      tag_110\n        /* \"#utility.yul\":6748:6920   */\n      jump\n        /* \"contracts/Arcade.sol\":4031:4129  require(gameData[game_id].player_limit > gameData[game_id].player_count, \"Game full.  Try again.\") */\n    tag_231:\n        /* \"contracts/Arcade.sol\":4161:4178  gameData[game_id] */\n      0x00\n      dup2\n      dup2\n      mstore\n        /* \"contracts/Arcade.sol\":4161:4169  gameData */\n      0x01\n        /* \"contracts/Arcade.sol\":4161:4178  gameData[game_id] */\n      0x20\n      mstore\n      0x40\n      swap1\n      keccak256\n        /* \"contracts/Arcade.sol\":4161:4195  gameData[game_id].registration_fee */\n      0x05\n      add\n      sload\n        /* \"contracts/Arcade.sol\":4147:4156  msg.value */\n      callvalue\n        /* \"contracts/Arcade.sol\":4147:4196  msg.value == (gameData[game_id].registration_fee) */\n      eq\n        /* \"contracts/Arcade.sol\":4139:4229  require(msg.value == (gameData[game_id].registration_fee), \"Must match registration fee.\") */\n      tag_234\n      jumpi\n      mload(0x40)\n      shl(0xe5, 0x461bcd)\n      dup2\n      mstore\n        /* \"#utility.yul\":3908:3910   */\n      0x20\n        /* \"contracts/Arcade.sol\":4139:4229  require(msg.value == (gameData[game_id].registration_fee), \"Must match registration fee.\") */\n      0x04\n      dup3\n      add\n        /* \"#utility.yul\":3890:3911   */\n      mstore\n        /* \"#utility.yul\":3947:3949   */\n      0x1c\n        /* \"#utility.yul\":3927:3945   */\n      0x24\n      dup3\n      add\n        /* \"#utility.yul\":3920:3950   */\n      mstore\n        /* \"#utility.yul\":3986:4016   */\n      0x4d757374206d6174636820726567697374726174696f6e206665652e00000000\n        /* \"#utility.yul\":3966:3984   */\n      0x44\n      dup3\n      add\n        /* \"#utility.yul\":3959:4017   */\n      mstore\n        /* \"#utility.yul\":4034:4052   */\n      0x64\n      add\n        /* \"contracts/Arcade.sol\":4139:4229  require(msg.value == (gameData[game_id].registration_fee), \"Must match registration fee.\") */\n      tag_110\n        /* \"#utility.yul\":3880:4058   */\n      jump\n        /* \"contracts/Arcade.sol\":4139:4229  require(msg.value == (gameData[game_id].registration_fee), \"Must match registration fee.\") */\n    tag_234:\n        /* \"contracts/Arcade.sol\":4247:4264  gameData[game_id] */\n      0x00\n      dup2\n      dup2\n      mstore\n        /* \"contracts/Arcade.sol\":4247:4255  gameData */\n      0x01\n        /* \"contracts/Arcade.sol\":4247:4264  gameData[game_id] */\n      0x20\n      swap1\n      dup2\n      mstore\n      0x40\n      dup1\n      dup4\n      keccak256\n        /* \"contracts/Arcade.sol\":4270:4280  msg.sender */\n      caller\n        /* \"contracts/Arcade.sol\":4247:4281  gameData[game_id].paid[msg.sender] */\n      dup5\n      mstore\n        /* \"contracts/Arcade.sol\":4247:4269  gameData[game_id].paid */\n      0x02\n      add\n        /* \"contracts/Arcade.sol\":4247:4281  gameData[game_id].paid[msg.sender] */\n      swap1\n      swap2\n      mstore\n      swap1\n      keccak256\n      sload\n        /* \"contracts/Arcade.sol\":4247:4286  gameData[game_id].paid[msg.sender] == 0 */\n      iszero\n        /* \"contracts/Arcade.sol\":4239:4310  require(gameData[game_id].paid[msg.sender] == 0, \"Already registered.\") */\n      tag_237\n      jumpi\n      mload(0x40)\n      shl(0xe5, 0x461bcd)\n      dup2\n      mstore\n        /* \"#utility.yul\":3153:3155   */\n      0x20\n        /* \"contracts/Arcade.sol\":4239:4310  require(gameData[game_id].paid[msg.sender] == 0, \"Already registered.\") */\n      0x04\n      dup3\n      add\n        /* \"#utility.yul\":3135:3156   */\n      mstore\n        /* \"#utility.yul\":3192:3194   */\n      0x13\n        /* \"#utility.yul\":3172:3190   */\n      0x24\n      dup3\n      add\n        /* \"#utility.yul\":3165:3195   */\n      mstore\n      shl(0x69, 0x20b63932b0b23c903932b3b4b9ba32b932b217)\n        /* \"#utility.yul\":3211:3229   */\n      0x44\n      dup3\n      add\n        /* \"#utility.yul\":3204:3253   */\n      mstore\n        /* \"#utility.yul\":3270:3288   */\n      0x64\n      add\n        /* \"contracts/Arcade.sol\":4239:4310  require(gameData[game_id].paid[msg.sender] == 0, \"Already registered.\") */\n      tag_110\n        /* \"#utility.yul\":3125:3294   */\n      jump\n        /* \"contracts/Arcade.sol\":4239:4310  require(gameData[game_id].paid[msg.sender] == 0, \"Already registered.\") */\n    tag_237:\n        /* \"contracts/Arcade.sol\":4361:4362  0 */\n      0x00\n        /* \"contracts/Arcade.sol\":4328:4345  gameData[game_id] */\n      dup2\n      dup2\n      mstore\n        /* \"contracts/Arcade.sol\":4328:4336  gameData */\n      0x01\n        /* \"contracts/Arcade.sol\":4328:4345  gameData[game_id] */\n      0x20\n      mstore\n      0x40\n      swap1\n      keccak256\n        /* \"contracts/Arcade.sol\":4328:4358  gameData[game_id].player_limit */\n      0x04\n      add\n      sload\n        /* \"contracts/Arcade.sol\":4320:4382  require(gameData[game_id].player_limit > 0, \"Game not found.\") */\n      tag_240\n      jumpi\n      mload(0x40)\n      shl(0xe5, 0x461bcd)\n      dup2\n      mstore\n        /* \"#utility.yul\":2809:2811   */\n      0x20\n        /* \"contracts/Arcade.sol\":4320:4382  require(gameData[game_id].player_limit > 0, \"Game not found.\") */\n      0x04\n      dup3\n      add\n        /* \"#utility.yul\":2791:2812   */\n      mstore\n        /* \"#utility.yul\":2848:2850   */\n      0x0f\n        /* \"#utility.yul\":2828:2846   */\n      0x24\n      dup3\n      add\n        /* \"#utility.yul\":2821:2851   */\n      mstore\n      shl(0x89, 0x23b0b6b2903737ba103337bab73217)\n        /* \"#utility.yul\":2867:2885   */\n      0x44\n      dup3\n      add\n        /* \"#utility.yul\":2860:2905   */\n      mstore\n        /* \"#utility.yul\":2922:2940   */\n      0x64\n      add\n        /* \"contracts/Arcade.sol\":4320:4382  require(gameData[game_id].player_limit > 0, \"Game not found.\") */\n      tag_110\n        /* \"#utility.yul\":2781:2946   */\n      jump\n        /* \"contracts/Arcade.sol\":4320:4382  require(gameData[game_id].player_limit > 0, \"Game not found.\") */\n    tag_240:\n        /* \"contracts/Arcade.sol\":4393:4434  _register(game_id, msg.sender, msg.value) */\n      tag_179\n        /* \"contracts/Arcade.sol\":4403:4410  game_id */\n      dup2\n        /* \"contracts/Arcade.sol\":4412:4422  msg.sender */\n      caller\n        /* \"contracts/Arcade.sol\":4424:4433  msg.value */\n      callvalue\n        /* \"contracts/Arcade.sol\":4393:4402  _register */\n      tag_244\n        /* \"contracts/Arcade.sol\":4393:4434  _register(game_id, msg.sender, msg.value) */\n      jump\t// in\n        /* \"@openzeppelin/contracts@4.6.0/access/Ownable.sol\":1918:2116  function transferOwnership(address newOwner) public virtual onlyOwner {... */\n    tag_95:\n        /* \"@openzeppelin/contracts@4.6.0/access/Ownable.sol\":1082:1089  address */\n      0x00\n        /* \"@openzeppelin/contracts@4.6.0/access/Ownable.sol\":1108:1114  _owner */\n      sload\n      sub(shl(0xa0, 0x01), 0x01)\n      and\n        /* \"@openzeppelin/contracts@4.6.0/utils/Context.sol\":719:729  msg.sender */\n      caller\n        /* \"@openzeppelin/contracts@4.6.0/access/Ownable.sol\":1248:1271  owner() == _msgSender() */\n      eq\n        /* \"@openzeppelin/contracts@4.6.0/access/Ownable.sol\":1240:1308  require(owner() == _msgSender(), \"Ownable: caller is not the owner\") */\n      tag_248\n      jumpi\n      mload(0x40)\n      shl(0xe5, 0x461bcd)\n      dup2\n      mstore\n      0x04\n      add\n      tag_110\n      swap1\n      tag_111\n      jump\t// in\n    tag_248:\n      sub(shl(0xa0, 0x01), 0x01)\n        /* \"@openzeppelin/contracts@4.6.0/access/Ownable.sol\":2006:2028  newOwner != address(0) */\n      dup2\n      and\n        /* \"@openzeppelin/contracts@4.6.0/access/Ownable.sol\":1998:2071  require(newOwner != address(0), \"Ownable: new owner is the zero address\") */\n      tag_251\n      jumpi\n      mload(0x40)\n      shl(0xe5, 0x461bcd)\n      dup2\n      mstore\n        /* \"#utility.yul\":3501:3503   */\n      0x20\n        /* \"@openzeppelin/contracts@4.6.0/access/Ownable.sol\":1998:2071  require(newOwner != address(0), \"Ownable: new owner is the zero address\") */\n      0x04\n      dup3\n      add\n        /* \"#utility.yul\":3483:3504   */\n      mstore\n        /* \"#utility.yul\":3540:3542   */\n      0x26\n        /* \"#utility.yul\":3520:3538   */\n      0x24\n      dup3\n      add\n        /* \"#utility.yul\":3513:3543   */\n      mstore\n        /* \"#utility.yul\":3579:3613   */\n      0x4f776e61626c653a206e6577206f776e657220697320746865207a65726f2061\n        /* \"#utility.yul\":3559:3577   */\n      0x44\n      dup3\n      add\n        /* \"#utility.yul\":3552:3614   */\n      mstore\n      shl(0xd0, 0x646472657373)\n        /* \"#utility.yul\":3630:3648   */\n      0x64\n      dup3\n      add\n        /* \"#utility.yul\":3623:3659   */\n      mstore\n        /* \"#utility.yul\":3676:3695   */\n      0x84\n      add\n        /* \"@openzeppelin/contracts@4.6.0/access/Ownable.sol\":1998:2071  require(newOwner != address(0), \"Ownable: new owner is the zero address\") */\n      tag_110\n        /* \"#utility.yul\":3473:3701   */\n      jump\n        /* \"@openzeppelin/contracts@4.6.0/access/Ownable.sol\":1998:2071  require(newOwner != address(0), \"Ownable: new owner is the zero address\") */\n    tag_251:\n        /* \"@openzeppelin/contracts@4.6.0/access/Ownable.sol\":2081:2109  _transferOwnership(newOwner) */\n      tag_179\n        /* \"@openzeppelin/contracts@4.6.0/access/Ownable.sol\":2100:2108  newOwner */\n      dup2\n        /* \"@openzeppelin/contracts@4.6.0/access/Ownable.sol\":2081:2099  _transferOwnership */\n      tag_148\n        /* \"@openzeppelin/contracts@4.6.0/access/Ownable.sol\":2081:2109  _transferOwnership(newOwner) */\n      jump\t// in\n        /* \"contracts/Arcade.sol\":4732:4831  function setMarketMaker(address incoming) public onlyOwner {... */\n    tag_99:\n        /* \"@openzeppelin/contracts@4.6.0/access/Ownable.sol\":1082:1089  address */\n      0x00\n        /* \"@openzeppelin/contracts@4.6.0/access/Ownable.sol\":1108:1114  _owner */\n      sload\n      sub(shl(0xa0, 0x01), 0x01)\n      and\n        /* \"@openzeppelin/contracts@4.6.0/utils/Context.sol\":719:729  msg.sender */\n      caller\n        /* \"@openzeppelin/contracts@4.6.0/access/Ownable.sol\":1248:1271  owner() == _msgSender() */\n      eq\n        /* \"@openzeppelin/contracts@4.6.0/access/Ownable.sol\":1240:1308  require(owner() == _msgSender(), \"Ownable: caller is not the owner\") */\n      tag_258\n      jumpi\n      mload(0x40)\n      shl(0xe5, 0x461bcd)\n      dup2\n      mstore\n      0x04\n      add\n      tag_110\n      swap1\n      tag_111\n      jump\t// in\n    tag_258:\n        /* \"contracts/Arcade.sol\":4801:4813  market_maker */\n      0x04\n        /* \"contracts/Arcade.sol\":4801:4824  market_maker = incoming */\n      dup1\n      sload\n      not(sub(shl(0xa0, 0x01), 0x01))\n      and\n      sub(shl(0xa0, 0x01), 0x01)\n      swap3\n      swap1\n      swap3\n      and\n      swap2\n      swap1\n      swap2\n      or\n      swap1\n      sstore\n        /* \"contracts/Arcade.sol\":4732:4831  function setMarketMaker(address incoming) public onlyOwner {... */\n      jump\t// out\n        /* \"contracts/Arcade.sol\":1449:1896  function createGame(uint256 game_id, uint256 registration_fee, uint256 player_limit, bool exchange) public onlyOwner {... */\n    tag_104:\n        /* \"@openzeppelin/contracts@4.6.0/access/Ownable.sol\":1082:1089  address */\n      0x00\n        /* \"@openzeppelin/contracts@4.6.0/access/Ownable.sol\":1108:1114  _owner */\n      sload\n      sub(shl(0xa0, 0x01), 0x01)\n      and\n        /* \"@openzeppelin/contracts@4.6.0/utils/Context.sol\":719:729  msg.sender */\n      caller\n        /* \"@openzeppelin/contracts@4.6.0/access/Ownable.sol\":1248:1271  owner() == _msgSender() */\n      eq\n        /* \"@openzeppelin/contracts@4.6.0/access/Ownable.sol\":1240:1308  require(owner() == _msgSender(), \"Ownable: caller is not the owner\") */\n      tag_264\n      jumpi\n      mload(0x40)\n      shl(0xe5, 0x461bcd)\n      dup2\n      mstore\n      0x04\n      add\n      tag_110\n      swap1\n      tag_111\n      jump\t// in\n    tag_264:\n        /* \"contracts/Arcade.sol\":1576:1593  gameData[game_id] */\n      0x00\n      dup5\n      dup2\n      mstore\n        /* \"contracts/Arcade.sol\":1603:1604  1 */\n      0x01\n        /* \"contracts/Arcade.sol\":1576:1593  gameData[game_id] */\n      0x20\n      dup2\n      dup2\n      mstore\n      0x40\n      dup1\n      dup5\n      keccak256\n        /* \"contracts/Arcade.sol\":1576:1600  gameData[game_id].status */\n      0x07\n      dup2\n      add\n        /* \"contracts/Arcade.sol\":1576:1604  gameData[game_id].status = 1 */\n      swap4\n      swap1\n      swap4\n      sstore\n        /* \"contracts/Arcade.sol\":1614:1641  gameData[game_id].total_fee */\n      0x08\n      dup4\n      add\n        /* \"contracts/Arcade.sol\":1614:1645  gameData[game_id].total_fee = 0 */\n      dup5\n      swap1\n      sstore\n        /* \"contracts/Arcade.sol\":1655:1689  gameData[game_id].registration_fee */\n      0x05\n      dup4\n      add\n        /* \"contracts/Arcade.sol\":1655:1708  gameData[game_id].registration_fee = registration_fee */\n      dup8\n      swap1\n      sstore\n      0x03\n        /* \"contracts/Arcade.sol\":1718:1748  gameData[game_id].player_count */\n      dup4\n      add\n        /* \"contracts/Arcade.sol\":1718:1752  gameData[game_id].player_count = 0 */\n      swap4\n      swap1\n      swap4\n      sstore\n      0x04\n        /* \"contracts/Arcade.sol\":1762:1792  gameData[game_id].player_limit */\n      dup3\n      add\n        /* \"contracts/Arcade.sol\":1762:1807  gameData[game_id].player_limit = player_limit */\n      dup6\n      swap1\n      sstore\n        /* \"contracts/Arcade.sol\":1817:1854  gameData[game_id].exchange = exchange */\n      dup2\n      sload\n      not(0xff)\n      and\n      dup5\n      iszero\n      iszero\n      or\n      swap1\n      swap2\n      sstore\n        /* \"contracts/Arcade.sol\":1870:1889  CreateGame(game_id) */\n      swap1\n      mload\n        /* \"#utility.yul\":7071:7096   */\n      dup6\n      dup2\n      mstore\n        /* \"contracts/Arcade.sol\":1870:1889  CreateGame(game_id) */\n      0x9e5237c6a8bb45df74799cf138ebda4fed0574bed906da41387acdc4a3cbe3d8\n      swap2\n        /* \"#utility.yul\":7044:7062   */\n      add\n        /* \"contracts/Arcade.sol\":1870:1889  CreateGame(game_id) */\n      mload(0x40)\n      dup1\n      swap2\n      sub\n      swap1\n      log1\n        /* \"contracts/Arcade.sol\":1449:1896  function createGame(uint256 game_id, uint256 registration_fee, uint256 player_limit, bool exchange) public onlyOwner {... */\n      pop\n      pop\n      pop\n      pop\n      jump\t// out\n        /* \"@openzeppelin/contracts@4.6.0/access/Ownable.sol\":2270:2457  function _transferOwnership(address newOwner) internal virtual {... */\n    tag_148:\n        /* \"@openzeppelin/contracts@4.6.0/access/Ownable.sol\":2343:2359  address oldOwner */\n      0x00\n        /* \"@openzeppelin/contracts@4.6.0/access/Ownable.sol\":2362:2368  _owner */\n      dup1\n      sload\n      sub(shl(0xa0, 0x01), 0x01)\n        /* \"@openzeppelin/contracts@4.6.0/access/Ownable.sol\":2378:2395  _owner = newOwner */\n      dup4\n      dup2\n      and\n      not(sub(shl(0xa0, 0x01), 0x01))\n      dup4\n      and\n      dup2\n      or\n      dup5\n      sstore\n        /* \"@openzeppelin/contracts@4.6.0/access/Ownable.sol\":2410:2450  OwnershipTransferred(oldOwner, newOwner) */\n      mload(0x40)\n        /* \"@openzeppelin/contracts@4.6.0/access/Ownable.sol\":2362:2368  _owner */\n      swap2\n      swap1\n      swap3\n      and\n      swap3\n      dup4\n      swap2\n        /* \"@openzeppelin/contracts@4.6.0/access/Ownable.sol\":2410:2450  OwnershipTransferred(oldOwner, newOwner) */\n      0x8be0079c531659141344cd1fd0a4f28419497f9722a3daafe3b4186f6b6457e0\n      swap2\n        /* \"@openzeppelin/contracts@4.6.0/access/Ownable.sol\":2343:2359  address oldOwner */\n      swap1\n        /* \"@openzeppelin/contracts@4.6.0/access/Ownable.sol\":2410:2450  OwnershipTransferred(oldOwner, newOwner) */\n      log3\n        /* \"@openzeppelin/contracts@4.6.0/access/Ownable.sol\":2270:2457  function _transferOwnership(address newOwner) internal virtual {... */\n      pop\n      pop\n      jump\t// out\n        /* \"contracts/Arcade.sol\":3353:3825  function _register(uint256 game_id, address player_address, uint256 amount) internal {... */\n    tag_244:\n        /* \"contracts/Arcade.sol\":3448:3467  GameInfo storage gi */\n      0x00\n        /* \"contracts/Arcade.sol\":3470:3487  gameData[game_id] */\n      dup4\n      dup2\n      mstore\n        /* \"contracts/Arcade.sol\":3470:3478  gameData */\n      0x01\n        /* \"contracts/Arcade.sol\":3470:3487  gameData[game_id] */\n      0x20\n      dup2\n      swap1\n      mstore\n      0x40\n      dup3\n      keccak256\n        /* \"contracts/Arcade.sol\":3498:3513  gi.player_count */\n      0x03\n      dup2\n      add\n        /* \"contracts/Arcade.sol\":3498:3518  gi.player_count += 1 */\n      dup1\n      sload\n        /* \"contracts/Arcade.sol\":3470:3487  gameData[game_id] */\n      swap2\n      swap4\n        /* \"contracts/Arcade.sol\":3498:3513  gi.player_count */\n      swap1\n      swap2\n        /* \"contracts/Arcade.sol\":3498:3518  gi.player_count += 1 */\n      tag_271\n      swap1\n        /* \"contracts/Arcade.sol\":3470:3478  gameData */\n      dup5\n      swap1\n        /* \"contracts/Arcade.sol\":3498:3518  gi.player_count += 1 */\n      tag_272\n      jump\t// in\n    tag_271:\n      swap1\n      swap2\n      sstore\n      pop\n      pop\n      sub(shl(0xa0, 0x01), 0x01)\n        /* \"contracts/Arcade.sol\":3528:3550  gi.fee[player_address] */\n      dup4\n      and\n      0x00\n      swap1\n      dup2\n      mstore\n        /* \"contracts/Arcade.sol\":3528:3534  gi.fee */\n      0x01\n      dup1\n      dup4\n      add\n        /* \"contracts/Arcade.sol\":3528:3550  gi.fee[player_address] */\n      0x20\n      swap1\n      dup2\n      mstore\n      0x40\n      dup1\n      dup5\n      keccak256\n        /* \"contracts/Arcade.sol\":3528:3559  gi.fee[player_address] = amount */\n      dup7\n      swap1\n      sstore\n        /* \"contracts/Arcade.sol\":3569:3576  gi.paid */\n      0x02\n      dup6\n      add\n        /* \"contracts/Arcade.sol\":3569:3592  gi.paid[player_address] */\n      swap1\n      swap2\n      mstore\n      dup3\n      keccak256\n        /* \"contracts/Arcade.sol\":3569:3596  gi.paid[player_address] = 1 */\n      sstore\n        /* \"contracts/Arcade.sol\":3606:3618  gi.total_fee */\n      0x08\n      dup3\n      add\n        /* \"contracts/Arcade.sol\":3606:3628  gi.total_fee += amount */\n      dup1\n      sload\n        /* \"contracts/Arcade.sol\":3553:3559  amount */\n      dup5\n      swap3\n        /* \"contracts/Arcade.sol\":3528:3550  gi.fee[player_address] */\n      swap1\n        /* \"contracts/Arcade.sol\":3606:3628  gi.total_fee += amount */\n      tag_273\n      swap1\n        /* \"contracts/Arcade.sol\":3553:3559  amount */\n      dup5\n      swap1\n        /* \"contracts/Arcade.sol\":3606:3628  gi.total_fee += amount */\n      tag_272\n      jump\t// in\n    tag_273:\n      swap1\n      swap2\n      sstore\n      pop\n      pop\n        /* \"contracts/Arcade.sol\":3658:3670  market_maker */\n      sload(0x04)\n        /* \"contracts/Arcade.sol\":3658:3696  market_maker.call{ value: amount }(\"\") */\n      mload(0x40)\n        /* \"contracts/Arcade.sol\":3640:3652  bool success */\n      0x00\n      swap2\n      sub(shl(0xa0, 0x01), 0x01)\n        /* \"contracts/Arcade.sol\":3658:3670  market_maker */\n      and\n      swap1\n        /* \"contracts/Arcade.sol\":3684:3690  amount */\n      dup5\n      swap1\n        /* \"contracts/Arcade.sol\":3640:3652  bool success */\n      dup4\n        /* \"contracts/Arcade.sol\":3658:3696  market_maker.call{ value: amount }(\"\") */\n      dup2\n        /* \"contracts/Arcade.sol\":3640:3652  bool success */\n      dup2\n        /* \"contracts/Arcade.sol\":3658:3696  market_maker.call{ value: amount }(\"\") */\n      dup2\n        /* \"contracts/Arcade.sol\":3684:3690  amount */\n      dup6\n        /* \"contracts/Arcade.sol\":3658:3670  market_maker */\n      dup8\n        /* \"contracts/Arcade.sol\":3658:3696  market_maker.call{ value: amount }(\"\") */\n      gas\n      call\n      swap3\n      pop\n      pop\n      pop\n      returndatasize\n      dup1\n      0x00\n      dup2\n      eq\n      tag_277\n      jumpi\n      mload(0x40)\n      swap2\n      pop\n      and(add(returndatasize, 0x3f), not(0x1f))\n      dup3\n      add\n      0x40\n      mstore\n      returndatasize\n      dup3\n      mstore\n      returndatasize\n      0x00\n      0x20\n      dup5\n      add\n      returndatacopy\n      jump(tag_276)\n    tag_277:\n      0x60\n      swap2\n      pop\n    tag_276:\n      pop\n        /* \"contracts/Arcade.sol\":3639:3696  (bool success, ) = market_maker.call{ value: amount }(\"\") */\n      pop\n      swap1\n      pop\n        /* \"contracts/Arcade.sol\":3714:3721  success */\n      dup1\n        /* \"contracts/Arcade.sol\":3706:3765  require(success, \"Trophy King Arcade: Unable to transfer.\") */\n      tag_278\n      jumpi\n      mload(0x40)\n      shl(0xe5, 0x461bcd)\n      dup2\n      mstore\n      0x04\n      add\n      tag_110\n      swap1\n      tag_166\n      jump\t// in\n    tag_278:\n        /* \"contracts/Arcade.sol\":3789:3818  Register(msg.sender, game_id) */\n      mload(0x40)\n        /* \"#utility.yul\":7071:7096   */\n      dup6\n      dup2\n      mstore\n        /* \"contracts/Arcade.sol\":3798:3808  msg.sender */\n      caller\n      swap1\n        /* \"contracts/Arcade.sol\":3789:3818  Register(msg.sender, game_id) */\n      0x7dc6ab80cc84c043b7b8d4fcafc802187470087f7ea7fccd2e17aecd0256a1\n      swap1\n        /* \"#utility.yul\":7059:7061   */\n      0x20\n        /* \"#utility.yul\":7044:7062   */\n      add\n        /* \"contracts/Arcade.sol\":3789:3818  Register(msg.sender, game_id) */\n      mload(0x40)\n      dup1\n      swap2\n      sub\n      swap1\n      log2\n        /* \"contracts/Arcade.sol\":3353:3825  function _register(uint256 game_id, address player_address, uint256 amount) internal {... */\n      pop\n      pop\n      pop\n      pop\n      pop\n      jump\t// out\n        /* \"#utility.yul\":14:187   */\n    tag_282:\n        /* \"#utility.yul\":82:102   */\n      dup1\n      calldataload\n      sub(shl(0xa0, 0x01), 0x01)\n        /* \"#utility.yul\":131:162   */\n      dup2\n      and\n        /* \"#utility.yul\":121:163   */\n      dup2\n      eq\n        /* \"#utility.yul\":111:113   */\n      tag_284\n      jumpi\n        /* \"#utility.yul\":177:178   */\n      0x00\n        /* \"#utility.yul\":174:175   */\n      dup1\n        /* \"#utility.yul\":167:179   */\n      revert\n        /* \"#utility.yul\":111:113   */\n    tag_284:\n        /* \"#utility.yul\":63:187   */\n      swap2\n      swap1\n      pop\n      jump\t// out\n        /* \"#utility.yul\":192:388   */\n    tag_94:\n        /* \"#utility.yul\":251:257   */\n      0x00\n        /* \"#utility.yul\":304:306   */\n      0x20\n        /* \"#utility.yul\":292:301   */\n      dup3\n        /* \"#utility.yul\":283:290   */\n      dup5\n        /* \"#utility.yul\":279:302   */\n      sub\n        /* \"#utility.yul\":275:307   */\n      slt\n        /* \"#utility.yul\":272:274   */\n      iszero\n      tag_286\n      jumpi\n        /* \"#utility.yul\":325:331   */\n      dup1\n        /* \"#utility.yul\":317:323   */\n      dup2\n        /* \"#utility.yul\":310:332   */\n      revert\n        /* \"#utility.yul\":272:274   */\n    tag_286:\n        /* \"#utility.yul\":353:382   */\n      tag_287\n        /* \"#utility.yul\":372:381   */\n      dup3\n        /* \"#utility.yul\":353:382   */\n      tag_282\n      jump\t// in\n    tag_287:\n        /* \"#utility.yul\":343:382   */\n      swap4\n        /* \"#utility.yul\":262:388   */\n      swap3\n      pop\n      pop\n      pop\n      jump\t// out\n        /* \"#utility.yul\":393:583   */\n    tag_27:\n        /* \"#utility.yul\":452:458   */\n      0x00\n        /* \"#utility.yul\":505:507   */\n      0x20\n        /* \"#utility.yul\":493:502   */\n      dup3\n        /* \"#utility.yul\":484:491   */\n      dup5\n        /* \"#utility.yul\":480:503   */\n      sub\n        /* \"#utility.yul\":476:508   */\n      slt\n        /* \"#utility.yul\":473:475   */\n      iszero\n      tag_289\n      jumpi\n        /* \"#utility.yul\":526:532   */\n      dup1\n        /* \"#utility.yul\":518:524   */\n      dup2\n        /* \"#utility.yul\":511:533   */\n      revert\n        /* \"#utility.yul\":473:475   */\n    tag_289:\n      pop\n        /* \"#utility.yul\":554:577   */\n      calldataload\n      swap2\n        /* \"#utility.yul\":463:583   */\n      swap1\n      pop\n      jump\t// out\n        /* \"#utility.yul\":588:852   */\n    tag_40:\n        /* \"#utility.yul\":656:662   */\n      0x00\n        /* \"#utility.yul\":664:670   */\n      dup1\n        /* \"#utility.yul\":717:719   */\n      0x40\n        /* \"#utility.yul\":705:714   */\n      dup4\n        /* \"#utility.yul\":696:703   */\n      dup6\n        /* \"#utility.yul\":692:715   */\n      sub\n        /* \"#utility.yul\":688:720   */\n      slt\n        /* \"#utility.yul\":685:687   */\n      iszero\n      tag_291\n      jumpi\n        /* \"#utility.yul\":738:744   */\n      dup1\n        /* \"#utility.yul\":730:736   */\n      dup2\n        /* \"#utility.yul\":723:745   */\n      revert\n        /* \"#utility.yul\":685:687   */\n    tag_291:\n        /* \"#utility.yul\":779:788   */\n      dup3\n        /* \"#utility.yul\":766:789   */\n      calldataload\n        /* \"#utility.yul\":756:789   */\n      swap2\n      pop\n        /* \"#utility.yul\":808:846   */\n      tag_292\n        /* \"#utility.yul\":842:844   */\n      0x20\n        /* \"#utility.yul\":831:840   */\n      dup5\n        /* \"#utility.yul\":827:845   */\n      add\n        /* \"#utility.yul\":808:846   */\n      tag_282\n      jump\t// in\n    tag_292:\n        /* \"#utility.yul\":798:846   */\n      swap1\n      pop\n        /* \"#utility.yul\":675:852   */\n      swap3\n      pop\n      swap3\n      swap1\n      pop\n      jump\t// out\n        /* \"#utility.yul\":857:1355   */\n    tag_103:\n        /* \"#utility.yul\":940:946   */\n      0x00\n        /* \"#utility.yul\":948:954   */\n      dup1\n        /* \"#utility.yul\":956:962   */\n      0x00\n        /* \"#utility.yul\":964:970   */\n      dup1\n        /* \"#utility.yul\":1017:1020   */\n      0x80\n        /* \"#utility.yul\":1005:1014   */\n      dup6\n        /* \"#utility.yul\":996:1003   */\n      dup8\n        /* \"#utility.yul\":992:1015   */\n      sub\n        /* \"#utility.yul\":988:1021   */\n      slt\n        /* \"#utility.yul\":985:987   */\n      iszero\n      tag_294\n      jumpi\n        /* \"#utility.yul\":1039:1045   */\n      dup2\n        /* \"#utility.yul\":1031:1037   */\n      dup3\n        /* \"#utility.yul\":1024:1046   */\n      revert\n        /* \"#utility.yul\":985:987   */\n    tag_294:\n        /* \"#utility.yul\":1080:1089   */\n      dup5\n        /* \"#utility.yul\":1067:1090   */\n      calldataload\n        /* \"#utility.yul\":1057:1090   */\n      swap4\n      pop\n        /* \"#utility.yul\":1137:1139   */\n      0x20\n        /* \"#utility.yul\":1126:1135   */\n      dup6\n        /* \"#utility.yul\":1122:1140   */\n      add\n        /* \"#utility.yul\":1109:1141   */\n      calldataload\n        /* \"#utility.yul\":1099:1141   */\n      swap3\n      pop\n        /* \"#utility.yul\":1188:1190   */\n      0x40\n        /* \"#utility.yul\":1177:1186   */\n      dup6\n        /* \"#utility.yul\":1173:1191   */\n      add\n        /* \"#utility.yul\":1160:1192   */\n      calldataload\n        /* \"#utility.yul\":1150:1192   */\n      swap2\n      pop\n        /* \"#utility.yul\":1242:1244   */\n      0x60\n        /* \"#utility.yul\":1231:1240   */\n      dup6\n        /* \"#utility.yul\":1227:1245   */\n      add\n        /* \"#utility.yul\":1214:1246   */\n      calldataload\n        /* \"#utility.yul\":1289:1294   */\n      dup1\n        /* \"#utility.yul\":1282:1295   */\n      iszero\n        /* \"#utility.yul\":1275:1296   */\n      iszero\n        /* \"#utility.yul\":1268:1273   */\n      dup2\n        /* \"#utility.yul\":1265:1297   */\n      eq\n        /* \"#utility.yul\":1255:1257   */\n      tag_295\n      jumpi\n        /* \"#utility.yul\":1316:1322   */\n      dup2\n        /* \"#utility.yul\":1308:1314   */\n      dup3\n        /* \"#utility.yul\":1301:1323   */\n      revert\n        /* \"#utility.yul\":1255:1257   */\n    tag_295:\n        /* \"#utility.yul\":975:1355   */\n      swap4\n      swap7\n      swap3\n      swap6\n      pop\n      swap1\n      swap4\n      pop\n      pop\n      jump\t// out\n        /* \"#utility.yul\":4763:5119   */\n    tag_111:\n        /* \"#utility.yul\":4965:4967   */\n      0x20\n        /* \"#utility.yul\":4947:4968   */\n      dup1\n      dup3\n      mstore\n        /* \"#utility.yul\":4984:5002   */\n      dup2\n      dup2\n      add\n        /* \"#utility.yul\":4977:5007   */\n      mstore\n        /* \"#utility.yul\":5043:5077   */\n      0x4f776e61626c653a2063616c6c6572206973206e6f7420746865206f776e6572\n        /* \"#utility.yul\":5038:5040   */\n      0x40\n        /* \"#utility.yul\":5023:5041   */\n      dup3\n      add\n        /* \"#utility.yul\":5016:5078   */\n      mstore\n        /* \"#utility.yul\":5110:5112   */\n      0x60\n        /* \"#utility.yul\":5095:5113   */\n      add\n      swap1\n        /* \"#utility.yul\":4937:5119   */\n      jump\t// out\n        /* \"#utility.yul\":5822:6225   */\n    tag_166:\n        /* \"#utility.yul\":6024:6026   */\n      0x20\n        /* \"#utility.yul\":6006:6027   */\n      dup1\n      dup3\n      mstore\n        /* \"#utility.yul\":6063:6065   */\n      0x27\n        /* \"#utility.yul\":6043:6061   */\n      swap1\n      dup3\n      add\n        /* \"#utility.yul\":6036:6066   */\n      mstore\n        /* \"#utility.yul\":6102:6136   */\n      0x54726f706879204b696e67204172636164653a20556e61626c6520746f207472\n        /* \"#utility.yul\":6097:6099   */\n      0x40\n        /* \"#utility.yul\":6082:6100   */\n      dup3\n      add\n        /* \"#utility.yul\":6075:6137   */\n      mstore\n      shl(0xc9, 0x30b739b332b917)\n        /* \"#utility.yul\":6168:6170   */\n      0x60\n        /* \"#utility.yul\":6153:6171   */\n      dup3\n      add\n        /* \"#utility.yul\":6146:6183   */\n      mstore\n        /* \"#utility.yul\":6215:6218   */\n      0x80\n        /* \"#utility.yul\":6200:6219   */\n      add\n      swap1\n        /* \"#utility.yul\":5996:6225   */\n      jump\t// out\n        /* \"#utility.yul\":7457:7585   */\n    tag_272:\n        /* \"#utility.yul\":7497:7500   */\n      0x00\n        /* \"#utility.yul\":7528:7529   */\n      dup3\n        /* \"#utility.yul\":7524:7530   */\n      not\n        /* \"#utility.yul\":7521:7522   */\n      dup3\n        /* \"#utility.yul\":7518:7531   */\n      gt\n        /* \"#utility.yul\":7515:7517   */\n      iszero\n      tag_316\n      jumpi\n        /* \"#utility.yul\":7534:7552   */\n      tag_316\n      tag_317\n      jump\t// in\n    tag_316:\n      pop\n        /* \"#utility.yul\":7570:7579   */\n      add\n      swap1\n        /* \"#utility.yul\":7505:7585   */\n      jump\t// out\n        /* \"#utility.yul\":7590:7807   */\n    tag_201:\n        /* \"#utility.yul\":7630:7631   */\n      0x00\n        /* \"#utility.yul\":7656:7657   */\n      dup3\n        /* \"#utility.yul\":7646:7648   */\n      tag_319\n      jumpi\n      shl(0xe0, 0x4e487b71)\n        /* \"#utility.yul\":7681:7712   */\n      dup2\n      mstore\n        /* \"#utility.yul\":7735:7739   */\n      0x12\n        /* \"#utility.yul\":7732:7733   */\n      0x04\n        /* \"#utility.yul\":7725:7740   */\n      mstore\n        /* \"#utility.yul\":7763:7767   */\n      0x24\n        /* \"#utility.yul\":7688:7689   */\n      dup2\n        /* \"#utility.yul\":7753:7768   */\n      revert\n        /* \"#utility.yul\":7646:7648   */\n    tag_319:\n      pop\n        /* \"#utility.yul\":7792:7801   */\n      div\n      swap1\n        /* \"#utility.yul\":7636:7807   */\n      jump\t// out\n        /* \"#utility.yul\":7812:7980   */\n    tag_199:\n        /* \"#utility.yul\":7852:7859   */\n      0x00\n        /* \"#utility.yul\":7918:7919   */\n      dup2\n        /* \"#utility.yul\":7914:7915   */\n      0x00\n        /* \"#utility.yul\":7910:7916   */\n      not\n        /* \"#utility.yul\":7906:7920   */\n      div\n        /* \"#utility.yul\":7903:7904   */\n      dup4\n        /* \"#utility.yul\":7900:7921   */\n      gt\n        /* \"#utility.yul\":7895:7896   */\n      dup3\n        /* \"#utility.yul\":7888:7897   */\n      iszero\n        /* \"#utility.yul\":7881:7898   */\n      iszero\n        /* \"#utility.yul\":7877:7922   */\n      and\n        /* \"#utility.yul\":7874:7876   */\n      iszero\n      tag_322\n      jumpi\n        /* \"#utility.yul\":7925:7943   */\n      tag_322\n      tag_317\n      jump\t// in\n    tag_322:\n      pop\n        /* \"#utility.yul\":7965:7974   */\n      mul\n      swap1\n        /* \"#utility.yul\":7864:7980   */\n      jump\t// out\n        /* \"#utility.yul\":7985:8110   */\n    tag_170:\n        /* \"#utility.yul\":8025:8029   */\n      0x00\n        /* \"#utility.yul\":8053:8054   */\n      dup3\n        /* \"#utility.yul\":8050:8051   */\n      dup3\n        /* \"#utility.yul\":8047:8055   */\n      lt\n        /* \"#utility.yul\":8044:8046   */\n      iszero\n      tag_325\n      jumpi\n        /* \"#utility.yul\":8058:8076   */\n      tag_325\n      tag_317\n      jump\t// in\n    tag_325:\n      pop\n        /* \"#utility.yul\":8095:8104   */\n      sub\n      swap1\n        /* \"#utility.yul\":8034:8110   */\n      jump\t// out\n        /* \"#utility.yul\":8115:8242   */\n    tag_317:\n        /* \"#utility.yul\":8176:8186   */\n      0x4e487b71\n        /* \"#utility.yul\":8171:8174   */\n      0xe0\n        /* \"#utility.yul\":8167:8187   */\n      shl\n        /* \"#utility.yul\":8164:8165   */\n      0x00\n        /* \"#utility.yul\":8157:8188   */\n      mstore\n        /* \"#utility.yul\":8207:8211   */\n      0x11\n        /* \"#utility.yul\":8204:8205   */\n      0x04\n        /* \"#utility.yul\":8197:8212   */\n      mstore\n        /* \"#utility.yul\":8231:8235   */\n      0x24\n        /* \"#utility.yul\":8228:8229   */\n      0x00\n        /* \"#utility.yul\":8221:8236   */\n      revert\n\n    auxdata: 0xa2646970667358221220c6ac00f6dab659d685a6a18a6f9a4e4f0fa3ecef928cb05db29ebc098d7b4dcb64736f6c63430008040033\n}\n",
				"bytecode": {
					"linkReferences": {},
					"object": "6080604052670de0b6b3a764000060025534801561001c57600080fd5b5061002633610049565b67016345785d8a0000600355600480546001600160a01b03191633179055610099565b600080546001600160a01b038381166001600160a01b0319831681178455604051919092169283917f8be0079c531659141344cd1fd0a4f28419497f9722a3daafe3b4186f6b6457e09190a35050565b611309806100a86000396000f3fe6080604052600436106101135760003560e01c80638da5cb5b116100a0578063ccaf237f11610064578063ccaf237f146102d9578063f207564e1461035c578063f2fde38b1461036f578063f54c42d71461038f578063fc3af0d6146103af57600080fd5b80638da5cb5b146102505780638f0d7e351461026e5780639c62368314610283578063b9888d89146102a3578063c46ed45a146102c357600080fd5b80632d6ef310116100e75780632d6ef3101461019a578063313ce567146101ba578063715018a6146101e357806375ca7603146101f85780637ad226dc1461023057600080fd5b8062f5544f14610118578063248a55a11461013a5780632ac5016f1461015a5780632ba671001461017a575b600080fd5b34801561012457600080fd5b5061013861013336600461114c565b6103cf565b005b34801561014657600080fd5b5061013861015536600461114c565b610453565b34801561016657600080fd5b5061013861017536600461114c565b6104e7565b34801561018657600080fd5b50610138610195366004611164565b610516565b3480156101a657600080fd5b506101386101b536600461114c565b6105a0565b3480156101c657600080fd5b506101d060025481565b6040519081526020015b60405180910390f35b3480156101ef57600080fd5b50610138610610565b34801561020457600080fd5b50600454610218906001600160a01b031681565b6040516001600160a01b0390911681526020016101da565b34801561023c57600080fd5b5061013861024b366004611164565b610646565b34801561025c57600080fd5b506000546001600160a01b0316610218565b34801561027a57600080fd5b50610138610834565b34801561028f57600080fd5b5061013861029e366004611164565b6108db565b3480156102af57600080fd5b506101386102be366004611164565b610b06565b3480156102cf57600080fd5b506101d060035481565b3480156102e557600080fd5b5061032d6102f436600461114c565b60016020526000908152604090208054600382015460048301546005840154600785015460089095015460ff9094169492939192909186565b6040805196151587526020870195909552938501929092526060840152608083015260a082015260c0016101da565b61013861036a36600461114c565b610bf6565b34801561037b57600080fd5b5061013861038a36600461112b565b610e1c565b34801561039b57600080fd5b506101386103aa36600461112b565b610eb4565b3480156103bb57600080fd5b506101386103ca36600461118f565b610f00565b6000546001600160a01b031633146104025760405162461bcd60e51b81526004016103f9906111d3565b60405180910390fd5b60008181526001602081905260409182902060070155517f651a9760985edc53055bf2462cb4437b9be3de87aa3eecf2c05782e8b58eba19906104489083815260200190565b60405180910390a150565b6000546001600160a01b0316331461047d5760405162461bcd60e51b81526004016103f9906111d3565b600081815260016020526040808220805460ff191681556003810183905560048101839055600581018390556007810183905560080191909155517fd0b153e02e23f4f21d020465b4dac7b1114893d05db395ed2511f879c3ac90b4906104489083815260200190565b6000546001600160a01b031633146105115760405162461bcd60e51b81526004016103f9906111d3565b600355565b6000546001600160a01b031633146105405760405162461bcd60e51b81526004016103f9906111d3565b60008281526001602090815260408083206001600160a01b0385168085526006909101835281842093909355519182527f34aeefd5030be05fe70eebc8866d82f935a308eb9f334cba88f5e3bea1a0cae891015b60405180910390a15050565b6000546001600160a01b031633146105ca5760405162461bcd60e51b81526004016103f9906111d3565b60008181526001602052604080822060070191909155517f827e8bff9f46048f8351964d2c871d09e4f4231513cf2fcb786649c68732e24f906104489083815260200190565b6000546001600160a01b0316331461063a5760405162461bcd60e51b81526004016103f9906111d3565b6106446000610fa3565b565b6000546001600160a01b031633146106705760405162461bcd60e51b81526004016103f9906111d3565b60008281526001602052604090205460ff166108305760008281526001602081815260408084206001600160a01b038616855260020190915290912054146106fa5760405162461bcd60e51b815260206004820152601d60248201527f4e6f74207265676973746572656420666f7220746869732067616d652e00000060448201526064016103f9565b600082815260016020526040808220600581015491519092916001600160a01b038516918381818185875af1925050503d8060008114610756576040519150601f19603f3d011682016040523d82523d6000602084013e61075b565b606091505b505090508061077c5760405162461bcd60e51b81526004016103f990611208565b6005820154604080518681526001600160a01b038616602082015280820192909252517f21e12a7cad0da5928167e1084ea4d5fdf8d9af66657a2543a9ac76a0ca0814779181900360600190a181600501548260080160008282546107e191906112a6565b90915550506001600160a01b0383166000908152600180840160209081526040808420849055600286019091528220829055600384018054919290916108289084906112a6565b909155505050505b5050565b6000546001600160a01b0316331461085e5760405162461bcd60e51b81526004016103f9906111d3565b4780156108d857600080546040516001600160a01b039091169083908381818185875af1925050503d80600081146108b2576040519150601f19603f3d011682016040523d82523d6000602084013e6108b7565b606091505b50509050806108305760405162461bcd60e51b81526004016103f990611208565b50565b6000546001600160a01b031633146109055760405162461bcd60e51b81526004016103f9906111d3565b60008281526001602052604090205460ff16610afd5760008281526001602081815260408084206001600160a01b03861685529092018152918190205490519081527f557809284da7314475b1582804ae28e5f1349efc1fe970ea25d50fce75eb4f43910160405180910390a160008281526001602081815260408084206001600160a01b038616855260020190915290912054146109e65760405162461bcd60e51b815260206004820152601c60248201527f4e6f74207265676973746572656420666f7220746869732067616d650000000060448201526064016103f9565b600254600354600084815260016020526040812060080154909291606491610a0e9190611287565b610a189190611267565b610a229190611267565b60008481526001602052604081206008015491925090610a439083906112a6565b90504781811015610a52578091505b6000846001600160a01b03168360405160006040518083038185875af1925050503d8060008114610a9f576040519150601f19603f3d011682016040523d82523d6000602084013e610aa4565b606091505b5050905080610ac55760405162461bcd60e51b81526004016103f990611208565b6040518381527f22427047e1a674a9aff59700a2c8d00ea96e017ddf9236690bdedf1f21f28d9d9060200160405180910390a1505050505b610830826105a0565b6000546001600160a01b03163314610b305760405162461bcd60e51b81526004016103f9906111d3565b60008281526001602081815260408084206001600160a01b0386168552600601909152909120541415610b975760405162461bcd60e51b815260206004820152600f60248201526e20b63932b0b23c9039b2b0ba32b21760891b60448201526064016103f9565b60008281526001602081815260408084206001600160a01b038616808652600690910183529381902092909255815192835282018490527f9f2deefff0a36949d580cdd4ba9959b4a94786e786bad5650001b58b625fbbb19101610594565b60008181526001602081815260408084203385526006019091529091205414610c515760405162461bcd60e51b815260206004820152600d60248201526c2ab730baba3437b934bd32b21760991b60448201526064016103f9565b60008181526001602081905260409091206007015414610ca25760405162461bcd60e51b815260206004820152600c60248201526b23b0b6b29031b637b9b2b21760a11b60448201526064016103f9565b6000818152600160205260409020600381015460049091015411610d015760405162461bcd60e51b815260206004820152601660248201527523b0b6b290333ab6361710102a393c9030b3b0b4b71760511b60448201526064016103f9565b6000818152600160205260409020600501543414610d615760405162461bcd60e51b815260206004820152601c60248201527f4d757374206d6174636820726567697374726174696f6e206665652e0000000060448201526064016103f9565b600081815260016020908152604080832033845260020190915290205415610dc15760405162461bcd60e51b815260206004820152601360248201527220b63932b0b23c903932b3b4b9ba32b932b21760691b60448201526064016103f9565b600081815260016020526040902060040154610e115760405162461bcd60e51b815260206004820152600f60248201526e23b0b6b2903737ba103337bab7321760891b60448201526064016103f9565b6108d8813334610ff3565b6000546001600160a01b03163314610e465760405162461bcd60e51b81526004016103f9906111d3565b6001600160a01b038116610eab5760405162461bcd60e51b815260206004820152602660248201527f4f776e61626c653a206e6577206f776e657220697320746865207a65726f206160448201526564647265737360d01b60648201526084016103f9565b6108d881610fa3565b6000546001600160a01b03163314610ede5760405162461bcd60e51b81526004016103f9906111d3565b600480546001600160a01b0319166001600160a01b0392909216919091179055565b6000546001600160a01b03163314610f2a5760405162461bcd60e51b81526004016103f9906111d3565b600084815260016020818152604080842060078101939093556008830184905560058301879055600383019390935560048201859055815460ff19168415151790915590518581527f9e5237c6a8bb45df74799cf138ebda4fed0574bed906da41387acdc4a3cbe3d8910160405180910390a150505050565b600080546001600160a01b038381166001600160a01b0319831681178455604051919092169283917f8be0079c531659141344cd1fd0a4f28419497f9722a3daafe3b4186f6b6457e09190a35050565b600083815260016020819052604082206003810180549193909161101890849061124f565b90915550506001600160a01b03831660009081526001808301602090815260408084208690556002850190915282205560088201805484929061105c90849061124f565b90915550506004546040516000916001600160a01b03169084908381818185875af1925050503d80600081146110ae576040519150601f19603f3d011682016040523d82523d6000602084013e6110b3565b606091505b50509050806110d45760405162461bcd60e51b81526004016103f990611208565b60405185815233907e7dc6ab80cc84c043b7b8d4fcafc802187470087f7ea7fccd2e17aecd0256a19060200160405180910390a25050505050565b80356001600160a01b038116811461112657600080fd5b919050565b60006020828403121561113c578081fd5b6111458261110f565b9392505050565b60006020828403121561115d578081fd5b5035919050565b60008060408385031215611176578081fd5b823591506111866020840161110f565b90509250929050565b600080600080608085870312156111a4578182fd5b843593506020850135925060408501359150606085013580151581146111c8578182fd5b939692955090935050565b6020808252818101527f4f776e61626c653a2063616c6c6572206973206e6f7420746865206f776e6572604082015260600190565b60208082526027908201527f54726f706879204b696e67204172636164653a20556e61626c6520746f20747260408201526630b739b332b91760c91b606082015260800190565b60008219821115611262576112626112bd565b500190565b60008261128257634e487b7160e01b81526012600452602481fd5b500490565b60008160001904831182151516156112a1576112a16112bd565b500290565b6000828210156112b8576112b86112bd565b500390565b634e487b7160e01b600052601160045260246000fdfea2646970667358221220c6ac00f6dab659d685a6a18a6f9a4e4f0fa3ecef928cb05db29ebc098d7b4dcb64736f6c63430008040033",
					"opcodes": "PUSH1 0x80 PUSH1 0x40 MSTORE PUSH8 0xDE0B6B3A7640000 PUSH1 0x2 SSTORE CALLVALUE DUP1 ISZERO PUSH2 0x1C JUMPI PUSH1 0x0 DUP1 REVERT JUMPDEST POP PUSH2 0x26 CALLER PUSH2 0x49 JUMP JUMPDEST PUSH8 0x16345785D8A0000 PUSH1 0x3 SSTORE PUSH1 0x4 DUP1 SLOAD PUSH1 0x1 PUSH1 0x1 PUSH1 0xA0 SHL SUB NOT AND CALLER OR SWAP1 SSTORE PUSH2 0x99 JUMP JUMPDEST PUSH1 0x0 DUP1 SLOAD PUSH1 0x1 PUSH1 0x1 PUSH1 0xA0 SHL SUB DUP4 DUP2 AND PUSH1 0x1 PUSH1 0x1 PUSH1 0xA0 SHL SUB NOT DUP4 AND DUP2 OR DUP5 SSTORE PUSH1 0x40 MLOAD SWAP2 SWAP1 SWAP3 AND SWAP3 DUP4 SWAP2 PUSH32 0x8BE0079C531659141344CD1FD0A4F28419497F9722A3DAAFE3B4186F6B6457E0 SWAP2 SWAP1 LOG3 POP POP JUMP JUMPDEST PUSH2 0x1309 DUP1 PUSH2 0xA8 PUSH1 0x0 CODECOPY PUSH1 0x0 RETURN INVALID PUSH1 0x80 PUSH1 0x40 MSTORE PUSH1 0x4 CALLDATASIZE LT PUSH2 0x113 JUMPI PUSH1 0x0 CALLDATALOAD PUSH1 0xE0 SHR DUP1 PUSH4 0x8DA5CB5B GT PUSH2 0xA0 JUMPI DUP1 PUSH4 0xCCAF237F GT PUSH2 0x64 JUMPI DUP1 PUSH4 0xCCAF237F EQ PUSH2 0x2D9 JUMPI DUP1 PUSH4 0xF207564E EQ PUSH2 0x35C JUMPI DUP1 PUSH4 0xF2FDE38B EQ PUSH2 0x36F JUMPI DUP1 PUSH4 0xF54C42D7 EQ PUSH2 0x38F JUMPI DUP1 PUSH4 0xFC3AF0D6 EQ PUSH2 0x3AF JUMPI PUSH1 0x0 DUP1 REVERT JUMPDEST DUP1 PUSH4 0x8DA5CB5B EQ PUSH2 0x250 JUMPI DUP1 PUSH4 0x8F0D7E35 EQ PUSH2 0x26E JUMPI DUP1 PUSH4 0x9C623683 EQ PUSH2 0x283 JUMPI DUP1 PUSH4 0xB9888D89 EQ PUSH2 0x2A3 JUMPI DUP1 PUSH4 0xC46ED45A EQ PUSH2 0x2C3 JUMPI PUSH1 0x0 DUP1 REVERT JUMPDEST DUP1 PUSH4 0x2D6EF310 GT PUSH2 0xE7 JUMPI DUP1 PUSH4 0x2D6EF310 EQ PUSH2 0x19A JUMPI DUP1 PUSH4 0x313CE567 EQ PUSH2 0x1BA JUMPI DUP1 PUSH4 0x715018A6 EQ PUSH2 0x1E3 JUMPI DUP1 PUSH4 0x75CA7603 EQ PUSH2 0x1F8 JUMPI DUP1 PUSH4 0x7AD226DC EQ PUSH2 0x230 JUMPI PUSH1 0x0 DUP1 REVERT JUMPDEST DUP1 PUSH3 0xF5544F EQ PUSH2 0x118 JUMPI DUP1 PUSH4 0x248A55A1 EQ PUSH2 0x13A JUMPI DUP1 PUSH4 0x2AC5016F EQ PUSH2 0x15A JUMPI DUP1 PUSH4 0x2BA67100 EQ PUSH2 0x17A JUMPI JUMPDEST PUSH1 0x0 DUP1 REVERT JUMPDEST CALLVALUE DUP1 ISZERO PUSH2 0x124 JUMPI PUSH1 0x0 DUP1 REVERT JUMPDEST POP PUSH2 0x138 PUSH2 0x133 CALLDATASIZE PUSH1 0x4 PUSH2 0x114C JUMP JUMPDEST PUSH2 0x3CF JUMP JUMPDEST STOP JUMPDEST CALLVALUE DUP1 ISZERO PUSH2 0x146 JUMPI PUSH1 0x0 DUP1 REVERT JUMPDEST POP PUSH2 0x138 PUSH2 0x155 CALLDATASIZE PUSH1 0x4 PUSH2 0x114C JUMP JUMPDEST PUSH2 0x453 JUMP JUMPDEST CALLVALUE DUP1 ISZERO PUSH2 0x166 JUMPI PUSH1 0x0 DUP1 REVERT JUMPDEST POP PUSH2 0x138 PUSH2 0x175 CALLDATASIZE PUSH1 0x4 PUSH2 0x114C JUMP JUMPDEST PUSH2 0x4E7 JUMP JUMPDEST CALLVALUE DUP1 ISZERO PUSH2 0x186 JUMPI PUSH1 0x0 DUP1 REVERT JUMPDEST POP PUSH2 0x138 PUSH2 0x195 CALLDATASIZE PUSH1 0x4 PUSH2 0x1164 JUMP JUMPDEST PUSH2 0x516 JUMP JUMPDEST CALLVALUE DUP1 ISZERO PUSH2 0x1A6 JUMPI PUSH1 0x0 DUP1 REVERT JUMPDEST POP PUSH2 0x138 PUSH2 0x1B5 CALLDATASIZE PUSH1 0x4 PUSH2 0x114C JUMP JUMPDEST PUSH2 0x5A0 JUMP JUMPDEST CALLVALUE DUP1 ISZERO PUSH2 0x1C6 JUMPI PUSH1 0x0 DUP1 REVERT JUMPDEST POP PUSH2 0x1D0 PUSH1 0x2 SLOAD DUP2 JUMP JUMPDEST PUSH1 0x40 MLOAD SWAP1 DUP2 MSTORE PUSH1 0x20 ADD JUMPDEST PUSH1 0x40 MLOAD DUP1 SWAP2 SUB SWAP1 RETURN JUMPDEST CALLVALUE DUP1 ISZERO PUSH2 0x1EF JUMPI PUSH1 0x0 DUP1 REVERT JUMPDEST POP PUSH2 0x138 PUSH2 0x610 JUMP JUMPDEST CALLVALUE DUP1 ISZERO PUSH2 0x204 JUMPI PUSH1 0x0 DUP1 REVERT JUMPDEST POP PUSH1 0x4 SLOAD PUSH2 0x218 SWAP1 PUSH1 0x1 PUSH1 0x1 PUSH1 0xA0 SHL SUB AND DUP2 JUMP JUMPDEST PUSH1 0x40 MLOAD PUSH1 0x1 PUSH1 0x1 PUSH1 0xA0 SHL SUB SWAP1 SWAP2 AND DUP2 MSTORE PUSH1 0x20 ADD PUSH2 0x1DA JUMP JUMPDEST CALLVALUE DUP1 ISZERO PUSH2 0x23C JUMPI PUSH1 0x0 DUP1 REVERT JUMPDEST POP PUSH2 0x138 PUSH2 0x24B CALLDATASIZE PUSH1 0x4 PUSH2 0x1164 JUMP JUMPDEST PUSH2 0x646 JUMP JUMPDEST CALLVALUE DUP1 ISZERO PUSH2 0x25C JUMPI PUSH1 0x0 DUP1 REVERT JUMPDEST POP PUSH1 0x0 SLOAD PUSH1 0x1 PUSH1 0x1 PUSH1 0xA0 SHL SUB AND PUSH2 0x218 JUMP JUMPDEST CALLVALUE DUP1 ISZERO PUSH2 0x27A JUMPI PUSH1 0x0 DUP1 REVERT JUMPDEST POP PUSH2 0x138 PUSH2 0x834 JUMP JUMPDEST CALLVALUE DUP1 ISZERO PUSH2 0x28F JUMPI PUSH1 0x0 DUP1 REVERT JUMPDEST POP PUSH2 0x138 PUSH2 0x29E CALLDATASIZE PUSH1 0x4 PUSH2 0x1164 JUMP JUMPDEST PUSH2 0x8DB JUMP JUMPDEST CALLVALUE DUP1 ISZERO PUSH2 0x2AF JUMPI PUSH1 0x0 DUP1 REVERT JUMPDEST POP PUSH2 0x138 PUSH2 0x2BE CALLDATASIZE PUSH1 0x4 PUSH2 0x1164 JUMP JUMPDEST PUSH2 0xB06 JUMP JUMPDEST CALLVALUE DUP1 ISZERO PUSH2 0x2CF JUMPI PUSH1 0x0 DUP1 REVERT JUMPDEST POP PUSH2 0x1D0 PUSH1 0x3 SLOAD DUP2 JUMP JUMPDEST CALLVALUE DUP1 ISZERO PUSH2 0x2E5 JUMPI PUSH1 0x0 DUP1 REVERT JUMPDEST POP PUSH2 0x32D PUSH2 0x2F4 CALLDATASIZE PUSH1 0x4 PUSH2 0x114C JUMP JUMPDEST PUSH1 0x1 PUSH1 0x20 MSTORE PUSH1 0x0 SWAP1 DUP2 MSTORE PUSH1 0x40 SWAP1 KECCAK256 DUP1 SLOAD PUSH1 0x3 DUP3 ADD SLOAD PUSH1 0x4 DUP4 ADD SLOAD PUSH1 0x5 DUP5 ADD SLOAD PUSH1 0x7 DUP6 ADD SLOAD PUSH1 0x8 SWAP1 SWAP6 ADD SLOAD PUSH1 0xFF SWAP1 SWAP5 AND SWAP5 SWAP3 SWAP4 SWAP2 SWAP3 SWAP1 SWAP2 DUP7 JUMP JUMPDEST PUSH1 0x40 DUP1 MLOAD SWAP7 ISZERO ISZERO DUP8 MSTORE PUSH1 0x20 DUP8 ADD SWAP6 SWAP1 SWAP6 MSTORE SWAP4 DUP6 ADD SWAP3 SWAP1 SWAP3 MSTORE PUSH1 0x60 DUP5 ADD MSTORE PUSH1 0x80 DUP4 ADD MSTORE PUSH1 0xA0 DUP3 ADD MSTORE PUSH1 0xC0 ADD PUSH2 0x1DA JUMP JUMPDEST PUSH2 0x138 PUSH2 0x36A CALLDATASIZE PUSH1 0x4 PUSH2 0x114C JUMP JUMPDEST PUSH2 0xBF6 JUMP JUMPDEST CALLVALUE DUP1 ISZERO PUSH2 0x37B JUMPI PUSH1 0x0 DUP1 REVERT JUMPDEST POP PUSH2 0x138 PUSH2 0x38A CALLDATASIZE PUSH1 0x4 PUSH2 0x112B JUMP JUMPDEST PUSH2 0xE1C JUMP JUMPDEST CALLVALUE DUP1 ISZERO PUSH2 0x39B JUMPI PUSH1 0x0 DUP1 REVERT JUMPDEST POP PUSH2 0x138 PUSH2 0x3AA CALLDATASIZE PUSH1 0x4 PUSH2 0x112B JUMP JUMPDEST PUSH2 0xEB4 JUMP JUMPDEST CALLVALUE DUP1 ISZERO PUSH2 0x3BB JUMPI PUSH1 0x0 DUP1 REVERT JUMPDEST POP PUSH2 0x138 PUSH2 0x3CA CALLDATASIZE PUSH1 0x4 PUSH2 0x118F JUMP JUMPDEST PUSH2 0xF00 JUMP JUMPDEST PUSH1 0x0 SLOAD PUSH1 0x1 PUSH1 0x1 PUSH1 0xA0 SHL SUB AND CALLER EQ PUSH2 0x402 JUMPI PUSH1 0x40 MLOAD PUSH3 0x461BCD PUSH1 0xE5 SHL DUP2 MSTORE PUSH1 0x4 ADD PUSH2 0x3F9 SWAP1 PUSH2 0x11D3 JUMP JUMPDEST PUSH1 0x40 MLOAD DUP1 SWAP2 SUB SWAP1 REVERT JUMPDEST PUSH1 0x0 DUP2 DUP2 MSTORE PUSH1 0x1 PUSH1 0x20 DUP2 SWAP1 MSTORE PUSH1 0x40 SWAP2 DUP3 SWAP1 KECCAK256 PUSH1 0x7 ADD SSTORE MLOAD PUSH32 0x651A9760985EDC53055BF2462CB4437B9BE3DE87AA3EECF2C05782E8B58EBA19 SWAP1 PUSH2 0x448 SWAP1 DUP4 DUP2 MSTORE PUSH1 0x20 ADD SWAP1 JUMP JUMPDEST PUSH1 0x40 MLOAD DUP1 SWAP2 SUB SWAP1 LOG1 POP JUMP JUMPDEST PUSH1 0x0 SLOAD PUSH1 0x1 PUSH1 0x1 PUSH1 0xA0 SHL SUB AND CALLER EQ PUSH2 0x47D JUMPI PUSH1 0x40 MLOAD PUSH3 0x461BCD PUSH1 0xE5 SHL DUP2 MSTORE PUSH1 0x4 ADD PUSH2 0x3F9 SWAP1 PUSH2 0x11D3 JUMP JUMPDEST PUSH1 0x0 DUP2 DUP2 MSTORE PUSH1 0x1 PUSH1 0x20 MSTORE PUSH1 0x40 DUP1 DUP3 KECCAK256 DUP1 SLOAD PUSH1 0xFF NOT AND DUP2 SSTORE PUSH1 0x3 DUP2 ADD DUP4 SWAP1 SSTORE PUSH1 0x4 DUP2 ADD DUP4 SWAP1 SSTORE PUSH1 0x5 DUP2 ADD DUP4 SWAP1 SSTORE PUSH1 0x7 DUP2 ADD DUP4 SWAP1 SSTORE PUSH1 0x8 ADD SWAP2 SWAP1 SWAP2 SSTORE MLOAD PUSH32 0xD0B153E02E23F4F21D020465B4DAC7B1114893D05DB395ED2511F879C3AC90B4 SWAP1 PUSH2 0x448 SWAP1 DUP4 DUP2 MSTORE PUSH1 0x20 ADD SWAP1 JUMP JUMPDEST PUSH1 0x0 SLOAD PUSH1 0x1 PUSH1 0x1 PUSH1 0xA0 SHL SUB AND CALLER EQ PUSH2 0x511 JUMPI PUSH1 0x40 MLOAD PUSH3 0x461BCD PUSH1 0xE5 SHL DUP2 MSTORE PUSH1 0x4 ADD PUSH2 0x3F9 SWAP1 PUSH2 0x11D3 JUMP JUMPDEST PUSH1 0x3 SSTORE JUMP JUMPDEST PUSH1 0x0 SLOAD PUSH1 0x1 PUSH1 0x1 PUSH1 0xA0 SHL SUB AND CALLER EQ PUSH2 0x540 JUMPI PUSH1 0x40 MLOAD PUSH3 0x461BCD PUSH1 0xE5 SHL DUP2 MSTORE PUSH1 0x4 ADD PUSH2 0x3F9 SWAP1 PUSH2 0x11D3 JUMP JUMPDEST PUSH1 0x0 DUP3 DUP2 MSTORE PUSH1 0x1 PUSH1 0x20 SWAP1 DUP2 MSTORE PUSH1 0x40 DUP1 DUP4 KECCAK256 PUSH1 0x1 PUSH1 0x1 PUSH1 0xA0 SHL SUB DUP6 AND DUP1 DUP6 MSTORE PUSH1 0x6 SWAP1 SWAP2 ADD DUP4 MSTORE DUP2 DUP5 KECCAK256 SWAP4 SWAP1 SWAP4 SSTORE MLOAD SWAP2 DUP3 MSTORE PUSH32 0x34AEEFD5030BE05FE70EEBC8866D82F935A308EB9F334CBA88F5E3BEA1A0CAE8 SWAP2 ADD JUMPDEST PUSH1 0x40 MLOAD DUP1 SWAP2 SUB SWAP1 LOG1 POP POP JUMP JUMPDEST PUSH1 0x0 SLOAD PUSH1 0x1 PUSH1 0x1 PUSH1 0xA0 SHL SUB AND CALLER EQ PUSH2 0x5CA JUMPI PUSH1 0x40 MLOAD PUSH3 0x461BCD PUSH1 0xE5 SHL DUP2 MSTORE PUSH1 0x4 ADD PUSH2 0x3F9 SWAP1 PUSH2 0x11D3 JUMP JUMPDEST PUSH1 0x0 DUP2 DUP2 MSTORE PUSH1 0x1 PUSH1 0x20 MSTORE PUSH1 0x40 DUP1 DUP3 KECCAK256 PUSH1 0x7 ADD SWAP2 SWAP1 SWAP2 SSTORE MLOAD PUSH32 0x827E8BFF9F46048F8351964D2C871D09E4F4231513CF2FCB786649C68732E24F SWAP1 PUSH2 0x448 SWAP1 DUP4 DUP2 MSTORE PUSH1 0x20 ADD SWAP1 JUMP JUMPDEST PUSH1 0x0 SLOAD PUSH1 0x1 PUSH1 0x1 PUSH1 0xA0 SHL SUB AND CALLER EQ PUSH2 0x63A JUMPI PUSH1 0x40 MLOAD PUSH3 0x461BCD PUSH1 0xE5 SHL DUP2 MSTORE PUSH1 0x4 ADD PUSH2 0x3F9 SWAP1 PUSH2 0x11D3 JUMP JUMPDEST PUSH2 0x644 PUSH1 0x0 PUSH2 0xFA3 JUMP JUMPDEST JUMP JUMPDEST PUSH1 0x0 SLOAD PUSH1 0x1 PUSH1 0x1 PUSH1 0xA0 SHL SUB AND CALLER EQ PUSH2 0x670 JUMPI PUSH1 0x40 MLOAD PUSH3 0x461BCD PUSH1 0xE5 SHL DUP2 MSTORE PUSH1 0x4 ADD PUSH2 0x3F9 SWAP1 PUSH2 0x11D3 JUMP JUMPDEST PUSH1 0x0 DUP3 DUP2 MSTORE PUSH1 0x1 PUSH1 0x20 MSTORE PUSH1 0x40 SWAP1 KECCAK256 SLOAD PUSH1 0xFF AND PUSH2 0x830 JUMPI PUSH1 0x0 DUP3 DUP2 MSTORE PUSH1 0x1 PUSH1 0x20 DUP2 DUP2 MSTORE PUSH1 0x40 DUP1 DUP5 KECCAK256 PUSH1 0x1 PUSH1 0x1 PUSH1 0xA0 SHL SUB DUP7 AND DUP6 MSTORE PUSH1 0x2 ADD SWAP1 SWAP2 MSTORE SWAP1 SWAP2 KECCAK256 SLOAD EQ PUSH2 0x6FA JUMPI PUSH1 0x40 MLOAD PUSH3 0x461BCD PUSH1 0xE5 SHL DUP2 MSTORE PUSH1 0x20 PUSH1 0x4 DUP3 ADD MSTORE PUSH1 0x1D PUSH1 0x24 DUP3 ADD MSTORE PUSH32 0x4E6F74207265676973746572656420666F7220746869732067616D652E000000 PUSH1 0x44 DUP3 ADD MSTORE PUSH1 0x64 ADD PUSH2 0x3F9 JUMP JUMPDEST PUSH1 0x0 DUP3 DUP2 MSTORE PUSH1 0x1 PUSH1 0x20 MSTORE PUSH1 0x40 DUP1 DUP3 KECCAK256 PUSH1 0x5 DUP2 ADD SLOAD SWAP2 MLOAD SWAP1 SWAP3 SWAP2 PUSH1 0x1 PUSH1 0x1 PUSH1 0xA0 SHL SUB DUP6 AND SWAP2 DUP4 DUP2 DUP2 DUP2 DUP6 DUP8 GAS CALL SWAP3 POP POP POP RETURNDATASIZE DUP1 PUSH1 0x0 DUP2 EQ PUSH2 0x756 JUMPI PUSH1 0x40 MLOAD SWAP2 POP PUSH1 0x1F NOT PUSH1 0x3F RETURNDATASIZE ADD AND DUP3 ADD PUSH1 0x40 MSTORE RETURNDATASIZE DUP3 MSTORE RETURNDATASIZE PUSH1 0x0 PUSH1 0x20 DUP5 ADD RETURNDATACOPY PUSH2 0x75B JUMP JUMPDEST PUSH1 0x60 SWAP2 POP JUMPDEST POP POP SWAP1 POP DUP1 PUSH2 0x77C JUMPI PUSH1 0x40 MLOAD PUSH3 0x461BCD PUSH1 0xE5 SHL DUP2 MSTORE PUSH1 0x4 ADD PUSH2 0x3F9 SWAP1 PUSH2 0x1208 JUMP JUMPDEST PUSH1 0x5 DUP3 ADD SLOAD PUSH1 0x40 DUP1 MLOAD DUP7 DUP2 MSTORE PUSH1 0x1 PUSH1 0x1 PUSH1 0xA0 SHL SUB DUP7 AND PUSH1 0x20 DUP3 ADD MSTORE DUP1 DUP3 ADD SWAP3 SWAP1 SWAP3 MSTORE MLOAD PUSH32 0x21E12A7CAD0DA5928167E1084EA4D5FDF8D9AF66657A2543A9AC76A0CA081477 SWAP2 DUP2 SWAP1 SUB PUSH1 0x60 ADD SWAP1 LOG1 DUP2 PUSH1 0x5 ADD SLOAD DUP3 PUSH1 0x8 ADD PUSH1 0x0 DUP3 DUP3 SLOAD PUSH2 0x7E1 SWAP2 SWAP1 PUSH2 0x12A6 JUMP JUMPDEST SWAP1 SWAP2 SSTORE POP POP PUSH1 0x1 PUSH1 0x1 PUSH1 0xA0 SHL SUB DUP4 AND PUSH1 0x0 SWAP1 DUP2 MSTORE PUSH1 0x1 DUP1 DUP5 ADD PUSH1 0x20 SWAP1 DUP2 MSTORE PUSH1 0x40 DUP1 DUP5 KECCAK256 DUP5 SWAP1 SSTORE PUSH1 0x2 DUP7 ADD SWAP1 SWAP2 MSTORE DUP3 KECCAK256 DUP3 SWAP1 SSTORE PUSH1 0x3 DUP5 ADD DUP1 SLOAD SWAP2 SWAP3 SWAP1 SWAP2 PUSH2 0x828 SWAP1 DUP5 SWAP1 PUSH2 0x12A6 JUMP JUMPDEST SWAP1 SWAP2 SSTORE POP POP POP POP JUMPDEST POP POP JUMP JUMPDEST PUSH1 0x0 SLOAD PUSH1 0x1 PUSH1 0x1 PUSH1 0xA0 SHL SUB AND CALLER EQ PUSH2 0x85E JUMPI PUSH1 0x40 MLOAD PUSH3 0x461BCD PUSH1 0xE5 SHL DUP2 MSTORE PUSH1 0x4 ADD PUSH2 0x3F9 SWAP1 PUSH2 0x11D3 JUMP JUMPDEST SELFBALANCE DUP1 ISZERO PUSH2 0x8D8 JUMPI PUSH1 0x0 DUP1 SLOAD PUSH1 0x40 MLOAD PUSH1 0x1 PUSH1 0x1 PUSH1 0xA0 SHL SUB SWAP1 SWAP2 AND SWAP1 DUP4 SWAP1 DUP4 DUP2 DUP2 DUP2 DUP6 DUP8 GAS CALL SWAP3 POP POP POP RETURNDATASIZE DUP1 PUSH1 0x0 DUP2 EQ PUSH2 0x8B2 JUMPI PUSH1 0x40 MLOAD SWAP2 POP PUSH1 0x1F NOT PUSH1 0x3F RETURNDATASIZE ADD AND DUP3 ADD PUSH1 0x40 MSTORE RETURNDATASIZE DUP3 MSTORE RETURNDATASIZE PUSH1 0x0 PUSH1 0x20 DUP5 ADD RETURNDATACOPY PUSH2 0x8B7 JUMP JUMPDEST PUSH1 0x60 SWAP2 POP JUMPDEST POP POP SWAP1 POP DUP1 PUSH2 0x830 JUMPI PUSH1 0x40 MLOAD PUSH3 0x461BCD PUSH1 0xE5 SHL DUP2 MSTORE PUSH1 0x4 ADD PUSH2 0x3F9 SWAP1 PUSH2 0x1208 JUMP JUMPDEST POP JUMP JUMPDEST PUSH1 0x0 SLOAD PUSH1 0x1 PUSH1 0x1 PUSH1 0xA0 SHL SUB AND CALLER EQ PUSH2 0x905 JUMPI PUSH1 0x40 MLOAD PUSH3 0x461BCD PUSH1 0xE5 SHL DUP2 MSTORE PUSH1 0x4 ADD PUSH2 0x3F9 SWAP1 PUSH2 0x11D3 JUMP JUMPDEST PUSH1 0x0 DUP3 DUP2 MSTORE PUSH1 0x1 PUSH1 0x20 MSTORE PUSH1 0x40 SWAP1 KECCAK256 SLOAD PUSH1 0xFF AND PUSH2 0xAFD JUMPI PUSH1 0x0 DUP3 DUP2 MSTORE PUSH1 0x1 PUSH1 0x20 DUP2 DUP2 MSTORE PUSH1 0x40 DUP1 DUP5 KECCAK256 PUSH1 0x1 PUSH1 0x1 PUSH1 0xA0 SHL SUB DUP7 AND DUP6 MSTORE SWAP1 SWAP3 ADD DUP2 MSTORE SWAP2 DUP2 SWAP1 KECCAK256 SLOAD SWAP1 MLOAD SWAP1 DUP2 MSTORE PUSH32 0x557809284DA7314475B1582804AE28E5F1349EFC1FE970EA25D50FCE75EB4F43 SWAP2 ADD PUSH1 0x40 MLOAD DUP1 SWAP2 SUB SWAP1 LOG1 PUSH1 0x0 DUP3 DUP2 MSTORE PUSH1 0x1 PUSH1 0x20 DUP2 DUP2 MSTORE PUSH1 0x40 DUP1 DUP5 KECCAK256 PUSH1 0x1 PUSH1 0x1 PUSH1 0xA0 SHL SUB DUP7 AND DUP6 MSTORE PUSH1 0x2 ADD SWAP1 SWAP2 MSTORE SWAP1 SWAP2 KECCAK256 SLOAD EQ PUSH2 0x9E6 JUMPI PUSH1 0x40 MLOAD PUSH3 0x461BCD PUSH1 0xE5 SHL DUP2 MSTORE PUSH1 0x20 PUSH1 0x4 DUP3 ADD MSTORE PUSH1 0x1C PUSH1 0x24 DUP3 ADD MSTORE PUSH32 0x4E6F74207265676973746572656420666F7220746869732067616D6500000000 PUSH1 0x44 DUP3 ADD MSTORE PUSH1 0x64 ADD PUSH2 0x3F9 JUMP JUMPDEST PUSH1 0x2 SLOAD PUSH1 0x3 SLOAD PUSH1 0x0 DUP5 DUP2 MSTORE PUSH1 0x1 PUSH1 0x20 MSTORE PUSH1 0x40 DUP2 KECCAK256 PUSH1 0x8 ADD SLOAD SWAP1 SWAP3 SWAP2 PUSH1 0x64 SWAP2 PUSH2 0xA0E SWAP2 SWAP1 PUSH2 0x1287 JUMP JUMPDEST PUSH2 0xA18 SWAP2 SWAP1 PUSH2 0x1267 JUMP JUMPDEST PUSH2 0xA22 SWAP2 SWAP1 PUSH2 0x1267 JUMP JUMPDEST PUSH1 0x0 DUP5 DUP2 MSTORE PUSH1 0x1 PUSH1 0x20 MSTORE PUSH1 0x40 DUP2 KECCAK256 PUSH1 0x8 ADD SLOAD SWAP2 SWAP3 POP SWAP1 PUSH2 0xA43 SWAP1 DUP4 SWAP1 PUSH2 0x12A6 JUMP JUMPDEST SWAP1 POP SELFBALANCE DUP2 DUP2 LT ISZERO PUSH2 0xA52 JUMPI DUP1 SWAP2 POP JUMPDEST PUSH1 0x0 DUP5 PUSH1 0x1 PUSH1 0x1 PUSH1 0xA0 SHL SUB AND DUP4 PUSH1 0x40 MLOAD PUSH1 0x0 PUSH1 0x40 MLOAD DUP1 DUP4 SUB DUP2 DUP6 DUP8 GAS CALL SWAP3 POP POP POP RETURNDATASIZE DUP1 PUSH1 0x0 DUP2 EQ PUSH2 0xA9F JUMPI PUSH1 0x40 MLOAD SWAP2 POP PUSH1 0x1F NOT PUSH1 0x3F RETURNDATASIZE ADD AND DUP3 ADD PUSH1 0x40 MSTORE RETURNDATASIZE DUP3 MSTORE RETURNDATASIZE PUSH1 0x0 PUSH1 0x20 DUP5 ADD RETURNDATACOPY PUSH2 0xAA4 JUMP JUMPDEST PUSH1 0x60 SWAP2 POP JUMPDEST POP POP SWAP1 POP DUP1 PUSH2 0xAC5 JUMPI PUSH1 0x40 MLOAD PUSH3 0x461BCD PUSH1 0xE5 SHL DUP2 MSTORE PUSH1 0x4 ADD PUSH2 0x3F9 SWAP1 PUSH2 0x1208 JUMP JUMPDEST PUSH1 0x40 MLOAD DUP4 DUP2 MSTORE PUSH32 0x22427047E1A674A9AFF59700A2C8D00EA96E017DDF9236690BDEDF1F21F28D9D SWAP1 PUSH1 0x20 ADD PUSH1 0x40 MLOAD DUP1 SWAP2 SUB SWAP1 LOG1 POP POP POP POP JUMPDEST PUSH2 0x830 DUP3 PUSH2 0x5A0 JUMP JUMPDEST PUSH1 0x0 SLOAD PUSH1 0x1 PUSH1 0x1 PUSH1 0xA0 SHL SUB AND CALLER EQ PUSH2 0xB30 JUMPI PUSH1 0x40 MLOAD PUSH3 0x461BCD PUSH1 0xE5 SHL DUP2 MSTORE PUSH1 0x4 ADD PUSH2 0x3F9 SWAP1 PUSH2 0x11D3 JUMP JUMPDEST PUSH1 0x0 DUP3 DUP2 MSTORE PUSH1 0x1 PUSH1 0x20 DUP2 DUP2 MSTORE PUSH1 0x40 DUP1 DUP5 KECCAK256 PUSH1 0x1 PUSH1 0x1 PUSH1 0xA0 SHL SUB DUP7 AND DUP6 MSTORE PUSH1 0x6 ADD SWAP1 SWAP2 MSTORE SWAP1 SWAP2 KECCAK256 SLOAD EQ ISZERO PUSH2 0xB97 JUMPI PUSH1 0x40 MLOAD PUSH3 0x461BCD PUSH1 0xE5 SHL DUP2 MSTORE PUSH1 0x20 PUSH1 0x4 DUP3 ADD MSTORE PUSH1 0xF PUSH1 0x24 DUP3 ADD MSTORE PUSH15 0x20B63932B0B23C9039B2B0BA32B217 PUSH1 0x89 SHL PUSH1 0x44 DUP3 ADD MSTORE PUSH1 0x64 ADD PUSH2 0x3F9 JUMP JUMPDEST PUSH1 0x0 DUP3 DUP2 MSTORE PUSH1 0x1 PUSH1 0x20 DUP2 DUP2 MSTORE PUSH1 0x40 DUP1 DUP5 KECCAK256 PUSH1 0x1 PUSH1 0x1 PUSH1 0xA0 SHL SUB DUP7 AND DUP1 DUP7 MSTORE PUSH1 0x6 SWAP1 SWAP2 ADD DUP4 MSTORE SWAP4 DUP2 SWAP1 KECCAK256 SWAP3 SWAP1 SWAP3 SSTORE DUP2 MLOAD SWAP3 DUP4 MSTORE DUP3 ADD DUP5 SWAP1 MSTORE PUSH32 0x9F2DEEFFF0A36949D580CDD4BA9959B4A94786E786BAD5650001B58B625FBBB1 SWAP2 ADD PUSH2 0x594 JUMP JUMPDEST PUSH1 0x0 DUP2 DUP2 MSTORE PUSH1 0x1 PUSH1 0x20 DUP2 DUP2 MSTORE PUSH1 0x40 DUP1 DUP5 KECCAK256 CALLER DUP6 MSTORE PUSH1 0x6 ADD SWAP1 SWAP2 MSTORE SWAP1 SWAP2 KECCAK256 SLOAD EQ PUSH2 0xC51 JUMPI PUSH1 0x40 MLOAD PUSH3 0x461BCD PUSH1 0xE5 SHL DUP2 MSTORE PUSH1 0x20 PUSH1 0x4 DUP3 ADD MSTORE PUSH1 0xD PUSH1 0x24 DUP3 ADD MSTORE PUSH13 0x2AB730BABA3437B934BD32B217 PUSH1 0x99 SHL PUSH1 0x44 DUP3 ADD MSTORE PUSH1 0x64 ADD PUSH2 0x3F9 JUMP JUMPDEST PUSH1 0x0 DUP2 DUP2 MSTORE PUSH1 0x1 PUSH1 0x20 DUP2 SWAP1 MSTORE PUSH1 0x40 SWAP1 SWAP2 KECCAK256 PUSH1 0x7 ADD SLOAD EQ PUSH2 0xCA2 JUMPI PUSH1 0x40 MLOAD PUSH3 0x461BCD PUSH1 0xE5 SHL DUP2 MSTORE PUSH1 0x20 PUSH1 0x4 DUP3 ADD MSTORE PUSH1 0xC PUSH1 0x24 DUP3 ADD MSTORE PUSH12 0x23B0B6B29031B637B9B2B217 PUSH1 0xA1 SHL PUSH1 0x44 DUP3 ADD MSTORE PUSH1 0x64 ADD PUSH2 0x3F9 JUMP JUMPDEST PUSH1 0x0 DUP2 DUP2 MSTORE PUSH1 0x1 PUSH1 0x20 MSTORE PUSH1 0x40 SWAP1 KECCAK256 PUSH1 0x3 DUP2 ADD SLOAD PUSH1 0x4 SWAP1 SWAP2 ADD SLOAD GT PUSH2 0xD01 JUMPI PUSH1 0x40 MLOAD PUSH3 0x461BCD PUSH1 0xE5 SHL DUP2 MSTORE PUSH1 0x20 PUSH1 0x4 DUP3 ADD MSTORE PUSH1 0x16 PUSH1 0x24 DUP3 ADD MSTORE PUSH22 0x23B0B6B290333AB6361710102A393C9030B3B0B4B717 PUSH1 0x51 SHL PUSH1 0x44 DUP3 ADD MSTORE PUSH1 0x64 ADD PUSH2 0x3F9 JUMP JUMPDEST PUSH1 0x0 DUP2 DUP2 MSTORE PUSH1 0x1 PUSH1 0x20 MSTORE PUSH1 0x40 SWAP1 KECCAK256 PUSH1 0x5 ADD SLOAD CALLVALUE EQ PUSH2 0xD61 JUMPI PUSH1 0x40 MLOAD PUSH3 0x461BCD PUSH1 0xE5 SHL DUP2 MSTORE PUSH1 0x20 PUSH1 0x4 DUP3 ADD MSTORE PUSH1 0x1C PUSH1 0x24 DUP3 ADD MSTORE PUSH32 0x4D757374206D6174636820726567697374726174696F6E206665652E00000000 PUSH1 0x44 DUP3 ADD MSTORE PUSH1 0x64 ADD PUSH2 0x3F9 JUMP JUMPDEST PUSH1 0x0 DUP2 DUP2 MSTORE PUSH1 0x1 PUSH1 0x20 SWAP1 DUP2 MSTORE PUSH1 0x40 DUP1 DUP4 KECCAK256 CALLER DUP5 MSTORE PUSH1 0x2 ADD SWAP1 SWAP2 MSTORE SWAP1 KECCAK256 SLOAD ISZERO PUSH2 0xDC1 JUMPI PUSH1 0x40 MLOAD PUSH3 0x461BCD PUSH1 0xE5 SHL DUP2 MSTORE PUSH1 0x20 PUSH1 0x4 DUP3 ADD MSTORE PUSH1 0x13 PUSH1 0x24 DUP3 ADD MSTORE PUSH19 0x20B63932B0B23C903932B3B4B9BA32B932B217 PUSH1 0x69 SHL PUSH1 0x44 DUP3 ADD MSTORE PUSH1 0x64 ADD PUSH2 0x3F9 JUMP JUMPDEST PUSH1 0x0 DUP2 DUP2 MSTORE PUSH1 0x1 PUSH1 0x20 MSTORE PUSH1 0x40 SWAP1 KECCAK256 PUSH1 0x4 ADD SLOAD PUSH2 0xE11 JUMPI PUSH1 0x40 MLOAD PUSH3 0x461BCD PUSH1 0xE5 SHL DUP2 MSTORE PUSH1 0x20 PUSH1 0x4 DUP3 ADD MSTORE PUSH1 0xF PUSH1 0x24 DUP3 ADD MSTORE PUSH15 0x23B0B6B2903737BA103337BAB73217 PUSH1 0x89 SHL PUSH1 0x44 DUP3 ADD MSTORE PUSH1 0x64 ADD PUSH2 0x3F9 JUMP JUMPDEST PUSH2 0x8D8 DUP2 CALLER CALLVALUE PUSH2 0xFF3 JUMP JUMPDEST PUSH1 0x0 SLOAD PUSH1 0x1 PUSH1 0x1 PUSH1 0xA0 SHL SUB AND CALLER EQ PUSH2 0xE46 JUMPI PUSH1 0x40 MLOAD PUSH3 0x461BCD PUSH1 0xE5 SHL DUP2 MSTORE PUSH1 0x4 ADD PUSH2 0x3F9 SWAP1 PUSH2 0x11D3 JUMP JUMPDEST PUSH1 0x1 PUSH1 0x1 PUSH1 0xA0 SHL SUB DUP2 AND PUSH2 0xEAB JUMPI PUSH1 0x40 MLOAD PUSH3 0x461BCD PUSH1 0xE5 SHL DUP2 MSTORE PUSH1 0x20 PUSH1 0x4 DUP3 ADD MSTORE PUSH1 0x26 PUSH1 0x24 DUP3 ADD MSTORE PUSH32 0x4F776E61626C653A206E6577206F776E657220697320746865207A65726F2061 PUSH1 0x44 DUP3 ADD MSTORE PUSH6 0x646472657373 PUSH1 0xD0 SHL PUSH1 0x64 DUP3 ADD MSTORE PUSH1 0x84 ADD PUSH2 0x3F9 JUMP JUMPDEST PUSH2 0x8D8 DUP2 PUSH2 0xFA3 JUMP JUMPDEST PUSH1 0x0 SLOAD PUSH1 0x1 PUSH1 0x1 PUSH1 0xA0 SHL SUB AND CALLER EQ PUSH2 0xEDE JUMPI PUSH1 0x40 MLOAD PUSH3 0x461BCD PUSH1 0xE5 SHL DUP2 MSTORE PUSH1 0x4 ADD PUSH2 0x3F9 SWAP1 PUSH2 0x11D3 JUMP JUMPDEST PUSH1 0x4 DUP1 SLOAD PUSH1 0x1 PUSH1 0x1 PUSH1 0xA0 SHL SUB NOT AND PUSH1 0x1 PUSH1 0x1 PUSH1 0xA0 SHL SUB SWAP3 SWAP1 SWAP3 AND SWAP2 SWAP1 SWAP2 OR SWAP1 SSTORE JUMP JUMPDEST PUSH1 0x0 SLOAD PUSH1 0x1 PUSH1 0x1 PUSH1 0xA0 SHL SUB AND CALLER EQ PUSH2 0xF2A JUMPI PUSH1 0x40 MLOAD PUSH3 0x461BCD PUSH1 0xE5 SHL DUP2 MSTORE PUSH1 0x4 ADD PUSH2 0x3F9 SWAP1 PUSH2 0x11D3 JUMP JUMPDEST PUSH1 0x0 DUP5 DUP2 MSTORE PUSH1 0x1 PUSH1 0x20 DUP2 DUP2 MSTORE PUSH1 0x40 DUP1 DUP5 KECCAK256 PUSH1 0x7 DUP2 ADD SWAP4 SWAP1 SWAP4 SSTORE PUSH1 0x8 DUP4 ADD DUP5 SWAP1 SSTORE PUSH1 0x5 DUP4 ADD DUP8 SWAP1 SSTORE PUSH1 0x3 DUP4 ADD SWAP4 SWAP1 SWAP4 SSTORE PUSH1 0x4 DUP3 ADD DUP6 SWAP1 SSTORE DUP2 SLOAD PUSH1 0xFF NOT AND DUP5 ISZERO ISZERO OR SWAP1 SWAP2 SSTORE SWAP1 MLOAD DUP6 DUP2 MSTORE PUSH32 0x9E5237C6A8BB45DF74799CF138EBDA4FED0574BED906DA41387ACDC4A3CBE3D8 SWAP2 ADD PUSH1 0x40 MLOAD DUP1 SWAP2 SUB SWAP1 LOG1 POP POP POP POP JUMP JUMPDEST PUSH1 0x0 DUP1 SLOAD PUSH1 0x1 PUSH1 0x1 PUSH1 0xA0 SHL SUB DUP4 DUP2 AND PUSH1 0x1 PUSH1 0x1 PUSH1 0xA0 SHL SUB NOT DUP4 AND DUP2 OR DUP5 SSTORE PUSH1 0x40 MLOAD SWAP2 SWAP1 SWAP3 AND SWAP3 DUP4 SWAP2 PUSH32 0x8BE0079C531659141344CD1FD0A4F28419497F9722A3DAAFE3B4186F6B6457E0 SWAP2 SWAP1 LOG3 POP POP JUMP JUMPDEST PUSH1 0x0 DUP4 DUP2 MSTORE PUSH1 0x1 PUSH1 0x20 DUP2 SWAP1 MSTORE PUSH1 0x40 DUP3 KECCAK256 PUSH1 0x3 DUP2 ADD DUP1 SLOAD SWAP2 SWAP4 SWAP1 SWAP2 PUSH2 0x1018 SWAP1 DUP5 SWAP1 PUSH2 0x124F JUMP JUMPDEST SWAP1 SWAP2 SSTORE POP POP PUSH1 0x1 PUSH1 0x1 PUSH1 0xA0 SHL SUB DUP4 AND PUSH1 0x0 SWAP1 DUP2 MSTORE PUSH1 0x1 DUP1 DUP4 ADD PUSH1 0x20 SWAP1 DUP2 MSTORE PUSH1 0x40 DUP1 DUP5 KECCAK256 DUP7 SWAP1 SSTORE PUSH1 0x2 DUP6 ADD SWAP1 SWAP2 MSTORE DUP3 KECCAK256 SSTORE PUSH1 0x8 DUP3 ADD DUP1 SLOAD DUP5 SWAP3 SWAP1 PUSH2 0x105C SWAP1 DUP5 SWAP1 PUSH2 0x124F JUMP JUMPDEST SWAP1 SWAP2 SSTORE POP POP PUSH1 0x4 SLOAD PUSH1 0x40 MLOAD PUSH1 0x0 SWAP2 PUSH1 0x1 PUSH1 0x1 PUSH1 0xA0 SHL SUB AND SWAP1 DUP5 SWAP1 DUP4 DUP2 DUP2 DUP2 DUP6 DUP8 GAS CALL SWAP3 POP POP POP RETURNDATASIZE DUP1 PUSH1 0x0 DUP2 EQ PUSH2 0x10AE JUMPI PUSH1 0x40 MLOAD SWAP2 POP PUSH1 0x1F NOT PUSH1 0x3F RETURNDATASIZE ADD AND DUP3 ADD PUSH1 0x40 MSTORE RETURNDATASIZE DUP3 MSTORE RETURNDATASIZE PUSH1 0x0 PUSH1 0x20 DUP5 ADD RETURNDATACOPY PUSH2 0x10B3 JUMP JUMPDEST PUSH1 0x60 SWAP2 POP JUMPDEST POP POP SWAP1 POP DUP1 PUSH2 0x10D4 JUMPI PUSH1 0x40 MLOAD PUSH3 0x461BCD PUSH1 0xE5 SHL DUP2 MSTORE PUSH1 0x4 ADD PUSH2 0x3F9 SWAP1 PUSH2 0x1208 JUMP JUMPDEST PUSH1 0x40 MLOAD DUP6 DUP2 MSTORE CALLER SWAP1 PUSH31 0x7DC6AB80CC84C043B7B8D4FCAFC802187470087F7EA7FCCD2E17AECD0256A1 SWAP1 PUSH1 0x20 ADD PUSH1 0x40 MLOAD DUP1 SWAP2 SUB SWAP1 LOG2 POP POP POP POP POP JUMP JUMPDEST DUP1 CALLDATALOAD PUSH1 0x1 PUSH1 0x1 PUSH1 0xA0 SHL SUB DUP2 AND DUP2 EQ PUSH2 0x1126 JUMPI PUSH1 0x0 DUP1 REVERT JUMPDEST SWAP2 SWAP1 POP JUMP JUMPDEST PUSH1 0x0 PUSH1 0x20 DUP3 DUP5 SUB SLT ISZERO PUSH2 0x113C JUMPI DUP1 DUP2 REVERT JUMPDEST PUSH2 0x1145 DUP3 PUSH2 0x110F JUMP JUMPDEST SWAP4 SWAP3 POP POP POP JUMP JUMPDEST PUSH1 0x0 PUSH1 0x20 DUP3 DUP5 SUB SLT ISZERO PUSH2 0x115D JUMPI DUP1 DUP2 REVERT JUMPDEST POP CALLDATALOAD SWAP2 SWAP1 POP JUMP JUMPDEST PUSH1 0x0 DUP1 PUSH1 0x40 DUP4 DUP6 SUB SLT ISZERO PUSH2 0x1176 JUMPI DUP1 DUP2 REVERT JUMPDEST DUP3 CALLDATALOAD SWAP2 POP PUSH2 0x1186 PUSH1 0x20 DUP5 ADD PUSH2 0x110F JUMP JUMPDEST SWAP1 POP SWAP3 POP SWAP3 SWAP1 POP JUMP JUMPDEST PUSH1 0x0 DUP1 PUSH1 0x0 DUP1 PUSH1 0x80 DUP6 DUP8 SUB SLT ISZERO PUSH2 0x11A4 JUMPI DUP2 DUP3 REVERT JUMPDEST DUP5 CALLDATALOAD SWAP4 POP PUSH1 0x20 DUP6 ADD CALLDATALOAD SWAP3 POP PUSH1 0x40 DUP6 ADD CALLDATALOAD SWAP2 POP PUSH1 0x60 DUP6 ADD CALLDATALOAD DUP1 ISZERO ISZERO DUP2 EQ PUSH2 0x11C8 JUMPI DUP2 DUP3 REVERT JUMPDEST SWAP4 SWAP7 SWAP3 SWAP6 POP SWAP1 SWAP4 POP POP JUMP JUMPDEST PUSH1 0x20 DUP1 DUP3 MSTORE DUP2 DUP2 ADD MSTORE PUSH32 0x4F776E61626C653A2063616C6C6572206973206E6F7420746865206F776E6572 PUSH1 0x40 DUP3 ADD MSTORE PUSH1 0x60 ADD SWAP1 JUMP JUMPDEST PUSH1 0x20 DUP1 DUP3 MSTORE PUSH1 0x27 SWAP1 DUP3 ADD MSTORE PUSH32 0x54726F706879204B696E67204172636164653A20556E61626C6520746F207472 PUSH1 0x40 DUP3 ADD MSTORE PUSH7 0x30B739B332B917 PUSH1 0xC9 SHL PUSH1 0x60 DUP3 ADD MSTORE PUSH1 0x80 ADD SWAP1 JUMP JUMPDEST PUSH1 0x0 DUP3 NOT DUP3 GT ISZERO PUSH2 0x1262 JUMPI PUSH2 0x1262 PUSH2 0x12BD JUMP JUMPDEST POP ADD SWAP1 JUMP JUMPDEST PUSH1 0x0 DUP3 PUSH2 0x1282 JUMPI PUSH4 0x4E487B71 PUSH1 0xE0 SHL DUP2 MSTORE PUSH1 0x12 PUSH1 0x4 MSTORE PUSH1 0x24 DUP2 REVERT JUMPDEST POP DIV SWAP1 JUMP JUMPDEST PUSH1 0x0 DUP2 PUSH1 0x0 NOT DIV DUP4 GT DUP3 ISZERO ISZERO AND ISZERO PUSH2 0x12A1 JUMPI PUSH2 0x12A1 PUSH2 0x12BD JUMP JUMPDEST POP MUL SWAP1 JUMP JUMPDEST PUSH1 0x0 DUP3 DUP3 LT ISZERO PUSH2 0x12B8 JUMPI PUSH2 0x12B8 PUSH2 0x12BD JUMP JUMPDEST POP SUB SWAP1 JUMP JUMPDEST PUSH4 0x4E487B71 PUSH1 0xE0 SHL PUSH1 0x0 MSTORE PUSH1 0x11 PUSH1 0x4 MSTORE PUSH1 0x24 PUSH1 0x0 REVERT INVALID LOG2 PUSH5 0x6970667358 0x22 SLT KECCAK256 0xC6 0xAC STOP 0xF6 0xDA 0xB6 MSIZE 0xD6 DUP6 0xA6 LOG1 DUP11 PUSH16 0x9A4E4F0FA3ECEF928CB05DB29EBC098D PUSH28 0x4DCB64736F6C63430008040033000000000000000000000000000000 "
				},
				"gasEstimates": {
					"creation": {
						"codeDepositCost": "974600",
						"executionCost": "84302",
						"totalCost": "1058902"
					},
					"external": {
						"closeGame(uint256)": "7245",
						"createGame(uint256,uint256,uint256,bool)": "93328",
						"decimals()": "1029",
						"deleteGame(uint256)": "48143",
						"fee_percentage()": "1095",
						"gameData(uint256)": "5346",
						"market_maker()": "1126",
						"openGame(uint256)": "22246",
						"owner()": "1054",
						"placePlayer(uint256,address)": "23775",
						"reconcile()": "infinite",
						"refund(uint256,address)": "infinite",
						"register(uint256)": "infinite",
						"removePlayer(uint256,address)": "7497",
						"renounceOwnership()": "23481",
						"setArcadeFeePercentage(uint256)": "21132",
						"setMarketMaker(address)": "22099",
						"setWinner(uint256,address)": "infinite",
						"transferOwnership(address)": "23675"
					},
					"internal": {
						"_register(uint256,address,uint256)": "infinite"
					}
				},
				"methodIdentifiers": {
					"closeGame(uint256)": "2d6ef310",
					"createGame(uint256,uint256,uint256,bool)": "fc3af0d6",
					"decimals()": "313ce567",
					"deleteGame(uint256)": "248a55a1",
					"fee_percentage()": "c46ed45a",
					"gameData(uint256)": "ccaf237f",
					"market_maker()": "75ca7603",
					"openGame(uint256)": "00f5544f",
					"owner()": "8da5cb5b",
					"placePlayer(uint256,address)": "b9888d89",
					"reconcile()": "8f0d7e35",
					"refund(uint256,address)": "7ad226dc",
					"register(uint256)": "f207564e",
					"removePlayer(uint256,address)": "2ba67100",
					"renounceOwnership()": "715018a6",
					"setArcadeFeePercentage(uint256)": "2ac5016f",
					"setMarketMaker(address)": "f54c42d7",
					"setWinner(uint256,address)": "9c623683",
					"transferOwnership(address)": "f2fde38b"
				}
			},
			"storageLayout": {
				"storage": [
					{
						"astId": 7,
						"contract": "contracts/Arcade.sol:Arcade",
						"label": "_owner",
						"offset": 0,
						"slot": "0",
						"type": "t_address"
					},
					{
						"astId": 1215,
						"contract": "contracts/Arcade.sol:Arcade",
						"label": "gameData",
						"offset": 0,
						"slot": "1",
						"type": "t_mapping(t_uint256,t_struct(GameInfo)1210_storage)"
					},
					{
						"astId": 1218,
						"contract": "contracts/Arcade.sol:Arcade",
						"label": "decimals",
						"offset": 0,
						"slot": "2",
						"type": "t_uint256"
					},
					{
						"astId": 1220,
						"contract": "contracts/Arcade.sol:Arcade",
						"label": "fee_percentage",
						"offset": 0,
						"slot": "3",
						"type": "t_uint256"
					},
					{
						"astId": 1222,
						"contract": "contracts/Arcade.sol:Arcade",
						"label": "market_maker",
						"offset": 0,
						"slot": "4",
						"type": "t_address"
					}
				],
				"types": {
					"t_address": {
						"encoding": "inplace",
						"label": "address",
						"numberOfBytes": "20"
					},
					"t_bool": {
						"encoding": "inplace",
						"label": "bool",
						"numberOfBytes": "1"
					},
					"t_mapping(t_address,t_uint256)": {
						"encoding": "mapping",
						"key": "t_address",
						"label": "mapping(address => uint256)",
						"numberOfBytes": "32",
						"value": "t_uint256"
					},
					"t_mapping(t_uint256,t_struct(GameInfo)1210_storage)": {
						"encoding": "mapping",
						"key": "t_uint256",
						"label": "mapping(uint256 => struct Arcade.GameInfo)",
						"numberOfBytes": "32",
						"value": "t_struct(GameInfo)1210_storage"
					},
					"t_struct(GameInfo)1210_storage": {
						"encoding": "inplace",
						"label": "struct Arcade.GameInfo",
						"members": [
							{
								"astId": 1187,
								"contract": "contracts/Arcade.sol:Arcade",
								"label": "exchange",
								"offset": 0,
								"slot": "0",
								"type": "t_bool"
							},
							{
								"astId": 1191,
								"contract": "contracts/Arcade.sol:Arcade",
								"label": "fee",
								"offset": 0,
								"slot": "1",
								"type": "t_mapping(t_address,t_uint256)"
							},
							{
								"astId": 1195,
								"contract": "contracts/Arcade.sol:Arcade",
								"label": "paid",
								"offset": 0,
								"slot": "2",
								"type": "t_mapping(t_address,t_uint256)"
							},
							{
								"astId": 1197,
								"contract": "contracts/Arcade.sol:Arcade",
								"label": "player_count",
								"offset": 0,
								"slot": "3",
								"type": "t_uint256"
							},
							{
								"astId": 1199,
								"contract": "contracts/Arcade.sol:Arcade",
								"label": "player_limit",
								"offset": 0,
								"slot": "4",
								"type": "t_uint256"
							},
							{
								"astId": 1201,
								"contract": "contracts/Arcade.sol:Arcade",
								"label": "registration_fee",
								"offset": 0,
								"slot": "5",
								"type": "t_uint256"
							},
							{
								"astId": 1205,
								"contract": "contracts/Arcade.sol:Arcade",
								"label": "seats",
								"offset": 0,
								"slot": "6",
								"type": "t_mapping(t_address,t_uint256)"
							},
							{
								"astId": 1207,
								"contract": "contracts/Arcade.sol:Arcade",
								"label": "status",
								"offset": 0,
								"slot": "7",
								"type": "t_uint256"
							},
							{
								"astId": 1209,
								"contract": "contracts/Arcade.sol:Arcade",
								"label": "total_fee",
								"offset": 0,
								"slot": "8",
								"type": "t_uint256"
							}
						],
						"numberOfBytes": "288"
					},
					"t_uint256": {
						"encoding": "inplace",
						"label": "uint256",
						"numberOfBytes": "32"
					}
				}
			},
			"userdoc": {
				"kind": "user",
				"methods": {},
				"version": 1
			}
		}
	}
}