{
	"contracts/Arcade.sol": {
		"Arcade": {
			"abi": [
				{
					"inputs": [],
					"stateMutability": "nonpayable",
					"type": "constructor"
				},
				{
					"anonymous": false,
					"inputs": [
						{
							"indexed": false,
							"internalType": "uint256",
							"name": "id",
							"type": "uint256"
						}
					],
					"name": "CloseGame",
					"type": "event"
				},
				{
					"anonymous": false,
					"inputs": [
						{
							"indexed": false,
							"internalType": "uint256",
							"name": "id",
							"type": "uint256"
						}
					],
					"name": "CreateGame",
					"type": "event"
				},
				{
					"anonymous": false,
					"inputs": [
						{
							"indexed": false,
							"internalType": "uint256",
							"name": "id",
							"type": "uint256"
						}
					],
					"name": "DeleteGame",
					"type": "event"
				},
				{
					"anonymous": false,
					"inputs": [
						{
							"indexed": false,
							"internalType": "uint256",
							"name": "fee",
							"type": "uint256"
						}
					],
					"name": "Fee",
					"type": "event"
				},
				{
					"anonymous": false,
					"inputs": [
						{
							"indexed": false,
							"internalType": "uint256",
							"name": "id",
							"type": "uint256"
						}
					],
					"name": "OpenGame",
					"type": "event"
				},
				{
					"anonymous": false,
					"inputs": [
						{
							"indexed": false,
							"internalType": "uint256",
							"name": "payout",
							"type": "uint256"
						}
					],
					"name": "Payout",
					"type": "event"
				},
				{
					"anonymous": false,
					"inputs": [
						{
							"indexed": false,
							"internalType": "address",
							"name": "player",
							"type": "address"
						},
						{
							"indexed": false,
							"internalType": "uint256",
							"name": "id",
							"type": "uint256"
						}
					],
					"name": "PlacePlayer",
					"type": "event"
				},
				{
					"anonymous": false,
					"inputs": [
						{
							"indexed": false,
							"internalType": "uint256",
							"name": "id",
							"type": "uint256"
						},
						{
							"indexed": false,
							"internalType": "address",
							"name": "player",
							"type": "address"
						},
						{
							"indexed": false,
							"internalType": "uint256",
							"name": "amount",
							"type": "uint256"
						}
					],
					"name": "Refund",
					"type": "event"
				},
				{
					"anonymous": false,
					"inputs": [
						{
							"indexed": true,
							"internalType": "address",
							"name": "_player",
							"type": "address"
						},
						{
							"indexed": false,
							"internalType": "uint256",
							"name": "id",
							"type": "uint256"
						}
					],
					"name": "Register",
					"type": "event"
				},
				{
					"anonymous": false,
					"inputs": [
						{
							"indexed": false,
							"internalType": "address",
							"name": "player",
							"type": "address"
						}
					],
					"name": "RemovePlayer",
					"type": "event"
				},
				{
					"anonymous": false,
					"inputs": [
						{
							"indexed": true,
							"internalType": "bytes32",
							"name": "role",
							"type": "bytes32"
						},
						{
							"indexed": true,
							"internalType": "bytes32",
							"name": "previousAdminRole",
							"type": "bytes32"
						},
						{
							"indexed": true,
							"internalType": "bytes32",
							"name": "newAdminRole",
							"type": "bytes32"
						}
					],
					"name": "RoleAdminChanged",
					"type": "event"
				},
				{
					"anonymous": false,
					"inputs": [
						{
							"indexed": true,
							"internalType": "bytes32",
							"name": "role",
							"type": "bytes32"
						},
						{
							"indexed": true,
							"internalType": "address",
							"name": "account",
							"type": "address"
						},
						{
							"indexed": true,
							"internalType": "address",
							"name": "sender",
							"type": "address"
						}
					],
					"name": "RoleGranted",
					"type": "event"
				},
				{
					"anonymous": false,
					"inputs": [
						{
							"indexed": true,
							"internalType": "bytes32",
							"name": "role",
							"type": "bytes32"
						},
						{
							"indexed": true,
							"internalType": "address",
							"name": "account",
							"type": "address"
						},
						{
							"indexed": true,
							"internalType": "address",
							"name": "sender",
							"type": "address"
						}
					],
					"name": "RoleRevoked",
					"type": "event"
				},
				{
					"inputs": [],
					"name": "ARCADE_MANAGER",
					"outputs": [
						{
							"internalType": "bytes32",
							"name": "",
							"type": "bytes32"
						}
					],
					"stateMutability": "view",
					"type": "function"
				},
				{
					"inputs": [],
					"name": "DEFAULT_ADMIN_ROLE",
					"outputs": [
						{
							"internalType": "bytes32",
							"name": "",
							"type": "bytes32"
						}
					],
					"stateMutability": "view",
					"type": "function"
				},
				{
					"inputs": [],
					"name": "GAME_MASTER",
					"outputs": [
						{
							"internalType": "bytes32",
							"name": "",
							"type": "bytes32"
						}
					],
					"stateMutability": "view",
					"type": "function"
				},
				{
					"inputs": [
						{
							"internalType": "address",
							"name": "",
							"type": "address"
						}
					],
					"name": "acceptedArcadeTokens",
					"outputs": [
						{
							"internalType": "contract IERC20",
							"name": "native_token",
							"type": "address"
						},
						{
							"internalType": "bool",
							"name": "active",
							"type": "bool"
						},
						{
							"internalType": "uint256",
							"name": "redemption_rate",
							"type": "uint256"
						}
					],
					"stateMutability": "view",
					"type": "function"
				},
				{
					"inputs": [
						{
							"internalType": "address",
							"name": "token_address",
							"type": "address"
						},
						{
							"internalType": "uint256",
							"name": "redemption_rate",
							"type": "uint256"
						},
						{
							"internalType": "bool",
							"name": "_active",
							"type": "bool"
						}
					],
					"name": "addArcadeToken",
					"outputs": [],
					"stateMutability": "nonpayable",
					"type": "function"
				},
				{
					"inputs": [
						{
							"internalType": "address",
							"name": "token_address",
							"type": "address"
						}
					],
					"name": "arcadeToken",
					"outputs": [
						{
							"internalType": "bool",
							"name": "",
							"type": "bool"
						},
						{
							"internalType": "uint256",
							"name": "",
							"type": "uint256"
						}
					],
					"stateMutability": "view",
					"type": "function"
				},
				{
					"inputs": [
						{
							"internalType": "uint256",
							"name": "game_id",
							"type": "uint256"
						}
					],
					"name": "closeGame",
					"outputs": [],
					"stateMutability": "nonpayable",
					"type": "function"
				},
				{
					"inputs": [
						{
							"internalType": "uint256",
							"name": "game_id",
							"type": "uint256"
						},
						{
							"internalType": "uint256",
							"name": "registration_fee",
							"type": "uint256"
						},
						{
							"internalType": "address",
							"name": "arcade_token",
							"type": "address"
						},
						{
							"internalType": "uint256",
							"name": "player_limit",
							"type": "uint256"
						},
						{
							"internalType": "bool",
							"name": "exchange",
							"type": "bool"
						}
					],
					"name": "createGame",
					"outputs": [],
					"stateMutability": "nonpayable",
					"type": "function"
				},
				{
					"inputs": [],
					"name": "decimals",
					"outputs": [
						{
							"internalType": "uint256",
							"name": "",
							"type": "uint256"
						}
					],
					"stateMutability": "view",
					"type": "function"
				},
				{
					"inputs": [
						{
							"internalType": "uint256",
							"name": "game_id",
							"type": "uint256"
						}
					],
					"name": "deleteGame",
					"outputs": [],
					"stateMutability": "nonpayable",
					"type": "function"
				},
				{
					"inputs": [],
					"name": "fee_percentage",
					"outputs": [
						{
							"internalType": "uint256",
							"name": "",
							"type": "uint256"
						}
					],
					"stateMutability": "view",
					"type": "function"
				},
				{
					"inputs": [
						{
							"internalType": "uint256",
							"name": "",
							"type": "uint256"
						}
					],
					"name": "gameData",
					"outputs": [
						{
							"internalType": "bool",
							"name": "exchange",
							"type": "bool"
						},
						{
							"internalType": "uint256",
							"name": "player_count",
							"type": "uint256"
						},
						{
							"internalType": "uint256",
							"name": "player_limit",
							"type": "uint256"
						},
						{
							"internalType": "uint256",
							"name": "registration_fee",
							"type": "uint256"
						},
						{
							"internalType": "uint256",
							"name": "status",
							"type": "uint256"
						},
						{
							"internalType": "address",
							"name": "arcade_token",
							"type": "address"
						},
						{
							"internalType": "uint256",
							"name": "total_fee",
							"type": "uint256"
						}
					],
					"stateMutability": "view",
					"type": "function"
				},
				{
					"inputs": [
						{
							"internalType": "bytes32",
							"name": "role",
							"type": "bytes32"
						}
					],
					"name": "getRoleAdmin",
					"outputs": [
						{
							"internalType": "bytes32",
							"name": "",
							"type": "bytes32"
						}
					],
					"stateMutability": "view",
					"type": "function"
				},
				{
					"inputs": [
						{
							"internalType": "bytes32",
							"name": "role",
							"type": "bytes32"
						},
						{
							"internalType": "address",
							"name": "account",
							"type": "address"
						}
					],
					"name": "grantRole",
					"outputs": [],
					"stateMutability": "nonpayable",
					"type": "function"
				},
				{
					"inputs": [
						{
							"internalType": "bytes32",
							"name": "role",
							"type": "bytes32"
						},
						{
							"internalType": "address",
							"name": "account",
							"type": "address"
						}
					],
					"name": "hasRole",
					"outputs": [
						{
							"internalType": "bool",
							"name": "",
							"type": "bool"
						}
					],
					"stateMutability": "view",
					"type": "function"
				},
				{
					"inputs": [
						{
							"internalType": "address",
							"name": "token_address",
							"type": "address"
						}
					],
					"name": "isAccepted",
					"outputs": [
						{
							"internalType": "bool",
							"name": "",
							"type": "bool"
						}
					],
					"stateMutability": "view",
					"type": "function"
				},
				{
					"inputs": [
						{
							"internalType": "uint256",
							"name": "game_id",
							"type": "uint256"
						}
					],
					"name": "leaveMatch",
					"outputs": [],
					"stateMutability": "nonpayable",
					"type": "function"
				},
				{
					"inputs": [
						{
							"internalType": "uint256",
							"name": "game_id",
							"type": "uint256"
						}
					],
					"name": "openGame",
					"outputs": [],
					"stateMutability": "nonpayable",
					"type": "function"
				},
				{
					"inputs": [],
					"name": "owner",
					"outputs": [
						{
							"internalType": "address",
							"name": "",
							"type": "address"
						}
					],
					"stateMutability": "view",
					"type": "function"
				},
				{
					"inputs": [
						{
							"internalType": "uint256",
							"name": "game_id",
							"type": "uint256"
						},
						{
							"internalType": "address",
							"name": "player",
							"type": "address"
						}
					],
					"name": "placePlayer",
					"outputs": [],
					"stateMutability": "nonpayable",
					"type": "function"
				},
				{
					"inputs": [
						{
							"internalType": "address",
							"name": "arcade_token",
							"type": "address"
						}
					],
					"name": "reconcile",
					"outputs": [],
					"stateMutability": "nonpayable",
					"type": "function"
				},
				{
					"inputs": [
						{
							"internalType": "uint256",
							"name": "game_id",
							"type": "uint256"
						},
						{
							"internalType": "address",
							"name": "player",
							"type": "address"
						}
					],
					"name": "refund",
					"outputs": [],
					"stateMutability": "nonpayable",
					"type": "function"
				},
				{
					"inputs": [
						{
							"internalType": "uint256",
							"name": "game_id",
							"type": "uint256"
						}
					],
					"name": "register",
					"outputs": [],
					"stateMutability": "nonpayable",
					"type": "function"
				},
				{
					"inputs": [
						{
							"internalType": "address",
							"name": "token_address",
							"type": "address"
						}
					],
					"name": "removeArcadeToken",
					"outputs": [],
					"stateMutability": "nonpayable",
					"type": "function"
				},
				{
					"inputs": [
						{
							"internalType": "uint256",
							"name": "game_id",
							"type": "uint256"
						},
						{
							"internalType": "address",
							"name": "player",
							"type": "address"
						}
					],
					"name": "removePlayer",
					"outputs": [],
					"stateMutability": "nonpayable",
					"type": "function"
				},
				{
					"inputs": [
						{
							"internalType": "bytes32",
							"name": "role",
							"type": "bytes32"
						},
						{
							"internalType": "address",
							"name": "account",
							"type": "address"
						}
					],
					"name": "renounceRole",
					"outputs": [],
					"stateMutability": "nonpayable",
					"type": "function"
				},
				{
					"inputs": [
						{
							"internalType": "bytes32",
							"name": "role",
							"type": "bytes32"
						},
						{
							"internalType": "address",
							"name": "account",
							"type": "address"
						}
					],
					"name": "revokeRole",
					"outputs": [],
					"stateMutability": "nonpayable",
					"type": "function"
				},
				{
					"inputs": [
						{
							"internalType": "uint256",
							"name": "percentage",
							"type": "uint256"
						}
					],
					"name": "setArcadeFeePercentage",
					"outputs": [],
					"stateMutability": "nonpayable",
					"type": "function"
				},
				{
					"inputs": [
						{
							"internalType": "uint256",
							"name": "game_id",
							"type": "uint256"
						},
						{
							"internalType": "address",
							"name": "winner",
							"type": "address"
						}
					],
					"name": "setWinner",
					"outputs": [],
					"stateMutability": "nonpayable",
					"type": "function"
				},
				{
					"inputs": [
						{
							"internalType": "bytes4",
							"name": "interfaceId",
							"type": "bytes4"
						}
					],
					"name": "supportsInterface",
					"outputs": [
						{
							"internalType": "bool",
							"name": "",
							"type": "bool"
						}
					],
					"stateMutability": "view",
					"type": "function"
				}
			],
			"devdoc": {
				"kind": "dev",
				"methods": {
					"addArcadeToken(address,uint256,bool)": {
						"details": "Adds token to {acceptedArcadeTokens} Require `token_address` for proxy balance exchange.   `redemption_rate` is set and determines the rate that proxy balance is exchanged.   Set `active` to reflect status of exchange. Requirements: - the caller must have arcade manager role."
					},
					"arcadeToken(address)": {
						"details": "Returns {ArcadeToken} struct for `token_address`."
					},
					"closeGame(uint256)": {
						"details": "Changes {#}.status for `game_id`. Requirements: - the caller must have game master role."
					},
					"createGame(uint256,uint256,address,uint256,bool)": {
						"details": "Mutates {gameData} structure with game configuration. Sets {#} for `game_id`, `registration_fee`, `arcade_token`, `player_limit`, `exchange`  Requirements: - the caller must have game master role."
					},
					"deleteGame(uint256)": {
						"details": "Deletes {#} for {gameData} for `game_id`. Requirements: - the caller must have game master role."
					},
					"getRoleAdmin(bytes32)": {
						"details": "Returns the admin role that controls `role`. See {grantRole} and {revokeRole}. To change a role's admin, use {_setRoleAdmin}."
					},
					"grantRole(bytes32,address)": {
						"details": "Grants `role` to `account`. If `account` had not been already granted `role`, emits a {RoleGranted} event. Requirements: - the caller must have ``role``'s admin role."
					},
					"hasRole(bytes32,address)": {
						"details": "Returns `true` if `account` has been granted `role`."
					},
					"isAccepted(address)": {
						"details": "Returns {active} as boolean value for `token_address`."
					},
					"leaveMatch(uint256)": {
						"details": "Updates {gameData} sets {#}.seats[`player`] to 0."
					},
					"openGame(uint256)": {
						"details": "Changes {#}.status for `game_id`. Requirements: - the caller must have game master role."
					},
					"placePlayer(uint256,address)": {
						"details": "Gives `player` access to register for `game_id`. Requirements: - the caller must have game master role."
					},
					"reconcile(address)": {
						"details": "Transfer balance of `arcade_token` to caller. Requirements: - the caller must have admin role."
					},
					"refund(uint256,address)": {
						"details": "Returns {#}.registration_fee for `player` at `game_id`. Requirements: - the caller must have game master role. - `player` must be registered. - contract balance should exceed {#}.registration_fee"
					},
					"register(uint256)": {
						"details": "Validates game configuration for caller. Transfers {#}.registration_fee to arcade contract. Requirements: - Valid game configuration"
					},
					"removeArcadeToken(address)": {
						"details": "Disable token for proxy balance exchange. Requirements: - the caller must have arcade manager role."
					},
					"removePlayer(uint256,address)": {
						"details": "Updates {gameData} sets {#}.seats[`player`] to 0. Requirements: - the caller must have game master role."
					},
					"renounceRole(bytes32,address)": {
						"details": "Revokes `role` from the calling account. Roles are often managed via {grantRole} and {revokeRole}: this function's purpose is to provide a mechanism for accounts to lose their privileges if they are compromised (such as when a trusted device is misplaced). If the calling account had been revoked `role`, emits a {RoleRevoked} event. Requirements: - the caller must be `account`."
					},
					"revokeRole(bytes32,address)": {
						"details": "Revokes `role` from `account`. If `account` had been granted `role`, emits a {RoleRevoked} event. Requirements: - the caller must have ``role``'s admin role."
					},
					"setArcadeFeePercentage(uint256)": {
						"details": "Set fee percentage for arcade contract. Requirements: - the caller must have arcade manager role.     "
					},
					"setWinner(uint256,address)": {
						"details": "Updates {gameData} defines `winner` as address to receive {#}.total_fee less arcade_fee. Requirements: - the caller must have game master role."
					},
					"supportsInterface(bytes4)": {
						"details": "See {IERC165-supportsInterface}."
					}
				},
				"version": 1
			},
			"evm": {
				"assembly": "    /* \"contracts/Arcade.sol\":179:10610  contract Arcade is AccessControl {... */\n  mstore(0x40, 0x80)\n    /* \"contracts/Arcade.sol\":1422:1424  18 */\n  0x12\n    /* \"contracts/Arcade.sol\":1396:1424  uint256 public decimals = 18 */\n  0x03\n  dup2\n  swap1\n  sstore\n    /* \"contracts/Arcade.sol\":1490:1513  10**(uint256(decimals)) */\n  tag_1\n  swap1\n    /* \"contracts/Arcade.sol\":1490:1492  10 */\n  0x0a\n    /* \"contracts/Arcade.sol\":1490:1513  10**(uint256(decimals)) */\n  tag_2\n  jump\t// in\ntag_1:\n    /* \"contracts/Arcade.sol\":1467:1513  uint256 private base = 10**(uint256(decimals)) */\n  0x05\n  sstore\n    /* \"contracts/Arcade.sol\":1547:1782  constructor() {... */\n  callvalue\n  dup1\n  iszero\n  tag_3\n  jumpi\n  0x00\n  dup1\n  revert\ntag_3:\n  pop\n    /* \"contracts/Arcade.sol\":1571:1615  _grantRole(DEFAULT_ADMIN_ROLE, _msgSender()) */\n  tag_6\n    /* \"contracts/access/AccessControl.sol\":2072:2076  0x00 */\n  0x00\n    /* \"contracts/utils/Context.sol\":719:729  msg.sender */\n  caller\n    /* \"contracts/Arcade.sol\":1571:1581  _grantRole */\n  tag_9\n    /* \"contracts/Arcade.sol\":1571:1615  _grantRole(DEFAULT_ADMIN_ROLE, _msgSender()) */\n  jump\t// in\ntag_6:\n    /* \"contracts/Arcade.sol\":1625:1665  _grantRole(ARCADE_MANAGER, _msgSender()) */\n  tag_10\n    /* \"contracts/Arcade.sol\":702:729  keccak256(\"ARCADE_MANAGER\") */\n  0x3131fc8beb48b895197ad34f21c86afdf6a989a5cd911181952dbf8dfcf18192\n    /* \"contracts/utils/Context.sol\":719:729  msg.sender */\n  caller\n    /* \"contracts/Arcade.sol\":1571:1581  _grantRole */\n  tag_9\n    /* \"contracts/Arcade.sol\":1571:1615  _grantRole(DEFAULT_ADMIN_ROLE, _msgSender()) */\n  jump\t// in\n    /* \"contracts/Arcade.sol\":1625:1665  _grantRole(ARCADE_MANAGER, _msgSender()) */\ntag_10:\n    /* \"contracts/Arcade.sol\":1675:1712  _grantRole(GAME_MASTER, _msgSender()) */\n  tag_12\n    /* \"contracts/Arcade.sol\":773:797  keccak256(\"GAME_MASTER\") */\n  0x3c13b5abbc85050d426f9500a16cfd9f7d94261c880b9a4e03d584d28c06059c\n    /* \"contracts/utils/Context.sol\":719:729  msg.sender */\n  caller\n    /* \"contracts/Arcade.sol\":1571:1581  _grantRole */\n  tag_9\n    /* \"contracts/Arcade.sol\":1571:1615  _grantRole(DEFAULT_ADMIN_ROLE, _msgSender()) */\n  jump\t// in\n    /* \"contracts/Arcade.sol\":1675:1712  _grantRole(GAME_MASTER, _msgSender()) */\ntag_12:\n    /* \"contracts/Arcade.sol\":1723:1728  owner */\n  0x06\n    /* \"contracts/Arcade.sol\":1723:1743  owner = _msgSender() */\n  dup1\n  sload\n  not(sub(shl(0xa0, 0x01), 0x01))\n  and\n    /* \"contracts/utils/Context.sol\":719:729  msg.sender */\n  caller\n    /* \"contracts/Arcade.sol\":1723:1743  owner = _msgSender() */\n  or\n  swap1\n  sstore\n    /* \"contracts/Arcade.sol\":1771:1775  1e17 */\n  0x016345785d8a0000\n    /* \"contracts/Arcade.sol\":1754:1768  fee_percentage */\n  0x04\n    /* \"contracts/Arcade.sol\":1754:1775  fee_percentage = 1e17 */\n  sstore\n    /* \"contracts/Arcade.sol\":179:10610  contract Arcade is AccessControl {... */\n  jump(tag_23)\n    /* \"contracts/access/AccessControl.sol\":7244:7477  function _grantRole(bytes32 role, address account) internal virtual {... */\ntag_9:\n    /* \"contracts/access/AccessControl.sol\":7327:7349  hasRole(role, account) */\n  tag_18\n    /* \"contracts/access/AccessControl.sol\":7335:7339  role */\n  dup3\n    /* \"contracts/access/AccessControl.sol\":7341:7348  account */\n  dup3\n    /* \"contracts/access/AccessControl.sol\":7327:7334  hasRole */\n  tag_19\n    /* \"contracts/access/AccessControl.sol\":7327:7349  hasRole(role, account) */\n  jump\t// in\ntag_18:\n    /* \"contracts/access/AccessControl.sol\":7322:7471  if (!hasRole(role, account)) {... */\n  tag_20\n  jumpi\n    /* \"contracts/access/AccessControl.sol\":7365:7371  _roles */\n  0x00\n    /* \"contracts/access/AccessControl.sol\":7365:7377  _roles[role] */\n  dup3\n  dup2\n  mstore\n  0x20\n  dup2\n  dup2\n  mstore\n  0x40\n  dup1\n  dup4\n  keccak256\n  sub(shl(0xa0, 0x01), 0x01)\n    /* \"contracts/access/AccessControl.sol\":7365:7394  _roles[role].members[account] */\n  dup6\n  and\n  dup5\n  mstore\n  swap1\n  swap2\n  mstore\n  swap1\n  keccak256\n    /* \"contracts/access/AccessControl.sol\":7365:7401  _roles[role].members[account] = true */\n  dup1\n  sload\n  not(0xff)\n  and\n    /* \"contracts/access/AccessControl.sol\":7397:7401  true */\n  0x01\n    /* \"contracts/access/AccessControl.sol\":7365:7401  _roles[role].members[account] = true */\n  or\n  swap1\n  sstore\n    /* \"contracts/access/AccessControl.sol\":7447:7459  _msgSender() */\n  tag_21\n    /* \"contracts/utils/Context.sol\":719:729  msg.sender */\n  caller\n  swap1\n    /* \"contracts/utils/Context.sol\":640:736  function _msgSender() internal view virtual returns (address) {... */\n  jump\n    /* \"contracts/access/AccessControl.sol\":7447:7459  _msgSender() */\ntag_21:\n  sub(shl(0xa0, 0x01), 0x01)\n    /* \"contracts/access/AccessControl.sol\":7420:7460  RoleGranted(role, account, _msgSender()) */\n  and\n    /* \"contracts/access/AccessControl.sol\":7438:7445  account */\n  dup2\n  sub(shl(0xa0, 0x01), 0x01)\n    /* \"contracts/access/AccessControl.sol\":7420:7460  RoleGranted(role, account, _msgSender()) */\n  and\n    /* \"contracts/access/AccessControl.sol\":7432:7436  role */\n  dup4\n    /* \"contracts/access/AccessControl.sol\":7420:7460  RoleGranted(role, account, _msgSender()) */\n  0x2f8788117e7eff1d82e926ec794901d17c78024a50270940304540a733656f0d\n  mload(0x40)\n  mload(0x40)\n  dup1\n  swap2\n  sub\n  swap1\n  log4\n    /* \"contracts/access/AccessControl.sol\":7322:7471  if (!hasRole(role, account)) {... */\ntag_20:\n    /* \"contracts/access/AccessControl.sol\":7244:7477  function _grantRole(bytes32 role, address account) internal virtual {... */\n  pop\n  pop\n  jump\t// out\n    /* \"contracts/access/AccessControl.sol\":2895:3040  function hasRole(bytes32 role, address account) public view virtual override returns (bool) {... */\ntag_19:\n    /* \"contracts/access/AccessControl.sol\":2981:2985  bool */\n  0x00\n    /* \"contracts/access/AccessControl.sol\":3004:3016  _roles[role] */\n  dup3\n  dup2\n  mstore\n  0x20\n  dup2\n  dup2\n  mstore\n  0x40\n  dup1\n  dup4\n  keccak256\n  sub(shl(0xa0, 0x01), 0x01)\n    /* \"contracts/access/AccessControl.sol\":3004:3033  _roles[role].members[account] */\n  dup6\n  and\n  dup5\n  mstore\n  swap1\n  swap2\n  mstore\n  swap1\n  keccak256\n  sload\n  0xff\n  and\n    /* \"contracts/access/AccessControl.sol\":2895:3040  function hasRole(bytes32 role, address account) public view virtual override returns (bool) {... */\ntag_22:\n  swap3\n  swap2\n  pop\n  pop\n  jump\t// out\n    /* \"#utility.yul\":14:436   */\ntag_24:\n    /* \"#utility.yul\":103:104   */\n  0x01\n    /* \"#utility.yul\":146:151   */\n  dup2\n    /* \"#utility.yul\":103:104   */\n  dup2\n    /* \"#utility.yul\":160:430   */\ntag_26:\n    /* \"#utility.yul\":181:188   */\n  dup1\n    /* \"#utility.yul\":171:179   */\n  dup6\n    /* \"#utility.yul\":168:189   */\n  gt\n    /* \"#utility.yul\":160:430   */\n  iszero\n  tag_28\n  jumpi\n    /* \"#utility.yul\":240:244   */\n  dup2\n    /* \"#utility.yul\":236:237   */\n  0x00\n    /* \"#utility.yul\":232:238   */\n  not\n    /* \"#utility.yul\":228:245   */\n  div\n    /* \"#utility.yul\":222:226   */\n  dup3\n    /* \"#utility.yul\":219:246   */\n  gt\n    /* \"#utility.yul\":216:218   */\n  iszero\n  tag_30\n  jumpi\n    /* \"#utility.yul\":249:267   */\n  tag_30\n  tag_31\n  jump\t// in\ntag_30:\n    /* \"#utility.yul\":299:306   */\n  dup1\n    /* \"#utility.yul\":289:297   */\n  dup6\n    /* \"#utility.yul\":285:307   */\n  and\n    /* \"#utility.yul\":282:284   */\n  iszero\n  tag_32\n  jumpi\n    /* \"#utility.yul\":319:335   */\n  swap2\n  dup2\n  mul\n  swap2\n    /* \"#utility.yul\":282:284   */\ntag_32:\n    /* \"#utility.yul\":398:420   */\n  swap4\n  dup5\n  shr\n  swap4\n    /* \"#utility.yul\":358:373   */\n  swap1\n  dup1\n  mul\n  swap1\n    /* \"#utility.yul\":160:430   */\n  jump(tag_26)\ntag_28:\n    /* \"#utility.yul\":164:167   */\n  pop\n    /* \"#utility.yul\":78:436   */\n  swap3\n  pop\n  swap3\n  swap1\n  pop\n  jump\t// out\n    /* \"#utility.yul\":441:572   */\ntag_2:\n    /* \"#utility.yul\":501:506   */\n  0x00\n    /* \"#utility.yul\":530:566   */\n  tag_34\n    /* \"#utility.yul\":557:565   */\n  dup4\n    /* \"#utility.yul\":551:555   */\n  dup4\n    /* \"#utility.yul\":530:566   */\n  tag_35\n  jump\t// in\ntag_34:\n    /* \"#utility.yul\":521:566   */\n  swap4\n    /* \"#utility.yul\":511:572   */\n  swap3\n  pop\n  pop\n  pop\n  jump\t// out\n    /* \"#utility.yul\":577:1383   */\ntag_35:\n    /* \"#utility.yul\":626:631   */\n  0x00\n    /* \"#utility.yul\":656:664   */\n  dup3\n    /* \"#utility.yul\":646:648   */\n  tag_37\n  jumpi\n  pop\n    /* \"#utility.yul\":697:698   */\n  0x01\n    /* \"#utility.yul\":711:716   */\n  jump(tag_22)\n    /* \"#utility.yul\":646:648   */\ntag_37:\n    /* \"#utility.yul\":745:749   */\n  dup2\n    /* \"#utility.yul\":735:737   */\n  tag_38\n  jumpi\n  pop\n    /* \"#utility.yul\":782:783   */\n  0x00\n    /* \"#utility.yul\":796:801   */\n  jump(tag_22)\n    /* \"#utility.yul\":735:737   */\ntag_38:\n    /* \"#utility.yul\":827:831   */\n  dup2\n    /* \"#utility.yul\":845:846   */\n  0x01\n    /* \"#utility.yul\":840:899   */\n  dup2\n  eq\n  tag_40\n  jumpi\n    /* \"#utility.yul\":913:914   */\n  0x02\n    /* \"#utility.yul\":908:1038   */\n  dup2\n  eq\n  tag_41\n  jumpi\n    /* \"#utility.yul\":820:1038   */\n  jump(tag_39)\n    /* \"#utility.yul\":840:899   */\ntag_40:\n    /* \"#utility.yul\":870:871   */\n  0x01\n    /* \"#utility.yul\":861:871   */\n  swap2\n  pop\n    /* \"#utility.yul\":884:889   */\n  pop\n  jump(tag_22)\n    /* \"#utility.yul\":908:1038   */\ntag_41:\n    /* \"#utility.yul\":945:948   */\n  0xff\n    /* \"#utility.yul\":935:943   */\n  dup5\n    /* \"#utility.yul\":932:949   */\n  gt\n    /* \"#utility.yul\":929:931   */\n  iszero\n  tag_43\n  jumpi\n    /* \"#utility.yul\":952:970   */\n  tag_43\n  tag_31\n  jump\t// in\ntag_43:\n  pop\n  pop\n    /* \"#utility.yul\":1008:1009   */\n  0x01\n    /* \"#utility.yul\":994:1010   */\n  dup3\n  shl\n    /* \"#utility.yul\":1023:1028   */\n  jump(tag_22)\n    /* \"#utility.yul\":820:1038   */\ntag_39:\n  pop\n    /* \"#utility.yul\":1122:1124   */\n  0x20\n    /* \"#utility.yul\":1112:1120   */\n  dup4\n    /* \"#utility.yul\":1109:1125   */\n  lt\n    /* \"#utility.yul\":1103:1106   */\n  0x0133\n    /* \"#utility.yul\":1097:1101   */\n  dup4\n    /* \"#utility.yul\":1094:1107   */\n  lt\n    /* \"#utility.yul\":1090:1126   */\n  and\n    /* \"#utility.yul\":1084:1086   */\n  0x4e\n    /* \"#utility.yul\":1074:1082   */\n  dup5\n    /* \"#utility.yul\":1071:1087   */\n  lt\n    /* \"#utility.yul\":1066:1068   */\n  0x0b\n    /* \"#utility.yul\":1060:1064   */\n  dup5\n    /* \"#utility.yul\":1057:1069   */\n  lt\n    /* \"#utility.yul\":1053:1088   */\n  and\n    /* \"#utility.yul\":1050:1127   */\n  or\n    /* \"#utility.yul\":1047:1049   */\n  iszero\n  tag_44\n  jumpi\n  pop\n    /* \"#utility.yul\":1159:1178   */\n  dup2\n  dup2\n  exp\n    /* \"#utility.yul\":1191:1196   */\n  jump(tag_22)\n    /* \"#utility.yul\":1047:1049   */\ntag_44:\n    /* \"#utility.yul\":1238:1272   */\n  tag_45\n    /* \"#utility.yul\":1263:1271   */\n  dup4\n    /* \"#utility.yul\":1257:1261   */\n  dup4\n    /* \"#utility.yul\":1238:1272   */\n  tag_24\n  jump\t// in\ntag_45:\n    /* \"#utility.yul\":1308:1314   */\n  dup1\n    /* \"#utility.yul\":1304:1305   */\n  0x00\n    /* \"#utility.yul\":1300:1306   */\n  not\n    /* \"#utility.yul\":1296:1315   */\n  div\n    /* \"#utility.yul\":1287:1294   */\n  dup3\n    /* \"#utility.yul\":1284:1316   */\n  gt\n    /* \"#utility.yul\":1281:1283   */\n  iszero\n  tag_47\n  jumpi\n    /* \"#utility.yul\":1319:1337   */\n  tag_47\n  tag_31\n  jump\t// in\ntag_47:\n    /* \"#utility.yul\":1357:1377   */\n  mul\n  swap4\n    /* \"#utility.yul\":636:1383   */\n  swap3\n  pop\n  pop\n  pop\n  jump\t// out\n    /* \"#utility.yul\":1388:1515   */\ntag_31:\n    /* \"#utility.yul\":1449:1459   */\n  0x4e487b71\n    /* \"#utility.yul\":1444:1447   */\n  0xe0\n    /* \"#utility.yul\":1440:1460   */\n  shl\n    /* \"#utility.yul\":1437:1438   */\n  0x00\n    /* \"#utility.yul\":1430:1461   */\n  mstore\n    /* \"#utility.yul\":1480:1484   */\n  0x11\n    /* \"#utility.yul\":1477:1478   */\n  0x04\n    /* \"#utility.yul\":1470:1485   */\n  mstore\n    /* \"#utility.yul\":1504:1508   */\n  0x24\n    /* \"#utility.yul\":1501:1502   */\n  0x00\n    /* \"#utility.yul\":1494:1509   */\n  revert\n    /* \"#utility.yul\":1420:1515   */\ntag_23:\n    /* \"contracts/Arcade.sol\":179:10610  contract Arcade is AccessControl {... */\n  dataSize(sub_0)\n  dup1\n  dataOffset(sub_0)\n  0x00\n  codecopy\n  0x00\n  return\nstop\n\nsub_0: assembly {\n        /* \"contracts/Arcade.sol\":179:10610  contract Arcade is AccessControl {... */\n      mstore(0x40, 0x80)\n      callvalue\n      dup1\n      iszero\n      tag_1\n      jumpi\n      0x00\n      dup1\n      revert\n    tag_1:\n      pop\n      jumpi(tag_2, lt(calldatasize, 0x04))\n      shr(0xe0, calldataload(0x00))\n      dup1\n      0x91d14854\n      gt\n      tag_33\n      jumpi\n      dup1\n      0xb9888d89\n      gt\n      tag_34\n      jumpi\n      dup1\n      0xd547741f\n      gt\n      tag_35\n      jumpi\n      dup1\n      0xd547741f\n      eq\n      tag_29\n      jumpi\n      dup1\n      0xe6f091f9\n      eq\n      tag_30\n      jumpi\n      dup1\n      0xf207564e\n      eq\n      tag_31\n      jumpi\n      dup1\n      0xf336ee3c\n      eq\n      tag_32\n      jumpi\n      0x00\n      dup1\n      revert\n    tag_35:\n      dup1\n      0xb9888d89\n      eq\n      tag_25\n      jumpi\n      dup1\n      0xc18e397e\n      eq\n      tag_26\n      jumpi\n      dup1\n      0xc46ed45a\n      eq\n      tag_27\n      jumpi\n      dup1\n      0xccaf237f\n      eq\n      tag_28\n      jumpi\n      0x00\n      dup1\n      revert\n    tag_34:\n      dup1\n      0x9d00c61e\n      gt\n      tag_36\n      jumpi\n      dup1\n      0x9d00c61e\n      eq\n      tag_21\n      jumpi\n      dup1\n      0x9f512e22\n      eq\n      tag_22\n      jumpi\n      dup1\n      0xa217fddf\n      eq\n      tag_23\n      jumpi\n      dup1\n      0xb22c376d\n      eq\n      tag_24\n      jumpi\n      0x00\n      dup1\n      revert\n    tag_36:\n      dup1\n      0x91d14854\n      eq\n      tag_18\n      jumpi\n      dup1\n      0x99597b70\n      eq\n      tag_19\n      jumpi\n      dup1\n      0x9c623683\n      eq\n      tag_20\n      jumpi\n      0x00\n      dup1\n      revert\n    tag_33:\n      dup1\n      0x2ba67100\n      gt\n      tag_37\n      jumpi\n      dup1\n      0x36568abe\n      gt\n      tag_38\n      jumpi\n      dup1\n      0x36568abe\n      eq\n      tag_14\n      jumpi\n      dup1\n      0x3e16518f\n      eq\n      tag_15\n      jumpi\n      dup1\n      0x7ad226dc\n      eq\n      tag_16\n      jumpi\n      dup1\n      0x8da5cb5b\n      eq\n      tag_17\n      jumpi\n      0x00\n      dup1\n      revert\n    tag_38:\n      dup1\n      0x2ba67100\n      eq\n      tag_10\n      jumpi\n      dup1\n      0x2d6ef310\n      eq\n      tag_11\n      jumpi\n      dup1\n      0x2f2ff15d\n      eq\n      tag_12\n      jumpi\n      dup1\n      0x313ce567\n      eq\n      tag_13\n      jumpi\n      0x00\n      dup1\n      revert\n    tag_37:\n      dup1\n      0x09a18635\n      gt\n      tag_39\n      jumpi\n      dup1\n      0x09a18635\n      eq\n      tag_6\n      jumpi\n      dup1\n      0x248a55a1\n      eq\n      tag_7\n      jumpi\n      dup1\n      0x248a9ca3\n      eq\n      tag_8\n      jumpi\n      dup1\n      0x2ac5016f\n      eq\n      tag_9\n      jumpi\n      0x00\n      dup1\n      revert\n    tag_39:\n      dup1\n      0xf5544f\n      eq\n      tag_3\n      jumpi\n      dup1\n      0x01ffc9a7\n      eq\n      tag_4\n      jumpi\n      dup1\n      0x06602a48\n      eq\n      tag_5\n      jumpi\n    tag_2:\n      0x00\n      dup1\n      revert\n        /* \"contracts/Arcade.sol\":7190:7332  function openGame(uint256 game_id) public onlyRole(GAME_MASTER) {... */\n    tag_3:\n      tag_40\n      tag_41\n      calldatasize\n      0x04\n      tag_63\n      jump\t// in\n    tag_41:\n      tag_43\n      jump\t// in\n    tag_40:\n      stop\n        /* \"contracts/access/AccessControl.sol\":2606:2808  function supportsInterface(bytes4 interfaceId) public view virtual override returns (bool) {... */\n    tag_4:\n      tag_44\n      tag_45\n      calldatasize\n      0x04\n      tag_46\n      jump\t// in\n    tag_45:\n      tag_47\n      jump\t// in\n    tag_44:\n      mload(0x40)\n        /* \"#utility.yul\":5212:5226   */\n      swap1\n      iszero\n        /* \"#utility.yul\":5205:5227   */\n      iszero\n        /* \"#utility.yul\":5187:5228   */\n      dup2\n      mstore\n        /* \"#utility.yul\":5175:5177   */\n      0x20\n        /* \"#utility.yul\":5160:5178   */\n      add\n        /* \"contracts/access/AccessControl.sol\":2606:2808  function supportsInterface(bytes4 interfaceId) public view virtual override returns (bool) {... */\n    tag_48:\n      mload(0x40)\n      dup1\n      swap2\n      sub\n      swap1\n      return\n        /* \"contracts/Arcade.sol\":4520:5102  function addArcadeToken(address token_address, uint256 redemption_rate, bool _active) public onlyRole(ARCADE_MANAGER) {... */\n    tag_5:\n      tag_40\n      tag_51\n      calldatasize\n      0x04\n      tag_52\n      jump\t// in\n    tag_51:\n      tag_53\n      jump\t// in\n        /* \"contracts/Arcade.sol\":3502:3874  function reconcile(address arcade_token) public onlyRole(DEFAULT_ADMIN_ROLE) {... */\n    tag_6:\n      tag_40\n      tag_55\n      calldatasize\n      0x04\n      tag_56\n      jump\t// in\n    tag_55:\n      tag_57\n      jump\t// in\n        /* \"contracts/Arcade.sol\":6669:6811  function deleteGame(uint256 game_id) public onlyRole(GAME_MASTER) {... */\n    tag_7:\n      tag_40\n      tag_59\n      calldatasize\n      0x04\n      tag_63\n      jump\t// in\n    tag_59:\n      tag_60\n      jump\t// in\n        /* \"contracts/access/AccessControl.sol\":4391:4520  function getRoleAdmin(bytes32 role) public view virtual override returns (bytes32) {... */\n    tag_8:\n      tag_61\n      tag_62\n      calldatasize\n      0x04\n      tag_63\n      jump\t// in\n    tag_62:\n        /* \"contracts/access/AccessControl.sol\":4465:4472  bytes32 */\n      0x00\n        /* \"contracts/access/AccessControl.sol\":4491:4503  _roles[role] */\n      swap1\n      dup2\n      mstore\n      0x20\n      dup2\n      swap1\n      mstore\n      0x40\n      swap1\n      keccak256\n        /* \"contracts/access/AccessControl.sol\":4491:4513  _roles[role].adminRole */\n      0x01\n      add\n      sload\n      swap1\n        /* \"contracts/access/AccessControl.sol\":4391:4520  function getRoleAdmin(bytes32 role) public view virtual override returns (bytes32) {... */\n      jump\n    tag_61:\n      mload(0x40)\n        /* \"#utility.yul\":6296:6321   */\n      swap1\n      dup2\n      mstore\n        /* \"#utility.yul\":6284:6286   */\n      0x20\n        /* \"#utility.yul\":6269:6287   */\n      add\n        /* \"contracts/access/AccessControl.sol\":4391:4520  function getRoleAdmin(bytes32 role) public view virtual override returns (bytes32) {... */\n      tag_48\n        /* \"#utility.yul\":6251:6327   */\n      jump\n        /* \"contracts/Arcade.sol\":4039:4167  function setArcadeFeePercentage(uint256 percentage) public onlyRole(ARCADE_MANAGER) {... */\n    tag_9:\n      tag_40\n      tag_68\n      calldatasize\n      0x04\n      tag_63\n      jump\t// in\n    tag_68:\n      tag_69\n      jump\t// in\n        /* \"contracts/Arcade.sol\":8890:9062  function removePlayer(uint256 game_id, address player) public onlyRole(GAME_MASTER) {... */\n    tag_10:\n      tag_40\n      tag_71\n      calldatasize\n      0x04\n      tag_79\n      jump\t// in\n    tag_71:\n      tag_73\n      jump\t// in\n        /* \"contracts/Arcade.sol\":5564:5708  function closeGame(uint256 game_id) public onlyRole(GAME_MASTER) {... */\n    tag_11:\n      tag_40\n      tag_75\n      calldatasize\n      0x04\n      tag_63\n      jump\t// in\n    tag_75:\n      tag_76\n      jump\t// in\n        /* \"contracts/access/AccessControl.sol\":4770:4915  function grantRole(bytes32 role, address account) public virtual override onlyRole(getRoleAdmin(role)) {... */\n    tag_12:\n      tag_40\n      tag_78\n      calldatasize\n      0x04\n      tag_79\n      jump\t// in\n    tag_78:\n      tag_80\n      jump\t// in\n        /* \"contracts/Arcade.sol\":1396:1424  uint256 public decimals = 18 */\n    tag_13:\n      tag_61\n      sload(0x03)\n      dup2\n      jump\n        /* \"contracts/access/AccessControl.sol\":5787:6001  function renounceRole(bytes32 role, address account) public virtual override {... */\n    tag_14:\n      tag_40\n      tag_86\n      calldatasize\n      0x04\n      tag_79\n      jump\t// in\n    tag_86:\n      tag_87\n      jump\t// in\n        /* \"contracts/Arcade.sol\":5264:5413  function removeArcadeToken(address token_address) public onlyRole(ARCADE_MANAGER) {... */\n    tag_15:\n      tag_40\n      tag_89\n      calldatasize\n      0x04\n      tag_56\n      jump\t// in\n    tag_89:\n      tag_90\n      jump\t// in\n        /* \"contracts/Arcade.sol\":8044:8723  function refund(uint256 game_id, address player) public onlyRole(GAME_MASTER) {... */\n    tag_16:\n      tag_40\n      tag_92\n      calldatasize\n      0x04\n      tag_79\n      jump\t// in\n    tag_92:\n      tag_93\n      jump\t// in\n        /* \"contracts/Arcade.sol\":1520:1540  address public owner */\n    tag_17:\n      sload(0x06)\n      tag_94\n      swap1\n      sub(shl(0xa0, 0x01), 0x01)\n      and\n      dup2\n      jump\n    tag_94:\n      mload(0x40)\n      sub(shl(0xa0, 0x01), 0x01)\n        /* \"#utility.yul\":3980:4012   */\n      swap1\n      swap2\n      and\n        /* \"#utility.yul\":3962:4013   */\n      dup2\n      mstore\n        /* \"#utility.yul\":3950:3952   */\n      0x20\n        /* \"#utility.yul\":3935:3953   */\n      add\n        /* \"contracts/Arcade.sol\":1520:1540  address public owner */\n      tag_48\n        /* \"#utility.yul\":3917:4019   */\n      jump\n        /* \"contracts/access/AccessControl.sol\":2895:3040  function hasRole(bytes32 role, address account) public view virtual override returns (bool) {... */\n    tag_18:\n      tag_44\n      tag_99\n      calldatasize\n      0x04\n      tag_79\n      jump\t// in\n    tag_99:\n      tag_100\n      jump\t// in\n        /* \"contracts/Arcade.sol\":735:797  bytes32 public constant GAME_MASTER = keccak256(\"GAME_MASTER\") */\n    tag_19:\n      tag_61\n      0x00\n      dup1\n      mload\n      0x20\n      data_806db7640bcc104a4b7b53ebc0c09b63eefd92fe89197bc684d91aa66a17455c\n      dup4\n      codecopy\n      dup2\n      mload\n      swap2\n      mstore\n      dup2\n      jump\n        /* \"contracts/Arcade.sol\":9268:10208  function setWinner(uint256 game_id, address winner) public onlyRole(GAME_MASTER) {... */\n    tag_20:\n      tag_40\n      tag_106\n      calldatasize\n      0x04\n      tag_79\n      jump\t// in\n    tag_106:\n      tag_107\n      jump\t// in\n        /* \"contracts/Arcade.sol\":1866:2067  function arcadeToken(address token_address) public view returns (bool, uint256) {... */\n    tag_21:\n      tag_108\n      tag_109\n      calldatasize\n      0x04\n      tag_56\n      jump\t// in\n    tag_109:\n      sub(shl(0xa0, 0x01), 0x01)\n        /* \"contracts/Arcade.sol\":1964:1999  acceptedArcadeTokens[token_address] */\n      and\n        /* \"contracts/Arcade.sol\":1931:1935  bool */\n      0x00\n        /* \"contracts/Arcade.sol\":1964:1999  acceptedArcadeTokens[token_address] */\n      swap1\n      dup2\n      mstore\n        /* \"contracts/Arcade.sol\":1964:1984  acceptedArcadeTokens */\n      0x01\n        /* \"contracts/Arcade.sol\":1964:1999  acceptedArcadeTokens[token_address] */\n      0x20\n      dup2\n      swap1\n      mstore\n      0x40\n      swap1\n      swap2\n      keccak256\n        /* \"contracts/Arcade.sol\":1964:2006  acceptedArcadeTokens[token_address].active */\n      dup1\n      sload\n        /* \"contracts/Arcade.sol\":2008:2059  acceptedArcadeTokens[token_address].redemption_rate */\n      swap2\n      add\n      sload\n      shl(0xa0, 0x01)\n        /* \"contracts/Arcade.sol\":1964:2006  acceptedArcadeTokens[token_address].active */\n      swap1\n      swap2\n      div\n      0xff\n      and\n      swap2\n        /* \"contracts/Arcade.sol\":1866:2067  function arcadeToken(address token_address) public view returns (bool, uint256) {... */\n      jump\n    tag_108:\n      0x40\n      dup1\n      mload\n        /* \"#utility.yul\":5432:5446   */\n      swap3\n      iszero\n        /* \"#utility.yul\":5425:5447   */\n      iszero\n        /* \"#utility.yul\":5407:5448   */\n      dup4\n      mstore\n        /* \"#utility.yul\":5479:5481   */\n      0x20\n        /* \"#utility.yul\":5464:5482   */\n      dup4\n      add\n        /* \"#utility.yul\":5457:5491   */\n      swap2\n      swap1\n      swap2\n      mstore\n        /* \"#utility.yul\":5380:5398   */\n      add\n        /* \"contracts/Arcade.sol\":1866:2067  function arcadeToken(address token_address) public view returns (bool, uint256) {... */\n      tag_48\n        /* \"#utility.yul\":5362:5497   */\n      jump\n        /* \"contracts/Arcade.sol\":6895:7039  function leaveMatch(uint256 game_id) public {... */\n    tag_22:\n      tag_40\n      tag_114\n      calldatasize\n      0x04\n      tag_63\n      jump\t// in\n    tag_114:\n      tag_115\n      jump\t// in\n        /* \"contracts/access/AccessControl.sol\":2027:2076  bytes32 public constant DEFAULT_ADMIN_ROLE = 0x00 */\n    tag_23:\n      tag_61\n        /* \"contracts/access/AccessControl.sol\":2072:2076  0x00 */\n      0x00\n        /* \"contracts/access/AccessControl.sol\":2027:2076  bytes32 public constant DEFAULT_ADMIN_ROLE = 0x00 */\n      dup2\n      jump\n        /* \"contracts/Arcade.sol\":1279:1338  mapping(address => ArcadeToken) public acceptedArcadeTokens */\n    tag_24:\n      tag_119\n      tag_120\n      calldatasize\n      0x04\n      tag_56\n      jump\t// in\n    tag_120:\n      0x01\n      0x20\n      dup2\n      swap1\n      mstore\n      0x00\n      swap2\n      dup3\n      mstore\n      0x40\n      swap1\n      swap2\n      keccak256\n      dup1\n      sload\n      swap2\n      add\n      sload\n      sub(shl(0xa0, 0x01), 0x01)\n      dup3\n      and\n      swap2\n      shl(0xa0, 0x01)\n      swap1\n      div\n      0xff\n      and\n      swap1\n      dup4\n      jump\n    tag_119:\n      0x40\n      dup1\n      mload\n      sub(shl(0xa0, 0x01), 0x01)\n        /* \"#utility.yul\":6561:6593   */\n      swap1\n      swap5\n      and\n        /* \"#utility.yul\":6543:6594   */\n      dup5\n      mstore\n        /* \"#utility.yul\":6637:6651   */\n      swap2\n      iszero\n        /* \"#utility.yul\":6630:6652   */\n      iszero\n        /* \"#utility.yul\":6625:6627   */\n      0x20\n        /* \"#utility.yul\":6610:6628   */\n      dup5\n      add\n        /* \"#utility.yul\":6603:6653   */\n      mstore\n        /* \"#utility.yul\":6669:6687   */\n      swap1\n      dup3\n      add\n        /* \"#utility.yul\":6662:6696   */\n      mstore\n        /* \"#utility.yul\":6531:6533   */\n      0x60\n        /* \"#utility.yul\":6516:6534   */\n      add\n        /* \"contracts/Arcade.sol\":1279:1338  mapping(address => ArcadeToken) public acceptedArcadeTokens */\n      tag_48\n        /* \"#utility.yul\":6498:6702   */\n      jump\n        /* \"contracts/Arcade.sol\":7498:7772  function placePlayer(uint256 game_id, address player) public onlyRole(GAME_MASTER) {... */\n    tag_25:\n      tag_40\n      tag_125\n      calldatasize\n      0x04\n      tag_79\n      jump\t// in\n    tag_125:\n      tag_126\n      jump\t// in\n        /* \"contracts/Arcade.sol\":661:729  bytes32 public constant ARCADE_MANAGER = keccak256(\"ARCADE_MANAGER\") */\n    tag_26:\n      tag_61\n      0x00\n      dup1\n      mload\n      0x20\n      data_023264abf97b17654b97d38bd81099eb2064d5cca6dbd4e398ff8bdbab67b82d\n      dup4\n      codecopy\n      dup2\n      mload\n      swap2\n      mstore\n      dup2\n      jump\n        /* \"contracts/Arcade.sol\":1431:1460  uint256 public fee_percentage */\n    tag_27:\n      tag_61\n      sload(0x04)\n      dup2\n      jump\n        /* \"contracts/Arcade.sol\":1345:1389  mapping(uint256 => GameInfo) public gameData */\n    tag_28:\n      tag_133\n      tag_134\n      calldatasize\n      0x04\n      tag_63\n      jump\t// in\n    tag_134:\n      0x02\n      0x20\n      dup2\n      swap1\n      mstore\n      0x00\n      swap2\n      dup3\n      mstore\n      0x40\n      swap1\n      swap2\n      keccak256\n      dup1\n      sload\n      0x01\n      dup3\n      add\n      sload\n      swap3\n      dup3\n      add\n      sload\n      0x03\n      dup4\n      add\n      sload\n      0x04\n      dup5\n      add\n      sload\n      0x05\n      dup6\n      add\n      sload\n      0x06\n      swap1\n      swap6\n      add\n      sload\n      0xff\n      swap1\n      swap5\n      and\n      swap6\n      swap5\n      swap3\n      swap4\n      swap2\n      swap3\n      swap1\n      swap2\n      sub(shl(0xa0, 0x01), 0x01)\n      swap1\n      swap2\n      and\n      swap1\n      dup8\n      jump\n    tag_133:\n      0x40\n      dup1\n      mload\n        /* \"#utility.yul\":5836:5850   */\n      swap8\n      iszero\n        /* \"#utility.yul\":5829:5851   */\n      iszero\n        /* \"#utility.yul\":5811:5852   */\n      dup9\n      mstore\n        /* \"#utility.yul\":5883:5885   */\n      0x20\n        /* \"#utility.yul\":5868:5886   */\n      dup9\n      add\n        /* \"#utility.yul\":5861:5895   */\n      swap7\n      swap1\n      swap7\n      mstore\n        /* \"#utility.yul\":5911:5929   */\n      swap5\n      dup7\n      add\n        /* \"#utility.yul\":5904:5938   */\n      swap4\n      swap1\n      swap4\n      mstore\n        /* \"#utility.yul\":5969:5971   */\n      0x60\n        /* \"#utility.yul\":5954:5972   */\n      dup6\n      add\n        /* \"#utility.yul\":5947:5981   */\n      swap2\n      swap1\n      swap2\n      mstore\n        /* \"#utility.yul\":6012:6015   */\n      0x80\n        /* \"#utility.yul\":5997:6016   */\n      dup5\n      add\n        /* \"#utility.yul\":5990:6025   */\n      mstore\n      sub(shl(0xa0, 0x01), 0x01)\n        /* \"#utility.yul\":6062:6094   */\n      and\n        /* \"#utility.yul\":6082:6085   */\n      0xa0\n        /* \"#utility.yul\":6041:6060   */\n      dup4\n      add\n        /* \"#utility.yul\":6034:6095   */\n      mstore\n        /* \"#utility.yul\":6126:6129   */\n      0xc0\n        /* \"#utility.yul\":6111:6130   */\n      dup3\n      add\n        /* \"#utility.yul\":6104:6139   */\n      mstore\n        /* \"#utility.yul\":5798:5801   */\n      0xe0\n        /* \"#utility.yul\":5783:5802   */\n      add\n        /* \"contracts/Arcade.sol\":1345:1389  mapping(uint256 => GameInfo) public gameData */\n      tag_48\n        /* \"#utility.yul\":5765:6145   */\n      jump\n        /* \"contracts/access/AccessControl.sol\":5149:5296  function revokeRole(bytes32 role, address account) public virtual override onlyRole(getRoleAdmin(role)) {... */\n    tag_29:\n      tag_40\n      tag_139\n      calldatasize\n      0x04\n      tag_79\n      jump\t// in\n    tag_139:\n      tag_140\n      jump\t// in\n        /* \"contracts/Arcade.sol\":2156:2292  function isAccepted(address token_address) public view returns (bool) {... */\n    tag_30:\n      tag_44\n      tag_142\n      calldatasize\n      0x04\n      tag_56\n      jump\t// in\n    tag_142:\n      sub(shl(0xa0, 0x01), 0x01)\n        /* \"contracts/Arcade.sol\":2243:2278  acceptedArcadeTokens[token_address] */\n      and\n        /* \"contracts/Arcade.sol\":2220:2224  bool */\n      0x00\n        /* \"contracts/Arcade.sol\":2243:2278  acceptedArcadeTokens[token_address] */\n      swap1\n      dup2\n      mstore\n        /* \"contracts/Arcade.sol\":2243:2263  acceptedArcadeTokens */\n      0x01\n        /* \"contracts/Arcade.sol\":2243:2278  acceptedArcadeTokens[token_address] */\n      0x20\n      mstore\n      0x40\n      swap1\n      keccak256\n        /* \"contracts/Arcade.sol\":2243:2285  acceptedArcadeTokens[token_address].active */\n      sload\n      shl(0xa0, 0x01)\n      swap1\n      div\n      0xff\n      and\n      swap1\n        /* \"contracts/Arcade.sol\":2156:2292  function isAccepted(address token_address) public view returns (bool) {... */\n      jump\n        /* \"contracts/Arcade.sol\":2499:3344  function register(uint256 game_id) public {... */\n    tag_31:\n      tag_40\n      tag_146\n      calldatasize\n      0x04\n      tag_63\n      jump\t// in\n    tag_146:\n      tag_147\n      jump\t// in\n        /* \"contracts/Arcade.sol\":5974:6510  function createGame(uint256 game_id, uint256 registration_fee, address arcade_token, uint256 player_limit, bool exchange) public onlyRole(GAME_MASTER) {... */\n    tag_32:\n      tag_40\n      tag_149\n      calldatasize\n      0x04\n      tag_150\n      jump\t// in\n    tag_149:\n      tag_151\n      jump\t// in\n        /* \"contracts/Arcade.sol\":7190:7332  function openGame(uint256 game_id) public onlyRole(GAME_MASTER) {... */\n    tag_43:\n      0x00\n      dup1\n      mload\n      0x20\n      data_806db7640bcc104a4b7b53ebc0c09b63eefd92fe89197bc684d91aa66a17455c\n      dup4\n      codecopy\n      dup2\n      mload\n      swap2\n      mstore\n        /* \"contracts/access/AccessControl.sol\":2505:2521  _checkRole(role) */\n      tag_153\n        /* \"contracts/access/AccessControl.sol\":2516:2520  role */\n      dup2\n        /* \"contracts/access/AccessControl.sol\":2505:2515  _checkRole */\n      tag_154\n        /* \"contracts/access/AccessControl.sol\":2505:2521  _checkRole(role) */\n      jump\t// in\n    tag_153:\n        /* \"contracts/Arcade.sol\":7264:7281  gameData[game_id] */\n      0x00\n      dup3\n      dup2\n      mstore\n        /* \"contracts/Arcade.sol\":7264:7272  gameData */\n      0x02\n        /* \"contracts/Arcade.sol\":7264:7281  gameData[game_id] */\n      0x20\n      mstore\n      0x40\n      swap1\n      dup2\n      swap1\n      keccak256\n        /* \"contracts/Arcade.sol\":7291:7292  1 */\n      0x01\n        /* \"contracts/Arcade.sol\":7264:7288  gameData[game_id].status */\n      0x04\n      swap1\n      swap2\n      add\n        /* \"contracts/Arcade.sol\":7264:7292  gameData[game_id].status = 1 */\n      sstore\n        /* \"contracts/Arcade.sol\":7308:7325  OpenGame(game_id) */\n      mload\n      0x651a9760985edc53055bf2462cb4437b9be3de87aa3eecf2c05782e8b58eba19\n      swap1\n      tag_156\n      swap1\n        /* \"contracts/Arcade.sol\":7273:7280  game_id */\n      dup5\n        /* \"#utility.yul\":6296:6321   */\n      dup2\n      mstore\n        /* \"#utility.yul\":6284:6286   */\n      0x20\n        /* \"#utility.yul\":6269:6287   */\n      add\n      swap1\n        /* \"#utility.yul\":6251:6327   */\n      jump\n        /* \"contracts/Arcade.sol\":7308:7325  OpenGame(game_id) */\n    tag_156:\n      mload(0x40)\n      dup1\n      swap2\n      sub\n      swap1\n      log1\n        /* \"contracts/Arcade.sol\":7190:7332  function openGame(uint256 game_id) public onlyRole(GAME_MASTER) {... */\n      pop\n      pop\n      jump\t// out\n        /* \"contracts/access/AccessControl.sol\":2606:2808  function supportsInterface(bytes4 interfaceId) public view virtual override returns (bool) {... */\n    tag_47:\n        /* \"contracts/access/AccessControl.sol\":2691:2695  bool */\n      0x00\n      not(sub(shl(0xe0, 0x01), 0x01))\n        /* \"contracts/access/AccessControl.sol\":2714:2761  interfaceId == type(IAccessControl).interfaceId */\n      dup3\n      and\n      shl(0xe0, 0x7965db0b)\n      eq\n      dup1\n        /* \"contracts/access/AccessControl.sol\":2714:2801  interfaceId == type(IAccessControl).interfaceId || super.supportsInterface(interfaceId) */\n      tag_159\n      jumpi\n      pop\n      shl(0xe0, 0x01ffc9a7)\n      not(sub(shl(0xe0, 0x01), 0x01))\n        /* \"contracts/utils/introspection/ERC165.sol\":937:977  interfaceId == type(IERC165).interfaceId */\n      dup4\n      and\n      eq\n        /* \"contracts/access/AccessControl.sol\":2765:2801  super.supportsInterface(interfaceId) */\n    tag_159:\n        /* \"contracts/access/AccessControl.sol\":2707:2801  return interfaceId == type(IAccessControl).interfaceId || super.supportsInterface(interfaceId) */\n      swap3\n        /* \"contracts/access/AccessControl.sol\":2606:2808  function supportsInterface(bytes4 interfaceId) public view virtual override returns (bool) {... */\n      swap2\n      pop\n      pop\n      jump\t// out\n        /* \"contracts/Arcade.sol\":4520:5102  function addArcadeToken(address token_address, uint256 redemption_rate, bool _active) public onlyRole(ARCADE_MANAGER) {... */\n    tag_53:\n      0x00\n      dup1\n      mload\n      0x20\n      data_023264abf97b17654b97d38bd81099eb2064d5cca6dbd4e398ff8bdbab67b82d\n      dup4\n      codecopy\n      dup2\n      mload\n      swap2\n      mstore\n        /* \"contracts/access/AccessControl.sol\":2505:2521  _checkRole(role) */\n      tag_162\n        /* \"contracts/access/AccessControl.sol\":2516:2520  role */\n      dup2\n        /* \"contracts/access/AccessControl.sol\":2505:2515  _checkRole */\n      tag_154\n        /* \"contracts/access/AccessControl.sol\":2505:2521  _checkRole(role) */\n      jump\t// in\n    tag_162:\n      sub(shl(0xa0, 0x01), 0x01)\n        /* \"contracts/Arcade.sol\":4648:4683  acceptedArcadeTokens[token_address] */\n      dup5\n      and\n      0x00\n      dup2\n      dup2\n      mstore\n        /* \"contracts/Arcade.sol\":4648:4668  acceptedArcadeTokens */\n      0x01\n        /* \"contracts/Arcade.sol\":4648:4683  acceptedArcadeTokens[token_address] */\n      0x20\n      dup2\n      swap1\n      mstore\n      0x40\n      swap1\n      swap2\n      keccak256\n        /* \"contracts/Arcade.sol\":4648:4699  acceptedArcadeTokens[token_address].redemption_rate */\n      swap1\n      dup2\n      add\n        /* \"contracts/Arcade.sol\":4648:4717  acceptedArcadeTokens[token_address].redemption_rate = redemption_rate */\n      dup6\n      swap1\n      sstore\n        /* \"contracts/Arcade.sol\":4727:4779  acceptedArcadeTokens[token_address].active = _active */\n      dup1\n      sload\n      not(sub(shl(0xa8, 0x01), 0x01))\n        /* \"contracts/Arcade.sol\":4855:4935  acceptedArcadeTokens[token_address].native_token = IERC20(payable_token_address) */\n      and\n      shl(0xa0, 0x01)\n        /* \"contracts/Arcade.sol\":4727:4779  acceptedArcadeTokens[token_address].active = _active */\n      dup6\n      iszero\n      iszero\n      mul\n      not(sub(shl(0xa0, 0x01), 0x01))\n        /* \"contracts/Arcade.sol\":4855:4935  acceptedArcadeTokens[token_address].native_token = IERC20(payable_token_address) */\n      and\n      or\n      dup3\n      or\n      swap1\n      sstore\n        /* \"contracts/Arcade.sol\":4648:4683  acceptedArcadeTokens[token_address] */\n      dup5\n      swap1\n        /* \"contracts/Arcade.sol\":4945:5001  acceptedArcadeTokens[token_address].native_token.approve */\n      0x095ea7b3\n        /* \"contracts/utils/Context.sol\":719:729  msg.sender */\n      caller\n        /* \"contracts/Arcade.sol\":4945:5095  acceptedArcadeTokens[token_address].native_token.approve(_msgSender(), 115792089237316195423570985008687907853269984665640564039457584007913129639935) */\n      mload(0x40)\n      not(sub(shl(0xe0, 0x01), 0x01))\n      0xe0\n      dup5\n      swap1\n      shl\n      and\n      dup2\n      mstore\n      sub(shl(0xa0, 0x01), 0x01)\n        /* \"#utility.yul\":4681:4713   */\n      swap1\n      swap2\n      and\n        /* \"contracts/Arcade.sol\":4945:5095  acceptedArcadeTokens[token_address].native_token.approve(_msgSender(), 115792089237316195423570985008687907853269984665640564039457584007913129639935) */\n      0x04\n      dup3\n      add\n        /* \"#utility.yul\":4663:4714   */\n      mstore\n      not(0x00)\n        /* \"#utility.yul\":4730:4748   */\n      0x24\n      dup3\n      add\n        /* \"#utility.yul\":4723:4757   */\n      mstore\n        /* \"#utility.yul\":4636:4654   */\n      0x44\n      add\n        /* \"contracts/Arcade.sol\":4945:5095  acceptedArcadeTokens[token_address].native_token.approve(_msgSender(), 115792089237316195423570985008687907853269984665640564039457584007913129639935) */\n      0x20\n      mload(0x40)\n      dup1\n      dup4\n      sub\n      dup2\n      0x00\n      dup8\n      dup1\n      extcodesize\n      iszero\n      dup1\n      iszero\n      tag_168\n      jumpi\n      0x00\n      dup1\n      revert\n    tag_168:\n      pop\n      gas\n      call\n      iszero\n      dup1\n      iszero\n      tag_170\n      jumpi\n      returndatasize\n      0x00\n      dup1\n      returndatacopy\n      revert(0x00, returndatasize)\n    tag_170:\n      pop\n      pop\n      pop\n      pop\n      mload(0x40)\n      returndatasize\n      not(0x1f)\n      0x1f\n      dup3\n      add\n      and\n      dup3\n      add\n      dup1\n      0x40\n      mstore\n      pop\n      dup2\n      add\n      swap1\n      tag_171\n      swap2\n      swap1\n      tag_172\n      jump\t// in\n    tag_171:\n      pop\n        /* \"contracts/access/AccessControl.sol\":2531:2532  _ */\n      pop\n        /* \"contracts/Arcade.sol\":4520:5102  function addArcadeToken(address token_address, uint256 redemption_rate, bool _active) public onlyRole(ARCADE_MANAGER) {... */\n      pop\n      pop\n      pop\n      pop\n      jump\t// out\n        /* \"contracts/Arcade.sol\":3502:3874  function reconcile(address arcade_token) public onlyRole(DEFAULT_ADMIN_ROLE) {... */\n    tag_57:\n        /* \"contracts/access/AccessControl.sol\":2072:2076  0x00 */\n      0x00\n        /* \"contracts/access/AccessControl.sol\":2505:2521  _checkRole(role) */\n      tag_174\n        /* \"contracts/access/AccessControl.sol\":2072:2076  0x00 */\n      dup2\n        /* \"contracts/access/AccessControl.sol\":2505:2515  _checkRole */\n      tag_154\n        /* \"contracts/access/AccessControl.sol\":2505:2521  _checkRole(role) */\n      jump\t// in\n    tag_174:\n      sub(shl(0xa0, 0x01), 0x01)\n        /* \"contracts/Arcade.sol\":3607:3641  acceptedArcadeTokens[arcade_token] */\n      dup3\n      dup2\n      and\n        /* \"contracts/Arcade.sol\":3589:3604  uint256 balance */\n      0x00\n        /* \"contracts/Arcade.sol\":3607:3641  acceptedArcadeTokens[arcade_token] */\n      swap1\n      dup2\n      mstore\n        /* \"contracts/Arcade.sol\":3607:3627  acceptedArcadeTokens */\n      0x01\n        /* \"contracts/Arcade.sol\":3607:3641  acceptedArcadeTokens[arcade_token] */\n      0x20\n      mstore\n      0x40\n      dup1\n      dup3\n      keccak256\n        /* \"contracts/Arcade.sol\":3607:3654  acceptedArcadeTokens[arcade_token].native_token */\n      sload\n        /* \"contracts/Arcade.sol\":3607:3679  acceptedArcadeTokens[arcade_token].native_token.balanceOf(address(this)) */\n      swap1\n      mload\n      shl(0xe0, 0x70a08231)\n      dup2\n      mstore\n        /* \"contracts/Arcade.sol\":3673:3677  this */\n      address\n        /* \"contracts/Arcade.sol\":3607:3679  acceptedArcadeTokens[arcade_token].native_token.balanceOf(address(this)) */\n      0x04\n      dup3\n      add\n        /* \"#utility.yul\":3962:4013   */\n      mstore\n        /* \"contracts/Arcade.sol\":3589:3604  uint256 balance */\n      swap2\n      swap3\n        /* \"contracts/Arcade.sol\":3607:3654  acceptedArcadeTokens[arcade_token].native_token */\n      and\n      swap1\n        /* \"contracts/Arcade.sol\":3607:3664  acceptedArcadeTokens[arcade_token].native_token.balanceOf */\n      0x70a08231\n      swap1\n        /* \"#utility.yul\":3935:3953   */\n      0x24\n      add\n        /* \"contracts/Arcade.sol\":3607:3679  acceptedArcadeTokens[arcade_token].native_token.balanceOf(address(this)) */\n      0x20\n      mload(0x40)\n      dup1\n      dup4\n      sub\n      dup2\n      dup7\n      dup1\n      extcodesize\n      iszero\n      dup1\n      iszero\n      tag_177\n      jumpi\n      0x00\n      dup1\n      revert\n    tag_177:\n      pop\n      gas\n      staticcall\n      iszero\n      dup1\n      iszero\n      tag_179\n      jumpi\n      returndatasize\n      0x00\n      dup1\n      returndatacopy\n      revert(0x00, returndatasize)\n    tag_179:\n      pop\n      pop\n      pop\n      pop\n      mload(0x40)\n      returndatasize\n      not(0x1f)\n      0x1f\n      dup3\n      add\n      and\n      dup3\n      add\n      dup1\n      0x40\n      mstore\n      pop\n      dup2\n      add\n      swap1\n      tag_180\n      swap2\n      swap1\n      tag_181\n      jump\t// in\n    tag_180:\n        /* \"contracts/Arcade.sol\":3589:3679  uint256 balance = acceptedArcadeTokens[arcade_token].native_token.balanceOf(address(this)) */\n      swap1\n      pop\n        /* \"contracts/Arcade.sol\":3694:3705  balance > 0 */\n      dup1\n      iszero\n        /* \"contracts/Arcade.sol\":3690:3868  if (balance > 0) {... */\n      tag_190\n      jumpi\n      sub(shl(0xa0, 0x01), 0x01)\n        /* \"contracts/Arcade.sol\":3729:3765  acceptedArcadeTokens[(arcade_token)] */\n      dup4\n      dup2\n      and\n      0x00\n      swap1\n      dup2\n      mstore\n        /* \"contracts/Arcade.sol\":3729:3749  acceptedArcadeTokens */\n      0x01\n        /* \"contracts/Arcade.sol\":3729:3765  acceptedArcadeTokens[(arcade_token)] */\n      0x20\n      mstore\n      0x40\n      swap1\n      keccak256\n        /* \"contracts/Arcade.sol\":3729:3778  acceptedArcadeTokens[(arcade_token)].native_token */\n      sload\n      and\n        /* \"contracts/Arcade.sol\":3729:3787  acceptedArcadeTokens[(arcade_token)].native_token.transfer */\n      0xa9059cbb\n        /* \"contracts/utils/Context.sol\":719:729  msg.sender */\n      caller\n        /* \"contracts/Arcade.sol\":3729:3810  acceptedArcadeTokens[(arcade_token)].native_token.transfer(_msgSender(), balance) */\n      mload(0x40)\n      not(sub(shl(0xe0, 0x01), 0x01))\n      0xe0\n      dup5\n      swap1\n      shl\n      and\n      dup2\n      mstore\n      sub(shl(0xa0, 0x01), 0x01)\n        /* \"#utility.yul\":4681:4713   */\n      swap1\n      swap2\n      and\n        /* \"contracts/Arcade.sol\":3729:3810  acceptedArcadeTokens[(arcade_token)].native_token.transfer(_msgSender(), balance) */\n      0x04\n      dup3\n      add\n        /* \"#utility.yul\":4663:4714   */\n      mstore\n        /* \"#utility.yul\":4730:4748   */\n      0x24\n      dup2\n      add\n        /* \"#utility.yul\":4723:4757   */\n      dup5\n      swap1\n      mstore\n        /* \"#utility.yul\":4636:4654   */\n      0x44\n      add\n        /* \"contracts/Arcade.sol\":3729:3810  acceptedArcadeTokens[(arcade_token)].native_token.transfer(_msgSender(), balance) */\n      0x20\n      mload(0x40)\n      dup1\n      dup4\n      sub\n      dup2\n      0x00\n      dup8\n      dup1\n      extcodesize\n      iszero\n      dup1\n      iszero\n      tag_186\n      jumpi\n      0x00\n      dup1\n      revert\n    tag_186:\n      pop\n      gas\n      call\n      iszero\n      dup1\n      iszero\n      tag_188\n      jumpi\n      returndatasize\n      0x00\n      dup1\n      returndatacopy\n      revert(0x00, returndatasize)\n    tag_188:\n      pop\n      pop\n      pop\n      pop\n      mload(0x40)\n      returndatasize\n      not(0x1f)\n      0x1f\n      dup3\n      add\n      and\n      dup3\n      add\n      dup1\n      0x40\n      mstore\n      pop\n      dup2\n      add\n      swap1\n      tag_189\n      swap2\n      swap1\n      tag_172\n      jump\t// in\n    tag_189:\n        /* \"contracts/Arcade.sol\":3721:3857  require(acceptedArcadeTokens[(arcade_token)].native_token.transfer(_msgSender(), balance), \"Trophy King Arcade: Reconciliation failed.\") */\n      tag_190\n      jumpi\n      mload(0x40)\n      shl(0xe5, 0x461bcd)\n      dup2\n      mstore\n        /* \"#utility.yul\":10885:10887   */\n      0x20\n        /* \"contracts/Arcade.sol\":3721:3857  require(acceptedArcadeTokens[(arcade_token)].native_token.transfer(_msgSender(), balance), \"Trophy King Arcade: Reconciliation failed.\") */\n      0x04\n      dup3\n      add\n        /* \"#utility.yul\":10867:10888   */\n      mstore\n        /* \"#utility.yul\":10924:10926   */\n      0x2a\n        /* \"#utility.yul\":10904:10922   */\n      0x24\n      dup3\n      add\n        /* \"#utility.yul\":10897:10927   */\n      mstore\n        /* \"#utility.yul\":10963:10997   */\n      0x54726f706879204b696e67204172636164653a205265636f6e63696c69617469\n        /* \"#utility.yul\":10943:10961   */\n      0x44\n      dup3\n      add\n        /* \"#utility.yul\":10936:10998   */\n      mstore\n      shl(0xb1, 0x37b7103330b4b632b217)\n        /* \"#utility.yul\":11014:11032   */\n      0x64\n      dup3\n      add\n        /* \"#utility.yul\":11007:11047   */\n      mstore\n        /* \"#utility.yul\":11064:11083   */\n      0x84\n      add\n        /* \"contracts/Arcade.sol\":3721:3857  require(acceptedArcadeTokens[(arcade_token)].native_token.transfer(_msgSender(), balance), \"Trophy King Arcade: Reconciliation failed.\") */\n    tag_191:\n      mload(0x40)\n      dup1\n      swap2\n      sub\n      swap1\n      revert\n    tag_190:\n        /* \"contracts/access/AccessControl.sol\":2531:2532  _ */\n      pop\n        /* \"contracts/Arcade.sol\":3502:3874  function reconcile(address arcade_token) public onlyRole(DEFAULT_ADMIN_ROLE) {... */\n      pop\n      pop\n      jump\t// out\n        /* \"contracts/Arcade.sol\":6669:6811  function deleteGame(uint256 game_id) public onlyRole(GAME_MASTER) {... */\n    tag_60:\n      0x00\n      dup1\n      mload\n      0x20\n      data_806db7640bcc104a4b7b53ebc0c09b63eefd92fe89197bc684d91aa66a17455c\n      dup4\n      codecopy\n      dup2\n      mload\n      swap2\n      mstore\n        /* \"contracts/access/AccessControl.sol\":2505:2521  _checkRole(role) */\n      tag_194\n        /* \"contracts/access/AccessControl.sol\":2516:2520  role */\n      dup2\n        /* \"contracts/access/AccessControl.sol\":2505:2515  _checkRole */\n      tag_154\n        /* \"contracts/access/AccessControl.sol\":2505:2521  _checkRole(role) */\n      jump\t// in\n    tag_194:\n        /* \"contracts/Arcade.sol\":6752:6769  gameData[game_id] */\n      0x00\n      dup3\n      dup2\n      mstore\n        /* \"contracts/Arcade.sol\":6752:6760  gameData */\n      0x02\n        /* \"contracts/Arcade.sol\":6752:6769  gameData[game_id] */\n      0x20\n      dup2\n      dup2\n      mstore\n      0x40\n      dup1\n      dup5\n      keccak256\n        /* \"contracts/Arcade.sol\":6745:6769  delete gameData[game_id] */\n      dup1\n      sload\n      not(0xff)\n      and\n      dup2\n      sstore\n      0x01\n      dup2\n      add\n      dup6\n      swap1\n      sstore\n      swap3\n      dup4\n      add\n      dup5\n      swap1\n      sstore\n      0x03\n      dup4\n      add\n      dup5\n      swap1\n      sstore\n      0x04\n      dup4\n      add\n      dup5\n      swap1\n      sstore\n      0x05\n      dup4\n      add\n      dup1\n      sload\n      not(sub(shl(0xa0, 0x01), 0x01))\n      and\n      swap1\n      sstore\n      0x06\n      swap1\n      swap3\n      add\n      swap3\n      swap1\n      swap3\n      sstore\n        /* \"contracts/Arcade.sol\":6785:6804  DeleteGame(game_id) */\n      mload\n        /* \"#utility.yul\":6296:6321   */\n      dup4\n      dup2\n      mstore\n        /* \"contracts/Arcade.sol\":6785:6804  DeleteGame(game_id) */\n      0xd0b153e02e23f4f21d020465b4dac7b1114893d05db395ed2511f879c3ac90b4\n      swap2\n        /* \"#utility.yul\":6269:6287   */\n      add\n        /* \"contracts/Arcade.sol\":6785:6804  DeleteGame(game_id) */\n      tag_156\n        /* \"#utility.yul\":6251:6327   */\n      jump\n        /* \"contracts/Arcade.sol\":4039:4167  function setArcadeFeePercentage(uint256 percentage) public onlyRole(ARCADE_MANAGER) {... */\n    tag_69:\n      0x00\n      dup1\n      mload\n      0x20\n      data_023264abf97b17654b97d38bd81099eb2064d5cca6dbd4e398ff8bdbab67b82d\n      dup4\n      codecopy\n      dup2\n      mload\n      swap2\n      mstore\n        /* \"contracts/access/AccessControl.sol\":2505:2521  _checkRole(role) */\n      tag_199\n        /* \"contracts/access/AccessControl.sol\":2516:2520  role */\n      dup2\n        /* \"contracts/access/AccessControl.sol\":2505:2515  _checkRole */\n      tag_154\n        /* \"contracts/access/AccessControl.sol\":2505:2521  _checkRole(role) */\n      jump\t// in\n    tag_199:\n      pop\n        /* \"contracts/Arcade.sol\":4133:4147  fee_percentage */\n      0x04\n        /* \"contracts/Arcade.sol\":4133:4160  fee_percentage = percentage */\n      sstore\n        /* \"contracts/Arcade.sol\":4039:4167  function setArcadeFeePercentage(uint256 percentage) public onlyRole(ARCADE_MANAGER) {... */\n      jump\t// out\n        /* \"contracts/Arcade.sol\":8890:9062  function removePlayer(uint256 game_id, address player) public onlyRole(GAME_MASTER) {... */\n    tag_73:\n      0x00\n      dup1\n      mload\n      0x20\n      data_806db7640bcc104a4b7b53ebc0c09b63eefd92fe89197bc684d91aa66a17455c\n      dup4\n      codecopy\n      dup2\n      mload\n      swap2\n      mstore\n        /* \"contracts/access/AccessControl.sol\":2505:2521  _checkRole(role) */\n      tag_202\n        /* \"contracts/access/AccessControl.sol\":2516:2520  role */\n      dup2\n        /* \"contracts/access/AccessControl.sol\":2505:2515  _checkRole */\n      tag_154\n        /* \"contracts/access/AccessControl.sol\":2505:2521  _checkRole(role) */\n      jump\t// in\n    tag_202:\n        /* \"contracts/Arcade.sol\":9018:9019  0 */\n      0x00\n        /* \"contracts/Arcade.sol\":8984:9001  gameData[game_id] */\n      dup4\n      dup2\n      mstore\n        /* \"contracts/Arcade.sol\":8984:8992  gameData */\n      0x02\n        /* \"contracts/Arcade.sol\":8984:9001  gameData[game_id] */\n      0x20\n      swap1\n      dup2\n      mstore\n      0x40\n      dup1\n      dup4\n      keccak256\n      sub(shl(0xa0, 0x01), 0x01)\n        /* \"contracts/Arcade.sol\":8984:9015  gameData[game_id].seats[player] */\n      dup7\n      and\n      dup1\n      dup6\n      mstore\n        /* \"contracts/Arcade.sol\":8984:9007  gameData[game_id].seats */\n      0x09\n      swap1\n      swap2\n      add\n        /* \"contracts/Arcade.sol\":8984:9015  gameData[game_id].seats[player] */\n      dup4\n      mstore\n      dup2\n      dup5\n      keccak256\n        /* \"contracts/Arcade.sol\":8984:9019  gameData[game_id].seats[player] = 0 */\n      swap4\n      swap1\n      swap4\n      sstore\n        /* \"contracts/Arcade.sol\":9035:9055  RemovePlayer(player) */\n      mload\n        /* \"#utility.yul\":3962:4013   */\n      swap2\n      dup3\n      mstore\n        /* \"contracts/Arcade.sol\":9035:9055  RemovePlayer(player) */\n      0x34aeefd5030be05fe70eebc8866d82f935a308eb9f334cba88f5e3bea1a0cae8\n      swap2\n        /* \"#utility.yul\":3935:3953   */\n      add\n        /* \"contracts/Arcade.sol\":9035:9055  RemovePlayer(player) */\n    tag_204:\n      mload(0x40)\n      dup1\n      swap2\n      sub\n      swap1\n      log1\n        /* \"contracts/Arcade.sol\":8890:9062  function removePlayer(uint256 game_id, address player) public onlyRole(GAME_MASTER) {... */\n      pop\n      pop\n      pop\n      jump\t// out\n        /* \"contracts/Arcade.sol\":5564:5708  function closeGame(uint256 game_id) public onlyRole(GAME_MASTER) {... */\n    tag_76:\n      0x00\n      dup1\n      mload\n      0x20\n      data_806db7640bcc104a4b7b53ebc0c09b63eefd92fe89197bc684d91aa66a17455c\n      dup4\n      codecopy\n      dup2\n      mload\n      swap2\n      mstore\n        /* \"contracts/access/AccessControl.sol\":2505:2521  _checkRole(role) */\n      tag_206\n        /* \"contracts/access/AccessControl.sol\":2516:2520  role */\n      dup2\n        /* \"contracts/access/AccessControl.sol\":2505:2515  _checkRole */\n      tag_154\n        /* \"contracts/access/AccessControl.sol\":2505:2521  _checkRole(role) */\n      jump\t// in\n    tag_206:\n        /* \"contracts/Arcade.sol\":5666:5667  0 */\n      0x00\n        /* \"contracts/Arcade.sol\":5639:5656  gameData[game_id] */\n      dup3\n      dup2\n      mstore\n        /* \"contracts/Arcade.sol\":5639:5647  gameData */\n      0x02\n        /* \"contracts/Arcade.sol\":5639:5656  gameData[game_id] */\n      0x20\n      mstore\n      0x40\n      dup1\n      dup3\n      keccak256\n        /* \"contracts/Arcade.sol\":5639:5663  gameData[game_id].status */\n      0x04\n      add\n        /* \"contracts/Arcade.sol\":5639:5667  gameData[game_id].status = 0 */\n      swap2\n      swap1\n      swap2\n      sstore\n        /* \"contracts/Arcade.sol\":5683:5701  CloseGame(game_id) */\n      mload\n      0x827e8bff9f46048f8351964d2c871d09e4f4231513cf2fcb786649c68732e24f\n      swap1\n      tag_156\n      swap1\n        /* \"contracts/Arcade.sol\":5648:5655  game_id */\n      dup5\n        /* \"#utility.yul\":6296:6321   */\n      dup2\n      mstore\n        /* \"#utility.yul\":6284:6286   */\n      0x20\n        /* \"#utility.yul\":6269:6287   */\n      add\n      swap1\n        /* \"#utility.yul\":6251:6327   */\n      jump\n        /* \"contracts/access/AccessControl.sol\":4770:4915  function grantRole(bytes32 role, address account) public virtual override onlyRole(getRoleAdmin(role)) {... */\n    tag_80:\n        /* \"contracts/access/AccessControl.sol\":4465:4472  bytes32 */\n      0x00\n        /* \"contracts/access/AccessControl.sol\":4491:4503  _roles[role] */\n      dup3\n      dup2\n      mstore\n      0x20\n      dup2\n      swap1\n      mstore\n      0x40\n      swap1\n      keccak256\n        /* \"contracts/access/AccessControl.sol\":4491:4513  _roles[role].adminRole */\n      0x01\n      add\n      sload\n        /* \"contracts/access/AccessControl.sol\":2505:2521  _checkRole(role) */\n      tag_211\n        /* \"contracts/access/AccessControl.sol\":2516:2520  role */\n      dup2\n        /* \"contracts/access/AccessControl.sol\":2505:2515  _checkRole */\n      tag_154\n        /* \"contracts/access/AccessControl.sol\":2505:2521  _checkRole(role) */\n      jump\t// in\n    tag_211:\n        /* \"contracts/access/AccessControl.sol\":4883:4908  _grantRole(role, account) */\n      tag_190\n        /* \"contracts/access/AccessControl.sol\":4894:4898  role */\n      dup4\n        /* \"contracts/access/AccessControl.sol\":4900:4907  account */\n      dup4\n        /* \"contracts/access/AccessControl.sol\":4883:4893  _grantRole */\n      tag_214\n        /* \"contracts/access/AccessControl.sol\":4883:4908  _grantRole(role, account) */\n      jump\t// in\n        /* \"contracts/access/AccessControl.sol\":5787:6001  function renounceRole(bytes32 role, address account) public virtual override {... */\n    tag_87:\n      sub(shl(0xa0, 0x01), 0x01)\n        /* \"contracts/access/AccessControl.sol\":5882:5905  account == _msgSender() */\n      dup2\n      and\n        /* \"contracts/utils/Context.sol\":719:729  msg.sender */\n      caller\n        /* \"contracts/access/AccessControl.sol\":5882:5905  account == _msgSender() */\n      eq\n        /* \"contracts/access/AccessControl.sol\":5874:5957  require(account == _msgSender(), \"AccessControl: can only renounce roles for self\") */\n      tag_217\n      jumpi\n      mload(0x40)\n      shl(0xe5, 0x461bcd)\n      dup2\n      mstore\n        /* \"#utility.yul\":12519:12521   */\n      0x20\n        /* \"contracts/access/AccessControl.sol\":5874:5957  require(account == _msgSender(), \"AccessControl: can only renounce roles for self\") */\n      0x04\n      dup3\n      add\n        /* \"#utility.yul\":12501:12522   */\n      mstore\n        /* \"#utility.yul\":12558:12560   */\n      0x2f\n        /* \"#utility.yul\":12538:12556   */\n      0x24\n      dup3\n      add\n        /* \"#utility.yul\":12531:12561   */\n      mstore\n        /* \"#utility.yul\":12597:12631   */\n      0x416363657373436f6e74726f6c3a2063616e206f6e6c792072656e6f756e6365\n        /* \"#utility.yul\":12577:12595   */\n      0x44\n      dup3\n      add\n        /* \"#utility.yul\":12570:12632   */\n      mstore\n      shl(0x89, 0x103937b632b9903337b91039b2b633)\n        /* \"#utility.yul\":12648:12666   */\n      0x64\n      dup3\n      add\n        /* \"#utility.yul\":12641:12686   */\n      mstore\n        /* \"#utility.yul\":12703:12722   */\n      0x84\n      add\n        /* \"contracts/access/AccessControl.sol\":5874:5957  require(account == _msgSender(), \"AccessControl: can only renounce roles for self\") */\n      tag_191\n        /* \"#utility.yul\":12491:12728   */\n      jump\n        /* \"contracts/access/AccessControl.sol\":5874:5957  require(account == _msgSender(), \"AccessControl: can only renounce roles for self\") */\n    tag_217:\n        /* \"contracts/access/AccessControl.sol\":5968:5994  _revokeRole(role, account) */\n      tag_220\n        /* \"contracts/access/AccessControl.sol\":5980:5984  role */\n      dup3\n        /* \"contracts/access/AccessControl.sol\":5986:5993  account */\n      dup3\n        /* \"contracts/access/AccessControl.sol\":5968:5979  _revokeRole */\n      tag_221\n        /* \"contracts/access/AccessControl.sol\":5968:5994  _revokeRole(role, account) */\n      jump\t// in\n    tag_220:\n        /* \"contracts/access/AccessControl.sol\":5787:6001  function renounceRole(bytes32 role, address account) public virtual override {... */\n      pop\n      pop\n      jump\t// out\n        /* \"contracts/Arcade.sol\":5264:5413  function removeArcadeToken(address token_address) public onlyRole(ARCADE_MANAGER) {... */\n    tag_90:\n      0x00\n      dup1\n      mload\n      0x20\n      data_023264abf97b17654b97d38bd81099eb2064d5cca6dbd4e398ff8bdbab67b82d\n      dup4\n      codecopy\n      dup2\n      mload\n      swap2\n      mstore\n        /* \"contracts/access/AccessControl.sol\":2505:2521  _checkRole(role) */\n      tag_223\n        /* \"contracts/access/AccessControl.sol\":2516:2520  role */\n      dup2\n        /* \"contracts/access/AccessControl.sol\":2505:2515  _checkRole */\n      tag_154\n        /* \"contracts/access/AccessControl.sol\":2505:2521  _checkRole(role) */\n      jump\t// in\n    tag_223:\n      pop\n      sub(shl(0xa0, 0x01), 0x01)\n        /* \"contracts/Arcade.sol\":5356:5391  acceptedArcadeTokens[token_address] */\n      and\n        /* \"contracts/Arcade.sol\":5401:5406  false */\n      0x00\n        /* \"contracts/Arcade.sol\":5356:5391  acceptedArcadeTokens[token_address] */\n      swap1\n      dup2\n      mstore\n        /* \"contracts/Arcade.sol\":5356:5376  acceptedArcadeTokens */\n      0x01\n        /* \"contracts/Arcade.sol\":5356:5391  acceptedArcadeTokens[token_address] */\n      0x20\n      mstore\n      0x40\n      swap1\n      keccak256\n        /* \"contracts/Arcade.sol\":5356:5406  acceptedArcadeTokens[token_address].active = false */\n      dup1\n      sload\n      not(shl(0xa0, 0xff))\n      and\n      swap1\n      sstore\n        /* \"contracts/Arcade.sol\":5264:5413  function removeArcadeToken(address token_address) public onlyRole(ARCADE_MANAGER) {... */\n      jump\t// out\n        /* \"contracts/Arcade.sol\":8044:8723  function refund(uint256 game_id, address player) public onlyRole(GAME_MASTER) {... */\n    tag_93:\n      0x00\n      dup1\n      mload\n      0x20\n      data_806db7640bcc104a4b7b53ebc0c09b63eefd92fe89197bc684d91aa66a17455c\n      dup4\n      codecopy\n      dup2\n      mload\n      swap2\n      mstore\n        /* \"contracts/access/AccessControl.sol\":2505:2521  _checkRole(role) */\n      tag_226\n        /* \"contracts/access/AccessControl.sol\":2516:2520  role */\n      dup2\n        /* \"contracts/access/AccessControl.sol\":2505:2515  _checkRole */\n      tag_154\n        /* \"contracts/access/AccessControl.sol\":2505:2521  _checkRole(role) */\n      jump\t// in\n    tag_226:\n        /* \"contracts/Arcade.sol\":8136:8153  gameData[game_id] */\n      0x00\n      dup4\n      dup2\n      mstore\n        /* \"contracts/Arcade.sol\":8136:8144  gameData */\n      0x02\n        /* \"contracts/Arcade.sol\":8136:8153  gameData[game_id] */\n      0x20\n      mstore\n      0x40\n      swap1\n      keccak256\n        /* \"contracts/Arcade.sol\":8136:8162  gameData[game_id].exchange */\n      sload\n      0xff\n      and\n        /* \"contracts/Arcade.sol\":8132:8717  if (gameData[game_id].exchange == false) {... */\n      tag_190\n      jumpi\n        /* \"contracts/Arcade.sol\":8195:8212  gameData[game_id] */\n      0x00\n      dup4\n      dup2\n      mstore\n        /* \"contracts/Arcade.sol\":8195:8203  gameData */\n      0x02\n        /* \"contracts/Arcade.sol\":8195:8212  gameData[game_id] */\n      0x20\n      swap1\n      dup2\n      mstore\n      0x40\n      dup1\n      dup4\n      keccak256\n      sub(shl(0xa0, 0x01), 0x01)\n        /* \"contracts/Arcade.sol\":8195:8225  gameData[game_id].paid[player] */\n      dup7\n      and\n      dup5\n      mstore\n        /* \"contracts/Arcade.sol\":8195:8217  gameData[game_id].paid */\n      0x08\n      add\n        /* \"contracts/Arcade.sol\":8195:8225  gameData[game_id].paid[player] */\n      swap1\n      swap2\n      mstore\n      swap1\n      keccak256\n      sload\n        /* \"contracts/Arcade.sol\":8229:8230  1 */\n      0x01\n        /* \"contracts/Arcade.sol\":8195:8230  gameData[game_id].paid[player] == 1 */\n      eq\n        /* \"contracts/Arcade.sol\":8187:8284  require(gameData[game_id].paid[player] == 1, \"Trophy King Arcade: Not registered for this game.\") */\n      tag_229\n      jumpi\n      mload(0x40)\n      shl(0xe5, 0x461bcd)\n      dup2\n      mstore\n        /* \"#utility.yul\":11698:11700   */\n      0x20\n        /* \"contracts/Arcade.sol\":8187:8284  require(gameData[game_id].paid[player] == 1, \"Trophy King Arcade: Not registered for this game.\") */\n      0x04\n      dup3\n      add\n        /* \"#utility.yul\":11680:11701   */\n      mstore\n        /* \"#utility.yul\":11737:11739   */\n      0x31\n        /* \"#utility.yul\":11717:11735   */\n      0x24\n      dup3\n      add\n        /* \"#utility.yul\":11710:11740   */\n      mstore\n        /* \"#utility.yul\":11776:11810   */\n      0x54726f706879204b696e67204172636164653a204e6f74207265676973746572\n        /* \"#utility.yul\":11756:11774   */\n      0x44\n      dup3\n      add\n        /* \"#utility.yul\":11749:11811   */\n      mstore\n      shl(0x79, 0x32b2103337b9103a3434b99033b0b6b297)\n        /* \"#utility.yul\":11827:11845   */\n      0x64\n      dup3\n      add\n        /* \"#utility.yul\":11820:11867   */\n      mstore\n        /* \"#utility.yul\":11884:11903   */\n      0x84\n      add\n        /* \"contracts/Arcade.sol\":8187:8284  require(gameData[game_id].paid[player] == 1, \"Trophy King Arcade: Not registered for this game.\") */\n      tag_191\n        /* \"#utility.yul\":11670:11909   */\n      jump\n        /* \"contracts/Arcade.sol\":8187:8284  require(gameData[game_id].paid[player] == 1, \"Trophy King Arcade: Not registered for this game.\") */\n    tag_229:\n        /* \"contracts/Arcade.sol\":8299:8318  GameInfo storage gi */\n      0x00\n        /* \"contracts/Arcade.sol\":8321:8338  gameData[game_id] */\n      dup4\n      dup2\n      mstore\n        /* \"contracts/Arcade.sol\":8321:8329  gameData */\n      0x02\n        /* \"contracts/Arcade.sol\":8321:8338  gameData[game_id] */\n      0x20\n      swap1\n      dup2\n      mstore\n      0x40\n      dup1\n      dup4\n      keccak256\n        /* \"contracts/Arcade.sol\":8383:8398  gi.arcade_token */\n      0x05\n      dup2\n      add\n      sload\n      sub(shl(0xa0, 0x01), 0x01)\n      swap1\n      dup2\n      and\n        /* \"contracts/Arcade.sol\":8361:8400  acceptedArcadeTokens[(gi.arcade_token)] */\n      dup6\n      mstore\n        /* \"contracts/Arcade.sol\":8361:8381  acceptedArcadeTokens */\n      0x01\n        /* \"contracts/Arcade.sol\":8361:8400  acceptedArcadeTokens[(gi.arcade_token)] */\n      swap1\n      swap4\n      mstore\n      swap3\n      dup2\n      swap1\n      keccak256\n        /* \"contracts/Arcade.sol\":8361:8413  acceptedArcadeTokens[(gi.arcade_token)].native_token */\n      sload\n        /* \"contracts/Arcade.sol\":8431:8450  gi.registration_fee */\n      0x03\n      dup5\n      add\n      sload\n        /* \"contracts/Arcade.sol\":8361:8451  acceptedArcadeTokens[(gi.arcade_token)].native_token.transfer(player, gi.registration_fee) */\n      swap2\n      mload\n      shl(0xe0, 0xa9059cbb)\n      dup2\n      mstore\n        /* \"#utility.yul\":4681:4713   */\n      dup7\n      dup5\n      and\n        /* \"contracts/Arcade.sol\":8361:8451  acceptedArcadeTokens[(gi.arcade_token)].native_token.transfer(player, gi.registration_fee) */\n      0x04\n      dup3\n      add\n        /* \"#utility.yul\":4663:4714   */\n      mstore\n        /* \"#utility.yul\":4730:4748   */\n      0x24\n      dup2\n      add\n        /* \"#utility.yul\":4723:4757   */\n      swap3\n      swap1\n      swap3\n      mstore\n        /* \"contracts/Arcade.sol\":8361:8413  acceptedArcadeTokens[(gi.arcade_token)].native_token */\n      swap1\n      swap2\n      and\n      swap1\n        /* \"contracts/Arcade.sol\":8361:8422  acceptedArcadeTokens[(gi.arcade_token)].native_token.transfer */\n      0xa9059cbb\n      swap1\n        /* \"#utility.yul\":4636:4654   */\n      0x44\n      add\n        /* \"contracts/Arcade.sol\":8361:8451  acceptedArcadeTokens[(gi.arcade_token)].native_token.transfer(player, gi.registration_fee) */\n      0x20\n      mload(0x40)\n      dup1\n      dup4\n      sub\n      dup2\n      0x00\n      dup8\n      dup1\n      extcodesize\n      iszero\n      dup1\n      iszero\n      tag_233\n      jumpi\n      0x00\n      dup1\n      revert\n    tag_233:\n      pop\n      gas\n      call\n      iszero\n      dup1\n      iszero\n      tag_235\n      jumpi\n      returndatasize\n      0x00\n      dup1\n      returndatacopy\n      revert(0x00, returndatasize)\n    tag_235:\n      pop\n      pop\n      pop\n      pop\n      mload(0x40)\n      returndatasize\n      not(0x1f)\n      0x1f\n      dup3\n      add\n      and\n      dup3\n      add\n      dup1\n      0x40\n      mstore\n      pop\n      dup2\n      add\n      swap1\n      tag_236\n      swap2\n      swap1\n      tag_172\n      jump\t// in\n    tag_236:\n        /* \"contracts/Arcade.sol\":8353:8490  require(acceptedArcadeTokens[(gi.arcade_token)].native_token.transfer(player, gi.registration_fee), \"Trophy King Arcade: Refund failed.\") */\n      tag_237\n      jumpi\n      mload(0x40)\n      shl(0xe5, 0x461bcd)\n      dup2\n      mstore\n        /* \"#utility.yul\":12116:12118   */\n      0x20\n        /* \"contracts/Arcade.sol\":8353:8490  require(acceptedArcadeTokens[(gi.arcade_token)].native_token.transfer(player, gi.registration_fee), \"Trophy King Arcade: Refund failed.\") */\n      0x04\n      dup3\n      add\n        /* \"#utility.yul\":12098:12119   */\n      mstore\n        /* \"#utility.yul\":12155:12157   */\n      0x22\n        /* \"#utility.yul\":12135:12153   */\n      0x24\n      dup3\n      add\n        /* \"#utility.yul\":12128:12158   */\n      mstore\n        /* \"#utility.yul\":12194:12228   */\n      0x54726f706879204b696e67204172636164653a20526566756e64206661696c65\n        /* \"#utility.yul\":12174:12192   */\n      0x44\n      dup3\n      add\n        /* \"#utility.yul\":12167:12229   */\n      mstore\n      shl(0xf1, 0x3217)\n        /* \"#utility.yul\":12245:12263   */\n      0x64\n      dup3\n      add\n        /* \"#utility.yul\":12238:12270   */\n      mstore\n        /* \"#utility.yul\":12287:12306   */\n      0x84\n      add\n        /* \"contracts/Arcade.sol\":8353:8490  require(acceptedArcadeTokens[(gi.arcade_token)].native_token.transfer(player, gi.registration_fee), \"Trophy King Arcade: Refund failed.\") */\n      tag_191\n        /* \"#utility.yul\":12088:12312   */\n      jump\n        /* \"contracts/Arcade.sol\":8353:8490  require(acceptedArcadeTokens[(gi.arcade_token)].native_token.transfer(player, gi.registration_fee), \"Trophy King Arcade: Refund failed.\") */\n    tag_237:\n        /* \"contracts/Arcade.sol\":8522:8524  gi */\n      dup1\n        /* \"contracts/Arcade.sol\":8522:8541  gi.registration_fee */\n      0x03\n      add\n      sload\n        /* \"contracts/Arcade.sol\":8505:8507  gi */\n      dup2\n        /* \"contracts/Arcade.sol\":8505:8517  gi.total_fee */\n      0x06\n      add\n      0x00\n        /* \"contracts/Arcade.sol\":8505:8542  gi.total_fee -= (gi.registration_fee) */\n      dup3\n      dup3\n      sload\n      tag_240\n      swap2\n      swap1\n      tag_241\n      jump\t// in\n    tag_240:\n      swap1\n      swap2\n      sstore\n      pop\n      pop\n      sub(shl(0xa0, 0x01), 0x01)\n        /* \"contracts/Arcade.sol\":8557:8571  gi.fee[player] */\n      dup4\n      and\n        /* \"contracts/Arcade.sol\":8574:8575  0 */\n      0x00\n        /* \"contracts/Arcade.sol\":8557:8571  gi.fee[player] */\n      swap1\n      dup2\n      mstore\n        /* \"contracts/Arcade.sol\":8557:8563  gi.fee */\n      0x07\n      dup3\n      add\n        /* \"contracts/Arcade.sol\":8557:8571  gi.fee[player] */\n      0x20\n      swap1\n      dup2\n      mstore\n      0x40\n      dup1\n      dup4\n      keccak256\n        /* \"contracts/Arcade.sol\":8557:8575  gi.fee[player] = 0 */\n      dup4\n      swap1\n      sstore\n        /* \"contracts/Arcade.sol\":8589:8596  gi.paid */\n      0x08\n      dup5\n      add\n        /* \"contracts/Arcade.sol\":8589:8604  gi.paid[player] */\n      swap1\n      swap2\n      mstore\n      dup2\n      keccak256\n        /* \"contracts/Arcade.sol\":8589:8608  gi.paid[player] = 0 */\n      dup2\n      swap1\n      sstore\n        /* \"contracts/Arcade.sol\":8641:8642  1 */\n      0x01\n        /* \"contracts/Arcade.sol\":8622:8637  gi.player_count */\n      dup1\n      dup4\n      add\n        /* \"contracts/Arcade.sol\":8622:8642  gi.player_count -= 1 */\n      dup1\n      sload\n        /* \"contracts/Arcade.sol\":8641:8642  1 */\n      swap2\n      swap3\n        /* \"contracts/Arcade.sol\":8622:8637  gi.player_count */\n      swap1\n      swap2\n        /* \"contracts/Arcade.sol\":8622:8642  gi.player_count -= 1 */\n      tag_242\n      swap1\n        /* \"contracts/Arcade.sol\":8641:8642  1 */\n      dup5\n      swap1\n        /* \"contracts/Arcade.sol\":8622:8642  gi.player_count -= 1 */\n      tag_241\n      jump\t// in\n    tag_242:\n      swap1\n      swap2\n      sstore\n      pop\n      pop\n        /* \"contracts/Arcade.sol\":8686:8705  gi.registration_fee */\n      0x03\n      dup2\n      add\n      sload\n        /* \"contracts/Arcade.sol\":8662:8706  Refund(game_id, player, gi.registration_fee) */\n      0x40\n      dup1\n      mload\n        /* \"#utility.yul\":13117:13142   */\n      dup7\n      dup2\n      mstore\n      sub(shl(0xa0, 0x01), 0x01)\n        /* \"#utility.yul\":13178:13210   */\n      dup7\n      and\n        /* \"#utility.yul\":13173:13175   */\n      0x20\n        /* \"#utility.yul\":13158:13176   */\n      dup3\n      add\n        /* \"#utility.yul\":13151:13211   */\n      mstore\n        /* \"#utility.yul\":13227:13245   */\n      dup1\n      dup3\n      add\n        /* \"#utility.yul\":13220:13254   */\n      swap3\n      swap1\n      swap3\n      mstore\n        /* \"contracts/Arcade.sol\":8662:8706  Refund(game_id, player, gi.registration_fee) */\n      mload\n      0x21e12a7cad0da5928167e1084ea4d5fdf8d9af66657a2543a9ac76a0ca081477\n      swap2\n      dup2\n      swap1\n      sub\n        /* \"#utility.yul\":13105:13107   */\n      0x60\n        /* \"contracts/Arcade.sol\":8662:8706  Refund(game_id, player, gi.registration_fee) */\n      add\n      swap1\n      log1\n        /* \"contracts/Arcade.sol\":8132:8717  if (gameData[game_id].exchange == false) {... */\n      pop\n        /* \"contracts/Arcade.sol\":8044:8723  function refund(uint256 game_id, address player) public onlyRole(GAME_MASTER) {... */\n      pop\n      pop\n      pop\n      jump\t// out\n        /* \"contracts/access/AccessControl.sol\":2895:3040  function hasRole(bytes32 role, address account) public view virtual override returns (bool) {... */\n    tag_100:\n        /* \"contracts/access/AccessControl.sol\":2981:2985  bool */\n      0x00\n        /* \"contracts/access/AccessControl.sol\":3004:3016  _roles[role] */\n      swap2\n      dup3\n      mstore\n      0x20\n      dup3\n      dup2\n      mstore\n      0x40\n      dup1\n      dup5\n      keccak256\n      sub(shl(0xa0, 0x01), 0x01)\n        /* \"contracts/access/AccessControl.sol\":3004:3033  _roles[role].members[account] */\n      swap4\n      swap1\n      swap4\n      and\n      dup5\n      mstore\n      swap2\n      swap1\n      mstore\n      swap1\n      keccak256\n      sload\n      0xff\n      and\n      swap1\n        /* \"contracts/access/AccessControl.sol\":2895:3040  function hasRole(bytes32 role, address account) public view virtual override returns (bool) {... */\n      jump\t// out\n        /* \"contracts/Arcade.sol\":9268:10208  function setWinner(uint256 game_id, address winner) public onlyRole(GAME_MASTER) {... */\n    tag_107:\n      0x00\n      dup1\n      mload\n      0x20\n      data_806db7640bcc104a4b7b53ebc0c09b63eefd92fe89197bc684d91aa66a17455c\n      dup4\n      codecopy\n      dup2\n      mload\n      swap2\n      mstore\n        /* \"contracts/access/AccessControl.sol\":2505:2521  _checkRole(role) */\n      tag_247\n        /* \"contracts/access/AccessControl.sol\":2516:2520  role */\n      dup2\n        /* \"contracts/access/AccessControl.sol\":2505:2515  _checkRole */\n      tag_154\n        /* \"contracts/access/AccessControl.sol\":2505:2521  _checkRole(role) */\n      jump\t// in\n    tag_247:\n        /* \"contracts/Arcade.sol\":9363:9380  gameData[game_id] */\n      0x00\n      dup4\n      dup2\n      mstore\n        /* \"contracts/Arcade.sol\":9363:9371  gameData */\n      0x02\n        /* \"contracts/Arcade.sol\":9363:9380  gameData[game_id] */\n      0x20\n      mstore\n      0x40\n      swap1\n      keccak256\n        /* \"contracts/Arcade.sol\":9363:9389  gameData[game_id].exchange */\n      sload\n      0xff\n      and\n        /* \"contracts/Arcade.sol\":9359:10173  if (gameData[game_id].exchange == false) {... */\n      tag_249\n      jumpi\n        /* \"contracts/Arcade.sol\":9422:9439  gameData[game_id] */\n      0x00\n      dup4\n      dup2\n      mstore\n        /* \"contracts/Arcade.sol\":9422:9430  gameData */\n      0x02\n        /* \"contracts/Arcade.sol\":9422:9439  gameData[game_id] */\n      0x20\n      swap1\n      dup2\n      mstore\n      0x40\n      dup1\n      dup4\n      keccak256\n      sub(shl(0xa0, 0x01), 0x01)\n        /* \"contracts/Arcade.sol\":9422:9452  gameData[game_id].paid[winner] */\n      dup7\n      and\n      dup5\n      mstore\n        /* \"contracts/Arcade.sol\":9422:9444  gameData[game_id].paid */\n      0x08\n      add\n        /* \"contracts/Arcade.sol\":9422:9452  gameData[game_id].paid[winner] */\n      swap1\n      swap2\n      mstore\n      swap1\n      keccak256\n      sload\n        /* \"contracts/Arcade.sol\":9456:9457  1 */\n      0x01\n        /* \"contracts/Arcade.sol\":9422:9457  gameData[game_id].paid[winner] == 1 */\n      eq\n        /* \"contracts/Arcade.sol\":9414:9510  require(gameData[game_id].paid[winner] == 1, \"Trophy King Arcade: Not registered for this game\") */\n      tag_250\n      jumpi\n      mload(0x40)\n      shl(0xe5, 0x461bcd)\n      dup2\n      mstore\n        /* \"#utility.yul\":9653:9655   */\n      0x20\n        /* \"contracts/Arcade.sol\":9414:9510  require(gameData[game_id].paid[winner] == 1, \"Trophy King Arcade: Not registered for this game\") */\n      0x04\n      dup3\n      add\n        /* \"#utility.yul\":9635:9656   */\n      mstore\n        /* \"#utility.yul\":9692:9694   */\n      0x30\n        /* \"#utility.yul\":9672:9690   */\n      0x24\n      dup3\n      add\n        /* \"#utility.yul\":9665:9695   */\n      mstore\n        /* \"#utility.yul\":9731:9765   */\n      0x54726f706879204b696e67204172636164653a204e6f74207265676973746572\n        /* \"#utility.yul\":9711:9729   */\n      0x44\n      dup3\n      add\n        /* \"#utility.yul\":9704:9766   */\n      mstore\n      shl(0x80, 0x656420666f7220746869732067616d65)\n        /* \"#utility.yul\":9782:9800   */\n      0x64\n      dup3\n      add\n        /* \"#utility.yul\":9775:9821   */\n      mstore\n        /* \"#utility.yul\":9838:9857   */\n      0x84\n      add\n        /* \"contracts/Arcade.sol\":9414:9510  require(gameData[game_id].paid[winner] == 1, \"Trophy King Arcade: Not registered for this game\") */\n      tag_191\n        /* \"#utility.yul\":9625:9863   */\n      jump\n        /* \"contracts/Arcade.sol\":9414:9510  require(gameData[game_id].paid[winner] == 1, \"Trophy King Arcade: Not registered for this game\") */\n    tag_250:\n        /* \"contracts/Arcade.sol\":9677:9681  base */\n      0x05\n      dup1\n      sload\n        /* \"contracts/Arcade.sol\":9651:9665  fee_percentage */\n      sload(0x04)\n        /* \"contracts/Arcade.sol\":9525:9543  uint256 arcade_fee */\n      0x00\n        /* \"contracts/Arcade.sol\":9600:9617  gameData[game_id] */\n      dup7\n      dup2\n      mstore\n        /* \"contracts/Arcade.sol\":9600:9608  gameData */\n      0x02\n        /* \"contracts/Arcade.sol\":9600:9617  gameData[game_id] */\n      0x20\n      swap1\n      dup2\n      mstore\n      0x40\n      dup1\n      dup4\n      keccak256\n        /* \"contracts/Arcade.sol\":9600:9630  gameData[game_id].arcade_token */\n      swap1\n      swap6\n      add\n      sload\n      sub(shl(0xa0, 0x01), 0x01)\n      and\n        /* \"contracts/Arcade.sol\":9578:9632  acceptedArcadeTokens[(gameData[game_id].arcade_token)] */\n      dup3\n      mstore\n        /* \"contracts/Arcade.sol\":9578:9598  acceptedArcadeTokens */\n      0x01\n        /* \"contracts/Arcade.sol\":9578:9632  acceptedArcadeTokens[(gameData[game_id].arcade_token)] */\n      swap1\n      dup2\n      swap1\n      mstore\n      swap4\n      dup2\n      keccak256\n        /* \"contracts/Arcade.sol\":9578:9648  acceptedArcadeTokens[(gameData[game_id].arcade_token)].redemption_rate */\n      swap1\n      swap4\n      add\n      sload\n        /* \"contracts/Arcade.sol\":9677:9681  base */\n      dup3\n      swap2\n        /* \"contracts/Arcade.sol\":9578:9665  acceptedArcadeTokens[(gameData[game_id].arcade_token)].redemption_rate + fee_percentage */\n      tag_253\n      swap2\n      tag_254\n      jump\t// in\n    tag_253:\n        /* \"contracts/Arcade.sol\":9547:9564  gameData[game_id] */\n      0x00\n      dup8\n      dup2\n      mstore\n        /* \"contracts/Arcade.sol\":9547:9555  gameData */\n      0x02\n        /* \"contracts/Arcade.sol\":9547:9564  gameData[game_id] */\n      0x20\n      mstore\n      0x40\n      swap1\n      keccak256\n        /* \"contracts/Arcade.sol\":9547:9574  gameData[game_id].total_fee */\n      0x06\n      add\n      sload\n        /* \"contracts/Arcade.sol\":9547:9666  gameData[game_id].total_fee * (acceptedArcadeTokens[(gameData[game_id].arcade_token)].redemption_rate + fee_percentage) */\n      tag_255\n      swap2\n      swap1\n      tag_256\n      jump\t// in\n    tag_255:\n        /* \"contracts/Arcade.sol\":9546:9674  (gameData[game_id].total_fee * (acceptedArcadeTokens[(gameData[game_id].arcade_token)].redemption_rate + fee_percentage)) / base */\n      tag_257\n      swap2\n      swap1\n      tag_258\n      jump\t// in\n    tag_257:\n        /* \"contracts/Arcade.sol\":9546:9681  (gameData[game_id].total_fee * (acceptedArcadeTokens[(gameData[game_id].arcade_token)].redemption_rate + fee_percentage)) / base / base */\n      tag_259\n      swap2\n      swap1\n      tag_258\n      jump\t// in\n    tag_259:\n        /* \"contracts/Arcade.sol\":9695:9709  uint256 payout */\n      0x00\n        /* \"contracts/Arcade.sol\":9712:9729  gameData[game_id] */\n      dup6\n      dup2\n      mstore\n        /* \"contracts/Arcade.sol\":9712:9720  gameData */\n      0x02\n        /* \"contracts/Arcade.sol\":9712:9729  gameData[game_id] */\n      0x20\n      mstore\n      0x40\n      dup2\n      keccak256\n        /* \"contracts/Arcade.sol\":9712:9739  gameData[game_id].total_fee */\n      0x06\n      add\n      sload\n        /* \"contracts/Arcade.sol\":9525:9681  uint256 arcade_fee = (gameData[game_id].total_fee * (acceptedArcadeTokens[(gameData[game_id].arcade_token)].redemption_rate + fee_percentage)) / base / base */\n      swap2\n      swap3\n      pop\n        /* \"contracts/Arcade.sol\":9695:9709  uint256 payout */\n      swap1\n        /* \"contracts/Arcade.sol\":9712:9755  gameData[game_id].total_fee.sub(arcade_fee) */\n      tag_260\n      swap1\n        /* \"contracts/Arcade.sol\":9525:9681  uint256 arcade_fee = (gameData[game_id].total_fee * (acceptedArcadeTokens[(gameData[game_id].arcade_token)].redemption_rate + fee_percentage)) / base / base */\n      dup4\n        /* \"contracts/Arcade.sol\":9712:9743  gameData[game_id].total_fee.sub */\n      tag_261\n        /* \"contracts/Arcade.sol\":9712:9755  gameData[game_id].total_fee.sub(arcade_fee) */\n      jump\t// in\n    tag_260:\n        /* \"contracts/Arcade.sol\":9695:9755  uint256 payout = gameData[game_id].total_fee.sub(arcade_fee) */\n      swap1\n      pop\n        /* \"contracts/Arcade.sol\":9796:9817  address(this).balance */\n      selfbalance\n        /* \"contracts/Arcade.sol\":9836:9861  contract_balance < payout */\n      dup2\n      dup2\n      lt\n        /* \"contracts/Arcade.sol\":9832:9921  if (contract_balance < payout) {... */\n      iszero\n      tag_262\n      jumpi\n        /* \"contracts/Arcade.sol\":9890:9906  contract_balance */\n      dup1\n        /* \"contracts/Arcade.sol\":9881:9906  payout = contract_balance */\n      swap2\n      pop\n        /* \"contracts/Arcade.sol\":9832:9921  if (contract_balance < payout) {... */\n    tag_262:\n        /* \"contracts/Arcade.sol\":9943:9997  acceptedArcadeTokens[(gameData[game_id].arcade_token)] */\n      0x00\n        /* \"contracts/Arcade.sol\":9965:9982  gameData[game_id] */\n      dup7\n      dup2\n      mstore\n        /* \"contracts/Arcade.sol\":9965:9973  gameData */\n      0x02\n        /* \"contracts/Arcade.sol\":9965:9982  gameData[game_id] */\n      0x20\n      swap1\n      dup2\n      mstore\n      0x40\n      dup1\n      dup4\n      keccak256\n        /* \"contracts/Arcade.sol\":9965:9995  gameData[game_id].arcade_token */\n      0x05\n      add\n      sload\n      sub(shl(0xa0, 0x01), 0x01)\n      swap1\n      dup2\n      and\n        /* \"contracts/Arcade.sol\":9943:9997  acceptedArcadeTokens[(gameData[game_id].arcade_token)] */\n      dup5\n      mstore\n        /* \"contracts/Arcade.sol\":9943:9963  acceptedArcadeTokens */\n      0x01\n        /* \"contracts/Arcade.sol\":9943:9997  acceptedArcadeTokens[(gameData[game_id].arcade_token)] */\n      swap1\n      swap3\n      mstore\n      swap2\n      dup3\n      swap1\n      keccak256\n        /* \"contracts/Arcade.sol\":9943:10010  acceptedArcadeTokens[(gameData[game_id].arcade_token)].native_token */\n      sload\n        /* \"contracts/Arcade.sol\":9943:10035  acceptedArcadeTokens[(gameData[game_id].arcade_token)].native_token.transfer(winner, payout) */\n      swap2\n      mload\n      shl(0xe0, 0xa9059cbb)\n      dup2\n      mstore\n        /* \"#utility.yul\":4681:4713   */\n      dup8\n      dup3\n      and\n        /* \"contracts/Arcade.sol\":9943:10035  acceptedArcadeTokens[(gameData[game_id].arcade_token)].native_token.transfer(winner, payout) */\n      0x04\n      dup3\n      add\n        /* \"#utility.yul\":4663:4714   */\n      mstore\n        /* \"#utility.yul\":4730:4748   */\n      0x24\n      dup2\n      add\n        /* \"#utility.yul\":4723:4757   */\n      dup6\n      swap1\n      mstore\n        /* \"contracts/Arcade.sol\":9943:10010  acceptedArcadeTokens[(gameData[game_id].arcade_token)].native_token */\n      swap2\n      and\n      swap1\n        /* \"contracts/Arcade.sol\":9943:10019  acceptedArcadeTokens[(gameData[game_id].arcade_token)].native_token.transfer */\n      0xa9059cbb\n      swap1\n        /* \"#utility.yul\":4636:4654   */\n      0x44\n      add\n        /* \"contracts/Arcade.sol\":9943:10035  acceptedArcadeTokens[(gameData[game_id].arcade_token)].native_token.transfer(winner, payout) */\n      0x20\n      mload(0x40)\n      dup1\n      dup4\n      sub\n      dup2\n      0x00\n      dup8\n      dup1\n      extcodesize\n      iszero\n      dup1\n      iszero\n      tag_264\n      jumpi\n      0x00\n      dup1\n      revert\n    tag_264:\n      pop\n      gas\n      call\n      iszero\n      dup1\n      iszero\n      tag_266\n      jumpi\n      returndatasize\n      0x00\n      dup1\n      returndatacopy\n      revert(0x00, returndatasize)\n    tag_266:\n      pop\n      pop\n      pop\n      pop\n      mload(0x40)\n      returndatasize\n      not(0x1f)\n      0x1f\n      dup3\n      add\n      and\n      dup3\n      add\n      dup1\n      0x40\n      mstore\n      pop\n      dup2\n      add\n      swap1\n      tag_267\n      swap2\n      swap1\n      tag_172\n      jump\t// in\n    tag_267:\n        /* \"contracts/Arcade.sol\":9935:10074  require(acceptedArcadeTokens[(gameData[game_id].arcade_token)].native_token.transfer(winner, payout), \"Trophy King Arcade: Payout failed.\") */\n      tag_268\n      jumpi\n      mload(0x40)\n      shl(0xe5, 0x461bcd)\n      dup2\n      mstore\n        /* \"#utility.yul\":9250:9252   */\n      0x20\n        /* \"contracts/Arcade.sol\":9935:10074  require(acceptedArcadeTokens[(gameData[game_id].arcade_token)].native_token.transfer(winner, payout), \"Trophy King Arcade: Payout failed.\") */\n      0x04\n      dup3\n      add\n        /* \"#utility.yul\":9232:9253   */\n      mstore\n        /* \"#utility.yul\":9289:9291   */\n      0x22\n        /* \"#utility.yul\":9269:9287   */\n      0x24\n      dup3\n      add\n        /* \"#utility.yul\":9262:9292   */\n      mstore\n        /* \"#utility.yul\":9328:9362   */\n      0x54726f706879204b696e67204172636164653a205061796f7574206661696c65\n        /* \"#utility.yul\":9308:9326   */\n      0x44\n      dup3\n      add\n        /* \"#utility.yul\":9301:9363   */\n      mstore\n      shl(0xf1, 0x3217)\n        /* \"#utility.yul\":9379:9397   */\n      0x64\n      dup3\n      add\n        /* \"#utility.yul\":9372:9404   */\n      mstore\n        /* \"#utility.yul\":9421:9440   */\n      0x84\n      add\n        /* \"contracts/Arcade.sol\":9935:10074  require(acceptedArcadeTokens[(gameData[game_id].arcade_token)].native_token.transfer(winner, payout), \"Trophy King Arcade: Payout failed.\") */\n      tag_191\n        /* \"#utility.yul\":9222:9446   */\n      jump\n        /* \"contracts/Arcade.sol\":9935:10074  require(acceptedArcadeTokens[(gameData[game_id].arcade_token)].native_token.transfer(winner, payout), \"Trophy King Arcade: Payout failed.\") */\n    tag_268:\n        /* \"contracts/Arcade.sol\":10098:10115  gameData[game_id] */\n      0x00\n      dup7\n      dup2\n      mstore\n        /* \"contracts/Arcade.sol\":10098:10106  gameData */\n      0x02\n        /* \"contracts/Arcade.sol\":10098:10115  gameData[game_id] */\n      0x20\n      swap1\n      dup2\n      mstore\n      0x40\n      dup1\n      dup4\n      keccak256\n      sub(shl(0xa0, 0x01), 0x01)\n        /* \"contracts/Arcade.sol\":10098:10127  gameData[game_id].fee[winner] */\n      dup10\n      and\n      dup5\n      mstore\n        /* \"contracts/Arcade.sol\":10098:10119  gameData[game_id].fee */\n      0x07\n      add\n        /* \"contracts/Arcade.sol\":10098:10127  gameData[game_id].fee[winner] */\n      dup3\n      mstore\n      swap2\n      dup3\n      swap1\n      keccak256\n      sload\n        /* \"contracts/Arcade.sol\":10094:10128  Fee(gameData[game_id].fee[winner]) */\n      swap2\n      mload\n        /* \"#utility.yul\":6296:6321   */\n      swap2\n      dup3\n      mstore\n        /* \"contracts/Arcade.sol\":10094:10128  Fee(gameData[game_id].fee[winner]) */\n      0x557809284da7314475b1582804ae28e5f1349efc1fe970ea25d50fce75eb4f43\n      swap2\n        /* \"#utility.yul\":6269:6287   */\n      add\n        /* \"contracts/Arcade.sol\":10094:10128  Fee(gameData[game_id].fee[winner]) */\n      mload(0x40)\n      dup1\n      swap2\n      sub\n      swap1\n      log1\n        /* \"contracts/Arcade.sol\":10148:10162  Payout(payout) */\n      mload(0x40)\n        /* \"#utility.yul\":6296:6321   */\n      dup3\n      dup2\n      mstore\n        /* \"contracts/Arcade.sol\":10148:10162  Payout(payout) */\n      0x22427047e1a674a9aff59700a2c8d00ea96e017ddf9236690bdedf1f21f28d9d\n      swap1\n        /* \"#utility.yul\":6284:6286   */\n      0x20\n        /* \"#utility.yul\":6269:6287   */\n      add\n        /* \"contracts/Arcade.sol\":10148:10162  Payout(payout) */\n      mload(0x40)\n      dup1\n      swap2\n      sub\n      swap1\n      log1\n        /* \"contracts/Arcade.sol\":9359:10173  if (gameData[game_id].exchange == false) {... */\n      pop\n      pop\n      pop\n    tag_249:\n        /* \"contracts/Arcade.sol\":10183:10201  closeGame(game_id) */\n      tag_190\n        /* \"contracts/Arcade.sol\":10193:10200  game_id */\n      dup4\n        /* \"contracts/Arcade.sol\":10183:10192  closeGame */\n      tag_76\n        /* \"contracts/Arcade.sol\":10183:10201  closeGame(game_id) */\n      jump\t// in\n        /* \"contracts/Arcade.sol\":6895:7039  function leaveMatch(uint256 game_id) public {... */\n    tag_115:\n        /* \"contracts/Arcade.sol\":6989:6990  0 */\n      0x00\n        /* \"contracts/Arcade.sol\":6949:6966  gameData[game_id] */\n      dup2\n      dup2\n      mstore\n        /* \"contracts/Arcade.sol\":6949:6957  gameData */\n      0x02\n        /* \"contracts/Arcade.sol\":6949:6966  gameData[game_id] */\n      0x20\n      swap1\n      dup2\n      mstore\n      0x40\n      dup1\n      dup4\n      keccak256\n        /* \"contracts/utils/Context.sol\":719:729  msg.sender */\n      caller\n        /* \"contracts/Arcade.sol\":6949:6986  gameData[game_id].seats[_msgSender()] */\n      dup1\n      dup6\n      mstore\n        /* \"contracts/Arcade.sol\":6949:6972  gameData[game_id].seats */\n      0x09\n      swap1\n      swap2\n      add\n        /* \"contracts/Arcade.sol\":6949:6986  gameData[game_id].seats[_msgSender()] */\n      dup4\n      mstore\n      dup2\n      dup5\n      keccak256\n        /* \"contracts/Arcade.sol\":6949:6990  gameData[game_id].seats[_msgSender()] = 0 */\n      swap4\n      swap1\n      swap4\n      sstore\n        /* \"contracts/Arcade.sol\":7006:7032  RemovePlayer(_msgSender()) */\n      dup1\n      mload\n        /* \"#utility.yul\":3962:4013   */\n      swap3\n      dup4\n      mstore\n        /* \"contracts/Arcade.sol\":7006:7032  RemovePlayer(_msgSender()) */\n      mload\n      0x34aeefd5030be05fe70eebc8866d82f935a308eb9f334cba88f5e3bea1a0cae8\n      swap3\n      dup2\n      swap1\n      sub\n      swap1\n      swap2\n      add\n      swap1\n      log1\n        /* \"contracts/Arcade.sol\":6895:7039  function leaveMatch(uint256 game_id) public {... */\n      pop\n      jump\t// out\n        /* \"contracts/Arcade.sol\":7498:7772  function placePlayer(uint256 game_id, address player) public onlyRole(GAME_MASTER) {... */\n    tag_126:\n      0x00\n      dup1\n      mload\n      0x20\n      data_806db7640bcc104a4b7b53ebc0c09b63eefd92fe89197bc684d91aa66a17455c\n      dup4\n      codecopy\n      dup2\n      mload\n      swap2\n      mstore\n        /* \"contracts/access/AccessControl.sol\":2505:2521  _checkRole(role) */\n      tag_280\n        /* \"contracts/access/AccessControl.sol\":2516:2520  role */\n      dup2\n        /* \"contracts/access/AccessControl.sol\":2505:2515  _checkRole */\n      tag_154\n        /* \"contracts/access/AccessControl.sol\":2505:2521  _checkRole(role) */\n      jump\t// in\n    tag_280:\n        /* \"contracts/Arcade.sol\":7599:7616  gameData[game_id] */\n      0x00\n      dup4\n      dup2\n      mstore\n        /* \"contracts/Arcade.sol\":7599:7607  gameData */\n      0x02\n        /* \"contracts/Arcade.sol\":7599:7616  gameData[game_id] */\n      0x20\n      swap1\n      dup2\n      mstore\n      0x40\n      dup1\n      dup4\n      keccak256\n      sub(shl(0xa0, 0x01), 0x01)\n        /* \"contracts/Arcade.sol\":7599:7630  gameData[game_id].seats[player] */\n      dup7\n      and\n      dup5\n      mstore\n        /* \"contracts/Arcade.sol\":7599:7622  gameData[game_id].seats */\n      0x09\n      add\n        /* \"contracts/Arcade.sol\":7599:7630  gameData[game_id].seats[player] */\n      swap1\n      swap2\n      mstore\n      swap1\n      keccak256\n      sload\n        /* \"contracts/Arcade.sol\":7634:7635  1 */\n      0x01\n        /* \"contracts/Arcade.sol\":7599:7635  gameData[game_id].seats[player] != 1 */\n      eq\n      iszero\n        /* \"contracts/Arcade.sol\":7591:7675  require(gameData[game_id].seats[player] != 1, \"Trophy King Arcade: Already seated.\") */\n      tag_282\n      jumpi\n      mload(0x40)\n      shl(0xe5, 0x461bcd)\n      dup2\n      mstore\n        /* \"#utility.yul\":8846:8848   */\n      0x20\n        /* \"contracts/Arcade.sol\":7591:7675  require(gameData[game_id].seats[player] != 1, \"Trophy King Arcade: Already seated.\") */\n      0x04\n      dup3\n      add\n        /* \"#utility.yul\":8828:8849   */\n      mstore\n        /* \"#utility.yul\":8885:8887   */\n      0x23\n        /* \"#utility.yul\":8865:8883   */\n      0x24\n      dup3\n      add\n        /* \"#utility.yul\":8858:8888   */\n      mstore\n        /* \"#utility.yul\":8924:8958   */\n      0x54726f706879204b696e67204172636164653a20416c72656164792073656174\n        /* \"#utility.yul\":8904:8922   */\n      0x44\n      dup3\n      add\n        /* \"#utility.yul\":8897:8959   */\n      mstore\n      shl(0xe9, 0x32b217)\n        /* \"#utility.yul\":8975:8993   */\n      0x64\n      dup3\n      add\n        /* \"#utility.yul\":8968:9001   */\n      mstore\n        /* \"#utility.yul\":9018:9037   */\n      0x84\n      add\n        /* \"contracts/Arcade.sol\":7591:7675  require(gameData[game_id].seats[player] != 1, \"Trophy King Arcade: Already seated.\") */\n      tag_191\n        /* \"#utility.yul\":8818:9043   */\n      jump\n        /* \"contracts/Arcade.sol\":7591:7675  require(gameData[game_id].seats[player] != 1, \"Trophy King Arcade: Already seated.\") */\n    tag_282:\n        /* \"contracts/Arcade.sol\":7686:7703  gameData[game_id] */\n      0x00\n      dup4\n      dup2\n      mstore\n        /* \"contracts/Arcade.sol\":7686:7694  gameData */\n      0x02\n        /* \"contracts/Arcade.sol\":7686:7703  gameData[game_id] */\n      0x20\n      swap1\n      dup2\n      mstore\n      0x40\n      dup1\n      dup4\n      keccak256\n      sub(shl(0xa0, 0x01), 0x01)\n        /* \"contracts/Arcade.sol\":7686:7717  gameData[game_id].seats[player] */\n      dup7\n      and\n      dup1\n      dup6\n      mstore\n        /* \"contracts/Arcade.sol\":7686:7709  gameData[game_id].seats */\n      0x09\n      swap1\n      swap2\n      add\n        /* \"contracts/Arcade.sol\":7686:7717  gameData[game_id].seats[player] */\n      dup4\n      mstore\n      swap3\n      dup2\n      swap1\n      keccak256\n        /* \"contracts/Arcade.sol\":7720:7721  1 */\n      0x01\n        /* \"contracts/Arcade.sol\":7686:7721  gameData[game_id].seats[player] = 1 */\n      swap1\n      sstore\n        /* \"contracts/Arcade.sol\":7737:7765  PlacePlayer(player, game_id) */\n      dup1\n      mload\n        /* \"#utility.yul\":4663:4714   */\n      swap3\n      dup4\n      mstore\n        /* \"#utility.yul\":4730:4748   */\n      swap1\n      dup3\n      add\n        /* \"#utility.yul\":4723:4757   */\n      dup6\n      swap1\n      mstore\n        /* \"contracts/Arcade.sol\":7737:7765  PlacePlayer(player, game_id) */\n      0x9f2deefff0a36949d580cdd4ba9959b4a94786e786bad5650001b58b625fbbb1\n      swap2\n        /* \"#utility.yul\":4636:4654   */\n      add\n        /* \"contracts/Arcade.sol\":7737:7765  PlacePlayer(player, game_id) */\n      tag_204\n        /* \"#utility.yul\":4618:4763   */\n      jump\n        /* \"contracts/access/AccessControl.sol\":5149:5296  function revokeRole(bytes32 role, address account) public virtual override onlyRole(getRoleAdmin(role)) {... */\n    tag_140:\n        /* \"contracts/access/AccessControl.sol\":4465:4472  bytes32 */\n      0x00\n        /* \"contracts/access/AccessControl.sol\":4491:4503  _roles[role] */\n      dup3\n      dup2\n      mstore\n      0x20\n      dup2\n      swap1\n      mstore\n      0x40\n      swap1\n      keccak256\n        /* \"contracts/access/AccessControl.sol\":4491:4513  _roles[role].adminRole */\n      0x01\n      add\n      sload\n        /* \"contracts/access/AccessControl.sol\":2505:2521  _checkRole(role) */\n      tag_288\n        /* \"contracts/access/AccessControl.sol\":2516:2520  role */\n      dup2\n        /* \"contracts/access/AccessControl.sol\":2505:2515  _checkRole */\n      tag_154\n        /* \"contracts/access/AccessControl.sol\":2505:2521  _checkRole(role) */\n      jump\t// in\n    tag_288:\n        /* \"contracts/access/AccessControl.sol\":5263:5289  _revokeRole(role, account) */\n      tag_190\n        /* \"contracts/access/AccessControl.sol\":5275:5279  role */\n      dup4\n        /* \"contracts/access/AccessControl.sol\":5281:5288  account */\n      dup4\n        /* \"contracts/access/AccessControl.sol\":5263:5274  _revokeRole */\n      tag_221\n        /* \"contracts/access/AccessControl.sol\":5263:5289  _revokeRole(role, account) */\n      jump\t// in\n        /* \"contracts/Arcade.sol\":2499:3344  function register(uint256 game_id) public {... */\n    tag_147:\n        /* \"contracts/Arcade.sol\":2559:2576  gameData[game_id] */\n      0x00\n      dup2\n      dup2\n      mstore\n        /* \"contracts/Arcade.sol\":2559:2567  gameData */\n      0x02\n        /* \"contracts/Arcade.sol\":2559:2576  gameData[game_id] */\n      0x20\n      swap1\n      dup2\n      mstore\n      0x40\n      dup1\n      dup4\n      keccak256\n        /* \"contracts/Arcade.sol\":2583:2593  msg.sender */\n      caller\n        /* \"contracts/Arcade.sol\":2559:2594  gameData[game_id].seats[msg.sender] */\n      dup5\n      mstore\n        /* \"contracts/Arcade.sol\":2559:2582  gameData[game_id].seats */\n      0x09\n      add\n        /* \"contracts/Arcade.sol\":2559:2594  gameData[game_id].seats[msg.sender] */\n      swap1\n      swap2\n      mstore\n      swap1\n      keccak256\n      sload\n        /* \"contracts/Arcade.sol\":2598:2599  1 */\n      0x01\n        /* \"contracts/Arcade.sol\":2559:2599  gameData[game_id].seats[msg.sender] == 1 */\n      eq\n        /* \"contracts/Arcade.sol\":2551:2637  require(gameData[game_id].seats[msg.sender] == 1, \"Trophy King Arcade: Unauthorized.\") */\n      tag_293\n      jumpi\n      mload(0x40)\n      shl(0xe5, 0x461bcd)\n      dup2\n      mstore\n        /* \"#utility.yul\":11296:11298   */\n      0x20\n        /* \"contracts/Arcade.sol\":2551:2637  require(gameData[game_id].seats[msg.sender] == 1, \"Trophy King Arcade: Unauthorized.\") */\n      0x04\n      dup3\n      add\n        /* \"#utility.yul\":11278:11299   */\n      mstore\n        /* \"#utility.yul\":11335:11337   */\n      0x21\n        /* \"#utility.yul\":11315:11333   */\n      0x24\n      dup3\n      add\n        /* \"#utility.yul\":11308:11338   */\n      mstore\n        /* \"#utility.yul\":11374:11408   */\n      0x54726f706879204b696e67204172636164653a20556e617574686f72697a6564\n        /* \"#utility.yul\":11354:11372   */\n      0x44\n      dup3\n      add\n        /* \"#utility.yul\":11347:11409   */\n      mstore\n      shl(0xf9, 0x17)\n        /* \"#utility.yul\":11425:11443   */\n      0x64\n      dup3\n      add\n        /* \"#utility.yul\":11418:11449   */\n      mstore\n        /* \"#utility.yul\":11466:11485   */\n      0x84\n      add\n        /* \"contracts/Arcade.sol\":2551:2637  require(gameData[game_id].seats[msg.sender] == 1, \"Trophy King Arcade: Unauthorized.\") */\n      tag_191\n        /* \"#utility.yul\":11268:11491   */\n      jump\n        /* \"contracts/Arcade.sol\":2551:2637  require(gameData[game_id].seats[msg.sender] == 1, \"Trophy King Arcade: Unauthorized.\") */\n    tag_293:\n        /* \"contracts/Arcade.sol\":2655:2672  gameData[game_id] */\n      0x00\n      dup2\n      dup2\n      mstore\n        /* \"contracts/Arcade.sol\":2655:2663  gameData */\n      0x02\n        /* \"contracts/Arcade.sol\":2655:2672  gameData[game_id] */\n      0x20\n      mstore\n      0x40\n      swap1\n      keccak256\n        /* \"contracts/Arcade.sol\":2655:2679  gameData[game_id].status */\n      0x04\n      add\n      sload\n        /* \"contracts/Arcade.sol\":2683:2684  1 */\n      0x01\n        /* \"contracts/Arcade.sol\":2655:2684  gameData[game_id].status == 1 */\n      eq\n        /* \"contracts/Arcade.sol\":2647:2721  require(gameData[game_id].status == 1, \"Trophy King Arcade: Game closed.\") */\n      tag_296\n      jumpi\n      mload(0x40)\n      shl(0xe5, 0x461bcd)\n      dup2\n      mstore\n        /* \"#utility.yul\":7658:7660   */\n      0x20\n        /* \"contracts/Arcade.sol\":2647:2721  require(gameData[game_id].status == 1, \"Trophy King Arcade: Game closed.\") */\n      0x04\n      dup3\n      add\n        /* \"#utility.yul\":7640:7661   */\n      dup2\n      swap1\n      mstore\n        /* \"#utility.yul\":7677:7695   */\n      0x24\n      dup3\n      add\n        /* \"#utility.yul\":7670:7700   */\n      mstore\n        /* \"#utility.yul\":7736:7770   */\n      0x54726f706879204b696e67204172636164653a2047616d6520636c6f7365642e\n        /* \"#utility.yul\":7716:7734   */\n      0x44\n      dup3\n      add\n        /* \"#utility.yul\":7709:7771   */\n      mstore\n        /* \"#utility.yul\":7788:7806   */\n      0x64\n      add\n        /* \"contracts/Arcade.sol\":2647:2721  require(gameData[game_id].status == 1, \"Trophy King Arcade: Game closed.\") */\n      tag_191\n        /* \"#utility.yul\":7630:7812   */\n      jump\n        /* \"contracts/Arcade.sol\":2647:2721  require(gameData[game_id].status == 1, \"Trophy King Arcade: Game closed.\") */\n    tag_296:\n        /* \"contracts/Arcade.sol\":2772:2789  gameData[game_id] */\n      0x00\n      dup2\n      dup2\n      mstore\n        /* \"contracts/Arcade.sol\":2772:2780  gameData */\n      0x02\n        /* \"contracts/Arcade.sol\":2772:2789  gameData[game_id] */\n      0x20\n      dup2\n      swap1\n      mstore\n      0x40\n      swap1\n      swap2\n      keccak256\n        /* \"contracts/Arcade.sol\":2772:2802  gameData[game_id].player_count */\n      0x01\n      dup2\n      add\n      sload\n        /* \"contracts/Arcade.sol\":2739:2769  gameData[game_id].player_limit */\n      swap2\n      add\n      sload\n        /* \"contracts/Arcade.sol\":2739:2802  gameData[game_id].player_limit > gameData[game_id].player_count */\n      gt\n        /* \"contracts/Arcade.sol\":2731:2849  require(gameData[game_id].player_limit > gameData[game_id].player_count, \"Trophy King Arcade: Game full.  Try again.\") */\n      tag_299\n      jumpi\n      mload(0x40)\n      shl(0xe5, 0x461bcd)\n      dup2\n      mstore\n        /* \"#utility.yul\":10070:10072   */\n      0x20\n        /* \"contracts/Arcade.sol\":2731:2849  require(gameData[game_id].player_limit > gameData[game_id].player_count, \"Trophy King Arcade: Game full.  Try again.\") */\n      0x04\n      dup3\n      add\n        /* \"#utility.yul\":10052:10073   */\n      mstore\n        /* \"#utility.yul\":10109:10111   */\n      0x2a\n        /* \"#utility.yul\":10089:10107   */\n      0x24\n      dup3\n      add\n        /* \"#utility.yul\":10082:10112   */\n      mstore\n        /* \"#utility.yul\":10148:10182   */\n      0x54726f706879204b696e67204172636164653a2047616d652066756c6c2e2020\n        /* \"#utility.yul\":10128:10146   */\n      0x44\n      dup3\n      add\n        /* \"#utility.yul\":10121:10183   */\n      mstore\n      shl(0xb1, 0x2a393c9030b3b0b4b717)\n        /* \"#utility.yul\":10199:10217   */\n      0x64\n      dup3\n      add\n        /* \"#utility.yul\":10192:10232   */\n      mstore\n        /* \"#utility.yul\":10249:10268   */\n      0x84\n      add\n        /* \"contracts/Arcade.sol\":2731:2849  require(gameData[game_id].player_limit > gameData[game_id].player_count, \"Trophy King Arcade: Game full.  Try again.\") */\n      tag_191\n        /* \"#utility.yul\":10042:10274   */\n      jump\n        /* \"contracts/Arcade.sol\":2731:2849  require(gameData[game_id].player_limit > gameData[game_id].player_count, \"Trophy King Arcade: Game full.  Try again.\") */\n    tag_299:\n        /* \"contracts/Arcade.sol\":2867:2884  gameData[game_id] */\n      0x00\n      dup2\n      dup2\n      mstore\n        /* \"contracts/Arcade.sol\":2867:2875  gameData */\n      0x02\n        /* \"contracts/Arcade.sol\":2867:2884  gameData[game_id] */\n      0x20\n      swap1\n      dup2\n      mstore\n      0x40\n      dup1\n      dup4\n      keccak256\n        /* \"contracts/Arcade.sol\":2890:2900  msg.sender */\n      caller\n        /* \"contracts/Arcade.sol\":2867:2901  gameData[game_id].paid[msg.sender] */\n      dup5\n      mstore\n        /* \"contracts/Arcade.sol\":2867:2889  gameData[game_id].paid */\n      0x08\n      add\n        /* \"contracts/Arcade.sol\":2867:2901  gameData[game_id].paid[msg.sender] */\n      swap1\n      swap2\n      mstore\n      swap1\n      keccak256\n      sload\n        /* \"contracts/Arcade.sol\":2867:2906  gameData[game_id].paid[msg.sender] == 0 */\n      iszero\n        /* \"contracts/Arcade.sol\":2859:2950  require(gameData[game_id].paid[msg.sender] == 0, \"Trophy King Arcade: Already registered.\") */\n      tag_302\n      jumpi\n      mload(0x40)\n      shl(0xe5, 0x461bcd)\n      dup2\n      mstore\n        /* \"#utility.yul\":8019:8021   */\n      0x20\n        /* \"contracts/Arcade.sol\":2859:2950  require(gameData[game_id].paid[msg.sender] == 0, \"Trophy King Arcade: Already registered.\") */\n      0x04\n      dup3\n      add\n        /* \"#utility.yul\":8001:8022   */\n      mstore\n        /* \"#utility.yul\":8058:8060   */\n      0x27\n        /* \"#utility.yul\":8038:8056   */\n      0x24\n      dup3\n      add\n        /* \"#utility.yul\":8031:8061   */\n      mstore\n        /* \"#utility.yul\":8097:8131   */\n      0x54726f706879204b696e67204172636164653a20416c72656164792072656769\n        /* \"#utility.yul\":8077:8095   */\n      0x44\n      dup3\n      add\n        /* \"#utility.yul\":8070:8132   */\n      mstore\n      shl(0xc9, 0x39ba32b932b217)\n        /* \"#utility.yul\":8148:8166   */\n      0x64\n      dup3\n      add\n        /* \"#utility.yul\":8141:8178   */\n      mstore\n        /* \"#utility.yul\":8195:8214   */\n      0x84\n      add\n        /* \"contracts/Arcade.sol\":2859:2950  require(gameData[game_id].paid[msg.sender] == 0, \"Trophy King Arcade: Already registered.\") */\n      tag_191\n        /* \"#utility.yul\":7991:8220   */\n      jump\n        /* \"contracts/Arcade.sol\":2859:2950  require(gameData[game_id].paid[msg.sender] == 0, \"Trophy King Arcade: Already registered.\") */\n    tag_302:\n        /* \"contracts/Arcade.sol\":3001:3002  0 */\n      0x00\n        /* \"contracts/Arcade.sol\":2968:2985  gameData[game_id] */\n      dup2\n      dup2\n      mstore\n        /* \"contracts/Arcade.sol\":2968:2976  gameData */\n      0x02\n        /* \"contracts/Arcade.sol\":2968:2985  gameData[game_id] */\n      0x20\n      dup2\n      swap1\n      mstore\n      0x40\n      swap1\n      swap2\n      keccak256\n        /* \"contracts/Arcade.sol\":2968:2998  gameData[game_id].player_limit */\n      add\n      sload\n        /* \"contracts/Arcade.sol\":2960:3042  require(gameData[game_id].player_limit > 0, \"Trophy King Arcade: Game not found.\") */\n      tag_305\n      jumpi\n      mload(0x40)\n      shl(0xe5, 0x461bcd)\n      dup2\n      mstore\n        /* \"#utility.yul\":10481:10483   */\n      0x20\n        /* \"contracts/Arcade.sol\":2960:3042  require(gameData[game_id].player_limit > 0, \"Trophy King Arcade: Game not found.\") */\n      0x04\n      dup3\n      add\n        /* \"#utility.yul\":10463:10484   */\n      mstore\n        /* \"#utility.yul\":10520:10522   */\n      0x23\n        /* \"#utility.yul\":10500:10518   */\n      0x24\n      dup3\n      add\n        /* \"#utility.yul\":10493:10523   */\n      mstore\n        /* \"#utility.yul\":10559:10593   */\n      0x54726f706879204b696e67204172636164653a2047616d65206e6f7420666f75\n        /* \"#utility.yul\":10539:10557   */\n      0x44\n      dup3\n      add\n        /* \"#utility.yul\":10532:10594   */\n      mstore\n      shl(0xe9, 0x373217)\n        /* \"#utility.yul\":10610:10628   */\n      0x64\n      dup3\n      add\n        /* \"#utility.yul\":10603:10636   */\n      mstore\n        /* \"#utility.yul\":10653:10672   */\n      0x84\n      add\n        /* \"contracts/Arcade.sol\":2960:3042  require(gameData[game_id].player_limit > 0, \"Trophy King Arcade: Game not found.\") */\n      tag_191\n        /* \"#utility.yul\":10453:10678   */\n      jump\n        /* \"contracts/Arcade.sol\":2960:3042  require(gameData[game_id].player_limit > 0, \"Trophy King Arcade: Game not found.\") */\n    tag_305:\n        /* \"contracts/Arcade.sol\":3060:3114  acceptedArcadeTokens[(gameData[game_id].arcade_token)] */\n      0x00\n        /* \"contracts/Arcade.sol\":3082:3099  gameData[game_id] */\n      dup2\n      dup2\n      mstore\n        /* \"contracts/Arcade.sol\":3082:3090  gameData */\n      0x02\n        /* \"contracts/Arcade.sol\":3082:3099  gameData[game_id] */\n      0x20\n      swap1\n      dup2\n      mstore\n      0x40\n      dup1\n      dup4\n      keccak256\n        /* \"contracts/Arcade.sol\":3082:3112  gameData[game_id].arcade_token */\n      0x05\n      add\n      sload\n      sub(shl(0xa0, 0x01), 0x01)\n      swap1\n      dup2\n      and\n        /* \"contracts/Arcade.sol\":3060:3114  acceptedArcadeTokens[(gameData[game_id].arcade_token)] */\n      dup5\n      mstore\n        /* \"contracts/Arcade.sol\":3060:3080  acceptedArcadeTokens */\n      0x01\n        /* \"contracts/Arcade.sol\":3060:3114  acceptedArcadeTokens[(gameData[game_id].arcade_token)] */\n      swap1\n      swap3\n      mstore\n      swap1\n      swap2\n      keccak256\n        /* \"contracts/Arcade.sol\":3060:3127  acceptedArcadeTokens[(gameData[game_id].arcade_token)].native_token */\n      sload\n      and\n        /* \"contracts/Arcade.sol\":3060:3140  acceptedArcadeTokens[(gameData[game_id].arcade_token)].native_token.transferFrom */\n      0x23b872dd\n        /* \"contracts/utils/Context.sol\":719:729  msg.sender */\n      caller\n        /* \"contracts/Arcade.sol\":3170:3187  gameData[game_id] */\n      0x00\n      dup5\n      dup2\n      mstore\n        /* \"contracts/Arcade.sol\":3170:3178  gameData */\n      0x02\n        /* \"contracts/Arcade.sol\":3170:3187  gameData[game_id] */\n      0x20\n      mstore\n      0x40\n      swap1\n      dup2\n      swap1\n      keccak256\n        /* \"contracts/Arcade.sol\":3170:3204  gameData[game_id].registration_fee */\n      0x03\n      add\n      sload\n        /* \"contracts/Arcade.sol\":3060:3205  acceptedArcadeTokens[(gameData[game_id].arcade_token)].native_token.transferFrom(_msgSender(), address(this), gameData[game_id].registration_fee) */\n      swap1\n      mload\n      0xe0\n      dup5\n      swap1\n      shl\n      not(sub(shl(0xe0, 0x01), 0x01))\n      and\n      dup2\n      mstore\n      sub(shl(0xa0, 0x01), 0x01)\n        /* \"#utility.yul\":4282:4297   */\n      swap1\n      swap3\n      and\n        /* \"contracts/Arcade.sol\":3060:3205  acceptedArcadeTokens[(gameData[game_id].arcade_token)].native_token.transferFrom(_msgSender(), address(this), gameData[game_id].registration_fee) */\n      0x04\n      dup4\n      add\n        /* \"#utility.yul\":4264:4298   */\n      mstore\n        /* \"contracts/Arcade.sol\":3163:3167  this */\n      address\n        /* \"#utility.yul\":4314:4332   */\n      0x24\n      dup4\n      add\n        /* \"#utility.yul\":4307:4350   */\n      mstore\n        /* \"#utility.yul\":4366:4384   */\n      0x44\n      dup3\n      add\n        /* \"#utility.yul\":4359:4393   */\n      mstore\n        /* \"#utility.yul\":4199:4217   */\n      0x64\n      add\n        /* \"contracts/Arcade.sol\":3060:3205  acceptedArcadeTokens[(gameData[game_id].arcade_token)].native_token.transferFrom(_msgSender(), address(this), gameData[game_id].registration_fee) */\n      0x20\n      mload(0x40)\n      dup1\n      dup4\n      sub\n      dup2\n      0x00\n      dup8\n      dup1\n      extcodesize\n      iszero\n      dup1\n      iszero\n      tag_311\n      jumpi\n      0x00\n      dup1\n      revert\n    tag_311:\n      pop\n      gas\n      call\n      iszero\n      dup1\n      iszero\n      tag_313\n      jumpi\n      returndatasize\n      0x00\n      dup1\n      returndatacopy\n      revert(0x00, returndatasize)\n    tag_313:\n      pop\n      pop\n      pop\n      pop\n      mload(0x40)\n      returndatasize\n      not(0x1f)\n      0x1f\n      dup3\n      add\n      and\n      dup3\n      add\n      dup1\n      0x40\n      mstore\n      pop\n      dup2\n      add\n      swap1\n      tag_314\n      swap2\n      swap1\n      tag_172\n      jump\t// in\n    tag_314:\n        /* \"contracts/Arcade.sol\":3052:3260  require(acceptedArcadeTokens[(gameData[game_id].arcade_token)].native_token.transferFrom(_msgSender(), address(this), gameData[game_id].registration_fee), \"Trophy King Arcade: Must approve registration fee.\") */\n      tag_315\n      jumpi\n      mload(0x40)\n      shl(0xe5, 0x461bcd)\n      dup2\n      mstore\n        /* \"#utility.yul\":8427:8429   */\n      0x20\n        /* \"contracts/Arcade.sol\":3052:3260  require(acceptedArcadeTokens[(gameData[game_id].arcade_token)].native_token.transferFrom(_msgSender(), address(this), gameData[game_id].registration_fee), \"Trophy King Arcade: Must approve registration fee.\") */\n      0x04\n      dup3\n      add\n        /* \"#utility.yul\":8409:8430   */\n      mstore\n        /* \"#utility.yul\":8466:8468   */\n      0x32\n        /* \"#utility.yul\":8446:8464   */\n      0x24\n      dup3\n      add\n        /* \"#utility.yul\":8439:8469   */\n      mstore\n        /* \"#utility.yul\":8505:8539   */\n      0x54726f706879204b696e67204172636164653a204d75737420617070726f7665\n        /* \"#utility.yul\":8485:8503   */\n      0x44\n      dup3\n      add\n        /* \"#utility.yul\":8478:8540   */\n      mstore\n      shl(0x71, 0x103932b3b4b9ba3930ba34b7b7103332b297)\n        /* \"#utility.yul\":8556:8574   */\n      0x64\n      dup3\n      add\n        /* \"#utility.yul\":8549:8597   */\n      mstore\n        /* \"#utility.yul\":8614:8633   */\n      0x84\n      add\n        /* \"contracts/Arcade.sol\":3052:3260  require(acceptedArcadeTokens[(gameData[game_id].arcade_token)].native_token.transferFrom(_msgSender(), address(this), gameData[game_id].registration_fee), \"Trophy King Arcade: Must approve registration fee.\") */\n      tag_191\n        /* \"#utility.yul\":8399:8639   */\n      jump\n        /* \"contracts/Arcade.sol\":3052:3260  require(acceptedArcadeTokens[(gameData[game_id].arcade_token)].native_token.transferFrom(_msgSender(), address(this), gameData[game_id].registration_fee), \"Trophy King Arcade: Must approve registration fee.\") */\n    tag_315:\n        /* \"contracts/Arcade.sol\":3302:3319  gameData[game_id] */\n      0x00\n      dup2\n      dup2\n      mstore\n        /* \"contracts/Arcade.sol\":3302:3310  gameData */\n      0x02\n        /* \"contracts/Arcade.sol\":3302:3319  gameData[game_id] */\n      0x20\n      mstore\n      0x40\n      swap1\n      keccak256\n        /* \"contracts/Arcade.sol\":3302:3336  gameData[game_id].registration_fee */\n      0x03\n      add\n      sload\n        /* \"contracts/Arcade.sol\":3271:3337  _register(game_id, msg.sender, gameData[game_id].registration_fee) */\n      tag_318\n      swap1\n        /* \"contracts/Arcade.sol\":3281:3288  game_id */\n      dup3\n      swap1\n        /* \"contracts/Arcade.sol\":3290:3300  msg.sender */\n      caller\n      swap1\n        /* \"contracts/Arcade.sol\":3271:3280  _register */\n      tag_319\n        /* \"contracts/Arcade.sol\":3271:3337  _register(game_id, msg.sender, gameData[game_id].registration_fee) */\n      jump\t// in\n    tag_318:\n        /* \"contracts/Arcade.sol\":2499:3344  function register(uint256 game_id) public {... */\n      pop\n      jump\t// out\n        /* \"contracts/Arcade.sol\":5974:6510  function createGame(uint256 game_id, uint256 registration_fee, address arcade_token, uint256 player_limit, bool exchange) public onlyRole(GAME_MASTER) {... */\n    tag_151:\n      0x00\n      dup1\n      mload\n      0x20\n      data_806db7640bcc104a4b7b53ebc0c09b63eefd92fe89197bc684d91aa66a17455c\n      dup4\n      codecopy\n      dup2\n      mload\n      swap2\n      mstore\n        /* \"contracts/access/AccessControl.sol\":2505:2521  _checkRole(role) */\n      tag_321\n        /* \"contracts/access/AccessControl.sol\":2516:2520  role */\n      dup2\n        /* \"contracts/access/AccessControl.sol\":2505:2515  _checkRole */\n      tag_154\n        /* \"contracts/access/AccessControl.sol\":2505:2521  _checkRole(role) */\n      jump\t// in\n    tag_321:\n        /* \"contracts/Arcade.sol\":6135:6152  gameData[game_id] */\n      0x00\n      dup7\n      dup2\n      mstore\n        /* \"contracts/Arcade.sol\":6135:6143  gameData */\n      0x02\n        /* \"contracts/Arcade.sol\":6135:6152  gameData[game_id] */\n      0x20\n      dup2\n      dup2\n      mstore\n      0x40\n      dup1\n      dup5\n      keccak256\n        /* \"contracts/Arcade.sol\":6162:6163  1 */\n      0x01\n        /* \"contracts/Arcade.sol\":6135:6159  gameData[game_id].status */\n      0x04\n      dup3\n      add\n        /* \"contracts/Arcade.sol\":6135:6163  gameData[game_id].status = 1 */\n      dup2\n      swap1\n      sstore\n        /* \"contracts/Arcade.sol\":6173:6200  gameData[game_id].total_fee */\n      0x06\n      dup3\n      add\n        /* \"contracts/Arcade.sol\":6173:6204  gameData[game_id].total_fee = 0 */\n      dup7\n      swap1\n      sstore\n        /* \"contracts/Arcade.sol\":6214:6248  gameData[game_id].registration_fee */\n      0x03\n      dup3\n      add\n        /* \"contracts/Arcade.sol\":6214:6267  gameData[game_id].registration_fee = registration_fee */\n      dup12\n      swap1\n      sstore\n        /* \"contracts/Arcade.sol\":6277:6307  gameData[game_id].arcade_token */\n      0x05\n      dup3\n      add\n        /* \"contracts/Arcade.sol\":6277:6322  gameData[game_id].arcade_token = arcade_token */\n      dup1\n      sload\n      not(sub(shl(0xa0, 0x01), 0x01))\n      and\n      sub(shl(0xa0, 0x01), 0x01)\n      dup13\n      and\n      or\n      swap1\n      sstore\n        /* \"contracts/Arcade.sol\":6332:6362  gameData[game_id].player_count */\n      dup2\n      add\n        /* \"contracts/Arcade.sol\":6332:6366  gameData[game_id].player_count = 0 */\n      swap5\n      swap1\n      swap5\n      sstore\n        /* \"contracts/Arcade.sol\":6376:6406  gameData[game_id].player_limit */\n      swap2\n      dup4\n      add\n        /* \"contracts/Arcade.sol\":6376:6421  gameData[game_id].player_limit = player_limit */\n      dup7\n      swap1\n      sstore\n        /* \"contracts/Arcade.sol\":6431:6468  gameData[game_id].exchange = exchange */\n      dup3\n      sload\n      not(0xff)\n      and\n      dup6\n      iszero\n      iszero\n      or\n      swap1\n      swap3\n      sstore\n        /* \"contracts/Arcade.sol\":6484:6503  CreateGame(game_id) */\n      mload\n        /* \"#utility.yul\":6296:6321   */\n      dup8\n      dup2\n      mstore\n        /* \"contracts/Arcade.sol\":6484:6503  CreateGame(game_id) */\n      0x9e5237c6a8bb45df74799cf138ebda4fed0574bed906da41387acdc4a3cbe3d8\n      swap2\n        /* \"#utility.yul\":6269:6287   */\n      add\n        /* \"contracts/Arcade.sol\":6484:6503  CreateGame(game_id) */\n      mload(0x40)\n      dup1\n      swap2\n      sub\n      swap1\n      log1\n        /* \"contracts/Arcade.sol\":5974:6510  function createGame(uint256 game_id, uint256 registration_fee, address arcade_token, uint256 player_limit, bool exchange) public onlyRole(GAME_MASTER) {... */\n      pop\n      pop\n      pop\n      pop\n      pop\n      pop\n      jump\t// out\n        /* \"contracts/access/AccessControl.sol\":3334:3437  function _checkRole(bytes32 role) internal view virtual {... */\n    tag_154:\n        /* \"contracts/access/AccessControl.sol\":3400:3430  _checkRole(role, _msgSender()) */\n      tag_318\n        /* \"contracts/access/AccessControl.sol\":3411:3415  role */\n      dup2\n        /* \"contracts/utils/Context.sol\":719:729  msg.sender */\n      caller\n        /* \"contracts/access/AccessControl.sol\":3400:3410  _checkRole */\n      tag_327\n        /* \"contracts/access/AccessControl.sol\":3400:3430  _checkRole(role, _msgSender()) */\n      jump\t// in\n        /* \"contracts/access/AccessControl.sol\":7244:7477  function _grantRole(bytes32 role, address account) internal virtual {... */\n    tag_214:\n        /* \"contracts/access/AccessControl.sol\":7327:7349  hasRole(role, account) */\n      tag_331\n        /* \"contracts/access/AccessControl.sol\":7335:7339  role */\n      dup3\n        /* \"contracts/access/AccessControl.sol\":7341:7348  account */\n      dup3\n        /* \"contracts/access/AccessControl.sol\":7327:7334  hasRole */\n      tag_100\n        /* \"contracts/access/AccessControl.sol\":7327:7349  hasRole(role, account) */\n      jump\t// in\n    tag_331:\n        /* \"contracts/access/AccessControl.sol\":7322:7471  if (!hasRole(role, account)) {... */\n      tag_220\n      jumpi\n        /* \"contracts/access/AccessControl.sol\":7365:7371  _roles */\n      0x00\n        /* \"contracts/access/AccessControl.sol\":7365:7377  _roles[role] */\n      dup3\n      dup2\n      mstore\n      0x20\n      dup2\n      dup2\n      mstore\n      0x40\n      dup1\n      dup4\n      keccak256\n      sub(shl(0xa0, 0x01), 0x01)\n        /* \"contracts/access/AccessControl.sol\":7365:7394  _roles[role].members[account] */\n      dup6\n      and\n      dup5\n      mstore\n      swap1\n      swap2\n      mstore\n      swap1\n      keccak256\n        /* \"contracts/access/AccessControl.sol\":7365:7401  _roles[role].members[account] = true */\n      dup1\n      sload\n      not(0xff)\n      and\n        /* \"contracts/access/AccessControl.sol\":7397:7401  true */\n      0x01\n        /* \"contracts/access/AccessControl.sol\":7365:7401  _roles[role].members[account] = true */\n      or\n      swap1\n      sstore\n        /* \"contracts/access/AccessControl.sol\":7447:7459  _msgSender() */\n      tag_333\n        /* \"contracts/utils/Context.sol\":719:729  msg.sender */\n      caller\n      swap1\n        /* \"contracts/utils/Context.sol\":640:736  function _msgSender() internal view virtual returns (address) {... */\n      jump\n        /* \"contracts/access/AccessControl.sol\":7447:7459  _msgSender() */\n    tag_333:\n      sub(shl(0xa0, 0x01), 0x01)\n        /* \"contracts/access/AccessControl.sol\":7420:7460  RoleGranted(role, account, _msgSender()) */\n      and\n        /* \"contracts/access/AccessControl.sol\":7438:7445  account */\n      dup2\n      sub(shl(0xa0, 0x01), 0x01)\n        /* \"contracts/access/AccessControl.sol\":7420:7460  RoleGranted(role, account, _msgSender()) */\n      and\n        /* \"contracts/access/AccessControl.sol\":7432:7436  role */\n      dup4\n        /* \"contracts/access/AccessControl.sol\":7420:7460  RoleGranted(role, account, _msgSender()) */\n      0x2f8788117e7eff1d82e926ec794901d17c78024a50270940304540a733656f0d\n      mload(0x40)\n      mload(0x40)\n      dup1\n      swap2\n      sub\n      swap1\n      log4\n        /* \"contracts/access/AccessControl.sol\":7244:7477  function _grantRole(bytes32 role, address account) internal virtual {... */\n      pop\n      pop\n      jump\t// out\n        /* \"contracts/access/AccessControl.sol\":7602:7836  function _revokeRole(bytes32 role, address account) internal virtual {... */\n    tag_221:\n        /* \"contracts/access/AccessControl.sol\":7685:7707  hasRole(role, account) */\n      tag_335\n        /* \"contracts/access/AccessControl.sol\":7693:7697  role */\n      dup3\n        /* \"contracts/access/AccessControl.sol\":7699:7706  account */\n      dup3\n        /* \"contracts/access/AccessControl.sol\":7685:7692  hasRole */\n      tag_100\n        /* \"contracts/access/AccessControl.sol\":7685:7707  hasRole(role, account) */\n      jump\t// in\n    tag_335:\n        /* \"contracts/access/AccessControl.sol\":7681:7830  if (hasRole(role, account)) {... */\n      iszero\n      tag_220\n      jumpi\n        /* \"contracts/access/AccessControl.sol\":7755:7760  false */\n      0x00\n        /* \"contracts/access/AccessControl.sol\":7723:7735  _roles[role] */\n      dup3\n      dup2\n      mstore\n      0x20\n      dup2\n      dup2\n      mstore\n      0x40\n      dup1\n      dup4\n      keccak256\n      sub(shl(0xa0, 0x01), 0x01)\n        /* \"contracts/access/AccessControl.sol\":7723:7752  _roles[role].members[account] */\n      dup6\n      and\n      dup1\n      dup6\n      mstore\n      swap3\n      mstore\n      dup1\n      dup4\n      keccak256\n        /* \"contracts/access/AccessControl.sol\":7723:7760  _roles[role].members[account] = false */\n      dup1\n      sload\n      not(0xff)\n      and\n      swap1\n      sstore\n        /* \"contracts/access/AccessControl.sol\":7779:7819  RoleRevoked(role, account, _msgSender()) */\n      mload\n        /* \"contracts/utils/Context.sol\":719:729  msg.sender */\n      caller\n      swap3\n        /* \"contracts/access/AccessControl.sol\":7723:7735  _roles[role] */\n      dup6\n      swap2\n        /* \"contracts/access/AccessControl.sol\":7779:7819  RoleRevoked(role, account, _msgSender()) */\n      0xf6391f5c32d9c69d2a47ea670b442974b53935d1edc7fd64eb21e047a839171b\n      swap2\n        /* \"contracts/access/AccessControl.sol\":7755:7760  false */\n      swap1\n        /* \"contracts/access/AccessControl.sol\":7779:7819  RoleRevoked(role, account, _msgSender()) */\n      log4\n        /* \"contracts/access/AccessControl.sol\":7602:7836  function _revokeRole(bytes32 role, address account) internal virtual {... */\n      pop\n      pop\n      jump\t// out\n        /* \"contracts/utils/math/SafeMath.sol\":3122:3218  function sub(uint256 a, uint256 b) internal pure returns (uint256) {... */\n    tag_261:\n        /* \"contracts/utils/math/SafeMath.sol\":3180:3187  uint256 */\n      0x00\n        /* \"contracts/utils/math/SafeMath.sol\":3206:3211  a - b */\n      tag_339\n        /* \"contracts/utils/math/SafeMath.sol\":3210:3211  b */\n      dup3\n        /* \"contracts/utils/math/SafeMath.sol\":3206:3207  a */\n      dup5\n        /* \"contracts/utils/math/SafeMath.sol\":3206:3211  a - b */\n      tag_241\n      jump\t// in\n    tag_339:\n        /* \"contracts/utils/math/SafeMath.sol\":3199:3211  return a - b */\n      swap4\n        /* \"contracts/utils/math/SafeMath.sol\":3122:3218  function sub(uint256 a, uint256 b) internal pure returns (uint256) {... */\n      swap3\n      pop\n      pop\n      pop\n      jump\t// out\n        /* \"contracts/Arcade.sol\":10273:10608  function _register(uint256 game_id, address player_address, uint256 amount) internal {... */\n    tag_319:\n        /* \"contracts/Arcade.sol\":10368:10387  GameInfo storage gi */\n      0x00\n        /* \"contracts/Arcade.sol\":10390:10407  gameData[game_id] */\n      dup4\n      dup2\n      mstore\n        /* \"contracts/Arcade.sol\":10390:10398  gameData */\n      0x02\n        /* \"contracts/Arcade.sol\":10390:10407  gameData[game_id] */\n      0x20\n      mstore\n      0x40\n      dup2\n      keccak256\n        /* \"contracts/Arcade.sol\":10437:10438  1 */\n      0x01\n        /* \"contracts/Arcade.sol\":10418:10433  gi.player_count */\n      dup1\n      dup3\n      add\n        /* \"contracts/Arcade.sol\":10418:10438  gi.player_count += 1 */\n      dup1\n      sload\n        /* \"contracts/Arcade.sol\":10390:10407  gameData[game_id] */\n      swap3\n      swap4\n        /* \"contracts/Arcade.sol\":10437:10438  1 */\n      swap2\n      swap3\n        /* \"contracts/Arcade.sol\":10418:10433  gi.player_count */\n      swap1\n      swap2\n        /* \"contracts/Arcade.sol\":10368:10387  GameInfo storage gi */\n      swap1\n        /* \"contracts/Arcade.sol\":10418:10438  gi.player_count += 1 */\n      tag_341\n      swap1\n        /* \"contracts/Arcade.sol\":10437:10438  1 */\n      dup5\n      swap1\n        /* \"contracts/Arcade.sol\":10418:10438  gi.player_count += 1 */\n      tag_254\n      jump\t// in\n    tag_341:\n      swap1\n      swap2\n      sstore\n      pop\n      pop\n      sub(shl(0xa0, 0x01), 0x01)\n        /* \"contracts/Arcade.sol\":10448:10470  gi.fee[player_address] */\n      dup4\n      and\n      0x00\n      swap1\n      dup2\n      mstore\n        /* \"contracts/Arcade.sol\":10448:10454  gi.fee */\n      0x07\n      dup3\n      add\n        /* \"contracts/Arcade.sol\":10448:10470  gi.fee[player_address] */\n      0x20\n      swap1\n      dup2\n      mstore\n      0x40\n      dup1\n      dup4\n      keccak256\n        /* \"contracts/Arcade.sol\":10448:10479  gi.fee[player_address] = amount */\n      dup6\n      swap1\n      sstore\n        /* \"contracts/Arcade.sol\":10489:10496  gi.paid */\n      0x08\n      dup5\n      add\n        /* \"contracts/Arcade.sol\":10489:10512  gi.paid[player_address] */\n      swap1\n      swap2\n      mstore\n      dup2\n      keccak256\n        /* \"contracts/Arcade.sol\":10515:10516  1 */\n      0x01\n        /* \"contracts/Arcade.sol\":10489:10516  gi.paid[player_address] = 1 */\n      swap1\n      sstore\n        /* \"contracts/Arcade.sol\":10526:10538  gi.total_fee */\n      0x06\n      dup3\n      add\n        /* \"contracts/Arcade.sol\":10526:10548  gi.total_fee += amount */\n      dup1\n      sload\n        /* \"contracts/Arcade.sol\":10473:10479  amount */\n      dup5\n      swap3\n        /* \"contracts/Arcade.sol\":10448:10470  gi.fee[player_address] */\n      swap1\n        /* \"contracts/Arcade.sol\":10526:10548  gi.total_fee += amount */\n      tag_342\n      swap1\n        /* \"contracts/Arcade.sol\":10473:10479  amount */\n      dup5\n      swap1\n        /* \"contracts/Arcade.sol\":10526:10548  gi.total_fee += amount */\n      tag_254\n      jump\t// in\n    tag_342:\n      swap1\n      swap2\n      sstore\n      pop\n      pop\n        /* \"contracts/Arcade.sol\":10572:10601  Register(msg.sender, game_id) */\n      mload(0x40)\n        /* \"#utility.yul\":6296:6321   */\n      dup5\n      dup2\n      mstore\n        /* \"contracts/Arcade.sol\":10581:10591  msg.sender */\n      caller\n      swap1\n        /* \"contracts/Arcade.sol\":10572:10601  Register(msg.sender, game_id) */\n      0x7dc6ab80cc84c043b7b8d4fcafc802187470087f7ea7fccd2e17aecd0256a1\n      swap1\n        /* \"#utility.yul\":6284:6286   */\n      0x20\n        /* \"#utility.yul\":6269:6287   */\n      add\n        /* \"contracts/Arcade.sol\":10572:10601  Register(msg.sender, game_id) */\n      mload(0x40)\n      dup1\n      swap2\n      sub\n      swap1\n      log2\n        /* \"contracts/Arcade.sol\":10273:10608  function _register(uint256 game_id, address player_address, uint256 amount) internal {... */\n      pop\n      pop\n      pop\n      pop\n      jump\t// out\n        /* \"contracts/access/AccessControl.sol\":3718:4210  function _checkRole(bytes32 role, address account) internal view virtual {... */\n    tag_327:\n        /* \"contracts/access/AccessControl.sol\":3806:3828  hasRole(role, account) */\n      tag_345\n        /* \"contracts/access/AccessControl.sol\":3814:3818  role */\n      dup3\n        /* \"contracts/access/AccessControl.sol\":3820:3827  account */\n      dup3\n        /* \"contracts/access/AccessControl.sol\":3806:3813  hasRole */\n      tag_100\n        /* \"contracts/access/AccessControl.sol\":3806:3828  hasRole(role, account) */\n      jump\t// in\n    tag_345:\n        /* \"contracts/access/AccessControl.sol\":3801:4204  if (!hasRole(role, account)) {... */\n      tag_220\n      jumpi\n        /* \"contracts/access/AccessControl.sol\":3989:4030  Strings.toHexString(uint160(account), 20) */\n      tag_347\n        /* \"contracts/access/AccessControl.sol\":4017:4024  account */\n      dup2\n      sub(shl(0xa0, 0x01), 0x01)\n        /* \"contracts/access/AccessControl.sol\":3989:4030  Strings.toHexString(uint160(account), 20) */\n      and\n        /* \"contracts/access/AccessControl.sol\":4027:4029  20 */\n      0x14\n        /* \"contracts/access/AccessControl.sol\":3989:4008  Strings.toHexString */\n      tag_348\n        /* \"contracts/access/AccessControl.sol\":3989:4030  Strings.toHexString(uint160(account), 20) */\n      jump\t// in\n    tag_347:\n        /* \"contracts/access/AccessControl.sol\":4101:4139  Strings.toHexString(uint256(role), 32) */\n      tag_349\n        /* \"contracts/access/AccessControl.sol\":4129:4133  role */\n      dup4\n        /* \"contracts/access/AccessControl.sol\":4136:4138  32 */\n      0x20\n        /* \"contracts/access/AccessControl.sol\":4101:4120  Strings.toHexString */\n      tag_348\n        /* \"contracts/access/AccessControl.sol\":4101:4139  Strings.toHexString(uint256(role), 32) */\n      jump\t// in\n    tag_349:\n        /* \"contracts/access/AccessControl.sol\":3896:4161  abi.encodePacked(... */\n      add(0x20, mload(0x40))\n      tag_350\n      swap3\n      swap2\n      swap1\n      tag_351\n      jump\t// in\n    tag_350:\n      0x40\n      dup1\n      mload\n      not(0x1f)\n      dup2\n      dup5\n      sub\n      add\n      dup2\n      mstore\n      swap1\n      dup3\n      swap1\n      mstore\n      shl(0xe5, 0x461bcd)\n        /* \"contracts/access/AccessControl.sol\":3844:4193  revert(... */\n      dup3\n      mstore\n      tag_191\n      swap2\n      0x04\n      add\n      tag_353\n      jump\t// in\n        /* \"contracts/utils/Strings.sol\":1588:2029  function toHexString(uint256 value, uint256 length) internal pure returns (string memory) {... */\n    tag_348:\n        /* \"contracts/utils/Strings.sol\":1663:1676  string memory */\n      0x60\n        /* \"contracts/utils/Strings.sol\":1688:1707  bytes memory buffer */\n      0x00\n        /* \"contracts/utils/Strings.sol\":1720:1730  2 * length */\n      tag_355\n        /* \"contracts/utils/Strings.sol\":1724:1730  length */\n      dup4\n        /* \"contracts/utils/Strings.sol\":1720:1721  2 */\n      0x02\n        /* \"contracts/utils/Strings.sol\":1720:1730  2 * length */\n      tag_256\n      jump\t// in\n    tag_355:\n        /* \"contracts/utils/Strings.sol\":1720:1734  2 * length + 2 */\n      tag_356\n      swap1\n        /* \"contracts/utils/Strings.sol\":1733:1734  2 */\n      0x02\n        /* \"contracts/utils/Strings.sol\":1720:1734  2 * length + 2 */\n      tag_254\n      jump\t// in\n    tag_356:\n        /* \"contracts/utils/Strings.sol\":1710:1735  new bytes(2 * length + 2) */\n      0xffffffffffffffff\n      dup2\n      gt\n      iszero\n      tag_357\n      jumpi\n      mstore(0x00, shl(0xe0, 0x4e487b71))\n      mstore(0x04, 0x41)\n      revert(0x00, 0x24)\n    tag_357:\n      mload(0x40)\n      swap1\n      dup1\n      dup3\n      mstore\n      dup1\n      0x1f\n      add\n      not(0x1f)\n      and\n      0x20\n      add\n      dup3\n      add\n      0x40\n      mstore\n      dup1\n      iszero\n      tag_358\n      jumpi\n      0x20\n      dup3\n      add\n      dup2\n      dup1\n      calldatasize\n      dup4\n      calldatacopy\n      add\n      swap1\n      pop\n    tag_358:\n      pop\n        /* \"contracts/utils/Strings.sol\":1688:1735  bytes memory buffer = new bytes(2 * length + 2) */\n      swap1\n      pop\n      shl(0xfc, 0x03)\n        /* \"contracts/utils/Strings.sol\":1745:1751  buffer */\n      dup2\n        /* \"contracts/utils/Strings.sol\":1752:1753  0 */\n      0x00\n        /* \"contracts/utils/Strings.sol\":1745:1754  buffer[0] */\n      dup2\n      mload\n      dup2\n      lt\n      tag_359\n      jumpi\n      mstore(0x00, shl(0xe0, 0x4e487b71))\n      mstore(0x04, 0x32)\n      revert(0x00, 0x24)\n    tag_359:\n      0x20\n      add\n      add\n        /* \"contracts/utils/Strings.sol\":1745:1760  buffer[0] = \"0\" */\n      swap1\n      not(sub(shl(0xf8, 0x01), 0x01))\n      and\n      swap1\n      dup2\n      0x00\n      byte\n      swap1\n      mstore8\n      pop\n      shl(0xfb, 0x0f)\n        /* \"contracts/utils/Strings.sol\":1770:1776  buffer */\n      dup2\n        /* \"contracts/utils/Strings.sol\":1777:1778  1 */\n      0x01\n        /* \"contracts/utils/Strings.sol\":1770:1779  buffer[1] */\n      dup2\n      mload\n      dup2\n      lt\n      tag_360\n      jumpi\n      mstore(0x00, shl(0xe0, 0x4e487b71))\n      mstore(0x04, 0x32)\n      revert(0x00, 0x24)\n    tag_360:\n      0x20\n      add\n      add\n        /* \"contracts/utils/Strings.sol\":1770:1785  buffer[1] = \"x\" */\n      swap1\n      not(sub(shl(0xf8, 0x01), 0x01))\n      and\n      swap1\n      dup2\n      0x00\n      byte\n      swap1\n      mstore8\n      pop\n        /* \"contracts/utils/Strings.sol\":1800:1809  uint256 i */\n      0x00\n        /* \"contracts/utils/Strings.sol\":1812:1822  2 * length */\n      tag_364\n        /* \"contracts/utils/Strings.sol\":1816:1822  length */\n      dup5\n        /* \"contracts/utils/Strings.sol\":1812:1813  2 */\n      0x02\n        /* \"contracts/utils/Strings.sol\":1812:1822  2 * length */\n      tag_256\n      jump\t// in\n    tag_364:\n        /* \"contracts/utils/Strings.sol\":1812:1826  2 * length + 1 */\n      tag_365\n      swap1\n        /* \"contracts/utils/Strings.sol\":1825:1826  1 */\n      0x01\n        /* \"contracts/utils/Strings.sol\":1812:1826  2 * length + 1 */\n      tag_254\n      jump\t// in\n    tag_365:\n        /* \"contracts/utils/Strings.sol\":1800:1826  uint256 i = 2 * length + 1 */\n      swap1\n      pop\n        /* \"contracts/utils/Strings.sol\":1795:1927  for (uint256 i = 2 * length + 1; i > 1; --i) {... */\n    tag_361:\n        /* \"contracts/utils/Strings.sol\":1832:1833  1 */\n      0x01\n        /* \"contracts/utils/Strings.sol\":1828:1829  i */\n      dup2\n        /* \"contracts/utils/Strings.sol\":1828:1833  i > 1 */\n      gt\n        /* \"contracts/utils/Strings.sol\":1795:1927  for (uint256 i = 2 * length + 1; i > 1; --i) {... */\n      iszero\n      tag_362\n      jumpi\n      shl(0x81, 0x181899199a1a9b1b9c1cb0b131b232b3)\n        /* \"contracts/utils/Strings.sol\":1879:1884  value */\n      dup6\n        /* \"contracts/utils/Strings.sol\":1887:1890  0xf */\n      0x0f\n        /* \"contracts/utils/Strings.sol\":1879:1890  value & 0xf */\n      and\n        /* \"contracts/utils/Strings.sol\":1866:1891  _HEX_SYMBOLS[value & 0xf] */\n      0x10\n      dup2\n      lt\n      tag_366\n      jumpi\n      mstore(0x00, shl(0xe0, 0x4e487b71))\n      mstore(0x04, 0x32)\n      revert(0x00, 0x24)\n    tag_366:\n      byte\n      0xf8\n      shl\n        /* \"contracts/utils/Strings.sol\":1854:1860  buffer */\n      dup3\n        /* \"contracts/utils/Strings.sol\":1861:1862  i */\n      dup3\n        /* \"contracts/utils/Strings.sol\":1854:1863  buffer[i] */\n      dup2\n      mload\n      dup2\n      lt\n      tag_367\n      jumpi\n      mstore(0x00, shl(0xe0, 0x4e487b71))\n      mstore(0x04, 0x32)\n      revert(0x00, 0x24)\n    tag_367:\n      0x20\n      add\n      add\n        /* \"contracts/utils/Strings.sol\":1854:1891  buffer[i] = _HEX_SYMBOLS[value & 0xf] */\n      swap1\n      not(sub(shl(0xf8, 0x01), 0x01))\n      and\n      swap1\n      dup2\n      0x00\n      byte\n      swap1\n      mstore8\n      pop\n        /* \"contracts/utils/Strings.sol\":1915:1916  4 */\n      0x04\n        /* \"contracts/utils/Strings.sol\":1905:1916  value >>= 4 */\n      swap5\n      swap1\n      swap5\n      shr\n      swap4\n        /* \"contracts/utils/Strings.sol\":1835:1838  --i */\n      tag_368\n      dup2\n      tag_369\n      jump\t// in\n    tag_368:\n      swap1\n      pop\n        /* \"contracts/utils/Strings.sol\":1795:1927  for (uint256 i = 2 * length + 1; i > 1; --i) {... */\n      jump(tag_361)\n    tag_362:\n      pop\n        /* \"contracts/utils/Strings.sol\":1944:1954  value == 0 */\n      dup4\n      iszero\n        /* \"contracts/utils/Strings.sol\":1936:1991  require(value == 0, \"Strings: hex length insufficient\") */\n      tag_339\n      jumpi\n      mload(0x40)\n      shl(0xe5, 0x461bcd)\n      dup2\n      mstore\n        /* \"#utility.yul\":7297:7299   */\n      0x20\n        /* \"contracts/utils/Strings.sol\":1936:1991  require(value == 0, \"Strings: hex length insufficient\") */\n      0x04\n      dup3\n      add\n        /* \"#utility.yul\":7279:7300   */\n      dup2\n      swap1\n      mstore\n        /* \"#utility.yul\":7316:7334   */\n      0x24\n      dup3\n      add\n        /* \"#utility.yul\":7309:7339   */\n      mstore\n        /* \"#utility.yul\":7375:7409   */\n      0x537472696e67733a20686578206c656e67746820696e73756666696369656e74\n        /* \"#utility.yul\":7355:7373   */\n      0x44\n      dup3\n      add\n        /* \"#utility.yul\":7348:7410   */\n      mstore\n        /* \"#utility.yul\":7427:7445   */\n      0x64\n      add\n        /* \"contracts/utils/Strings.sol\":1936:1991  require(value == 0, \"Strings: hex length insufficient\") */\n      tag_191\n        /* \"#utility.yul\":7269:7451   */\n      jump\n        /* \"#utility.yul\":14:187   */\n    tag_374:\n        /* \"#utility.yul\":82:102   */\n      dup1\n      calldataload\n      sub(shl(0xa0, 0x01), 0x01)\n        /* \"#utility.yul\":131:162   */\n      dup2\n      and\n        /* \"#utility.yul\":121:163   */\n      dup2\n      eq\n        /* \"#utility.yul\":111:113   */\n      tag_376\n      jumpi\n        /* \"#utility.yul\":177:178   */\n      0x00\n        /* \"#utility.yul\":174:175   */\n      dup1\n        /* \"#utility.yul\":167:179   */\n      revert\n        /* \"#utility.yul\":111:113   */\n    tag_376:\n        /* \"#utility.yul\":63:187   */\n      swap2\n      swap1\n      pop\n      jump\t// out\n        /* \"#utility.yul\":192:388   */\n    tag_56:\n        /* \"#utility.yul\":251:257   */\n      0x00\n        /* \"#utility.yul\":304:306   */\n      0x20\n        /* \"#utility.yul\":292:301   */\n      dup3\n        /* \"#utility.yul\":283:290   */\n      dup5\n        /* \"#utility.yul\":279:302   */\n      sub\n        /* \"#utility.yul\":275:307   */\n      slt\n        /* \"#utility.yul\":272:274   */\n      iszero\n      tag_378\n      jumpi\n        /* \"#utility.yul\":325:331   */\n      dup1\n        /* \"#utility.yul\":317:323   */\n      dup2\n        /* \"#utility.yul\":310:332   */\n      revert\n        /* \"#utility.yul\":272:274   */\n    tag_378:\n        /* \"#utility.yul\":353:382   */\n      tag_339\n        /* \"#utility.yul\":372:381   */\n      dup3\n        /* \"#utility.yul\":353:382   */\n      tag_374\n      jump\t// in\n        /* \"#utility.yul\":393:786   */\n    tag_52:\n        /* \"#utility.yul\":467:473   */\n      0x00\n        /* \"#utility.yul\":475:481   */\n      dup1\n        /* \"#utility.yul\":483:489   */\n      0x00\n        /* \"#utility.yul\":536:538   */\n      0x60\n        /* \"#utility.yul\":524:533   */\n      dup5\n        /* \"#utility.yul\":515:522   */\n      dup7\n        /* \"#utility.yul\":511:534   */\n      sub\n        /* \"#utility.yul\":507:539   */\n      slt\n        /* \"#utility.yul\":504:506   */\n      iszero\n      tag_381\n      jumpi\n        /* \"#utility.yul\":557:563   */\n      dup2\n        /* \"#utility.yul\":549:555   */\n      dup3\n        /* \"#utility.yul\":542:564   */\n      revert\n        /* \"#utility.yul\":504:506   */\n    tag_381:\n        /* \"#utility.yul\":585:614   */\n      tag_382\n        /* \"#utility.yul\":604:613   */\n      dup5\n        /* \"#utility.yul\":585:614   */\n      tag_374\n      jump\t// in\n    tag_382:\n        /* \"#utility.yul\":575:614   */\n      swap3\n      pop\n        /* \"#utility.yul\":661:663   */\n      0x20\n        /* \"#utility.yul\":650:659   */\n      dup5\n        /* \"#utility.yul\":646:664   */\n      add\n        /* \"#utility.yul\":633:665   */\n      calldataload\n        /* \"#utility.yul\":623:665   */\n      swap2\n      pop\n        /* \"#utility.yul\":715:717   */\n      0x40\n        /* \"#utility.yul\":704:713   */\n      dup5\n        /* \"#utility.yul\":700:718   */\n      add\n        /* \"#utility.yul\":687:719   */\n      calldataload\n        /* \"#utility.yul\":728:756   */\n      tag_383\n        /* \"#utility.yul\":750:755   */\n      dup2\n        /* \"#utility.yul\":728:756   */\n      tag_384\n      jump\t// in\n    tag_383:\n        /* \"#utility.yul\":775:780   */\n      dup1\n        /* \"#utility.yul\":765:780   */\n      swap2\n      pop\n      pop\n        /* \"#utility.yul\":494:786   */\n      swap3\n      pop\n      swap3\n      pop\n      swap3\n      jump\t// out\n        /* \"#utility.yul\":791:1046   */\n    tag_172:\n        /* \"#utility.yul\":858:864   */\n      0x00\n        /* \"#utility.yul\":911:913   */\n      0x20\n        /* \"#utility.yul\":899:908   */\n      dup3\n        /* \"#utility.yul\":890:897   */\n      dup5\n        /* \"#utility.yul\":886:909   */\n      sub\n        /* \"#utility.yul\":882:914   */\n      slt\n        /* \"#utility.yul\":879:881   */\n      iszero\n      tag_386\n      jumpi\n        /* \"#utility.yul\":932:938   */\n      dup1\n        /* \"#utility.yul\":924:930   */\n      dup2\n        /* \"#utility.yul\":917:939   */\n      revert\n        /* \"#utility.yul\":879:881   */\n    tag_386:\n        /* \"#utility.yul\":969:978   */\n      dup2\n        /* \"#utility.yul\":963:979   */\n      mload\n        /* \"#utility.yul\":988:1016   */\n      tag_339\n        /* \"#utility.yul\":1010:1015   */\n      dup2\n        /* \"#utility.yul\":988:1016   */\n      tag_384\n      jump\t// in\n        /* \"#utility.yul\":1051:1241   */\n    tag_63:\n        /* \"#utility.yul\":1110:1116   */\n      0x00\n        /* \"#utility.yul\":1163:1165   */\n      0x20\n        /* \"#utility.yul\":1151:1160   */\n      dup3\n        /* \"#utility.yul\":1142:1149   */\n      dup5\n        /* \"#utility.yul\":1138:1161   */\n      sub\n        /* \"#utility.yul\":1134:1166   */\n      slt\n        /* \"#utility.yul\":1131:1133   */\n      iszero\n      tag_389\n      jumpi\n        /* \"#utility.yul\":1184:1190   */\n      dup1\n        /* \"#utility.yul\":1176:1182   */\n      dup2\n        /* \"#utility.yul\":1169:1191   */\n      revert\n        /* \"#utility.yul\":1131:1133   */\n    tag_389:\n      pop\n        /* \"#utility.yul\":1212:1235   */\n      calldataload\n      swap2\n        /* \"#utility.yul\":1121:1241   */\n      swap1\n      pop\n      jump\t// out\n        /* \"#utility.yul\":1246:1510   */\n    tag_79:\n        /* \"#utility.yul\":1314:1320   */\n      0x00\n        /* \"#utility.yul\":1322:1328   */\n      dup1\n        /* \"#utility.yul\":1375:1377   */\n      0x40\n        /* \"#utility.yul\":1363:1372   */\n      dup4\n        /* \"#utility.yul\":1354:1361   */\n      dup6\n        /* \"#utility.yul\":1350:1373   */\n      sub\n        /* \"#utility.yul\":1346:1378   */\n      slt\n        /* \"#utility.yul\":1343:1345   */\n      iszero\n      tag_391\n      jumpi\n        /* \"#utility.yul\":1396:1402   */\n      dup2\n        /* \"#utility.yul\":1388:1394   */\n      dup3\n        /* \"#utility.yul\":1381:1403   */\n      revert\n        /* \"#utility.yul\":1343:1345   */\n    tag_391:\n        /* \"#utility.yul\":1437:1446   */\n      dup3\n        /* \"#utility.yul\":1424:1447   */\n      calldataload\n        /* \"#utility.yul\":1414:1447   */\n      swap2\n      pop\n        /* \"#utility.yul\":1466:1504   */\n      tag_392\n        /* \"#utility.yul\":1500:1502   */\n      0x20\n        /* \"#utility.yul\":1489:1498   */\n      dup5\n        /* \"#utility.yul\":1485:1503   */\n      add\n        /* \"#utility.yul\":1466:1504   */\n      tag_374\n      jump\t// in\n    tag_392:\n        /* \"#utility.yul\":1456:1504   */\n      swap1\n      pop\n        /* \"#utility.yul\":1333:1510   */\n      swap3\n      pop\n      swap3\n      swap1\n      pop\n      jump\t// out\n        /* \"#utility.yul\":1515:1821   */\n    tag_46:\n        /* \"#utility.yul\":1573:1579   */\n      0x00\n        /* \"#utility.yul\":1626:1628   */\n      0x20\n        /* \"#utility.yul\":1614:1623   */\n      dup3\n        /* \"#utility.yul\":1605:1612   */\n      dup5\n        /* \"#utility.yul\":1601:1624   */\n      sub\n        /* \"#utility.yul\":1597:1629   */\n      slt\n        /* \"#utility.yul\":1594:1596   */\n      iszero\n      tag_394\n      jumpi\n        /* \"#utility.yul\":1647:1653   */\n      dup1\n        /* \"#utility.yul\":1639:1645   */\n      dup2\n        /* \"#utility.yul\":1632:1654   */\n      revert\n        /* \"#utility.yul\":1594:1596   */\n    tag_394:\n        /* \"#utility.yul\":1678:1701   */\n      dup2\n      calldataload\n      not(sub(shl(0xe0, 0x01), 0x01))\n        /* \"#utility.yul\":1730:1762   */\n      dup2\n      and\n        /* \"#utility.yul\":1720:1763   */\n      dup2\n      eq\n        /* \"#utility.yul\":1710:1712   */\n      tag_339\n      jumpi\n        /* \"#utility.yul\":1782:1788   */\n      dup2\n        /* \"#utility.yul\":1774:1780   */\n      dup3\n        /* \"#utility.yul\":1767:1789   */\n      revert\n        /* \"#utility.yul\":2021:2215   */\n    tag_181:\n        /* \"#utility.yul\":2091:2097   */\n      0x00\n        /* \"#utility.yul\":2144:2146   */\n      0x20\n        /* \"#utility.yul\":2132:2141   */\n      dup3\n        /* \"#utility.yul\":2123:2130   */\n      dup5\n        /* \"#utility.yul\":2119:2142   */\n      sub\n        /* \"#utility.yul\":2115:2147   */\n      slt\n        /* \"#utility.yul\":2112:2114   */\n      iszero\n      tag_399\n      jumpi\n        /* \"#utility.yul\":2165:2171   */\n      dup1\n        /* \"#utility.yul\":2157:2163   */\n      dup2\n        /* \"#utility.yul\":2150:2172   */\n      revert\n        /* \"#utility.yul\":2112:2114   */\n    tag_399:\n      pop\n        /* \"#utility.yul\":2193:2209   */\n      mload\n      swap2\n        /* \"#utility.yul\":2102:2215   */\n      swap1\n      pop\n      jump\t// out\n        /* \"#utility.yul\":2489:3020   */\n    tag_150:\n        /* \"#utility.yul\":2581:2587   */\n      0x00\n        /* \"#utility.yul\":2589:2595   */\n      dup1\n        /* \"#utility.yul\":2597:2603   */\n      0x00\n        /* \"#utility.yul\":2605:2611   */\n      dup1\n        /* \"#utility.yul\":2613:2619   */\n      0x00\n        /* \"#utility.yul\":2666:2669   */\n      0xa0\n        /* \"#utility.yul\":2654:2663   */\n      dup7\n        /* \"#utility.yul\":2645:2652   */\n      dup9\n        /* \"#utility.yul\":2641:2664   */\n      sub\n        /* \"#utility.yul\":2637:2670   */\n      slt\n        /* \"#utility.yul\":2634:2636   */\n      iszero\n      tag_404\n      jumpi\n        /* \"#utility.yul\":2688:2694   */\n      dup1\n        /* \"#utility.yul\":2680:2686   */\n      dup2\n        /* \"#utility.yul\":2673:2695   */\n      revert\n        /* \"#utility.yul\":2634:2636   */\n    tag_404:\n        /* \"#utility.yul\":2729:2738   */\n      dup6\n        /* \"#utility.yul\":2716:2739   */\n      calldataload\n        /* \"#utility.yul\":2706:2739   */\n      swap5\n      pop\n        /* \"#utility.yul\":2786:2788   */\n      0x20\n        /* \"#utility.yul\":2775:2784   */\n      dup7\n        /* \"#utility.yul\":2771:2789   */\n      add\n        /* \"#utility.yul\":2758:2790   */\n      calldataload\n        /* \"#utility.yul\":2748:2790   */\n      swap4\n      pop\n        /* \"#utility.yul\":2809:2847   */\n      tag_405\n        /* \"#utility.yul\":2843:2845   */\n      0x40\n        /* \"#utility.yul\":2832:2841   */\n      dup8\n        /* \"#utility.yul\":2828:2846   */\n      add\n        /* \"#utility.yul\":2809:2847   */\n      tag_374\n      jump\t// in\n    tag_405:\n        /* \"#utility.yul\":2799:2847   */\n      swap3\n      pop\n        /* \"#utility.yul\":2894:2896   */\n      0x60\n        /* \"#utility.yul\":2883:2892   */\n      dup7\n        /* \"#utility.yul\":2879:2897   */\n      add\n        /* \"#utility.yul\":2866:2898   */\n      calldataload\n        /* \"#utility.yul\":2856:2898   */\n      swap2\n      pop\n        /* \"#utility.yul\":2948:2951   */\n      0x80\n        /* \"#utility.yul\":2937:2946   */\n      dup7\n        /* \"#utility.yul\":2933:2952   */\n      add\n        /* \"#utility.yul\":2920:2953   */\n      calldataload\n        /* \"#utility.yul\":2962:2990   */\n      tag_406\n        /* \"#utility.yul\":2984:2989   */\n      dup2\n        /* \"#utility.yul\":2962:2990   */\n      tag_384\n      jump\t// in\n    tag_406:\n        /* \"#utility.yul\":3009:3014   */\n      dup1\n        /* \"#utility.yul\":2999:3014   */\n      swap2\n      pop\n      pop\n        /* \"#utility.yul\":2624:3020   */\n      swap3\n      swap6\n      pop\n      swap3\n      swap6\n      swap1\n      swap4\n      pop\n      jump\t// out\n        /* \"#utility.yul\":3025:3811   */\n    tag_351:\n        /* \"#utility.yul\":3436:3461   */\n      0x416363657373436f6e74726f6c3a206163636f756e7420000000000000000000\n        /* \"#utility.yul\":3431:3434   */\n      dup2\n        /* \"#utility.yul\":3424:3462   */\n      mstore\n        /* \"#utility.yul\":3406:3409   */\n      0x00\n        /* \"#utility.yul\":3491:3497   */\n      dup4\n        /* \"#utility.yul\":3485:3498   */\n      mload\n        /* \"#utility.yul\":3507:3569   */\n      tag_408\n        /* \"#utility.yul\":3562:3568   */\n      dup2\n        /* \"#utility.yul\":3557:3559   */\n      0x17\n        /* \"#utility.yul\":3552:3555   */\n      dup6\n        /* \"#utility.yul\":3548:3560   */\n      add\n        /* \"#utility.yul\":3541:3545   */\n      0x20\n        /* \"#utility.yul\":3533:3539   */\n      dup9\n        /* \"#utility.yul\":3529:3546   */\n      add\n        /* \"#utility.yul\":3507:3569   */\n      tag_409\n      jump\t// in\n    tag_408:\n      shl(0x7d, 0x01034b99036b4b9b9b4b733903937b6329)\n        /* \"#utility.yul\":3628:3630   */\n      0x17\n        /* \"#utility.yul\":3588:3604   */\n      swap2\n      dup5\n      add\n        /* \"#utility.yul\":3620:3631   */\n      swap2\n      dup3\n      add\n        /* \"#utility.yul\":3613:3653   */\n      mstore\n        /* \"#utility.yul\":3678:3691   */\n      dup4\n      mload\n        /* \"#utility.yul\":3700:3763   */\n      tag_410\n        /* \"#utility.yul\":3678:3691   */\n      dup2\n        /* \"#utility.yul\":3749:3751   */\n      0x28\n        /* \"#utility.yul\":3741:3752   */\n      dup5\n      add\n        /* \"#utility.yul\":3734:3738   */\n      0x20\n        /* \"#utility.yul\":3722:3739   */\n      dup9\n      add\n        /* \"#utility.yul\":3700:3763   */\n      tag_409\n      jump\t// in\n    tag_410:\n        /* \"#utility.yul\":3783:3800   */\n      add\n        /* \"#utility.yul\":3802:3804   */\n      0x28\n        /* \"#utility.yul\":3779:3805   */\n      add\n      swap5\n        /* \"#utility.yul\":3414:3811   */\n      swap4\n      pop\n      pop\n      pop\n      pop\n      jump\t// out\n        /* \"#utility.yul\":6707:7090   */\n    tag_353:\n        /* \"#utility.yul\":6856:6858   */\n      0x20\n        /* \"#utility.yul\":6845:6854   */\n      dup2\n        /* \"#utility.yul\":6838:6859   */\n      mstore\n        /* \"#utility.yul\":6819:6823   */\n      0x00\n        /* \"#utility.yul\":6888:6894   */\n      dup3\n        /* \"#utility.yul\":6882:6895   */\n      mload\n        /* \"#utility.yul\":6931:6937   */\n      dup1\n        /* \"#utility.yul\":6926:6928   */\n      0x20\n        /* \"#utility.yul\":6915:6924   */\n      dup5\n        /* \"#utility.yul\":6911:6929   */\n      add\n        /* \"#utility.yul\":6904:6938   */\n      mstore\n        /* \"#utility.yul\":6947:7013   */\n      tag_421\n        /* \"#utility.yul\":7006:7012   */\n      dup2\n        /* \"#utility.yul\":7001:7003   */\n      0x40\n        /* \"#utility.yul\":6990:6999   */\n      dup6\n        /* \"#utility.yul\":6986:7004   */\n      add\n        /* \"#utility.yul\":6981:6983   */\n      0x20\n        /* \"#utility.yul\":6973:6979   */\n      dup8\n        /* \"#utility.yul\":6969:6984   */\n      add\n        /* \"#utility.yul\":6947:7013   */\n      tag_409\n      jump\t// in\n    tag_421:\n        /* \"#utility.yul\":7074:7076   */\n      0x1f\n        /* \"#utility.yul\":7053:7068   */\n      add\n      not(0x1f)\n        /* \"#utility.yul\":7049:7078   */\n      and\n        /* \"#utility.yul\":7034:7079   */\n      swap2\n      swap1\n      swap2\n      add\n        /* \"#utility.yul\":7081:7083   */\n      0x40\n        /* \"#utility.yul\":7030:7084   */\n      add\n      swap3\n        /* \"#utility.yul\":6828:7090   */\n      swap2\n      pop\n      pop\n      jump\t// out\n        /* \"#utility.yul\":13265:13393   */\n    tag_254:\n        /* \"#utility.yul\":13305:13308   */\n      0x00\n        /* \"#utility.yul\":13336:13337   */\n      dup3\n        /* \"#utility.yul\":13332:13338   */\n      not\n        /* \"#utility.yul\":13329:13330   */\n      dup3\n        /* \"#utility.yul\":13326:13339   */\n      gt\n        /* \"#utility.yul\":13323:13325   */\n      iszero\n      tag_440\n      jumpi\n        /* \"#utility.yul\":13342:13360   */\n      tag_440\n      tag_441\n      jump\t// in\n    tag_440:\n      pop\n        /* \"#utility.yul\":13378:13387   */\n      add\n      swap1\n        /* \"#utility.yul\":13313:13393   */\n      jump\t// out\n        /* \"#utility.yul\":13398:13615   */\n    tag_258:\n        /* \"#utility.yul\":13438:13439   */\n      0x00\n        /* \"#utility.yul\":13464:13465   */\n      dup3\n        /* \"#utility.yul\":13454:13456   */\n      tag_443\n      jumpi\n      shl(0xe0, 0x4e487b71)\n        /* \"#utility.yul\":13489:13520   */\n      dup2\n      mstore\n        /* \"#utility.yul\":13543:13547   */\n      0x12\n        /* \"#utility.yul\":13540:13541   */\n      0x04\n        /* \"#utility.yul\":13533:13548   */\n      mstore\n        /* \"#utility.yul\":13571:13575   */\n      0x24\n        /* \"#utility.yul\":13496:13497   */\n      dup2\n        /* \"#utility.yul\":13561:13576   */\n      revert\n        /* \"#utility.yul\":13454:13456   */\n    tag_443:\n      pop\n        /* \"#utility.yul\":13600:13609   */\n      div\n      swap1\n        /* \"#utility.yul\":13444:13615   */\n      jump\t// out\n        /* \"#utility.yul\":13620:13788   */\n    tag_256:\n        /* \"#utility.yul\":13660:13667   */\n      0x00\n        /* \"#utility.yul\":13726:13727   */\n      dup2\n        /* \"#utility.yul\":13722:13723   */\n      0x00\n        /* \"#utility.yul\":13718:13724   */\n      not\n        /* \"#utility.yul\":13714:13728   */\n      div\n        /* \"#utility.yul\":13711:13712   */\n      dup4\n        /* \"#utility.yul\":13708:13729   */\n      gt\n        /* \"#utility.yul\":13703:13704   */\n      dup3\n        /* \"#utility.yul\":13696:13705   */\n      iszero\n        /* \"#utility.yul\":13689:13706   */\n      iszero\n        /* \"#utility.yul\":13685:13730   */\n      and\n        /* \"#utility.yul\":13682:13684   */\n      iszero\n      tag_446\n      jumpi\n        /* \"#utility.yul\":13733:13751   */\n      tag_446\n      tag_441\n      jump\t// in\n    tag_446:\n      pop\n        /* \"#utility.yul\":13773:13782   */\n      mul\n      swap1\n        /* \"#utility.yul\":13672:13788   */\n      jump\t// out\n        /* \"#utility.yul\":13793:13918   */\n    tag_241:\n        /* \"#utility.yul\":13833:13837   */\n      0x00\n        /* \"#utility.yul\":13861:13862   */\n      dup3\n        /* \"#utility.yul\":13858:13859   */\n      dup3\n        /* \"#utility.yul\":13855:13863   */\n      lt\n        /* \"#utility.yul\":13852:13854   */\n      iszero\n      tag_449\n      jumpi\n        /* \"#utility.yul\":13866:13884   */\n      tag_449\n      tag_441\n      jump\t// in\n    tag_449:\n      pop\n        /* \"#utility.yul\":13903:13912   */\n      sub\n      swap1\n        /* \"#utility.yul\":13842:13918   */\n      jump\t// out\n        /* \"#utility.yul\":13923:14181   */\n    tag_409:\n        /* \"#utility.yul\":13995:13996   */\n      0x00\n        /* \"#utility.yul\":14005:14118   */\n    tag_451:\n        /* \"#utility.yul\":14019:14025   */\n      dup4\n        /* \"#utility.yul\":14016:14017   */\n      dup2\n        /* \"#utility.yul\":14013:14026   */\n      lt\n        /* \"#utility.yul\":14005:14118   */\n      iszero\n      tag_453\n      jumpi\n        /* \"#utility.yul\":14095:14106   */\n      dup2\n      dup2\n      add\n        /* \"#utility.yul\":14089:14107   */\n      mload\n        /* \"#utility.yul\":14076:14087   */\n      dup4\n      dup3\n      add\n        /* \"#utility.yul\":14069:14108   */\n      mstore\n        /* \"#utility.yul\":14041:14043   */\n      0x20\n        /* \"#utility.yul\":14034:14044   */\n      add\n        /* \"#utility.yul\":14005:14118   */\n      jump(tag_451)\n    tag_453:\n        /* \"#utility.yul\":14136:14142   */\n      dup4\n        /* \"#utility.yul\":14133:14134   */\n      dup2\n        /* \"#utility.yul\":14130:14143   */\n      gt\n        /* \"#utility.yul\":14127:14129   */\n      iszero\n      tag_454\n      jumpi\n        /* \"#utility.yul\":14171:14172   */\n      0x00\n        /* \"#utility.yul\":14162:14168   */\n      dup5\n        /* \"#utility.yul\":14157:14160   */\n      dup5\n        /* \"#utility.yul\":14153:14169   */\n      add\n        /* \"#utility.yul\":14146:14173   */\n      mstore\n        /* \"#utility.yul\":14127:14129   */\n    tag_454:\n      pop\n        /* \"#utility.yul\":13976:14181   */\n      pop\n      pop\n      pop\n      jump\t// out\n        /* \"#utility.yul\":14186:14322   */\n    tag_369:\n        /* \"#utility.yul\":14225:14228   */\n      0x00\n        /* \"#utility.yul\":14253:14258   */\n      dup2\n        /* \"#utility.yul\":14243:14245   */\n      tag_457\n      jumpi\n        /* \"#utility.yul\":14262:14280   */\n      tag_457\n      tag_441\n      jump\t// in\n    tag_457:\n      pop\n      not(0x00)\n        /* \"#utility.yul\":14298:14316   */\n      add\n      swap1\n        /* \"#utility.yul\":14233:14322   */\n      jump\t// out\n        /* \"#utility.yul\":14327:14454   */\n    tag_441:\n        /* \"#utility.yul\":14388:14398   */\n      0x4e487b71\n        /* \"#utility.yul\":14383:14386   */\n      0xe0\n        /* \"#utility.yul\":14379:14399   */\n      shl\n        /* \"#utility.yul\":14376:14377   */\n      0x00\n        /* \"#utility.yul\":14369:14400   */\n      mstore\n        /* \"#utility.yul\":14419:14423   */\n      0x11\n        /* \"#utility.yul\":14416:14417   */\n      0x04\n        /* \"#utility.yul\":14409:14424   */\n      mstore\n        /* \"#utility.yul\":14443:14447   */\n      0x24\n        /* \"#utility.yul\":14440:14441   */\n      0x00\n        /* \"#utility.yul\":14433:14448   */\n      revert\n        /* \"#utility.yul\":14459:14577   */\n    tag_384:\n        /* \"#utility.yul\":14545:14550   */\n      dup1\n        /* \"#utility.yul\":14538:14551   */\n      iszero\n        /* \"#utility.yul\":14531:14552   */\n      iszero\n        /* \"#utility.yul\":14524:14529   */\n      dup2\n        /* \"#utility.yul\":14521:14553   */\n      eq\n        /* \"#utility.yul\":14511:14513   */\n      tag_318\n      jumpi\n        /* \"#utility.yul\":14567:14568   */\n      0x00\n        /* \"#utility.yul\":14564:14565   */\n      dup1\n        /* \"#utility.yul\":14557:14569   */\n      revert\n    stop\n    data_023264abf97b17654b97d38bd81099eb2064d5cca6dbd4e398ff8bdbab67b82d 3131fc8beb48b895197ad34f21c86afdf6a989a5cd911181952dbf8dfcf18192\n    data_806db7640bcc104a4b7b53ebc0c09b63eefd92fe89197bc684d91aa66a17455c 3c13b5abbc85050d426f9500a16cfd9f7d94261c880b9a4e03d584d28c06059c\n\n    auxdata: 0xa26469706673582212200e92a2ea1f294eece114ab0375d7d06ccdf4f6ace7fb5e54311df3b139d0653364736f6c63430008040033\n}\n",
				"bytecode": {
					"linkReferences": {},
					"object": "6080604052601260038190556200001890600a620001af565b6005553480156200002857600080fd5b5062000036600033620000b2565b620000627f3131fc8beb48b895197ad34f21c86afdf6a989a5cd911181952dbf8dfcf1819233620000b2565b6200008e7f3c13b5abbc85050d426f9500a16cfd9f7d94261c880b9a4e03d584d28c06059c33620000b2565b600680546001600160a01b0319163317905567016345785d8a00006004556200028e565b620000be82826200013b565b62000137576000828152602081815260408083206001600160a01b03851684529091529020805460ff19166001179055620000f63390565b6001600160a01b0316816001600160a01b0316837f2f8788117e7eff1d82e926ec794901d17c78024a50270940304540a733656f0d60405160405180910390a45b5050565b6000828152602081815260408083206001600160a01b038516845290915290205460ff165b92915050565b600181815b80851115620001a75781600019048211156200018b576200018b62000278565b808516156200019957918102915b93841c93908002906200016b565b509250929050565b6000620001bd8383620001c4565b9392505050565b600082620001d55750600162000160565b81620001e45750600062000160565b8160018114620001fd5760028114620002085762000228565b600191505062000160565b60ff8411156200021c576200021c62000278565b50506001821b62000160565b5060208310610133831016604e8410600b84101617156200024d575081810a62000160565b62000259838362000166565b806000190482111562000270576200027062000278565b029392505050565b634e487b7160e01b600052601160045260246000fd5b611dad806200029e6000396000f3fe608060405234801561001057600080fd5b50600436106101d95760003560e01c806391d1485411610104578063b9888d89116100a2578063d547741f11610071578063d547741f14610514578063e6f091f914610527578063f207564e1461055a578063f336ee3c1461056d57600080fd5b8063b9888d8914610448578063c18e397e1461045b578063c46ed45a14610470578063ccaf237f1461047957600080fd5b80639d00c61e116100de5780639d00c61e146103795780639f512e22146103cb578063a217fddf146103de578063b22c376d146103e657600080fd5b806391d148541461033e57806399597b70146103515780639c6236831461036657600080fd5b80632ba671001161017c57806336568abe1161014b57806336568abe146102da5780633e16518f146102ed5780637ad226dc146103005780638da5cb5b1461031357600080fd5b80632ba67100146102985780632d6ef310146102ab5780632f2ff15d146102be578063313ce567146102d157600080fd5b806309a18635116101b857806309a186351461022e578063248a55a114610241578063248a9ca3146102545780632ac5016f1461028557600080fd5b8062f5544f146101de57806301ffc9a7146101f357806306602a481461021b575b600080fd5b6101f16101ec366004611ae0565b610580565b005b610206610201366004611b23565b6105ec565b60405190151581526020015b60405180910390f35b6101f1610229366004611a85565b610623565b6101f161023c366004611a6b565b610711565b6101f161024f366004611ae0565b6108b8565b610277610262366004611ae0565b60009081526020819052604090206001015490565b604051908152602001610212565b6101f1610293366004611ae0565b61094b565b6101f16102a6366004611af8565b610969565b6101f16102b9366004611ae0565b6109e2565b6101f16102cc366004611af8565b610a40565b61027760035481565b6101f16102e8366004611af8565b610a65565b6101f16102fb366004611a6b565b610ae3565b6101f161030e366004611af8565b610b20565b600654610326906001600160a01b031681565b6040516001600160a01b039091168152602001610212565b61020661034c366004611af8565b610d98565b610277600080516020611d5883398151915281565b6101f1610374366004611af8565b610dc1565b6103b4610387366004611a6b565b6001600160a01b031660009081526001602081905260409091208054910154600160a01b90910460ff1691565b604080519215158352602083019190915201610212565b6101f16103d9366004611ae0565b6110ae565b610277600081565b6104236103f4366004611a6b565b600160208190526000918252604090912080549101546001600160a01b03821691600160a01b900460ff169083565b604080516001600160a01b039094168452911515602084015290820152606001610212565b6101f1610456366004611af8565b611104565b610277600080516020611d3883398151915281565b61027760045481565b6104d4610487366004611ae0565b6002602081905260009182526040909120805460018201549282015460038301546004840154600585015460069095015460ff90941695949293919290916001600160a01b039091169087565b604080519715158852602088019690965294860193909352606085019190915260808401526001600160a01b031660a083015260c082015260e001610212565b6101f1610522366004611af8565b6111fe565b610206610535366004611a6b565b6001600160a01b0316600090815260016020526040902054600160a01b900460ff1690565b6101f1610568366004611ae0565b611223565b6101f161057b366004611b63565b6115aa565b600080516020611d5883398151915261059881611657565b600082815260026020526040908190206001600490910155517f651a9760985edc53055bf2462cb4437b9be3de87aa3eecf2c05782e8b58eba19906105e09084815260200190565b60405180910390a15050565b60006001600160e01b03198216637965db0b60e01b148061061d57506301ffc9a760e01b6001600160e01b03198316145b92915050565b600080516020611d3883398151915261063b81611657565b6001600160a01b038416600081815260016020819052604090912090810185905580546001600160a81b031916600160a01b851515026001600160a01b0319161782179055849063095ea7b3336040516001600160e01b031960e084901b1681526001600160a01b0390911660048201526000196024820152604401602060405180830381600087803b1580156106d157600080fd5b505af11580156106e5573d6000803e3d6000fd5b505050506040513d601f19601f820116820180604052508101906107099190611ac4565b505050505050565b600061071c81611657565b6001600160a01b038281166000908152600160205260408082205490516370a0823160e01b8152306004820152919216906370a082319060240160206040518083038186803b15801561076e57600080fd5b505afa158015610782573d6000803e3d6000fd5b505050506040513d601f19601f820116820180604052508101906107a69190611b4b565b905080156108b3576001600160a01b038381166000908152600160205260409020541663a9059cbb336040516001600160e01b031960e084901b1681526001600160a01b03909116600482015260248101849052604401602060405180830381600087803b15801561081757600080fd5b505af115801561082b573d6000803e3d6000fd5b505050506040513d601f19601f8201168201806040525081019061084f9190611ac4565b6108b35760405162461bcd60e51b815260206004820152602a60248201527f54726f706879204b696e67204172636164653a205265636f6e63696c6961746960448201526937b7103330b4b632b21760b11b60648201526084015b60405180910390fd5b505050565b600080516020611d588339815191526108d081611657565b6000828152600260208181526040808420805460ff191681556001810185905592830184905560038301849055600483018490556005830180546001600160a01b0319169055600690920192909255518381527fd0b153e02e23f4f21d020465b4dac7b1114893d05db395ed2511f879c3ac90b491016105e0565b600080516020611d3883398151915261096381611657565b50600455565b600080516020611d5883398151915261098181611657565b60008381526002602090815260408083206001600160a01b0386168085526009909101835281842093909355519182527f34aeefd5030be05fe70eebc8866d82f935a308eb9f334cba88f5e3bea1a0cae891015b60405180910390a1505050565b600080516020611d588339815191526109fa81611657565b60008281526002602052604080822060040191909155517f827e8bff9f46048f8351964d2c871d09e4f4231513cf2fcb786649c68732e24f906105e09084815260200190565b600082815260208190526040902060010154610a5b81611657565b6108b38383611661565b6001600160a01b0381163314610ad55760405162461bcd60e51b815260206004820152602f60248201527f416363657373436f6e74726f6c3a2063616e206f6e6c792072656e6f756e636560448201526e103937b632b9903337b91039b2b63360891b60648201526084016108aa565b610adf82826116e5565b5050565b600080516020611d38833981519152610afb81611657565b506001600160a01b03166000908152600160205260409020805460ff60a01b19169055565b600080516020611d58833981519152610b3881611657565b60008381526002602052604090205460ff166108b35760008381526002602090815260408083206001600160a01b0386168452600801909152902054600114610bdd5760405162461bcd60e51b815260206004820152603160248201527f54726f706879204b696e67204172636164653a204e6f7420726567697374657260448201527032b2103337b9103a3434b99033b0b6b29760791b60648201526084016108aa565b600083815260026020908152604080832060058101546001600160a01b039081168552600190935292819020546003840154915163a9059cbb60e01b8152868416600482015260248101929092529091169063a9059cbb90604401602060405180830381600087803b158015610c5257600080fd5b505af1158015610c66573d6000803e3d6000fd5b505050506040513d601f19601f82011682018060405250810190610c8a9190611ac4565b610ce15760405162461bcd60e51b815260206004820152602260248201527f54726f706879204b696e67204172636164653a20526566756e64206661696c65604482015261321760f11b60648201526084016108aa565b8060030154816006016000828254610cf99190611cb5565b90915550506001600160a01b038316600090815260078201602090815260408083208390556008840190915281208190556001808301805491929091610d40908490611cb5565b90915550506003810154604080518681526001600160a01b038616602082015280820192909252517f21e12a7cad0da5928167e1084ea4d5fdf8d9af66657a2543a9ac76a0ca0814779181900360600190a150505050565b6000918252602082815260408084206001600160a01b0393909316845291905290205460ff1690565b600080516020611d58833981519152610dd981611657565b60008381526002602052604090205460ff166110a55760008381526002602090815260408083206001600160a01b0386168452600801909152902054600114610e7d5760405162461bcd60e51b815260206004820152603060248201527f54726f706879204b696e67204172636164653a204e6f7420726567697374657260448201526f656420666f7220746869732067616d6560801b60648201526084016108aa565b600580546004546000868152600260209081526040808320909501546001600160a01b03168252600190819052938120909301548291610ebc91611c5e565b600087815260026020526040902060060154610ed89190611c96565b610ee29190611c76565b610eec9190611c76565b60008581526002602052604081206006015491925090610f0c908361174a565b90504781811015610f1b578091505b6000868152600260209081526040808320600501546001600160a01b03908116845260019092529182902054915163a9059cbb60e01b815287821660048201526024810185905291169063a9059cbb90604401602060405180830381600087803b158015610f8857600080fd5b505af1158015610f9c573d6000803e3d6000fd5b505050506040513d601f19601f82011682018060405250810190610fc09190611ac4565b6110175760405162461bcd60e51b815260206004820152602260248201527f54726f706879204b696e67204172636164653a205061796f7574206661696c65604482015261321760f11b60648201526084016108aa565b60008681526002602090815260408083206001600160a01b03891684526007018252918290205491519182527f557809284da7314475b1582804ae28e5f1349efc1fe970ea25d50fce75eb4f43910160405180910390a16040518281527f22427047e1a674a9aff59700a2c8d00ea96e017ddf9236690bdedf1f21f28d9d9060200160405180910390a15050505b6108b3836109e2565b60008181526002602090815260408083203380855260099091018352818420939093558051928352517f34aeefd5030be05fe70eebc8866d82f935a308eb9f334cba88f5e3bea1a0cae89281900390910190a150565b600080516020611d5883398151915261111c81611657565b60008381526002602090815260408083206001600160a01b03861684526009019091529020546001141561119e5760405162461bcd60e51b815260206004820152602360248201527f54726f706879204b696e67204172636164653a20416c7265616479207365617460448201526232b21760e91b60648201526084016108aa565b60008381526002602090815260408083206001600160a01b03861680855260099091018352928190206001905580519283529082018590527f9f2deefff0a36949d580cdd4ba9959b4a94786e786bad5650001b58b625fbbb191016109d5565b60008281526020819052604090206001015461121981611657565b6108b383836116e5565b60008181526002602090815260408083203384526009019091529020546001146112995760405162461bcd60e51b815260206004820152602160248201527f54726f706879204b696e67204172636164653a20556e617574686f72697a65646044820152601760f91b60648201526084016108aa565b6000818152600260205260409020600401546001146112fa5760405162461bcd60e51b815260206004820181905260248201527f54726f706879204b696e67204172636164653a2047616d6520636c6f7365642e60448201526064016108aa565b60008181526002602081905260409091206001810154910154116113735760405162461bcd60e51b815260206004820152602a60248201527f54726f706879204b696e67204172636164653a2047616d652066756c6c2e20206044820152692a393c9030b3b0b4b71760b11b60648201526084016108aa565b6000818152600260209081526040808320338452600801909152902054156113ed5760405162461bcd60e51b815260206004820152602760248201527f54726f706879204b696e67204172636164653a20416c7265616479207265676960448201526639ba32b932b21760c91b60648201526084016108aa565b600081815260026020819052604090912001546114585760405162461bcd60e51b815260206004820152602360248201527f54726f706879204b696e67204172636164653a2047616d65206e6f7420666f7560448201526237321760e91b60648201526084016108aa565b6000818152600260209081526040808320600501546001600160a01b039081168452600190925290912054166323b872dd336000848152600260205260409081902060030154905160e084901b6001600160e01b03191681526001600160a01b0390921660048301523060248301526044820152606401602060405180830381600087803b1580156114e957600080fd5b505af11580156114fd573d6000803e3d6000fd5b505050506040513d601f19601f820116820180604052508101906115219190611ac4565b6115885760405162461bcd60e51b815260206004820152603260248201527f54726f706879204b696e67204172636164653a204d75737420617070726f7665604482015271103932b3b4b9ba3930ba34b7b7103332b29760711b60648201526084016108aa565b6000818152600260205260409020600301546115a7908290339061175d565b50565b600080516020611d588339815191526115c281611657565b600086815260026020818152604080842060016004820181905560068201869055600382018b90556005820180546001600160a01b0319166001600160a01b038c16179055810194909455918301869055825460ff191685151517909255518781527f9e5237c6a8bb45df74799cf138ebda4fed0574bed906da41387acdc4a3cbe3d8910160405180910390a1505050505050565b6115a78133611809565b61166b8282610d98565b610adf576000828152602081815260408083206001600160a01b03851684529091529020805460ff191660011790556116a13390565b6001600160a01b0316816001600160a01b0316837f2f8788117e7eff1d82e926ec794901d17c78024a50270940304540a733656f0d60405160405180910390a45050565b6116ef8282610d98565b15610adf576000828152602081815260408083206001600160a01b0385168085529252808320805460ff1916905551339285917ff6391f5c32d9c69d2a47ea670b442974b53935d1edc7fd64eb21e047a839171b9190a45050565b60006117568284611cb5565b9392505050565b60008381526002602052604081206001808201805492939192909190611784908490611c5e565b90915550506001600160a01b03831660009081526007820160209081526040808320859055600884019091528120600190556006820180548492906117ca908490611c5e565b909155505060405184815233907e7dc6ab80cc84c043b7b8d4fcafc802187470087f7ea7fccd2e17aecd0256a19060200160405180910390a250505050565b6118138282610d98565b610adf5761182b816001600160a01b0316601461186d565b61183683602061186d565b604051602001611847929190611bb6565b60408051601f198184030181529082905262461bcd60e51b82526108aa91600401611c2b565b6060600061187c836002611c96565b611887906002611c5e565b67ffffffffffffffff8111156118ad57634e487b7160e01b600052604160045260246000fd5b6040519080825280601f01601f1916602001820160405280156118d7576020820181803683370190505b509050600360fc1b8160008151811061190057634e487b7160e01b600052603260045260246000fd5b60200101906001600160f81b031916908160001a905350600f60fb1b8160018151811061193d57634e487b7160e01b600052603260045260246000fd5b60200101906001600160f81b031916908160001a9053506000611961846002611c96565b61196c906001611c5e565b90505b6001811115611a00576f181899199a1a9b1b9c1cb0b131b232b360811b85600f16601081106119ae57634e487b7160e01b600052603260045260246000fd5b1a60f81b8282815181106119d257634e487b7160e01b600052603260045260246000fd5b60200101906001600160f81b031916908160001a90535060049490941c936119f981611cfc565b905061196f565b5083156117565760405162461bcd60e51b815260206004820181905260248201527f537472696e67733a20686578206c656e67746820696e73756666696369656e7460448201526064016108aa565b80356001600160a01b0381168114611a6657600080fd5b919050565b600060208284031215611a7c578081fd5b61175682611a4f565b600080600060608486031215611a99578182fd5b611aa284611a4f565b9250602084013591506040840135611ab981611d29565b809150509250925092565b600060208284031215611ad5578081fd5b815161175681611d29565b600060208284031215611af1578081fd5b5035919050565b60008060408385031215611b0a578182fd5b82359150611b1a60208401611a4f565b90509250929050565b600060208284031215611b34578081fd5b81356001600160e01b031981168114611756578182fd5b600060208284031215611b5c578081fd5b5051919050565b600080600080600060a08688031215611b7a578081fd5b8535945060208601359350611b9160408701611a4f565b9250606086013591506080860135611ba881611d29565b809150509295509295909350565b7f416363657373436f6e74726f6c3a206163636f756e7420000000000000000000815260008351611bee816017850160208801611ccc565b7001034b99036b4b9b9b4b733903937b6329607d1b6017918401918201528351611c1f816028840160208801611ccc565b01602801949350505050565b6020815260008251806020840152611c4a816040850160208701611ccc565b601f01601f19169190910160400192915050565b60008219821115611c7157611c71611d13565b500190565b600082611c9157634e487b7160e01b81526012600452602481fd5b500490565b6000816000190483118215151615611cb057611cb0611d13565b500290565b600082821015611cc757611cc7611d13565b500390565b60005b83811015611ce7578181015183820152602001611ccf565b83811115611cf6576000848401525b50505050565b600081611d0b57611d0b611d13565b506000190190565b634e487b7160e01b600052601160045260246000fd5b80151581146115a757600080fdfe3131fc8beb48b895197ad34f21c86afdf6a989a5cd911181952dbf8dfcf181923c13b5abbc85050d426f9500a16cfd9f7d94261c880b9a4e03d584d28c06059ca26469706673582212200e92a2ea1f294eece114ab0375d7d06ccdf4f6ace7fb5e54311df3b139d0653364736f6c63430008040033",
					"opcodes": "PUSH1 0x80 PUSH1 0x40 MSTORE PUSH1 0x12 PUSH1 0x3 DUP2 SWAP1 SSTORE PUSH3 0x18 SWAP1 PUSH1 0xA PUSH3 0x1AF JUMP JUMPDEST PUSH1 0x5 SSTORE CALLVALUE DUP1 ISZERO PUSH3 0x28 JUMPI PUSH1 0x0 DUP1 REVERT JUMPDEST POP PUSH3 0x36 PUSH1 0x0 CALLER PUSH3 0xB2 JUMP JUMPDEST PUSH3 0x62 PUSH32 0x3131FC8BEB48B895197AD34F21C86AFDF6A989A5CD911181952DBF8DFCF18192 CALLER PUSH3 0xB2 JUMP JUMPDEST PUSH3 0x8E PUSH32 0x3C13B5ABBC85050D426F9500A16CFD9F7D94261C880B9A4E03D584D28C06059C CALLER PUSH3 0xB2 JUMP JUMPDEST PUSH1 0x6 DUP1 SLOAD PUSH1 0x1 PUSH1 0x1 PUSH1 0xA0 SHL SUB NOT AND CALLER OR SWAP1 SSTORE PUSH8 0x16345785D8A0000 PUSH1 0x4 SSTORE PUSH3 0x28E JUMP JUMPDEST PUSH3 0xBE DUP3 DUP3 PUSH3 0x13B JUMP JUMPDEST PUSH3 0x137 JUMPI PUSH1 0x0 DUP3 DUP2 MSTORE PUSH1 0x20 DUP2 DUP2 MSTORE PUSH1 0x40 DUP1 DUP4 KECCAK256 PUSH1 0x1 PUSH1 0x1 PUSH1 0xA0 SHL SUB DUP6 AND DUP5 MSTORE SWAP1 SWAP2 MSTORE SWAP1 KECCAK256 DUP1 SLOAD PUSH1 0xFF NOT AND PUSH1 0x1 OR SWAP1 SSTORE PUSH3 0xF6 CALLER SWAP1 JUMP JUMPDEST PUSH1 0x1 PUSH1 0x1 PUSH1 0xA0 SHL SUB AND DUP2 PUSH1 0x1 PUSH1 0x1 PUSH1 0xA0 SHL SUB AND DUP4 PUSH32 0x2F8788117E7EFF1D82E926EC794901D17C78024A50270940304540A733656F0D PUSH1 0x40 MLOAD PUSH1 0x40 MLOAD DUP1 SWAP2 SUB SWAP1 LOG4 JUMPDEST POP POP JUMP JUMPDEST PUSH1 0x0 DUP3 DUP2 MSTORE PUSH1 0x20 DUP2 DUP2 MSTORE PUSH1 0x40 DUP1 DUP4 KECCAK256 PUSH1 0x1 PUSH1 0x1 PUSH1 0xA0 SHL SUB DUP6 AND DUP5 MSTORE SWAP1 SWAP2 MSTORE SWAP1 KECCAK256 SLOAD PUSH1 0xFF AND JUMPDEST SWAP3 SWAP2 POP POP JUMP JUMPDEST PUSH1 0x1 DUP2 DUP2 JUMPDEST DUP1 DUP6 GT ISZERO PUSH3 0x1A7 JUMPI DUP2 PUSH1 0x0 NOT DIV DUP3 GT ISZERO PUSH3 0x18B JUMPI PUSH3 0x18B PUSH3 0x278 JUMP JUMPDEST DUP1 DUP6 AND ISZERO PUSH3 0x199 JUMPI SWAP2 DUP2 MUL SWAP2 JUMPDEST SWAP4 DUP5 SHR SWAP4 SWAP1 DUP1 MUL SWAP1 PUSH3 0x16B JUMP JUMPDEST POP SWAP3 POP SWAP3 SWAP1 POP JUMP JUMPDEST PUSH1 0x0 PUSH3 0x1BD DUP4 DUP4 PUSH3 0x1C4 JUMP JUMPDEST SWAP4 SWAP3 POP POP POP JUMP JUMPDEST PUSH1 0x0 DUP3 PUSH3 0x1D5 JUMPI POP PUSH1 0x1 PUSH3 0x160 JUMP JUMPDEST DUP2 PUSH3 0x1E4 JUMPI POP PUSH1 0x0 PUSH3 0x160 JUMP JUMPDEST DUP2 PUSH1 0x1 DUP2 EQ PUSH3 0x1FD JUMPI PUSH1 0x2 DUP2 EQ PUSH3 0x208 JUMPI PUSH3 0x228 JUMP JUMPDEST PUSH1 0x1 SWAP2 POP POP PUSH3 0x160 JUMP JUMPDEST PUSH1 0xFF DUP5 GT ISZERO PUSH3 0x21C JUMPI PUSH3 0x21C PUSH3 0x278 JUMP JUMPDEST POP POP PUSH1 0x1 DUP3 SHL PUSH3 0x160 JUMP JUMPDEST POP PUSH1 0x20 DUP4 LT PUSH2 0x133 DUP4 LT AND PUSH1 0x4E DUP5 LT PUSH1 0xB DUP5 LT AND OR ISZERO PUSH3 0x24D JUMPI POP DUP2 DUP2 EXP PUSH3 0x160 JUMP JUMPDEST PUSH3 0x259 DUP4 DUP4 PUSH3 0x166 JUMP JUMPDEST DUP1 PUSH1 0x0 NOT DIV DUP3 GT ISZERO PUSH3 0x270 JUMPI PUSH3 0x270 PUSH3 0x278 JUMP JUMPDEST MUL SWAP4 SWAP3 POP POP POP JUMP JUMPDEST PUSH4 0x4E487B71 PUSH1 0xE0 SHL PUSH1 0x0 MSTORE PUSH1 0x11 PUSH1 0x4 MSTORE PUSH1 0x24 PUSH1 0x0 REVERT JUMPDEST PUSH2 0x1DAD DUP1 PUSH3 0x29E PUSH1 0x0 CODECOPY PUSH1 0x0 RETURN INVALID PUSH1 0x80 PUSH1 0x40 MSTORE CALLVALUE DUP1 ISZERO PUSH2 0x10 JUMPI PUSH1 0x0 DUP1 REVERT JUMPDEST POP PUSH1 0x4 CALLDATASIZE LT PUSH2 0x1D9 JUMPI PUSH1 0x0 CALLDATALOAD PUSH1 0xE0 SHR DUP1 PUSH4 0x91D14854 GT PUSH2 0x104 JUMPI DUP1 PUSH4 0xB9888D89 GT PUSH2 0xA2 JUMPI DUP1 PUSH4 0xD547741F GT PUSH2 0x71 JUMPI DUP1 PUSH4 0xD547741F EQ PUSH2 0x514 JUMPI DUP1 PUSH4 0xE6F091F9 EQ PUSH2 0x527 JUMPI DUP1 PUSH4 0xF207564E EQ PUSH2 0x55A JUMPI DUP1 PUSH4 0xF336EE3C EQ PUSH2 0x56D JUMPI PUSH1 0x0 DUP1 REVERT JUMPDEST DUP1 PUSH4 0xB9888D89 EQ PUSH2 0x448 JUMPI DUP1 PUSH4 0xC18E397E EQ PUSH2 0x45B JUMPI DUP1 PUSH4 0xC46ED45A EQ PUSH2 0x470 JUMPI DUP1 PUSH4 0xCCAF237F EQ PUSH2 0x479 JUMPI PUSH1 0x0 DUP1 REVERT JUMPDEST DUP1 PUSH4 0x9D00C61E GT PUSH2 0xDE JUMPI DUP1 PUSH4 0x9D00C61E EQ PUSH2 0x379 JUMPI DUP1 PUSH4 0x9F512E22 EQ PUSH2 0x3CB JUMPI DUP1 PUSH4 0xA217FDDF EQ PUSH2 0x3DE JUMPI DUP1 PUSH4 0xB22C376D EQ PUSH2 0x3E6 JUMPI PUSH1 0x0 DUP1 REVERT JUMPDEST DUP1 PUSH4 0x91D14854 EQ PUSH2 0x33E JUMPI DUP1 PUSH4 0x99597B70 EQ PUSH2 0x351 JUMPI DUP1 PUSH4 0x9C623683 EQ PUSH2 0x366 JUMPI PUSH1 0x0 DUP1 REVERT JUMPDEST DUP1 PUSH4 0x2BA67100 GT PUSH2 0x17C JUMPI DUP1 PUSH4 0x36568ABE GT PUSH2 0x14B JUMPI DUP1 PUSH4 0x36568ABE EQ PUSH2 0x2DA JUMPI DUP1 PUSH4 0x3E16518F EQ PUSH2 0x2ED JUMPI DUP1 PUSH4 0x7AD226DC EQ PUSH2 0x300 JUMPI DUP1 PUSH4 0x8DA5CB5B EQ PUSH2 0x313 JUMPI PUSH1 0x0 DUP1 REVERT JUMPDEST DUP1 PUSH4 0x2BA67100 EQ PUSH2 0x298 JUMPI DUP1 PUSH4 0x2D6EF310 EQ PUSH2 0x2AB JUMPI DUP1 PUSH4 0x2F2FF15D EQ PUSH2 0x2BE JUMPI DUP1 PUSH4 0x313CE567 EQ PUSH2 0x2D1 JUMPI PUSH1 0x0 DUP1 REVERT JUMPDEST DUP1 PUSH4 0x9A18635 GT PUSH2 0x1B8 JUMPI DUP1 PUSH4 0x9A18635 EQ PUSH2 0x22E JUMPI DUP1 PUSH4 0x248A55A1 EQ PUSH2 0x241 JUMPI DUP1 PUSH4 0x248A9CA3 EQ PUSH2 0x254 JUMPI DUP1 PUSH4 0x2AC5016F EQ PUSH2 0x285 JUMPI PUSH1 0x0 DUP1 REVERT JUMPDEST DUP1 PUSH3 0xF5544F EQ PUSH2 0x1DE JUMPI DUP1 PUSH4 0x1FFC9A7 EQ PUSH2 0x1F3 JUMPI DUP1 PUSH4 0x6602A48 EQ PUSH2 0x21B JUMPI JUMPDEST PUSH1 0x0 DUP1 REVERT JUMPDEST PUSH2 0x1F1 PUSH2 0x1EC CALLDATASIZE PUSH1 0x4 PUSH2 0x1AE0 JUMP JUMPDEST PUSH2 0x580 JUMP JUMPDEST STOP JUMPDEST PUSH2 0x206 PUSH2 0x201 CALLDATASIZE PUSH1 0x4 PUSH2 0x1B23 JUMP JUMPDEST PUSH2 0x5EC JUMP JUMPDEST PUSH1 0x40 MLOAD SWAP1 ISZERO ISZERO DUP2 MSTORE PUSH1 0x20 ADD JUMPDEST PUSH1 0x40 MLOAD DUP1 SWAP2 SUB SWAP1 RETURN JUMPDEST PUSH2 0x1F1 PUSH2 0x229 CALLDATASIZE PUSH1 0x4 PUSH2 0x1A85 JUMP JUMPDEST PUSH2 0x623 JUMP JUMPDEST PUSH2 0x1F1 PUSH2 0x23C CALLDATASIZE PUSH1 0x4 PUSH2 0x1A6B JUMP JUMPDEST PUSH2 0x711 JUMP JUMPDEST PUSH2 0x1F1 PUSH2 0x24F CALLDATASIZE PUSH1 0x4 PUSH2 0x1AE0 JUMP JUMPDEST PUSH2 0x8B8 JUMP JUMPDEST PUSH2 0x277 PUSH2 0x262 CALLDATASIZE PUSH1 0x4 PUSH2 0x1AE0 JUMP JUMPDEST PUSH1 0x0 SWAP1 DUP2 MSTORE PUSH1 0x20 DUP2 SWAP1 MSTORE PUSH1 0x40 SWAP1 KECCAK256 PUSH1 0x1 ADD SLOAD SWAP1 JUMP JUMPDEST PUSH1 0x40 MLOAD SWAP1 DUP2 MSTORE PUSH1 0x20 ADD PUSH2 0x212 JUMP JUMPDEST PUSH2 0x1F1 PUSH2 0x293 CALLDATASIZE PUSH1 0x4 PUSH2 0x1AE0 JUMP JUMPDEST PUSH2 0x94B JUMP JUMPDEST PUSH2 0x1F1 PUSH2 0x2A6 CALLDATASIZE PUSH1 0x4 PUSH2 0x1AF8 JUMP JUMPDEST PUSH2 0x969 JUMP JUMPDEST PUSH2 0x1F1 PUSH2 0x2B9 CALLDATASIZE PUSH1 0x4 PUSH2 0x1AE0 JUMP JUMPDEST PUSH2 0x9E2 JUMP JUMPDEST PUSH2 0x1F1 PUSH2 0x2CC CALLDATASIZE PUSH1 0x4 PUSH2 0x1AF8 JUMP JUMPDEST PUSH2 0xA40 JUMP JUMPDEST PUSH2 0x277 PUSH1 0x3 SLOAD DUP2 JUMP JUMPDEST PUSH2 0x1F1 PUSH2 0x2E8 CALLDATASIZE PUSH1 0x4 PUSH2 0x1AF8 JUMP JUMPDEST PUSH2 0xA65 JUMP JUMPDEST PUSH2 0x1F1 PUSH2 0x2FB CALLDATASIZE PUSH1 0x4 PUSH2 0x1A6B JUMP JUMPDEST PUSH2 0xAE3 JUMP JUMPDEST PUSH2 0x1F1 PUSH2 0x30E CALLDATASIZE PUSH1 0x4 PUSH2 0x1AF8 JUMP JUMPDEST PUSH2 0xB20 JUMP JUMPDEST PUSH1 0x6 SLOAD PUSH2 0x326 SWAP1 PUSH1 0x1 PUSH1 0x1 PUSH1 0xA0 SHL SUB AND DUP2 JUMP JUMPDEST PUSH1 0x40 MLOAD PUSH1 0x1 PUSH1 0x1 PUSH1 0xA0 SHL SUB SWAP1 SWAP2 AND DUP2 MSTORE PUSH1 0x20 ADD PUSH2 0x212 JUMP JUMPDEST PUSH2 0x206 PUSH2 0x34C CALLDATASIZE PUSH1 0x4 PUSH2 0x1AF8 JUMP JUMPDEST PUSH2 0xD98 JUMP JUMPDEST PUSH2 0x277 PUSH1 0x0 DUP1 MLOAD PUSH1 0x20 PUSH2 0x1D58 DUP4 CODECOPY DUP2 MLOAD SWAP2 MSTORE DUP2 JUMP JUMPDEST PUSH2 0x1F1 PUSH2 0x374 CALLDATASIZE PUSH1 0x4 PUSH2 0x1AF8 JUMP JUMPDEST PUSH2 0xDC1 JUMP JUMPDEST PUSH2 0x3B4 PUSH2 0x387 CALLDATASIZE PUSH1 0x4 PUSH2 0x1A6B JUMP JUMPDEST PUSH1 0x1 PUSH1 0x1 PUSH1 0xA0 SHL SUB AND PUSH1 0x0 SWAP1 DUP2 MSTORE PUSH1 0x1 PUSH1 0x20 DUP2 SWAP1 MSTORE PUSH1 0x40 SWAP1 SWAP2 KECCAK256 DUP1 SLOAD SWAP2 ADD SLOAD PUSH1 0x1 PUSH1 0xA0 SHL SWAP1 SWAP2 DIV PUSH1 0xFF AND SWAP2 JUMP JUMPDEST PUSH1 0x40 DUP1 MLOAD SWAP3 ISZERO ISZERO DUP4 MSTORE PUSH1 0x20 DUP4 ADD SWAP2 SWAP1 SWAP2 MSTORE ADD PUSH2 0x212 JUMP JUMPDEST PUSH2 0x1F1 PUSH2 0x3D9 CALLDATASIZE PUSH1 0x4 PUSH2 0x1AE0 JUMP JUMPDEST PUSH2 0x10AE JUMP JUMPDEST PUSH2 0x277 PUSH1 0x0 DUP2 JUMP JUMPDEST PUSH2 0x423 PUSH2 0x3F4 CALLDATASIZE PUSH1 0x4 PUSH2 0x1A6B JUMP JUMPDEST PUSH1 0x1 PUSH1 0x20 DUP2 SWAP1 MSTORE PUSH1 0x0 SWAP2 DUP3 MSTORE PUSH1 0x40 SWAP1 SWAP2 KECCAK256 DUP1 SLOAD SWAP2 ADD SLOAD PUSH1 0x1 PUSH1 0x1 PUSH1 0xA0 SHL SUB DUP3 AND SWAP2 PUSH1 0x1 PUSH1 0xA0 SHL SWAP1 DIV PUSH1 0xFF AND SWAP1 DUP4 JUMP JUMPDEST PUSH1 0x40 DUP1 MLOAD PUSH1 0x1 PUSH1 0x1 PUSH1 0xA0 SHL SUB SWAP1 SWAP5 AND DUP5 MSTORE SWAP2 ISZERO ISZERO PUSH1 0x20 DUP5 ADD MSTORE SWAP1 DUP3 ADD MSTORE PUSH1 0x60 ADD PUSH2 0x212 JUMP JUMPDEST PUSH2 0x1F1 PUSH2 0x456 CALLDATASIZE PUSH1 0x4 PUSH2 0x1AF8 JUMP JUMPDEST PUSH2 0x1104 JUMP JUMPDEST PUSH2 0x277 PUSH1 0x0 DUP1 MLOAD PUSH1 0x20 PUSH2 0x1D38 DUP4 CODECOPY DUP2 MLOAD SWAP2 MSTORE DUP2 JUMP JUMPDEST PUSH2 0x277 PUSH1 0x4 SLOAD DUP2 JUMP JUMPDEST PUSH2 0x4D4 PUSH2 0x487 CALLDATASIZE PUSH1 0x4 PUSH2 0x1AE0 JUMP JUMPDEST PUSH1 0x2 PUSH1 0x20 DUP2 SWAP1 MSTORE PUSH1 0x0 SWAP2 DUP3 MSTORE PUSH1 0x40 SWAP1 SWAP2 KECCAK256 DUP1 SLOAD PUSH1 0x1 DUP3 ADD SLOAD SWAP3 DUP3 ADD SLOAD PUSH1 0x3 DUP4 ADD SLOAD PUSH1 0x4 DUP5 ADD SLOAD PUSH1 0x5 DUP6 ADD SLOAD PUSH1 0x6 SWAP1 SWAP6 ADD SLOAD PUSH1 0xFF SWAP1 SWAP5 AND SWAP6 SWAP5 SWAP3 SWAP4 SWAP2 SWAP3 SWAP1 SWAP2 PUSH1 0x1 PUSH1 0x1 PUSH1 0xA0 SHL SUB SWAP1 SWAP2 AND SWAP1 DUP8 JUMP JUMPDEST PUSH1 0x40 DUP1 MLOAD SWAP8 ISZERO ISZERO DUP9 MSTORE PUSH1 0x20 DUP9 ADD SWAP7 SWAP1 SWAP7 MSTORE SWAP5 DUP7 ADD SWAP4 SWAP1 SWAP4 MSTORE PUSH1 0x60 DUP6 ADD SWAP2 SWAP1 SWAP2 MSTORE PUSH1 0x80 DUP5 ADD MSTORE PUSH1 0x1 PUSH1 0x1 PUSH1 0xA0 SHL SUB AND PUSH1 0xA0 DUP4 ADD MSTORE PUSH1 0xC0 DUP3 ADD MSTORE PUSH1 0xE0 ADD PUSH2 0x212 JUMP JUMPDEST PUSH2 0x1F1 PUSH2 0x522 CALLDATASIZE PUSH1 0x4 PUSH2 0x1AF8 JUMP JUMPDEST PUSH2 0x11FE JUMP JUMPDEST PUSH2 0x206 PUSH2 0x535 CALLDATASIZE PUSH1 0x4 PUSH2 0x1A6B JUMP JUMPDEST PUSH1 0x1 PUSH1 0x1 PUSH1 0xA0 SHL SUB AND PUSH1 0x0 SWAP1 DUP2 MSTORE PUSH1 0x1 PUSH1 0x20 MSTORE PUSH1 0x40 SWAP1 KECCAK256 SLOAD PUSH1 0x1 PUSH1 0xA0 SHL SWAP1 DIV PUSH1 0xFF AND SWAP1 JUMP JUMPDEST PUSH2 0x1F1 PUSH2 0x568 CALLDATASIZE PUSH1 0x4 PUSH2 0x1AE0 JUMP JUMPDEST PUSH2 0x1223 JUMP JUMPDEST PUSH2 0x1F1 PUSH2 0x57B CALLDATASIZE PUSH1 0x4 PUSH2 0x1B63 JUMP JUMPDEST PUSH2 0x15AA JUMP JUMPDEST PUSH1 0x0 DUP1 MLOAD PUSH1 0x20 PUSH2 0x1D58 DUP4 CODECOPY DUP2 MLOAD SWAP2 MSTORE PUSH2 0x598 DUP2 PUSH2 0x1657 JUMP JUMPDEST PUSH1 0x0 DUP3 DUP2 MSTORE PUSH1 0x2 PUSH1 0x20 MSTORE PUSH1 0x40 SWAP1 DUP2 SWAP1 KECCAK256 PUSH1 0x1 PUSH1 0x4 SWAP1 SWAP2 ADD SSTORE MLOAD PUSH32 0x651A9760985EDC53055BF2462CB4437B9BE3DE87AA3EECF2C05782E8B58EBA19 SWAP1 PUSH2 0x5E0 SWAP1 DUP5 DUP2 MSTORE PUSH1 0x20 ADD SWAP1 JUMP JUMPDEST PUSH1 0x40 MLOAD DUP1 SWAP2 SUB SWAP1 LOG1 POP POP JUMP JUMPDEST PUSH1 0x0 PUSH1 0x1 PUSH1 0x1 PUSH1 0xE0 SHL SUB NOT DUP3 AND PUSH4 0x7965DB0B PUSH1 0xE0 SHL EQ DUP1 PUSH2 0x61D JUMPI POP PUSH4 0x1FFC9A7 PUSH1 0xE0 SHL PUSH1 0x1 PUSH1 0x1 PUSH1 0xE0 SHL SUB NOT DUP4 AND EQ JUMPDEST SWAP3 SWAP2 POP POP JUMP JUMPDEST PUSH1 0x0 DUP1 MLOAD PUSH1 0x20 PUSH2 0x1D38 DUP4 CODECOPY DUP2 MLOAD SWAP2 MSTORE PUSH2 0x63B DUP2 PUSH2 0x1657 JUMP JUMPDEST PUSH1 0x1 PUSH1 0x1 PUSH1 0xA0 SHL SUB DUP5 AND PUSH1 0x0 DUP2 DUP2 MSTORE PUSH1 0x1 PUSH1 0x20 DUP2 SWAP1 MSTORE PUSH1 0x40 SWAP1 SWAP2 KECCAK256 SWAP1 DUP2 ADD DUP6 SWAP1 SSTORE DUP1 SLOAD PUSH1 0x1 PUSH1 0x1 PUSH1 0xA8 SHL SUB NOT AND PUSH1 0x1 PUSH1 0xA0 SHL DUP6 ISZERO ISZERO MUL PUSH1 0x1 PUSH1 0x1 PUSH1 0xA0 SHL SUB NOT AND OR DUP3 OR SWAP1 SSTORE DUP5 SWAP1 PUSH4 0x95EA7B3 CALLER PUSH1 0x40 MLOAD PUSH1 0x1 PUSH1 0x1 PUSH1 0xE0 SHL SUB NOT PUSH1 0xE0 DUP5 SWAP1 SHL AND DUP2 MSTORE PUSH1 0x1 PUSH1 0x1 PUSH1 0xA0 SHL SUB SWAP1 SWAP2 AND PUSH1 0x4 DUP3 ADD MSTORE PUSH1 0x0 NOT PUSH1 0x24 DUP3 ADD MSTORE PUSH1 0x44 ADD PUSH1 0x20 PUSH1 0x40 MLOAD DUP1 DUP4 SUB DUP2 PUSH1 0x0 DUP8 DUP1 EXTCODESIZE ISZERO DUP1 ISZERO PUSH2 0x6D1 JUMPI PUSH1 0x0 DUP1 REVERT JUMPDEST POP GAS CALL ISZERO DUP1 ISZERO PUSH2 0x6E5 JUMPI RETURNDATASIZE PUSH1 0x0 DUP1 RETURNDATACOPY RETURNDATASIZE PUSH1 0x0 REVERT JUMPDEST POP POP POP POP PUSH1 0x40 MLOAD RETURNDATASIZE PUSH1 0x1F NOT PUSH1 0x1F DUP3 ADD AND DUP3 ADD DUP1 PUSH1 0x40 MSTORE POP DUP2 ADD SWAP1 PUSH2 0x709 SWAP2 SWAP1 PUSH2 0x1AC4 JUMP JUMPDEST POP POP POP POP POP POP JUMP JUMPDEST PUSH1 0x0 PUSH2 0x71C DUP2 PUSH2 0x1657 JUMP JUMPDEST PUSH1 0x1 PUSH1 0x1 PUSH1 0xA0 SHL SUB DUP3 DUP2 AND PUSH1 0x0 SWAP1 DUP2 MSTORE PUSH1 0x1 PUSH1 0x20 MSTORE PUSH1 0x40 DUP1 DUP3 KECCAK256 SLOAD SWAP1 MLOAD PUSH4 0x70A08231 PUSH1 0xE0 SHL DUP2 MSTORE ADDRESS PUSH1 0x4 DUP3 ADD MSTORE SWAP2 SWAP3 AND SWAP1 PUSH4 0x70A08231 SWAP1 PUSH1 0x24 ADD PUSH1 0x20 PUSH1 0x40 MLOAD DUP1 DUP4 SUB DUP2 DUP7 DUP1 EXTCODESIZE ISZERO DUP1 ISZERO PUSH2 0x76E JUMPI PUSH1 0x0 DUP1 REVERT JUMPDEST POP GAS STATICCALL ISZERO DUP1 ISZERO PUSH2 0x782 JUMPI RETURNDATASIZE PUSH1 0x0 DUP1 RETURNDATACOPY RETURNDATASIZE PUSH1 0x0 REVERT JUMPDEST POP POP POP POP PUSH1 0x40 MLOAD RETURNDATASIZE PUSH1 0x1F NOT PUSH1 0x1F DUP3 ADD AND DUP3 ADD DUP1 PUSH1 0x40 MSTORE POP DUP2 ADD SWAP1 PUSH2 0x7A6 SWAP2 SWAP1 PUSH2 0x1B4B JUMP JUMPDEST SWAP1 POP DUP1 ISZERO PUSH2 0x8B3 JUMPI PUSH1 0x1 PUSH1 0x1 PUSH1 0xA0 SHL SUB DUP4 DUP2 AND PUSH1 0x0 SWAP1 DUP2 MSTORE PUSH1 0x1 PUSH1 0x20 MSTORE PUSH1 0x40 SWAP1 KECCAK256 SLOAD AND PUSH4 0xA9059CBB CALLER PUSH1 0x40 MLOAD PUSH1 0x1 PUSH1 0x1 PUSH1 0xE0 SHL SUB NOT PUSH1 0xE0 DUP5 SWAP1 SHL AND DUP2 MSTORE PUSH1 0x1 PUSH1 0x1 PUSH1 0xA0 SHL SUB SWAP1 SWAP2 AND PUSH1 0x4 DUP3 ADD MSTORE PUSH1 0x24 DUP2 ADD DUP5 SWAP1 MSTORE PUSH1 0x44 ADD PUSH1 0x20 PUSH1 0x40 MLOAD DUP1 DUP4 SUB DUP2 PUSH1 0x0 DUP8 DUP1 EXTCODESIZE ISZERO DUP1 ISZERO PUSH2 0x817 JUMPI PUSH1 0x0 DUP1 REVERT JUMPDEST POP GAS CALL ISZERO DUP1 ISZERO PUSH2 0x82B JUMPI RETURNDATASIZE PUSH1 0x0 DUP1 RETURNDATACOPY RETURNDATASIZE PUSH1 0x0 REVERT JUMPDEST POP POP POP POP PUSH1 0x40 MLOAD RETURNDATASIZE PUSH1 0x1F NOT PUSH1 0x1F DUP3 ADD AND DUP3 ADD DUP1 PUSH1 0x40 MSTORE POP DUP2 ADD SWAP1 PUSH2 0x84F SWAP2 SWAP1 PUSH2 0x1AC4 JUMP JUMPDEST PUSH2 0x8B3 JUMPI PUSH1 0x40 MLOAD PUSH3 0x461BCD PUSH1 0xE5 SHL DUP2 MSTORE PUSH1 0x20 PUSH1 0x4 DUP3 ADD MSTORE PUSH1 0x2A PUSH1 0x24 DUP3 ADD MSTORE PUSH32 0x54726F706879204B696E67204172636164653A205265636F6E63696C69617469 PUSH1 0x44 DUP3 ADD MSTORE PUSH10 0x37B7103330B4B632B217 PUSH1 0xB1 SHL PUSH1 0x64 DUP3 ADD MSTORE PUSH1 0x84 ADD JUMPDEST PUSH1 0x40 MLOAD DUP1 SWAP2 SUB SWAP1 REVERT JUMPDEST POP POP POP JUMP JUMPDEST PUSH1 0x0 DUP1 MLOAD PUSH1 0x20 PUSH2 0x1D58 DUP4 CODECOPY DUP2 MLOAD SWAP2 MSTORE PUSH2 0x8D0 DUP2 PUSH2 0x1657 JUMP JUMPDEST PUSH1 0x0 DUP3 DUP2 MSTORE PUSH1 0x2 PUSH1 0x20 DUP2 DUP2 MSTORE PUSH1 0x40 DUP1 DUP5 KECCAK256 DUP1 SLOAD PUSH1 0xFF NOT AND DUP2 SSTORE PUSH1 0x1 DUP2 ADD DUP6 SWAP1 SSTORE SWAP3 DUP4 ADD DUP5 SWAP1 SSTORE PUSH1 0x3 DUP4 ADD DUP5 SWAP1 SSTORE PUSH1 0x4 DUP4 ADD DUP5 SWAP1 SSTORE PUSH1 0x5 DUP4 ADD DUP1 SLOAD PUSH1 0x1 PUSH1 0x1 PUSH1 0xA0 SHL SUB NOT AND SWAP1 SSTORE PUSH1 0x6 SWAP1 SWAP3 ADD SWAP3 SWAP1 SWAP3 SSTORE MLOAD DUP4 DUP2 MSTORE PUSH32 0xD0B153E02E23F4F21D020465B4DAC7B1114893D05DB395ED2511F879C3AC90B4 SWAP2 ADD PUSH2 0x5E0 JUMP JUMPDEST PUSH1 0x0 DUP1 MLOAD PUSH1 0x20 PUSH2 0x1D38 DUP4 CODECOPY DUP2 MLOAD SWAP2 MSTORE PUSH2 0x963 DUP2 PUSH2 0x1657 JUMP JUMPDEST POP PUSH1 0x4 SSTORE JUMP JUMPDEST PUSH1 0x0 DUP1 MLOAD PUSH1 0x20 PUSH2 0x1D58 DUP4 CODECOPY DUP2 MLOAD SWAP2 MSTORE PUSH2 0x981 DUP2 PUSH2 0x1657 JUMP JUMPDEST PUSH1 0x0 DUP4 DUP2 MSTORE PUSH1 0x2 PUSH1 0x20 SWAP1 DUP2 MSTORE PUSH1 0x40 DUP1 DUP4 KECCAK256 PUSH1 0x1 PUSH1 0x1 PUSH1 0xA0 SHL SUB DUP7 AND DUP1 DUP6 MSTORE PUSH1 0x9 SWAP1 SWAP2 ADD DUP4 MSTORE DUP2 DUP5 KECCAK256 SWAP4 SWAP1 SWAP4 SSTORE MLOAD SWAP2 DUP3 MSTORE PUSH32 0x34AEEFD5030BE05FE70EEBC8866D82F935A308EB9F334CBA88F5E3BEA1A0CAE8 SWAP2 ADD JUMPDEST PUSH1 0x40 MLOAD DUP1 SWAP2 SUB SWAP1 LOG1 POP POP POP JUMP JUMPDEST PUSH1 0x0 DUP1 MLOAD PUSH1 0x20 PUSH2 0x1D58 DUP4 CODECOPY DUP2 MLOAD SWAP2 MSTORE PUSH2 0x9FA DUP2 PUSH2 0x1657 JUMP JUMPDEST PUSH1 0x0 DUP3 DUP2 MSTORE PUSH1 0x2 PUSH1 0x20 MSTORE PUSH1 0x40 DUP1 DUP3 KECCAK256 PUSH1 0x4 ADD SWAP2 SWAP1 SWAP2 SSTORE MLOAD PUSH32 0x827E8BFF9F46048F8351964D2C871D09E4F4231513CF2FCB786649C68732E24F SWAP1 PUSH2 0x5E0 SWAP1 DUP5 DUP2 MSTORE PUSH1 0x20 ADD SWAP1 JUMP JUMPDEST PUSH1 0x0 DUP3 DUP2 MSTORE PUSH1 0x20 DUP2 SWAP1 MSTORE PUSH1 0x40 SWAP1 KECCAK256 PUSH1 0x1 ADD SLOAD PUSH2 0xA5B DUP2 PUSH2 0x1657 JUMP JUMPDEST PUSH2 0x8B3 DUP4 DUP4 PUSH2 0x1661 JUMP JUMPDEST PUSH1 0x1 PUSH1 0x1 PUSH1 0xA0 SHL SUB DUP2 AND CALLER EQ PUSH2 0xAD5 JUMPI PUSH1 0x40 MLOAD PUSH3 0x461BCD PUSH1 0xE5 SHL DUP2 MSTORE PUSH1 0x20 PUSH1 0x4 DUP3 ADD MSTORE PUSH1 0x2F PUSH1 0x24 DUP3 ADD MSTORE PUSH32 0x416363657373436F6E74726F6C3A2063616E206F6E6C792072656E6F756E6365 PUSH1 0x44 DUP3 ADD MSTORE PUSH15 0x103937B632B9903337B91039B2B633 PUSH1 0x89 SHL PUSH1 0x64 DUP3 ADD MSTORE PUSH1 0x84 ADD PUSH2 0x8AA JUMP JUMPDEST PUSH2 0xADF DUP3 DUP3 PUSH2 0x16E5 JUMP JUMPDEST POP POP JUMP JUMPDEST PUSH1 0x0 DUP1 MLOAD PUSH1 0x20 PUSH2 0x1D38 DUP4 CODECOPY DUP2 MLOAD SWAP2 MSTORE PUSH2 0xAFB DUP2 PUSH2 0x1657 JUMP JUMPDEST POP PUSH1 0x1 PUSH1 0x1 PUSH1 0xA0 SHL SUB AND PUSH1 0x0 SWAP1 DUP2 MSTORE PUSH1 0x1 PUSH1 0x20 MSTORE PUSH1 0x40 SWAP1 KECCAK256 DUP1 SLOAD PUSH1 0xFF PUSH1 0xA0 SHL NOT AND SWAP1 SSTORE JUMP JUMPDEST PUSH1 0x0 DUP1 MLOAD PUSH1 0x20 PUSH2 0x1D58 DUP4 CODECOPY DUP2 MLOAD SWAP2 MSTORE PUSH2 0xB38 DUP2 PUSH2 0x1657 JUMP JUMPDEST PUSH1 0x0 DUP4 DUP2 MSTORE PUSH1 0x2 PUSH1 0x20 MSTORE PUSH1 0x40 SWAP1 KECCAK256 SLOAD PUSH1 0xFF AND PUSH2 0x8B3 JUMPI PUSH1 0x0 DUP4 DUP2 MSTORE PUSH1 0x2 PUSH1 0x20 SWAP1 DUP2 MSTORE PUSH1 0x40 DUP1 DUP4 KECCAK256 PUSH1 0x1 PUSH1 0x1 PUSH1 0xA0 SHL SUB DUP7 AND DUP5 MSTORE PUSH1 0x8 ADD SWAP1 SWAP2 MSTORE SWAP1 KECCAK256 SLOAD PUSH1 0x1 EQ PUSH2 0xBDD JUMPI PUSH1 0x40 MLOAD PUSH3 0x461BCD PUSH1 0xE5 SHL DUP2 MSTORE PUSH1 0x20 PUSH1 0x4 DUP3 ADD MSTORE PUSH1 0x31 PUSH1 0x24 DUP3 ADD MSTORE PUSH32 0x54726F706879204B696E67204172636164653A204E6F74207265676973746572 PUSH1 0x44 DUP3 ADD MSTORE PUSH17 0x32B2103337B9103A3434B99033B0B6B297 PUSH1 0x79 SHL PUSH1 0x64 DUP3 ADD MSTORE PUSH1 0x84 ADD PUSH2 0x8AA JUMP JUMPDEST PUSH1 0x0 DUP4 DUP2 MSTORE PUSH1 0x2 PUSH1 0x20 SWAP1 DUP2 MSTORE PUSH1 0x40 DUP1 DUP4 KECCAK256 PUSH1 0x5 DUP2 ADD SLOAD PUSH1 0x1 PUSH1 0x1 PUSH1 0xA0 SHL SUB SWAP1 DUP2 AND DUP6 MSTORE PUSH1 0x1 SWAP1 SWAP4 MSTORE SWAP3 DUP2 SWAP1 KECCAK256 SLOAD PUSH1 0x3 DUP5 ADD SLOAD SWAP2 MLOAD PUSH4 0xA9059CBB PUSH1 0xE0 SHL DUP2 MSTORE DUP7 DUP5 AND PUSH1 0x4 DUP3 ADD MSTORE PUSH1 0x24 DUP2 ADD SWAP3 SWAP1 SWAP3 MSTORE SWAP1 SWAP2 AND SWAP1 PUSH4 0xA9059CBB SWAP1 PUSH1 0x44 ADD PUSH1 0x20 PUSH1 0x40 MLOAD DUP1 DUP4 SUB DUP2 PUSH1 0x0 DUP8 DUP1 EXTCODESIZE ISZERO DUP1 ISZERO PUSH2 0xC52 JUMPI PUSH1 0x0 DUP1 REVERT JUMPDEST POP GAS CALL ISZERO DUP1 ISZERO PUSH2 0xC66 JUMPI RETURNDATASIZE PUSH1 0x0 DUP1 RETURNDATACOPY RETURNDATASIZE PUSH1 0x0 REVERT JUMPDEST POP POP POP POP PUSH1 0x40 MLOAD RETURNDATASIZE PUSH1 0x1F NOT PUSH1 0x1F DUP3 ADD AND DUP3 ADD DUP1 PUSH1 0x40 MSTORE POP DUP2 ADD SWAP1 PUSH2 0xC8A SWAP2 SWAP1 PUSH2 0x1AC4 JUMP JUMPDEST PUSH2 0xCE1 JUMPI PUSH1 0x40 MLOAD PUSH3 0x461BCD PUSH1 0xE5 SHL DUP2 MSTORE PUSH1 0x20 PUSH1 0x4 DUP3 ADD MSTORE PUSH1 0x22 PUSH1 0x24 DUP3 ADD MSTORE PUSH32 0x54726F706879204B696E67204172636164653A20526566756E64206661696C65 PUSH1 0x44 DUP3 ADD MSTORE PUSH2 0x3217 PUSH1 0xF1 SHL PUSH1 0x64 DUP3 ADD MSTORE PUSH1 0x84 ADD PUSH2 0x8AA JUMP JUMPDEST DUP1 PUSH1 0x3 ADD SLOAD DUP2 PUSH1 0x6 ADD PUSH1 0x0 DUP3 DUP3 SLOAD PUSH2 0xCF9 SWAP2 SWAP1 PUSH2 0x1CB5 JUMP JUMPDEST SWAP1 SWAP2 SSTORE POP POP PUSH1 0x1 PUSH1 0x1 PUSH1 0xA0 SHL SUB DUP4 AND PUSH1 0x0 SWAP1 DUP2 MSTORE PUSH1 0x7 DUP3 ADD PUSH1 0x20 SWAP1 DUP2 MSTORE PUSH1 0x40 DUP1 DUP4 KECCAK256 DUP4 SWAP1 SSTORE PUSH1 0x8 DUP5 ADD SWAP1 SWAP2 MSTORE DUP2 KECCAK256 DUP2 SWAP1 SSTORE PUSH1 0x1 DUP1 DUP4 ADD DUP1 SLOAD SWAP2 SWAP3 SWAP1 SWAP2 PUSH2 0xD40 SWAP1 DUP5 SWAP1 PUSH2 0x1CB5 JUMP JUMPDEST SWAP1 SWAP2 SSTORE POP POP PUSH1 0x3 DUP2 ADD SLOAD PUSH1 0x40 DUP1 MLOAD DUP7 DUP2 MSTORE PUSH1 0x1 PUSH1 0x1 PUSH1 0xA0 SHL SUB DUP7 AND PUSH1 0x20 DUP3 ADD MSTORE DUP1 DUP3 ADD SWAP3 SWAP1 SWAP3 MSTORE MLOAD PUSH32 0x21E12A7CAD0DA5928167E1084EA4D5FDF8D9AF66657A2543A9AC76A0CA081477 SWAP2 DUP2 SWAP1 SUB PUSH1 0x60 ADD SWAP1 LOG1 POP POP POP POP JUMP JUMPDEST PUSH1 0x0 SWAP2 DUP3 MSTORE PUSH1 0x20 DUP3 DUP2 MSTORE PUSH1 0x40 DUP1 DUP5 KECCAK256 PUSH1 0x1 PUSH1 0x1 PUSH1 0xA0 SHL SUB SWAP4 SWAP1 SWAP4 AND DUP5 MSTORE SWAP2 SWAP1 MSTORE SWAP1 KECCAK256 SLOAD PUSH1 0xFF AND SWAP1 JUMP JUMPDEST PUSH1 0x0 DUP1 MLOAD PUSH1 0x20 PUSH2 0x1D58 DUP4 CODECOPY DUP2 MLOAD SWAP2 MSTORE PUSH2 0xDD9 DUP2 PUSH2 0x1657 JUMP JUMPDEST PUSH1 0x0 DUP4 DUP2 MSTORE PUSH1 0x2 PUSH1 0x20 MSTORE PUSH1 0x40 SWAP1 KECCAK256 SLOAD PUSH1 0xFF AND PUSH2 0x10A5 JUMPI PUSH1 0x0 DUP4 DUP2 MSTORE PUSH1 0x2 PUSH1 0x20 SWAP1 DUP2 MSTORE PUSH1 0x40 DUP1 DUP4 KECCAK256 PUSH1 0x1 PUSH1 0x1 PUSH1 0xA0 SHL SUB DUP7 AND DUP5 MSTORE PUSH1 0x8 ADD SWAP1 SWAP2 MSTORE SWAP1 KECCAK256 SLOAD PUSH1 0x1 EQ PUSH2 0xE7D JUMPI PUSH1 0x40 MLOAD PUSH3 0x461BCD PUSH1 0xE5 SHL DUP2 MSTORE PUSH1 0x20 PUSH1 0x4 DUP3 ADD MSTORE PUSH1 0x30 PUSH1 0x24 DUP3 ADD MSTORE PUSH32 0x54726F706879204B696E67204172636164653A204E6F74207265676973746572 PUSH1 0x44 DUP3 ADD MSTORE PUSH16 0x656420666F7220746869732067616D65 PUSH1 0x80 SHL PUSH1 0x64 DUP3 ADD MSTORE PUSH1 0x84 ADD PUSH2 0x8AA JUMP JUMPDEST PUSH1 0x5 DUP1 SLOAD PUSH1 0x4 SLOAD PUSH1 0x0 DUP7 DUP2 MSTORE PUSH1 0x2 PUSH1 0x20 SWAP1 DUP2 MSTORE PUSH1 0x40 DUP1 DUP4 KECCAK256 SWAP1 SWAP6 ADD SLOAD PUSH1 0x1 PUSH1 0x1 PUSH1 0xA0 SHL SUB AND DUP3 MSTORE PUSH1 0x1 SWAP1 DUP2 SWAP1 MSTORE SWAP4 DUP2 KECCAK256 SWAP1 SWAP4 ADD SLOAD DUP3 SWAP2 PUSH2 0xEBC SWAP2 PUSH2 0x1C5E JUMP JUMPDEST PUSH1 0x0 DUP8 DUP2 MSTORE PUSH1 0x2 PUSH1 0x20 MSTORE PUSH1 0x40 SWAP1 KECCAK256 PUSH1 0x6 ADD SLOAD PUSH2 0xED8 SWAP2 SWAP1 PUSH2 0x1C96 JUMP JUMPDEST PUSH2 0xEE2 SWAP2 SWAP1 PUSH2 0x1C76 JUMP JUMPDEST PUSH2 0xEEC SWAP2 SWAP1 PUSH2 0x1C76 JUMP JUMPDEST PUSH1 0x0 DUP6 DUP2 MSTORE PUSH1 0x2 PUSH1 0x20 MSTORE PUSH1 0x40 DUP2 KECCAK256 PUSH1 0x6 ADD SLOAD SWAP2 SWAP3 POP SWAP1 PUSH2 0xF0C SWAP1 DUP4 PUSH2 0x174A JUMP JUMPDEST SWAP1 POP SELFBALANCE DUP2 DUP2 LT ISZERO PUSH2 0xF1B JUMPI DUP1 SWAP2 POP JUMPDEST PUSH1 0x0 DUP7 DUP2 MSTORE PUSH1 0x2 PUSH1 0x20 SWAP1 DUP2 MSTORE PUSH1 0x40 DUP1 DUP4 KECCAK256 PUSH1 0x5 ADD SLOAD PUSH1 0x1 PUSH1 0x1 PUSH1 0xA0 SHL SUB SWAP1 DUP2 AND DUP5 MSTORE PUSH1 0x1 SWAP1 SWAP3 MSTORE SWAP2 DUP3 SWAP1 KECCAK256 SLOAD SWAP2 MLOAD PUSH4 0xA9059CBB PUSH1 0xE0 SHL DUP2 MSTORE DUP8 DUP3 AND PUSH1 0x4 DUP3 ADD MSTORE PUSH1 0x24 DUP2 ADD DUP6 SWAP1 MSTORE SWAP2 AND SWAP1 PUSH4 0xA9059CBB SWAP1 PUSH1 0x44 ADD PUSH1 0x20 PUSH1 0x40 MLOAD DUP1 DUP4 SUB DUP2 PUSH1 0x0 DUP8 DUP1 EXTCODESIZE ISZERO DUP1 ISZERO PUSH2 0xF88 JUMPI PUSH1 0x0 DUP1 REVERT JUMPDEST POP GAS CALL ISZERO DUP1 ISZERO PUSH2 0xF9C JUMPI RETURNDATASIZE PUSH1 0x0 DUP1 RETURNDATACOPY RETURNDATASIZE PUSH1 0x0 REVERT JUMPDEST POP POP POP POP PUSH1 0x40 MLOAD RETURNDATASIZE PUSH1 0x1F NOT PUSH1 0x1F DUP3 ADD AND DUP3 ADD DUP1 PUSH1 0x40 MSTORE POP DUP2 ADD SWAP1 PUSH2 0xFC0 SWAP2 SWAP1 PUSH2 0x1AC4 JUMP JUMPDEST PUSH2 0x1017 JUMPI PUSH1 0x40 MLOAD PUSH3 0x461BCD PUSH1 0xE5 SHL DUP2 MSTORE PUSH1 0x20 PUSH1 0x4 DUP3 ADD MSTORE PUSH1 0x22 PUSH1 0x24 DUP3 ADD MSTORE PUSH32 0x54726F706879204B696E67204172636164653A205061796F7574206661696C65 PUSH1 0x44 DUP3 ADD MSTORE PUSH2 0x3217 PUSH1 0xF1 SHL PUSH1 0x64 DUP3 ADD MSTORE PUSH1 0x84 ADD PUSH2 0x8AA JUMP JUMPDEST PUSH1 0x0 DUP7 DUP2 MSTORE PUSH1 0x2 PUSH1 0x20 SWAP1 DUP2 MSTORE PUSH1 0x40 DUP1 DUP4 KECCAK256 PUSH1 0x1 PUSH1 0x1 PUSH1 0xA0 SHL SUB DUP10 AND DUP5 MSTORE PUSH1 0x7 ADD DUP3 MSTORE SWAP2 DUP3 SWAP1 KECCAK256 SLOAD SWAP2 MLOAD SWAP2 DUP3 MSTORE PUSH32 0x557809284DA7314475B1582804AE28E5F1349EFC1FE970EA25D50FCE75EB4F43 SWAP2 ADD PUSH1 0x40 MLOAD DUP1 SWAP2 SUB SWAP1 LOG1 PUSH1 0x40 MLOAD DUP3 DUP2 MSTORE PUSH32 0x22427047E1A674A9AFF59700A2C8D00EA96E017DDF9236690BDEDF1F21F28D9D SWAP1 PUSH1 0x20 ADD PUSH1 0x40 MLOAD DUP1 SWAP2 SUB SWAP1 LOG1 POP POP POP JUMPDEST PUSH2 0x8B3 DUP4 PUSH2 0x9E2 JUMP JUMPDEST PUSH1 0x0 DUP2 DUP2 MSTORE PUSH1 0x2 PUSH1 0x20 SWAP1 DUP2 MSTORE PUSH1 0x40 DUP1 DUP4 KECCAK256 CALLER DUP1 DUP6 MSTORE PUSH1 0x9 SWAP1 SWAP2 ADD DUP4 MSTORE DUP2 DUP5 KECCAK256 SWAP4 SWAP1 SWAP4 SSTORE DUP1 MLOAD SWAP3 DUP4 MSTORE MLOAD PUSH32 0x34AEEFD5030BE05FE70EEBC8866D82F935A308EB9F334CBA88F5E3BEA1A0CAE8 SWAP3 DUP2 SWAP1 SUB SWAP1 SWAP2 ADD SWAP1 LOG1 POP JUMP JUMPDEST PUSH1 0x0 DUP1 MLOAD PUSH1 0x20 PUSH2 0x1D58 DUP4 CODECOPY DUP2 MLOAD SWAP2 MSTORE PUSH2 0x111C DUP2 PUSH2 0x1657 JUMP JUMPDEST PUSH1 0x0 DUP4 DUP2 MSTORE PUSH1 0x2 PUSH1 0x20 SWAP1 DUP2 MSTORE PUSH1 0x40 DUP1 DUP4 KECCAK256 PUSH1 0x1 PUSH1 0x1 PUSH1 0xA0 SHL SUB DUP7 AND DUP5 MSTORE PUSH1 0x9 ADD SWAP1 SWAP2 MSTORE SWAP1 KECCAK256 SLOAD PUSH1 0x1 EQ ISZERO PUSH2 0x119E JUMPI PUSH1 0x40 MLOAD PUSH3 0x461BCD PUSH1 0xE5 SHL DUP2 MSTORE PUSH1 0x20 PUSH1 0x4 DUP3 ADD MSTORE PUSH1 0x23 PUSH1 0x24 DUP3 ADD MSTORE PUSH32 0x54726F706879204B696E67204172636164653A20416C72656164792073656174 PUSH1 0x44 DUP3 ADD MSTORE PUSH3 0x32B217 PUSH1 0xE9 SHL PUSH1 0x64 DUP3 ADD MSTORE PUSH1 0x84 ADD PUSH2 0x8AA JUMP JUMPDEST PUSH1 0x0 DUP4 DUP2 MSTORE PUSH1 0x2 PUSH1 0x20 SWAP1 DUP2 MSTORE PUSH1 0x40 DUP1 DUP4 KECCAK256 PUSH1 0x1 PUSH1 0x1 PUSH1 0xA0 SHL SUB DUP7 AND DUP1 DUP6 MSTORE PUSH1 0x9 SWAP1 SWAP2 ADD DUP4 MSTORE SWAP3 DUP2 SWAP1 KECCAK256 PUSH1 0x1 SWAP1 SSTORE DUP1 MLOAD SWAP3 DUP4 MSTORE SWAP1 DUP3 ADD DUP6 SWAP1 MSTORE PUSH32 0x9F2DEEFFF0A36949D580CDD4BA9959B4A94786E786BAD5650001B58B625FBBB1 SWAP2 ADD PUSH2 0x9D5 JUMP JUMPDEST PUSH1 0x0 DUP3 DUP2 MSTORE PUSH1 0x20 DUP2 SWAP1 MSTORE PUSH1 0x40 SWAP1 KECCAK256 PUSH1 0x1 ADD SLOAD PUSH2 0x1219 DUP2 PUSH2 0x1657 JUMP JUMPDEST PUSH2 0x8B3 DUP4 DUP4 PUSH2 0x16E5 JUMP JUMPDEST PUSH1 0x0 DUP2 DUP2 MSTORE PUSH1 0x2 PUSH1 0x20 SWAP1 DUP2 MSTORE PUSH1 0x40 DUP1 DUP4 KECCAK256 CALLER DUP5 MSTORE PUSH1 0x9 ADD SWAP1 SWAP2 MSTORE SWAP1 KECCAK256 SLOAD PUSH1 0x1 EQ PUSH2 0x1299 JUMPI PUSH1 0x40 MLOAD PUSH3 0x461BCD PUSH1 0xE5 SHL DUP2 MSTORE PUSH1 0x20 PUSH1 0x4 DUP3 ADD MSTORE PUSH1 0x21 PUSH1 0x24 DUP3 ADD MSTORE PUSH32 0x54726F706879204B696E67204172636164653A20556E617574686F72697A6564 PUSH1 0x44 DUP3 ADD MSTORE PUSH1 0x17 PUSH1 0xF9 SHL PUSH1 0x64 DUP3 ADD MSTORE PUSH1 0x84 ADD PUSH2 0x8AA JUMP JUMPDEST PUSH1 0x0 DUP2 DUP2 MSTORE PUSH1 0x2 PUSH1 0x20 MSTORE PUSH1 0x40 SWAP1 KECCAK256 PUSH1 0x4 ADD SLOAD PUSH1 0x1 EQ PUSH2 0x12FA JUMPI PUSH1 0x40 MLOAD PUSH3 0x461BCD PUSH1 0xE5 SHL DUP2 MSTORE PUSH1 0x20 PUSH1 0x4 DUP3 ADD DUP2 SWAP1 MSTORE PUSH1 0x24 DUP3 ADD MSTORE PUSH32 0x54726F706879204B696E67204172636164653A2047616D6520636C6F7365642E PUSH1 0x44 DUP3 ADD MSTORE PUSH1 0x64 ADD PUSH2 0x8AA JUMP JUMPDEST PUSH1 0x0 DUP2 DUP2 MSTORE PUSH1 0x2 PUSH1 0x20 DUP2 SWAP1 MSTORE PUSH1 0x40 SWAP1 SWAP2 KECCAK256 PUSH1 0x1 DUP2 ADD SLOAD SWAP2 ADD SLOAD GT PUSH2 0x1373 JUMPI PUSH1 0x40 MLOAD PUSH3 0x461BCD PUSH1 0xE5 SHL DUP2 MSTORE PUSH1 0x20 PUSH1 0x4 DUP3 ADD MSTORE PUSH1 0x2A PUSH1 0x24 DUP3 ADD MSTORE PUSH32 0x54726F706879204B696E67204172636164653A2047616D652066756C6C2E2020 PUSH1 0x44 DUP3 ADD MSTORE PUSH10 0x2A393C9030B3B0B4B717 PUSH1 0xB1 SHL PUSH1 0x64 DUP3 ADD MSTORE PUSH1 0x84 ADD PUSH2 0x8AA JUMP JUMPDEST PUSH1 0x0 DUP2 DUP2 MSTORE PUSH1 0x2 PUSH1 0x20 SWAP1 DUP2 MSTORE PUSH1 0x40 DUP1 DUP4 KECCAK256 CALLER DUP5 MSTORE PUSH1 0x8 ADD SWAP1 SWAP2 MSTORE SWAP1 KECCAK256 SLOAD ISZERO PUSH2 0x13ED JUMPI PUSH1 0x40 MLOAD PUSH3 0x461BCD PUSH1 0xE5 SHL DUP2 MSTORE PUSH1 0x20 PUSH1 0x4 DUP3 ADD MSTORE PUSH1 0x27 PUSH1 0x24 DUP3 ADD MSTORE PUSH32 0x54726F706879204B696E67204172636164653A20416C72656164792072656769 PUSH1 0x44 DUP3 ADD MSTORE PUSH7 0x39BA32B932B217 PUSH1 0xC9 SHL PUSH1 0x64 DUP3 ADD MSTORE PUSH1 0x84 ADD PUSH2 0x8AA JUMP JUMPDEST PUSH1 0x0 DUP2 DUP2 MSTORE PUSH1 0x2 PUSH1 0x20 DUP2 SWAP1 MSTORE PUSH1 0x40 SWAP1 SWAP2 KECCAK256 ADD SLOAD PUSH2 0x1458 JUMPI PUSH1 0x40 MLOAD PUSH3 0x461BCD PUSH1 0xE5 SHL DUP2 MSTORE PUSH1 0x20 PUSH1 0x4 DUP3 ADD MSTORE PUSH1 0x23 PUSH1 0x24 DUP3 ADD MSTORE PUSH32 0x54726F706879204B696E67204172636164653A2047616D65206E6F7420666F75 PUSH1 0x44 DUP3 ADD MSTORE PUSH3 0x373217 PUSH1 0xE9 SHL PUSH1 0x64 DUP3 ADD MSTORE PUSH1 0x84 ADD PUSH2 0x8AA JUMP JUMPDEST PUSH1 0x0 DUP2 DUP2 MSTORE PUSH1 0x2 PUSH1 0x20 SWAP1 DUP2 MSTORE PUSH1 0x40 DUP1 DUP4 KECCAK256 PUSH1 0x5 ADD SLOAD PUSH1 0x1 PUSH1 0x1 PUSH1 0xA0 SHL SUB SWAP1 DUP2 AND DUP5 MSTORE PUSH1 0x1 SWAP1 SWAP3 MSTORE SWAP1 SWAP2 KECCAK256 SLOAD AND PUSH4 0x23B872DD CALLER PUSH1 0x0 DUP5 DUP2 MSTORE PUSH1 0x2 PUSH1 0x20 MSTORE PUSH1 0x40 SWAP1 DUP2 SWAP1 KECCAK256 PUSH1 0x3 ADD SLOAD SWAP1 MLOAD PUSH1 0xE0 DUP5 SWAP1 SHL PUSH1 0x1 PUSH1 0x1 PUSH1 0xE0 SHL SUB NOT AND DUP2 MSTORE PUSH1 0x1 PUSH1 0x1 PUSH1 0xA0 SHL SUB SWAP1 SWAP3 AND PUSH1 0x4 DUP4 ADD MSTORE ADDRESS PUSH1 0x24 DUP4 ADD MSTORE PUSH1 0x44 DUP3 ADD MSTORE PUSH1 0x64 ADD PUSH1 0x20 PUSH1 0x40 MLOAD DUP1 DUP4 SUB DUP2 PUSH1 0x0 DUP8 DUP1 EXTCODESIZE ISZERO DUP1 ISZERO PUSH2 0x14E9 JUMPI PUSH1 0x0 DUP1 REVERT JUMPDEST POP GAS CALL ISZERO DUP1 ISZERO PUSH2 0x14FD JUMPI RETURNDATASIZE PUSH1 0x0 DUP1 RETURNDATACOPY RETURNDATASIZE PUSH1 0x0 REVERT JUMPDEST POP POP POP POP PUSH1 0x40 MLOAD RETURNDATASIZE PUSH1 0x1F NOT PUSH1 0x1F DUP3 ADD AND DUP3 ADD DUP1 PUSH1 0x40 MSTORE POP DUP2 ADD SWAP1 PUSH2 0x1521 SWAP2 SWAP1 PUSH2 0x1AC4 JUMP JUMPDEST PUSH2 0x1588 JUMPI PUSH1 0x40 MLOAD PUSH3 0x461BCD PUSH1 0xE5 SHL DUP2 MSTORE PUSH1 0x20 PUSH1 0x4 DUP3 ADD MSTORE PUSH1 0x32 PUSH1 0x24 DUP3 ADD MSTORE PUSH32 0x54726F706879204B696E67204172636164653A204D75737420617070726F7665 PUSH1 0x44 DUP3 ADD MSTORE PUSH18 0x103932B3B4B9BA3930BA34B7B7103332B297 PUSH1 0x71 SHL PUSH1 0x64 DUP3 ADD MSTORE PUSH1 0x84 ADD PUSH2 0x8AA JUMP JUMPDEST PUSH1 0x0 DUP2 DUP2 MSTORE PUSH1 0x2 PUSH1 0x20 MSTORE PUSH1 0x40 SWAP1 KECCAK256 PUSH1 0x3 ADD SLOAD PUSH2 0x15A7 SWAP1 DUP3 SWAP1 CALLER SWAP1 PUSH2 0x175D JUMP JUMPDEST POP JUMP JUMPDEST PUSH1 0x0 DUP1 MLOAD PUSH1 0x20 PUSH2 0x1D58 DUP4 CODECOPY DUP2 MLOAD SWAP2 MSTORE PUSH2 0x15C2 DUP2 PUSH2 0x1657 JUMP JUMPDEST PUSH1 0x0 DUP7 DUP2 MSTORE PUSH1 0x2 PUSH1 0x20 DUP2 DUP2 MSTORE PUSH1 0x40 DUP1 DUP5 KECCAK256 PUSH1 0x1 PUSH1 0x4 DUP3 ADD DUP2 SWAP1 SSTORE PUSH1 0x6 DUP3 ADD DUP7 SWAP1 SSTORE PUSH1 0x3 DUP3 ADD DUP12 SWAP1 SSTORE PUSH1 0x5 DUP3 ADD DUP1 SLOAD PUSH1 0x1 PUSH1 0x1 PUSH1 0xA0 SHL SUB NOT AND PUSH1 0x1 PUSH1 0x1 PUSH1 0xA0 SHL SUB DUP13 AND OR SWAP1 SSTORE DUP2 ADD SWAP5 SWAP1 SWAP5 SSTORE SWAP2 DUP4 ADD DUP7 SWAP1 SSTORE DUP3 SLOAD PUSH1 0xFF NOT AND DUP6 ISZERO ISZERO OR SWAP1 SWAP3 SSTORE MLOAD DUP8 DUP2 MSTORE PUSH32 0x9E5237C6A8BB45DF74799CF138EBDA4FED0574BED906DA41387ACDC4A3CBE3D8 SWAP2 ADD PUSH1 0x40 MLOAD DUP1 SWAP2 SUB SWAP1 LOG1 POP POP POP POP POP POP JUMP JUMPDEST PUSH2 0x15A7 DUP2 CALLER PUSH2 0x1809 JUMP JUMPDEST PUSH2 0x166B DUP3 DUP3 PUSH2 0xD98 JUMP JUMPDEST PUSH2 0xADF JUMPI PUSH1 0x0 DUP3 DUP2 MSTORE PUSH1 0x20 DUP2 DUP2 MSTORE PUSH1 0x40 DUP1 DUP4 KECCAK256 PUSH1 0x1 PUSH1 0x1 PUSH1 0xA0 SHL SUB DUP6 AND DUP5 MSTORE SWAP1 SWAP2 MSTORE SWAP1 KECCAK256 DUP1 SLOAD PUSH1 0xFF NOT AND PUSH1 0x1 OR SWAP1 SSTORE PUSH2 0x16A1 CALLER SWAP1 JUMP JUMPDEST PUSH1 0x1 PUSH1 0x1 PUSH1 0xA0 SHL SUB AND DUP2 PUSH1 0x1 PUSH1 0x1 PUSH1 0xA0 SHL SUB AND DUP4 PUSH32 0x2F8788117E7EFF1D82E926EC794901D17C78024A50270940304540A733656F0D PUSH1 0x40 MLOAD PUSH1 0x40 MLOAD DUP1 SWAP2 SUB SWAP1 LOG4 POP POP JUMP JUMPDEST PUSH2 0x16EF DUP3 DUP3 PUSH2 0xD98 JUMP JUMPDEST ISZERO PUSH2 0xADF JUMPI PUSH1 0x0 DUP3 DUP2 MSTORE PUSH1 0x20 DUP2 DUP2 MSTORE PUSH1 0x40 DUP1 DUP4 KECCAK256 PUSH1 0x1 PUSH1 0x1 PUSH1 0xA0 SHL SUB DUP6 AND DUP1 DUP6 MSTORE SWAP3 MSTORE DUP1 DUP4 KECCAK256 DUP1 SLOAD PUSH1 0xFF NOT AND SWAP1 SSTORE MLOAD CALLER SWAP3 DUP6 SWAP2 PUSH32 0xF6391F5C32D9C69D2A47EA670B442974B53935D1EDC7FD64EB21E047A839171B SWAP2 SWAP1 LOG4 POP POP JUMP JUMPDEST PUSH1 0x0 PUSH2 0x1756 DUP3 DUP5 PUSH2 0x1CB5 JUMP JUMPDEST SWAP4 SWAP3 POP POP POP JUMP JUMPDEST PUSH1 0x0 DUP4 DUP2 MSTORE PUSH1 0x2 PUSH1 0x20 MSTORE PUSH1 0x40 DUP2 KECCAK256 PUSH1 0x1 DUP1 DUP3 ADD DUP1 SLOAD SWAP3 SWAP4 SWAP2 SWAP3 SWAP1 SWAP2 SWAP1 PUSH2 0x1784 SWAP1 DUP5 SWAP1 PUSH2 0x1C5E JUMP JUMPDEST SWAP1 SWAP2 SSTORE POP POP PUSH1 0x1 PUSH1 0x1 PUSH1 0xA0 SHL SUB DUP4 AND PUSH1 0x0 SWAP1 DUP2 MSTORE PUSH1 0x7 DUP3 ADD PUSH1 0x20 SWAP1 DUP2 MSTORE PUSH1 0x40 DUP1 DUP4 KECCAK256 DUP6 SWAP1 SSTORE PUSH1 0x8 DUP5 ADD SWAP1 SWAP2 MSTORE DUP2 KECCAK256 PUSH1 0x1 SWAP1 SSTORE PUSH1 0x6 DUP3 ADD DUP1 SLOAD DUP5 SWAP3 SWAP1 PUSH2 0x17CA SWAP1 DUP5 SWAP1 PUSH2 0x1C5E JUMP JUMPDEST SWAP1 SWAP2 SSTORE POP POP PUSH1 0x40 MLOAD DUP5 DUP2 MSTORE CALLER SWAP1 PUSH31 0x7DC6AB80CC84C043B7B8D4FCAFC802187470087F7EA7FCCD2E17AECD0256A1 SWAP1 PUSH1 0x20 ADD PUSH1 0x40 MLOAD DUP1 SWAP2 SUB SWAP1 LOG2 POP POP POP POP JUMP JUMPDEST PUSH2 0x1813 DUP3 DUP3 PUSH2 0xD98 JUMP JUMPDEST PUSH2 0xADF JUMPI PUSH2 0x182B DUP2 PUSH1 0x1 PUSH1 0x1 PUSH1 0xA0 SHL SUB AND PUSH1 0x14 PUSH2 0x186D JUMP JUMPDEST PUSH2 0x1836 DUP4 PUSH1 0x20 PUSH2 0x186D JUMP JUMPDEST PUSH1 0x40 MLOAD PUSH1 0x20 ADD PUSH2 0x1847 SWAP3 SWAP2 SWAP1 PUSH2 0x1BB6 JUMP JUMPDEST PUSH1 0x40 DUP1 MLOAD PUSH1 0x1F NOT DUP2 DUP5 SUB ADD DUP2 MSTORE SWAP1 DUP3 SWAP1 MSTORE PUSH3 0x461BCD PUSH1 0xE5 SHL DUP3 MSTORE PUSH2 0x8AA SWAP2 PUSH1 0x4 ADD PUSH2 0x1C2B JUMP JUMPDEST PUSH1 0x60 PUSH1 0x0 PUSH2 0x187C DUP4 PUSH1 0x2 PUSH2 0x1C96 JUMP JUMPDEST PUSH2 0x1887 SWAP1 PUSH1 0x2 PUSH2 0x1C5E JUMP JUMPDEST PUSH8 0xFFFFFFFFFFFFFFFF DUP2 GT ISZERO PUSH2 0x18AD JUMPI PUSH4 0x4E487B71 PUSH1 0xE0 SHL PUSH1 0x0 MSTORE PUSH1 0x41 PUSH1 0x4 MSTORE PUSH1 0x24 PUSH1 0x0 REVERT JUMPDEST PUSH1 0x40 MLOAD SWAP1 DUP1 DUP3 MSTORE DUP1 PUSH1 0x1F ADD PUSH1 0x1F NOT AND PUSH1 0x20 ADD DUP3 ADD PUSH1 0x40 MSTORE DUP1 ISZERO PUSH2 0x18D7 JUMPI PUSH1 0x20 DUP3 ADD DUP2 DUP1 CALLDATASIZE DUP4 CALLDATACOPY ADD SWAP1 POP JUMPDEST POP SWAP1 POP PUSH1 0x3 PUSH1 0xFC SHL DUP2 PUSH1 0x0 DUP2 MLOAD DUP2 LT PUSH2 0x1900 JUMPI PUSH4 0x4E487B71 PUSH1 0xE0 SHL PUSH1 0x0 MSTORE PUSH1 0x32 PUSH1 0x4 MSTORE PUSH1 0x24 PUSH1 0x0 REVERT JUMPDEST PUSH1 0x20 ADD ADD SWAP1 PUSH1 0x1 PUSH1 0x1 PUSH1 0xF8 SHL SUB NOT AND SWAP1 DUP2 PUSH1 0x0 BYTE SWAP1 MSTORE8 POP PUSH1 0xF PUSH1 0xFB SHL DUP2 PUSH1 0x1 DUP2 MLOAD DUP2 LT PUSH2 0x193D JUMPI PUSH4 0x4E487B71 PUSH1 0xE0 SHL PUSH1 0x0 MSTORE PUSH1 0x32 PUSH1 0x4 MSTORE PUSH1 0x24 PUSH1 0x0 REVERT JUMPDEST PUSH1 0x20 ADD ADD SWAP1 PUSH1 0x1 PUSH1 0x1 PUSH1 0xF8 SHL SUB NOT AND SWAP1 DUP2 PUSH1 0x0 BYTE SWAP1 MSTORE8 POP PUSH1 0x0 PUSH2 0x1961 DUP5 PUSH1 0x2 PUSH2 0x1C96 JUMP JUMPDEST PUSH2 0x196C SWAP1 PUSH1 0x1 PUSH2 0x1C5E JUMP JUMPDEST SWAP1 POP JUMPDEST PUSH1 0x1 DUP2 GT ISZERO PUSH2 0x1A00 JUMPI PUSH16 0x181899199A1A9B1B9C1CB0B131B232B3 PUSH1 0x81 SHL DUP6 PUSH1 0xF AND PUSH1 0x10 DUP2 LT PUSH2 0x19AE JUMPI PUSH4 0x4E487B71 PUSH1 0xE0 SHL PUSH1 0x0 MSTORE PUSH1 0x32 PUSH1 0x4 MSTORE PUSH1 0x24 PUSH1 0x0 REVERT JUMPDEST BYTE PUSH1 0xF8 SHL DUP3 DUP3 DUP2 MLOAD DUP2 LT PUSH2 0x19D2 JUMPI PUSH4 0x4E487B71 PUSH1 0xE0 SHL PUSH1 0x0 MSTORE PUSH1 0x32 PUSH1 0x4 MSTORE PUSH1 0x24 PUSH1 0x0 REVERT JUMPDEST PUSH1 0x20 ADD ADD SWAP1 PUSH1 0x1 PUSH1 0x1 PUSH1 0xF8 SHL SUB NOT AND SWAP1 DUP2 PUSH1 0x0 BYTE SWAP1 MSTORE8 POP PUSH1 0x4 SWAP5 SWAP1 SWAP5 SHR SWAP4 PUSH2 0x19F9 DUP2 PUSH2 0x1CFC JUMP JUMPDEST SWAP1 POP PUSH2 0x196F JUMP JUMPDEST POP DUP4 ISZERO PUSH2 0x1756 JUMPI PUSH1 0x40 MLOAD PUSH3 0x461BCD PUSH1 0xE5 SHL DUP2 MSTORE PUSH1 0x20 PUSH1 0x4 DUP3 ADD DUP2 SWAP1 MSTORE PUSH1 0x24 DUP3 ADD MSTORE PUSH32 0x537472696E67733A20686578206C656E67746820696E73756666696369656E74 PUSH1 0x44 DUP3 ADD MSTORE PUSH1 0x64 ADD PUSH2 0x8AA JUMP JUMPDEST DUP1 CALLDATALOAD PUSH1 0x1 PUSH1 0x1 PUSH1 0xA0 SHL SUB DUP2 AND DUP2 EQ PUSH2 0x1A66 JUMPI PUSH1 0x0 DUP1 REVERT JUMPDEST SWAP2 SWAP1 POP JUMP JUMPDEST PUSH1 0x0 PUSH1 0x20 DUP3 DUP5 SUB SLT ISZERO PUSH2 0x1A7C JUMPI DUP1 DUP2 REVERT JUMPDEST PUSH2 0x1756 DUP3 PUSH2 0x1A4F JUMP JUMPDEST PUSH1 0x0 DUP1 PUSH1 0x0 PUSH1 0x60 DUP5 DUP7 SUB SLT ISZERO PUSH2 0x1A99 JUMPI DUP2 DUP3 REVERT JUMPDEST PUSH2 0x1AA2 DUP5 PUSH2 0x1A4F JUMP JUMPDEST SWAP3 POP PUSH1 0x20 DUP5 ADD CALLDATALOAD SWAP2 POP PUSH1 0x40 DUP5 ADD CALLDATALOAD PUSH2 0x1AB9 DUP2 PUSH2 0x1D29 JUMP JUMPDEST DUP1 SWAP2 POP POP SWAP3 POP SWAP3 POP SWAP3 JUMP JUMPDEST PUSH1 0x0 PUSH1 0x20 DUP3 DUP5 SUB SLT ISZERO PUSH2 0x1AD5 JUMPI DUP1 DUP2 REVERT JUMPDEST DUP2 MLOAD PUSH2 0x1756 DUP2 PUSH2 0x1D29 JUMP JUMPDEST PUSH1 0x0 PUSH1 0x20 DUP3 DUP5 SUB SLT ISZERO PUSH2 0x1AF1 JUMPI DUP1 DUP2 REVERT JUMPDEST POP CALLDATALOAD SWAP2 SWAP1 POP JUMP JUMPDEST PUSH1 0x0 DUP1 PUSH1 0x40 DUP4 DUP6 SUB SLT ISZERO PUSH2 0x1B0A JUMPI DUP2 DUP3 REVERT JUMPDEST DUP3 CALLDATALOAD SWAP2 POP PUSH2 0x1B1A PUSH1 0x20 DUP5 ADD PUSH2 0x1A4F JUMP JUMPDEST SWAP1 POP SWAP3 POP SWAP3 SWAP1 POP JUMP JUMPDEST PUSH1 0x0 PUSH1 0x20 DUP3 DUP5 SUB SLT ISZERO PUSH2 0x1B34 JUMPI DUP1 DUP2 REVERT JUMPDEST DUP2 CALLDATALOAD PUSH1 0x1 PUSH1 0x1 PUSH1 0xE0 SHL SUB NOT DUP2 AND DUP2 EQ PUSH2 0x1756 JUMPI DUP2 DUP3 REVERT JUMPDEST PUSH1 0x0 PUSH1 0x20 DUP3 DUP5 SUB SLT ISZERO PUSH2 0x1B5C JUMPI DUP1 DUP2 REVERT JUMPDEST POP MLOAD SWAP2 SWAP1 POP JUMP JUMPDEST PUSH1 0x0 DUP1 PUSH1 0x0 DUP1 PUSH1 0x0 PUSH1 0xA0 DUP7 DUP9 SUB SLT ISZERO PUSH2 0x1B7A JUMPI DUP1 DUP2 REVERT JUMPDEST DUP6 CALLDATALOAD SWAP5 POP PUSH1 0x20 DUP7 ADD CALLDATALOAD SWAP4 POP PUSH2 0x1B91 PUSH1 0x40 DUP8 ADD PUSH2 0x1A4F JUMP JUMPDEST SWAP3 POP PUSH1 0x60 DUP7 ADD CALLDATALOAD SWAP2 POP PUSH1 0x80 DUP7 ADD CALLDATALOAD PUSH2 0x1BA8 DUP2 PUSH2 0x1D29 JUMP JUMPDEST DUP1 SWAP2 POP POP SWAP3 SWAP6 POP SWAP3 SWAP6 SWAP1 SWAP4 POP JUMP JUMPDEST PUSH32 0x416363657373436F6E74726F6C3A206163636F756E7420000000000000000000 DUP2 MSTORE PUSH1 0x0 DUP4 MLOAD PUSH2 0x1BEE DUP2 PUSH1 0x17 DUP6 ADD PUSH1 0x20 DUP9 ADD PUSH2 0x1CCC JUMP JUMPDEST PUSH17 0x1034B99036B4B9B9B4B733903937B6329 PUSH1 0x7D SHL PUSH1 0x17 SWAP2 DUP5 ADD SWAP2 DUP3 ADD MSTORE DUP4 MLOAD PUSH2 0x1C1F DUP2 PUSH1 0x28 DUP5 ADD PUSH1 0x20 DUP9 ADD PUSH2 0x1CCC JUMP JUMPDEST ADD PUSH1 0x28 ADD SWAP5 SWAP4 POP POP POP POP JUMP JUMPDEST PUSH1 0x20 DUP2 MSTORE PUSH1 0x0 DUP3 MLOAD DUP1 PUSH1 0x20 DUP5 ADD MSTORE PUSH2 0x1C4A DUP2 PUSH1 0x40 DUP6 ADD PUSH1 0x20 DUP8 ADD PUSH2 0x1CCC JUMP JUMPDEST PUSH1 0x1F ADD PUSH1 0x1F NOT AND SWAP2 SWAP1 SWAP2 ADD PUSH1 0x40 ADD SWAP3 SWAP2 POP POP JUMP JUMPDEST PUSH1 0x0 DUP3 NOT DUP3 GT ISZERO PUSH2 0x1C71 JUMPI PUSH2 0x1C71 PUSH2 0x1D13 JUMP JUMPDEST POP ADD SWAP1 JUMP JUMPDEST PUSH1 0x0 DUP3 PUSH2 0x1C91 JUMPI PUSH4 0x4E487B71 PUSH1 0xE0 SHL DUP2 MSTORE PUSH1 0x12 PUSH1 0x4 MSTORE PUSH1 0x24 DUP2 REVERT JUMPDEST POP DIV SWAP1 JUMP JUMPDEST PUSH1 0x0 DUP2 PUSH1 0x0 NOT DIV DUP4 GT DUP3 ISZERO ISZERO AND ISZERO PUSH2 0x1CB0 JUMPI PUSH2 0x1CB0 PUSH2 0x1D13 JUMP JUMPDEST POP MUL SWAP1 JUMP JUMPDEST PUSH1 0x0 DUP3 DUP3 LT ISZERO PUSH2 0x1CC7 JUMPI PUSH2 0x1CC7 PUSH2 0x1D13 JUMP JUMPDEST POP SUB SWAP1 JUMP JUMPDEST PUSH1 0x0 JUMPDEST DUP4 DUP2 LT ISZERO PUSH2 0x1CE7 JUMPI DUP2 DUP2 ADD MLOAD DUP4 DUP3 ADD MSTORE PUSH1 0x20 ADD PUSH2 0x1CCF JUMP JUMPDEST DUP4 DUP2 GT ISZERO PUSH2 0x1CF6 JUMPI PUSH1 0x0 DUP5 DUP5 ADD MSTORE JUMPDEST POP POP POP POP JUMP JUMPDEST PUSH1 0x0 DUP2 PUSH2 0x1D0B JUMPI PUSH2 0x1D0B PUSH2 0x1D13 JUMP JUMPDEST POP PUSH1 0x0 NOT ADD SWAP1 JUMP JUMPDEST PUSH4 0x4E487B71 PUSH1 0xE0 SHL PUSH1 0x0 MSTORE PUSH1 0x11 PUSH1 0x4 MSTORE PUSH1 0x24 PUSH1 0x0 REVERT JUMPDEST DUP1 ISZERO ISZERO DUP2 EQ PUSH2 0x15A7 JUMPI PUSH1 0x0 DUP1 REVERT INVALID BALANCE BALANCE 0xFC DUP12 0xEB 0x48 0xB8 SWAP6 NOT PUSH27 0xD34F21C86AFDF6A989A5CD911181952DBF8DFCF181923C13B5ABBC DUP6 SDIV 0xD TIMESTAMP PUSH16 0x9500A16CFD9F7D94261C880B9A4E03D5 DUP5 0xD2 DUP13 MOD SDIV SWAP13 LOG2 PUSH5 0x6970667358 0x22 SLT KECCAK256 0xE SWAP3 LOG2 0xEA 0x1F 0x29 0x4E 0xEC 0xE1 EQ 0xAB SUB PUSH22 0xD7D06CCDF4F6ACE7FB5E54311DF3B139D0653364736F PUSH13 0x63430008040033000000000000 "
				},
				"gasEstimates": {
					"creation": {
						"codeDepositCost": "1519400",
						"executionCost": "infinite",
						"totalCost": "infinite"
					},
					"external": {
						"ARCADE_MANAGER()": "infinite",
						"DEFAULT_ADMIN_ROLE()": "284",
						"GAME_MASTER()": "infinite",
						"acceptedArcadeTokens(address)": "2261",
						"addArcadeToken(address,uint256,bool)": "infinite",
						"arcadeToken(address)": "2156",
						"closeGame(uint256)": "infinite",
						"createGame(uint256,uint256,address,uint256,bool)": "infinite",
						"decimals()": "1107",
						"deleteGame(uint256)": "infinite",
						"fee_percentage()": "1084",
						"gameData(uint256)": "6325",
						"getRoleAdmin(bytes32)": "1237",
						"grantRole(bytes32,address)": "infinite",
						"hasRole(bytes32,address)": "1397",
						"isAccepted(address)": "1321",
						"leaveMatch(uint256)": "6511",
						"openGame(uint256)": "infinite",
						"owner()": "1148",
						"placePlayer(uint256,address)": "infinite",
						"reconcile(address)": "infinite",
						"refund(uint256,address)": "infinite",
						"register(uint256)": "infinite",
						"removeArcadeToken(address)": "infinite",
						"removePlayer(uint256,address)": "infinite",
						"renounceRole(bytes32,address)": "24340",
						"revokeRole(bytes32,address)": "infinite",
						"setArcadeFeePercentage(uint256)": "infinite",
						"setWinner(uint256,address)": "infinite",
						"supportsInterface(bytes4)": "495"
					},
					"internal": {
						"_register(uint256,address,uint256)": "infinite"
					}
				},
				"methodIdentifiers": {
					"ARCADE_MANAGER()": "c18e397e",
					"DEFAULT_ADMIN_ROLE()": "a217fddf",
					"GAME_MASTER()": "99597b70",
					"acceptedArcadeTokens(address)": "b22c376d",
					"addArcadeToken(address,uint256,bool)": "06602a48",
					"arcadeToken(address)": "9d00c61e",
					"closeGame(uint256)": "2d6ef310",
					"createGame(uint256,uint256,address,uint256,bool)": "f336ee3c",
					"decimals()": "313ce567",
					"deleteGame(uint256)": "248a55a1",
					"fee_percentage()": "c46ed45a",
					"gameData(uint256)": "ccaf237f",
					"getRoleAdmin(bytes32)": "248a9ca3",
					"grantRole(bytes32,address)": "2f2ff15d",
					"hasRole(bytes32,address)": "91d14854",
					"isAccepted(address)": "e6f091f9",
					"leaveMatch(uint256)": "9f512e22",
					"openGame(uint256)": "00f5544f",
					"owner()": "8da5cb5b",
					"placePlayer(uint256,address)": "b9888d89",
					"reconcile(address)": "09a18635",
					"refund(uint256,address)": "7ad226dc",
					"register(uint256)": "f207564e",
					"removeArcadeToken(address)": "3e16518f",
					"removePlayer(uint256,address)": "2ba67100",
					"renounceRole(bytes32,address)": "36568abe",
					"revokeRole(bytes32,address)": "d547741f",
					"setArcadeFeePercentage(uint256)": "2ac5016f",
					"setWinner(uint256,address)": "9c623683",
					"supportsInterface(bytes4)": "01ffc9a7"
				}
			},
			"storageLayout": {
				"storage": [
					{
						"astId": 923,
						"contract": "contracts/Arcade.sol:Arcade",
						"label": "_roles",
						"offset": 0,
						"slot": "0",
						"type": "t_mapping(t_bytes32,t_struct(RoleData)918_storage)"
					},
					{
						"astId": 107,
						"contract": "contracts/Arcade.sol:Arcade",
						"label": "acceptedArcadeTokens",
						"offset": 0,
						"slot": "1",
						"type": "t_mapping(t_address,t_struct(ArcadeToken)102_storage)"
					},
					{
						"astId": 112,
						"contract": "contracts/Arcade.sol:Arcade",
						"label": "gameData",
						"offset": 0,
						"slot": "2",
						"type": "t_mapping(t_uint256,t_struct(GameInfo)94_storage)"
					},
					{
						"astId": 115,
						"contract": "contracts/Arcade.sol:Arcade",
						"label": "decimals",
						"offset": 0,
						"slot": "3",
						"type": "t_uint256"
					},
					{
						"astId": 117,
						"contract": "contracts/Arcade.sol:Arcade",
						"label": "fee_percentage",
						"offset": 0,
						"slot": "4",
						"type": "t_uint256"
					},
					{
						"astId": 126,
						"contract": "contracts/Arcade.sol:Arcade",
						"label": "base",
						"offset": 0,
						"slot": "5",
						"type": "t_uint256"
					},
					{
						"astId": 128,
						"contract": "contracts/Arcade.sol:Arcade",
						"label": "owner",
						"offset": 0,
						"slot": "6",
						"type": "t_address"
					}
				],
				"types": {
					"t_address": {
						"encoding": "inplace",
						"label": "address",
						"numberOfBytes": "20"
					},
					"t_bool": {
						"encoding": "inplace",
						"label": "bool",
						"numberOfBytes": "1"
					},
					"t_bytes32": {
						"encoding": "inplace",
						"label": "bytes32",
						"numberOfBytes": "32"
					},
					"t_contract(IERC20)1955": {
						"encoding": "inplace",
						"label": "contract IERC20",
						"numberOfBytes": "20"
					},
					"t_mapping(t_address,t_bool)": {
						"encoding": "mapping",
						"key": "t_address",
						"label": "mapping(address => bool)",
						"numberOfBytes": "32",
						"value": "t_bool"
					},
					"t_mapping(t_address,t_struct(ArcadeToken)102_storage)": {
						"encoding": "mapping",
						"key": "t_address",
						"label": "mapping(address => struct Arcade.ArcadeToken)",
						"numberOfBytes": "32",
						"value": "t_struct(ArcadeToken)102_storage"
					},
					"t_mapping(t_address,t_uint256)": {
						"encoding": "mapping",
						"key": "t_address",
						"label": "mapping(address => uint256)",
						"numberOfBytes": "32",
						"value": "t_uint256"
					},
					"t_mapping(t_bytes32,t_struct(RoleData)918_storage)": {
						"encoding": "mapping",
						"key": "t_bytes32",
						"label": "mapping(bytes32 => struct AccessControl.RoleData)",
						"numberOfBytes": "32",
						"value": "t_struct(RoleData)918_storage"
					},
					"t_mapping(t_uint256,t_struct(GameInfo)94_storage)": {
						"encoding": "mapping",
						"key": "t_uint256",
						"label": "mapping(uint256 => struct Arcade.GameInfo)",
						"numberOfBytes": "32",
						"value": "t_struct(GameInfo)94_storage"
					},
					"t_struct(ArcadeToken)102_storage": {
						"encoding": "inplace",
						"label": "struct Arcade.ArcadeToken",
						"members": [
							{
								"astId": 97,
								"contract": "contracts/Arcade.sol:Arcade",
								"label": "native_token",
								"offset": 0,
								"slot": "0",
								"type": "t_contract(IERC20)1955"
							},
							{
								"astId": 99,
								"contract": "contracts/Arcade.sol:Arcade",
								"label": "active",
								"offset": 20,
								"slot": "0",
								"type": "t_bool"
							},
							{
								"astId": 101,
								"contract": "contracts/Arcade.sol:Arcade",
								"label": "redemption_rate",
								"offset": 0,
								"slot": "1",
								"type": "t_uint256"
							}
						],
						"numberOfBytes": "64"
					},
					"t_struct(GameInfo)94_storage": {
						"encoding": "inplace",
						"label": "struct Arcade.GameInfo",
						"members": [
							{
								"astId": 69,
								"contract": "contracts/Arcade.sol:Arcade",
								"label": "exchange",
								"offset": 0,
								"slot": "0",
								"type": "t_bool"
							},
							{
								"astId": 71,
								"contract": "contracts/Arcade.sol:Arcade",
								"label": "player_count",
								"offset": 0,
								"slot": "1",
								"type": "t_uint256"
							},
							{
								"astId": 73,
								"contract": "contracts/Arcade.sol:Arcade",
								"label": "player_limit",
								"offset": 0,
								"slot": "2",
								"type": "t_uint256"
							},
							{
								"astId": 75,
								"contract": "contracts/Arcade.sol:Arcade",
								"label": "registration_fee",
								"offset": 0,
								"slot": "3",
								"type": "t_uint256"
							},
							{
								"astId": 77,
								"contract": "contracts/Arcade.sol:Arcade",
								"label": "status",
								"offset": 0,
								"slot": "4",
								"type": "t_uint256"
							},
							{
								"astId": 79,
								"contract": "contracts/Arcade.sol:Arcade",
								"label": "arcade_token",
								"offset": 0,
								"slot": "5",
								"type": "t_address"
							},
							{
								"astId": 81,
								"contract": "contracts/Arcade.sol:Arcade",
								"label": "total_fee",
								"offset": 0,
								"slot": "6",
								"type": "t_uint256"
							},
							{
								"astId": 85,
								"contract": "contracts/Arcade.sol:Arcade",
								"label": "fee",
								"offset": 0,
								"slot": "7",
								"type": "t_mapping(t_address,t_uint256)"
							},
							{
								"astId": 89,
								"contract": "contracts/Arcade.sol:Arcade",
								"label": "paid",
								"offset": 0,
								"slot": "8",
								"type": "t_mapping(t_address,t_uint256)"
							},
							{
								"astId": 93,
								"contract": "contracts/Arcade.sol:Arcade",
								"label": "seats",
								"offset": 0,
								"slot": "9",
								"type": "t_mapping(t_address,t_uint256)"
							}
						],
						"numberOfBytes": "320"
					},
					"t_struct(RoleData)918_storage": {
						"encoding": "inplace",
						"label": "struct AccessControl.RoleData",
						"members": [
							{
								"astId": 915,
								"contract": "contracts/Arcade.sol:Arcade",
								"label": "members",
								"offset": 0,
								"slot": "0",
								"type": "t_mapping(t_address,t_bool)"
							},
							{
								"astId": 917,
								"contract": "contracts/Arcade.sol:Arcade",
								"label": "adminRole",
								"offset": 0,
								"slot": "1",
								"type": "t_bytes32"
							}
						],
						"numberOfBytes": "64"
					},
					"t_uint256": {
						"encoding": "inplace",
						"label": "uint256",
						"numberOfBytes": "32"
					}
				}
			},
			"userdoc": {
				"kind": "user",
				"methods": {},
				"version": 1
			}
		}
	}
}