{
	"contracts/Arcade.sol": {
		"Arcade": {
			"abi": [
				{
					"inputs": [],
					"stateMutability": "nonpayable",
					"type": "constructor"
				},
				{
					"anonymous": false,
					"inputs": [
						{
							"indexed": false,
							"internalType": "uint256",
							"name": "id",
							"type": "uint256"
						}
					],
					"name": "CloseGame",
					"type": "event"
				},
				{
					"anonymous": false,
					"inputs": [
						{
							"indexed": false,
							"internalType": "uint256",
							"name": "id",
							"type": "uint256"
						}
					],
					"name": "CreateGame",
					"type": "event"
				},
				{
					"anonymous": false,
					"inputs": [
						{
							"indexed": false,
							"internalType": "uint256",
							"name": "id",
							"type": "uint256"
						}
					],
					"name": "DeleteGame",
					"type": "event"
				},
				{
					"anonymous": false,
					"inputs": [
						{
							"indexed": false,
							"internalType": "uint256",
							"name": "fee",
							"type": "uint256"
						}
					],
					"name": "Fee",
					"type": "event"
				},
				{
					"anonymous": false,
					"inputs": [
						{
							"indexed": false,
							"internalType": "uint256",
							"name": "id",
							"type": "uint256"
						}
					],
					"name": "OpenGame",
					"type": "event"
				},
				{
					"anonymous": false,
					"inputs": [
						{
							"indexed": false,
							"internalType": "uint256",
							"name": "payout",
							"type": "uint256"
						}
					],
					"name": "Payout",
					"type": "event"
				},
				{
					"anonymous": false,
					"inputs": [
						{
							"indexed": false,
							"internalType": "address",
							"name": "player",
							"type": "address"
						},
						{
							"indexed": false,
							"internalType": "uint256",
							"name": "id",
							"type": "uint256"
						},
						{
							"indexed": false,
							"internalType": "bool",
							"name": "status",
							"type": "bool"
						}
					],
					"name": "PlacePlayer",
					"type": "event"
				},
				{
					"anonymous": false,
					"inputs": [
						{
							"indexed": false,
							"internalType": "uint256",
							"name": "id",
							"type": "uint256"
						},
						{
							"indexed": false,
							"internalType": "address",
							"name": "player",
							"type": "address"
						},
						{
							"indexed": false,
							"internalType": "uint256",
							"name": "amount",
							"type": "uint256"
						}
					],
					"name": "Refund",
					"type": "event"
				},
				{
					"anonymous": false,
					"inputs": [
						{
							"indexed": true,
							"internalType": "address",
							"name": "_player",
							"type": "address"
						},
						{
							"indexed": false,
							"internalType": "uint256",
							"name": "id",
							"type": "uint256"
						}
					],
					"name": "Register",
					"type": "event"
				},
				{
					"anonymous": false,
					"inputs": [
						{
							"indexed": false,
							"internalType": "address",
							"name": "player",
							"type": "address"
						}
					],
					"name": "RemovePlayer",
					"type": "event"
				},
				{
					"anonymous": false,
					"inputs": [
						{
							"indexed": true,
							"internalType": "bytes32",
							"name": "role",
							"type": "bytes32"
						},
						{
							"indexed": true,
							"internalType": "bytes32",
							"name": "previousAdminRole",
							"type": "bytes32"
						},
						{
							"indexed": true,
							"internalType": "bytes32",
							"name": "newAdminRole",
							"type": "bytes32"
						}
					],
					"name": "RoleAdminChanged",
					"type": "event"
				},
				{
					"anonymous": false,
					"inputs": [
						{
							"indexed": true,
							"internalType": "bytes32",
							"name": "role",
							"type": "bytes32"
						},
						{
							"indexed": true,
							"internalType": "address",
							"name": "account",
							"type": "address"
						},
						{
							"indexed": true,
							"internalType": "address",
							"name": "sender",
							"type": "address"
						}
					],
					"name": "RoleGranted",
					"type": "event"
				},
				{
					"anonymous": false,
					"inputs": [
						{
							"indexed": true,
							"internalType": "bytes32",
							"name": "role",
							"type": "bytes32"
						},
						{
							"indexed": true,
							"internalType": "address",
							"name": "account",
							"type": "address"
						},
						{
							"indexed": true,
							"internalType": "address",
							"name": "sender",
							"type": "address"
						}
					],
					"name": "RoleRevoked",
					"type": "event"
				},
				{
					"inputs": [],
					"name": "ARCADE_MANAGER",
					"outputs": [
						{
							"internalType": "bytes32",
							"name": "",
							"type": "bytes32"
						}
					],
					"stateMutability": "view",
					"type": "function"
				},
				{
					"inputs": [],
					"name": "DEFAULT_ADMIN_ROLE",
					"outputs": [
						{
							"internalType": "bytes32",
							"name": "",
							"type": "bytes32"
						}
					],
					"stateMutability": "view",
					"type": "function"
				},
				{
					"inputs": [],
					"name": "GAME_MASTER",
					"outputs": [
						{
							"internalType": "bytes32",
							"name": "",
							"type": "bytes32"
						}
					],
					"stateMutability": "view",
					"type": "function"
				},
				{
					"inputs": [
						{
							"internalType": "address",
							"name": "",
							"type": "address"
						}
					],
					"name": "acceptedArcadeTokens",
					"outputs": [
						{
							"internalType": "contract IERC20",
							"name": "native_token",
							"type": "address"
						},
						{
							"internalType": "bool",
							"name": "active",
							"type": "bool"
						},
						{
							"internalType": "uint256",
							"name": "redemption_rate",
							"type": "uint256"
						}
					],
					"stateMutability": "view",
					"type": "function"
				},
				{
					"inputs": [
						{
							"internalType": "address",
							"name": "token_address",
							"type": "address"
						},
						{
							"internalType": "uint256",
							"name": "redemption_rate",
							"type": "uint256"
						},
						{
							"internalType": "bool",
							"name": "_active",
							"type": "bool"
						}
					],
					"name": "addArcadeToken",
					"outputs": [],
					"stateMutability": "nonpayable",
					"type": "function"
				},
				{
					"inputs": [
						{
							"internalType": "address",
							"name": "token_address",
							"type": "address"
						}
					],
					"name": "arcadeToken",
					"outputs": [
						{
							"internalType": "bool",
							"name": "",
							"type": "bool"
						},
						{
							"internalType": "uint256",
							"name": "",
							"type": "uint256"
						}
					],
					"stateMutability": "view",
					"type": "function"
				},
				{
					"inputs": [
						{
							"internalType": "uint256",
							"name": "game_id",
							"type": "uint256"
						}
					],
					"name": "closeGame",
					"outputs": [],
					"stateMutability": "nonpayable",
					"type": "function"
				},
				{
					"inputs": [
						{
							"internalType": "uint256",
							"name": "game_id",
							"type": "uint256"
						},
						{
							"internalType": "uint256",
							"name": "registration_fee",
							"type": "uint256"
						},
						{
							"internalType": "address",
							"name": "arcade_token",
							"type": "address"
						},
						{
							"internalType": "uint256",
							"name": "player_limit",
							"type": "uint256"
						},
						{
							"internalType": "bool",
							"name": "exchange",
							"type": "bool"
						}
					],
					"name": "createGame",
					"outputs": [],
					"stateMutability": "nonpayable",
					"type": "function"
				},
				{
					"inputs": [],
					"name": "decimals",
					"outputs": [
						{
							"internalType": "uint256",
							"name": "",
							"type": "uint256"
						}
					],
					"stateMutability": "view",
					"type": "function"
				},
				{
					"inputs": [
						{
							"internalType": "uint256",
							"name": "game_id",
							"type": "uint256"
						}
					],
					"name": "deleteGame",
					"outputs": [],
					"stateMutability": "nonpayable",
					"type": "function"
				},
				{
					"inputs": [],
					"name": "fee_percentage",
					"outputs": [
						{
							"internalType": "uint256",
							"name": "",
							"type": "uint256"
						}
					],
					"stateMutability": "view",
					"type": "function"
				},
				{
					"inputs": [
						{
							"internalType": "uint256",
							"name": "",
							"type": "uint256"
						}
					],
					"name": "gameData",
					"outputs": [
						{
							"internalType": "bool",
							"name": "exchange",
							"type": "bool"
						},
						{
							"internalType": "uint256",
							"name": "player_count",
							"type": "uint256"
						},
						{
							"internalType": "uint256",
							"name": "player_limit",
							"type": "uint256"
						},
						{
							"internalType": "uint256",
							"name": "registration_fee",
							"type": "uint256"
						},
						{
							"internalType": "uint256",
							"name": "status",
							"type": "uint256"
						},
						{
							"internalType": "address",
							"name": "arcade_token",
							"type": "address"
						},
						{
							"internalType": "uint256",
							"name": "total_fee",
							"type": "uint256"
						}
					],
					"stateMutability": "view",
					"type": "function"
				},
				{
					"inputs": [
						{
							"internalType": "bytes32",
							"name": "role",
							"type": "bytes32"
						}
					],
					"name": "getRoleAdmin",
					"outputs": [
						{
							"internalType": "bytes32",
							"name": "",
							"type": "bytes32"
						}
					],
					"stateMutability": "view",
					"type": "function"
				},
				{
					"inputs": [
						{
							"internalType": "bytes32",
							"name": "role",
							"type": "bytes32"
						},
						{
							"internalType": "address",
							"name": "account",
							"type": "address"
						}
					],
					"name": "grantRole",
					"outputs": [],
					"stateMutability": "nonpayable",
					"type": "function"
				},
				{
					"inputs": [
						{
							"internalType": "bytes32",
							"name": "role",
							"type": "bytes32"
						},
						{
							"internalType": "address",
							"name": "account",
							"type": "address"
						}
					],
					"name": "hasRole",
					"outputs": [
						{
							"internalType": "bool",
							"name": "",
							"type": "bool"
						}
					],
					"stateMutability": "view",
					"type": "function"
				},
				{
					"inputs": [
						{
							"internalType": "address",
							"name": "token_address",
							"type": "address"
						}
					],
					"name": "isAccepted",
					"outputs": [
						{
							"internalType": "bool",
							"name": "",
							"type": "bool"
						}
					],
					"stateMutability": "view",
					"type": "function"
				},
				{
					"inputs": [
						{
							"internalType": "uint256",
							"name": "game_id",
							"type": "uint256"
						}
					],
					"name": "leaveMatch",
					"outputs": [],
					"stateMutability": "nonpayable",
					"type": "function"
				},
				{
					"inputs": [
						{
							"internalType": "uint256",
							"name": "game_id",
							"type": "uint256"
						}
					],
					"name": "openGame",
					"outputs": [],
					"stateMutability": "nonpayable",
					"type": "function"
				},
				{
					"inputs": [],
					"name": "owner",
					"outputs": [
						{
							"internalType": "address",
							"name": "",
							"type": "address"
						}
					],
					"stateMutability": "view",
					"type": "function"
				},
				{
					"inputs": [
						{
							"internalType": "uint256",
							"name": "game_id",
							"type": "uint256"
						},
						{
							"internalType": "address",
							"name": "player",
							"type": "address"
						}
					],
					"name": "placePlayer",
					"outputs": [
						{
							"internalType": "bool",
							"name": "",
							"type": "bool"
						}
					],
					"stateMutability": "nonpayable",
					"type": "function"
				},
				{
					"inputs": [
						{
							"internalType": "address",
							"name": "arcade_token",
							"type": "address"
						}
					],
					"name": "reconcile",
					"outputs": [],
					"stateMutability": "nonpayable",
					"type": "function"
				},
				{
					"inputs": [
						{
							"internalType": "uint256",
							"name": "game_id",
							"type": "uint256"
						},
						{
							"internalType": "address",
							"name": "player",
							"type": "address"
						}
					],
					"name": "refund",
					"outputs": [],
					"stateMutability": "nonpayable",
					"type": "function"
				},
				{
					"inputs": [
						{
							"internalType": "uint256",
							"name": "game_id",
							"type": "uint256"
						}
					],
					"name": "register",
					"outputs": [],
					"stateMutability": "nonpayable",
					"type": "function"
				},
				{
					"inputs": [
						{
							"internalType": "address",
							"name": "token_address",
							"type": "address"
						}
					],
					"name": "removeArcadeToken",
					"outputs": [],
					"stateMutability": "nonpayable",
					"type": "function"
				},
				{
					"inputs": [
						{
							"internalType": "uint256",
							"name": "game_id",
							"type": "uint256"
						},
						{
							"internalType": "address",
							"name": "player",
							"type": "address"
						}
					],
					"name": "removePlayer",
					"outputs": [],
					"stateMutability": "nonpayable",
					"type": "function"
				},
				{
					"inputs": [
						{
							"internalType": "bytes32",
							"name": "role",
							"type": "bytes32"
						},
						{
							"internalType": "address",
							"name": "account",
							"type": "address"
						}
					],
					"name": "renounceRole",
					"outputs": [],
					"stateMutability": "nonpayable",
					"type": "function"
				},
				{
					"inputs": [
						{
							"internalType": "bytes32",
							"name": "role",
							"type": "bytes32"
						},
						{
							"internalType": "address",
							"name": "account",
							"type": "address"
						}
					],
					"name": "revokeRole",
					"outputs": [],
					"stateMutability": "nonpayable",
					"type": "function"
				},
				{
					"inputs": [
						{
							"internalType": "uint256",
							"name": "percentage",
							"type": "uint256"
						}
					],
					"name": "setArcadeFeePercentage",
					"outputs": [],
					"stateMutability": "nonpayable",
					"type": "function"
				},
				{
					"inputs": [
						{
							"internalType": "uint256",
							"name": "game_id",
							"type": "uint256"
						},
						{
							"internalType": "address",
							"name": "winner",
							"type": "address"
						}
					],
					"name": "setWinner",
					"outputs": [],
					"stateMutability": "nonpayable",
					"type": "function"
				},
				{
					"inputs": [
						{
							"internalType": "bytes4",
							"name": "interfaceId",
							"type": "bytes4"
						}
					],
					"name": "supportsInterface",
					"outputs": [
						{
							"internalType": "bool",
							"name": "",
							"type": "bool"
						}
					],
					"stateMutability": "view",
					"type": "function"
				}
			],
			"devdoc": {
				"kind": "dev",
				"methods": {
					"addArcadeToken(address,uint256,bool)": {
						"details": "Adds token to {acceptedArcadeTokens} Require `token_address` for proxy balance exchange.   `redemption_rate` is set and determines the rate that proxy balance is exchanged.   Set `active` to reflect status of exchange. Requirements: - the caller must have arcade manager role."
					},
					"arcadeToken(address)": {
						"details": "Returns {ArcadeToken} struct for `token_address`."
					},
					"closeGame(uint256)": {
						"details": "Changes {#}.status for `game_id`. Requirements: - the caller must have game master role."
					},
					"createGame(uint256,uint256,address,uint256,bool)": {
						"details": "Mutates {gameData} structure with game configuration. Sets {#} for `game_id`, `registration_fee`, `arcade_token`, `player_limit`, `exchange`  Requirements: - the caller must have game master role."
					},
					"deleteGame(uint256)": {
						"details": "Deletes {#} for {gameData} for `game_id`. Requirements: - the caller must have game master role."
					},
					"getRoleAdmin(bytes32)": {
						"details": "Returns the admin role that controls `role`. See {grantRole} and {revokeRole}. To change a role's admin, use {_setRoleAdmin}."
					},
					"grantRole(bytes32,address)": {
						"details": "Grants `role` to `account`. If `account` had not been already granted `role`, emits a {RoleGranted} event. Requirements: - the caller must have ``role``'s admin role."
					},
					"hasRole(bytes32,address)": {
						"details": "Returns `true` if `account` has been granted `role`."
					},
					"isAccepted(address)": {
						"details": "Returns {active} as boolean value for `token_address`."
					},
					"leaveMatch(uint256)": {
						"details": "Updates {gameData} sets {#}.seats[`player`] to 0."
					},
					"openGame(uint256)": {
						"details": "Changes {#}.status for `game_id`. Requirements: - the caller must have game master role."
					},
					"placePlayer(uint256,address)": {
						"details": "Gives `player` access to register for `game_id`. Requirements: - the caller must have game master role."
					},
					"reconcile(address)": {
						"details": "Transfer balance of `arcade_token` to caller. Requirements: - the caller must have admin role."
					},
					"refund(uint256,address)": {
						"details": "Returns {#}.registration_fee for `player` at `game_id`. Requirements: - the caller must have game master role. - `player` must be registered. - contract balance should exceed {#}.registration_fee"
					},
					"register(uint256)": {
						"details": "Validates game configuration for caller. Transfers {#}.registration_fee to arcade contract. Requirements: - Valid game configuration"
					},
					"removeArcadeToken(address)": {
						"details": "Disable token for proxy balance exchange. Requirements: - the caller must have arcade manager role."
					},
					"removePlayer(uint256,address)": {
						"details": "Updates {gameData} sets {#}.seats[`player`] to 0. Requirements: - the caller must have game master role."
					},
					"renounceRole(bytes32,address)": {
						"details": "Revokes `role` from the calling account. Roles are often managed via {grantRole} and {revokeRole}: this function's purpose is to provide a mechanism for accounts to lose their privileges if they are compromised (such as when a trusted device is misplaced). If the calling account had been revoked `role`, emits a {RoleRevoked} event. Requirements: - the caller must be `account`."
					},
					"revokeRole(bytes32,address)": {
						"details": "Revokes `role` from `account`. If `account` had been granted `role`, emits a {RoleRevoked} event. Requirements: - the caller must have ``role``'s admin role."
					},
					"setArcadeFeePercentage(uint256)": {
						"details": "Set fee percentage for arcade contract. Requirements: - the caller must have arcade manager role.     "
					},
					"setWinner(uint256,address)": {
						"details": "Updates {gameData} defines `winner` as address to receive {#}.total_fee less arcade_fee. Requirements: - the caller must have game master role."
					},
					"supportsInterface(bytes4)": {
						"details": "See {IERC165-supportsInterface}."
					}
				},
				"version": 1
			},
			"evm": {
				"assembly": "    /* \"contracts/Arcade.sol\":179:10826  contract Arcade is AccessControl {... */\n  mstore(0x40, 0x80)\n    /* \"contracts/Arcade.sol\":1435:1437  18 */\n  0x12\n    /* \"contracts/Arcade.sol\":1409:1437  uint256 public decimals = 18 */\n  0x03\n  dup2\n  swap1\n  sstore\n    /* \"contracts/Arcade.sol\":1503:1526  10**(uint256(decimals)) */\n  tag_1\n  swap1\n    /* \"contracts/Arcade.sol\":1503:1505  10 */\n  0x0a\n    /* \"contracts/Arcade.sol\":1503:1526  10**(uint256(decimals)) */\n  tag_2\n  jump\t// in\ntag_1:\n    /* \"contracts/Arcade.sol\":1480:1526  uint256 private base = 10**(uint256(decimals)) */\n  0x05\n  sstore\n    /* \"contracts/Arcade.sol\":1560:1795  constructor() {... */\n  callvalue\n  dup1\n  iszero\n  tag_3\n  jumpi\n  0x00\n  dup1\n  revert\ntag_3:\n  pop\n    /* \"contracts/Arcade.sol\":1584:1628  _grantRole(DEFAULT_ADMIN_ROLE, _msgSender()) */\n  tag_6\n    /* \"contracts/access/AccessControl.sol\":2072:2076  0x00 */\n  0x00\n    /* \"contracts/utils/Context.sol\":719:729  msg.sender */\n  caller\n    /* \"contracts/Arcade.sol\":1584:1594  _grantRole */\n  tag_9\n    /* \"contracts/Arcade.sol\":1584:1628  _grantRole(DEFAULT_ADMIN_ROLE, _msgSender()) */\n  jump\t// in\ntag_6:\n    /* \"contracts/Arcade.sol\":1638:1678  _grantRole(ARCADE_MANAGER, _msgSender()) */\n  tag_10\n    /* \"contracts/Arcade.sol\":715:742  keccak256(\"ARCADE_MANAGER\") */\n  0x3131fc8beb48b895197ad34f21c86afdf6a989a5cd911181952dbf8dfcf18192\n    /* \"contracts/utils/Context.sol\":719:729  msg.sender */\n  caller\n    /* \"contracts/Arcade.sol\":1584:1594  _grantRole */\n  tag_9\n    /* \"contracts/Arcade.sol\":1584:1628  _grantRole(DEFAULT_ADMIN_ROLE, _msgSender()) */\n  jump\t// in\n    /* \"contracts/Arcade.sol\":1638:1678  _grantRole(ARCADE_MANAGER, _msgSender()) */\ntag_10:\n    /* \"contracts/Arcade.sol\":1688:1725  _grantRole(GAME_MASTER, _msgSender()) */\n  tag_12\n    /* \"contracts/Arcade.sol\":786:810  keccak256(\"GAME_MASTER\") */\n  0x3c13b5abbc85050d426f9500a16cfd9f7d94261c880b9a4e03d584d28c06059c\n    /* \"contracts/utils/Context.sol\":719:729  msg.sender */\n  caller\n    /* \"contracts/Arcade.sol\":1584:1594  _grantRole */\n  tag_9\n    /* \"contracts/Arcade.sol\":1584:1628  _grantRole(DEFAULT_ADMIN_ROLE, _msgSender()) */\n  jump\t// in\n    /* \"contracts/Arcade.sol\":1688:1725  _grantRole(GAME_MASTER, _msgSender()) */\ntag_12:\n    /* \"contracts/Arcade.sol\":1736:1741  owner */\n  0x06\n    /* \"contracts/Arcade.sol\":1736:1756  owner = _msgSender() */\n  dup1\n  sload\n  not(sub(shl(0xa0, 0x01), 0x01))\n  and\n    /* \"contracts/utils/Context.sol\":719:729  msg.sender */\n  caller\n    /* \"contracts/Arcade.sol\":1736:1756  owner = _msgSender() */\n  or\n  swap1\n  sstore\n    /* \"contracts/Arcade.sol\":1784:1788  1e17 */\n  0x016345785d8a0000\n    /* \"contracts/Arcade.sol\":1767:1781  fee_percentage */\n  0x04\n    /* \"contracts/Arcade.sol\":1767:1788  fee_percentage = 1e17 */\n  sstore\n    /* \"contracts/Arcade.sol\":179:10826  contract Arcade is AccessControl {... */\n  jump(tag_23)\n    /* \"contracts/access/AccessControl.sol\":7244:7477  function _grantRole(bytes32 role, address account) internal virtual {... */\ntag_9:\n    /* \"contracts/access/AccessControl.sol\":7327:7349  hasRole(role, account) */\n  tag_18\n    /* \"contracts/access/AccessControl.sol\":7335:7339  role */\n  dup3\n    /* \"contracts/access/AccessControl.sol\":7341:7348  account */\n  dup3\n    /* \"contracts/access/AccessControl.sol\":7327:7334  hasRole */\n  tag_19\n    /* \"contracts/access/AccessControl.sol\":7327:7349  hasRole(role, account) */\n  jump\t// in\ntag_18:\n    /* \"contracts/access/AccessControl.sol\":7322:7471  if (!hasRole(role, account)) {... */\n  tag_20\n  jumpi\n    /* \"contracts/access/AccessControl.sol\":7365:7371  _roles */\n  0x00\n    /* \"contracts/access/AccessControl.sol\":7365:7377  _roles[role] */\n  dup3\n  dup2\n  mstore\n  0x20\n  dup2\n  dup2\n  mstore\n  0x40\n  dup1\n  dup4\n  keccak256\n  sub(shl(0xa0, 0x01), 0x01)\n    /* \"contracts/access/AccessControl.sol\":7365:7394  _roles[role].members[account] */\n  dup6\n  and\n  dup5\n  mstore\n  swap1\n  swap2\n  mstore\n  swap1\n  keccak256\n    /* \"contracts/access/AccessControl.sol\":7365:7401  _roles[role].members[account] = true */\n  dup1\n  sload\n  not(0xff)\n  and\n    /* \"contracts/access/AccessControl.sol\":7397:7401  true */\n  0x01\n    /* \"contracts/access/AccessControl.sol\":7365:7401  _roles[role].members[account] = true */\n  or\n  swap1\n  sstore\n    /* \"contracts/access/AccessControl.sol\":7447:7459  _msgSender() */\n  tag_21\n    /* \"contracts/utils/Context.sol\":719:729  msg.sender */\n  caller\n  swap1\n    /* \"contracts/utils/Context.sol\":640:736  function _msgSender() internal view virtual returns (address) {... */\n  jump\n    /* \"contracts/access/AccessControl.sol\":7447:7459  _msgSender() */\ntag_21:\n  sub(shl(0xa0, 0x01), 0x01)\n    /* \"contracts/access/AccessControl.sol\":7420:7460  RoleGranted(role, account, _msgSender()) */\n  and\n    /* \"contracts/access/AccessControl.sol\":7438:7445  account */\n  dup2\n  sub(shl(0xa0, 0x01), 0x01)\n    /* \"contracts/access/AccessControl.sol\":7420:7460  RoleGranted(role, account, _msgSender()) */\n  and\n    /* \"contracts/access/AccessControl.sol\":7432:7436  role */\n  dup4\n    /* \"contracts/access/AccessControl.sol\":7420:7460  RoleGranted(role, account, _msgSender()) */\n  0x2f8788117e7eff1d82e926ec794901d17c78024a50270940304540a733656f0d\n  mload(0x40)\n  mload(0x40)\n  dup1\n  swap2\n  sub\n  swap1\n  log4\n    /* \"contracts/access/AccessControl.sol\":7322:7471  if (!hasRole(role, account)) {... */\ntag_20:\n    /* \"contracts/access/AccessControl.sol\":7244:7477  function _grantRole(bytes32 role, address account) internal virtual {... */\n  pop\n  pop\n  jump\t// out\n    /* \"contracts/access/AccessControl.sol\":2895:3040  function hasRole(bytes32 role, address account) public view virtual override returns (bool) {... */\ntag_19:\n    /* \"contracts/access/AccessControl.sol\":2981:2985  bool */\n  0x00\n    /* \"contracts/access/AccessControl.sol\":3004:3016  _roles[role] */\n  dup3\n  dup2\n  mstore\n  0x20\n  dup2\n  dup2\n  mstore\n  0x40\n  dup1\n  dup4\n  keccak256\n  sub(shl(0xa0, 0x01), 0x01)\n    /* \"contracts/access/AccessControl.sol\":3004:3033  _roles[role].members[account] */\n  dup6\n  and\n  dup5\n  mstore\n  swap1\n  swap2\n  mstore\n  swap1\n  keccak256\n  sload\n  0xff\n  and\n    /* \"contracts/access/AccessControl.sol\":2895:3040  function hasRole(bytes32 role, address account) public view virtual override returns (bool) {... */\ntag_22:\n  swap3\n  swap2\n  pop\n  pop\n  jump\t// out\n    /* \"#utility.yul\":14:436   */\ntag_24:\n    /* \"#utility.yul\":103:104   */\n  0x01\n    /* \"#utility.yul\":146:151   */\n  dup2\n    /* \"#utility.yul\":103:104   */\n  dup2\n    /* \"#utility.yul\":160:430   */\ntag_26:\n    /* \"#utility.yul\":181:188   */\n  dup1\n    /* \"#utility.yul\":171:179   */\n  dup6\n    /* \"#utility.yul\":168:189   */\n  gt\n    /* \"#utility.yul\":160:430   */\n  iszero\n  tag_28\n  jumpi\n    /* \"#utility.yul\":240:244   */\n  dup2\n    /* \"#utility.yul\":236:237   */\n  0x00\n    /* \"#utility.yul\":232:238   */\n  not\n    /* \"#utility.yul\":228:245   */\n  div\n    /* \"#utility.yul\":222:226   */\n  dup3\n    /* \"#utility.yul\":219:246   */\n  gt\n    /* \"#utility.yul\":216:218   */\n  iszero\n  tag_30\n  jumpi\n    /* \"#utility.yul\":249:267   */\n  tag_30\n  tag_31\n  jump\t// in\ntag_30:\n    /* \"#utility.yul\":299:306   */\n  dup1\n    /* \"#utility.yul\":289:297   */\n  dup6\n    /* \"#utility.yul\":285:307   */\n  and\n    /* \"#utility.yul\":282:284   */\n  iszero\n  tag_32\n  jumpi\n    /* \"#utility.yul\":319:335   */\n  swap2\n  dup2\n  mul\n  swap2\n    /* \"#utility.yul\":282:284   */\ntag_32:\n    /* \"#utility.yul\":398:420   */\n  swap4\n  dup5\n  shr\n  swap4\n    /* \"#utility.yul\":358:373   */\n  swap1\n  dup1\n  mul\n  swap1\n    /* \"#utility.yul\":160:430   */\n  jump(tag_26)\ntag_28:\n    /* \"#utility.yul\":164:167   */\n  pop\n    /* \"#utility.yul\":78:436   */\n  swap3\n  pop\n  swap3\n  swap1\n  pop\n  jump\t// out\n    /* \"#utility.yul\":441:572   */\ntag_2:\n    /* \"#utility.yul\":501:506   */\n  0x00\n    /* \"#utility.yul\":530:566   */\n  tag_34\n    /* \"#utility.yul\":557:565   */\n  dup4\n    /* \"#utility.yul\":551:555   */\n  dup4\n    /* \"#utility.yul\":530:566   */\n  tag_35\n  jump\t// in\ntag_34:\n    /* \"#utility.yul\":521:566   */\n  swap4\n    /* \"#utility.yul\":511:572   */\n  swap3\n  pop\n  pop\n  pop\n  jump\t// out\n    /* \"#utility.yul\":577:1383   */\ntag_35:\n    /* \"#utility.yul\":626:631   */\n  0x00\n    /* \"#utility.yul\":656:664   */\n  dup3\n    /* \"#utility.yul\":646:648   */\n  tag_37\n  jumpi\n  pop\n    /* \"#utility.yul\":697:698   */\n  0x01\n    /* \"#utility.yul\":711:716   */\n  jump(tag_22)\n    /* \"#utility.yul\":646:648   */\ntag_37:\n    /* \"#utility.yul\":745:749   */\n  dup2\n    /* \"#utility.yul\":735:737   */\n  tag_38\n  jumpi\n  pop\n    /* \"#utility.yul\":782:783   */\n  0x00\n    /* \"#utility.yul\":796:801   */\n  jump(tag_22)\n    /* \"#utility.yul\":735:737   */\ntag_38:\n    /* \"#utility.yul\":827:831   */\n  dup2\n    /* \"#utility.yul\":845:846   */\n  0x01\n    /* \"#utility.yul\":840:899   */\n  dup2\n  eq\n  tag_40\n  jumpi\n    /* \"#utility.yul\":913:914   */\n  0x02\n    /* \"#utility.yul\":908:1038   */\n  dup2\n  eq\n  tag_41\n  jumpi\n    /* \"#utility.yul\":820:1038   */\n  jump(tag_39)\n    /* \"#utility.yul\":840:899   */\ntag_40:\n    /* \"#utility.yul\":870:871   */\n  0x01\n    /* \"#utility.yul\":861:871   */\n  swap2\n  pop\n    /* \"#utility.yul\":884:889   */\n  pop\n  jump(tag_22)\n    /* \"#utility.yul\":908:1038   */\ntag_41:\n    /* \"#utility.yul\":945:948   */\n  0xff\n    /* \"#utility.yul\":935:943   */\n  dup5\n    /* \"#utility.yul\":932:949   */\n  gt\n    /* \"#utility.yul\":929:931   */\n  iszero\n  tag_43\n  jumpi\n    /* \"#utility.yul\":952:970   */\n  tag_43\n  tag_31\n  jump\t// in\ntag_43:\n  pop\n  pop\n    /* \"#utility.yul\":1008:1009   */\n  0x01\n    /* \"#utility.yul\":994:1010   */\n  dup3\n  shl\n    /* \"#utility.yul\":1023:1028   */\n  jump(tag_22)\n    /* \"#utility.yul\":820:1038   */\ntag_39:\n  pop\n    /* \"#utility.yul\":1122:1124   */\n  0x20\n    /* \"#utility.yul\":1112:1120   */\n  dup4\n    /* \"#utility.yul\":1109:1125   */\n  lt\n    /* \"#utility.yul\":1103:1106   */\n  0x0133\n    /* \"#utility.yul\":1097:1101   */\n  dup4\n    /* \"#utility.yul\":1094:1107   */\n  lt\n    /* \"#utility.yul\":1090:1126   */\n  and\n    /* \"#utility.yul\":1084:1086   */\n  0x4e\n    /* \"#utility.yul\":1074:1082   */\n  dup5\n    /* \"#utility.yul\":1071:1087   */\n  lt\n    /* \"#utility.yul\":1066:1068   */\n  0x0b\n    /* \"#utility.yul\":1060:1064   */\n  dup5\n    /* \"#utility.yul\":1057:1069   */\n  lt\n    /* \"#utility.yul\":1053:1088   */\n  and\n    /* \"#utility.yul\":1050:1127   */\n  or\n    /* \"#utility.yul\":1047:1049   */\n  iszero\n  tag_44\n  jumpi\n  pop\n    /* \"#utility.yul\":1159:1178   */\n  dup2\n  dup2\n  exp\n    /* \"#utility.yul\":1191:1196   */\n  jump(tag_22)\n    /* \"#utility.yul\":1047:1049   */\ntag_44:\n    /* \"#utility.yul\":1238:1272   */\n  tag_45\n    /* \"#utility.yul\":1263:1271   */\n  dup4\n    /* \"#utility.yul\":1257:1261   */\n  dup4\n    /* \"#utility.yul\":1238:1272   */\n  tag_24\n  jump\t// in\ntag_45:\n    /* \"#utility.yul\":1308:1314   */\n  dup1\n    /* \"#utility.yul\":1304:1305   */\n  0x00\n    /* \"#utility.yul\":1300:1306   */\n  not\n    /* \"#utility.yul\":1296:1315   */\n  div\n    /* \"#utility.yul\":1287:1294   */\n  dup3\n    /* \"#utility.yul\":1284:1316   */\n  gt\n    /* \"#utility.yul\":1281:1283   */\n  iszero\n  tag_47\n  jumpi\n    /* \"#utility.yul\":1319:1337   */\n  tag_47\n  tag_31\n  jump\t// in\ntag_47:\n    /* \"#utility.yul\":1357:1377   */\n  mul\n  swap4\n    /* \"#utility.yul\":636:1383   */\n  swap3\n  pop\n  pop\n  pop\n  jump\t// out\n    /* \"#utility.yul\":1388:1515   */\ntag_31:\n    /* \"#utility.yul\":1449:1459   */\n  0x4e487b71\n    /* \"#utility.yul\":1444:1447   */\n  0xe0\n    /* \"#utility.yul\":1440:1460   */\n  shl\n    /* \"#utility.yul\":1437:1438   */\n  0x00\n    /* \"#utility.yul\":1430:1461   */\n  mstore\n    /* \"#utility.yul\":1480:1484   */\n  0x11\n    /* \"#utility.yul\":1477:1478   */\n  0x04\n    /* \"#utility.yul\":1470:1485   */\n  mstore\n    /* \"#utility.yul\":1504:1508   */\n  0x24\n    /* \"#utility.yul\":1501:1502   */\n  0x00\n    /* \"#utility.yul\":1494:1509   */\n  revert\n    /* \"#utility.yul\":1420:1515   */\ntag_23:\n    /* \"contracts/Arcade.sol\":179:10826  contract Arcade is AccessControl {... */\n  dataSize(sub_0)\n  dup1\n  dataOffset(sub_0)\n  0x00\n  codecopy\n  0x00\n  return\nstop\n\nsub_0: assembly {\n        /* \"contracts/Arcade.sol\":179:10826  contract Arcade is AccessControl {... */\n      mstore(0x40, 0x80)\n      callvalue\n      dup1\n      iszero\n      tag_1\n      jumpi\n      0x00\n      dup1\n      revert\n    tag_1:\n      pop\n      jumpi(tag_2, lt(calldatasize, 0x04))\n      shr(0xe0, calldataload(0x00))\n      dup1\n      0x91d14854\n      gt\n      tag_33\n      jumpi\n      dup1\n      0xb9888d89\n      gt\n      tag_34\n      jumpi\n      dup1\n      0xd547741f\n      gt\n      tag_35\n      jumpi\n      dup1\n      0xd547741f\n      eq\n      tag_29\n      jumpi\n      dup1\n      0xe6f091f9\n      eq\n      tag_30\n      jumpi\n      dup1\n      0xf207564e\n      eq\n      tag_31\n      jumpi\n      dup1\n      0xf336ee3c\n      eq\n      tag_32\n      jumpi\n      0x00\n      dup1\n      revert\n    tag_35:\n      dup1\n      0xb9888d89\n      eq\n      tag_25\n      jumpi\n      dup1\n      0xc18e397e\n      eq\n      tag_26\n      jumpi\n      dup1\n      0xc46ed45a\n      eq\n      tag_27\n      jumpi\n      dup1\n      0xccaf237f\n      eq\n      tag_28\n      jumpi\n      0x00\n      dup1\n      revert\n    tag_34:\n      dup1\n      0x9d00c61e\n      gt\n      tag_36\n      jumpi\n      dup1\n      0x9d00c61e\n      eq\n      tag_21\n      jumpi\n      dup1\n      0x9f512e22\n      eq\n      tag_22\n      jumpi\n      dup1\n      0xa217fddf\n      eq\n      tag_23\n      jumpi\n      dup1\n      0xb22c376d\n      eq\n      tag_24\n      jumpi\n      0x00\n      dup1\n      revert\n    tag_36:\n      dup1\n      0x91d14854\n      eq\n      tag_18\n      jumpi\n      dup1\n      0x99597b70\n      eq\n      tag_19\n      jumpi\n      dup1\n      0x9c623683\n      eq\n      tag_20\n      jumpi\n      0x00\n      dup1\n      revert\n    tag_33:\n      dup1\n      0x2ba67100\n      gt\n      tag_37\n      jumpi\n      dup1\n      0x36568abe\n      gt\n      tag_38\n      jumpi\n      dup1\n      0x36568abe\n      eq\n      tag_14\n      jumpi\n      dup1\n      0x3e16518f\n      eq\n      tag_15\n      jumpi\n      dup1\n      0x7ad226dc\n      eq\n      tag_16\n      jumpi\n      dup1\n      0x8da5cb5b\n      eq\n      tag_17\n      jumpi\n      0x00\n      dup1\n      revert\n    tag_38:\n      dup1\n      0x2ba67100\n      eq\n      tag_10\n      jumpi\n      dup1\n      0x2d6ef310\n      eq\n      tag_11\n      jumpi\n      dup1\n      0x2f2ff15d\n      eq\n      tag_12\n      jumpi\n      dup1\n      0x313ce567\n      eq\n      tag_13\n      jumpi\n      0x00\n      dup1\n      revert\n    tag_37:\n      dup1\n      0x09a18635\n      gt\n      tag_39\n      jumpi\n      dup1\n      0x09a18635\n      eq\n      tag_6\n      jumpi\n      dup1\n      0x248a55a1\n      eq\n      tag_7\n      jumpi\n      dup1\n      0x248a9ca3\n      eq\n      tag_8\n      jumpi\n      dup1\n      0x2ac5016f\n      eq\n      tag_9\n      jumpi\n      0x00\n      dup1\n      revert\n    tag_39:\n      dup1\n      0xf5544f\n      eq\n      tag_3\n      jumpi\n      dup1\n      0x01ffc9a7\n      eq\n      tag_4\n      jumpi\n      dup1\n      0x06602a48\n      eq\n      tag_5\n      jumpi\n    tag_2:\n      0x00\n      dup1\n      revert\n        /* \"contracts/Arcade.sol\":7203:7345  function openGame(uint256 game_id) public onlyRole(GAME_MASTER) {... */\n    tag_3:\n      tag_40\n      tag_41\n      calldatasize\n      0x04\n      tag_63\n      jump\t// in\n    tag_41:\n      tag_43\n      jump\t// in\n    tag_40:\n      stop\n        /* \"contracts/access/AccessControl.sol\":2606:2808  function supportsInterface(bytes4 interfaceId) public view virtual override returns (bool) {... */\n    tag_4:\n      tag_44\n      tag_45\n      calldatasize\n      0x04\n      tag_46\n      jump\t// in\n    tag_45:\n      tag_47\n      jump\t// in\n    tag_44:\n      mload(0x40)\n        /* \"#utility.yul\":5572:5586   */\n      swap1\n      iszero\n        /* \"#utility.yul\":5565:5587   */\n      iszero\n        /* \"#utility.yul\":5547:5588   */\n      dup2\n      mstore\n        /* \"#utility.yul\":5535:5537   */\n      0x20\n        /* \"#utility.yul\":5520:5538   */\n      add\n        /* \"contracts/access/AccessControl.sol\":2606:2808  function supportsInterface(bytes4 interfaceId) public view virtual override returns (bool) {... */\n    tag_48:\n      mload(0x40)\n      dup1\n      swap2\n      sub\n      swap1\n      return\n        /* \"contracts/Arcade.sol\":4533:5115  function addArcadeToken(address token_address, uint256 redemption_rate, bool _active) public onlyRole(ARCADE_MANAGER) {... */\n    tag_5:\n      tag_40\n      tag_51\n      calldatasize\n      0x04\n      tag_52\n      jump\t// in\n    tag_51:\n      tag_53\n      jump\t// in\n        /* \"contracts/Arcade.sol\":3515:3887  function reconcile(address arcade_token) public onlyRole(DEFAULT_ADMIN_ROLE) {... */\n    tag_6:\n      tag_40\n      tag_55\n      calldatasize\n      0x04\n      tag_56\n      jump\t// in\n    tag_55:\n      tag_57\n      jump\t// in\n        /* \"contracts/Arcade.sol\":6682:6824  function deleteGame(uint256 game_id) public onlyRole(GAME_MASTER) {... */\n    tag_7:\n      tag_40\n      tag_59\n      calldatasize\n      0x04\n      tag_63\n      jump\t// in\n    tag_59:\n      tag_60\n      jump\t// in\n        /* \"contracts/access/AccessControl.sol\":4391:4520  function getRoleAdmin(bytes32 role) public view virtual override returns (bytes32) {... */\n    tag_8:\n      tag_61\n      tag_62\n      calldatasize\n      0x04\n      tag_63\n      jump\t// in\n    tag_62:\n        /* \"contracts/access/AccessControl.sol\":4465:4472  bytes32 */\n      0x00\n        /* \"contracts/access/AccessControl.sol\":4491:4503  _roles[role] */\n      swap1\n      dup2\n      mstore\n      0x20\n      dup2\n      swap1\n      mstore\n      0x40\n      swap1\n      keccak256\n        /* \"contracts/access/AccessControl.sol\":4491:4513  _roles[role].adminRole */\n      0x01\n      add\n      sload\n      swap1\n        /* \"contracts/access/AccessControl.sol\":4391:4520  function getRoleAdmin(bytes32 role) public view virtual override returns (bytes32) {... */\n      jump\n    tag_61:\n      mload(0x40)\n        /* \"#utility.yul\":6656:6681   */\n      swap1\n      dup2\n      mstore\n        /* \"#utility.yul\":6644:6646   */\n      0x20\n        /* \"#utility.yul\":6629:6647   */\n      add\n        /* \"contracts/access/AccessControl.sol\":4391:4520  function getRoleAdmin(bytes32 role) public view virtual override returns (bytes32) {... */\n      tag_48\n        /* \"#utility.yul\":6611:6687   */\n      jump\n        /* \"contracts/Arcade.sol\":4052:4180  function setArcadeFeePercentage(uint256 percentage) public onlyRole(ARCADE_MANAGER) {... */\n    tag_9:\n      tag_40\n      tag_68\n      calldatasize\n      0x04\n      tag_63\n      jump\t// in\n    tag_68:\n      tag_69\n      jump\t// in\n        /* \"contracts/Arcade.sol\":9035:9207  function removePlayer(uint256 game_id, address player) public onlyRole(GAME_MASTER) {... */\n    tag_10:\n      tag_40\n      tag_71\n      calldatasize\n      0x04\n      tag_79\n      jump\t// in\n    tag_71:\n      tag_73\n      jump\t// in\n        /* \"contracts/Arcade.sol\":5577:5721  function closeGame(uint256 game_id) public onlyRole(GAME_MASTER) {... */\n    tag_11:\n      tag_40\n      tag_75\n      calldatasize\n      0x04\n      tag_63\n      jump\t// in\n    tag_75:\n      tag_76\n      jump\t// in\n        /* \"contracts/access/AccessControl.sol\":4770:4915  function grantRole(bytes32 role, address account) public virtual override onlyRole(getRoleAdmin(role)) {... */\n    tag_12:\n      tag_40\n      tag_78\n      calldatasize\n      0x04\n      tag_79\n      jump\t// in\n    tag_78:\n      tag_80\n      jump\t// in\n        /* \"contracts/Arcade.sol\":1409:1437  uint256 public decimals = 18 */\n    tag_13:\n      tag_61\n      sload(0x03)\n      dup2\n      jump\n        /* \"contracts/access/AccessControl.sol\":5787:6001  function renounceRole(bytes32 role, address account) public virtual override {... */\n    tag_14:\n      tag_40\n      tag_86\n      calldatasize\n      0x04\n      tag_79\n      jump\t// in\n    tag_86:\n      tag_87\n      jump\t// in\n        /* \"contracts/Arcade.sol\":5277:5426  function removeArcadeToken(address token_address) public onlyRole(ARCADE_MANAGER) {... */\n    tag_15:\n      tag_40\n      tag_89\n      calldatasize\n      0x04\n      tag_56\n      jump\t// in\n    tag_89:\n      tag_90\n      jump\t// in\n        /* \"contracts/Arcade.sol\":8189:8868  function refund(uint256 game_id, address player) public onlyRole(GAME_MASTER) {... */\n    tag_16:\n      tag_40\n      tag_92\n      calldatasize\n      0x04\n      tag_79\n      jump\t// in\n    tag_92:\n      tag_93\n      jump\t// in\n        /* \"contracts/Arcade.sol\":1533:1553  address public owner */\n    tag_17:\n      sload(0x06)\n      tag_94\n      swap1\n      sub(shl(0xa0, 0x01), 0x01)\n      and\n      dup2\n      jump\n    tag_94:\n      mload(0x40)\n      sub(shl(0xa0, 0x01), 0x01)\n        /* \"#utility.yul\":3980:4012   */\n      swap1\n      swap2\n      and\n        /* \"#utility.yul\":3962:4013   */\n      dup2\n      mstore\n        /* \"#utility.yul\":3950:3952   */\n      0x20\n        /* \"#utility.yul\":3935:3953   */\n      add\n        /* \"contracts/Arcade.sol\":1533:1553  address public owner */\n      tag_48\n        /* \"#utility.yul\":3917:4019   */\n      jump\n        /* \"contracts/access/AccessControl.sol\":2895:3040  function hasRole(bytes32 role, address account) public view virtual override returns (bool) {... */\n    tag_18:\n      tag_44\n      tag_99\n      calldatasize\n      0x04\n      tag_79\n      jump\t// in\n    tag_99:\n      tag_100\n      jump\t// in\n        /* \"contracts/Arcade.sol\":748:810  bytes32 public constant GAME_MASTER = keccak256(\"GAME_MASTER\") */\n    tag_19:\n      tag_61\n      0x00\n      dup1\n      mload\n      0x20\n      data_806db7640bcc104a4b7b53ebc0c09b63eefd92fe89197bc684d91aa66a17455c\n      dup4\n      codecopy\n      dup2\n      mload\n      swap2\n      mstore\n      dup2\n      jump\n        /* \"contracts/Arcade.sol\":9413:10424  function setWinner(uint256 game_id, address winner) public onlyRole(GAME_MASTER) {... */\n    tag_20:\n      tag_40\n      tag_106\n      calldatasize\n      0x04\n      tag_79\n      jump\t// in\n    tag_106:\n      tag_107\n      jump\t// in\n        /* \"contracts/Arcade.sol\":1879:2080  function arcadeToken(address token_address) public view returns (bool, uint256) {... */\n    tag_21:\n      tag_108\n      tag_109\n      calldatasize\n      0x04\n      tag_56\n      jump\t// in\n    tag_109:\n      sub(shl(0xa0, 0x01), 0x01)\n        /* \"contracts/Arcade.sol\":1977:2012  acceptedArcadeTokens[token_address] */\n      and\n        /* \"contracts/Arcade.sol\":1944:1948  bool */\n      0x00\n        /* \"contracts/Arcade.sol\":1977:2012  acceptedArcadeTokens[token_address] */\n      swap1\n      dup2\n      mstore\n        /* \"contracts/Arcade.sol\":1977:1997  acceptedArcadeTokens */\n      0x01\n        /* \"contracts/Arcade.sol\":1977:2012  acceptedArcadeTokens[token_address] */\n      0x20\n      dup2\n      swap1\n      mstore\n      0x40\n      swap1\n      swap2\n      keccak256\n        /* \"contracts/Arcade.sol\":1977:2019  acceptedArcadeTokens[token_address].active */\n      dup1\n      sload\n        /* \"contracts/Arcade.sol\":2021:2072  acceptedArcadeTokens[token_address].redemption_rate */\n      swap2\n      add\n      sload\n      shl(0xa0, 0x01)\n        /* \"contracts/Arcade.sol\":1977:2019  acceptedArcadeTokens[token_address].active */\n      swap1\n      swap2\n      div\n      0xff\n      and\n      swap2\n        /* \"contracts/Arcade.sol\":1879:2080  function arcadeToken(address token_address) public view returns (bool, uint256) {... */\n      jump\n    tag_108:\n      0x40\n      dup1\n      mload\n        /* \"#utility.yul\":5792:5806   */\n      swap3\n      iszero\n        /* \"#utility.yul\":5785:5807   */\n      iszero\n        /* \"#utility.yul\":5767:5808   */\n      dup4\n      mstore\n        /* \"#utility.yul\":5839:5841   */\n      0x20\n        /* \"#utility.yul\":5824:5842   */\n      dup4\n      add\n        /* \"#utility.yul\":5817:5851   */\n      swap2\n      swap1\n      swap2\n      mstore\n        /* \"#utility.yul\":5740:5758   */\n      add\n        /* \"contracts/Arcade.sol\":1879:2080  function arcadeToken(address token_address) public view returns (bool, uint256) {... */\n      tag_48\n        /* \"#utility.yul\":5722:5857   */\n      jump\n        /* \"contracts/Arcade.sol\":6908:7052  function leaveMatch(uint256 game_id) public {... */\n    tag_22:\n      tag_40\n      tag_114\n      calldatasize\n      0x04\n      tag_63\n      jump\t// in\n    tag_114:\n      tag_115\n      jump\t// in\n        /* \"contracts/access/AccessControl.sol\":2027:2076  bytes32 public constant DEFAULT_ADMIN_ROLE = 0x00 */\n    tag_23:\n      tag_61\n        /* \"contracts/access/AccessControl.sol\":2072:2076  0x00 */\n      0x00\n        /* \"contracts/access/AccessControl.sol\":2027:2076  bytes32 public constant DEFAULT_ADMIN_ROLE = 0x00 */\n      dup2\n      jump\n        /* \"contracts/Arcade.sol\":1292:1351  mapping(address => ArcadeToken) public acceptedArcadeTokens */\n    tag_24:\n      tag_119\n      tag_120\n      calldatasize\n      0x04\n      tag_56\n      jump\t// in\n    tag_120:\n      0x01\n      0x20\n      dup2\n      swap1\n      mstore\n      0x00\n      swap2\n      dup3\n      mstore\n      0x40\n      swap1\n      swap2\n      keccak256\n      dup1\n      sload\n      swap2\n      add\n      sload\n      sub(shl(0xa0, 0x01), 0x01)\n      dup3\n      and\n      swap2\n      shl(0xa0, 0x01)\n      swap1\n      div\n      0xff\n      and\n      swap1\n      dup4\n      jump\n    tag_119:\n      0x40\n      dup1\n      mload\n      sub(shl(0xa0, 0x01), 0x01)\n        /* \"#utility.yul\":6921:6953   */\n      swap1\n      swap5\n      and\n        /* \"#utility.yul\":6903:6954   */\n      dup5\n      mstore\n        /* \"#utility.yul\":6997:7011   */\n      swap2\n      iszero\n        /* \"#utility.yul\":6990:7012   */\n      iszero\n        /* \"#utility.yul\":6985:6987   */\n      0x20\n        /* \"#utility.yul\":6970:6988   */\n      dup5\n      add\n        /* \"#utility.yul\":6963:7013   */\n      mstore\n        /* \"#utility.yul\":7029:7047   */\n      swap1\n      dup3\n      add\n        /* \"#utility.yul\":7022:7056   */\n      mstore\n        /* \"#utility.yul\":6891:6893   */\n      0x60\n        /* \"#utility.yul\":6876:6894   */\n      add\n        /* \"contracts/Arcade.sol\":1292:1351  mapping(address => ArcadeToken) public acceptedArcadeTokens */\n      tag_48\n        /* \"#utility.yul\":6858:7062   */\n      jump\n        /* \"contracts/Arcade.sol\":7511:7917  function placePlayer(uint256 game_id, address player) public onlyRole(GAME_MASTER) returns (bool) {... */\n    tag_25:\n      tag_44\n      tag_125\n      calldatasize\n      0x04\n      tag_79\n      jump\t// in\n    tag_125:\n      tag_126\n      jump\t// in\n        /* \"contracts/Arcade.sol\":674:742  bytes32 public constant ARCADE_MANAGER = keccak256(\"ARCADE_MANAGER\") */\n    tag_26:\n      tag_61\n      0x00\n      dup1\n      mload\n      0x20\n      data_023264abf97b17654b97d38bd81099eb2064d5cca6dbd4e398ff8bdbab67b82d\n      dup4\n      codecopy\n      dup2\n      mload\n      swap2\n      mstore\n      dup2\n      jump\n        /* \"contracts/Arcade.sol\":1444:1473  uint256 public fee_percentage */\n    tag_27:\n      tag_61\n      sload(0x04)\n      dup2\n      jump\n        /* \"contracts/Arcade.sol\":1358:1402  mapping(uint256 => GameInfo) public gameData */\n    tag_28:\n      tag_134\n      tag_135\n      calldatasize\n      0x04\n      tag_63\n      jump\t// in\n    tag_135:\n      0x02\n      0x20\n      dup2\n      swap1\n      mstore\n      0x00\n      swap2\n      dup3\n      mstore\n      0x40\n      swap1\n      swap2\n      keccak256\n      dup1\n      sload\n      0x01\n      dup3\n      add\n      sload\n      swap3\n      dup3\n      add\n      sload\n      0x03\n      dup4\n      add\n      sload\n      0x04\n      dup5\n      add\n      sload\n      0x05\n      dup6\n      add\n      sload\n      0x06\n      swap1\n      swap6\n      add\n      sload\n      0xff\n      swap1\n      swap5\n      and\n      swap6\n      swap5\n      swap3\n      swap4\n      swap2\n      swap3\n      swap1\n      swap2\n      sub(shl(0xa0, 0x01), 0x01)\n      swap1\n      swap2\n      and\n      swap1\n      dup8\n      jump\n    tag_134:\n      0x40\n      dup1\n      mload\n        /* \"#utility.yul\":6196:6210   */\n      swap8\n      iszero\n        /* \"#utility.yul\":6189:6211   */\n      iszero\n        /* \"#utility.yul\":6171:6212   */\n      dup9\n      mstore\n        /* \"#utility.yul\":6243:6245   */\n      0x20\n        /* \"#utility.yul\":6228:6246   */\n      dup9\n      add\n        /* \"#utility.yul\":6221:6255   */\n      swap7\n      swap1\n      swap7\n      mstore\n        /* \"#utility.yul\":6271:6289   */\n      swap5\n      dup7\n      add\n        /* \"#utility.yul\":6264:6298   */\n      swap4\n      swap1\n      swap4\n      mstore\n        /* \"#utility.yul\":6329:6331   */\n      0x60\n        /* \"#utility.yul\":6314:6332   */\n      dup6\n      add\n        /* \"#utility.yul\":6307:6341   */\n      swap2\n      swap1\n      swap2\n      mstore\n        /* \"#utility.yul\":6372:6375   */\n      0x80\n        /* \"#utility.yul\":6357:6376   */\n      dup5\n      add\n        /* \"#utility.yul\":6350:6385   */\n      mstore\n      sub(shl(0xa0, 0x01), 0x01)\n        /* \"#utility.yul\":6422:6454   */\n      and\n        /* \"#utility.yul\":6442:6445   */\n      0xa0\n        /* \"#utility.yul\":6401:6420   */\n      dup4\n      add\n        /* \"#utility.yul\":6394:6455   */\n      mstore\n        /* \"#utility.yul\":6486:6489   */\n      0xc0\n        /* \"#utility.yul\":6471:6490   */\n      dup3\n      add\n        /* \"#utility.yul\":6464:6499   */\n      mstore\n        /* \"#utility.yul\":6158:6161   */\n      0xe0\n        /* \"#utility.yul\":6143:6162   */\n      add\n        /* \"contracts/Arcade.sol\":1358:1402  mapping(uint256 => GameInfo) public gameData */\n      tag_48\n        /* \"#utility.yul\":6125:6505   */\n      jump\n        /* \"contracts/access/AccessControl.sol\":5149:5296  function revokeRole(bytes32 role, address account) public virtual override onlyRole(getRoleAdmin(role)) {... */\n    tag_29:\n      tag_40\n      tag_140\n      calldatasize\n      0x04\n      tag_79\n      jump\t// in\n    tag_140:\n      tag_141\n      jump\t// in\n        /* \"contracts/Arcade.sol\":2169:2305  function isAccepted(address token_address) public view returns (bool) {... */\n    tag_30:\n      tag_44\n      tag_143\n      calldatasize\n      0x04\n      tag_56\n      jump\t// in\n    tag_143:\n      sub(shl(0xa0, 0x01), 0x01)\n        /* \"contracts/Arcade.sol\":2256:2291  acceptedArcadeTokens[token_address] */\n      and\n        /* \"contracts/Arcade.sol\":2233:2237  bool */\n      0x00\n        /* \"contracts/Arcade.sol\":2256:2291  acceptedArcadeTokens[token_address] */\n      swap1\n      dup2\n      mstore\n        /* \"contracts/Arcade.sol\":2256:2276  acceptedArcadeTokens */\n      0x01\n        /* \"contracts/Arcade.sol\":2256:2291  acceptedArcadeTokens[token_address] */\n      0x20\n      mstore\n      0x40\n      swap1\n      keccak256\n        /* \"contracts/Arcade.sol\":2256:2298  acceptedArcadeTokens[token_address].active */\n      sload\n      shl(0xa0, 0x01)\n      swap1\n      div\n      0xff\n      and\n      swap1\n        /* \"contracts/Arcade.sol\":2169:2305  function isAccepted(address token_address) public view returns (bool) {... */\n      jump\n        /* \"contracts/Arcade.sol\":2512:3357  function register(uint256 game_id) public {... */\n    tag_31:\n      tag_40\n      tag_147\n      calldatasize\n      0x04\n      tag_63\n      jump\t// in\n    tag_147:\n      tag_148\n      jump\t// in\n        /* \"contracts/Arcade.sol\":5987:6523  function createGame(uint256 game_id, uint256 registration_fee, address arcade_token, uint256 player_limit, bool exchange) public onlyRole(GAME_MASTER) {... */\n    tag_32:\n      tag_40\n      tag_150\n      calldatasize\n      0x04\n      tag_151\n      jump\t// in\n    tag_150:\n      tag_152\n      jump\t// in\n        /* \"contracts/Arcade.sol\":7203:7345  function openGame(uint256 game_id) public onlyRole(GAME_MASTER) {... */\n    tag_43:\n      0x00\n      dup1\n      mload\n      0x20\n      data_806db7640bcc104a4b7b53ebc0c09b63eefd92fe89197bc684d91aa66a17455c\n      dup4\n      codecopy\n      dup2\n      mload\n      swap2\n      mstore\n        /* \"contracts/access/AccessControl.sol\":2505:2521  _checkRole(role) */\n      tag_154\n        /* \"contracts/access/AccessControl.sol\":2516:2520  role */\n      dup2\n        /* \"contracts/access/AccessControl.sol\":2505:2515  _checkRole */\n      tag_155\n        /* \"contracts/access/AccessControl.sol\":2505:2521  _checkRole(role) */\n      jump\t// in\n    tag_154:\n        /* \"contracts/Arcade.sol\":7277:7294  gameData[game_id] */\n      0x00\n      dup3\n      dup2\n      mstore\n        /* \"contracts/Arcade.sol\":7277:7285  gameData */\n      0x02\n        /* \"contracts/Arcade.sol\":7277:7294  gameData[game_id] */\n      0x20\n      mstore\n      0x40\n      swap1\n      dup2\n      swap1\n      keccak256\n        /* \"contracts/Arcade.sol\":7304:7305  1 */\n      0x01\n        /* \"contracts/Arcade.sol\":7277:7301  gameData[game_id].status */\n      0x04\n      swap1\n      swap2\n      add\n        /* \"contracts/Arcade.sol\":7277:7305  gameData[game_id].status = 1 */\n      sstore\n        /* \"contracts/Arcade.sol\":7321:7338  OpenGame(game_id) */\n      mload\n      0x651a9760985edc53055bf2462cb4437b9be3de87aa3eecf2c05782e8b58eba19\n      swap1\n      tag_157\n      swap1\n        /* \"contracts/Arcade.sol\":7286:7293  game_id */\n      dup5\n        /* \"#utility.yul\":6656:6681   */\n      dup2\n      mstore\n        /* \"#utility.yul\":6644:6646   */\n      0x20\n        /* \"#utility.yul\":6629:6647   */\n      add\n      swap1\n        /* \"#utility.yul\":6611:6687   */\n      jump\n        /* \"contracts/Arcade.sol\":7321:7338  OpenGame(game_id) */\n    tag_157:\n      mload(0x40)\n      dup1\n      swap2\n      sub\n      swap1\n      log1\n        /* \"contracts/Arcade.sol\":7203:7345  function openGame(uint256 game_id) public onlyRole(GAME_MASTER) {... */\n      pop\n      pop\n      jump\t// out\n        /* \"contracts/access/AccessControl.sol\":2606:2808  function supportsInterface(bytes4 interfaceId) public view virtual override returns (bool) {... */\n    tag_47:\n        /* \"contracts/access/AccessControl.sol\":2691:2695  bool */\n      0x00\n      not(sub(shl(0xe0, 0x01), 0x01))\n        /* \"contracts/access/AccessControl.sol\":2714:2761  interfaceId == type(IAccessControl).interfaceId */\n      dup3\n      and\n      shl(0xe0, 0x7965db0b)\n      eq\n      dup1\n        /* \"contracts/access/AccessControl.sol\":2714:2801  interfaceId == type(IAccessControl).interfaceId || super.supportsInterface(interfaceId) */\n      tag_160\n      jumpi\n      pop\n      shl(0xe0, 0x01ffc9a7)\n      not(sub(shl(0xe0, 0x01), 0x01))\n        /* \"contracts/utils/introspection/ERC165.sol\":937:977  interfaceId == type(IERC165).interfaceId */\n      dup4\n      and\n      eq\n        /* \"contracts/access/AccessControl.sol\":2765:2801  super.supportsInterface(interfaceId) */\n    tag_160:\n        /* \"contracts/access/AccessControl.sol\":2707:2801  return interfaceId == type(IAccessControl).interfaceId || super.supportsInterface(interfaceId) */\n      swap3\n        /* \"contracts/access/AccessControl.sol\":2606:2808  function supportsInterface(bytes4 interfaceId) public view virtual override returns (bool) {... */\n      swap2\n      pop\n      pop\n      jump\t// out\n        /* \"contracts/Arcade.sol\":4533:5115  function addArcadeToken(address token_address, uint256 redemption_rate, bool _active) public onlyRole(ARCADE_MANAGER) {... */\n    tag_53:\n      0x00\n      dup1\n      mload\n      0x20\n      data_023264abf97b17654b97d38bd81099eb2064d5cca6dbd4e398ff8bdbab67b82d\n      dup4\n      codecopy\n      dup2\n      mload\n      swap2\n      mstore\n        /* \"contracts/access/AccessControl.sol\":2505:2521  _checkRole(role) */\n      tag_163\n        /* \"contracts/access/AccessControl.sol\":2516:2520  role */\n      dup2\n        /* \"contracts/access/AccessControl.sol\":2505:2515  _checkRole */\n      tag_155\n        /* \"contracts/access/AccessControl.sol\":2505:2521  _checkRole(role) */\n      jump\t// in\n    tag_163:\n      sub(shl(0xa0, 0x01), 0x01)\n        /* \"contracts/Arcade.sol\":4661:4696  acceptedArcadeTokens[token_address] */\n      dup5\n      and\n      0x00\n      dup2\n      dup2\n      mstore\n        /* \"contracts/Arcade.sol\":4661:4681  acceptedArcadeTokens */\n      0x01\n        /* \"contracts/Arcade.sol\":4661:4696  acceptedArcadeTokens[token_address] */\n      0x20\n      dup2\n      swap1\n      mstore\n      0x40\n      swap1\n      swap2\n      keccak256\n        /* \"contracts/Arcade.sol\":4661:4712  acceptedArcadeTokens[token_address].redemption_rate */\n      swap1\n      dup2\n      add\n        /* \"contracts/Arcade.sol\":4661:4730  acceptedArcadeTokens[token_address].redemption_rate = redemption_rate */\n      dup6\n      swap1\n      sstore\n        /* \"contracts/Arcade.sol\":4740:4792  acceptedArcadeTokens[token_address].active = _active */\n      dup1\n      sload\n      not(sub(shl(0xa8, 0x01), 0x01))\n        /* \"contracts/Arcade.sol\":4868:4948  acceptedArcadeTokens[token_address].native_token = IERC20(payable_token_address) */\n      and\n      shl(0xa0, 0x01)\n        /* \"contracts/Arcade.sol\":4740:4792  acceptedArcadeTokens[token_address].active = _active */\n      dup6\n      iszero\n      iszero\n      mul\n      not(sub(shl(0xa0, 0x01), 0x01))\n        /* \"contracts/Arcade.sol\":4868:4948  acceptedArcadeTokens[token_address].native_token = IERC20(payable_token_address) */\n      and\n      or\n      dup3\n      or\n      swap1\n      sstore\n        /* \"contracts/Arcade.sol\":4661:4696  acceptedArcadeTokens[token_address] */\n      dup5\n      swap1\n        /* \"contracts/Arcade.sol\":4958:5014  acceptedArcadeTokens[token_address].native_token.approve */\n      0x095ea7b3\n        /* \"contracts/utils/Context.sol\":719:729  msg.sender */\n      caller\n        /* \"contracts/Arcade.sol\":4958:5108  acceptedArcadeTokens[token_address].native_token.approve(_msgSender(), 115792089237316195423570985008687907853269984665640564039457584007913129639935) */\n      mload(0x40)\n      not(sub(shl(0xe0, 0x01), 0x01))\n      0xe0\n      dup5\n      swap1\n      shl\n      and\n      dup2\n      mstore\n      sub(shl(0xa0, 0x01), 0x01)\n        /* \"#utility.yul\":4681:4713   */\n      swap1\n      swap2\n      and\n        /* \"contracts/Arcade.sol\":4958:5108  acceptedArcadeTokens[token_address].native_token.approve(_msgSender(), 115792089237316195423570985008687907853269984665640564039457584007913129639935) */\n      0x04\n      dup3\n      add\n        /* \"#utility.yul\":4663:4714   */\n      mstore\n      not(0x00)\n        /* \"#utility.yul\":4730:4748   */\n      0x24\n      dup3\n      add\n        /* \"#utility.yul\":4723:4757   */\n      mstore\n        /* \"#utility.yul\":4636:4654   */\n      0x44\n      add\n        /* \"contracts/Arcade.sol\":4958:5108  acceptedArcadeTokens[token_address].native_token.approve(_msgSender(), 115792089237316195423570985008687907853269984665640564039457584007913129639935) */\n      0x20\n      mload(0x40)\n      dup1\n      dup4\n      sub\n      dup2\n      0x00\n      dup8\n      dup1\n      extcodesize\n      iszero\n      dup1\n      iszero\n      tag_169\n      jumpi\n      0x00\n      dup1\n      revert\n    tag_169:\n      pop\n      gas\n      call\n      iszero\n      dup1\n      iszero\n      tag_171\n      jumpi\n      returndatasize\n      0x00\n      dup1\n      returndatacopy\n      revert(0x00, returndatasize)\n    tag_171:\n      pop\n      pop\n      pop\n      pop\n      mload(0x40)\n      returndatasize\n      not(0x1f)\n      0x1f\n      dup3\n      add\n      and\n      dup3\n      add\n      dup1\n      0x40\n      mstore\n      pop\n      dup2\n      add\n      swap1\n      tag_172\n      swap2\n      swap1\n      tag_173\n      jump\t// in\n    tag_172:\n      pop\n        /* \"contracts/access/AccessControl.sol\":2531:2532  _ */\n      pop\n        /* \"contracts/Arcade.sol\":4533:5115  function addArcadeToken(address token_address, uint256 redemption_rate, bool _active) public onlyRole(ARCADE_MANAGER) {... */\n      pop\n      pop\n      pop\n      pop\n      jump\t// out\n        /* \"contracts/Arcade.sol\":3515:3887  function reconcile(address arcade_token) public onlyRole(DEFAULT_ADMIN_ROLE) {... */\n    tag_57:\n        /* \"contracts/access/AccessControl.sol\":2072:2076  0x00 */\n      0x00\n        /* \"contracts/access/AccessControl.sol\":2505:2521  _checkRole(role) */\n      tag_175\n        /* \"contracts/access/AccessControl.sol\":2072:2076  0x00 */\n      dup2\n        /* \"contracts/access/AccessControl.sol\":2505:2515  _checkRole */\n      tag_155\n        /* \"contracts/access/AccessControl.sol\":2505:2521  _checkRole(role) */\n      jump\t// in\n    tag_175:\n      sub(shl(0xa0, 0x01), 0x01)\n        /* \"contracts/Arcade.sol\":3620:3654  acceptedArcadeTokens[arcade_token] */\n      dup3\n      dup2\n      and\n        /* \"contracts/Arcade.sol\":3602:3617  uint256 balance */\n      0x00\n        /* \"contracts/Arcade.sol\":3620:3654  acceptedArcadeTokens[arcade_token] */\n      swap1\n      dup2\n      mstore\n        /* \"contracts/Arcade.sol\":3620:3640  acceptedArcadeTokens */\n      0x01\n        /* \"contracts/Arcade.sol\":3620:3654  acceptedArcadeTokens[arcade_token] */\n      0x20\n      mstore\n      0x40\n      dup1\n      dup3\n      keccak256\n        /* \"contracts/Arcade.sol\":3620:3667  acceptedArcadeTokens[arcade_token].native_token */\n      sload\n        /* \"contracts/Arcade.sol\":3620:3692  acceptedArcadeTokens[arcade_token].native_token.balanceOf(address(this)) */\n      swap1\n      mload\n      shl(0xe0, 0x70a08231)\n      dup2\n      mstore\n        /* \"contracts/Arcade.sol\":3686:3690  this */\n      address\n        /* \"contracts/Arcade.sol\":3620:3692  acceptedArcadeTokens[arcade_token].native_token.balanceOf(address(this)) */\n      0x04\n      dup3\n      add\n        /* \"#utility.yul\":3962:4013   */\n      mstore\n        /* \"contracts/Arcade.sol\":3602:3617  uint256 balance */\n      swap2\n      swap3\n        /* \"contracts/Arcade.sol\":3620:3667  acceptedArcadeTokens[arcade_token].native_token */\n      and\n      swap1\n        /* \"contracts/Arcade.sol\":3620:3677  acceptedArcadeTokens[arcade_token].native_token.balanceOf */\n      0x70a08231\n      swap1\n        /* \"#utility.yul\":3935:3953   */\n      0x24\n      add\n        /* \"contracts/Arcade.sol\":3620:3692  acceptedArcadeTokens[arcade_token].native_token.balanceOf(address(this)) */\n      0x20\n      mload(0x40)\n      dup1\n      dup4\n      sub\n      dup2\n      dup7\n      dup1\n      extcodesize\n      iszero\n      dup1\n      iszero\n      tag_178\n      jumpi\n      0x00\n      dup1\n      revert\n    tag_178:\n      pop\n      gas\n      staticcall\n      iszero\n      dup1\n      iszero\n      tag_180\n      jumpi\n      returndatasize\n      0x00\n      dup1\n      returndatacopy\n      revert(0x00, returndatasize)\n    tag_180:\n      pop\n      pop\n      pop\n      pop\n      mload(0x40)\n      returndatasize\n      not(0x1f)\n      0x1f\n      dup3\n      add\n      and\n      dup3\n      add\n      dup1\n      0x40\n      mstore\n      pop\n      dup2\n      add\n      swap1\n      tag_181\n      swap2\n      swap1\n      tag_182\n      jump\t// in\n    tag_181:\n        /* \"contracts/Arcade.sol\":3602:3692  uint256 balance = acceptedArcadeTokens[arcade_token].native_token.balanceOf(address(this)) */\n      swap1\n      pop\n        /* \"contracts/Arcade.sol\":3707:3718  balance > 0 */\n      dup1\n      iszero\n        /* \"contracts/Arcade.sol\":3703:3881  if (balance > 0) {... */\n      tag_191\n      jumpi\n      sub(shl(0xa0, 0x01), 0x01)\n        /* \"contracts/Arcade.sol\":3742:3778  acceptedArcadeTokens[(arcade_token)] */\n      dup4\n      dup2\n      and\n      0x00\n      swap1\n      dup2\n      mstore\n        /* \"contracts/Arcade.sol\":3742:3762  acceptedArcadeTokens */\n      0x01\n        /* \"contracts/Arcade.sol\":3742:3778  acceptedArcadeTokens[(arcade_token)] */\n      0x20\n      mstore\n      0x40\n      swap1\n      keccak256\n        /* \"contracts/Arcade.sol\":3742:3791  acceptedArcadeTokens[(arcade_token)].native_token */\n      sload\n      and\n        /* \"contracts/Arcade.sol\":3742:3800  acceptedArcadeTokens[(arcade_token)].native_token.transfer */\n      0xa9059cbb\n        /* \"contracts/utils/Context.sol\":719:729  msg.sender */\n      caller\n        /* \"contracts/Arcade.sol\":3742:3823  acceptedArcadeTokens[(arcade_token)].native_token.transfer(_msgSender(), balance) */\n      mload(0x40)\n      not(sub(shl(0xe0, 0x01), 0x01))\n      0xe0\n      dup5\n      swap1\n      shl\n      and\n      dup2\n      mstore\n      sub(shl(0xa0, 0x01), 0x01)\n        /* \"#utility.yul\":4681:4713   */\n      swap1\n      swap2\n      and\n        /* \"contracts/Arcade.sol\":3742:3823  acceptedArcadeTokens[(arcade_token)].native_token.transfer(_msgSender(), balance) */\n      0x04\n      dup3\n      add\n        /* \"#utility.yul\":4663:4714   */\n      mstore\n        /* \"#utility.yul\":4730:4748   */\n      0x24\n      dup2\n      add\n        /* \"#utility.yul\":4723:4757   */\n      dup5\n      swap1\n      mstore\n        /* \"#utility.yul\":4636:4654   */\n      0x44\n      add\n        /* \"contracts/Arcade.sol\":3742:3823  acceptedArcadeTokens[(arcade_token)].native_token.transfer(_msgSender(), balance) */\n      0x20\n      mload(0x40)\n      dup1\n      dup4\n      sub\n      dup2\n      0x00\n      dup8\n      dup1\n      extcodesize\n      iszero\n      dup1\n      iszero\n      tag_187\n      jumpi\n      0x00\n      dup1\n      revert\n    tag_187:\n      pop\n      gas\n      call\n      iszero\n      dup1\n      iszero\n      tag_189\n      jumpi\n      returndatasize\n      0x00\n      dup1\n      returndatacopy\n      revert(0x00, returndatasize)\n    tag_189:\n      pop\n      pop\n      pop\n      pop\n      mload(0x40)\n      returndatasize\n      not(0x1f)\n      0x1f\n      dup3\n      add\n      and\n      dup3\n      add\n      dup1\n      0x40\n      mstore\n      pop\n      dup2\n      add\n      swap1\n      tag_190\n      swap2\n      swap1\n      tag_173\n      jump\t// in\n    tag_190:\n        /* \"contracts/Arcade.sol\":3734:3870  require(acceptedArcadeTokens[(arcade_token)].native_token.transfer(_msgSender(), balance), \"Trophy King Arcade: Reconciliation failed.\") */\n      tag_191\n      jumpi\n      mload(0x40)\n      shl(0xe5, 0x461bcd)\n      dup2\n      mstore\n        /* \"#utility.yul\":10841:10843   */\n      0x20\n        /* \"contracts/Arcade.sol\":3734:3870  require(acceptedArcadeTokens[(arcade_token)].native_token.transfer(_msgSender(), balance), \"Trophy King Arcade: Reconciliation failed.\") */\n      0x04\n      dup3\n      add\n        /* \"#utility.yul\":10823:10844   */\n      mstore\n        /* \"#utility.yul\":10880:10882   */\n      0x2a\n        /* \"#utility.yul\":10860:10878   */\n      0x24\n      dup3\n      add\n        /* \"#utility.yul\":10853:10883   */\n      mstore\n        /* \"#utility.yul\":10919:10953   */\n      0x54726f706879204b696e67204172636164653a205265636f6e63696c69617469\n        /* \"#utility.yul\":10899:10917   */\n      0x44\n      dup3\n      add\n        /* \"#utility.yul\":10892:10954   */\n      mstore\n      shl(0xb1, 0x37b7103330b4b632b217)\n        /* \"#utility.yul\":10970:10988   */\n      0x64\n      dup3\n      add\n        /* \"#utility.yul\":10963:11003   */\n      mstore\n        /* \"#utility.yul\":11020:11039   */\n      0x84\n      add\n        /* \"contracts/Arcade.sol\":3734:3870  require(acceptedArcadeTokens[(arcade_token)].native_token.transfer(_msgSender(), balance), \"Trophy King Arcade: Reconciliation failed.\") */\n    tag_192:\n      mload(0x40)\n      dup1\n      swap2\n      sub\n      swap1\n      revert\n    tag_191:\n        /* \"contracts/access/AccessControl.sol\":2531:2532  _ */\n      pop\n        /* \"contracts/Arcade.sol\":3515:3887  function reconcile(address arcade_token) public onlyRole(DEFAULT_ADMIN_ROLE) {... */\n      pop\n      pop\n      jump\t// out\n        /* \"contracts/Arcade.sol\":6682:6824  function deleteGame(uint256 game_id) public onlyRole(GAME_MASTER) {... */\n    tag_60:\n      0x00\n      dup1\n      mload\n      0x20\n      data_806db7640bcc104a4b7b53ebc0c09b63eefd92fe89197bc684d91aa66a17455c\n      dup4\n      codecopy\n      dup2\n      mload\n      swap2\n      mstore\n        /* \"contracts/access/AccessControl.sol\":2505:2521  _checkRole(role) */\n      tag_195\n        /* \"contracts/access/AccessControl.sol\":2516:2520  role */\n      dup2\n        /* \"contracts/access/AccessControl.sol\":2505:2515  _checkRole */\n      tag_155\n        /* \"contracts/access/AccessControl.sol\":2505:2521  _checkRole(role) */\n      jump\t// in\n    tag_195:\n        /* \"contracts/Arcade.sol\":6765:6782  gameData[game_id] */\n      0x00\n      dup3\n      dup2\n      mstore\n        /* \"contracts/Arcade.sol\":6765:6773  gameData */\n      0x02\n        /* \"contracts/Arcade.sol\":6765:6782  gameData[game_id] */\n      0x20\n      dup2\n      dup2\n      mstore\n      0x40\n      dup1\n      dup5\n      keccak256\n        /* \"contracts/Arcade.sol\":6758:6782  delete gameData[game_id] */\n      dup1\n      sload\n      not(0xff)\n      and\n      dup2\n      sstore\n      0x01\n      dup2\n      add\n      dup6\n      swap1\n      sstore\n      swap3\n      dup4\n      add\n      dup5\n      swap1\n      sstore\n      0x03\n      dup4\n      add\n      dup5\n      swap1\n      sstore\n      0x04\n      dup4\n      add\n      dup5\n      swap1\n      sstore\n      0x05\n      dup4\n      add\n      dup1\n      sload\n      not(sub(shl(0xa0, 0x01), 0x01))\n      and\n      swap1\n      sstore\n      0x06\n      swap1\n      swap3\n      add\n      swap3\n      swap1\n      swap3\n      sstore\n        /* \"contracts/Arcade.sol\":6798:6817  DeleteGame(game_id) */\n      mload\n        /* \"#utility.yul\":6656:6681   */\n      dup4\n      dup2\n      mstore\n        /* \"contracts/Arcade.sol\":6798:6817  DeleteGame(game_id) */\n      0xd0b153e02e23f4f21d020465b4dac7b1114893d05db395ed2511f879c3ac90b4\n      swap2\n        /* \"#utility.yul\":6629:6647   */\n      add\n        /* \"contracts/Arcade.sol\":6798:6817  DeleteGame(game_id) */\n      tag_157\n        /* \"#utility.yul\":6611:6687   */\n      jump\n        /* \"contracts/Arcade.sol\":4052:4180  function setArcadeFeePercentage(uint256 percentage) public onlyRole(ARCADE_MANAGER) {... */\n    tag_69:\n      0x00\n      dup1\n      mload\n      0x20\n      data_023264abf97b17654b97d38bd81099eb2064d5cca6dbd4e398ff8bdbab67b82d\n      dup4\n      codecopy\n      dup2\n      mload\n      swap2\n      mstore\n        /* \"contracts/access/AccessControl.sol\":2505:2521  _checkRole(role) */\n      tag_200\n        /* \"contracts/access/AccessControl.sol\":2516:2520  role */\n      dup2\n        /* \"contracts/access/AccessControl.sol\":2505:2515  _checkRole */\n      tag_155\n        /* \"contracts/access/AccessControl.sol\":2505:2521  _checkRole(role) */\n      jump\t// in\n    tag_200:\n      pop\n        /* \"contracts/Arcade.sol\":4146:4160  fee_percentage */\n      0x04\n        /* \"contracts/Arcade.sol\":4146:4173  fee_percentage = percentage */\n      sstore\n        /* \"contracts/Arcade.sol\":4052:4180  function setArcadeFeePercentage(uint256 percentage) public onlyRole(ARCADE_MANAGER) {... */\n      jump\t// out\n        /* \"contracts/Arcade.sol\":9035:9207  function removePlayer(uint256 game_id, address player) public onlyRole(GAME_MASTER) {... */\n    tag_73:\n      0x00\n      dup1\n      mload\n      0x20\n      data_806db7640bcc104a4b7b53ebc0c09b63eefd92fe89197bc684d91aa66a17455c\n      dup4\n      codecopy\n      dup2\n      mload\n      swap2\n      mstore\n        /* \"contracts/access/AccessControl.sol\":2505:2521  _checkRole(role) */\n      tag_203\n        /* \"contracts/access/AccessControl.sol\":2516:2520  role */\n      dup2\n        /* \"contracts/access/AccessControl.sol\":2505:2515  _checkRole */\n      tag_155\n        /* \"contracts/access/AccessControl.sol\":2505:2521  _checkRole(role) */\n      jump\t// in\n    tag_203:\n        /* \"contracts/Arcade.sol\":9163:9164  0 */\n      0x00\n        /* \"contracts/Arcade.sol\":9129:9146  gameData[game_id] */\n      dup4\n      dup2\n      mstore\n        /* \"contracts/Arcade.sol\":9129:9137  gameData */\n      0x02\n        /* \"contracts/Arcade.sol\":9129:9146  gameData[game_id] */\n      0x20\n      swap1\n      dup2\n      mstore\n      0x40\n      dup1\n      dup4\n      keccak256\n      sub(shl(0xa0, 0x01), 0x01)\n        /* \"contracts/Arcade.sol\":9129:9160  gameData[game_id].seats[player] */\n      dup7\n      and\n      dup1\n      dup6\n      mstore\n        /* \"contracts/Arcade.sol\":9129:9152  gameData[game_id].seats */\n      0x09\n      swap1\n      swap2\n      add\n        /* \"contracts/Arcade.sol\":9129:9160  gameData[game_id].seats[player] */\n      dup4\n      mstore\n      dup2\n      dup5\n      keccak256\n        /* \"contracts/Arcade.sol\":9129:9164  gameData[game_id].seats[player] = 0 */\n      swap4\n      swap1\n      swap4\n      sstore\n        /* \"contracts/Arcade.sol\":9180:9200  RemovePlayer(player) */\n      mload\n        /* \"#utility.yul\":3962:4013   */\n      swap2\n      dup3\n      mstore\n        /* \"contracts/Arcade.sol\":9180:9200  RemovePlayer(player) */\n      0x34aeefd5030be05fe70eebc8866d82f935a308eb9f334cba88f5e3bea1a0cae8\n      swap2\n        /* \"#utility.yul\":3935:3953   */\n      add\n        /* \"contracts/Arcade.sol\":9180:9200  RemovePlayer(player) */\n      mload(0x40)\n      dup1\n      swap2\n      sub\n      swap1\n      log1\n        /* \"contracts/Arcade.sol\":9035:9207  function removePlayer(uint256 game_id, address player) public onlyRole(GAME_MASTER) {... */\n      pop\n      pop\n      pop\n      jump\t// out\n        /* \"contracts/Arcade.sol\":5577:5721  function closeGame(uint256 game_id) public onlyRole(GAME_MASTER) {... */\n    tag_76:\n      0x00\n      dup1\n      mload\n      0x20\n      data_806db7640bcc104a4b7b53ebc0c09b63eefd92fe89197bc684d91aa66a17455c\n      dup4\n      codecopy\n      dup2\n      mload\n      swap2\n      mstore\n        /* \"contracts/access/AccessControl.sol\":2505:2521  _checkRole(role) */\n      tag_207\n        /* \"contracts/access/AccessControl.sol\":2516:2520  role */\n      dup2\n        /* \"contracts/access/AccessControl.sol\":2505:2515  _checkRole */\n      tag_155\n        /* \"contracts/access/AccessControl.sol\":2505:2521  _checkRole(role) */\n      jump\t// in\n    tag_207:\n        /* \"contracts/Arcade.sol\":5679:5680  0 */\n      0x00\n        /* \"contracts/Arcade.sol\":5652:5669  gameData[game_id] */\n      dup3\n      dup2\n      mstore\n        /* \"contracts/Arcade.sol\":5652:5660  gameData */\n      0x02\n        /* \"contracts/Arcade.sol\":5652:5669  gameData[game_id] */\n      0x20\n      mstore\n      0x40\n      dup1\n      dup3\n      keccak256\n        /* \"contracts/Arcade.sol\":5652:5676  gameData[game_id].status */\n      0x04\n      add\n        /* \"contracts/Arcade.sol\":5652:5680  gameData[game_id].status = 0 */\n      swap2\n      swap1\n      swap2\n      sstore\n        /* \"contracts/Arcade.sol\":5696:5714  CloseGame(game_id) */\n      mload\n      0x827e8bff9f46048f8351964d2c871d09e4f4231513cf2fcb786649c68732e24f\n      swap1\n      tag_157\n      swap1\n        /* \"contracts/Arcade.sol\":5661:5668  game_id */\n      dup5\n        /* \"#utility.yul\":6656:6681   */\n      dup2\n      mstore\n        /* \"#utility.yul\":6644:6646   */\n      0x20\n        /* \"#utility.yul\":6629:6647   */\n      add\n      swap1\n        /* \"#utility.yul\":6611:6687   */\n      jump\n        /* \"contracts/access/AccessControl.sol\":4770:4915  function grantRole(bytes32 role, address account) public virtual override onlyRole(getRoleAdmin(role)) {... */\n    tag_80:\n        /* \"contracts/access/AccessControl.sol\":4465:4472  bytes32 */\n      0x00\n        /* \"contracts/access/AccessControl.sol\":4491:4503  _roles[role] */\n      dup3\n      dup2\n      mstore\n      0x20\n      dup2\n      swap1\n      mstore\n      0x40\n      swap1\n      keccak256\n        /* \"contracts/access/AccessControl.sol\":4491:4513  _roles[role].adminRole */\n      0x01\n      add\n      sload\n        /* \"contracts/access/AccessControl.sol\":2505:2521  _checkRole(role) */\n      tag_212\n        /* \"contracts/access/AccessControl.sol\":2516:2520  role */\n      dup2\n        /* \"contracts/access/AccessControl.sol\":2505:2515  _checkRole */\n      tag_155\n        /* \"contracts/access/AccessControl.sol\":2505:2521  _checkRole(role) */\n      jump\t// in\n    tag_212:\n        /* \"contracts/access/AccessControl.sol\":4883:4908  _grantRole(role, account) */\n      tag_191\n        /* \"contracts/access/AccessControl.sol\":4894:4898  role */\n      dup4\n        /* \"contracts/access/AccessControl.sol\":4900:4907  account */\n      dup4\n        /* \"contracts/access/AccessControl.sol\":4883:4893  _grantRole */\n      tag_215\n        /* \"contracts/access/AccessControl.sol\":4883:4908  _grantRole(role, account) */\n      jump\t// in\n        /* \"contracts/access/AccessControl.sol\":5787:6001  function renounceRole(bytes32 role, address account) public virtual override {... */\n    tag_87:\n      sub(shl(0xa0, 0x01), 0x01)\n        /* \"contracts/access/AccessControl.sol\":5882:5905  account == _msgSender() */\n      dup2\n      and\n        /* \"contracts/utils/Context.sol\":719:729  msg.sender */\n      caller\n        /* \"contracts/access/AccessControl.sol\":5882:5905  account == _msgSender() */\n      eq\n        /* \"contracts/access/AccessControl.sol\":5874:5957  require(account == _msgSender(), \"AccessControl: can only renounce roles for self\") */\n      tag_218\n      jumpi\n      mload(0x40)\n      shl(0xe5, 0x461bcd)\n      dup2\n      mstore\n        /* \"#utility.yul\":12475:12477   */\n      0x20\n        /* \"contracts/access/AccessControl.sol\":5874:5957  require(account == _msgSender(), \"AccessControl: can only renounce roles for self\") */\n      0x04\n      dup3\n      add\n        /* \"#utility.yul\":12457:12478   */\n      mstore\n        /* \"#utility.yul\":12514:12516   */\n      0x2f\n        /* \"#utility.yul\":12494:12512   */\n      0x24\n      dup3\n      add\n        /* \"#utility.yul\":12487:12517   */\n      mstore\n        /* \"#utility.yul\":12553:12587   */\n      0x416363657373436f6e74726f6c3a2063616e206f6e6c792072656e6f756e6365\n        /* \"#utility.yul\":12533:12551   */\n      0x44\n      dup3\n      add\n        /* \"#utility.yul\":12526:12588   */\n      mstore\n      shl(0x89, 0x103937b632b9903337b91039b2b633)\n        /* \"#utility.yul\":12604:12622   */\n      0x64\n      dup3\n      add\n        /* \"#utility.yul\":12597:12642   */\n      mstore\n        /* \"#utility.yul\":12659:12678   */\n      0x84\n      add\n        /* \"contracts/access/AccessControl.sol\":5874:5957  require(account == _msgSender(), \"AccessControl: can only renounce roles for self\") */\n      tag_192\n        /* \"#utility.yul\":12447:12684   */\n      jump\n        /* \"contracts/access/AccessControl.sol\":5874:5957  require(account == _msgSender(), \"AccessControl: can only renounce roles for self\") */\n    tag_218:\n        /* \"contracts/access/AccessControl.sol\":5968:5994  _revokeRole(role, account) */\n      tag_221\n        /* \"contracts/access/AccessControl.sol\":5980:5984  role */\n      dup3\n        /* \"contracts/access/AccessControl.sol\":5986:5993  account */\n      dup3\n        /* \"contracts/access/AccessControl.sol\":5968:5979  _revokeRole */\n      tag_222\n        /* \"contracts/access/AccessControl.sol\":5968:5994  _revokeRole(role, account) */\n      jump\t// in\n    tag_221:\n        /* \"contracts/access/AccessControl.sol\":5787:6001  function renounceRole(bytes32 role, address account) public virtual override {... */\n      pop\n      pop\n      jump\t// out\n        /* \"contracts/Arcade.sol\":5277:5426  function removeArcadeToken(address token_address) public onlyRole(ARCADE_MANAGER) {... */\n    tag_90:\n      0x00\n      dup1\n      mload\n      0x20\n      data_023264abf97b17654b97d38bd81099eb2064d5cca6dbd4e398ff8bdbab67b82d\n      dup4\n      codecopy\n      dup2\n      mload\n      swap2\n      mstore\n        /* \"contracts/access/AccessControl.sol\":2505:2521  _checkRole(role) */\n      tag_224\n        /* \"contracts/access/AccessControl.sol\":2516:2520  role */\n      dup2\n        /* \"contracts/access/AccessControl.sol\":2505:2515  _checkRole */\n      tag_155\n        /* \"contracts/access/AccessControl.sol\":2505:2521  _checkRole(role) */\n      jump\t// in\n    tag_224:\n      pop\n      sub(shl(0xa0, 0x01), 0x01)\n        /* \"contracts/Arcade.sol\":5369:5404  acceptedArcadeTokens[token_address] */\n      and\n        /* \"contracts/Arcade.sol\":5414:5419  false */\n      0x00\n        /* \"contracts/Arcade.sol\":5369:5404  acceptedArcadeTokens[token_address] */\n      swap1\n      dup2\n      mstore\n        /* \"contracts/Arcade.sol\":5369:5389  acceptedArcadeTokens */\n      0x01\n        /* \"contracts/Arcade.sol\":5369:5404  acceptedArcadeTokens[token_address] */\n      0x20\n      mstore\n      0x40\n      swap1\n      keccak256\n        /* \"contracts/Arcade.sol\":5369:5419  acceptedArcadeTokens[token_address].active = false */\n      dup1\n      sload\n      not(shl(0xa0, 0xff))\n      and\n      swap1\n      sstore\n        /* \"contracts/Arcade.sol\":5277:5426  function removeArcadeToken(address token_address) public onlyRole(ARCADE_MANAGER) {... */\n      jump\t// out\n        /* \"contracts/Arcade.sol\":8189:8868  function refund(uint256 game_id, address player) public onlyRole(GAME_MASTER) {... */\n    tag_93:\n      0x00\n      dup1\n      mload\n      0x20\n      data_806db7640bcc104a4b7b53ebc0c09b63eefd92fe89197bc684d91aa66a17455c\n      dup4\n      codecopy\n      dup2\n      mload\n      swap2\n      mstore\n        /* \"contracts/access/AccessControl.sol\":2505:2521  _checkRole(role) */\n      tag_227\n        /* \"contracts/access/AccessControl.sol\":2516:2520  role */\n      dup2\n        /* \"contracts/access/AccessControl.sol\":2505:2515  _checkRole */\n      tag_155\n        /* \"contracts/access/AccessControl.sol\":2505:2521  _checkRole(role) */\n      jump\t// in\n    tag_227:\n        /* \"contracts/Arcade.sol\":8281:8298  gameData[game_id] */\n      0x00\n      dup4\n      dup2\n      mstore\n        /* \"contracts/Arcade.sol\":8281:8289  gameData */\n      0x02\n        /* \"contracts/Arcade.sol\":8281:8298  gameData[game_id] */\n      0x20\n      mstore\n      0x40\n      swap1\n      keccak256\n        /* \"contracts/Arcade.sol\":8281:8307  gameData[game_id].exchange */\n      sload\n      0xff\n      and\n        /* \"contracts/Arcade.sol\":8277:8862  if (gameData[game_id].exchange == false) {... */\n      tag_191\n      jumpi\n        /* \"contracts/Arcade.sol\":8340:8357  gameData[game_id] */\n      0x00\n      dup4\n      dup2\n      mstore\n        /* \"contracts/Arcade.sol\":8340:8348  gameData */\n      0x02\n        /* \"contracts/Arcade.sol\":8340:8357  gameData[game_id] */\n      0x20\n      swap1\n      dup2\n      mstore\n      0x40\n      dup1\n      dup4\n      keccak256\n      sub(shl(0xa0, 0x01), 0x01)\n        /* \"contracts/Arcade.sol\":8340:8370  gameData[game_id].paid[player] */\n      dup7\n      and\n      dup5\n      mstore\n        /* \"contracts/Arcade.sol\":8340:8362  gameData[game_id].paid */\n      0x08\n      add\n        /* \"contracts/Arcade.sol\":8340:8370  gameData[game_id].paid[player] */\n      swap1\n      swap2\n      mstore\n      swap1\n      keccak256\n      sload\n        /* \"contracts/Arcade.sol\":8374:8375  1 */\n      0x01\n        /* \"contracts/Arcade.sol\":8340:8375  gameData[game_id].paid[player] == 1 */\n      eq\n        /* \"contracts/Arcade.sol\":8332:8429  require(gameData[game_id].paid[player] == 1, \"Trophy King Arcade: Not registered for this game.\") */\n      tag_230\n      jumpi\n      mload(0x40)\n      shl(0xe5, 0x461bcd)\n      dup2\n      mstore\n        /* \"#utility.yul\":11654:11656   */\n      0x20\n        /* \"contracts/Arcade.sol\":8332:8429  require(gameData[game_id].paid[player] == 1, \"Trophy King Arcade: Not registered for this game.\") */\n      0x04\n      dup3\n      add\n        /* \"#utility.yul\":11636:11657   */\n      mstore\n        /* \"#utility.yul\":11693:11695   */\n      0x31\n        /* \"#utility.yul\":11673:11691   */\n      0x24\n      dup3\n      add\n        /* \"#utility.yul\":11666:11696   */\n      mstore\n        /* \"#utility.yul\":11732:11766   */\n      0x54726f706879204b696e67204172636164653a204e6f74207265676973746572\n        /* \"#utility.yul\":11712:11730   */\n      0x44\n      dup3\n      add\n        /* \"#utility.yul\":11705:11767   */\n      mstore\n      shl(0x79, 0x32b2103337b9103a3434b99033b0b6b297)\n        /* \"#utility.yul\":11783:11801   */\n      0x64\n      dup3\n      add\n        /* \"#utility.yul\":11776:11823   */\n      mstore\n        /* \"#utility.yul\":11840:11859   */\n      0x84\n      add\n        /* \"contracts/Arcade.sol\":8332:8429  require(gameData[game_id].paid[player] == 1, \"Trophy King Arcade: Not registered for this game.\") */\n      tag_192\n        /* \"#utility.yul\":11626:11865   */\n      jump\n        /* \"contracts/Arcade.sol\":8332:8429  require(gameData[game_id].paid[player] == 1, \"Trophy King Arcade: Not registered for this game.\") */\n    tag_230:\n        /* \"contracts/Arcade.sol\":8444:8463  GameInfo storage gi */\n      0x00\n        /* \"contracts/Arcade.sol\":8466:8483  gameData[game_id] */\n      dup4\n      dup2\n      mstore\n        /* \"contracts/Arcade.sol\":8466:8474  gameData */\n      0x02\n        /* \"contracts/Arcade.sol\":8466:8483  gameData[game_id] */\n      0x20\n      swap1\n      dup2\n      mstore\n      0x40\n      dup1\n      dup4\n      keccak256\n        /* \"contracts/Arcade.sol\":8528:8543  gi.arcade_token */\n      0x05\n      dup2\n      add\n      sload\n      sub(shl(0xa0, 0x01), 0x01)\n      swap1\n      dup2\n      and\n        /* \"contracts/Arcade.sol\":8506:8545  acceptedArcadeTokens[(gi.arcade_token)] */\n      dup6\n      mstore\n        /* \"contracts/Arcade.sol\":8506:8526  acceptedArcadeTokens */\n      0x01\n        /* \"contracts/Arcade.sol\":8506:8545  acceptedArcadeTokens[(gi.arcade_token)] */\n      swap1\n      swap4\n      mstore\n      swap3\n      dup2\n      swap1\n      keccak256\n        /* \"contracts/Arcade.sol\":8506:8558  acceptedArcadeTokens[(gi.arcade_token)].native_token */\n      sload\n        /* \"contracts/Arcade.sol\":8576:8595  gi.registration_fee */\n      0x03\n      dup5\n      add\n      sload\n        /* \"contracts/Arcade.sol\":8506:8596  acceptedArcadeTokens[(gi.arcade_token)].native_token.transfer(player, gi.registration_fee) */\n      swap2\n      mload\n      shl(0xe0, 0xa9059cbb)\n      dup2\n      mstore\n        /* \"#utility.yul\":4681:4713   */\n      dup7\n      dup5\n      and\n        /* \"contracts/Arcade.sol\":8506:8596  acceptedArcadeTokens[(gi.arcade_token)].native_token.transfer(player, gi.registration_fee) */\n      0x04\n      dup3\n      add\n        /* \"#utility.yul\":4663:4714   */\n      mstore\n        /* \"#utility.yul\":4730:4748   */\n      0x24\n      dup2\n      add\n        /* \"#utility.yul\":4723:4757   */\n      swap3\n      swap1\n      swap3\n      mstore\n        /* \"contracts/Arcade.sol\":8506:8558  acceptedArcadeTokens[(gi.arcade_token)].native_token */\n      swap1\n      swap2\n      and\n      swap1\n        /* \"contracts/Arcade.sol\":8506:8567  acceptedArcadeTokens[(gi.arcade_token)].native_token.transfer */\n      0xa9059cbb\n      swap1\n        /* \"#utility.yul\":4636:4654   */\n      0x44\n      add\n        /* \"contracts/Arcade.sol\":8506:8596  acceptedArcadeTokens[(gi.arcade_token)].native_token.transfer(player, gi.registration_fee) */\n      0x20\n      mload(0x40)\n      dup1\n      dup4\n      sub\n      dup2\n      0x00\n      dup8\n      dup1\n      extcodesize\n      iszero\n      dup1\n      iszero\n      tag_234\n      jumpi\n      0x00\n      dup1\n      revert\n    tag_234:\n      pop\n      gas\n      call\n      iszero\n      dup1\n      iszero\n      tag_236\n      jumpi\n      returndatasize\n      0x00\n      dup1\n      returndatacopy\n      revert(0x00, returndatasize)\n    tag_236:\n      pop\n      pop\n      pop\n      pop\n      mload(0x40)\n      returndatasize\n      not(0x1f)\n      0x1f\n      dup3\n      add\n      and\n      dup3\n      add\n      dup1\n      0x40\n      mstore\n      pop\n      dup2\n      add\n      swap1\n      tag_237\n      swap2\n      swap1\n      tag_173\n      jump\t// in\n    tag_237:\n        /* \"contracts/Arcade.sol\":8498:8635  require(acceptedArcadeTokens[(gi.arcade_token)].native_token.transfer(player, gi.registration_fee), \"Trophy King Arcade: Refund failed.\") */\n      tag_238\n      jumpi\n      mload(0x40)\n      shl(0xe5, 0x461bcd)\n      dup2\n      mstore\n        /* \"#utility.yul\":12072:12074   */\n      0x20\n        /* \"contracts/Arcade.sol\":8498:8635  require(acceptedArcadeTokens[(gi.arcade_token)].native_token.transfer(player, gi.registration_fee), \"Trophy King Arcade: Refund failed.\") */\n      0x04\n      dup3\n      add\n        /* \"#utility.yul\":12054:12075   */\n      mstore\n        /* \"#utility.yul\":12111:12113   */\n      0x22\n        /* \"#utility.yul\":12091:12109   */\n      0x24\n      dup3\n      add\n        /* \"#utility.yul\":12084:12114   */\n      mstore\n        /* \"#utility.yul\":12150:12184   */\n      0x54726f706879204b696e67204172636164653a20526566756e64206661696c65\n        /* \"#utility.yul\":12130:12148   */\n      0x44\n      dup3\n      add\n        /* \"#utility.yul\":12123:12185   */\n      mstore\n      shl(0xf1, 0x3217)\n        /* \"#utility.yul\":12201:12219   */\n      0x64\n      dup3\n      add\n        /* \"#utility.yul\":12194:12226   */\n      mstore\n        /* \"#utility.yul\":12243:12262   */\n      0x84\n      add\n        /* \"contracts/Arcade.sol\":8498:8635  require(acceptedArcadeTokens[(gi.arcade_token)].native_token.transfer(player, gi.registration_fee), \"Trophy King Arcade: Refund failed.\") */\n      tag_192\n        /* \"#utility.yul\":12044:12268   */\n      jump\n        /* \"contracts/Arcade.sol\":8498:8635  require(acceptedArcadeTokens[(gi.arcade_token)].native_token.transfer(player, gi.registration_fee), \"Trophy King Arcade: Refund failed.\") */\n    tag_238:\n        /* \"contracts/Arcade.sol\":8667:8669  gi */\n      dup1\n        /* \"contracts/Arcade.sol\":8667:8686  gi.registration_fee */\n      0x03\n      add\n      sload\n        /* \"contracts/Arcade.sol\":8650:8652  gi */\n      dup2\n        /* \"contracts/Arcade.sol\":8650:8662  gi.total_fee */\n      0x06\n      add\n      0x00\n        /* \"contracts/Arcade.sol\":8650:8687  gi.total_fee -= (gi.registration_fee) */\n      dup3\n      dup3\n      sload\n      tag_241\n      swap2\n      swap1\n      tag_242\n      jump\t// in\n    tag_241:\n      swap1\n      swap2\n      sstore\n      pop\n      pop\n      sub(shl(0xa0, 0x01), 0x01)\n        /* \"contracts/Arcade.sol\":8702:8716  gi.fee[player] */\n      dup4\n      and\n        /* \"contracts/Arcade.sol\":8719:8720  0 */\n      0x00\n        /* \"contracts/Arcade.sol\":8702:8716  gi.fee[player] */\n      swap1\n      dup2\n      mstore\n        /* \"contracts/Arcade.sol\":8702:8708  gi.fee */\n      0x07\n      dup3\n      add\n        /* \"contracts/Arcade.sol\":8702:8716  gi.fee[player] */\n      0x20\n      swap1\n      dup2\n      mstore\n      0x40\n      dup1\n      dup4\n      keccak256\n        /* \"contracts/Arcade.sol\":8702:8720  gi.fee[player] = 0 */\n      dup4\n      swap1\n      sstore\n        /* \"contracts/Arcade.sol\":8734:8741  gi.paid */\n      0x08\n      dup5\n      add\n        /* \"contracts/Arcade.sol\":8734:8749  gi.paid[player] */\n      swap1\n      swap2\n      mstore\n      dup2\n      keccak256\n        /* \"contracts/Arcade.sol\":8734:8753  gi.paid[player] = 0 */\n      dup2\n      swap1\n      sstore\n        /* \"contracts/Arcade.sol\":8786:8787  1 */\n      0x01\n        /* \"contracts/Arcade.sol\":8767:8782  gi.player_count */\n      dup1\n      dup4\n      add\n        /* \"contracts/Arcade.sol\":8767:8787  gi.player_count -= 1 */\n      dup1\n      sload\n        /* \"contracts/Arcade.sol\":8786:8787  1 */\n      swap2\n      swap3\n        /* \"contracts/Arcade.sol\":8767:8782  gi.player_count */\n      swap1\n      swap2\n        /* \"contracts/Arcade.sol\":8767:8787  gi.player_count -= 1 */\n      tag_243\n      swap1\n        /* \"contracts/Arcade.sol\":8786:8787  1 */\n      dup5\n      swap1\n        /* \"contracts/Arcade.sol\":8767:8787  gi.player_count -= 1 */\n      tag_242\n      jump\t// in\n    tag_243:\n      swap1\n      swap2\n      sstore\n      pop\n      pop\n        /* \"contracts/Arcade.sol\":8831:8850  gi.registration_fee */\n      0x03\n      dup2\n      add\n      sload\n        /* \"contracts/Arcade.sol\":8807:8851  Refund(game_id, player, gi.registration_fee) */\n      0x40\n      dup1\n      mload\n        /* \"#utility.yul\":13073:13098   */\n      dup7\n      dup2\n      mstore\n      sub(shl(0xa0, 0x01), 0x01)\n        /* \"#utility.yul\":13134:13166   */\n      dup7\n      and\n        /* \"#utility.yul\":13129:13131   */\n      0x20\n        /* \"#utility.yul\":13114:13132   */\n      dup3\n      add\n        /* \"#utility.yul\":13107:13167   */\n      mstore\n        /* \"#utility.yul\":13183:13201   */\n      dup1\n      dup3\n      add\n        /* \"#utility.yul\":13176:13210   */\n      swap3\n      swap1\n      swap3\n      mstore\n        /* \"contracts/Arcade.sol\":8807:8851  Refund(game_id, player, gi.registration_fee) */\n      mload\n      0x21e12a7cad0da5928167e1084ea4d5fdf8d9af66657a2543a9ac76a0ca081477\n      swap2\n      dup2\n      swap1\n      sub\n        /* \"#utility.yul\":13061:13063   */\n      0x60\n        /* \"contracts/Arcade.sol\":8807:8851  Refund(game_id, player, gi.registration_fee) */\n      add\n      swap1\n      log1\n        /* \"contracts/Arcade.sol\":8277:8862  if (gameData[game_id].exchange == false) {... */\n      pop\n        /* \"contracts/Arcade.sol\":8189:8868  function refund(uint256 game_id, address player) public onlyRole(GAME_MASTER) {... */\n      pop\n      pop\n      pop\n      jump\t// out\n        /* \"contracts/access/AccessControl.sol\":2895:3040  function hasRole(bytes32 role, address account) public view virtual override returns (bool) {... */\n    tag_100:\n        /* \"contracts/access/AccessControl.sol\":2981:2985  bool */\n      0x00\n        /* \"contracts/access/AccessControl.sol\":3004:3016  _roles[role] */\n      swap2\n      dup3\n      mstore\n      0x20\n      dup3\n      dup2\n      mstore\n      0x40\n      dup1\n      dup5\n      keccak256\n      sub(shl(0xa0, 0x01), 0x01)\n        /* \"contracts/access/AccessControl.sol\":3004:3033  _roles[role].members[account] */\n      swap4\n      swap1\n      swap4\n      and\n      dup5\n      mstore\n      swap2\n      swap1\n      mstore\n      swap1\n      keccak256\n      sload\n      0xff\n      and\n      swap1\n        /* \"contracts/access/AccessControl.sol\":2895:3040  function hasRole(bytes32 role, address account) public view virtual override returns (bool) {... */\n      jump\t// out\n        /* \"contracts/Arcade.sol\":9413:10424  function setWinner(uint256 game_id, address winner) public onlyRole(GAME_MASTER) {... */\n    tag_107:\n      0x00\n      dup1\n      mload\n      0x20\n      data_806db7640bcc104a4b7b53ebc0c09b63eefd92fe89197bc684d91aa66a17455c\n      dup4\n      codecopy\n      dup2\n      mload\n      swap2\n      mstore\n        /* \"contracts/access/AccessControl.sol\":2505:2521  _checkRole(role) */\n      tag_248\n        /* \"contracts/access/AccessControl.sol\":2516:2520  role */\n      dup2\n        /* \"contracts/access/AccessControl.sol\":2505:2515  _checkRole */\n      tag_155\n        /* \"contracts/access/AccessControl.sol\":2505:2521  _checkRole(role) */\n      jump\t// in\n    tag_248:\n        /* \"contracts/Arcade.sol\":9508:9525  gameData[game_id] */\n      0x00\n      dup4\n      dup2\n      mstore\n        /* \"contracts/Arcade.sol\":9508:9516  gameData */\n      0x02\n        /* \"contracts/Arcade.sol\":9508:9525  gameData[game_id] */\n      0x20\n      mstore\n      0x40\n      swap1\n      keccak256\n        /* \"contracts/Arcade.sol\":9508:9534  gameData[game_id].exchange */\n      sload\n      0xff\n      and\n        /* \"contracts/Arcade.sol\":9504:10389  if (gameData[game_id].exchange == false) {... */\n      tag_250\n      jumpi\n        /* \"contracts/Arcade.sol\":9567:9584  gameData[game_id] */\n      0x00\n      dup4\n      dup2\n      mstore\n        /* \"contracts/Arcade.sol\":9567:9575  gameData */\n      0x02\n        /* \"contracts/Arcade.sol\":9567:9584  gameData[game_id] */\n      0x20\n      swap1\n      dup2\n      mstore\n      0x40\n      dup1\n      dup4\n      keccak256\n      sub(shl(0xa0, 0x01), 0x01)\n        /* \"contracts/Arcade.sol\":9567:9597  gameData[game_id].paid[winner] */\n      dup7\n      and\n      dup5\n      mstore\n        /* \"contracts/Arcade.sol\":9567:9589  gameData[game_id].paid */\n      0x08\n      add\n        /* \"contracts/Arcade.sol\":9567:9597  gameData[game_id].paid[winner] */\n      swap1\n      swap2\n      mstore\n      swap1\n      keccak256\n      sload\n        /* \"contracts/Arcade.sol\":9601:9602  1 */\n      0x01\n        /* \"contracts/Arcade.sol\":9567:9602  gameData[game_id].paid[winner] == 1 */\n      eq\n        /* \"contracts/Arcade.sol\":9559:9655  require(gameData[game_id].paid[winner] == 1, \"Trophy King Arcade: Not registered for this game\") */\n      tag_251\n      jumpi\n      mload(0x40)\n      shl(0xe5, 0x461bcd)\n      dup2\n      mstore\n        /* \"#utility.yul\":9609:9611   */\n      0x20\n        /* \"contracts/Arcade.sol\":9559:9655  require(gameData[game_id].paid[winner] == 1, \"Trophy King Arcade: Not registered for this game\") */\n      0x04\n      dup3\n      add\n        /* \"#utility.yul\":9591:9612   */\n      mstore\n        /* \"#utility.yul\":9648:9650   */\n      0x30\n        /* \"#utility.yul\":9628:9646   */\n      0x24\n      dup3\n      add\n        /* \"#utility.yul\":9621:9651   */\n      mstore\n        /* \"#utility.yul\":9687:9721   */\n      0x54726f706879204b696e67204172636164653a204e6f74207265676973746572\n        /* \"#utility.yul\":9667:9685   */\n      0x44\n      dup3\n      add\n        /* \"#utility.yul\":9660:9722   */\n      mstore\n      shl(0x80, 0x656420666f7220746869732067616d65)\n        /* \"#utility.yul\":9738:9756   */\n      0x64\n      dup3\n      add\n        /* \"#utility.yul\":9731:9777   */\n      mstore\n        /* \"#utility.yul\":9794:9813   */\n      0x84\n      add\n        /* \"contracts/Arcade.sol\":9559:9655  require(gameData[game_id].paid[winner] == 1, \"Trophy King Arcade: Not registered for this game\") */\n      tag_192\n        /* \"#utility.yul\":9581:9819   */\n      jump\n        /* \"contracts/Arcade.sol\":9559:9655  require(gameData[game_id].paid[winner] == 1, \"Trophy King Arcade: Not registered for this game\") */\n    tag_251:\n        /* \"contracts/Arcade.sol\":9822:9826  base */\n      0x05\n      dup1\n      sload\n        /* \"contracts/Arcade.sol\":9796:9810  fee_percentage */\n      sload(0x04)\n        /* \"contracts/Arcade.sol\":9670:9688  uint256 arcade_fee */\n      0x00\n        /* \"contracts/Arcade.sol\":9745:9762  gameData[game_id] */\n      dup7\n      dup2\n      mstore\n        /* \"contracts/Arcade.sol\":9745:9753  gameData */\n      0x02\n        /* \"contracts/Arcade.sol\":9745:9762  gameData[game_id] */\n      0x20\n      swap1\n      dup2\n      mstore\n      0x40\n      dup1\n      dup4\n      keccak256\n        /* \"contracts/Arcade.sol\":9745:9775  gameData[game_id].arcade_token */\n      swap1\n      swap6\n      add\n      sload\n      sub(shl(0xa0, 0x01), 0x01)\n      and\n        /* \"contracts/Arcade.sol\":9723:9777  acceptedArcadeTokens[(gameData[game_id].arcade_token)] */\n      dup3\n      mstore\n        /* \"contracts/Arcade.sol\":9723:9743  acceptedArcadeTokens */\n      0x01\n        /* \"contracts/Arcade.sol\":9723:9777  acceptedArcadeTokens[(gameData[game_id].arcade_token)] */\n      swap1\n      dup2\n      swap1\n      mstore\n      swap4\n      dup2\n      keccak256\n        /* \"contracts/Arcade.sol\":9723:9793  acceptedArcadeTokens[(gameData[game_id].arcade_token)].redemption_rate */\n      swap1\n      swap4\n      add\n      sload\n        /* \"contracts/Arcade.sol\":9822:9826  base */\n      dup3\n      swap2\n        /* \"contracts/Arcade.sol\":9723:9810  acceptedArcadeTokens[(gameData[game_id].arcade_token)].redemption_rate + fee_percentage */\n      tag_254\n      swap2\n      tag_255\n      jump\t// in\n    tag_254:\n        /* \"contracts/Arcade.sol\":9692:9709  gameData[game_id] */\n      0x00\n      dup8\n      dup2\n      mstore\n        /* \"contracts/Arcade.sol\":9692:9700  gameData */\n      0x02\n        /* \"contracts/Arcade.sol\":9692:9709  gameData[game_id] */\n      0x20\n      mstore\n      0x40\n      swap1\n      keccak256\n        /* \"contracts/Arcade.sol\":9692:9719  gameData[game_id].total_fee */\n      0x06\n      add\n      sload\n        /* \"contracts/Arcade.sol\":9692:9811  gameData[game_id].total_fee * (acceptedArcadeTokens[(gameData[game_id].arcade_token)].redemption_rate + fee_percentage) */\n      tag_256\n      swap2\n      swap1\n      tag_257\n      jump\t// in\n    tag_256:\n        /* \"contracts/Arcade.sol\":9691:9819  (gameData[game_id].total_fee * (acceptedArcadeTokens[(gameData[game_id].arcade_token)].redemption_rate + fee_percentage)) / base */\n      tag_258\n      swap2\n      swap1\n      tag_259\n      jump\t// in\n    tag_258:\n        /* \"contracts/Arcade.sol\":9691:9826  (gameData[game_id].total_fee * (acceptedArcadeTokens[(gameData[game_id].arcade_token)].redemption_rate + fee_percentage)) / base / base */\n      tag_260\n      swap2\n      swap1\n      tag_259\n      jump\t// in\n    tag_260:\n        /* \"contracts/Arcade.sol\":9840:9854  uint256 payout */\n      0x00\n        /* \"contracts/Arcade.sol\":9857:9874  gameData[game_id] */\n      dup6\n      dup2\n      mstore\n        /* \"contracts/Arcade.sol\":9857:9865  gameData */\n      0x02\n        /* \"contracts/Arcade.sol\":9857:9874  gameData[game_id] */\n      0x20\n      mstore\n      0x40\n      dup2\n      keccak256\n        /* \"contracts/Arcade.sol\":9857:9884  gameData[game_id].total_fee */\n      0x06\n      add\n      sload\n        /* \"contracts/Arcade.sol\":9670:9826  uint256 arcade_fee = (gameData[game_id].total_fee * (acceptedArcadeTokens[(gameData[game_id].arcade_token)].redemption_rate + fee_percentage)) / base / base */\n      swap2\n      swap3\n      pop\n        /* \"contracts/Arcade.sol\":9840:9854  uint256 payout */\n      swap1\n        /* \"contracts/Arcade.sol\":9857:9900  gameData[game_id].total_fee.sub(arcade_fee) */\n      tag_261\n      swap1\n        /* \"contracts/Arcade.sol\":9670:9826  uint256 arcade_fee = (gameData[game_id].total_fee * (acceptedArcadeTokens[(gameData[game_id].arcade_token)].redemption_rate + fee_percentage)) / base / base */\n      dup4\n        /* \"contracts/Arcade.sol\":9857:9888  gameData[game_id].total_fee.sub */\n      tag_262\n        /* \"contracts/Arcade.sol\":9857:9900  gameData[game_id].total_fee.sub(arcade_fee) */\n      jump\t// in\n    tag_261:\n        /* \"contracts/Arcade.sol\":9914:9938  uint256 contract_balance */\n      0x00\n        /* \"contracts/Arcade.sol\":9963:9980  gameData[game_id] */\n      dup7\n      dup2\n      mstore\n        /* \"contracts/Arcade.sol\":9963:9971  gameData */\n      0x02\n        /* \"contracts/Arcade.sol\":9963:9980  gameData[game_id] */\n      0x20\n      swap1\n      dup2\n      mstore\n      0x40\n      dup1\n      dup4\n      keccak256\n        /* \"contracts/Arcade.sol\":9963:9993  gameData[game_id].arcade_token */\n      0x05\n      add\n      sload\n      sub(shl(0xa0, 0x01), 0x01)\n      swap1\n      dup2\n      and\n        /* \"contracts/Arcade.sol\":9941:9995  acceptedArcadeTokens[(gameData[game_id].arcade_token)] */\n      dup5\n      mstore\n        /* \"contracts/Arcade.sol\":9941:9961  acceptedArcadeTokens */\n      0x01\n        /* \"contracts/Arcade.sol\":9941:9995  acceptedArcadeTokens[(gameData[game_id].arcade_token)] */\n      swap1\n      swap3\n      mstore\n      dup1\n      dup4\n      keccak256\n        /* \"contracts/Arcade.sol\":9941:10008  acceptedArcadeTokens[(gameData[game_id].arcade_token)].native_token */\n      sload\n        /* \"contracts/Arcade.sol\":9941:10033  acceptedArcadeTokens[(gameData[game_id].arcade_token)].native_token.balanceOf(address(this)) */\n      swap1\n      mload\n      shl(0xe0, 0x70a08231)\n      dup2\n      mstore\n        /* \"contracts/Arcade.sol\":10027:10031  this */\n      address\n        /* \"contracts/Arcade.sol\":9941:10033  acceptedArcadeTokens[(gameData[game_id].arcade_token)].native_token.balanceOf(address(this)) */\n      0x04\n      dup3\n      add\n        /* \"#utility.yul\":3962:4013   */\n      mstore\n        /* \"contracts/Arcade.sol\":9840:9900  uint256 payout = gameData[game_id].total_fee.sub(arcade_fee) */\n      swap4\n      swap5\n      pop\n        /* \"contracts/Arcade.sol\":9914:9938  uint256 contract_balance */\n      swap2\n      swap3\n        /* \"contracts/Arcade.sol\":9941:10008  acceptedArcadeTokens[(gameData[game_id].arcade_token)].native_token */\n      swap2\n      and\n      swap1\n        /* \"contracts/Arcade.sol\":9941:10018  acceptedArcadeTokens[(gameData[game_id].arcade_token)].native_token.balanceOf */\n      0x70a08231\n      swap1\n        /* \"#utility.yul\":3935:3953   */\n      0x24\n      add\n        /* \"contracts/Arcade.sol\":9941:10033  acceptedArcadeTokens[(gameData[game_id].arcade_token)].native_token.balanceOf(address(this)) */\n      0x20\n      mload(0x40)\n      dup1\n      dup4\n      sub\n      dup2\n      dup7\n      dup1\n      extcodesize\n      iszero\n      dup1\n      iszero\n      tag_264\n      jumpi\n      0x00\n      dup1\n      revert\n    tag_264:\n      pop\n      gas\n      staticcall\n      iszero\n      dup1\n      iszero\n      tag_266\n      jumpi\n      returndatasize\n      0x00\n      dup1\n      returndatacopy\n      revert(0x00, returndatasize)\n    tag_266:\n      pop\n      pop\n      pop\n      pop\n      mload(0x40)\n      returndatasize\n      not(0x1f)\n      0x1f\n      dup3\n      add\n      and\n      dup3\n      add\n      dup1\n      0x40\n      mstore\n      pop\n      dup2\n      add\n      swap1\n      tag_267\n      swap2\n      swap1\n      tag_182\n      jump\t// in\n    tag_267:\n        /* \"contracts/Arcade.sol\":9914:10033  uint256 contract_balance = acceptedArcadeTokens[(gameData[game_id].arcade_token)].native_token.balanceOf(address(this)) */\n      swap1\n      pop\n        /* \"contracts/Arcade.sol\":10071:10077  payout */\n      dup2\n        /* \"contracts/Arcade.sol\":10052:10068  contract_balance */\n      dup2\n        /* \"contracts/Arcade.sol\":10052:10077  contract_balance < payout */\n      lt\n        /* \"contracts/Arcade.sol\":10048:10137  if (contract_balance < payout) {... */\n      iszero\n      tag_268\n      jumpi\n        /* \"contracts/Arcade.sol\":10106:10122  contract_balance */\n      dup1\n        /* \"contracts/Arcade.sol\":10097:10122  payout = contract_balance */\n      swap2\n      pop\n        /* \"contracts/Arcade.sol\":10048:10137  if (contract_balance < payout) {... */\n    tag_268:\n        /* \"contracts/Arcade.sol\":10159:10213  acceptedArcadeTokens[(gameData[game_id].arcade_token)] */\n      0x00\n        /* \"contracts/Arcade.sol\":10181:10198  gameData[game_id] */\n      dup7\n      dup2\n      mstore\n        /* \"contracts/Arcade.sol\":10181:10189  gameData */\n      0x02\n        /* \"contracts/Arcade.sol\":10181:10198  gameData[game_id] */\n      0x20\n      swap1\n      dup2\n      mstore\n      0x40\n      dup1\n      dup4\n      keccak256\n        /* \"contracts/Arcade.sol\":10181:10211  gameData[game_id].arcade_token */\n      0x05\n      add\n      sload\n      sub(shl(0xa0, 0x01), 0x01)\n      swap1\n      dup2\n      and\n        /* \"contracts/Arcade.sol\":10159:10213  acceptedArcadeTokens[(gameData[game_id].arcade_token)] */\n      dup5\n      mstore\n        /* \"contracts/Arcade.sol\":10159:10179  acceptedArcadeTokens */\n      0x01\n        /* \"contracts/Arcade.sol\":10159:10213  acceptedArcadeTokens[(gameData[game_id].arcade_token)] */\n      swap1\n      swap3\n      mstore\n      swap2\n      dup3\n      swap1\n      keccak256\n        /* \"contracts/Arcade.sol\":10159:10226  acceptedArcadeTokens[(gameData[game_id].arcade_token)].native_token */\n      sload\n        /* \"contracts/Arcade.sol\":10159:10251  acceptedArcadeTokens[(gameData[game_id].arcade_token)].native_token.transfer(winner, payout) */\n      swap2\n      mload\n      shl(0xe0, 0xa9059cbb)\n      dup2\n      mstore\n        /* \"#utility.yul\":4681:4713   */\n      dup8\n      dup3\n      and\n        /* \"contracts/Arcade.sol\":10159:10251  acceptedArcadeTokens[(gameData[game_id].arcade_token)].native_token.transfer(winner, payout) */\n      0x04\n      dup3\n      add\n        /* \"#utility.yul\":4663:4714   */\n      mstore\n        /* \"#utility.yul\":4730:4748   */\n      0x24\n      dup2\n      add\n        /* \"#utility.yul\":4723:4757   */\n      dup6\n      swap1\n      mstore\n        /* \"contracts/Arcade.sol\":10159:10226  acceptedArcadeTokens[(gameData[game_id].arcade_token)].native_token */\n      swap2\n      and\n      swap1\n        /* \"contracts/Arcade.sol\":10159:10235  acceptedArcadeTokens[(gameData[game_id].arcade_token)].native_token.transfer */\n      0xa9059cbb\n      swap1\n        /* \"#utility.yul\":4636:4654   */\n      0x44\n      add\n        /* \"contracts/Arcade.sol\":10159:10251  acceptedArcadeTokens[(gameData[game_id].arcade_token)].native_token.transfer(winner, payout) */\n      0x20\n      mload(0x40)\n      dup1\n      dup4\n      sub\n      dup2\n      0x00\n      dup8\n      dup1\n      extcodesize\n      iszero\n      dup1\n      iszero\n      tag_270\n      jumpi\n      0x00\n      dup1\n      revert\n    tag_270:\n      pop\n      gas\n      call\n      iszero\n      dup1\n      iszero\n      tag_272\n      jumpi\n      returndatasize\n      0x00\n      dup1\n      returndatacopy\n      revert(0x00, returndatasize)\n    tag_272:\n      pop\n      pop\n      pop\n      pop\n      mload(0x40)\n      returndatasize\n      not(0x1f)\n      0x1f\n      dup3\n      add\n      and\n      dup3\n      add\n      dup1\n      0x40\n      mstore\n      pop\n      dup2\n      add\n      swap1\n      tag_273\n      swap2\n      swap1\n      tag_173\n      jump\t// in\n    tag_273:\n        /* \"contracts/Arcade.sol\":10151:10290  require(acceptedArcadeTokens[(gameData[game_id].arcade_token)].native_token.transfer(winner, payout), \"Trophy King Arcade: Payout failed.\") */\n      tag_274\n      jumpi\n      mload(0x40)\n      shl(0xe5, 0x461bcd)\n      dup2\n      mstore\n        /* \"#utility.yul\":9206:9208   */\n      0x20\n        /* \"contracts/Arcade.sol\":10151:10290  require(acceptedArcadeTokens[(gameData[game_id].arcade_token)].native_token.transfer(winner, payout), \"Trophy King Arcade: Payout failed.\") */\n      0x04\n      dup3\n      add\n        /* \"#utility.yul\":9188:9209   */\n      mstore\n        /* \"#utility.yul\":9245:9247   */\n      0x22\n        /* \"#utility.yul\":9225:9243   */\n      0x24\n      dup3\n      add\n        /* \"#utility.yul\":9218:9248   */\n      mstore\n        /* \"#utility.yul\":9284:9318   */\n      0x54726f706879204b696e67204172636164653a205061796f7574206661696c65\n        /* \"#utility.yul\":9264:9282   */\n      0x44\n      dup3\n      add\n        /* \"#utility.yul\":9257:9319   */\n      mstore\n      shl(0xf1, 0x3217)\n        /* \"#utility.yul\":9335:9353   */\n      0x64\n      dup3\n      add\n        /* \"#utility.yul\":9328:9360   */\n      mstore\n        /* \"#utility.yul\":9377:9396   */\n      0x84\n      add\n        /* \"contracts/Arcade.sol\":10151:10290  require(acceptedArcadeTokens[(gameData[game_id].arcade_token)].native_token.transfer(winner, payout), \"Trophy King Arcade: Payout failed.\") */\n      tag_192\n        /* \"#utility.yul\":9178:9402   */\n      jump\n        /* \"contracts/Arcade.sol\":10151:10290  require(acceptedArcadeTokens[(gameData[game_id].arcade_token)].native_token.transfer(winner, payout), \"Trophy King Arcade: Payout failed.\") */\n    tag_274:\n        /* \"contracts/Arcade.sol\":10314:10331  gameData[game_id] */\n      0x00\n      dup7\n      dup2\n      mstore\n        /* \"contracts/Arcade.sol\":10314:10322  gameData */\n      0x02\n        /* \"contracts/Arcade.sol\":10314:10331  gameData[game_id] */\n      0x20\n      swap1\n      dup2\n      mstore\n      0x40\n      dup1\n      dup4\n      keccak256\n      sub(shl(0xa0, 0x01), 0x01)\n        /* \"contracts/Arcade.sol\":10314:10343  gameData[game_id].fee[winner] */\n      dup10\n      and\n      dup5\n      mstore\n        /* \"contracts/Arcade.sol\":10314:10335  gameData[game_id].fee */\n      0x07\n      add\n        /* \"contracts/Arcade.sol\":10314:10343  gameData[game_id].fee[winner] */\n      dup3\n      mstore\n      swap2\n      dup3\n      swap1\n      keccak256\n      sload\n        /* \"contracts/Arcade.sol\":10310:10344  Fee(gameData[game_id].fee[winner]) */\n      swap2\n      mload\n        /* \"#utility.yul\":6656:6681   */\n      swap2\n      dup3\n      mstore\n        /* \"contracts/Arcade.sol\":10310:10344  Fee(gameData[game_id].fee[winner]) */\n      0x557809284da7314475b1582804ae28e5f1349efc1fe970ea25d50fce75eb4f43\n      swap2\n        /* \"#utility.yul\":6629:6647   */\n      add\n        /* \"contracts/Arcade.sol\":10310:10344  Fee(gameData[game_id].fee[winner]) */\n      mload(0x40)\n      dup1\n      swap2\n      sub\n      swap1\n      log1\n        /* \"contracts/Arcade.sol\":10364:10378  Payout(payout) */\n      mload(0x40)\n        /* \"#utility.yul\":6656:6681   */\n      dup3\n      dup2\n      mstore\n        /* \"contracts/Arcade.sol\":10364:10378  Payout(payout) */\n      0x22427047e1a674a9aff59700a2c8d00ea96e017ddf9236690bdedf1f21f28d9d\n      swap1\n        /* \"#utility.yul\":6644:6646   */\n      0x20\n        /* \"#utility.yul\":6629:6647   */\n      add\n        /* \"contracts/Arcade.sol\":10364:10378  Payout(payout) */\n      mload(0x40)\n      dup1\n      swap2\n      sub\n      swap1\n      log1\n        /* \"contracts/Arcade.sol\":9504:10389  if (gameData[game_id].exchange == false) {... */\n      pop\n      pop\n      pop\n    tag_250:\n        /* \"contracts/Arcade.sol\":10399:10417  closeGame(game_id) */\n      tag_191\n        /* \"contracts/Arcade.sol\":10409:10416  game_id */\n      dup4\n        /* \"contracts/Arcade.sol\":10399:10408  closeGame */\n      tag_76\n        /* \"contracts/Arcade.sol\":10399:10417  closeGame(game_id) */\n      jump\t// in\n        /* \"contracts/Arcade.sol\":6908:7052  function leaveMatch(uint256 game_id) public {... */\n    tag_115:\n        /* \"contracts/Arcade.sol\":7002:7003  0 */\n      0x00\n        /* \"contracts/Arcade.sol\":6962:6979  gameData[game_id] */\n      dup2\n      dup2\n      mstore\n        /* \"contracts/Arcade.sol\":6962:6970  gameData */\n      0x02\n        /* \"contracts/Arcade.sol\":6962:6979  gameData[game_id] */\n      0x20\n      swap1\n      dup2\n      mstore\n      0x40\n      dup1\n      dup4\n      keccak256\n        /* \"contracts/utils/Context.sol\":719:729  msg.sender */\n      caller\n        /* \"contracts/Arcade.sol\":6962:6999  gameData[game_id].seats[_msgSender()] */\n      dup1\n      dup6\n      mstore\n        /* \"contracts/Arcade.sol\":6962:6985  gameData[game_id].seats */\n      0x09\n      swap1\n      swap2\n      add\n        /* \"contracts/Arcade.sol\":6962:6999  gameData[game_id].seats[_msgSender()] */\n      dup4\n      mstore\n      dup2\n      dup5\n      keccak256\n        /* \"contracts/Arcade.sol\":6962:7003  gameData[game_id].seats[_msgSender()] = 0 */\n      swap4\n      swap1\n      swap4\n      sstore\n        /* \"contracts/Arcade.sol\":7019:7045  RemovePlayer(_msgSender()) */\n      dup1\n      mload\n        /* \"#utility.yul\":3962:4013   */\n      swap3\n      dup4\n      mstore\n        /* \"contracts/Arcade.sol\":7019:7045  RemovePlayer(_msgSender()) */\n      mload\n      0x34aeefd5030be05fe70eebc8866d82f935a308eb9f334cba88f5e3bea1a0cae8\n      swap3\n      dup2\n      swap1\n      sub\n      swap1\n      swap2\n      add\n      swap1\n      log1\n        /* \"contracts/Arcade.sol\":6908:7052  function leaveMatch(uint256 game_id) public {... */\n      pop\n      jump\t// out\n        /* \"contracts/Arcade.sol\":7511:7917  function placePlayer(uint256 game_id, address player) public onlyRole(GAME_MASTER) returns (bool) {... */\n    tag_126:\n        /* \"contracts/Arcade.sol\":7603:7607  bool */\n      0x00\n      0x00\n      dup1\n      mload\n      0x20\n      data_806db7640bcc104a4b7b53ebc0c09b63eefd92fe89197bc684d91aa66a17455c\n      dup4\n      codecopy\n      dup2\n      mload\n      swap2\n      mstore\n        /* \"contracts/access/AccessControl.sol\":2505:2521  _checkRole(role) */\n      tag_286\n        /* \"contracts/access/AccessControl.sol\":2516:2520  role */\n      dup2\n        /* \"contracts/access/AccessControl.sol\":2505:2515  _checkRole */\n      tag_155\n        /* \"contracts/access/AccessControl.sol\":2505:2521  _checkRole(role) */\n      jump\t// in\n    tag_286:\n        /* \"contracts/Arcade.sol\":7623:7640  gameData[game_id] */\n      0x00\n      dup5\n      dup2\n      mstore\n        /* \"contracts/Arcade.sol\":7623:7631  gameData */\n      0x02\n        /* \"contracts/Arcade.sol\":7623:7640  gameData[game_id] */\n      0x20\n      swap1\n      dup2\n      mstore\n      0x40\n      dup1\n      dup4\n      keccak256\n      sub(shl(0xa0, 0x01), 0x01)\n        /* \"contracts/Arcade.sol\":7623:7654  gameData[game_id].seats[player] */\n      dup8\n      and\n      dup5\n      mstore\n        /* \"contracts/Arcade.sol\":7623:7646  gameData[game_id].seats */\n      0x09\n      add\n        /* \"contracts/Arcade.sol\":7623:7654  gameData[game_id].seats[player] */\n      swap1\n      swap2\n      mstore\n      swap1\n      keccak256\n      sload\n        /* \"contracts/Arcade.sol\":7658:7659  1 */\n      0x01\n        /* \"contracts/Arcade.sol\":7623:7659  gameData[game_id].seats[player] != 1 */\n      eq\n        /* \"contracts/Arcade.sol\":7619:7911  if (gameData[game_id].seats[player] != 1) {... */\n      tag_288\n      jumpi\n        /* \"contracts/Arcade.sol\":7675:7692  gameData[game_id] */\n      0x00\n      dup5\n      dup2\n      mstore\n        /* \"contracts/Arcade.sol\":7675:7683  gameData */\n      0x02\n        /* \"contracts/Arcade.sol\":7675:7692  gameData[game_id] */\n      0x20\n      swap1\n      dup2\n      mstore\n      0x40\n      dup1\n      dup4\n      keccak256\n      sub(shl(0xa0, 0x01), 0x01)\n        /* \"contracts/Arcade.sol\":7675:7706  gameData[game_id].seats[player] */\n      dup8\n      and\n      dup1\n      dup6\n      mstore\n        /* \"contracts/Arcade.sol\":7675:7698  gameData[game_id].seats */\n      0x09\n      swap1\n      swap2\n      add\n        /* \"contracts/Arcade.sol\":7675:7706  gameData[game_id].seats[player] */\n      dup4\n      mstore\n      swap3\n      dup2\n      swap1\n      keccak256\n        /* \"contracts/Arcade.sol\":7709:7710  1 */\n      0x01\n        /* \"contracts/Arcade.sol\":7675:7710  gameData[game_id].seats[player] = 1 */\n      swap1\n      dup2\n      swap1\n      sstore\n        /* \"contracts/Arcade.sol\":7742:7776  PlacePlayer(player, game_id, true) */\n      dup2\n      mload\n        /* \"#utility.yul\":5243:5294   */\n      swap4\n      dup5\n      mstore\n        /* \"#utility.yul\":5310:5328   */\n      swap2\n      dup4\n      add\n        /* \"#utility.yul\":5303:5337   */\n      dup8\n      swap1\n      mstore\n        /* \"#utility.yul\":5353:5371   */\n      dup3\n      add\n        /* \"#utility.yul\":5346:5396   */\n      mstore\n        /* \"contracts/Arcade.sol\":7742:7776  PlacePlayer(player, game_id, true) */\n      0x5621c8071929c7265ce41857be957499346fcbd5c32e82130f48e0907449d1e6\n      swap1\n        /* \"#utility.yul\":5231:5233   */\n      0x60\n        /* \"#utility.yul\":5216:5234   */\n      add\n        /* \"contracts/Arcade.sol\":7742:7776  PlacePlayer(player, game_id, true) */\n      mload(0x40)\n      dup1\n      swap2\n      sub\n      swap1\n      log1\n        /* \"contracts/Arcade.sol\":7798:7802  true */\n      0x01\n        /* \"contracts/Arcade.sol\":7791:7802  return true */\n      swap2\n      pop\n      jump(tag_291)\n        /* \"contracts/Arcade.sol\":7619:7911  if (gameData[game_id].seats[player] != 1) {... */\n    tag_288:\n        /* \"contracts/Arcade.sol\":7838:7873  PlacePlayer(player, game_id, false) */\n      0x40\n      dup1\n      mload\n      sub(shl(0xa0, 0x01), 0x01)\n        /* \"#utility.yul\":5261:5293   */\n      dup6\n      and\n        /* \"#utility.yul\":5243:5294   */\n      dup2\n      mstore\n        /* \"#utility.yul\":5325:5327   */\n      0x20\n        /* \"#utility.yul\":5310:5328   */\n      dup2\n      add\n        /* \"#utility.yul\":5303:5337   */\n      dup7\n      swap1\n      mstore\n      0x00\n        /* \"#utility.yul\":5353:5371   */\n      dup2\n      dup4\n      add\n        /* \"#utility.yul\":5346:5396   */\n      mstore\n        /* \"contracts/Arcade.sol\":7838:7873  PlacePlayer(player, game_id, false) */\n      swap1\n      mload\n      0x5621c8071929c7265ce41857be957499346fcbd5c32e82130f48e0907449d1e6\n      swap2\n      dup2\n      swap1\n      sub\n        /* \"#utility.yul\":5231:5233   */\n      0x60\n        /* \"contracts/Arcade.sol\":7838:7873  PlacePlayer(player, game_id, false) */\n      add\n      swap1\n      log1\n        /* \"contracts/Arcade.sol\":7895:7900  false */\n      0x00\n        /* \"contracts/Arcade.sol\":7888:7900  return false */\n      swap2\n      pop\n        /* \"contracts/Arcade.sol\":7619:7911  if (gameData[game_id].seats[player] != 1) {... */\n    tag_291:\n        /* \"contracts/Arcade.sol\":7511:7917  function placePlayer(uint256 game_id, address player) public onlyRole(GAME_MASTER) returns (bool) {... */\n      pop\n      swap3\n      swap2\n      pop\n      pop\n      jump\t// out\n        /* \"contracts/access/AccessControl.sol\":5149:5296  function revokeRole(bytes32 role, address account) public virtual override onlyRole(getRoleAdmin(role)) {... */\n    tag_141:\n        /* \"contracts/access/AccessControl.sol\":4465:4472  bytes32 */\n      0x00\n        /* \"contracts/access/AccessControl.sol\":4491:4503  _roles[role] */\n      dup3\n      dup2\n      mstore\n      0x20\n      dup2\n      swap1\n      mstore\n      0x40\n      swap1\n      keccak256\n        /* \"contracts/access/AccessControl.sol\":4491:4513  _roles[role].adminRole */\n      0x01\n      add\n      sload\n        /* \"contracts/access/AccessControl.sol\":2505:2521  _checkRole(role) */\n      tag_295\n        /* \"contracts/access/AccessControl.sol\":2516:2520  role */\n      dup2\n        /* \"contracts/access/AccessControl.sol\":2505:2515  _checkRole */\n      tag_155\n        /* \"contracts/access/AccessControl.sol\":2505:2521  _checkRole(role) */\n      jump\t// in\n    tag_295:\n        /* \"contracts/access/AccessControl.sol\":5263:5289  _revokeRole(role, account) */\n      tag_191\n        /* \"contracts/access/AccessControl.sol\":5275:5279  role */\n      dup4\n        /* \"contracts/access/AccessControl.sol\":5281:5288  account */\n      dup4\n        /* \"contracts/access/AccessControl.sol\":5263:5274  _revokeRole */\n      tag_222\n        /* \"contracts/access/AccessControl.sol\":5263:5289  _revokeRole(role, account) */\n      jump\t// in\n        /* \"contracts/Arcade.sol\":2512:3357  function register(uint256 game_id) public {... */\n    tag_148:\n        /* \"contracts/Arcade.sol\":2572:2589  gameData[game_id] */\n      0x00\n      dup2\n      dup2\n      mstore\n        /* \"contracts/Arcade.sol\":2572:2580  gameData */\n      0x02\n        /* \"contracts/Arcade.sol\":2572:2589  gameData[game_id] */\n      0x20\n      swap1\n      dup2\n      mstore\n      0x40\n      dup1\n      dup4\n      keccak256\n        /* \"contracts/Arcade.sol\":2596:2606  msg.sender */\n      caller\n        /* \"contracts/Arcade.sol\":2572:2607  gameData[game_id].seats[msg.sender] */\n      dup5\n      mstore\n        /* \"contracts/Arcade.sol\":2572:2595  gameData[game_id].seats */\n      0x09\n      add\n        /* \"contracts/Arcade.sol\":2572:2607  gameData[game_id].seats[msg.sender] */\n      swap1\n      swap2\n      mstore\n      swap1\n      keccak256\n      sload\n        /* \"contracts/Arcade.sol\":2611:2612  1 */\n      0x01\n        /* \"contracts/Arcade.sol\":2572:2612  gameData[game_id].seats[msg.sender] == 1 */\n      eq\n        /* \"contracts/Arcade.sol\":2564:2650  require(gameData[game_id].seats[msg.sender] == 1, \"Trophy King Arcade: Unauthorized.\") */\n      tag_300\n      jumpi\n      mload(0x40)\n      shl(0xe5, 0x461bcd)\n      dup2\n      mstore\n        /* \"#utility.yul\":11252:11254   */\n      0x20\n        /* \"contracts/Arcade.sol\":2564:2650  require(gameData[game_id].seats[msg.sender] == 1, \"Trophy King Arcade: Unauthorized.\") */\n      0x04\n      dup3\n      add\n        /* \"#utility.yul\":11234:11255   */\n      mstore\n        /* \"#utility.yul\":11291:11293   */\n      0x21\n        /* \"#utility.yul\":11271:11289   */\n      0x24\n      dup3\n      add\n        /* \"#utility.yul\":11264:11294   */\n      mstore\n        /* \"#utility.yul\":11330:11364   */\n      0x54726f706879204b696e67204172636164653a20556e617574686f72697a6564\n        /* \"#utility.yul\":11310:11328   */\n      0x44\n      dup3\n      add\n        /* \"#utility.yul\":11303:11365   */\n      mstore\n      shl(0xf9, 0x17)\n        /* \"#utility.yul\":11381:11399   */\n      0x64\n      dup3\n      add\n        /* \"#utility.yul\":11374:11405   */\n      mstore\n        /* \"#utility.yul\":11422:11441   */\n      0x84\n      add\n        /* \"contracts/Arcade.sol\":2564:2650  require(gameData[game_id].seats[msg.sender] == 1, \"Trophy King Arcade: Unauthorized.\") */\n      tag_192\n        /* \"#utility.yul\":11224:11447   */\n      jump\n        /* \"contracts/Arcade.sol\":2564:2650  require(gameData[game_id].seats[msg.sender] == 1, \"Trophy King Arcade: Unauthorized.\") */\n    tag_300:\n        /* \"contracts/Arcade.sol\":2668:2685  gameData[game_id] */\n      0x00\n      dup2\n      dup2\n      mstore\n        /* \"contracts/Arcade.sol\":2668:2676  gameData */\n      0x02\n        /* \"contracts/Arcade.sol\":2668:2685  gameData[game_id] */\n      0x20\n      mstore\n      0x40\n      swap1\n      keccak256\n        /* \"contracts/Arcade.sol\":2668:2692  gameData[game_id].status */\n      0x04\n      add\n      sload\n        /* \"contracts/Arcade.sol\":2696:2697  1 */\n      0x01\n        /* \"contracts/Arcade.sol\":2668:2697  gameData[game_id].status == 1 */\n      eq\n        /* \"contracts/Arcade.sol\":2660:2734  require(gameData[game_id].status == 1, \"Trophy King Arcade: Game closed.\") */\n      tag_303\n      jumpi\n      mload(0x40)\n      shl(0xe5, 0x461bcd)\n      dup2\n      mstore\n        /* \"#utility.yul\":8018:8020   */\n      0x20\n        /* \"contracts/Arcade.sol\":2660:2734  require(gameData[game_id].status == 1, \"Trophy King Arcade: Game closed.\") */\n      0x04\n      dup3\n      add\n        /* \"#utility.yul\":8000:8021   */\n      dup2\n      swap1\n      mstore\n        /* \"#utility.yul\":8037:8055   */\n      0x24\n      dup3\n      add\n        /* \"#utility.yul\":8030:8060   */\n      mstore\n        /* \"#utility.yul\":8096:8130   */\n      0x54726f706879204b696e67204172636164653a2047616d6520636c6f7365642e\n        /* \"#utility.yul\":8076:8094   */\n      0x44\n      dup3\n      add\n        /* \"#utility.yul\":8069:8131   */\n      mstore\n        /* \"#utility.yul\":8148:8166   */\n      0x64\n      add\n        /* \"contracts/Arcade.sol\":2660:2734  require(gameData[game_id].status == 1, \"Trophy King Arcade: Game closed.\") */\n      tag_192\n        /* \"#utility.yul\":7990:8172   */\n      jump\n        /* \"contracts/Arcade.sol\":2660:2734  require(gameData[game_id].status == 1, \"Trophy King Arcade: Game closed.\") */\n    tag_303:\n        /* \"contracts/Arcade.sol\":2785:2802  gameData[game_id] */\n      0x00\n      dup2\n      dup2\n      mstore\n        /* \"contracts/Arcade.sol\":2785:2793  gameData */\n      0x02\n        /* \"contracts/Arcade.sol\":2785:2802  gameData[game_id] */\n      0x20\n      dup2\n      swap1\n      mstore\n      0x40\n      swap1\n      swap2\n      keccak256\n        /* \"contracts/Arcade.sol\":2785:2815  gameData[game_id].player_count */\n      0x01\n      dup2\n      add\n      sload\n        /* \"contracts/Arcade.sol\":2752:2782  gameData[game_id].player_limit */\n      swap2\n      add\n      sload\n        /* \"contracts/Arcade.sol\":2752:2815  gameData[game_id].player_limit > gameData[game_id].player_count */\n      gt\n        /* \"contracts/Arcade.sol\":2744:2862  require(gameData[game_id].player_limit > gameData[game_id].player_count, \"Trophy King Arcade: Game full.  Try again.\") */\n      tag_306\n      jumpi\n      mload(0x40)\n      shl(0xe5, 0x461bcd)\n      dup2\n      mstore\n        /* \"#utility.yul\":10026:10028   */\n      0x20\n        /* \"contracts/Arcade.sol\":2744:2862  require(gameData[game_id].player_limit > gameData[game_id].player_count, \"Trophy King Arcade: Game full.  Try again.\") */\n      0x04\n      dup3\n      add\n        /* \"#utility.yul\":10008:10029   */\n      mstore\n        /* \"#utility.yul\":10065:10067   */\n      0x2a\n        /* \"#utility.yul\":10045:10063   */\n      0x24\n      dup3\n      add\n        /* \"#utility.yul\":10038:10068   */\n      mstore\n        /* \"#utility.yul\":10104:10138   */\n      0x54726f706879204b696e67204172636164653a2047616d652066756c6c2e2020\n        /* \"#utility.yul\":10084:10102   */\n      0x44\n      dup3\n      add\n        /* \"#utility.yul\":10077:10139   */\n      mstore\n      shl(0xb1, 0x2a393c9030b3b0b4b717)\n        /* \"#utility.yul\":10155:10173   */\n      0x64\n      dup3\n      add\n        /* \"#utility.yul\":10148:10188   */\n      mstore\n        /* \"#utility.yul\":10205:10224   */\n      0x84\n      add\n        /* \"contracts/Arcade.sol\":2744:2862  require(gameData[game_id].player_limit > gameData[game_id].player_count, \"Trophy King Arcade: Game full.  Try again.\") */\n      tag_192\n        /* \"#utility.yul\":9998:10230   */\n      jump\n        /* \"contracts/Arcade.sol\":2744:2862  require(gameData[game_id].player_limit > gameData[game_id].player_count, \"Trophy King Arcade: Game full.  Try again.\") */\n    tag_306:\n        /* \"contracts/Arcade.sol\":2880:2897  gameData[game_id] */\n      0x00\n      dup2\n      dup2\n      mstore\n        /* \"contracts/Arcade.sol\":2880:2888  gameData */\n      0x02\n        /* \"contracts/Arcade.sol\":2880:2897  gameData[game_id] */\n      0x20\n      swap1\n      dup2\n      mstore\n      0x40\n      dup1\n      dup4\n      keccak256\n        /* \"contracts/Arcade.sol\":2903:2913  msg.sender */\n      caller\n        /* \"contracts/Arcade.sol\":2880:2914  gameData[game_id].paid[msg.sender] */\n      dup5\n      mstore\n        /* \"contracts/Arcade.sol\":2880:2902  gameData[game_id].paid */\n      0x08\n      add\n        /* \"contracts/Arcade.sol\":2880:2914  gameData[game_id].paid[msg.sender] */\n      swap1\n      swap2\n      mstore\n      swap1\n      keccak256\n      sload\n        /* \"contracts/Arcade.sol\":2880:2919  gameData[game_id].paid[msg.sender] == 0 */\n      iszero\n        /* \"contracts/Arcade.sol\":2872:2963  require(gameData[game_id].paid[msg.sender] == 0, \"Trophy King Arcade: Already registered.\") */\n      tag_309\n      jumpi\n      mload(0x40)\n      shl(0xe5, 0x461bcd)\n      dup2\n      mstore\n        /* \"#utility.yul\":8379:8381   */\n      0x20\n        /* \"contracts/Arcade.sol\":2872:2963  require(gameData[game_id].paid[msg.sender] == 0, \"Trophy King Arcade: Already registered.\") */\n      0x04\n      dup3\n      add\n        /* \"#utility.yul\":8361:8382   */\n      mstore\n        /* \"#utility.yul\":8418:8420   */\n      0x27\n        /* \"#utility.yul\":8398:8416   */\n      0x24\n      dup3\n      add\n        /* \"#utility.yul\":8391:8421   */\n      mstore\n        /* \"#utility.yul\":8457:8491   */\n      0x54726f706879204b696e67204172636164653a20416c72656164792072656769\n        /* \"#utility.yul\":8437:8455   */\n      0x44\n      dup3\n      add\n        /* \"#utility.yul\":8430:8492   */\n      mstore\n      shl(0xc9, 0x39ba32b932b217)\n        /* \"#utility.yul\":8508:8526   */\n      0x64\n      dup3\n      add\n        /* \"#utility.yul\":8501:8538   */\n      mstore\n        /* \"#utility.yul\":8555:8574   */\n      0x84\n      add\n        /* \"contracts/Arcade.sol\":2872:2963  require(gameData[game_id].paid[msg.sender] == 0, \"Trophy King Arcade: Already registered.\") */\n      tag_192\n        /* \"#utility.yul\":8351:8580   */\n      jump\n        /* \"contracts/Arcade.sol\":2872:2963  require(gameData[game_id].paid[msg.sender] == 0, \"Trophy King Arcade: Already registered.\") */\n    tag_309:\n        /* \"contracts/Arcade.sol\":3014:3015  0 */\n      0x00\n        /* \"contracts/Arcade.sol\":2981:2998  gameData[game_id] */\n      dup2\n      dup2\n      mstore\n        /* \"contracts/Arcade.sol\":2981:2989  gameData */\n      0x02\n        /* \"contracts/Arcade.sol\":2981:2998  gameData[game_id] */\n      0x20\n      dup2\n      swap1\n      mstore\n      0x40\n      swap1\n      swap2\n      keccak256\n        /* \"contracts/Arcade.sol\":2981:3011  gameData[game_id].player_limit */\n      add\n      sload\n        /* \"contracts/Arcade.sol\":2973:3055  require(gameData[game_id].player_limit > 0, \"Trophy King Arcade: Game not found.\") */\n      tag_312\n      jumpi\n      mload(0x40)\n      shl(0xe5, 0x461bcd)\n      dup2\n      mstore\n        /* \"#utility.yul\":10437:10439   */\n      0x20\n        /* \"contracts/Arcade.sol\":2973:3055  require(gameData[game_id].player_limit > 0, \"Trophy King Arcade: Game not found.\") */\n      0x04\n      dup3\n      add\n        /* \"#utility.yul\":10419:10440   */\n      mstore\n        /* \"#utility.yul\":10476:10478   */\n      0x23\n        /* \"#utility.yul\":10456:10474   */\n      0x24\n      dup3\n      add\n        /* \"#utility.yul\":10449:10479   */\n      mstore\n        /* \"#utility.yul\":10515:10549   */\n      0x54726f706879204b696e67204172636164653a2047616d65206e6f7420666f75\n        /* \"#utility.yul\":10495:10513   */\n      0x44\n      dup3\n      add\n        /* \"#utility.yul\":10488:10550   */\n      mstore\n      shl(0xe9, 0x373217)\n        /* \"#utility.yul\":10566:10584   */\n      0x64\n      dup3\n      add\n        /* \"#utility.yul\":10559:10592   */\n      mstore\n        /* \"#utility.yul\":10609:10628   */\n      0x84\n      add\n        /* \"contracts/Arcade.sol\":2973:3055  require(gameData[game_id].player_limit > 0, \"Trophy King Arcade: Game not found.\") */\n      tag_192\n        /* \"#utility.yul\":10409:10634   */\n      jump\n        /* \"contracts/Arcade.sol\":2973:3055  require(gameData[game_id].player_limit > 0, \"Trophy King Arcade: Game not found.\") */\n    tag_312:\n        /* \"contracts/Arcade.sol\":3073:3127  acceptedArcadeTokens[(gameData[game_id].arcade_token)] */\n      0x00\n        /* \"contracts/Arcade.sol\":3095:3112  gameData[game_id] */\n      dup2\n      dup2\n      mstore\n        /* \"contracts/Arcade.sol\":3095:3103  gameData */\n      0x02\n        /* \"contracts/Arcade.sol\":3095:3112  gameData[game_id] */\n      0x20\n      swap1\n      dup2\n      mstore\n      0x40\n      dup1\n      dup4\n      keccak256\n        /* \"contracts/Arcade.sol\":3095:3125  gameData[game_id].arcade_token */\n      0x05\n      add\n      sload\n      sub(shl(0xa0, 0x01), 0x01)\n      swap1\n      dup2\n      and\n        /* \"contracts/Arcade.sol\":3073:3127  acceptedArcadeTokens[(gameData[game_id].arcade_token)] */\n      dup5\n      mstore\n        /* \"contracts/Arcade.sol\":3073:3093  acceptedArcadeTokens */\n      0x01\n        /* \"contracts/Arcade.sol\":3073:3127  acceptedArcadeTokens[(gameData[game_id].arcade_token)] */\n      swap1\n      swap3\n      mstore\n      swap1\n      swap2\n      keccak256\n        /* \"contracts/Arcade.sol\":3073:3140  acceptedArcadeTokens[(gameData[game_id].arcade_token)].native_token */\n      sload\n      and\n        /* \"contracts/Arcade.sol\":3073:3153  acceptedArcadeTokens[(gameData[game_id].arcade_token)].native_token.transferFrom */\n      0x23b872dd\n        /* \"contracts/utils/Context.sol\":719:729  msg.sender */\n      caller\n        /* \"contracts/Arcade.sol\":3183:3200  gameData[game_id] */\n      0x00\n      dup5\n      dup2\n      mstore\n        /* \"contracts/Arcade.sol\":3183:3191  gameData */\n      0x02\n        /* \"contracts/Arcade.sol\":3183:3200  gameData[game_id] */\n      0x20\n      mstore\n      0x40\n      swap1\n      dup2\n      swap1\n      keccak256\n        /* \"contracts/Arcade.sol\":3183:3217  gameData[game_id].registration_fee */\n      0x03\n      add\n      sload\n        /* \"contracts/Arcade.sol\":3073:3218  acceptedArcadeTokens[(gameData[game_id].arcade_token)].native_token.transferFrom(_msgSender(), address(this), gameData[game_id].registration_fee) */\n      swap1\n      mload\n      0xe0\n      dup5\n      swap1\n      shl\n      not(sub(shl(0xe0, 0x01), 0x01))\n      and\n      dup2\n      mstore\n      sub(shl(0xa0, 0x01), 0x01)\n        /* \"#utility.yul\":4282:4297   */\n      swap1\n      swap3\n      and\n        /* \"contracts/Arcade.sol\":3073:3218  acceptedArcadeTokens[(gameData[game_id].arcade_token)].native_token.transferFrom(_msgSender(), address(this), gameData[game_id].registration_fee) */\n      0x04\n      dup4\n      add\n        /* \"#utility.yul\":4264:4298   */\n      mstore\n        /* \"contracts/Arcade.sol\":3176:3180  this */\n      address\n        /* \"#utility.yul\":4314:4332   */\n      0x24\n      dup4\n      add\n        /* \"#utility.yul\":4307:4350   */\n      mstore\n        /* \"#utility.yul\":4366:4384   */\n      0x44\n      dup3\n      add\n        /* \"#utility.yul\":4359:4393   */\n      mstore\n        /* \"#utility.yul\":4199:4217   */\n      0x64\n      add\n        /* \"contracts/Arcade.sol\":3073:3218  acceptedArcadeTokens[(gameData[game_id].arcade_token)].native_token.transferFrom(_msgSender(), address(this), gameData[game_id].registration_fee) */\n      0x20\n      mload(0x40)\n      dup1\n      dup4\n      sub\n      dup2\n      0x00\n      dup8\n      dup1\n      extcodesize\n      iszero\n      dup1\n      iszero\n      tag_318\n      jumpi\n      0x00\n      dup1\n      revert\n    tag_318:\n      pop\n      gas\n      call\n      iszero\n      dup1\n      iszero\n      tag_320\n      jumpi\n      returndatasize\n      0x00\n      dup1\n      returndatacopy\n      revert(0x00, returndatasize)\n    tag_320:\n      pop\n      pop\n      pop\n      pop\n      mload(0x40)\n      returndatasize\n      not(0x1f)\n      0x1f\n      dup3\n      add\n      and\n      dup3\n      add\n      dup1\n      0x40\n      mstore\n      pop\n      dup2\n      add\n      swap1\n      tag_321\n      swap2\n      swap1\n      tag_173\n      jump\t// in\n    tag_321:\n        /* \"contracts/Arcade.sol\":3065:3273  require(acceptedArcadeTokens[(gameData[game_id].arcade_token)].native_token.transferFrom(_msgSender(), address(this), gameData[game_id].registration_fee), \"Trophy King Arcade: Must approve registration fee.\") */\n      tag_322\n      jumpi\n      mload(0x40)\n      shl(0xe5, 0x461bcd)\n      dup2\n      mstore\n        /* \"#utility.yul\":8787:8789   */\n      0x20\n        /* \"contracts/Arcade.sol\":3065:3273  require(acceptedArcadeTokens[(gameData[game_id].arcade_token)].native_token.transferFrom(_msgSender(), address(this), gameData[game_id].registration_fee), \"Trophy King Arcade: Must approve registration fee.\") */\n      0x04\n      dup3\n      add\n        /* \"#utility.yul\":8769:8790   */\n      mstore\n        /* \"#utility.yul\":8826:8828   */\n      0x32\n        /* \"#utility.yul\":8806:8824   */\n      0x24\n      dup3\n      add\n        /* \"#utility.yul\":8799:8829   */\n      mstore\n        /* \"#utility.yul\":8865:8899   */\n      0x54726f706879204b696e67204172636164653a204d75737420617070726f7665\n        /* \"#utility.yul\":8845:8863   */\n      0x44\n      dup3\n      add\n        /* \"#utility.yul\":8838:8900   */\n      mstore\n      shl(0x71, 0x103932b3b4b9ba3930ba34b7b7103332b297)\n        /* \"#utility.yul\":8916:8934   */\n      0x64\n      dup3\n      add\n        /* \"#utility.yul\":8909:8957   */\n      mstore\n        /* \"#utility.yul\":8974:8993   */\n      0x84\n      add\n        /* \"contracts/Arcade.sol\":3065:3273  require(acceptedArcadeTokens[(gameData[game_id].arcade_token)].native_token.transferFrom(_msgSender(), address(this), gameData[game_id].registration_fee), \"Trophy King Arcade: Must approve registration fee.\") */\n      tag_192\n        /* \"#utility.yul\":8759:8999   */\n      jump\n        /* \"contracts/Arcade.sol\":3065:3273  require(acceptedArcadeTokens[(gameData[game_id].arcade_token)].native_token.transferFrom(_msgSender(), address(this), gameData[game_id].registration_fee), \"Trophy King Arcade: Must approve registration fee.\") */\n    tag_322:\n        /* \"contracts/Arcade.sol\":3315:3332  gameData[game_id] */\n      0x00\n      dup2\n      dup2\n      mstore\n        /* \"contracts/Arcade.sol\":3315:3323  gameData */\n      0x02\n        /* \"contracts/Arcade.sol\":3315:3332  gameData[game_id] */\n      0x20\n      mstore\n      0x40\n      swap1\n      keccak256\n        /* \"contracts/Arcade.sol\":3315:3349  gameData[game_id].registration_fee */\n      0x03\n      add\n      sload\n        /* \"contracts/Arcade.sol\":3284:3350  _register(game_id, msg.sender, gameData[game_id].registration_fee) */\n      tag_325\n      swap1\n        /* \"contracts/Arcade.sol\":3294:3301  game_id */\n      dup3\n      swap1\n        /* \"contracts/Arcade.sol\":3303:3313  msg.sender */\n      caller\n      swap1\n        /* \"contracts/Arcade.sol\":3284:3293  _register */\n      tag_326\n        /* \"contracts/Arcade.sol\":3284:3350  _register(game_id, msg.sender, gameData[game_id].registration_fee) */\n      jump\t// in\n    tag_325:\n        /* \"contracts/Arcade.sol\":2512:3357  function register(uint256 game_id) public {... */\n      pop\n      jump\t// out\n        /* \"contracts/Arcade.sol\":5987:6523  function createGame(uint256 game_id, uint256 registration_fee, address arcade_token, uint256 player_limit, bool exchange) public onlyRole(GAME_MASTER) {... */\n    tag_152:\n      0x00\n      dup1\n      mload\n      0x20\n      data_806db7640bcc104a4b7b53ebc0c09b63eefd92fe89197bc684d91aa66a17455c\n      dup4\n      codecopy\n      dup2\n      mload\n      swap2\n      mstore\n        /* \"contracts/access/AccessControl.sol\":2505:2521  _checkRole(role) */\n      tag_328\n        /* \"contracts/access/AccessControl.sol\":2516:2520  role */\n      dup2\n        /* \"contracts/access/AccessControl.sol\":2505:2515  _checkRole */\n      tag_155\n        /* \"contracts/access/AccessControl.sol\":2505:2521  _checkRole(role) */\n      jump\t// in\n    tag_328:\n        /* \"contracts/Arcade.sol\":6148:6165  gameData[game_id] */\n      0x00\n      dup7\n      dup2\n      mstore\n        /* \"contracts/Arcade.sol\":6148:6156  gameData */\n      0x02\n        /* \"contracts/Arcade.sol\":6148:6165  gameData[game_id] */\n      0x20\n      dup2\n      dup2\n      mstore\n      0x40\n      dup1\n      dup5\n      keccak256\n        /* \"contracts/Arcade.sol\":6175:6176  1 */\n      0x01\n        /* \"contracts/Arcade.sol\":6148:6172  gameData[game_id].status */\n      0x04\n      dup3\n      add\n        /* \"contracts/Arcade.sol\":6148:6176  gameData[game_id].status = 1 */\n      dup2\n      swap1\n      sstore\n        /* \"contracts/Arcade.sol\":6186:6213  gameData[game_id].total_fee */\n      0x06\n      dup3\n      add\n        /* \"contracts/Arcade.sol\":6186:6217  gameData[game_id].total_fee = 0 */\n      dup7\n      swap1\n      sstore\n        /* \"contracts/Arcade.sol\":6227:6261  gameData[game_id].registration_fee */\n      0x03\n      dup3\n      add\n        /* \"contracts/Arcade.sol\":6227:6280  gameData[game_id].registration_fee = registration_fee */\n      dup12\n      swap1\n      sstore\n        /* \"contracts/Arcade.sol\":6290:6320  gameData[game_id].arcade_token */\n      0x05\n      dup3\n      add\n        /* \"contracts/Arcade.sol\":6290:6335  gameData[game_id].arcade_token = arcade_token */\n      dup1\n      sload\n      not(sub(shl(0xa0, 0x01), 0x01))\n      and\n      sub(shl(0xa0, 0x01), 0x01)\n      dup13\n      and\n      or\n      swap1\n      sstore\n        /* \"contracts/Arcade.sol\":6345:6375  gameData[game_id].player_count */\n      dup2\n      add\n        /* \"contracts/Arcade.sol\":6345:6379  gameData[game_id].player_count = 0 */\n      swap5\n      swap1\n      swap5\n      sstore\n        /* \"contracts/Arcade.sol\":6389:6419  gameData[game_id].player_limit */\n      swap2\n      dup4\n      add\n        /* \"contracts/Arcade.sol\":6389:6434  gameData[game_id].player_limit = player_limit */\n      dup7\n      swap1\n      sstore\n        /* \"contracts/Arcade.sol\":6444:6481  gameData[game_id].exchange = exchange */\n      dup3\n      sload\n      not(0xff)\n      and\n      dup6\n      iszero\n      iszero\n      or\n      swap1\n      swap3\n      sstore\n        /* \"contracts/Arcade.sol\":6497:6516  CreateGame(game_id) */\n      mload\n        /* \"#utility.yul\":6656:6681   */\n      dup8\n      dup2\n      mstore\n        /* \"contracts/Arcade.sol\":6497:6516  CreateGame(game_id) */\n      0x9e5237c6a8bb45df74799cf138ebda4fed0574bed906da41387acdc4a3cbe3d8\n      swap2\n        /* \"#utility.yul\":6629:6647   */\n      add\n        /* \"contracts/Arcade.sol\":6497:6516  CreateGame(game_id) */\n      mload(0x40)\n      dup1\n      swap2\n      sub\n      swap1\n      log1\n        /* \"contracts/Arcade.sol\":5987:6523  function createGame(uint256 game_id, uint256 registration_fee, address arcade_token, uint256 player_limit, bool exchange) public onlyRole(GAME_MASTER) {... */\n      pop\n      pop\n      pop\n      pop\n      pop\n      pop\n      jump\t// out\n        /* \"contracts/access/AccessControl.sol\":3334:3437  function _checkRole(bytes32 role) internal view virtual {... */\n    tag_155:\n        /* \"contracts/access/AccessControl.sol\":3400:3430  _checkRole(role, _msgSender()) */\n      tag_325\n        /* \"contracts/access/AccessControl.sol\":3411:3415  role */\n      dup2\n        /* \"contracts/utils/Context.sol\":719:729  msg.sender */\n      caller\n        /* \"contracts/access/AccessControl.sol\":3400:3410  _checkRole */\n      tag_334\n        /* \"contracts/access/AccessControl.sol\":3400:3430  _checkRole(role, _msgSender()) */\n      jump\t// in\n        /* \"contracts/access/AccessControl.sol\":7244:7477  function _grantRole(bytes32 role, address account) internal virtual {... */\n    tag_215:\n        /* \"contracts/access/AccessControl.sol\":7327:7349  hasRole(role, account) */\n      tag_338\n        /* \"contracts/access/AccessControl.sol\":7335:7339  role */\n      dup3\n        /* \"contracts/access/AccessControl.sol\":7341:7348  account */\n      dup3\n        /* \"contracts/access/AccessControl.sol\":7327:7334  hasRole */\n      tag_100\n        /* \"contracts/access/AccessControl.sol\":7327:7349  hasRole(role, account) */\n      jump\t// in\n    tag_338:\n        /* \"contracts/access/AccessControl.sol\":7322:7471  if (!hasRole(role, account)) {... */\n      tag_221\n      jumpi\n        /* \"contracts/access/AccessControl.sol\":7365:7371  _roles */\n      0x00\n        /* \"contracts/access/AccessControl.sol\":7365:7377  _roles[role] */\n      dup3\n      dup2\n      mstore\n      0x20\n      dup2\n      dup2\n      mstore\n      0x40\n      dup1\n      dup4\n      keccak256\n      sub(shl(0xa0, 0x01), 0x01)\n        /* \"contracts/access/AccessControl.sol\":7365:7394  _roles[role].members[account] */\n      dup6\n      and\n      dup5\n      mstore\n      swap1\n      swap2\n      mstore\n      swap1\n      keccak256\n        /* \"contracts/access/AccessControl.sol\":7365:7401  _roles[role].members[account] = true */\n      dup1\n      sload\n      not(0xff)\n      and\n        /* \"contracts/access/AccessControl.sol\":7397:7401  true */\n      0x01\n        /* \"contracts/access/AccessControl.sol\":7365:7401  _roles[role].members[account] = true */\n      or\n      swap1\n      sstore\n        /* \"contracts/access/AccessControl.sol\":7447:7459  _msgSender() */\n      tag_340\n        /* \"contracts/utils/Context.sol\":719:729  msg.sender */\n      caller\n      swap1\n        /* \"contracts/utils/Context.sol\":640:736  function _msgSender() internal view virtual returns (address) {... */\n      jump\n        /* \"contracts/access/AccessControl.sol\":7447:7459  _msgSender() */\n    tag_340:\n      sub(shl(0xa0, 0x01), 0x01)\n        /* \"contracts/access/AccessControl.sol\":7420:7460  RoleGranted(role, account, _msgSender()) */\n      and\n        /* \"contracts/access/AccessControl.sol\":7438:7445  account */\n      dup2\n      sub(shl(0xa0, 0x01), 0x01)\n        /* \"contracts/access/AccessControl.sol\":7420:7460  RoleGranted(role, account, _msgSender()) */\n      and\n        /* \"contracts/access/AccessControl.sol\":7432:7436  role */\n      dup4\n        /* \"contracts/access/AccessControl.sol\":7420:7460  RoleGranted(role, account, _msgSender()) */\n      0x2f8788117e7eff1d82e926ec794901d17c78024a50270940304540a733656f0d\n      mload(0x40)\n      mload(0x40)\n      dup1\n      swap2\n      sub\n      swap1\n      log4\n        /* \"contracts/access/AccessControl.sol\":7244:7477  function _grantRole(bytes32 role, address account) internal virtual {... */\n      pop\n      pop\n      jump\t// out\n        /* \"contracts/access/AccessControl.sol\":7602:7836  function _revokeRole(bytes32 role, address account) internal virtual {... */\n    tag_222:\n        /* \"contracts/access/AccessControl.sol\":7685:7707  hasRole(role, account) */\n      tag_342\n        /* \"contracts/access/AccessControl.sol\":7693:7697  role */\n      dup3\n        /* \"contracts/access/AccessControl.sol\":7699:7706  account */\n      dup3\n        /* \"contracts/access/AccessControl.sol\":7685:7692  hasRole */\n      tag_100\n        /* \"contracts/access/AccessControl.sol\":7685:7707  hasRole(role, account) */\n      jump\t// in\n    tag_342:\n        /* \"contracts/access/AccessControl.sol\":7681:7830  if (hasRole(role, account)) {... */\n      iszero\n      tag_221\n      jumpi\n        /* \"contracts/access/AccessControl.sol\":7755:7760  false */\n      0x00\n        /* \"contracts/access/AccessControl.sol\":7723:7735  _roles[role] */\n      dup3\n      dup2\n      mstore\n      0x20\n      dup2\n      dup2\n      mstore\n      0x40\n      dup1\n      dup4\n      keccak256\n      sub(shl(0xa0, 0x01), 0x01)\n        /* \"contracts/access/AccessControl.sol\":7723:7752  _roles[role].members[account] */\n      dup6\n      and\n      dup1\n      dup6\n      mstore\n      swap3\n      mstore\n      dup1\n      dup4\n      keccak256\n        /* \"contracts/access/AccessControl.sol\":7723:7760  _roles[role].members[account] = false */\n      dup1\n      sload\n      not(0xff)\n      and\n      swap1\n      sstore\n        /* \"contracts/access/AccessControl.sol\":7779:7819  RoleRevoked(role, account, _msgSender()) */\n      mload\n        /* \"contracts/utils/Context.sol\":719:729  msg.sender */\n      caller\n      swap3\n        /* \"contracts/access/AccessControl.sol\":7723:7735  _roles[role] */\n      dup6\n      swap2\n        /* \"contracts/access/AccessControl.sol\":7779:7819  RoleRevoked(role, account, _msgSender()) */\n      0xf6391f5c32d9c69d2a47ea670b442974b53935d1edc7fd64eb21e047a839171b\n      swap2\n        /* \"contracts/access/AccessControl.sol\":7755:7760  false */\n      swap1\n        /* \"contracts/access/AccessControl.sol\":7779:7819  RoleRevoked(role, account, _msgSender()) */\n      log4\n        /* \"contracts/access/AccessControl.sol\":7602:7836  function _revokeRole(bytes32 role, address account) internal virtual {... */\n      pop\n      pop\n      jump\t// out\n        /* \"contracts/utils/math/SafeMath.sol\":3122:3218  function sub(uint256 a, uint256 b) internal pure returns (uint256) {... */\n    tag_262:\n        /* \"contracts/utils/math/SafeMath.sol\":3180:3187  uint256 */\n      0x00\n        /* \"contracts/utils/math/SafeMath.sol\":3206:3211  a - b */\n      tag_346\n        /* \"contracts/utils/math/SafeMath.sol\":3210:3211  b */\n      dup3\n        /* \"contracts/utils/math/SafeMath.sol\":3206:3207  a */\n      dup5\n        /* \"contracts/utils/math/SafeMath.sol\":3206:3211  a - b */\n      tag_242\n      jump\t// in\n    tag_346:\n        /* \"contracts/utils/math/SafeMath.sol\":3199:3211  return a - b */\n      swap4\n        /* \"contracts/utils/math/SafeMath.sol\":3122:3218  function sub(uint256 a, uint256 b) internal pure returns (uint256) {... */\n      swap3\n      pop\n      pop\n      pop\n      jump\t// out\n        /* \"contracts/Arcade.sol\":10489:10824  function _register(uint256 game_id, address player_address, uint256 amount) internal {... */\n    tag_326:\n        /* \"contracts/Arcade.sol\":10584:10603  GameInfo storage gi */\n      0x00\n        /* \"contracts/Arcade.sol\":10606:10623  gameData[game_id] */\n      dup4\n      dup2\n      mstore\n        /* \"contracts/Arcade.sol\":10606:10614  gameData */\n      0x02\n        /* \"contracts/Arcade.sol\":10606:10623  gameData[game_id] */\n      0x20\n      mstore\n      0x40\n      dup2\n      keccak256\n        /* \"contracts/Arcade.sol\":10653:10654  1 */\n      0x01\n        /* \"contracts/Arcade.sol\":10634:10649  gi.player_count */\n      dup1\n      dup3\n      add\n        /* \"contracts/Arcade.sol\":10634:10654  gi.player_count += 1 */\n      dup1\n      sload\n        /* \"contracts/Arcade.sol\":10606:10623  gameData[game_id] */\n      swap3\n      swap4\n        /* \"contracts/Arcade.sol\":10653:10654  1 */\n      swap2\n      swap3\n        /* \"contracts/Arcade.sol\":10634:10649  gi.player_count */\n      swap1\n      swap2\n        /* \"contracts/Arcade.sol\":10584:10603  GameInfo storage gi */\n      swap1\n        /* \"contracts/Arcade.sol\":10634:10654  gi.player_count += 1 */\n      tag_348\n      swap1\n        /* \"contracts/Arcade.sol\":10653:10654  1 */\n      dup5\n      swap1\n        /* \"contracts/Arcade.sol\":10634:10654  gi.player_count += 1 */\n      tag_255\n      jump\t// in\n    tag_348:\n      swap1\n      swap2\n      sstore\n      pop\n      pop\n      sub(shl(0xa0, 0x01), 0x01)\n        /* \"contracts/Arcade.sol\":10664:10686  gi.fee[player_address] */\n      dup4\n      and\n      0x00\n      swap1\n      dup2\n      mstore\n        /* \"contracts/Arcade.sol\":10664:10670  gi.fee */\n      0x07\n      dup3\n      add\n        /* \"contracts/Arcade.sol\":10664:10686  gi.fee[player_address] */\n      0x20\n      swap1\n      dup2\n      mstore\n      0x40\n      dup1\n      dup4\n      keccak256\n        /* \"contracts/Arcade.sol\":10664:10695  gi.fee[player_address] = amount */\n      dup6\n      swap1\n      sstore\n        /* \"contracts/Arcade.sol\":10705:10712  gi.paid */\n      0x08\n      dup5\n      add\n        /* \"contracts/Arcade.sol\":10705:10728  gi.paid[player_address] */\n      swap1\n      swap2\n      mstore\n      dup2\n      keccak256\n        /* \"contracts/Arcade.sol\":10731:10732  1 */\n      0x01\n        /* \"contracts/Arcade.sol\":10705:10732  gi.paid[player_address] = 1 */\n      swap1\n      sstore\n        /* \"contracts/Arcade.sol\":10742:10754  gi.total_fee */\n      0x06\n      dup3\n      add\n        /* \"contracts/Arcade.sol\":10742:10764  gi.total_fee += amount */\n      dup1\n      sload\n        /* \"contracts/Arcade.sol\":10689:10695  amount */\n      dup5\n      swap3\n        /* \"contracts/Arcade.sol\":10664:10686  gi.fee[player_address] */\n      swap1\n        /* \"contracts/Arcade.sol\":10742:10764  gi.total_fee += amount */\n      tag_349\n      swap1\n        /* \"contracts/Arcade.sol\":10689:10695  amount */\n      dup5\n      swap1\n        /* \"contracts/Arcade.sol\":10742:10764  gi.total_fee += amount */\n      tag_255\n      jump\t// in\n    tag_349:\n      swap1\n      swap2\n      sstore\n      pop\n      pop\n        /* \"contracts/Arcade.sol\":10788:10817  Register(msg.sender, game_id) */\n      mload(0x40)\n        /* \"#utility.yul\":6656:6681   */\n      dup5\n      dup2\n      mstore\n        /* \"contracts/Arcade.sol\":10797:10807  msg.sender */\n      caller\n      swap1\n        /* \"contracts/Arcade.sol\":10788:10817  Register(msg.sender, game_id) */\n      0x7dc6ab80cc84c043b7b8d4fcafc802187470087f7ea7fccd2e17aecd0256a1\n      swap1\n        /* \"#utility.yul\":6644:6646   */\n      0x20\n        /* \"#utility.yul\":6629:6647   */\n      add\n        /* \"contracts/Arcade.sol\":10788:10817  Register(msg.sender, game_id) */\n      mload(0x40)\n      dup1\n      swap2\n      sub\n      swap1\n      log2\n        /* \"contracts/Arcade.sol\":10489:10824  function _register(uint256 game_id, address player_address, uint256 amount) internal {... */\n      pop\n      pop\n      pop\n      pop\n      jump\t// out\n        /* \"contracts/access/AccessControl.sol\":3718:4210  function _checkRole(bytes32 role, address account) internal view virtual {... */\n    tag_334:\n        /* \"contracts/access/AccessControl.sol\":3806:3828  hasRole(role, account) */\n      tag_352\n        /* \"contracts/access/AccessControl.sol\":3814:3818  role */\n      dup3\n        /* \"contracts/access/AccessControl.sol\":3820:3827  account */\n      dup3\n        /* \"contracts/access/AccessControl.sol\":3806:3813  hasRole */\n      tag_100\n        /* \"contracts/access/AccessControl.sol\":3806:3828  hasRole(role, account) */\n      jump\t// in\n    tag_352:\n        /* \"contracts/access/AccessControl.sol\":3801:4204  if (!hasRole(role, account)) {... */\n      tag_221\n      jumpi\n        /* \"contracts/access/AccessControl.sol\":3989:4030  Strings.toHexString(uint160(account), 20) */\n      tag_354\n        /* \"contracts/access/AccessControl.sol\":4017:4024  account */\n      dup2\n      sub(shl(0xa0, 0x01), 0x01)\n        /* \"contracts/access/AccessControl.sol\":3989:4030  Strings.toHexString(uint160(account), 20) */\n      and\n        /* \"contracts/access/AccessControl.sol\":4027:4029  20 */\n      0x14\n        /* \"contracts/access/AccessControl.sol\":3989:4008  Strings.toHexString */\n      tag_355\n        /* \"contracts/access/AccessControl.sol\":3989:4030  Strings.toHexString(uint160(account), 20) */\n      jump\t// in\n    tag_354:\n        /* \"contracts/access/AccessControl.sol\":4101:4139  Strings.toHexString(uint256(role), 32) */\n      tag_356\n        /* \"contracts/access/AccessControl.sol\":4129:4133  role */\n      dup4\n        /* \"contracts/access/AccessControl.sol\":4136:4138  32 */\n      0x20\n        /* \"contracts/access/AccessControl.sol\":4101:4120  Strings.toHexString */\n      tag_355\n        /* \"contracts/access/AccessControl.sol\":4101:4139  Strings.toHexString(uint256(role), 32) */\n      jump\t// in\n    tag_356:\n        /* \"contracts/access/AccessControl.sol\":3896:4161  abi.encodePacked(... */\n      add(0x20, mload(0x40))\n      tag_357\n      swap3\n      swap2\n      swap1\n      tag_358\n      jump\t// in\n    tag_357:\n      0x40\n      dup1\n      mload\n      not(0x1f)\n      dup2\n      dup5\n      sub\n      add\n      dup2\n      mstore\n      swap1\n      dup3\n      swap1\n      mstore\n      shl(0xe5, 0x461bcd)\n        /* \"contracts/access/AccessControl.sol\":3844:4193  revert(... */\n      dup3\n      mstore\n      tag_192\n      swap2\n      0x04\n      add\n      tag_360\n      jump\t// in\n        /* \"contracts/utils/Strings.sol\":1588:2029  function toHexString(uint256 value, uint256 length) internal pure returns (string memory) {... */\n    tag_355:\n        /* \"contracts/utils/Strings.sol\":1663:1676  string memory */\n      0x60\n        /* \"contracts/utils/Strings.sol\":1688:1707  bytes memory buffer */\n      0x00\n        /* \"contracts/utils/Strings.sol\":1720:1730  2 * length */\n      tag_362\n        /* \"contracts/utils/Strings.sol\":1724:1730  length */\n      dup4\n        /* \"contracts/utils/Strings.sol\":1720:1721  2 */\n      0x02\n        /* \"contracts/utils/Strings.sol\":1720:1730  2 * length */\n      tag_257\n      jump\t// in\n    tag_362:\n        /* \"contracts/utils/Strings.sol\":1720:1734  2 * length + 2 */\n      tag_363\n      swap1\n        /* \"contracts/utils/Strings.sol\":1733:1734  2 */\n      0x02\n        /* \"contracts/utils/Strings.sol\":1720:1734  2 * length + 2 */\n      tag_255\n      jump\t// in\n    tag_363:\n        /* \"contracts/utils/Strings.sol\":1710:1735  new bytes(2 * length + 2) */\n      0xffffffffffffffff\n      dup2\n      gt\n      iszero\n      tag_364\n      jumpi\n      mstore(0x00, shl(0xe0, 0x4e487b71))\n      mstore(0x04, 0x41)\n      revert(0x00, 0x24)\n    tag_364:\n      mload(0x40)\n      swap1\n      dup1\n      dup3\n      mstore\n      dup1\n      0x1f\n      add\n      not(0x1f)\n      and\n      0x20\n      add\n      dup3\n      add\n      0x40\n      mstore\n      dup1\n      iszero\n      tag_365\n      jumpi\n      0x20\n      dup3\n      add\n      dup2\n      dup1\n      calldatasize\n      dup4\n      calldatacopy\n      add\n      swap1\n      pop\n    tag_365:\n      pop\n        /* \"contracts/utils/Strings.sol\":1688:1735  bytes memory buffer = new bytes(2 * length + 2) */\n      swap1\n      pop\n      shl(0xfc, 0x03)\n        /* \"contracts/utils/Strings.sol\":1745:1751  buffer */\n      dup2\n        /* \"contracts/utils/Strings.sol\":1752:1753  0 */\n      0x00\n        /* \"contracts/utils/Strings.sol\":1745:1754  buffer[0] */\n      dup2\n      mload\n      dup2\n      lt\n      tag_366\n      jumpi\n      mstore(0x00, shl(0xe0, 0x4e487b71))\n      mstore(0x04, 0x32)\n      revert(0x00, 0x24)\n    tag_366:\n      0x20\n      add\n      add\n        /* \"contracts/utils/Strings.sol\":1745:1760  buffer[0] = \"0\" */\n      swap1\n      not(sub(shl(0xf8, 0x01), 0x01))\n      and\n      swap1\n      dup2\n      0x00\n      byte\n      swap1\n      mstore8\n      pop\n      shl(0xfb, 0x0f)\n        /* \"contracts/utils/Strings.sol\":1770:1776  buffer */\n      dup2\n        /* \"contracts/utils/Strings.sol\":1777:1778  1 */\n      0x01\n        /* \"contracts/utils/Strings.sol\":1770:1779  buffer[1] */\n      dup2\n      mload\n      dup2\n      lt\n      tag_367\n      jumpi\n      mstore(0x00, shl(0xe0, 0x4e487b71))\n      mstore(0x04, 0x32)\n      revert(0x00, 0x24)\n    tag_367:\n      0x20\n      add\n      add\n        /* \"contracts/utils/Strings.sol\":1770:1785  buffer[1] = \"x\" */\n      swap1\n      not(sub(shl(0xf8, 0x01), 0x01))\n      and\n      swap1\n      dup2\n      0x00\n      byte\n      swap1\n      mstore8\n      pop\n        /* \"contracts/utils/Strings.sol\":1800:1809  uint256 i */\n      0x00\n        /* \"contracts/utils/Strings.sol\":1812:1822  2 * length */\n      tag_371\n        /* \"contracts/utils/Strings.sol\":1816:1822  length */\n      dup5\n        /* \"contracts/utils/Strings.sol\":1812:1813  2 */\n      0x02\n        /* \"contracts/utils/Strings.sol\":1812:1822  2 * length */\n      tag_257\n      jump\t// in\n    tag_371:\n        /* \"contracts/utils/Strings.sol\":1812:1826  2 * length + 1 */\n      tag_372\n      swap1\n        /* \"contracts/utils/Strings.sol\":1825:1826  1 */\n      0x01\n        /* \"contracts/utils/Strings.sol\":1812:1826  2 * length + 1 */\n      tag_255\n      jump\t// in\n    tag_372:\n        /* \"contracts/utils/Strings.sol\":1800:1826  uint256 i = 2 * length + 1 */\n      swap1\n      pop\n        /* \"contracts/utils/Strings.sol\":1795:1927  for (uint256 i = 2 * length + 1; i > 1; --i) {... */\n    tag_368:\n        /* \"contracts/utils/Strings.sol\":1832:1833  1 */\n      0x01\n        /* \"contracts/utils/Strings.sol\":1828:1829  i */\n      dup2\n        /* \"contracts/utils/Strings.sol\":1828:1833  i > 1 */\n      gt\n        /* \"contracts/utils/Strings.sol\":1795:1927  for (uint256 i = 2 * length + 1; i > 1; --i) {... */\n      iszero\n      tag_369\n      jumpi\n      shl(0x81, 0x181899199a1a9b1b9c1cb0b131b232b3)\n        /* \"contracts/utils/Strings.sol\":1879:1884  value */\n      dup6\n        /* \"contracts/utils/Strings.sol\":1887:1890  0xf */\n      0x0f\n        /* \"contracts/utils/Strings.sol\":1879:1890  value & 0xf */\n      and\n        /* \"contracts/utils/Strings.sol\":1866:1891  _HEX_SYMBOLS[value & 0xf] */\n      0x10\n      dup2\n      lt\n      tag_373\n      jumpi\n      mstore(0x00, shl(0xe0, 0x4e487b71))\n      mstore(0x04, 0x32)\n      revert(0x00, 0x24)\n    tag_373:\n      byte\n      0xf8\n      shl\n        /* \"contracts/utils/Strings.sol\":1854:1860  buffer */\n      dup3\n        /* \"contracts/utils/Strings.sol\":1861:1862  i */\n      dup3\n        /* \"contracts/utils/Strings.sol\":1854:1863  buffer[i] */\n      dup2\n      mload\n      dup2\n      lt\n      tag_374\n      jumpi\n      mstore(0x00, shl(0xe0, 0x4e487b71))\n      mstore(0x04, 0x32)\n      revert(0x00, 0x24)\n    tag_374:\n      0x20\n      add\n      add\n        /* \"contracts/utils/Strings.sol\":1854:1891  buffer[i] = _HEX_SYMBOLS[value & 0xf] */\n      swap1\n      not(sub(shl(0xf8, 0x01), 0x01))\n      and\n      swap1\n      dup2\n      0x00\n      byte\n      swap1\n      mstore8\n      pop\n        /* \"contracts/utils/Strings.sol\":1915:1916  4 */\n      0x04\n        /* \"contracts/utils/Strings.sol\":1905:1916  value >>= 4 */\n      swap5\n      swap1\n      swap5\n      shr\n      swap4\n        /* \"contracts/utils/Strings.sol\":1835:1838  --i */\n      tag_375\n      dup2\n      tag_376\n      jump\t// in\n    tag_375:\n      swap1\n      pop\n        /* \"contracts/utils/Strings.sol\":1795:1927  for (uint256 i = 2 * length + 1; i > 1; --i) {... */\n      jump(tag_368)\n    tag_369:\n      pop\n        /* \"contracts/utils/Strings.sol\":1944:1954  value == 0 */\n      dup4\n      iszero\n        /* \"contracts/utils/Strings.sol\":1936:1991  require(value == 0, \"Strings: hex length insufficient\") */\n      tag_346\n      jumpi\n      mload(0x40)\n      shl(0xe5, 0x461bcd)\n      dup2\n      mstore\n        /* \"#utility.yul\":7657:7659   */\n      0x20\n        /* \"contracts/utils/Strings.sol\":1936:1991  require(value == 0, \"Strings: hex length insufficient\") */\n      0x04\n      dup3\n      add\n        /* \"#utility.yul\":7639:7660   */\n      dup2\n      swap1\n      mstore\n        /* \"#utility.yul\":7676:7694   */\n      0x24\n      dup3\n      add\n        /* \"#utility.yul\":7669:7699   */\n      mstore\n        /* \"#utility.yul\":7735:7769   */\n      0x537472696e67733a20686578206c656e67746820696e73756666696369656e74\n        /* \"#utility.yul\":7715:7733   */\n      0x44\n      dup3\n      add\n        /* \"#utility.yul\":7708:7770   */\n      mstore\n        /* \"#utility.yul\":7787:7805   */\n      0x64\n      add\n        /* \"contracts/utils/Strings.sol\":1936:1991  require(value == 0, \"Strings: hex length insufficient\") */\n      tag_192\n        /* \"#utility.yul\":7629:7811   */\n      jump\n        /* \"#utility.yul\":14:187   */\n    tag_381:\n        /* \"#utility.yul\":82:102   */\n      dup1\n      calldataload\n      sub(shl(0xa0, 0x01), 0x01)\n        /* \"#utility.yul\":131:162   */\n      dup2\n      and\n        /* \"#utility.yul\":121:163   */\n      dup2\n      eq\n        /* \"#utility.yul\":111:113   */\n      tag_383\n      jumpi\n        /* \"#utility.yul\":177:178   */\n      0x00\n        /* \"#utility.yul\":174:175   */\n      dup1\n        /* \"#utility.yul\":167:179   */\n      revert\n        /* \"#utility.yul\":111:113   */\n    tag_383:\n        /* \"#utility.yul\":63:187   */\n      swap2\n      swap1\n      pop\n      jump\t// out\n        /* \"#utility.yul\":192:388   */\n    tag_56:\n        /* \"#utility.yul\":251:257   */\n      0x00\n        /* \"#utility.yul\":304:306   */\n      0x20\n        /* \"#utility.yul\":292:301   */\n      dup3\n        /* \"#utility.yul\":283:290   */\n      dup5\n        /* \"#utility.yul\":279:302   */\n      sub\n        /* \"#utility.yul\":275:307   */\n      slt\n        /* \"#utility.yul\":272:274   */\n      iszero\n      tag_385\n      jumpi\n        /* \"#utility.yul\":325:331   */\n      dup1\n        /* \"#utility.yul\":317:323   */\n      dup2\n        /* \"#utility.yul\":310:332   */\n      revert\n        /* \"#utility.yul\":272:274   */\n    tag_385:\n        /* \"#utility.yul\":353:382   */\n      tag_346\n        /* \"#utility.yul\":372:381   */\n      dup3\n        /* \"#utility.yul\":353:382   */\n      tag_381\n      jump\t// in\n        /* \"#utility.yul\":393:786   */\n    tag_52:\n        /* \"#utility.yul\":467:473   */\n      0x00\n        /* \"#utility.yul\":475:481   */\n      dup1\n        /* \"#utility.yul\":483:489   */\n      0x00\n        /* \"#utility.yul\":536:538   */\n      0x60\n        /* \"#utility.yul\":524:533   */\n      dup5\n        /* \"#utility.yul\":515:522   */\n      dup7\n        /* \"#utility.yul\":511:534   */\n      sub\n        /* \"#utility.yul\":507:539   */\n      slt\n        /* \"#utility.yul\":504:506   */\n      iszero\n      tag_388\n      jumpi\n        /* \"#utility.yul\":557:563   */\n      dup2\n        /* \"#utility.yul\":549:555   */\n      dup3\n        /* \"#utility.yul\":542:564   */\n      revert\n        /* \"#utility.yul\":504:506   */\n    tag_388:\n        /* \"#utility.yul\":585:614   */\n      tag_389\n        /* \"#utility.yul\":604:613   */\n      dup5\n        /* \"#utility.yul\":585:614   */\n      tag_381\n      jump\t// in\n    tag_389:\n        /* \"#utility.yul\":575:614   */\n      swap3\n      pop\n        /* \"#utility.yul\":661:663   */\n      0x20\n        /* \"#utility.yul\":650:659   */\n      dup5\n        /* \"#utility.yul\":646:664   */\n      add\n        /* \"#utility.yul\":633:665   */\n      calldataload\n        /* \"#utility.yul\":623:665   */\n      swap2\n      pop\n        /* \"#utility.yul\":715:717   */\n      0x40\n        /* \"#utility.yul\":704:713   */\n      dup5\n        /* \"#utility.yul\":700:718   */\n      add\n        /* \"#utility.yul\":687:719   */\n      calldataload\n        /* \"#utility.yul\":728:756   */\n      tag_390\n        /* \"#utility.yul\":750:755   */\n      dup2\n        /* \"#utility.yul\":728:756   */\n      tag_391\n      jump\t// in\n    tag_390:\n        /* \"#utility.yul\":775:780   */\n      dup1\n        /* \"#utility.yul\":765:780   */\n      swap2\n      pop\n      pop\n        /* \"#utility.yul\":494:786   */\n      swap3\n      pop\n      swap3\n      pop\n      swap3\n      jump\t// out\n        /* \"#utility.yul\":791:1046   */\n    tag_173:\n        /* \"#utility.yul\":858:864   */\n      0x00\n        /* \"#utility.yul\":911:913   */\n      0x20\n        /* \"#utility.yul\":899:908   */\n      dup3\n        /* \"#utility.yul\":890:897   */\n      dup5\n        /* \"#utility.yul\":886:909   */\n      sub\n        /* \"#utility.yul\":882:914   */\n      slt\n        /* \"#utility.yul\":879:881   */\n      iszero\n      tag_393\n      jumpi\n        /* \"#utility.yul\":932:938   */\n      dup1\n        /* \"#utility.yul\":924:930   */\n      dup2\n        /* \"#utility.yul\":917:939   */\n      revert\n        /* \"#utility.yul\":879:881   */\n    tag_393:\n        /* \"#utility.yul\":969:978   */\n      dup2\n        /* \"#utility.yul\":963:979   */\n      mload\n        /* \"#utility.yul\":988:1016   */\n      tag_346\n        /* \"#utility.yul\":1010:1015   */\n      dup2\n        /* \"#utility.yul\":988:1016   */\n      tag_391\n      jump\t// in\n        /* \"#utility.yul\":1051:1241   */\n    tag_63:\n        /* \"#utility.yul\":1110:1116   */\n      0x00\n        /* \"#utility.yul\":1163:1165   */\n      0x20\n        /* \"#utility.yul\":1151:1160   */\n      dup3\n        /* \"#utility.yul\":1142:1149   */\n      dup5\n        /* \"#utility.yul\":1138:1161   */\n      sub\n        /* \"#utility.yul\":1134:1166   */\n      slt\n        /* \"#utility.yul\":1131:1133   */\n      iszero\n      tag_396\n      jumpi\n        /* \"#utility.yul\":1184:1190   */\n      dup1\n        /* \"#utility.yul\":1176:1182   */\n      dup2\n        /* \"#utility.yul\":1169:1191   */\n      revert\n        /* \"#utility.yul\":1131:1133   */\n    tag_396:\n      pop\n        /* \"#utility.yul\":1212:1235   */\n      calldataload\n      swap2\n        /* \"#utility.yul\":1121:1241   */\n      swap1\n      pop\n      jump\t// out\n        /* \"#utility.yul\":1246:1510   */\n    tag_79:\n        /* \"#utility.yul\":1314:1320   */\n      0x00\n        /* \"#utility.yul\":1322:1328   */\n      dup1\n        /* \"#utility.yul\":1375:1377   */\n      0x40\n        /* \"#utility.yul\":1363:1372   */\n      dup4\n        /* \"#utility.yul\":1354:1361   */\n      dup6\n        /* \"#utility.yul\":1350:1373   */\n      sub\n        /* \"#utility.yul\":1346:1378   */\n      slt\n        /* \"#utility.yul\":1343:1345   */\n      iszero\n      tag_398\n      jumpi\n        /* \"#utility.yul\":1396:1402   */\n      dup2\n        /* \"#utility.yul\":1388:1394   */\n      dup3\n        /* \"#utility.yul\":1381:1403   */\n      revert\n        /* \"#utility.yul\":1343:1345   */\n    tag_398:\n        /* \"#utility.yul\":1437:1446   */\n      dup3\n        /* \"#utility.yul\":1424:1447   */\n      calldataload\n        /* \"#utility.yul\":1414:1447   */\n      swap2\n      pop\n        /* \"#utility.yul\":1466:1504   */\n      tag_399\n        /* \"#utility.yul\":1500:1502   */\n      0x20\n        /* \"#utility.yul\":1489:1498   */\n      dup5\n        /* \"#utility.yul\":1485:1503   */\n      add\n        /* \"#utility.yul\":1466:1504   */\n      tag_381\n      jump\t// in\n    tag_399:\n        /* \"#utility.yul\":1456:1504   */\n      swap1\n      pop\n        /* \"#utility.yul\":1333:1510   */\n      swap3\n      pop\n      swap3\n      swap1\n      pop\n      jump\t// out\n        /* \"#utility.yul\":1515:1821   */\n    tag_46:\n        /* \"#utility.yul\":1573:1579   */\n      0x00\n        /* \"#utility.yul\":1626:1628   */\n      0x20\n        /* \"#utility.yul\":1614:1623   */\n      dup3\n        /* \"#utility.yul\":1605:1612   */\n      dup5\n        /* \"#utility.yul\":1601:1624   */\n      sub\n        /* \"#utility.yul\":1597:1629   */\n      slt\n        /* \"#utility.yul\":1594:1596   */\n      iszero\n      tag_401\n      jumpi\n        /* \"#utility.yul\":1647:1653   */\n      dup1\n        /* \"#utility.yul\":1639:1645   */\n      dup2\n        /* \"#utility.yul\":1632:1654   */\n      revert\n        /* \"#utility.yul\":1594:1596   */\n    tag_401:\n        /* \"#utility.yul\":1678:1701   */\n      dup2\n      calldataload\n      not(sub(shl(0xe0, 0x01), 0x01))\n        /* \"#utility.yul\":1730:1762   */\n      dup2\n      and\n        /* \"#utility.yul\":1720:1763   */\n      dup2\n      eq\n        /* \"#utility.yul\":1710:1712   */\n      tag_346\n      jumpi\n        /* \"#utility.yul\":1782:1788   */\n      dup2\n        /* \"#utility.yul\":1774:1780   */\n      dup3\n        /* \"#utility.yul\":1767:1789   */\n      revert\n        /* \"#utility.yul\":2021:2215   */\n    tag_182:\n        /* \"#utility.yul\":2091:2097   */\n      0x00\n        /* \"#utility.yul\":2144:2146   */\n      0x20\n        /* \"#utility.yul\":2132:2141   */\n      dup3\n        /* \"#utility.yul\":2123:2130   */\n      dup5\n        /* \"#utility.yul\":2119:2142   */\n      sub\n        /* \"#utility.yul\":2115:2147   */\n      slt\n        /* \"#utility.yul\":2112:2114   */\n      iszero\n      tag_406\n      jumpi\n        /* \"#utility.yul\":2165:2171   */\n      dup1\n        /* \"#utility.yul\":2157:2163   */\n      dup2\n        /* \"#utility.yul\":2150:2172   */\n      revert\n        /* \"#utility.yul\":2112:2114   */\n    tag_406:\n      pop\n        /* \"#utility.yul\":2193:2209   */\n      mload\n      swap2\n        /* \"#utility.yul\":2102:2215   */\n      swap1\n      pop\n      jump\t// out\n        /* \"#utility.yul\":2489:3020   */\n    tag_151:\n        /* \"#utility.yul\":2581:2587   */\n      0x00\n        /* \"#utility.yul\":2589:2595   */\n      dup1\n        /* \"#utility.yul\":2597:2603   */\n      0x00\n        /* \"#utility.yul\":2605:2611   */\n      dup1\n        /* \"#utility.yul\":2613:2619   */\n      0x00\n        /* \"#utility.yul\":2666:2669   */\n      0xa0\n        /* \"#utility.yul\":2654:2663   */\n      dup7\n        /* \"#utility.yul\":2645:2652   */\n      dup9\n        /* \"#utility.yul\":2641:2664   */\n      sub\n        /* \"#utility.yul\":2637:2670   */\n      slt\n        /* \"#utility.yul\":2634:2636   */\n      iszero\n      tag_411\n      jumpi\n        /* \"#utility.yul\":2688:2694   */\n      dup1\n        /* \"#utility.yul\":2680:2686   */\n      dup2\n        /* \"#utility.yul\":2673:2695   */\n      revert\n        /* \"#utility.yul\":2634:2636   */\n    tag_411:\n        /* \"#utility.yul\":2729:2738   */\n      dup6\n        /* \"#utility.yul\":2716:2739   */\n      calldataload\n        /* \"#utility.yul\":2706:2739   */\n      swap5\n      pop\n        /* \"#utility.yul\":2786:2788   */\n      0x20\n        /* \"#utility.yul\":2775:2784   */\n      dup7\n        /* \"#utility.yul\":2771:2789   */\n      add\n        /* \"#utility.yul\":2758:2790   */\n      calldataload\n        /* \"#utility.yul\":2748:2790   */\n      swap4\n      pop\n        /* \"#utility.yul\":2809:2847   */\n      tag_412\n        /* \"#utility.yul\":2843:2845   */\n      0x40\n        /* \"#utility.yul\":2832:2841   */\n      dup8\n        /* \"#utility.yul\":2828:2846   */\n      add\n        /* \"#utility.yul\":2809:2847   */\n      tag_381\n      jump\t// in\n    tag_412:\n        /* \"#utility.yul\":2799:2847   */\n      swap3\n      pop\n        /* \"#utility.yul\":2894:2896   */\n      0x60\n        /* \"#utility.yul\":2883:2892   */\n      dup7\n        /* \"#utility.yul\":2879:2897   */\n      add\n        /* \"#utility.yul\":2866:2898   */\n      calldataload\n        /* \"#utility.yul\":2856:2898   */\n      swap2\n      pop\n        /* \"#utility.yul\":2948:2951   */\n      0x80\n        /* \"#utility.yul\":2937:2946   */\n      dup7\n        /* \"#utility.yul\":2933:2952   */\n      add\n        /* \"#utility.yul\":2920:2953   */\n      calldataload\n        /* \"#utility.yul\":2962:2990   */\n      tag_413\n        /* \"#utility.yul\":2984:2989   */\n      dup2\n        /* \"#utility.yul\":2962:2990   */\n      tag_391\n      jump\t// in\n    tag_413:\n        /* \"#utility.yul\":3009:3014   */\n      dup1\n        /* \"#utility.yul\":2999:3014   */\n      swap2\n      pop\n      pop\n        /* \"#utility.yul\":2624:3020   */\n      swap3\n      swap6\n      pop\n      swap3\n      swap6\n      swap1\n      swap4\n      pop\n      jump\t// out\n        /* \"#utility.yul\":3025:3811   */\n    tag_358:\n        /* \"#utility.yul\":3436:3461   */\n      0x416363657373436f6e74726f6c3a206163636f756e7420000000000000000000\n        /* \"#utility.yul\":3431:3434   */\n      dup2\n        /* \"#utility.yul\":3424:3462   */\n      mstore\n        /* \"#utility.yul\":3406:3409   */\n      0x00\n        /* \"#utility.yul\":3491:3497   */\n      dup4\n        /* \"#utility.yul\":3485:3498   */\n      mload\n        /* \"#utility.yul\":3507:3569   */\n      tag_415\n        /* \"#utility.yul\":3562:3568   */\n      dup2\n        /* \"#utility.yul\":3557:3559   */\n      0x17\n        /* \"#utility.yul\":3552:3555   */\n      dup6\n        /* \"#utility.yul\":3548:3560   */\n      add\n        /* \"#utility.yul\":3541:3545   */\n      0x20\n        /* \"#utility.yul\":3533:3539   */\n      dup9\n        /* \"#utility.yul\":3529:3546   */\n      add\n        /* \"#utility.yul\":3507:3569   */\n      tag_416\n      jump\t// in\n    tag_415:\n      shl(0x7d, 0x01034b99036b4b9b9b4b733903937b6329)\n        /* \"#utility.yul\":3628:3630   */\n      0x17\n        /* \"#utility.yul\":3588:3604   */\n      swap2\n      dup5\n      add\n        /* \"#utility.yul\":3620:3631   */\n      swap2\n      dup3\n      add\n        /* \"#utility.yul\":3613:3653   */\n      mstore\n        /* \"#utility.yul\":3678:3691   */\n      dup4\n      mload\n        /* \"#utility.yul\":3700:3763   */\n      tag_417\n        /* \"#utility.yul\":3678:3691   */\n      dup2\n        /* \"#utility.yul\":3749:3751   */\n      0x28\n        /* \"#utility.yul\":3741:3752   */\n      dup5\n      add\n        /* \"#utility.yul\":3734:3738   */\n      0x20\n        /* \"#utility.yul\":3722:3739   */\n      dup9\n      add\n        /* \"#utility.yul\":3700:3763   */\n      tag_416\n      jump\t// in\n    tag_417:\n        /* \"#utility.yul\":3783:3800   */\n      add\n        /* \"#utility.yul\":3802:3804   */\n      0x28\n        /* \"#utility.yul\":3779:3805   */\n      add\n      swap5\n        /* \"#utility.yul\":3414:3811   */\n      swap4\n      pop\n      pop\n      pop\n      pop\n      jump\t// out\n        /* \"#utility.yul\":7067:7450   */\n    tag_360:\n        /* \"#utility.yul\":7216:7218   */\n      0x20\n        /* \"#utility.yul\":7205:7214   */\n      dup2\n        /* \"#utility.yul\":7198:7219   */\n      mstore\n        /* \"#utility.yul\":7179:7183   */\n      0x00\n        /* \"#utility.yul\":7248:7254   */\n      dup3\n        /* \"#utility.yul\":7242:7255   */\n      mload\n        /* \"#utility.yul\":7291:7297   */\n      dup1\n        /* \"#utility.yul\":7286:7288   */\n      0x20\n        /* \"#utility.yul\":7275:7284   */\n      dup5\n        /* \"#utility.yul\":7271:7289   */\n      add\n        /* \"#utility.yul\":7264:7298   */\n      mstore\n        /* \"#utility.yul\":7307:7373   */\n      tag_429\n        /* \"#utility.yul\":7366:7372   */\n      dup2\n        /* \"#utility.yul\":7361:7363   */\n      0x40\n        /* \"#utility.yul\":7350:7359   */\n      dup6\n        /* \"#utility.yul\":7346:7364   */\n      add\n        /* \"#utility.yul\":7341:7343   */\n      0x20\n        /* \"#utility.yul\":7333:7339   */\n      dup8\n        /* \"#utility.yul\":7329:7344   */\n      add\n        /* \"#utility.yul\":7307:7373   */\n      tag_416\n      jump\t// in\n    tag_429:\n        /* \"#utility.yul\":7434:7436   */\n      0x1f\n        /* \"#utility.yul\":7413:7428   */\n      add\n      not(0x1f)\n        /* \"#utility.yul\":7409:7438   */\n      and\n        /* \"#utility.yul\":7394:7439   */\n      swap2\n      swap1\n      swap2\n      add\n        /* \"#utility.yul\":7441:7443   */\n      0x40\n        /* \"#utility.yul\":7390:7444   */\n      add\n      swap3\n        /* \"#utility.yul\":7188:7450   */\n      swap2\n      pop\n      pop\n      jump\t// out\n        /* \"#utility.yul\":13221:13349   */\n    tag_255:\n        /* \"#utility.yul\":13261:13264   */\n      0x00\n        /* \"#utility.yul\":13292:13293   */\n      dup3\n        /* \"#utility.yul\":13288:13294   */\n      not\n        /* \"#utility.yul\":13285:13286   */\n      dup3\n        /* \"#utility.yul\":13282:13295   */\n      gt\n        /* \"#utility.yul\":13279:13281   */\n      iszero\n      tag_447\n      jumpi\n        /* \"#utility.yul\":13298:13316   */\n      tag_447\n      tag_448\n      jump\t// in\n    tag_447:\n      pop\n        /* \"#utility.yul\":13334:13343   */\n      add\n      swap1\n        /* \"#utility.yul\":13269:13349   */\n      jump\t// out\n        /* \"#utility.yul\":13354:13571   */\n    tag_259:\n        /* \"#utility.yul\":13394:13395   */\n      0x00\n        /* \"#utility.yul\":13420:13421   */\n      dup3\n        /* \"#utility.yul\":13410:13412   */\n      tag_450\n      jumpi\n      shl(0xe0, 0x4e487b71)\n        /* \"#utility.yul\":13445:13476   */\n      dup2\n      mstore\n        /* \"#utility.yul\":13499:13503   */\n      0x12\n        /* \"#utility.yul\":13496:13497   */\n      0x04\n        /* \"#utility.yul\":13489:13504   */\n      mstore\n        /* \"#utility.yul\":13527:13531   */\n      0x24\n        /* \"#utility.yul\":13452:13453   */\n      dup2\n        /* \"#utility.yul\":13517:13532   */\n      revert\n        /* \"#utility.yul\":13410:13412   */\n    tag_450:\n      pop\n        /* \"#utility.yul\":13556:13565   */\n      div\n      swap1\n        /* \"#utility.yul\":13400:13571   */\n      jump\t// out\n        /* \"#utility.yul\":13576:13744   */\n    tag_257:\n        /* \"#utility.yul\":13616:13623   */\n      0x00\n        /* \"#utility.yul\":13682:13683   */\n      dup2\n        /* \"#utility.yul\":13678:13679   */\n      0x00\n        /* \"#utility.yul\":13674:13680   */\n      not\n        /* \"#utility.yul\":13670:13684   */\n      div\n        /* \"#utility.yul\":13667:13668   */\n      dup4\n        /* \"#utility.yul\":13664:13685   */\n      gt\n        /* \"#utility.yul\":13659:13660   */\n      dup3\n        /* \"#utility.yul\":13652:13661   */\n      iszero\n        /* \"#utility.yul\":13645:13662   */\n      iszero\n        /* \"#utility.yul\":13641:13686   */\n      and\n        /* \"#utility.yul\":13638:13640   */\n      iszero\n      tag_453\n      jumpi\n        /* \"#utility.yul\":13689:13707   */\n      tag_453\n      tag_448\n      jump\t// in\n    tag_453:\n      pop\n        /* \"#utility.yul\":13729:13738   */\n      mul\n      swap1\n        /* \"#utility.yul\":13628:13744   */\n      jump\t// out\n        /* \"#utility.yul\":13749:13874   */\n    tag_242:\n        /* \"#utility.yul\":13789:13793   */\n      0x00\n        /* \"#utility.yul\":13817:13818   */\n      dup3\n        /* \"#utility.yul\":13814:13815   */\n      dup3\n        /* \"#utility.yul\":13811:13819   */\n      lt\n        /* \"#utility.yul\":13808:13810   */\n      iszero\n      tag_456\n      jumpi\n        /* \"#utility.yul\":13822:13840   */\n      tag_456\n      tag_448\n      jump\t// in\n    tag_456:\n      pop\n        /* \"#utility.yul\":13859:13868   */\n      sub\n      swap1\n        /* \"#utility.yul\":13798:13874   */\n      jump\t// out\n        /* \"#utility.yul\":13879:14137   */\n    tag_416:\n        /* \"#utility.yul\":13951:13952   */\n      0x00\n        /* \"#utility.yul\":13961:14074   */\n    tag_458:\n        /* \"#utility.yul\":13975:13981   */\n      dup4\n        /* \"#utility.yul\":13972:13973   */\n      dup2\n        /* \"#utility.yul\":13969:13982   */\n      lt\n        /* \"#utility.yul\":13961:14074   */\n      iszero\n      tag_460\n      jumpi\n        /* \"#utility.yul\":14051:14062   */\n      dup2\n      dup2\n      add\n        /* \"#utility.yul\":14045:14063   */\n      mload\n        /* \"#utility.yul\":14032:14043   */\n      dup4\n      dup3\n      add\n        /* \"#utility.yul\":14025:14064   */\n      mstore\n        /* \"#utility.yul\":13997:13999   */\n      0x20\n        /* \"#utility.yul\":13990:14000   */\n      add\n        /* \"#utility.yul\":13961:14074   */\n      jump(tag_458)\n    tag_460:\n        /* \"#utility.yul\":14092:14098   */\n      dup4\n        /* \"#utility.yul\":14089:14090   */\n      dup2\n        /* \"#utility.yul\":14086:14099   */\n      gt\n        /* \"#utility.yul\":14083:14085   */\n      iszero\n      tag_461\n      jumpi\n        /* \"#utility.yul\":14127:14128   */\n      0x00\n        /* \"#utility.yul\":14118:14124   */\n      dup5\n        /* \"#utility.yul\":14113:14116   */\n      dup5\n        /* \"#utility.yul\":14109:14125   */\n      add\n        /* \"#utility.yul\":14102:14129   */\n      mstore\n        /* \"#utility.yul\":14083:14085   */\n    tag_461:\n      pop\n        /* \"#utility.yul\":13932:14137   */\n      pop\n      pop\n      pop\n      jump\t// out\n        /* \"#utility.yul\":14142:14278   */\n    tag_376:\n        /* \"#utility.yul\":14181:14184   */\n      0x00\n        /* \"#utility.yul\":14209:14214   */\n      dup2\n        /* \"#utility.yul\":14199:14201   */\n      tag_464\n      jumpi\n        /* \"#utility.yul\":14218:14236   */\n      tag_464\n      tag_448\n      jump\t// in\n    tag_464:\n      pop\n      not(0x00)\n        /* \"#utility.yul\":14254:14272   */\n      add\n      swap1\n        /* \"#utility.yul\":14189:14278   */\n      jump\t// out\n        /* \"#utility.yul\":14283:14410   */\n    tag_448:\n        /* \"#utility.yul\":14344:14354   */\n      0x4e487b71\n        /* \"#utility.yul\":14339:14342   */\n      0xe0\n        /* \"#utility.yul\":14335:14355   */\n      shl\n        /* \"#utility.yul\":14332:14333   */\n      0x00\n        /* \"#utility.yul\":14325:14356   */\n      mstore\n        /* \"#utility.yul\":14375:14379   */\n      0x11\n        /* \"#utility.yul\":14372:14373   */\n      0x04\n        /* \"#utility.yul\":14365:14380   */\n      mstore\n        /* \"#utility.yul\":14399:14403   */\n      0x24\n        /* \"#utility.yul\":14396:14397   */\n      0x00\n        /* \"#utility.yul\":14389:14404   */\n      revert\n        /* \"#utility.yul\":14415:14533   */\n    tag_391:\n        /* \"#utility.yul\":14501:14506   */\n      dup1\n        /* \"#utility.yul\":14494:14507   */\n      iszero\n        /* \"#utility.yul\":14487:14508   */\n      iszero\n        /* \"#utility.yul\":14480:14485   */\n      dup2\n        /* \"#utility.yul\":14477:14509   */\n      eq\n        /* \"#utility.yul\":14467:14469   */\n      tag_325\n      jumpi\n        /* \"#utility.yul\":14523:14524   */\n      0x00\n        /* \"#utility.yul\":14520:14521   */\n      dup1\n        /* \"#utility.yul\":14513:14525   */\n      revert\n    stop\n    data_023264abf97b17654b97d38bd81099eb2064d5cca6dbd4e398ff8bdbab67b82d 3131fc8beb48b895197ad34f21c86afdf6a989a5cd911181952dbf8dfcf18192\n    data_806db7640bcc104a4b7b53ebc0c09b63eefd92fe89197bc684d91aa66a17455c 3c13b5abbc85050d426f9500a16cfd9f7d94261c880b9a4e03d584d28c06059c\n\n    auxdata: 0xa264697066735822122028ba609cb92e170949b2720f9b6760aaa336c13fe7580e96efe3d7f2b5974a0364736f6c63430008040033\n}\n",
				"bytecode": {
					"linkReferences": {},
					"object": "6080604052601260038190556200001890600a620001af565b6005553480156200002857600080fd5b5062000036600033620000b2565b620000627f3131fc8beb48b895197ad34f21c86afdf6a989a5cd911181952dbf8dfcf1819233620000b2565b6200008e7f3c13b5abbc85050d426f9500a16cfd9f7d94261c880b9a4e03d584d28c06059c33620000b2565b600680546001600160a01b0319163317905567016345785d8a00006004556200028e565b620000be82826200013b565b62000137576000828152602081815260408083206001600160a01b03851684529091529020805460ff19166001179055620000f63390565b6001600160a01b0316816001600160a01b0316837f2f8788117e7eff1d82e926ec794901d17c78024a50270940304540a733656f0d60405160405180910390a45b5050565b6000828152602081815260408083206001600160a01b038516845290915290205460ff165b92915050565b600181815b80851115620001a75781600019048211156200018b576200018b62000278565b808516156200019957918102915b93841c93908002906200016b565b509250929050565b6000620001bd8383620001c4565b9392505050565b600082620001d55750600162000160565b81620001e45750600062000160565b8160018114620001fd5760028114620002085762000228565b600191505062000160565b60ff8411156200021c576200021c62000278565b50506001821b62000160565b5060208310610133831016604e8410600b84101617156200024d575081810a62000160565b62000259838362000166565b806000190482111562000270576200027062000278565b029392505050565b634e487b7160e01b600052601160045260246000fd5b611e5e806200029e6000396000f3fe608060405234801561001057600080fd5b50600436106101d95760003560e01c806391d1485411610104578063b9888d89116100a2578063d547741f11610071578063d547741f14610514578063e6f091f914610527578063f207564e1461055a578063f336ee3c1461056d57600080fd5b8063b9888d8914610448578063c18e397e1461045b578063c46ed45a14610470578063ccaf237f1461047957600080fd5b80639d00c61e116100de5780639d00c61e146103795780639f512e22146103cb578063a217fddf146103de578063b22c376d146103e657600080fd5b806391d148541461033e57806399597b70146103515780639c6236831461036657600080fd5b80632ba671001161017c57806336568abe1161014b57806336568abe146102da5780633e16518f146102ed5780637ad226dc146103005780638da5cb5b1461031357600080fd5b80632ba67100146102985780632d6ef310146102ab5780632f2ff15d146102be578063313ce567146102d157600080fd5b806309a18635116101b857806309a186351461022e578063248a55a114610241578063248a9ca3146102545780632ac5016f1461028557600080fd5b8062f5544f146101de57806301ffc9a7146101f357806306602a481461021b575b600080fd5b6101f16101ec366004611b91565b610580565b005b610206610201366004611bd4565b6105ec565b60405190151581526020015b60405180910390f35b6101f1610229366004611b36565b610623565b6101f161023c366004611b1c565b610711565b6101f161024f366004611b91565b6108b8565b610277610262366004611b91565b60009081526020819052604090206001015490565b604051908152602001610212565b6101f1610293366004611b91565b61094b565b6101f16102a6366004611ba9565b610969565b6101f16102b9366004611b91565b6109e1565b6101f16102cc366004611ba9565b610a3f565b61027760035481565b6101f16102e8366004611ba9565b610a64565b6101f16102fb366004611b1c565b610ae2565b6101f161030e366004611ba9565b610b1f565b600654610326906001600160a01b031681565b6040516001600160a01b039091168152602001610212565b61020661034c366004611ba9565b610d97565b610277600080516020611e0983398151915281565b6101f1610374366004611ba9565b610dc0565b6103b4610387366004611b1c565b6001600160a01b031660009081526001602081905260409091208054910154600160a01b90910460ff1691565b604080519215158352602083019190915201610212565b6101f16103d9366004611b91565b61114a565b610277600081565b6104236103f4366004611b1c565b600160208190526000918252604090912080549101546001600160a01b03821691600160a01b900460ff169083565b604080516001600160a01b039094168452911515602084015290820152606001610212565b610206610456366004611ba9565b6111a0565b610277600080516020611de983398151915281565b61027760045481565b6104d4610487366004611b91565b6002602081905260009182526040909120805460018201549282015460038301546004840154600585015460069095015460ff90941695949293919290916001600160a01b039091169087565b604080519715158852602088019690965294860193909352606085019190915260808401526001600160a01b031660a083015260c082015260e001610212565b6101f1610522366004611ba9565b6112af565b610206610535366004611b1c565b6001600160a01b0316600090815260016020526040902054600160a01b900460ff1690565b6101f1610568366004611b91565b6112d4565b6101f161057b366004611c14565b61165b565b600080516020611e0983398151915261059881611708565b600082815260026020526040908190206001600490910155517f651a9760985edc53055bf2462cb4437b9be3de87aa3eecf2c05782e8b58eba19906105e09084815260200190565b60405180910390a15050565b60006001600160e01b03198216637965db0b60e01b148061061d57506301ffc9a760e01b6001600160e01b03198316145b92915050565b600080516020611de983398151915261063b81611708565b6001600160a01b038416600081815260016020819052604090912090810185905580546001600160a81b031916600160a01b851515026001600160a01b0319161782179055849063095ea7b3336040516001600160e01b031960e084901b1681526001600160a01b0390911660048201526000196024820152604401602060405180830381600087803b1580156106d157600080fd5b505af11580156106e5573d6000803e3d6000fd5b505050506040513d601f19601f820116820180604052508101906107099190611b75565b505050505050565b600061071c81611708565b6001600160a01b038281166000908152600160205260408082205490516370a0823160e01b8152306004820152919216906370a082319060240160206040518083038186803b15801561076e57600080fd5b505afa158015610782573d6000803e3d6000fd5b505050506040513d601f19601f820116820180604052508101906107a69190611bfc565b905080156108b3576001600160a01b038381166000908152600160205260409020541663a9059cbb336040516001600160e01b031960e084901b1681526001600160a01b03909116600482015260248101849052604401602060405180830381600087803b15801561081757600080fd5b505af115801561082b573d6000803e3d6000fd5b505050506040513d601f19601f8201168201806040525081019061084f9190611b75565b6108b35760405162461bcd60e51b815260206004820152602a60248201527f54726f706879204b696e67204172636164653a205265636f6e63696c6961746960448201526937b7103330b4b632b21760b11b60648201526084015b60405180910390fd5b505050565b600080516020611e098339815191526108d081611708565b6000828152600260208181526040808420805460ff191681556001810185905592830184905560038301849055600483018490556005830180546001600160a01b0319169055600690920192909255518381527fd0b153e02e23f4f21d020465b4dac7b1114893d05db395ed2511f879c3ac90b491016105e0565b600080516020611de983398151915261096381611708565b50600455565b600080516020611e0983398151915261098181611708565b60008381526002602090815260408083206001600160a01b0386168085526009909101835281842093909355519182527f34aeefd5030be05fe70eebc8866d82f935a308eb9f334cba88f5e3bea1a0cae8910160405180910390a1505050565b600080516020611e098339815191526109f981611708565b60008281526002602052604080822060040191909155517f827e8bff9f46048f8351964d2c871d09e4f4231513cf2fcb786649c68732e24f906105e09084815260200190565b600082815260208190526040902060010154610a5a81611708565b6108b38383611712565b6001600160a01b0381163314610ad45760405162461bcd60e51b815260206004820152602f60248201527f416363657373436f6e74726f6c3a2063616e206f6e6c792072656e6f756e636560448201526e103937b632b9903337b91039b2b63360891b60648201526084016108aa565b610ade8282611796565b5050565b600080516020611de9833981519152610afa81611708565b506001600160a01b03166000908152600160205260409020805460ff60a01b19169055565b600080516020611e09833981519152610b3781611708565b60008381526002602052604090205460ff166108b35760008381526002602090815260408083206001600160a01b0386168452600801909152902054600114610bdc5760405162461bcd60e51b815260206004820152603160248201527f54726f706879204b696e67204172636164653a204e6f7420726567697374657260448201527032b2103337b9103a3434b99033b0b6b29760791b60648201526084016108aa565b600083815260026020908152604080832060058101546001600160a01b039081168552600190935292819020546003840154915163a9059cbb60e01b8152868416600482015260248101929092529091169063a9059cbb90604401602060405180830381600087803b158015610c5157600080fd5b505af1158015610c65573d6000803e3d6000fd5b505050506040513d601f19601f82011682018060405250810190610c899190611b75565b610ce05760405162461bcd60e51b815260206004820152602260248201527f54726f706879204b696e67204172636164653a20526566756e64206661696c65604482015261321760f11b60648201526084016108aa565b8060030154816006016000828254610cf89190611d66565b90915550506001600160a01b038316600090815260078201602090815260408083208390556008840190915281208190556001808301805491929091610d3f908490611d66565b90915550506003810154604080518681526001600160a01b038616602082015280820192909252517f21e12a7cad0da5928167e1084ea4d5fdf8d9af66657a2543a9ac76a0ca0814779181900360600190a150505050565b6000918252602082815260408084206001600160a01b0393909316845291905290205460ff1690565b600080516020611e09833981519152610dd881611708565b60008381526002602052604090205460ff166111415760008381526002602090815260408083206001600160a01b0386168452600801909152902054600114610e7c5760405162461bcd60e51b815260206004820152603060248201527f54726f706879204b696e67204172636164653a204e6f7420726567697374657260448201526f656420666f7220746869732067616d6560801b60648201526084016108aa565b600580546004546000868152600260209081526040808320909501546001600160a01b03168252600190819052938120909301548291610ebb91611d0f565b600087815260026020526040902060060154610ed79190611d47565b610ee19190611d27565b610eeb9190611d27565b60008581526002602052604081206006015491925090610f0b90836117fb565b6000868152600260209081526040808320600501546001600160a01b03908116845260019092528083205490516370a0823160e01b815230600482015293945091929116906370a082319060240160206040518083038186803b158015610f7157600080fd5b505afa158015610f85573d6000803e3d6000fd5b505050506040513d601f19601f82011682018060405250810190610fa99190611bfc565b905081811015610fb7578091505b6000868152600260209081526040808320600501546001600160a01b03908116845260019092529182902054915163a9059cbb60e01b815287821660048201526024810185905291169063a9059cbb90604401602060405180830381600087803b15801561102457600080fd5b505af1158015611038573d6000803e3d6000fd5b505050506040513d601f19601f8201168201806040525081019061105c9190611b75565b6110b35760405162461bcd60e51b815260206004820152602260248201527f54726f706879204b696e67204172636164653a205061796f7574206661696c65604482015261321760f11b60648201526084016108aa565b60008681526002602090815260408083206001600160a01b03891684526007018252918290205491519182527f557809284da7314475b1582804ae28e5f1349efc1fe970ea25d50fce75eb4f43910160405180910390a16040518281527f22427047e1a674a9aff59700a2c8d00ea96e017ddf9236690bdedf1f21f28d9d9060200160405180910390a15050505b6108b3836109e1565b60008181526002602090815260408083203380855260099091018352818420939093558051928352517f34aeefd5030be05fe70eebc8866d82f935a308eb9f334cba88f5e3bea1a0cae89281900390910190a150565b6000600080516020611e098339815191526111ba81611708565b60008481526002602090815260408083206001600160a01b038716845260090190915290205460011461125a5760008481526002602090815260408083206001600160a01b038716808552600990910183529281902060019081905581519384529183018790528201527f5621c8071929c7265ce41857be957499346fcbd5c32e82130f48e0907449d1e69060600160405180910390a1600191506112a8565b604080516001600160a01b03851681526020810186905260008183015290517f5621c8071929c7265ce41857be957499346fcbd5c32e82130f48e0907449d1e69181900360600190a1600091505b5092915050565b6000828152602081905260409020600101546112ca81611708565b6108b38383611796565b600081815260026020908152604080832033845260090190915290205460011461134a5760405162461bcd60e51b815260206004820152602160248201527f54726f706879204b696e67204172636164653a20556e617574686f72697a65646044820152601760f91b60648201526084016108aa565b6000818152600260205260409020600401546001146113ab5760405162461bcd60e51b815260206004820181905260248201527f54726f706879204b696e67204172636164653a2047616d6520636c6f7365642e60448201526064016108aa565b60008181526002602081905260409091206001810154910154116114245760405162461bcd60e51b815260206004820152602a60248201527f54726f706879204b696e67204172636164653a2047616d652066756c6c2e20206044820152692a393c9030b3b0b4b71760b11b60648201526084016108aa565b60008181526002602090815260408083203384526008019091529020541561149e5760405162461bcd60e51b815260206004820152602760248201527f54726f706879204b696e67204172636164653a20416c7265616479207265676960448201526639ba32b932b21760c91b60648201526084016108aa565b600081815260026020819052604090912001546115095760405162461bcd60e51b815260206004820152602360248201527f54726f706879204b696e67204172636164653a2047616d65206e6f7420666f7560448201526237321760e91b60648201526084016108aa565b6000818152600260209081526040808320600501546001600160a01b039081168452600190925290912054166323b872dd336000848152600260205260409081902060030154905160e084901b6001600160e01b03191681526001600160a01b0390921660048301523060248301526044820152606401602060405180830381600087803b15801561159a57600080fd5b505af11580156115ae573d6000803e3d6000fd5b505050506040513d601f19601f820116820180604052508101906115d29190611b75565b6116395760405162461bcd60e51b815260206004820152603260248201527f54726f706879204b696e67204172636164653a204d75737420617070726f7665604482015271103932b3b4b9ba3930ba34b7b7103332b29760711b60648201526084016108aa565b600081815260026020526040902060030154611658908290339061180e565b50565b600080516020611e0983398151915261167381611708565b600086815260026020818152604080842060016004820181905560068201869055600382018b90556005820180546001600160a01b0319166001600160a01b038c16179055810194909455918301869055825460ff191685151517909255518781527f9e5237c6a8bb45df74799cf138ebda4fed0574bed906da41387acdc4a3cbe3d8910160405180910390a1505050505050565b61165881336118ba565b61171c8282610d97565b610ade576000828152602081815260408083206001600160a01b03851684529091529020805460ff191660011790556117523390565b6001600160a01b0316816001600160a01b0316837f2f8788117e7eff1d82e926ec794901d17c78024a50270940304540a733656f0d60405160405180910390a45050565b6117a08282610d97565b15610ade576000828152602081815260408083206001600160a01b0385168085529252808320805460ff1916905551339285917ff6391f5c32d9c69d2a47ea670b442974b53935d1edc7fd64eb21e047a839171b9190a45050565b60006118078284611d66565b9392505050565b60008381526002602052604081206001808201805492939192909190611835908490611d0f565b90915550506001600160a01b038316600090815260078201602090815260408083208590556008840190915281206001905560068201805484929061187b908490611d0f565b909155505060405184815233907e7dc6ab80cc84c043b7b8d4fcafc802187470087f7ea7fccd2e17aecd0256a19060200160405180910390a250505050565b6118c48282610d97565b610ade576118dc816001600160a01b0316601461191e565b6118e783602061191e565b6040516020016118f8929190611c67565b60408051601f198184030181529082905262461bcd60e51b82526108aa91600401611cdc565b6060600061192d836002611d47565b611938906002611d0f565b67ffffffffffffffff81111561195e57634e487b7160e01b600052604160045260246000fd5b6040519080825280601f01601f191660200182016040528015611988576020820181803683370190505b509050600360fc1b816000815181106119b157634e487b7160e01b600052603260045260246000fd5b60200101906001600160f81b031916908160001a905350600f60fb1b816001815181106119ee57634e487b7160e01b600052603260045260246000fd5b60200101906001600160f81b031916908160001a9053506000611a12846002611d47565b611a1d906001611d0f565b90505b6001811115611ab1576f181899199a1a9b1b9c1cb0b131b232b360811b85600f1660108110611a5f57634e487b7160e01b600052603260045260246000fd5b1a60f81b828281518110611a8357634e487b7160e01b600052603260045260246000fd5b60200101906001600160f81b031916908160001a90535060049490941c93611aaa81611dad565b9050611a20565b5083156118075760405162461bcd60e51b815260206004820181905260248201527f537472696e67733a20686578206c656e67746820696e73756666696369656e7460448201526064016108aa565b80356001600160a01b0381168114611b1757600080fd5b919050565b600060208284031215611b2d578081fd5b61180782611b00565b600080600060608486031215611b4a578182fd5b611b5384611b00565b9250602084013591506040840135611b6a81611dda565b809150509250925092565b600060208284031215611b86578081fd5b815161180781611dda565b600060208284031215611ba2578081fd5b5035919050565b60008060408385031215611bbb578182fd5b82359150611bcb60208401611b00565b90509250929050565b600060208284031215611be5578081fd5b81356001600160e01b031981168114611807578182fd5b600060208284031215611c0d578081fd5b5051919050565b600080600080600060a08688031215611c2b578081fd5b8535945060208601359350611c4260408701611b00565b9250606086013591506080860135611c5981611dda565b809150509295509295909350565b7f416363657373436f6e74726f6c3a206163636f756e7420000000000000000000815260008351611c9f816017850160208801611d7d565b7001034b99036b4b9b9b4b733903937b6329607d1b6017918401918201528351611cd0816028840160208801611d7d565b01602801949350505050565b6020815260008251806020840152611cfb816040850160208701611d7d565b601f01601f19169190910160400192915050565b60008219821115611d2257611d22611dc4565b500190565b600082611d4257634e487b7160e01b81526012600452602481fd5b500490565b6000816000190483118215151615611d6157611d61611dc4565b500290565b600082821015611d7857611d78611dc4565b500390565b60005b83811015611d98578181015183820152602001611d80565b83811115611da7576000848401525b50505050565b600081611dbc57611dbc611dc4565b506000190190565b634e487b7160e01b600052601160045260246000fd5b801515811461165857600080fdfe3131fc8beb48b895197ad34f21c86afdf6a989a5cd911181952dbf8dfcf181923c13b5abbc85050d426f9500a16cfd9f7d94261c880b9a4e03d584d28c06059ca264697066735822122028ba609cb92e170949b2720f9b6760aaa336c13fe7580e96efe3d7f2b5974a0364736f6c63430008040033",
					"opcodes": "PUSH1 0x80 PUSH1 0x40 MSTORE PUSH1 0x12 PUSH1 0x3 DUP2 SWAP1 SSTORE PUSH3 0x18 SWAP1 PUSH1 0xA PUSH3 0x1AF JUMP JUMPDEST PUSH1 0x5 SSTORE CALLVALUE DUP1 ISZERO PUSH3 0x28 JUMPI PUSH1 0x0 DUP1 REVERT JUMPDEST POP PUSH3 0x36 PUSH1 0x0 CALLER PUSH3 0xB2 JUMP JUMPDEST PUSH3 0x62 PUSH32 0x3131FC8BEB48B895197AD34F21C86AFDF6A989A5CD911181952DBF8DFCF18192 CALLER PUSH3 0xB2 JUMP JUMPDEST PUSH3 0x8E PUSH32 0x3C13B5ABBC85050D426F9500A16CFD9F7D94261C880B9A4E03D584D28C06059C CALLER PUSH3 0xB2 JUMP JUMPDEST PUSH1 0x6 DUP1 SLOAD PUSH1 0x1 PUSH1 0x1 PUSH1 0xA0 SHL SUB NOT AND CALLER OR SWAP1 SSTORE PUSH8 0x16345785D8A0000 PUSH1 0x4 SSTORE PUSH3 0x28E JUMP JUMPDEST PUSH3 0xBE DUP3 DUP3 PUSH3 0x13B JUMP JUMPDEST PUSH3 0x137 JUMPI PUSH1 0x0 DUP3 DUP2 MSTORE PUSH1 0x20 DUP2 DUP2 MSTORE PUSH1 0x40 DUP1 DUP4 KECCAK256 PUSH1 0x1 PUSH1 0x1 PUSH1 0xA0 SHL SUB DUP6 AND DUP5 MSTORE SWAP1 SWAP2 MSTORE SWAP1 KECCAK256 DUP1 SLOAD PUSH1 0xFF NOT AND PUSH1 0x1 OR SWAP1 SSTORE PUSH3 0xF6 CALLER SWAP1 JUMP JUMPDEST PUSH1 0x1 PUSH1 0x1 PUSH1 0xA0 SHL SUB AND DUP2 PUSH1 0x1 PUSH1 0x1 PUSH1 0xA0 SHL SUB AND DUP4 PUSH32 0x2F8788117E7EFF1D82E926EC794901D17C78024A50270940304540A733656F0D PUSH1 0x40 MLOAD PUSH1 0x40 MLOAD DUP1 SWAP2 SUB SWAP1 LOG4 JUMPDEST POP POP JUMP JUMPDEST PUSH1 0x0 DUP3 DUP2 MSTORE PUSH1 0x20 DUP2 DUP2 MSTORE PUSH1 0x40 DUP1 DUP4 KECCAK256 PUSH1 0x1 PUSH1 0x1 PUSH1 0xA0 SHL SUB DUP6 AND DUP5 MSTORE SWAP1 SWAP2 MSTORE SWAP1 KECCAK256 SLOAD PUSH1 0xFF AND JUMPDEST SWAP3 SWAP2 POP POP JUMP JUMPDEST PUSH1 0x1 DUP2 DUP2 JUMPDEST DUP1 DUP6 GT ISZERO PUSH3 0x1A7 JUMPI DUP2 PUSH1 0x0 NOT DIV DUP3 GT ISZERO PUSH3 0x18B JUMPI PUSH3 0x18B PUSH3 0x278 JUMP JUMPDEST DUP1 DUP6 AND ISZERO PUSH3 0x199 JUMPI SWAP2 DUP2 MUL SWAP2 JUMPDEST SWAP4 DUP5 SHR SWAP4 SWAP1 DUP1 MUL SWAP1 PUSH3 0x16B JUMP JUMPDEST POP SWAP3 POP SWAP3 SWAP1 POP JUMP JUMPDEST PUSH1 0x0 PUSH3 0x1BD DUP4 DUP4 PUSH3 0x1C4 JUMP JUMPDEST SWAP4 SWAP3 POP POP POP JUMP JUMPDEST PUSH1 0x0 DUP3 PUSH3 0x1D5 JUMPI POP PUSH1 0x1 PUSH3 0x160 JUMP JUMPDEST DUP2 PUSH3 0x1E4 JUMPI POP PUSH1 0x0 PUSH3 0x160 JUMP JUMPDEST DUP2 PUSH1 0x1 DUP2 EQ PUSH3 0x1FD JUMPI PUSH1 0x2 DUP2 EQ PUSH3 0x208 JUMPI PUSH3 0x228 JUMP JUMPDEST PUSH1 0x1 SWAP2 POP POP PUSH3 0x160 JUMP JUMPDEST PUSH1 0xFF DUP5 GT ISZERO PUSH3 0x21C JUMPI PUSH3 0x21C PUSH3 0x278 JUMP JUMPDEST POP POP PUSH1 0x1 DUP3 SHL PUSH3 0x160 JUMP JUMPDEST POP PUSH1 0x20 DUP4 LT PUSH2 0x133 DUP4 LT AND PUSH1 0x4E DUP5 LT PUSH1 0xB DUP5 LT AND OR ISZERO PUSH3 0x24D JUMPI POP DUP2 DUP2 EXP PUSH3 0x160 JUMP JUMPDEST PUSH3 0x259 DUP4 DUP4 PUSH3 0x166 JUMP JUMPDEST DUP1 PUSH1 0x0 NOT DIV DUP3 GT ISZERO PUSH3 0x270 JUMPI PUSH3 0x270 PUSH3 0x278 JUMP JUMPDEST MUL SWAP4 SWAP3 POP POP POP JUMP JUMPDEST PUSH4 0x4E487B71 PUSH1 0xE0 SHL PUSH1 0x0 MSTORE PUSH1 0x11 PUSH1 0x4 MSTORE PUSH1 0x24 PUSH1 0x0 REVERT JUMPDEST PUSH2 0x1E5E DUP1 PUSH3 0x29E PUSH1 0x0 CODECOPY PUSH1 0x0 RETURN INVALID PUSH1 0x80 PUSH1 0x40 MSTORE CALLVALUE DUP1 ISZERO PUSH2 0x10 JUMPI PUSH1 0x0 DUP1 REVERT JUMPDEST POP PUSH1 0x4 CALLDATASIZE LT PUSH2 0x1D9 JUMPI PUSH1 0x0 CALLDATALOAD PUSH1 0xE0 SHR DUP1 PUSH4 0x91D14854 GT PUSH2 0x104 JUMPI DUP1 PUSH4 0xB9888D89 GT PUSH2 0xA2 JUMPI DUP1 PUSH4 0xD547741F GT PUSH2 0x71 JUMPI DUP1 PUSH4 0xD547741F EQ PUSH2 0x514 JUMPI DUP1 PUSH4 0xE6F091F9 EQ PUSH2 0x527 JUMPI DUP1 PUSH4 0xF207564E EQ PUSH2 0x55A JUMPI DUP1 PUSH4 0xF336EE3C EQ PUSH2 0x56D JUMPI PUSH1 0x0 DUP1 REVERT JUMPDEST DUP1 PUSH4 0xB9888D89 EQ PUSH2 0x448 JUMPI DUP1 PUSH4 0xC18E397E EQ PUSH2 0x45B JUMPI DUP1 PUSH4 0xC46ED45A EQ PUSH2 0x470 JUMPI DUP1 PUSH4 0xCCAF237F EQ PUSH2 0x479 JUMPI PUSH1 0x0 DUP1 REVERT JUMPDEST DUP1 PUSH4 0x9D00C61E GT PUSH2 0xDE JUMPI DUP1 PUSH4 0x9D00C61E EQ PUSH2 0x379 JUMPI DUP1 PUSH4 0x9F512E22 EQ PUSH2 0x3CB JUMPI DUP1 PUSH4 0xA217FDDF EQ PUSH2 0x3DE JUMPI DUP1 PUSH4 0xB22C376D EQ PUSH2 0x3E6 JUMPI PUSH1 0x0 DUP1 REVERT JUMPDEST DUP1 PUSH4 0x91D14854 EQ PUSH2 0x33E JUMPI DUP1 PUSH4 0x99597B70 EQ PUSH2 0x351 JUMPI DUP1 PUSH4 0x9C623683 EQ PUSH2 0x366 JUMPI PUSH1 0x0 DUP1 REVERT JUMPDEST DUP1 PUSH4 0x2BA67100 GT PUSH2 0x17C JUMPI DUP1 PUSH4 0x36568ABE GT PUSH2 0x14B JUMPI DUP1 PUSH4 0x36568ABE EQ PUSH2 0x2DA JUMPI DUP1 PUSH4 0x3E16518F EQ PUSH2 0x2ED JUMPI DUP1 PUSH4 0x7AD226DC EQ PUSH2 0x300 JUMPI DUP1 PUSH4 0x8DA5CB5B EQ PUSH2 0x313 JUMPI PUSH1 0x0 DUP1 REVERT JUMPDEST DUP1 PUSH4 0x2BA67100 EQ PUSH2 0x298 JUMPI DUP1 PUSH4 0x2D6EF310 EQ PUSH2 0x2AB JUMPI DUP1 PUSH4 0x2F2FF15D EQ PUSH2 0x2BE JUMPI DUP1 PUSH4 0x313CE567 EQ PUSH2 0x2D1 JUMPI PUSH1 0x0 DUP1 REVERT JUMPDEST DUP1 PUSH4 0x9A18635 GT PUSH2 0x1B8 JUMPI DUP1 PUSH4 0x9A18635 EQ PUSH2 0x22E JUMPI DUP1 PUSH4 0x248A55A1 EQ PUSH2 0x241 JUMPI DUP1 PUSH4 0x248A9CA3 EQ PUSH2 0x254 JUMPI DUP1 PUSH4 0x2AC5016F EQ PUSH2 0x285 JUMPI PUSH1 0x0 DUP1 REVERT JUMPDEST DUP1 PUSH3 0xF5544F EQ PUSH2 0x1DE JUMPI DUP1 PUSH4 0x1FFC9A7 EQ PUSH2 0x1F3 JUMPI DUP1 PUSH4 0x6602A48 EQ PUSH2 0x21B JUMPI JUMPDEST PUSH1 0x0 DUP1 REVERT JUMPDEST PUSH2 0x1F1 PUSH2 0x1EC CALLDATASIZE PUSH1 0x4 PUSH2 0x1B91 JUMP JUMPDEST PUSH2 0x580 JUMP JUMPDEST STOP JUMPDEST PUSH2 0x206 PUSH2 0x201 CALLDATASIZE PUSH1 0x4 PUSH2 0x1BD4 JUMP JUMPDEST PUSH2 0x5EC JUMP JUMPDEST PUSH1 0x40 MLOAD SWAP1 ISZERO ISZERO DUP2 MSTORE PUSH1 0x20 ADD JUMPDEST PUSH1 0x40 MLOAD DUP1 SWAP2 SUB SWAP1 RETURN JUMPDEST PUSH2 0x1F1 PUSH2 0x229 CALLDATASIZE PUSH1 0x4 PUSH2 0x1B36 JUMP JUMPDEST PUSH2 0x623 JUMP JUMPDEST PUSH2 0x1F1 PUSH2 0x23C CALLDATASIZE PUSH1 0x4 PUSH2 0x1B1C JUMP JUMPDEST PUSH2 0x711 JUMP JUMPDEST PUSH2 0x1F1 PUSH2 0x24F CALLDATASIZE PUSH1 0x4 PUSH2 0x1B91 JUMP JUMPDEST PUSH2 0x8B8 JUMP JUMPDEST PUSH2 0x277 PUSH2 0x262 CALLDATASIZE PUSH1 0x4 PUSH2 0x1B91 JUMP JUMPDEST PUSH1 0x0 SWAP1 DUP2 MSTORE PUSH1 0x20 DUP2 SWAP1 MSTORE PUSH1 0x40 SWAP1 KECCAK256 PUSH1 0x1 ADD SLOAD SWAP1 JUMP JUMPDEST PUSH1 0x40 MLOAD SWAP1 DUP2 MSTORE PUSH1 0x20 ADD PUSH2 0x212 JUMP JUMPDEST PUSH2 0x1F1 PUSH2 0x293 CALLDATASIZE PUSH1 0x4 PUSH2 0x1B91 JUMP JUMPDEST PUSH2 0x94B JUMP JUMPDEST PUSH2 0x1F1 PUSH2 0x2A6 CALLDATASIZE PUSH1 0x4 PUSH2 0x1BA9 JUMP JUMPDEST PUSH2 0x969 JUMP JUMPDEST PUSH2 0x1F1 PUSH2 0x2B9 CALLDATASIZE PUSH1 0x4 PUSH2 0x1B91 JUMP JUMPDEST PUSH2 0x9E1 JUMP JUMPDEST PUSH2 0x1F1 PUSH2 0x2CC CALLDATASIZE PUSH1 0x4 PUSH2 0x1BA9 JUMP JUMPDEST PUSH2 0xA3F JUMP JUMPDEST PUSH2 0x277 PUSH1 0x3 SLOAD DUP2 JUMP JUMPDEST PUSH2 0x1F1 PUSH2 0x2E8 CALLDATASIZE PUSH1 0x4 PUSH2 0x1BA9 JUMP JUMPDEST PUSH2 0xA64 JUMP JUMPDEST PUSH2 0x1F1 PUSH2 0x2FB CALLDATASIZE PUSH1 0x4 PUSH2 0x1B1C JUMP JUMPDEST PUSH2 0xAE2 JUMP JUMPDEST PUSH2 0x1F1 PUSH2 0x30E CALLDATASIZE PUSH1 0x4 PUSH2 0x1BA9 JUMP JUMPDEST PUSH2 0xB1F JUMP JUMPDEST PUSH1 0x6 SLOAD PUSH2 0x326 SWAP1 PUSH1 0x1 PUSH1 0x1 PUSH1 0xA0 SHL SUB AND DUP2 JUMP JUMPDEST PUSH1 0x40 MLOAD PUSH1 0x1 PUSH1 0x1 PUSH1 0xA0 SHL SUB SWAP1 SWAP2 AND DUP2 MSTORE PUSH1 0x20 ADD PUSH2 0x212 JUMP JUMPDEST PUSH2 0x206 PUSH2 0x34C CALLDATASIZE PUSH1 0x4 PUSH2 0x1BA9 JUMP JUMPDEST PUSH2 0xD97 JUMP JUMPDEST PUSH2 0x277 PUSH1 0x0 DUP1 MLOAD PUSH1 0x20 PUSH2 0x1E09 DUP4 CODECOPY DUP2 MLOAD SWAP2 MSTORE DUP2 JUMP JUMPDEST PUSH2 0x1F1 PUSH2 0x374 CALLDATASIZE PUSH1 0x4 PUSH2 0x1BA9 JUMP JUMPDEST PUSH2 0xDC0 JUMP JUMPDEST PUSH2 0x3B4 PUSH2 0x387 CALLDATASIZE PUSH1 0x4 PUSH2 0x1B1C JUMP JUMPDEST PUSH1 0x1 PUSH1 0x1 PUSH1 0xA0 SHL SUB AND PUSH1 0x0 SWAP1 DUP2 MSTORE PUSH1 0x1 PUSH1 0x20 DUP2 SWAP1 MSTORE PUSH1 0x40 SWAP1 SWAP2 KECCAK256 DUP1 SLOAD SWAP2 ADD SLOAD PUSH1 0x1 PUSH1 0xA0 SHL SWAP1 SWAP2 DIV PUSH1 0xFF AND SWAP2 JUMP JUMPDEST PUSH1 0x40 DUP1 MLOAD SWAP3 ISZERO ISZERO DUP4 MSTORE PUSH1 0x20 DUP4 ADD SWAP2 SWAP1 SWAP2 MSTORE ADD PUSH2 0x212 JUMP JUMPDEST PUSH2 0x1F1 PUSH2 0x3D9 CALLDATASIZE PUSH1 0x4 PUSH2 0x1B91 JUMP JUMPDEST PUSH2 0x114A JUMP JUMPDEST PUSH2 0x277 PUSH1 0x0 DUP2 JUMP JUMPDEST PUSH2 0x423 PUSH2 0x3F4 CALLDATASIZE PUSH1 0x4 PUSH2 0x1B1C JUMP JUMPDEST PUSH1 0x1 PUSH1 0x20 DUP2 SWAP1 MSTORE PUSH1 0x0 SWAP2 DUP3 MSTORE PUSH1 0x40 SWAP1 SWAP2 KECCAK256 DUP1 SLOAD SWAP2 ADD SLOAD PUSH1 0x1 PUSH1 0x1 PUSH1 0xA0 SHL SUB DUP3 AND SWAP2 PUSH1 0x1 PUSH1 0xA0 SHL SWAP1 DIV PUSH1 0xFF AND SWAP1 DUP4 JUMP JUMPDEST PUSH1 0x40 DUP1 MLOAD PUSH1 0x1 PUSH1 0x1 PUSH1 0xA0 SHL SUB SWAP1 SWAP5 AND DUP5 MSTORE SWAP2 ISZERO ISZERO PUSH1 0x20 DUP5 ADD MSTORE SWAP1 DUP3 ADD MSTORE PUSH1 0x60 ADD PUSH2 0x212 JUMP JUMPDEST PUSH2 0x206 PUSH2 0x456 CALLDATASIZE PUSH1 0x4 PUSH2 0x1BA9 JUMP JUMPDEST PUSH2 0x11A0 JUMP JUMPDEST PUSH2 0x277 PUSH1 0x0 DUP1 MLOAD PUSH1 0x20 PUSH2 0x1DE9 DUP4 CODECOPY DUP2 MLOAD SWAP2 MSTORE DUP2 JUMP JUMPDEST PUSH2 0x277 PUSH1 0x4 SLOAD DUP2 JUMP JUMPDEST PUSH2 0x4D4 PUSH2 0x487 CALLDATASIZE PUSH1 0x4 PUSH2 0x1B91 JUMP JUMPDEST PUSH1 0x2 PUSH1 0x20 DUP2 SWAP1 MSTORE PUSH1 0x0 SWAP2 DUP3 MSTORE PUSH1 0x40 SWAP1 SWAP2 KECCAK256 DUP1 SLOAD PUSH1 0x1 DUP3 ADD SLOAD SWAP3 DUP3 ADD SLOAD PUSH1 0x3 DUP4 ADD SLOAD PUSH1 0x4 DUP5 ADD SLOAD PUSH1 0x5 DUP6 ADD SLOAD PUSH1 0x6 SWAP1 SWAP6 ADD SLOAD PUSH1 0xFF SWAP1 SWAP5 AND SWAP6 SWAP5 SWAP3 SWAP4 SWAP2 SWAP3 SWAP1 SWAP2 PUSH1 0x1 PUSH1 0x1 PUSH1 0xA0 SHL SUB SWAP1 SWAP2 AND SWAP1 DUP8 JUMP JUMPDEST PUSH1 0x40 DUP1 MLOAD SWAP8 ISZERO ISZERO DUP9 MSTORE PUSH1 0x20 DUP9 ADD SWAP7 SWAP1 SWAP7 MSTORE SWAP5 DUP7 ADD SWAP4 SWAP1 SWAP4 MSTORE PUSH1 0x60 DUP6 ADD SWAP2 SWAP1 SWAP2 MSTORE PUSH1 0x80 DUP5 ADD MSTORE PUSH1 0x1 PUSH1 0x1 PUSH1 0xA0 SHL SUB AND PUSH1 0xA0 DUP4 ADD MSTORE PUSH1 0xC0 DUP3 ADD MSTORE PUSH1 0xE0 ADD PUSH2 0x212 JUMP JUMPDEST PUSH2 0x1F1 PUSH2 0x522 CALLDATASIZE PUSH1 0x4 PUSH2 0x1BA9 JUMP JUMPDEST PUSH2 0x12AF JUMP JUMPDEST PUSH2 0x206 PUSH2 0x535 CALLDATASIZE PUSH1 0x4 PUSH2 0x1B1C JUMP JUMPDEST PUSH1 0x1 PUSH1 0x1 PUSH1 0xA0 SHL SUB AND PUSH1 0x0 SWAP1 DUP2 MSTORE PUSH1 0x1 PUSH1 0x20 MSTORE PUSH1 0x40 SWAP1 KECCAK256 SLOAD PUSH1 0x1 PUSH1 0xA0 SHL SWAP1 DIV PUSH1 0xFF AND SWAP1 JUMP JUMPDEST PUSH2 0x1F1 PUSH2 0x568 CALLDATASIZE PUSH1 0x4 PUSH2 0x1B91 JUMP JUMPDEST PUSH2 0x12D4 JUMP JUMPDEST PUSH2 0x1F1 PUSH2 0x57B CALLDATASIZE PUSH1 0x4 PUSH2 0x1C14 JUMP JUMPDEST PUSH2 0x165B JUMP JUMPDEST PUSH1 0x0 DUP1 MLOAD PUSH1 0x20 PUSH2 0x1E09 DUP4 CODECOPY DUP2 MLOAD SWAP2 MSTORE PUSH2 0x598 DUP2 PUSH2 0x1708 JUMP JUMPDEST PUSH1 0x0 DUP3 DUP2 MSTORE PUSH1 0x2 PUSH1 0x20 MSTORE PUSH1 0x40 SWAP1 DUP2 SWAP1 KECCAK256 PUSH1 0x1 PUSH1 0x4 SWAP1 SWAP2 ADD SSTORE MLOAD PUSH32 0x651A9760985EDC53055BF2462CB4437B9BE3DE87AA3EECF2C05782E8B58EBA19 SWAP1 PUSH2 0x5E0 SWAP1 DUP5 DUP2 MSTORE PUSH1 0x20 ADD SWAP1 JUMP JUMPDEST PUSH1 0x40 MLOAD DUP1 SWAP2 SUB SWAP1 LOG1 POP POP JUMP JUMPDEST PUSH1 0x0 PUSH1 0x1 PUSH1 0x1 PUSH1 0xE0 SHL SUB NOT DUP3 AND PUSH4 0x7965DB0B PUSH1 0xE0 SHL EQ DUP1 PUSH2 0x61D JUMPI POP PUSH4 0x1FFC9A7 PUSH1 0xE0 SHL PUSH1 0x1 PUSH1 0x1 PUSH1 0xE0 SHL SUB NOT DUP4 AND EQ JUMPDEST SWAP3 SWAP2 POP POP JUMP JUMPDEST PUSH1 0x0 DUP1 MLOAD PUSH1 0x20 PUSH2 0x1DE9 DUP4 CODECOPY DUP2 MLOAD SWAP2 MSTORE PUSH2 0x63B DUP2 PUSH2 0x1708 JUMP JUMPDEST PUSH1 0x1 PUSH1 0x1 PUSH1 0xA0 SHL SUB DUP5 AND PUSH1 0x0 DUP2 DUP2 MSTORE PUSH1 0x1 PUSH1 0x20 DUP2 SWAP1 MSTORE PUSH1 0x40 SWAP1 SWAP2 KECCAK256 SWAP1 DUP2 ADD DUP6 SWAP1 SSTORE DUP1 SLOAD PUSH1 0x1 PUSH1 0x1 PUSH1 0xA8 SHL SUB NOT AND PUSH1 0x1 PUSH1 0xA0 SHL DUP6 ISZERO ISZERO MUL PUSH1 0x1 PUSH1 0x1 PUSH1 0xA0 SHL SUB NOT AND OR DUP3 OR SWAP1 SSTORE DUP5 SWAP1 PUSH4 0x95EA7B3 CALLER PUSH1 0x40 MLOAD PUSH1 0x1 PUSH1 0x1 PUSH1 0xE0 SHL SUB NOT PUSH1 0xE0 DUP5 SWAP1 SHL AND DUP2 MSTORE PUSH1 0x1 PUSH1 0x1 PUSH1 0xA0 SHL SUB SWAP1 SWAP2 AND PUSH1 0x4 DUP3 ADD MSTORE PUSH1 0x0 NOT PUSH1 0x24 DUP3 ADD MSTORE PUSH1 0x44 ADD PUSH1 0x20 PUSH1 0x40 MLOAD DUP1 DUP4 SUB DUP2 PUSH1 0x0 DUP8 DUP1 EXTCODESIZE ISZERO DUP1 ISZERO PUSH2 0x6D1 JUMPI PUSH1 0x0 DUP1 REVERT JUMPDEST POP GAS CALL ISZERO DUP1 ISZERO PUSH2 0x6E5 JUMPI RETURNDATASIZE PUSH1 0x0 DUP1 RETURNDATACOPY RETURNDATASIZE PUSH1 0x0 REVERT JUMPDEST POP POP POP POP PUSH1 0x40 MLOAD RETURNDATASIZE PUSH1 0x1F NOT PUSH1 0x1F DUP3 ADD AND DUP3 ADD DUP1 PUSH1 0x40 MSTORE POP DUP2 ADD SWAP1 PUSH2 0x709 SWAP2 SWAP1 PUSH2 0x1B75 JUMP JUMPDEST POP POP POP POP POP POP JUMP JUMPDEST PUSH1 0x0 PUSH2 0x71C DUP2 PUSH2 0x1708 JUMP JUMPDEST PUSH1 0x1 PUSH1 0x1 PUSH1 0xA0 SHL SUB DUP3 DUP2 AND PUSH1 0x0 SWAP1 DUP2 MSTORE PUSH1 0x1 PUSH1 0x20 MSTORE PUSH1 0x40 DUP1 DUP3 KECCAK256 SLOAD SWAP1 MLOAD PUSH4 0x70A08231 PUSH1 0xE0 SHL DUP2 MSTORE ADDRESS PUSH1 0x4 DUP3 ADD MSTORE SWAP2 SWAP3 AND SWAP1 PUSH4 0x70A08231 SWAP1 PUSH1 0x24 ADD PUSH1 0x20 PUSH1 0x40 MLOAD DUP1 DUP4 SUB DUP2 DUP7 DUP1 EXTCODESIZE ISZERO DUP1 ISZERO PUSH2 0x76E JUMPI PUSH1 0x0 DUP1 REVERT JUMPDEST POP GAS STATICCALL ISZERO DUP1 ISZERO PUSH2 0x782 JUMPI RETURNDATASIZE PUSH1 0x0 DUP1 RETURNDATACOPY RETURNDATASIZE PUSH1 0x0 REVERT JUMPDEST POP POP POP POP PUSH1 0x40 MLOAD RETURNDATASIZE PUSH1 0x1F NOT PUSH1 0x1F DUP3 ADD AND DUP3 ADD DUP1 PUSH1 0x40 MSTORE POP DUP2 ADD SWAP1 PUSH2 0x7A6 SWAP2 SWAP1 PUSH2 0x1BFC JUMP JUMPDEST SWAP1 POP DUP1 ISZERO PUSH2 0x8B3 JUMPI PUSH1 0x1 PUSH1 0x1 PUSH1 0xA0 SHL SUB DUP4 DUP2 AND PUSH1 0x0 SWAP1 DUP2 MSTORE PUSH1 0x1 PUSH1 0x20 MSTORE PUSH1 0x40 SWAP1 KECCAK256 SLOAD AND PUSH4 0xA9059CBB CALLER PUSH1 0x40 MLOAD PUSH1 0x1 PUSH1 0x1 PUSH1 0xE0 SHL SUB NOT PUSH1 0xE0 DUP5 SWAP1 SHL AND DUP2 MSTORE PUSH1 0x1 PUSH1 0x1 PUSH1 0xA0 SHL SUB SWAP1 SWAP2 AND PUSH1 0x4 DUP3 ADD MSTORE PUSH1 0x24 DUP2 ADD DUP5 SWAP1 MSTORE PUSH1 0x44 ADD PUSH1 0x20 PUSH1 0x40 MLOAD DUP1 DUP4 SUB DUP2 PUSH1 0x0 DUP8 DUP1 EXTCODESIZE ISZERO DUP1 ISZERO PUSH2 0x817 JUMPI PUSH1 0x0 DUP1 REVERT JUMPDEST POP GAS CALL ISZERO DUP1 ISZERO PUSH2 0x82B JUMPI RETURNDATASIZE PUSH1 0x0 DUP1 RETURNDATACOPY RETURNDATASIZE PUSH1 0x0 REVERT JUMPDEST POP POP POP POP PUSH1 0x40 MLOAD RETURNDATASIZE PUSH1 0x1F NOT PUSH1 0x1F DUP3 ADD AND DUP3 ADD DUP1 PUSH1 0x40 MSTORE POP DUP2 ADD SWAP1 PUSH2 0x84F SWAP2 SWAP1 PUSH2 0x1B75 JUMP JUMPDEST PUSH2 0x8B3 JUMPI PUSH1 0x40 MLOAD PUSH3 0x461BCD PUSH1 0xE5 SHL DUP2 MSTORE PUSH1 0x20 PUSH1 0x4 DUP3 ADD MSTORE PUSH1 0x2A PUSH1 0x24 DUP3 ADD MSTORE PUSH32 0x54726F706879204B696E67204172636164653A205265636F6E63696C69617469 PUSH1 0x44 DUP3 ADD MSTORE PUSH10 0x37B7103330B4B632B217 PUSH1 0xB1 SHL PUSH1 0x64 DUP3 ADD MSTORE PUSH1 0x84 ADD JUMPDEST PUSH1 0x40 MLOAD DUP1 SWAP2 SUB SWAP1 REVERT JUMPDEST POP POP POP JUMP JUMPDEST PUSH1 0x0 DUP1 MLOAD PUSH1 0x20 PUSH2 0x1E09 DUP4 CODECOPY DUP2 MLOAD SWAP2 MSTORE PUSH2 0x8D0 DUP2 PUSH2 0x1708 JUMP JUMPDEST PUSH1 0x0 DUP3 DUP2 MSTORE PUSH1 0x2 PUSH1 0x20 DUP2 DUP2 MSTORE PUSH1 0x40 DUP1 DUP5 KECCAK256 DUP1 SLOAD PUSH1 0xFF NOT AND DUP2 SSTORE PUSH1 0x1 DUP2 ADD DUP6 SWAP1 SSTORE SWAP3 DUP4 ADD DUP5 SWAP1 SSTORE PUSH1 0x3 DUP4 ADD DUP5 SWAP1 SSTORE PUSH1 0x4 DUP4 ADD DUP5 SWAP1 SSTORE PUSH1 0x5 DUP4 ADD DUP1 SLOAD PUSH1 0x1 PUSH1 0x1 PUSH1 0xA0 SHL SUB NOT AND SWAP1 SSTORE PUSH1 0x6 SWAP1 SWAP3 ADD SWAP3 SWAP1 SWAP3 SSTORE MLOAD DUP4 DUP2 MSTORE PUSH32 0xD0B153E02E23F4F21D020465B4DAC7B1114893D05DB395ED2511F879C3AC90B4 SWAP2 ADD PUSH2 0x5E0 JUMP JUMPDEST PUSH1 0x0 DUP1 MLOAD PUSH1 0x20 PUSH2 0x1DE9 DUP4 CODECOPY DUP2 MLOAD SWAP2 MSTORE PUSH2 0x963 DUP2 PUSH2 0x1708 JUMP JUMPDEST POP PUSH1 0x4 SSTORE JUMP JUMPDEST PUSH1 0x0 DUP1 MLOAD PUSH1 0x20 PUSH2 0x1E09 DUP4 CODECOPY DUP2 MLOAD SWAP2 MSTORE PUSH2 0x981 DUP2 PUSH2 0x1708 JUMP JUMPDEST PUSH1 0x0 DUP4 DUP2 MSTORE PUSH1 0x2 PUSH1 0x20 SWAP1 DUP2 MSTORE PUSH1 0x40 DUP1 DUP4 KECCAK256 PUSH1 0x1 PUSH1 0x1 PUSH1 0xA0 SHL SUB DUP7 AND DUP1 DUP6 MSTORE PUSH1 0x9 SWAP1 SWAP2 ADD DUP4 MSTORE DUP2 DUP5 KECCAK256 SWAP4 SWAP1 SWAP4 SSTORE MLOAD SWAP2 DUP3 MSTORE PUSH32 0x34AEEFD5030BE05FE70EEBC8866D82F935A308EB9F334CBA88F5E3BEA1A0CAE8 SWAP2 ADD PUSH1 0x40 MLOAD DUP1 SWAP2 SUB SWAP1 LOG1 POP POP POP JUMP JUMPDEST PUSH1 0x0 DUP1 MLOAD PUSH1 0x20 PUSH2 0x1E09 DUP4 CODECOPY DUP2 MLOAD SWAP2 MSTORE PUSH2 0x9F9 DUP2 PUSH2 0x1708 JUMP JUMPDEST PUSH1 0x0 DUP3 DUP2 MSTORE PUSH1 0x2 PUSH1 0x20 MSTORE PUSH1 0x40 DUP1 DUP3 KECCAK256 PUSH1 0x4 ADD SWAP2 SWAP1 SWAP2 SSTORE MLOAD PUSH32 0x827E8BFF9F46048F8351964D2C871D09E4F4231513CF2FCB786649C68732E24F SWAP1 PUSH2 0x5E0 SWAP1 DUP5 DUP2 MSTORE PUSH1 0x20 ADD SWAP1 JUMP JUMPDEST PUSH1 0x0 DUP3 DUP2 MSTORE PUSH1 0x20 DUP2 SWAP1 MSTORE PUSH1 0x40 SWAP1 KECCAK256 PUSH1 0x1 ADD SLOAD PUSH2 0xA5A DUP2 PUSH2 0x1708 JUMP JUMPDEST PUSH2 0x8B3 DUP4 DUP4 PUSH2 0x1712 JUMP JUMPDEST PUSH1 0x1 PUSH1 0x1 PUSH1 0xA0 SHL SUB DUP2 AND CALLER EQ PUSH2 0xAD4 JUMPI PUSH1 0x40 MLOAD PUSH3 0x461BCD PUSH1 0xE5 SHL DUP2 MSTORE PUSH1 0x20 PUSH1 0x4 DUP3 ADD MSTORE PUSH1 0x2F PUSH1 0x24 DUP3 ADD MSTORE PUSH32 0x416363657373436F6E74726F6C3A2063616E206F6E6C792072656E6F756E6365 PUSH1 0x44 DUP3 ADD MSTORE PUSH15 0x103937B632B9903337B91039B2B633 PUSH1 0x89 SHL PUSH1 0x64 DUP3 ADD MSTORE PUSH1 0x84 ADD PUSH2 0x8AA JUMP JUMPDEST PUSH2 0xADE DUP3 DUP3 PUSH2 0x1796 JUMP JUMPDEST POP POP JUMP JUMPDEST PUSH1 0x0 DUP1 MLOAD PUSH1 0x20 PUSH2 0x1DE9 DUP4 CODECOPY DUP2 MLOAD SWAP2 MSTORE PUSH2 0xAFA DUP2 PUSH2 0x1708 JUMP JUMPDEST POP PUSH1 0x1 PUSH1 0x1 PUSH1 0xA0 SHL SUB AND PUSH1 0x0 SWAP1 DUP2 MSTORE PUSH1 0x1 PUSH1 0x20 MSTORE PUSH1 0x40 SWAP1 KECCAK256 DUP1 SLOAD PUSH1 0xFF PUSH1 0xA0 SHL NOT AND SWAP1 SSTORE JUMP JUMPDEST PUSH1 0x0 DUP1 MLOAD PUSH1 0x20 PUSH2 0x1E09 DUP4 CODECOPY DUP2 MLOAD SWAP2 MSTORE PUSH2 0xB37 DUP2 PUSH2 0x1708 JUMP JUMPDEST PUSH1 0x0 DUP4 DUP2 MSTORE PUSH1 0x2 PUSH1 0x20 MSTORE PUSH1 0x40 SWAP1 KECCAK256 SLOAD PUSH1 0xFF AND PUSH2 0x8B3 JUMPI PUSH1 0x0 DUP4 DUP2 MSTORE PUSH1 0x2 PUSH1 0x20 SWAP1 DUP2 MSTORE PUSH1 0x40 DUP1 DUP4 KECCAK256 PUSH1 0x1 PUSH1 0x1 PUSH1 0xA0 SHL SUB DUP7 AND DUP5 MSTORE PUSH1 0x8 ADD SWAP1 SWAP2 MSTORE SWAP1 KECCAK256 SLOAD PUSH1 0x1 EQ PUSH2 0xBDC JUMPI PUSH1 0x40 MLOAD PUSH3 0x461BCD PUSH1 0xE5 SHL DUP2 MSTORE PUSH1 0x20 PUSH1 0x4 DUP3 ADD MSTORE PUSH1 0x31 PUSH1 0x24 DUP3 ADD MSTORE PUSH32 0x54726F706879204B696E67204172636164653A204E6F74207265676973746572 PUSH1 0x44 DUP3 ADD MSTORE PUSH17 0x32B2103337B9103A3434B99033B0B6B297 PUSH1 0x79 SHL PUSH1 0x64 DUP3 ADD MSTORE PUSH1 0x84 ADD PUSH2 0x8AA JUMP JUMPDEST PUSH1 0x0 DUP4 DUP2 MSTORE PUSH1 0x2 PUSH1 0x20 SWAP1 DUP2 MSTORE PUSH1 0x40 DUP1 DUP4 KECCAK256 PUSH1 0x5 DUP2 ADD SLOAD PUSH1 0x1 PUSH1 0x1 PUSH1 0xA0 SHL SUB SWAP1 DUP2 AND DUP6 MSTORE PUSH1 0x1 SWAP1 SWAP4 MSTORE SWAP3 DUP2 SWAP1 KECCAK256 SLOAD PUSH1 0x3 DUP5 ADD SLOAD SWAP2 MLOAD PUSH4 0xA9059CBB PUSH1 0xE0 SHL DUP2 MSTORE DUP7 DUP5 AND PUSH1 0x4 DUP3 ADD MSTORE PUSH1 0x24 DUP2 ADD SWAP3 SWAP1 SWAP3 MSTORE SWAP1 SWAP2 AND SWAP1 PUSH4 0xA9059CBB SWAP1 PUSH1 0x44 ADD PUSH1 0x20 PUSH1 0x40 MLOAD DUP1 DUP4 SUB DUP2 PUSH1 0x0 DUP8 DUP1 EXTCODESIZE ISZERO DUP1 ISZERO PUSH2 0xC51 JUMPI PUSH1 0x0 DUP1 REVERT JUMPDEST POP GAS CALL ISZERO DUP1 ISZERO PUSH2 0xC65 JUMPI RETURNDATASIZE PUSH1 0x0 DUP1 RETURNDATACOPY RETURNDATASIZE PUSH1 0x0 REVERT JUMPDEST POP POP POP POP PUSH1 0x40 MLOAD RETURNDATASIZE PUSH1 0x1F NOT PUSH1 0x1F DUP3 ADD AND DUP3 ADD DUP1 PUSH1 0x40 MSTORE POP DUP2 ADD SWAP1 PUSH2 0xC89 SWAP2 SWAP1 PUSH2 0x1B75 JUMP JUMPDEST PUSH2 0xCE0 JUMPI PUSH1 0x40 MLOAD PUSH3 0x461BCD PUSH1 0xE5 SHL DUP2 MSTORE PUSH1 0x20 PUSH1 0x4 DUP3 ADD MSTORE PUSH1 0x22 PUSH1 0x24 DUP3 ADD MSTORE PUSH32 0x54726F706879204B696E67204172636164653A20526566756E64206661696C65 PUSH1 0x44 DUP3 ADD MSTORE PUSH2 0x3217 PUSH1 0xF1 SHL PUSH1 0x64 DUP3 ADD MSTORE PUSH1 0x84 ADD PUSH2 0x8AA JUMP JUMPDEST DUP1 PUSH1 0x3 ADD SLOAD DUP2 PUSH1 0x6 ADD PUSH1 0x0 DUP3 DUP3 SLOAD PUSH2 0xCF8 SWAP2 SWAP1 PUSH2 0x1D66 JUMP JUMPDEST SWAP1 SWAP2 SSTORE POP POP PUSH1 0x1 PUSH1 0x1 PUSH1 0xA0 SHL SUB DUP4 AND PUSH1 0x0 SWAP1 DUP2 MSTORE PUSH1 0x7 DUP3 ADD PUSH1 0x20 SWAP1 DUP2 MSTORE PUSH1 0x40 DUP1 DUP4 KECCAK256 DUP4 SWAP1 SSTORE PUSH1 0x8 DUP5 ADD SWAP1 SWAP2 MSTORE DUP2 KECCAK256 DUP2 SWAP1 SSTORE PUSH1 0x1 DUP1 DUP4 ADD DUP1 SLOAD SWAP2 SWAP3 SWAP1 SWAP2 PUSH2 0xD3F SWAP1 DUP5 SWAP1 PUSH2 0x1D66 JUMP JUMPDEST SWAP1 SWAP2 SSTORE POP POP PUSH1 0x3 DUP2 ADD SLOAD PUSH1 0x40 DUP1 MLOAD DUP7 DUP2 MSTORE PUSH1 0x1 PUSH1 0x1 PUSH1 0xA0 SHL SUB DUP7 AND PUSH1 0x20 DUP3 ADD MSTORE DUP1 DUP3 ADD SWAP3 SWAP1 SWAP3 MSTORE MLOAD PUSH32 0x21E12A7CAD0DA5928167E1084EA4D5FDF8D9AF66657A2543A9AC76A0CA081477 SWAP2 DUP2 SWAP1 SUB PUSH1 0x60 ADD SWAP1 LOG1 POP POP POP POP JUMP JUMPDEST PUSH1 0x0 SWAP2 DUP3 MSTORE PUSH1 0x20 DUP3 DUP2 MSTORE PUSH1 0x40 DUP1 DUP5 KECCAK256 PUSH1 0x1 PUSH1 0x1 PUSH1 0xA0 SHL SUB SWAP4 SWAP1 SWAP4 AND DUP5 MSTORE SWAP2 SWAP1 MSTORE SWAP1 KECCAK256 SLOAD PUSH1 0xFF AND SWAP1 JUMP JUMPDEST PUSH1 0x0 DUP1 MLOAD PUSH1 0x20 PUSH2 0x1E09 DUP4 CODECOPY DUP2 MLOAD SWAP2 MSTORE PUSH2 0xDD8 DUP2 PUSH2 0x1708 JUMP JUMPDEST PUSH1 0x0 DUP4 DUP2 MSTORE PUSH1 0x2 PUSH1 0x20 MSTORE PUSH1 0x40 SWAP1 KECCAK256 SLOAD PUSH1 0xFF AND PUSH2 0x1141 JUMPI PUSH1 0x0 DUP4 DUP2 MSTORE PUSH1 0x2 PUSH1 0x20 SWAP1 DUP2 MSTORE PUSH1 0x40 DUP1 DUP4 KECCAK256 PUSH1 0x1 PUSH1 0x1 PUSH1 0xA0 SHL SUB DUP7 AND DUP5 MSTORE PUSH1 0x8 ADD SWAP1 SWAP2 MSTORE SWAP1 KECCAK256 SLOAD PUSH1 0x1 EQ PUSH2 0xE7C JUMPI PUSH1 0x40 MLOAD PUSH3 0x461BCD PUSH1 0xE5 SHL DUP2 MSTORE PUSH1 0x20 PUSH1 0x4 DUP3 ADD MSTORE PUSH1 0x30 PUSH1 0x24 DUP3 ADD MSTORE PUSH32 0x54726F706879204B696E67204172636164653A204E6F74207265676973746572 PUSH1 0x44 DUP3 ADD MSTORE PUSH16 0x656420666F7220746869732067616D65 PUSH1 0x80 SHL PUSH1 0x64 DUP3 ADD MSTORE PUSH1 0x84 ADD PUSH2 0x8AA JUMP JUMPDEST PUSH1 0x5 DUP1 SLOAD PUSH1 0x4 SLOAD PUSH1 0x0 DUP7 DUP2 MSTORE PUSH1 0x2 PUSH1 0x20 SWAP1 DUP2 MSTORE PUSH1 0x40 DUP1 DUP4 KECCAK256 SWAP1 SWAP6 ADD SLOAD PUSH1 0x1 PUSH1 0x1 PUSH1 0xA0 SHL SUB AND DUP3 MSTORE PUSH1 0x1 SWAP1 DUP2 SWAP1 MSTORE SWAP4 DUP2 KECCAK256 SWAP1 SWAP4 ADD SLOAD DUP3 SWAP2 PUSH2 0xEBB SWAP2 PUSH2 0x1D0F JUMP JUMPDEST PUSH1 0x0 DUP8 DUP2 MSTORE PUSH1 0x2 PUSH1 0x20 MSTORE PUSH1 0x40 SWAP1 KECCAK256 PUSH1 0x6 ADD SLOAD PUSH2 0xED7 SWAP2 SWAP1 PUSH2 0x1D47 JUMP JUMPDEST PUSH2 0xEE1 SWAP2 SWAP1 PUSH2 0x1D27 JUMP JUMPDEST PUSH2 0xEEB SWAP2 SWAP1 PUSH2 0x1D27 JUMP JUMPDEST PUSH1 0x0 DUP6 DUP2 MSTORE PUSH1 0x2 PUSH1 0x20 MSTORE PUSH1 0x40 DUP2 KECCAK256 PUSH1 0x6 ADD SLOAD SWAP2 SWAP3 POP SWAP1 PUSH2 0xF0B SWAP1 DUP4 PUSH2 0x17FB JUMP JUMPDEST PUSH1 0x0 DUP7 DUP2 MSTORE PUSH1 0x2 PUSH1 0x20 SWAP1 DUP2 MSTORE PUSH1 0x40 DUP1 DUP4 KECCAK256 PUSH1 0x5 ADD SLOAD PUSH1 0x1 PUSH1 0x1 PUSH1 0xA0 SHL SUB SWAP1 DUP2 AND DUP5 MSTORE PUSH1 0x1 SWAP1 SWAP3 MSTORE DUP1 DUP4 KECCAK256 SLOAD SWAP1 MLOAD PUSH4 0x70A08231 PUSH1 0xE0 SHL DUP2 MSTORE ADDRESS PUSH1 0x4 DUP3 ADD MSTORE SWAP4 SWAP5 POP SWAP2 SWAP3 SWAP2 AND SWAP1 PUSH4 0x70A08231 SWAP1 PUSH1 0x24 ADD PUSH1 0x20 PUSH1 0x40 MLOAD DUP1 DUP4 SUB DUP2 DUP7 DUP1 EXTCODESIZE ISZERO DUP1 ISZERO PUSH2 0xF71 JUMPI PUSH1 0x0 DUP1 REVERT JUMPDEST POP GAS STATICCALL ISZERO DUP1 ISZERO PUSH2 0xF85 JUMPI RETURNDATASIZE PUSH1 0x0 DUP1 RETURNDATACOPY RETURNDATASIZE PUSH1 0x0 REVERT JUMPDEST POP POP POP POP PUSH1 0x40 MLOAD RETURNDATASIZE PUSH1 0x1F NOT PUSH1 0x1F DUP3 ADD AND DUP3 ADD DUP1 PUSH1 0x40 MSTORE POP DUP2 ADD SWAP1 PUSH2 0xFA9 SWAP2 SWAP1 PUSH2 0x1BFC JUMP JUMPDEST SWAP1 POP DUP2 DUP2 LT ISZERO PUSH2 0xFB7 JUMPI DUP1 SWAP2 POP JUMPDEST PUSH1 0x0 DUP7 DUP2 MSTORE PUSH1 0x2 PUSH1 0x20 SWAP1 DUP2 MSTORE PUSH1 0x40 DUP1 DUP4 KECCAK256 PUSH1 0x5 ADD SLOAD PUSH1 0x1 PUSH1 0x1 PUSH1 0xA0 SHL SUB SWAP1 DUP2 AND DUP5 MSTORE PUSH1 0x1 SWAP1 SWAP3 MSTORE SWAP2 DUP3 SWAP1 KECCAK256 SLOAD SWAP2 MLOAD PUSH4 0xA9059CBB PUSH1 0xE0 SHL DUP2 MSTORE DUP8 DUP3 AND PUSH1 0x4 DUP3 ADD MSTORE PUSH1 0x24 DUP2 ADD DUP6 SWAP1 MSTORE SWAP2 AND SWAP1 PUSH4 0xA9059CBB SWAP1 PUSH1 0x44 ADD PUSH1 0x20 PUSH1 0x40 MLOAD DUP1 DUP4 SUB DUP2 PUSH1 0x0 DUP8 DUP1 EXTCODESIZE ISZERO DUP1 ISZERO PUSH2 0x1024 JUMPI PUSH1 0x0 DUP1 REVERT JUMPDEST POP GAS CALL ISZERO DUP1 ISZERO PUSH2 0x1038 JUMPI RETURNDATASIZE PUSH1 0x0 DUP1 RETURNDATACOPY RETURNDATASIZE PUSH1 0x0 REVERT JUMPDEST POP POP POP POP PUSH1 0x40 MLOAD RETURNDATASIZE PUSH1 0x1F NOT PUSH1 0x1F DUP3 ADD AND DUP3 ADD DUP1 PUSH1 0x40 MSTORE POP DUP2 ADD SWAP1 PUSH2 0x105C SWAP2 SWAP1 PUSH2 0x1B75 JUMP JUMPDEST PUSH2 0x10B3 JUMPI PUSH1 0x40 MLOAD PUSH3 0x461BCD PUSH1 0xE5 SHL DUP2 MSTORE PUSH1 0x20 PUSH1 0x4 DUP3 ADD MSTORE PUSH1 0x22 PUSH1 0x24 DUP3 ADD MSTORE PUSH32 0x54726F706879204B696E67204172636164653A205061796F7574206661696C65 PUSH1 0x44 DUP3 ADD MSTORE PUSH2 0x3217 PUSH1 0xF1 SHL PUSH1 0x64 DUP3 ADD MSTORE PUSH1 0x84 ADD PUSH2 0x8AA JUMP JUMPDEST PUSH1 0x0 DUP7 DUP2 MSTORE PUSH1 0x2 PUSH1 0x20 SWAP1 DUP2 MSTORE PUSH1 0x40 DUP1 DUP4 KECCAK256 PUSH1 0x1 PUSH1 0x1 PUSH1 0xA0 SHL SUB DUP10 AND DUP5 MSTORE PUSH1 0x7 ADD DUP3 MSTORE SWAP2 DUP3 SWAP1 KECCAK256 SLOAD SWAP2 MLOAD SWAP2 DUP3 MSTORE PUSH32 0x557809284DA7314475B1582804AE28E5F1349EFC1FE970EA25D50FCE75EB4F43 SWAP2 ADD PUSH1 0x40 MLOAD DUP1 SWAP2 SUB SWAP1 LOG1 PUSH1 0x40 MLOAD DUP3 DUP2 MSTORE PUSH32 0x22427047E1A674A9AFF59700A2C8D00EA96E017DDF9236690BDEDF1F21F28D9D SWAP1 PUSH1 0x20 ADD PUSH1 0x40 MLOAD DUP1 SWAP2 SUB SWAP1 LOG1 POP POP POP JUMPDEST PUSH2 0x8B3 DUP4 PUSH2 0x9E1 JUMP JUMPDEST PUSH1 0x0 DUP2 DUP2 MSTORE PUSH1 0x2 PUSH1 0x20 SWAP1 DUP2 MSTORE PUSH1 0x40 DUP1 DUP4 KECCAK256 CALLER DUP1 DUP6 MSTORE PUSH1 0x9 SWAP1 SWAP2 ADD DUP4 MSTORE DUP2 DUP5 KECCAK256 SWAP4 SWAP1 SWAP4 SSTORE DUP1 MLOAD SWAP3 DUP4 MSTORE MLOAD PUSH32 0x34AEEFD5030BE05FE70EEBC8866D82F935A308EB9F334CBA88F5E3BEA1A0CAE8 SWAP3 DUP2 SWAP1 SUB SWAP1 SWAP2 ADD SWAP1 LOG1 POP JUMP JUMPDEST PUSH1 0x0 PUSH1 0x0 DUP1 MLOAD PUSH1 0x20 PUSH2 0x1E09 DUP4 CODECOPY DUP2 MLOAD SWAP2 MSTORE PUSH2 0x11BA DUP2 PUSH2 0x1708 JUMP JUMPDEST PUSH1 0x0 DUP5 DUP2 MSTORE PUSH1 0x2 PUSH1 0x20 SWAP1 DUP2 MSTORE PUSH1 0x40 DUP1 DUP4 KECCAK256 PUSH1 0x1 PUSH1 0x1 PUSH1 0xA0 SHL SUB DUP8 AND DUP5 MSTORE PUSH1 0x9 ADD SWAP1 SWAP2 MSTORE SWAP1 KECCAK256 SLOAD PUSH1 0x1 EQ PUSH2 0x125A JUMPI PUSH1 0x0 DUP5 DUP2 MSTORE PUSH1 0x2 PUSH1 0x20 SWAP1 DUP2 MSTORE PUSH1 0x40 DUP1 DUP4 KECCAK256 PUSH1 0x1 PUSH1 0x1 PUSH1 0xA0 SHL SUB DUP8 AND DUP1 DUP6 MSTORE PUSH1 0x9 SWAP1 SWAP2 ADD DUP4 MSTORE SWAP3 DUP2 SWAP1 KECCAK256 PUSH1 0x1 SWAP1 DUP2 SWAP1 SSTORE DUP2 MLOAD SWAP4 DUP5 MSTORE SWAP2 DUP4 ADD DUP8 SWAP1 MSTORE DUP3 ADD MSTORE PUSH32 0x5621C8071929C7265CE41857BE957499346FCBD5C32E82130F48E0907449D1E6 SWAP1 PUSH1 0x60 ADD PUSH1 0x40 MLOAD DUP1 SWAP2 SUB SWAP1 LOG1 PUSH1 0x1 SWAP2 POP PUSH2 0x12A8 JUMP JUMPDEST PUSH1 0x40 DUP1 MLOAD PUSH1 0x1 PUSH1 0x1 PUSH1 0xA0 SHL SUB DUP6 AND DUP2 MSTORE PUSH1 0x20 DUP2 ADD DUP7 SWAP1 MSTORE PUSH1 0x0 DUP2 DUP4 ADD MSTORE SWAP1 MLOAD PUSH32 0x5621C8071929C7265CE41857BE957499346FCBD5C32E82130F48E0907449D1E6 SWAP2 DUP2 SWAP1 SUB PUSH1 0x60 ADD SWAP1 LOG1 PUSH1 0x0 SWAP2 POP JUMPDEST POP SWAP3 SWAP2 POP POP JUMP JUMPDEST PUSH1 0x0 DUP3 DUP2 MSTORE PUSH1 0x20 DUP2 SWAP1 MSTORE PUSH1 0x40 SWAP1 KECCAK256 PUSH1 0x1 ADD SLOAD PUSH2 0x12CA DUP2 PUSH2 0x1708 JUMP JUMPDEST PUSH2 0x8B3 DUP4 DUP4 PUSH2 0x1796 JUMP JUMPDEST PUSH1 0x0 DUP2 DUP2 MSTORE PUSH1 0x2 PUSH1 0x20 SWAP1 DUP2 MSTORE PUSH1 0x40 DUP1 DUP4 KECCAK256 CALLER DUP5 MSTORE PUSH1 0x9 ADD SWAP1 SWAP2 MSTORE SWAP1 KECCAK256 SLOAD PUSH1 0x1 EQ PUSH2 0x134A JUMPI PUSH1 0x40 MLOAD PUSH3 0x461BCD PUSH1 0xE5 SHL DUP2 MSTORE PUSH1 0x20 PUSH1 0x4 DUP3 ADD MSTORE PUSH1 0x21 PUSH1 0x24 DUP3 ADD MSTORE PUSH32 0x54726F706879204B696E67204172636164653A20556E617574686F72697A6564 PUSH1 0x44 DUP3 ADD MSTORE PUSH1 0x17 PUSH1 0xF9 SHL PUSH1 0x64 DUP3 ADD MSTORE PUSH1 0x84 ADD PUSH2 0x8AA JUMP JUMPDEST PUSH1 0x0 DUP2 DUP2 MSTORE PUSH1 0x2 PUSH1 0x20 MSTORE PUSH1 0x40 SWAP1 KECCAK256 PUSH1 0x4 ADD SLOAD PUSH1 0x1 EQ PUSH2 0x13AB JUMPI PUSH1 0x40 MLOAD PUSH3 0x461BCD PUSH1 0xE5 SHL DUP2 MSTORE PUSH1 0x20 PUSH1 0x4 DUP3 ADD DUP2 SWAP1 MSTORE PUSH1 0x24 DUP3 ADD MSTORE PUSH32 0x54726F706879204B696E67204172636164653A2047616D6520636C6F7365642E PUSH1 0x44 DUP3 ADD MSTORE PUSH1 0x64 ADD PUSH2 0x8AA JUMP JUMPDEST PUSH1 0x0 DUP2 DUP2 MSTORE PUSH1 0x2 PUSH1 0x20 DUP2 SWAP1 MSTORE PUSH1 0x40 SWAP1 SWAP2 KECCAK256 PUSH1 0x1 DUP2 ADD SLOAD SWAP2 ADD SLOAD GT PUSH2 0x1424 JUMPI PUSH1 0x40 MLOAD PUSH3 0x461BCD PUSH1 0xE5 SHL DUP2 MSTORE PUSH1 0x20 PUSH1 0x4 DUP3 ADD MSTORE PUSH1 0x2A PUSH1 0x24 DUP3 ADD MSTORE PUSH32 0x54726F706879204B696E67204172636164653A2047616D652066756C6C2E2020 PUSH1 0x44 DUP3 ADD MSTORE PUSH10 0x2A393C9030B3B0B4B717 PUSH1 0xB1 SHL PUSH1 0x64 DUP3 ADD MSTORE PUSH1 0x84 ADD PUSH2 0x8AA JUMP JUMPDEST PUSH1 0x0 DUP2 DUP2 MSTORE PUSH1 0x2 PUSH1 0x20 SWAP1 DUP2 MSTORE PUSH1 0x40 DUP1 DUP4 KECCAK256 CALLER DUP5 MSTORE PUSH1 0x8 ADD SWAP1 SWAP2 MSTORE SWAP1 KECCAK256 SLOAD ISZERO PUSH2 0x149E JUMPI PUSH1 0x40 MLOAD PUSH3 0x461BCD PUSH1 0xE5 SHL DUP2 MSTORE PUSH1 0x20 PUSH1 0x4 DUP3 ADD MSTORE PUSH1 0x27 PUSH1 0x24 DUP3 ADD MSTORE PUSH32 0x54726F706879204B696E67204172636164653A20416C72656164792072656769 PUSH1 0x44 DUP3 ADD MSTORE PUSH7 0x39BA32B932B217 PUSH1 0xC9 SHL PUSH1 0x64 DUP3 ADD MSTORE PUSH1 0x84 ADD PUSH2 0x8AA JUMP JUMPDEST PUSH1 0x0 DUP2 DUP2 MSTORE PUSH1 0x2 PUSH1 0x20 DUP2 SWAP1 MSTORE PUSH1 0x40 SWAP1 SWAP2 KECCAK256 ADD SLOAD PUSH2 0x1509 JUMPI PUSH1 0x40 MLOAD PUSH3 0x461BCD PUSH1 0xE5 SHL DUP2 MSTORE PUSH1 0x20 PUSH1 0x4 DUP3 ADD MSTORE PUSH1 0x23 PUSH1 0x24 DUP3 ADD MSTORE PUSH32 0x54726F706879204B696E67204172636164653A2047616D65206E6F7420666F75 PUSH1 0x44 DUP3 ADD MSTORE PUSH3 0x373217 PUSH1 0xE9 SHL PUSH1 0x64 DUP3 ADD MSTORE PUSH1 0x84 ADD PUSH2 0x8AA JUMP JUMPDEST PUSH1 0x0 DUP2 DUP2 MSTORE PUSH1 0x2 PUSH1 0x20 SWAP1 DUP2 MSTORE PUSH1 0x40 DUP1 DUP4 KECCAK256 PUSH1 0x5 ADD SLOAD PUSH1 0x1 PUSH1 0x1 PUSH1 0xA0 SHL SUB SWAP1 DUP2 AND DUP5 MSTORE PUSH1 0x1 SWAP1 SWAP3 MSTORE SWAP1 SWAP2 KECCAK256 SLOAD AND PUSH4 0x23B872DD CALLER PUSH1 0x0 DUP5 DUP2 MSTORE PUSH1 0x2 PUSH1 0x20 MSTORE PUSH1 0x40 SWAP1 DUP2 SWAP1 KECCAK256 PUSH1 0x3 ADD SLOAD SWAP1 MLOAD PUSH1 0xE0 DUP5 SWAP1 SHL PUSH1 0x1 PUSH1 0x1 PUSH1 0xE0 SHL SUB NOT AND DUP2 MSTORE PUSH1 0x1 PUSH1 0x1 PUSH1 0xA0 SHL SUB SWAP1 SWAP3 AND PUSH1 0x4 DUP4 ADD MSTORE ADDRESS PUSH1 0x24 DUP4 ADD MSTORE PUSH1 0x44 DUP3 ADD MSTORE PUSH1 0x64 ADD PUSH1 0x20 PUSH1 0x40 MLOAD DUP1 DUP4 SUB DUP2 PUSH1 0x0 DUP8 DUP1 EXTCODESIZE ISZERO DUP1 ISZERO PUSH2 0x159A JUMPI PUSH1 0x0 DUP1 REVERT JUMPDEST POP GAS CALL ISZERO DUP1 ISZERO PUSH2 0x15AE JUMPI RETURNDATASIZE PUSH1 0x0 DUP1 RETURNDATACOPY RETURNDATASIZE PUSH1 0x0 REVERT JUMPDEST POP POP POP POP PUSH1 0x40 MLOAD RETURNDATASIZE PUSH1 0x1F NOT PUSH1 0x1F DUP3 ADD AND DUP3 ADD DUP1 PUSH1 0x40 MSTORE POP DUP2 ADD SWAP1 PUSH2 0x15D2 SWAP2 SWAP1 PUSH2 0x1B75 JUMP JUMPDEST PUSH2 0x1639 JUMPI PUSH1 0x40 MLOAD PUSH3 0x461BCD PUSH1 0xE5 SHL DUP2 MSTORE PUSH1 0x20 PUSH1 0x4 DUP3 ADD MSTORE PUSH1 0x32 PUSH1 0x24 DUP3 ADD MSTORE PUSH32 0x54726F706879204B696E67204172636164653A204D75737420617070726F7665 PUSH1 0x44 DUP3 ADD MSTORE PUSH18 0x103932B3B4B9BA3930BA34B7B7103332B297 PUSH1 0x71 SHL PUSH1 0x64 DUP3 ADD MSTORE PUSH1 0x84 ADD PUSH2 0x8AA JUMP JUMPDEST PUSH1 0x0 DUP2 DUP2 MSTORE PUSH1 0x2 PUSH1 0x20 MSTORE PUSH1 0x40 SWAP1 KECCAK256 PUSH1 0x3 ADD SLOAD PUSH2 0x1658 SWAP1 DUP3 SWAP1 CALLER SWAP1 PUSH2 0x180E JUMP JUMPDEST POP JUMP JUMPDEST PUSH1 0x0 DUP1 MLOAD PUSH1 0x20 PUSH2 0x1E09 DUP4 CODECOPY DUP2 MLOAD SWAP2 MSTORE PUSH2 0x1673 DUP2 PUSH2 0x1708 JUMP JUMPDEST PUSH1 0x0 DUP7 DUP2 MSTORE PUSH1 0x2 PUSH1 0x20 DUP2 DUP2 MSTORE PUSH1 0x40 DUP1 DUP5 KECCAK256 PUSH1 0x1 PUSH1 0x4 DUP3 ADD DUP2 SWAP1 SSTORE PUSH1 0x6 DUP3 ADD DUP7 SWAP1 SSTORE PUSH1 0x3 DUP3 ADD DUP12 SWAP1 SSTORE PUSH1 0x5 DUP3 ADD DUP1 SLOAD PUSH1 0x1 PUSH1 0x1 PUSH1 0xA0 SHL SUB NOT AND PUSH1 0x1 PUSH1 0x1 PUSH1 0xA0 SHL SUB DUP13 AND OR SWAP1 SSTORE DUP2 ADD SWAP5 SWAP1 SWAP5 SSTORE SWAP2 DUP4 ADD DUP7 SWAP1 SSTORE DUP3 SLOAD PUSH1 0xFF NOT AND DUP6 ISZERO ISZERO OR SWAP1 SWAP3 SSTORE MLOAD DUP8 DUP2 MSTORE PUSH32 0x9E5237C6A8BB45DF74799CF138EBDA4FED0574BED906DA41387ACDC4A3CBE3D8 SWAP2 ADD PUSH1 0x40 MLOAD DUP1 SWAP2 SUB SWAP1 LOG1 POP POP POP POP POP POP JUMP JUMPDEST PUSH2 0x1658 DUP2 CALLER PUSH2 0x18BA JUMP JUMPDEST PUSH2 0x171C DUP3 DUP3 PUSH2 0xD97 JUMP JUMPDEST PUSH2 0xADE JUMPI PUSH1 0x0 DUP3 DUP2 MSTORE PUSH1 0x20 DUP2 DUP2 MSTORE PUSH1 0x40 DUP1 DUP4 KECCAK256 PUSH1 0x1 PUSH1 0x1 PUSH1 0xA0 SHL SUB DUP6 AND DUP5 MSTORE SWAP1 SWAP2 MSTORE SWAP1 KECCAK256 DUP1 SLOAD PUSH1 0xFF NOT AND PUSH1 0x1 OR SWAP1 SSTORE PUSH2 0x1752 CALLER SWAP1 JUMP JUMPDEST PUSH1 0x1 PUSH1 0x1 PUSH1 0xA0 SHL SUB AND DUP2 PUSH1 0x1 PUSH1 0x1 PUSH1 0xA0 SHL SUB AND DUP4 PUSH32 0x2F8788117E7EFF1D82E926EC794901D17C78024A50270940304540A733656F0D PUSH1 0x40 MLOAD PUSH1 0x40 MLOAD DUP1 SWAP2 SUB SWAP1 LOG4 POP POP JUMP JUMPDEST PUSH2 0x17A0 DUP3 DUP3 PUSH2 0xD97 JUMP JUMPDEST ISZERO PUSH2 0xADE JUMPI PUSH1 0x0 DUP3 DUP2 MSTORE PUSH1 0x20 DUP2 DUP2 MSTORE PUSH1 0x40 DUP1 DUP4 KECCAK256 PUSH1 0x1 PUSH1 0x1 PUSH1 0xA0 SHL SUB DUP6 AND DUP1 DUP6 MSTORE SWAP3 MSTORE DUP1 DUP4 KECCAK256 DUP1 SLOAD PUSH1 0xFF NOT AND SWAP1 SSTORE MLOAD CALLER SWAP3 DUP6 SWAP2 PUSH32 0xF6391F5C32D9C69D2A47EA670B442974B53935D1EDC7FD64EB21E047A839171B SWAP2 SWAP1 LOG4 POP POP JUMP JUMPDEST PUSH1 0x0 PUSH2 0x1807 DUP3 DUP5 PUSH2 0x1D66 JUMP JUMPDEST SWAP4 SWAP3 POP POP POP JUMP JUMPDEST PUSH1 0x0 DUP4 DUP2 MSTORE PUSH1 0x2 PUSH1 0x20 MSTORE PUSH1 0x40 DUP2 KECCAK256 PUSH1 0x1 DUP1 DUP3 ADD DUP1 SLOAD SWAP3 SWAP4 SWAP2 SWAP3 SWAP1 SWAP2 SWAP1 PUSH2 0x1835 SWAP1 DUP5 SWAP1 PUSH2 0x1D0F JUMP JUMPDEST SWAP1 SWAP2 SSTORE POP POP PUSH1 0x1 PUSH1 0x1 PUSH1 0xA0 SHL SUB DUP4 AND PUSH1 0x0 SWAP1 DUP2 MSTORE PUSH1 0x7 DUP3 ADD PUSH1 0x20 SWAP1 DUP2 MSTORE PUSH1 0x40 DUP1 DUP4 KECCAK256 DUP6 SWAP1 SSTORE PUSH1 0x8 DUP5 ADD SWAP1 SWAP2 MSTORE DUP2 KECCAK256 PUSH1 0x1 SWAP1 SSTORE PUSH1 0x6 DUP3 ADD DUP1 SLOAD DUP5 SWAP3 SWAP1 PUSH2 0x187B SWAP1 DUP5 SWAP1 PUSH2 0x1D0F JUMP JUMPDEST SWAP1 SWAP2 SSTORE POP POP PUSH1 0x40 MLOAD DUP5 DUP2 MSTORE CALLER SWAP1 PUSH31 0x7DC6AB80CC84C043B7B8D4FCAFC802187470087F7EA7FCCD2E17AECD0256A1 SWAP1 PUSH1 0x20 ADD PUSH1 0x40 MLOAD DUP1 SWAP2 SUB SWAP1 LOG2 POP POP POP POP JUMP JUMPDEST PUSH2 0x18C4 DUP3 DUP3 PUSH2 0xD97 JUMP JUMPDEST PUSH2 0xADE JUMPI PUSH2 0x18DC DUP2 PUSH1 0x1 PUSH1 0x1 PUSH1 0xA0 SHL SUB AND PUSH1 0x14 PUSH2 0x191E JUMP JUMPDEST PUSH2 0x18E7 DUP4 PUSH1 0x20 PUSH2 0x191E JUMP JUMPDEST PUSH1 0x40 MLOAD PUSH1 0x20 ADD PUSH2 0x18F8 SWAP3 SWAP2 SWAP1 PUSH2 0x1C67 JUMP JUMPDEST PUSH1 0x40 DUP1 MLOAD PUSH1 0x1F NOT DUP2 DUP5 SUB ADD DUP2 MSTORE SWAP1 DUP3 SWAP1 MSTORE PUSH3 0x461BCD PUSH1 0xE5 SHL DUP3 MSTORE PUSH2 0x8AA SWAP2 PUSH1 0x4 ADD PUSH2 0x1CDC JUMP JUMPDEST PUSH1 0x60 PUSH1 0x0 PUSH2 0x192D DUP4 PUSH1 0x2 PUSH2 0x1D47 JUMP JUMPDEST PUSH2 0x1938 SWAP1 PUSH1 0x2 PUSH2 0x1D0F JUMP JUMPDEST PUSH8 0xFFFFFFFFFFFFFFFF DUP2 GT ISZERO PUSH2 0x195E JUMPI PUSH4 0x4E487B71 PUSH1 0xE0 SHL PUSH1 0x0 MSTORE PUSH1 0x41 PUSH1 0x4 MSTORE PUSH1 0x24 PUSH1 0x0 REVERT JUMPDEST PUSH1 0x40 MLOAD SWAP1 DUP1 DUP3 MSTORE DUP1 PUSH1 0x1F ADD PUSH1 0x1F NOT AND PUSH1 0x20 ADD DUP3 ADD PUSH1 0x40 MSTORE DUP1 ISZERO PUSH2 0x1988 JUMPI PUSH1 0x20 DUP3 ADD DUP2 DUP1 CALLDATASIZE DUP4 CALLDATACOPY ADD SWAP1 POP JUMPDEST POP SWAP1 POP PUSH1 0x3 PUSH1 0xFC SHL DUP2 PUSH1 0x0 DUP2 MLOAD DUP2 LT PUSH2 0x19B1 JUMPI PUSH4 0x4E487B71 PUSH1 0xE0 SHL PUSH1 0x0 MSTORE PUSH1 0x32 PUSH1 0x4 MSTORE PUSH1 0x24 PUSH1 0x0 REVERT JUMPDEST PUSH1 0x20 ADD ADD SWAP1 PUSH1 0x1 PUSH1 0x1 PUSH1 0xF8 SHL SUB NOT AND SWAP1 DUP2 PUSH1 0x0 BYTE SWAP1 MSTORE8 POP PUSH1 0xF PUSH1 0xFB SHL DUP2 PUSH1 0x1 DUP2 MLOAD DUP2 LT PUSH2 0x19EE JUMPI PUSH4 0x4E487B71 PUSH1 0xE0 SHL PUSH1 0x0 MSTORE PUSH1 0x32 PUSH1 0x4 MSTORE PUSH1 0x24 PUSH1 0x0 REVERT JUMPDEST PUSH1 0x20 ADD ADD SWAP1 PUSH1 0x1 PUSH1 0x1 PUSH1 0xF8 SHL SUB NOT AND SWAP1 DUP2 PUSH1 0x0 BYTE SWAP1 MSTORE8 POP PUSH1 0x0 PUSH2 0x1A12 DUP5 PUSH1 0x2 PUSH2 0x1D47 JUMP JUMPDEST PUSH2 0x1A1D SWAP1 PUSH1 0x1 PUSH2 0x1D0F JUMP JUMPDEST SWAP1 POP JUMPDEST PUSH1 0x1 DUP2 GT ISZERO PUSH2 0x1AB1 JUMPI PUSH16 0x181899199A1A9B1B9C1CB0B131B232B3 PUSH1 0x81 SHL DUP6 PUSH1 0xF AND PUSH1 0x10 DUP2 LT PUSH2 0x1A5F JUMPI PUSH4 0x4E487B71 PUSH1 0xE0 SHL PUSH1 0x0 MSTORE PUSH1 0x32 PUSH1 0x4 MSTORE PUSH1 0x24 PUSH1 0x0 REVERT JUMPDEST BYTE PUSH1 0xF8 SHL DUP3 DUP3 DUP2 MLOAD DUP2 LT PUSH2 0x1A83 JUMPI PUSH4 0x4E487B71 PUSH1 0xE0 SHL PUSH1 0x0 MSTORE PUSH1 0x32 PUSH1 0x4 MSTORE PUSH1 0x24 PUSH1 0x0 REVERT JUMPDEST PUSH1 0x20 ADD ADD SWAP1 PUSH1 0x1 PUSH1 0x1 PUSH1 0xF8 SHL SUB NOT AND SWAP1 DUP2 PUSH1 0x0 BYTE SWAP1 MSTORE8 POP PUSH1 0x4 SWAP5 SWAP1 SWAP5 SHR SWAP4 PUSH2 0x1AAA DUP2 PUSH2 0x1DAD JUMP JUMPDEST SWAP1 POP PUSH2 0x1A20 JUMP JUMPDEST POP DUP4 ISZERO PUSH2 0x1807 JUMPI PUSH1 0x40 MLOAD PUSH3 0x461BCD PUSH1 0xE5 SHL DUP2 MSTORE PUSH1 0x20 PUSH1 0x4 DUP3 ADD DUP2 SWAP1 MSTORE PUSH1 0x24 DUP3 ADD MSTORE PUSH32 0x537472696E67733A20686578206C656E67746820696E73756666696369656E74 PUSH1 0x44 DUP3 ADD MSTORE PUSH1 0x64 ADD PUSH2 0x8AA JUMP JUMPDEST DUP1 CALLDATALOAD PUSH1 0x1 PUSH1 0x1 PUSH1 0xA0 SHL SUB DUP2 AND DUP2 EQ PUSH2 0x1B17 JUMPI PUSH1 0x0 DUP1 REVERT JUMPDEST SWAP2 SWAP1 POP JUMP JUMPDEST PUSH1 0x0 PUSH1 0x20 DUP3 DUP5 SUB SLT ISZERO PUSH2 0x1B2D JUMPI DUP1 DUP2 REVERT JUMPDEST PUSH2 0x1807 DUP3 PUSH2 0x1B00 JUMP JUMPDEST PUSH1 0x0 DUP1 PUSH1 0x0 PUSH1 0x60 DUP5 DUP7 SUB SLT ISZERO PUSH2 0x1B4A JUMPI DUP2 DUP3 REVERT JUMPDEST PUSH2 0x1B53 DUP5 PUSH2 0x1B00 JUMP JUMPDEST SWAP3 POP PUSH1 0x20 DUP5 ADD CALLDATALOAD SWAP2 POP PUSH1 0x40 DUP5 ADD CALLDATALOAD PUSH2 0x1B6A DUP2 PUSH2 0x1DDA JUMP JUMPDEST DUP1 SWAP2 POP POP SWAP3 POP SWAP3 POP SWAP3 JUMP JUMPDEST PUSH1 0x0 PUSH1 0x20 DUP3 DUP5 SUB SLT ISZERO PUSH2 0x1B86 JUMPI DUP1 DUP2 REVERT JUMPDEST DUP2 MLOAD PUSH2 0x1807 DUP2 PUSH2 0x1DDA JUMP JUMPDEST PUSH1 0x0 PUSH1 0x20 DUP3 DUP5 SUB SLT ISZERO PUSH2 0x1BA2 JUMPI DUP1 DUP2 REVERT JUMPDEST POP CALLDATALOAD SWAP2 SWAP1 POP JUMP JUMPDEST PUSH1 0x0 DUP1 PUSH1 0x40 DUP4 DUP6 SUB SLT ISZERO PUSH2 0x1BBB JUMPI DUP2 DUP3 REVERT JUMPDEST DUP3 CALLDATALOAD SWAP2 POP PUSH2 0x1BCB PUSH1 0x20 DUP5 ADD PUSH2 0x1B00 JUMP JUMPDEST SWAP1 POP SWAP3 POP SWAP3 SWAP1 POP JUMP JUMPDEST PUSH1 0x0 PUSH1 0x20 DUP3 DUP5 SUB SLT ISZERO PUSH2 0x1BE5 JUMPI DUP1 DUP2 REVERT JUMPDEST DUP2 CALLDATALOAD PUSH1 0x1 PUSH1 0x1 PUSH1 0xE0 SHL SUB NOT DUP2 AND DUP2 EQ PUSH2 0x1807 JUMPI DUP2 DUP3 REVERT JUMPDEST PUSH1 0x0 PUSH1 0x20 DUP3 DUP5 SUB SLT ISZERO PUSH2 0x1C0D JUMPI DUP1 DUP2 REVERT JUMPDEST POP MLOAD SWAP2 SWAP1 POP JUMP JUMPDEST PUSH1 0x0 DUP1 PUSH1 0x0 DUP1 PUSH1 0x0 PUSH1 0xA0 DUP7 DUP9 SUB SLT ISZERO PUSH2 0x1C2B JUMPI DUP1 DUP2 REVERT JUMPDEST DUP6 CALLDATALOAD SWAP5 POP PUSH1 0x20 DUP7 ADD CALLDATALOAD SWAP4 POP PUSH2 0x1C42 PUSH1 0x40 DUP8 ADD PUSH2 0x1B00 JUMP JUMPDEST SWAP3 POP PUSH1 0x60 DUP7 ADD CALLDATALOAD SWAP2 POP PUSH1 0x80 DUP7 ADD CALLDATALOAD PUSH2 0x1C59 DUP2 PUSH2 0x1DDA JUMP JUMPDEST DUP1 SWAP2 POP POP SWAP3 SWAP6 POP SWAP3 SWAP6 SWAP1 SWAP4 POP JUMP JUMPDEST PUSH32 0x416363657373436F6E74726F6C3A206163636F756E7420000000000000000000 DUP2 MSTORE PUSH1 0x0 DUP4 MLOAD PUSH2 0x1C9F DUP2 PUSH1 0x17 DUP6 ADD PUSH1 0x20 DUP9 ADD PUSH2 0x1D7D JUMP JUMPDEST PUSH17 0x1034B99036B4B9B9B4B733903937B6329 PUSH1 0x7D SHL PUSH1 0x17 SWAP2 DUP5 ADD SWAP2 DUP3 ADD MSTORE DUP4 MLOAD PUSH2 0x1CD0 DUP2 PUSH1 0x28 DUP5 ADD PUSH1 0x20 DUP9 ADD PUSH2 0x1D7D JUMP JUMPDEST ADD PUSH1 0x28 ADD SWAP5 SWAP4 POP POP POP POP JUMP JUMPDEST PUSH1 0x20 DUP2 MSTORE PUSH1 0x0 DUP3 MLOAD DUP1 PUSH1 0x20 DUP5 ADD MSTORE PUSH2 0x1CFB DUP2 PUSH1 0x40 DUP6 ADD PUSH1 0x20 DUP8 ADD PUSH2 0x1D7D JUMP JUMPDEST PUSH1 0x1F ADD PUSH1 0x1F NOT AND SWAP2 SWAP1 SWAP2 ADD PUSH1 0x40 ADD SWAP3 SWAP2 POP POP JUMP JUMPDEST PUSH1 0x0 DUP3 NOT DUP3 GT ISZERO PUSH2 0x1D22 JUMPI PUSH2 0x1D22 PUSH2 0x1DC4 JUMP JUMPDEST POP ADD SWAP1 JUMP JUMPDEST PUSH1 0x0 DUP3 PUSH2 0x1D42 JUMPI PUSH4 0x4E487B71 PUSH1 0xE0 SHL DUP2 MSTORE PUSH1 0x12 PUSH1 0x4 MSTORE PUSH1 0x24 DUP2 REVERT JUMPDEST POP DIV SWAP1 JUMP JUMPDEST PUSH1 0x0 DUP2 PUSH1 0x0 NOT DIV DUP4 GT DUP3 ISZERO ISZERO AND ISZERO PUSH2 0x1D61 JUMPI PUSH2 0x1D61 PUSH2 0x1DC4 JUMP JUMPDEST POP MUL SWAP1 JUMP JUMPDEST PUSH1 0x0 DUP3 DUP3 LT ISZERO PUSH2 0x1D78 JUMPI PUSH2 0x1D78 PUSH2 0x1DC4 JUMP JUMPDEST POP SUB SWAP1 JUMP JUMPDEST PUSH1 0x0 JUMPDEST DUP4 DUP2 LT ISZERO PUSH2 0x1D98 JUMPI DUP2 DUP2 ADD MLOAD DUP4 DUP3 ADD MSTORE PUSH1 0x20 ADD PUSH2 0x1D80 JUMP JUMPDEST DUP4 DUP2 GT ISZERO PUSH2 0x1DA7 JUMPI PUSH1 0x0 DUP5 DUP5 ADD MSTORE JUMPDEST POP POP POP POP JUMP JUMPDEST PUSH1 0x0 DUP2 PUSH2 0x1DBC JUMPI PUSH2 0x1DBC PUSH2 0x1DC4 JUMP JUMPDEST POP PUSH1 0x0 NOT ADD SWAP1 JUMP JUMPDEST PUSH4 0x4E487B71 PUSH1 0xE0 SHL PUSH1 0x0 MSTORE PUSH1 0x11 PUSH1 0x4 MSTORE PUSH1 0x24 PUSH1 0x0 REVERT JUMPDEST DUP1 ISZERO ISZERO DUP2 EQ PUSH2 0x1658 JUMPI PUSH1 0x0 DUP1 REVERT INVALID BALANCE BALANCE 0xFC DUP12 0xEB 0x48 0xB8 SWAP6 NOT PUSH27 0xD34F21C86AFDF6A989A5CD911181952DBF8DFCF181923C13B5ABBC DUP6 SDIV 0xD TIMESTAMP PUSH16 0x9500A16CFD9F7D94261C880B9A4E03D5 DUP5 0xD2 DUP13 MOD SDIV SWAP13 LOG2 PUSH5 0x6970667358 0x22 SLT KECCAK256 0x28 0xBA PUSH1 0x9C 0xB9 0x2E OR MULMOD 0x49 0xB2 PUSH19 0xF9B6760AAA336C13FE7580E96EFE3D7F2B597 0x4A SUB PUSH5 0x736F6C6343 STOP ADDMOD DIV STOP CALLER "
				},
				"gasEstimates": {
					"creation": {
						"codeDepositCost": "1554800",
						"executionCost": "infinite",
						"totalCost": "infinite"
					},
					"external": {
						"ARCADE_MANAGER()": "infinite",
						"DEFAULT_ADMIN_ROLE()": "284",
						"GAME_MASTER()": "infinite",
						"acceptedArcadeTokens(address)": "2261",
						"addArcadeToken(address,uint256,bool)": "infinite",
						"arcadeToken(address)": "2156",
						"closeGame(uint256)": "infinite",
						"createGame(uint256,uint256,address,uint256,bool)": "infinite",
						"decimals()": "1107",
						"deleteGame(uint256)": "infinite",
						"fee_percentage()": "1084",
						"gameData(uint256)": "6325",
						"getRoleAdmin(bytes32)": "1237",
						"grantRole(bytes32,address)": "infinite",
						"hasRole(bytes32,address)": "1397",
						"isAccepted(address)": "1321",
						"leaveMatch(uint256)": "6511",
						"openGame(uint256)": "infinite",
						"owner()": "1148",
						"placePlayer(uint256,address)": "infinite",
						"reconcile(address)": "infinite",
						"refund(uint256,address)": "infinite",
						"register(uint256)": "infinite",
						"removeArcadeToken(address)": "infinite",
						"removePlayer(uint256,address)": "infinite",
						"renounceRole(bytes32,address)": "24340",
						"revokeRole(bytes32,address)": "infinite",
						"setArcadeFeePercentage(uint256)": "infinite",
						"setWinner(uint256,address)": "infinite",
						"supportsInterface(bytes4)": "495"
					},
					"internal": {
						"_register(uint256,address,uint256)": "infinite"
					}
				},
				"methodIdentifiers": {
					"ARCADE_MANAGER()": "c18e397e",
					"DEFAULT_ADMIN_ROLE()": "a217fddf",
					"GAME_MASTER()": "99597b70",
					"acceptedArcadeTokens(address)": "b22c376d",
					"addArcadeToken(address,uint256,bool)": "06602a48",
					"arcadeToken(address)": "9d00c61e",
					"closeGame(uint256)": "2d6ef310",
					"createGame(uint256,uint256,address,uint256,bool)": "f336ee3c",
					"decimals()": "313ce567",
					"deleteGame(uint256)": "248a55a1",
					"fee_percentage()": "c46ed45a",
					"gameData(uint256)": "ccaf237f",
					"getRoleAdmin(bytes32)": "248a9ca3",
					"grantRole(bytes32,address)": "2f2ff15d",
					"hasRole(bytes32,address)": "91d14854",
					"isAccepted(address)": "e6f091f9",
					"leaveMatch(uint256)": "9f512e22",
					"openGame(uint256)": "00f5544f",
					"owner()": "8da5cb5b",
					"placePlayer(uint256,address)": "b9888d89",
					"reconcile(address)": "09a18635",
					"refund(uint256,address)": "7ad226dc",
					"register(uint256)": "f207564e",
					"removeArcadeToken(address)": "3e16518f",
					"removePlayer(uint256,address)": "2ba67100",
					"renounceRole(bytes32,address)": "36568abe",
					"revokeRole(bytes32,address)": "d547741f",
					"setArcadeFeePercentage(uint256)": "2ac5016f",
					"setWinner(uint256,address)": "9c623683",
					"supportsInterface(bytes4)": "01ffc9a7"
				}
			},
			"storageLayout": {
				"storage": [
					{
						"astId": 946,
						"contract": "contracts/Arcade.sol:Arcade",
						"label": "_roles",
						"offset": 0,
						"slot": "0",
						"type": "t_mapping(t_bytes32,t_struct(RoleData)941_storage)"
					},
					{
						"astId": 109,
						"contract": "contracts/Arcade.sol:Arcade",
						"label": "acceptedArcadeTokens",
						"offset": 0,
						"slot": "1",
						"type": "t_mapping(t_address,t_struct(ArcadeToken)104_storage)"
					},
					{
						"astId": 114,
						"contract": "contracts/Arcade.sol:Arcade",
						"label": "gameData",
						"offset": 0,
						"slot": "2",
						"type": "t_mapping(t_uint256,t_struct(GameInfo)96_storage)"
					},
					{
						"astId": 117,
						"contract": "contracts/Arcade.sol:Arcade",
						"label": "decimals",
						"offset": 0,
						"slot": "3",
						"type": "t_uint256"
					},
					{
						"astId": 119,
						"contract": "contracts/Arcade.sol:Arcade",
						"label": "fee_percentage",
						"offset": 0,
						"slot": "4",
						"type": "t_uint256"
					},
					{
						"astId": 128,
						"contract": "contracts/Arcade.sol:Arcade",
						"label": "base",
						"offset": 0,
						"slot": "5",
						"type": "t_uint256"
					},
					{
						"astId": 130,
						"contract": "contracts/Arcade.sol:Arcade",
						"label": "owner",
						"offset": 0,
						"slot": "6",
						"type": "t_address"
					}
				],
				"types": {
					"t_address": {
						"encoding": "inplace",
						"label": "address",
						"numberOfBytes": "20"
					},
					"t_bool": {
						"encoding": "inplace",
						"label": "bool",
						"numberOfBytes": "1"
					},
					"t_bytes32": {
						"encoding": "inplace",
						"label": "bytes32",
						"numberOfBytes": "32"
					},
					"t_contract(IERC20)1978": {
						"encoding": "inplace",
						"label": "contract IERC20",
						"numberOfBytes": "20"
					},
					"t_mapping(t_address,t_bool)": {
						"encoding": "mapping",
						"key": "t_address",
						"label": "mapping(address => bool)",
						"numberOfBytes": "32",
						"value": "t_bool"
					},
					"t_mapping(t_address,t_struct(ArcadeToken)104_storage)": {
						"encoding": "mapping",
						"key": "t_address",
						"label": "mapping(address => struct Arcade.ArcadeToken)",
						"numberOfBytes": "32",
						"value": "t_struct(ArcadeToken)104_storage"
					},
					"t_mapping(t_address,t_uint256)": {
						"encoding": "mapping",
						"key": "t_address",
						"label": "mapping(address => uint256)",
						"numberOfBytes": "32",
						"value": "t_uint256"
					},
					"t_mapping(t_bytes32,t_struct(RoleData)941_storage)": {
						"encoding": "mapping",
						"key": "t_bytes32",
						"label": "mapping(bytes32 => struct AccessControl.RoleData)",
						"numberOfBytes": "32",
						"value": "t_struct(RoleData)941_storage"
					},
					"t_mapping(t_uint256,t_struct(GameInfo)96_storage)": {
						"encoding": "mapping",
						"key": "t_uint256",
						"label": "mapping(uint256 => struct Arcade.GameInfo)",
						"numberOfBytes": "32",
						"value": "t_struct(GameInfo)96_storage"
					},
					"t_struct(ArcadeToken)104_storage": {
						"encoding": "inplace",
						"label": "struct Arcade.ArcadeToken",
						"members": [
							{
								"astId": 99,
								"contract": "contracts/Arcade.sol:Arcade",
								"label": "native_token",
								"offset": 0,
								"slot": "0",
								"type": "t_contract(IERC20)1978"
							},
							{
								"astId": 101,
								"contract": "contracts/Arcade.sol:Arcade",
								"label": "active",
								"offset": 20,
								"slot": "0",
								"type": "t_bool"
							},
							{
								"astId": 103,
								"contract": "contracts/Arcade.sol:Arcade",
								"label": "redemption_rate",
								"offset": 0,
								"slot": "1",
								"type": "t_uint256"
							}
						],
						"numberOfBytes": "64"
					},
					"t_struct(GameInfo)96_storage": {
						"encoding": "inplace",
						"label": "struct Arcade.GameInfo",
						"members": [
							{
								"astId": 71,
								"contract": "contracts/Arcade.sol:Arcade",
								"label": "exchange",
								"offset": 0,
								"slot": "0",
								"type": "t_bool"
							},
							{
								"astId": 73,
								"contract": "contracts/Arcade.sol:Arcade",
								"label": "player_count",
								"offset": 0,
								"slot": "1",
								"type": "t_uint256"
							},
							{
								"astId": 75,
								"contract": "contracts/Arcade.sol:Arcade",
								"label": "player_limit",
								"offset": 0,
								"slot": "2",
								"type": "t_uint256"
							},
							{
								"astId": 77,
								"contract": "contracts/Arcade.sol:Arcade",
								"label": "registration_fee",
								"offset": 0,
								"slot": "3",
								"type": "t_uint256"
							},
							{
								"astId": 79,
								"contract": "contracts/Arcade.sol:Arcade",
								"label": "status",
								"offset": 0,
								"slot": "4",
								"type": "t_uint256"
							},
							{
								"astId": 81,
								"contract": "contracts/Arcade.sol:Arcade",
								"label": "arcade_token",
								"offset": 0,
								"slot": "5",
								"type": "t_address"
							},
							{
								"astId": 83,
								"contract": "contracts/Arcade.sol:Arcade",
								"label": "total_fee",
								"offset": 0,
								"slot": "6",
								"type": "t_uint256"
							},
							{
								"astId": 87,
								"contract": "contracts/Arcade.sol:Arcade",
								"label": "fee",
								"offset": 0,
								"slot": "7",
								"type": "t_mapping(t_address,t_uint256)"
							},
							{
								"astId": 91,
								"contract": "contracts/Arcade.sol:Arcade",
								"label": "paid",
								"offset": 0,
								"slot": "8",
								"type": "t_mapping(t_address,t_uint256)"
							},
							{
								"astId": 95,
								"contract": "contracts/Arcade.sol:Arcade",
								"label": "seats",
								"offset": 0,
								"slot": "9",
								"type": "t_mapping(t_address,t_uint256)"
							}
						],
						"numberOfBytes": "320"
					},
					"t_struct(RoleData)941_storage": {
						"encoding": "inplace",
						"label": "struct AccessControl.RoleData",
						"members": [
							{
								"astId": 938,
								"contract": "contracts/Arcade.sol:Arcade",
								"label": "members",
								"offset": 0,
								"slot": "0",
								"type": "t_mapping(t_address,t_bool)"
							},
							{
								"astId": 940,
								"contract": "contracts/Arcade.sol:Arcade",
								"label": "adminRole",
								"offset": 0,
								"slot": "1",
								"type": "t_bytes32"
							}
						],
						"numberOfBytes": "64"
					},
					"t_uint256": {
						"encoding": "inplace",
						"label": "uint256",
						"numberOfBytes": "32"
					}
				}
			},
			"userdoc": {
				"kind": "user",
				"methods": {},
				"version": 1
			}
		}
	}
}