{
	"contracts/Arcade.sol": {
		"Arcade": {
			"abi": [
				{
					"inputs": [],
					"stateMutability": "nonpayable",
					"type": "constructor"
				},
				{
					"anonymous": false,
					"inputs": [
						{
							"indexed": false,
							"internalType": "uint256",
							"name": "id",
							"type": "uint256"
						}
					],
					"name": "CloseGame",
					"type": "event"
				},
				{
					"anonymous": false,
					"inputs": [
						{
							"indexed": false,
							"internalType": "uint256",
							"name": "id",
							"type": "uint256"
						}
					],
					"name": "CreateGame",
					"type": "event"
				},
				{
					"anonymous": false,
					"inputs": [
						{
							"indexed": false,
							"internalType": "uint256",
							"name": "id",
							"type": "uint256"
						}
					],
					"name": "DeleteGame",
					"type": "event"
				},
				{
					"anonymous": false,
					"inputs": [
						{
							"indexed": false,
							"internalType": "uint256",
							"name": "fee",
							"type": "uint256"
						}
					],
					"name": "Fee",
					"type": "event"
				},
				{
					"anonymous": false,
					"inputs": [
						{
							"indexed": false,
							"internalType": "uint256",
							"name": "id",
							"type": "uint256"
						}
					],
					"name": "OpenGame",
					"type": "event"
				},
				{
					"anonymous": false,
					"inputs": [
						{
							"indexed": false,
							"internalType": "uint256",
							"name": "payout",
							"type": "uint256"
						}
					],
					"name": "Payout",
					"type": "event"
				},
				{
					"anonymous": false,
					"inputs": [
						{
							"indexed": false,
							"internalType": "address",
							"name": "player",
							"type": "address"
						},
						{
							"indexed": false,
							"internalType": "uint256",
							"name": "id",
							"type": "uint256"
						}
					],
					"name": "PlacePlayer",
					"type": "event"
				},
				{
					"anonymous": false,
					"inputs": [
						{
							"indexed": false,
							"internalType": "uint256",
							"name": "id",
							"type": "uint256"
						},
						{
							"indexed": false,
							"internalType": "address",
							"name": "player",
							"type": "address"
						},
						{
							"indexed": false,
							"internalType": "uint256",
							"name": "amount",
							"type": "uint256"
						}
					],
					"name": "Refund",
					"type": "event"
				},
				{
					"anonymous": false,
					"inputs": [
						{
							"indexed": true,
							"internalType": "address",
							"name": "_player",
							"type": "address"
						},
						{
							"indexed": false,
							"internalType": "uint256",
							"name": "id",
							"type": "uint256"
						}
					],
					"name": "Register",
					"type": "event"
				},
				{
					"anonymous": false,
					"inputs": [
						{
							"indexed": false,
							"internalType": "address",
							"name": "player",
							"type": "address"
						}
					],
					"name": "RemovePlayer",
					"type": "event"
				},
				{
					"anonymous": false,
					"inputs": [
						{
							"indexed": true,
							"internalType": "bytes32",
							"name": "role",
							"type": "bytes32"
						},
						{
							"indexed": true,
							"internalType": "bytes32",
							"name": "previousAdminRole",
							"type": "bytes32"
						},
						{
							"indexed": true,
							"internalType": "bytes32",
							"name": "newAdminRole",
							"type": "bytes32"
						}
					],
					"name": "RoleAdminChanged",
					"type": "event"
				},
				{
					"anonymous": false,
					"inputs": [
						{
							"indexed": true,
							"internalType": "bytes32",
							"name": "role",
							"type": "bytes32"
						},
						{
							"indexed": true,
							"internalType": "address",
							"name": "account",
							"type": "address"
						},
						{
							"indexed": true,
							"internalType": "address",
							"name": "sender",
							"type": "address"
						}
					],
					"name": "RoleGranted",
					"type": "event"
				},
				{
					"anonymous": false,
					"inputs": [
						{
							"indexed": true,
							"internalType": "bytes32",
							"name": "role",
							"type": "bytes32"
						},
						{
							"indexed": true,
							"internalType": "address",
							"name": "account",
							"type": "address"
						},
						{
							"indexed": true,
							"internalType": "address",
							"name": "sender",
							"type": "address"
						}
					],
					"name": "RoleRevoked",
					"type": "event"
				},
				{
					"inputs": [],
					"name": "DEFAULT_ADMIN_ROLE",
					"outputs": [
						{
							"internalType": "bytes32",
							"name": "",
							"type": "bytes32"
						}
					],
					"stateMutability": "view",
					"type": "function"
				},
				{
					"inputs": [],
					"name": "TREASURER_ROLE",
					"outputs": [
						{
							"internalType": "bytes32",
							"name": "",
							"type": "bytes32"
						}
					],
					"stateMutability": "view",
					"type": "function"
				},
				{
					"inputs": [
						{
							"internalType": "address",
							"name": "",
							"type": "address"
						}
					],
					"name": "acceptedArcadeTokens",
					"outputs": [
						{
							"internalType": "contract IERC20",
							"name": "native_token",
							"type": "address"
						},
						{
							"internalType": "bool",
							"name": "active",
							"type": "bool"
						},
						{
							"internalType": "uint256",
							"name": "redemption_rate",
							"type": "uint256"
						}
					],
					"stateMutability": "view",
					"type": "function"
				},
				{
					"inputs": [
						{
							"internalType": "address",
							"name": "token_address",
							"type": "address"
						},
						{
							"internalType": "uint256",
							"name": "redemption_rate",
							"type": "uint256"
						},
						{
							"internalType": "bool",
							"name": "_active",
							"type": "bool"
						}
					],
					"name": "addArcadeToken",
					"outputs": [],
					"stateMutability": "nonpayable",
					"type": "function"
				},
				{
					"inputs": [
						{
							"internalType": "uint256",
							"name": "game_id",
							"type": "uint256"
						}
					],
					"name": "closeGame",
					"outputs": [],
					"stateMutability": "nonpayable",
					"type": "function"
				},
				{
					"inputs": [
						{
							"internalType": "uint256",
							"name": "game_id",
							"type": "uint256"
						},
						{
							"internalType": "uint256",
							"name": "registration_fee",
							"type": "uint256"
						},
						{
							"internalType": "address",
							"name": "arcade_token",
							"type": "address"
						},
						{
							"internalType": "uint256",
							"name": "player_limit",
							"type": "uint256"
						},
						{
							"internalType": "bool",
							"name": "exchange",
							"type": "bool"
						}
					],
					"name": "createGame",
					"outputs": [],
					"stateMutability": "nonpayable",
					"type": "function"
				},
				{
					"inputs": [],
					"name": "decimals",
					"outputs": [
						{
							"internalType": "uint256",
							"name": "",
							"type": "uint256"
						}
					],
					"stateMutability": "view",
					"type": "function"
				},
				{
					"inputs": [
						{
							"internalType": "uint256",
							"name": "game_id",
							"type": "uint256"
						}
					],
					"name": "deleteGame",
					"outputs": [],
					"stateMutability": "nonpayable",
					"type": "function"
				},
				{
					"inputs": [],
					"name": "fee_percentage",
					"outputs": [
						{
							"internalType": "uint256",
							"name": "",
							"type": "uint256"
						}
					],
					"stateMutability": "view",
					"type": "function"
				},
				{
					"inputs": [
						{
							"internalType": "uint256",
							"name": "",
							"type": "uint256"
						}
					],
					"name": "gameData",
					"outputs": [
						{
							"internalType": "bool",
							"name": "exchange",
							"type": "bool"
						},
						{
							"internalType": "uint256",
							"name": "player_count",
							"type": "uint256"
						},
						{
							"internalType": "uint256",
							"name": "player_limit",
							"type": "uint256"
						},
						{
							"internalType": "uint256",
							"name": "registration_fee",
							"type": "uint256"
						},
						{
							"internalType": "uint256",
							"name": "status",
							"type": "uint256"
						},
						{
							"internalType": "address",
							"name": "arcade_token",
							"type": "address"
						},
						{
							"internalType": "uint256",
							"name": "total_fee",
							"type": "uint256"
						}
					],
					"stateMutability": "view",
					"type": "function"
				},
				{
					"inputs": [
						{
							"internalType": "bytes32",
							"name": "role",
							"type": "bytes32"
						}
					],
					"name": "getRoleAdmin",
					"outputs": [
						{
							"internalType": "bytes32",
							"name": "",
							"type": "bytes32"
						}
					],
					"stateMutability": "view",
					"type": "function"
				},
				{
					"inputs": [
						{
							"internalType": "address",
							"name": "token_address",
							"type": "address"
						}
					],
					"name": "getStablecoin",
					"outputs": [
						{
							"internalType": "bool",
							"name": "",
							"type": "bool"
						},
						{
							"internalType": "uint256",
							"name": "",
							"type": "uint256"
						}
					],
					"stateMutability": "view",
					"type": "function"
				},
				{
					"inputs": [
						{
							"internalType": "bytes32",
							"name": "role",
							"type": "bytes32"
						},
						{
							"internalType": "address",
							"name": "account",
							"type": "address"
						}
					],
					"name": "grantRole",
					"outputs": [],
					"stateMutability": "nonpayable",
					"type": "function"
				},
				{
					"inputs": [
						{
							"internalType": "bytes32",
							"name": "role",
							"type": "bytes32"
						},
						{
							"internalType": "address",
							"name": "account",
							"type": "address"
						}
					],
					"name": "hasRole",
					"outputs": [
						{
							"internalType": "bool",
							"name": "",
							"type": "bool"
						}
					],
					"stateMutability": "view",
					"type": "function"
				},
				{
					"inputs": [
						{
							"internalType": "address",
							"name": "token_address",
							"type": "address"
						}
					],
					"name": "isAccepted",
					"outputs": [
						{
							"internalType": "bool",
							"name": "",
							"type": "bool"
						}
					],
					"stateMutability": "view",
					"type": "function"
				},
				{
					"inputs": [],
					"name": "market_maker",
					"outputs": [
						{
							"internalType": "address",
							"name": "",
							"type": "address"
						}
					],
					"stateMutability": "view",
					"type": "function"
				},
				{
					"inputs": [
						{
							"internalType": "uint256",
							"name": "game_id",
							"type": "uint256"
						}
					],
					"name": "openGame",
					"outputs": [],
					"stateMutability": "nonpayable",
					"type": "function"
				},
				{
					"inputs": [],
					"name": "owner",
					"outputs": [
						{
							"internalType": "address",
							"name": "",
							"type": "address"
						}
					],
					"stateMutability": "view",
					"type": "function"
				},
				{
					"inputs": [
						{
							"internalType": "uint256",
							"name": "game_id",
							"type": "uint256"
						},
						{
							"internalType": "address",
							"name": "player",
							"type": "address"
						}
					],
					"name": "placePlayer",
					"outputs": [],
					"stateMutability": "nonpayable",
					"type": "function"
				},
				{
					"inputs": [
						{
							"internalType": "address",
							"name": "arcade_token",
							"type": "address"
						}
					],
					"name": "reconcile",
					"outputs": [],
					"stateMutability": "nonpayable",
					"type": "function"
				},
				{
					"inputs": [
						{
							"internalType": "uint256",
							"name": "game_id",
							"type": "uint256"
						},
						{
							"internalType": "address",
							"name": "player",
							"type": "address"
						}
					],
					"name": "refund",
					"outputs": [],
					"stateMutability": "nonpayable",
					"type": "function"
				},
				{
					"inputs": [
						{
							"internalType": "uint256",
							"name": "game_id",
							"type": "uint256"
						}
					],
					"name": "register",
					"outputs": [],
					"stateMutability": "nonpayable",
					"type": "function"
				},
				{
					"inputs": [
						{
							"internalType": "address",
							"name": "token_address",
							"type": "address"
						}
					],
					"name": "removeArcadeToken",
					"outputs": [],
					"stateMutability": "nonpayable",
					"type": "function"
				},
				{
					"inputs": [
						{
							"internalType": "uint256",
							"name": "game_id",
							"type": "uint256"
						},
						{
							"internalType": "address",
							"name": "player",
							"type": "address"
						}
					],
					"name": "removePlayer",
					"outputs": [],
					"stateMutability": "nonpayable",
					"type": "function"
				},
				{
					"inputs": [
						{
							"internalType": "bytes32",
							"name": "role",
							"type": "bytes32"
						},
						{
							"internalType": "address",
							"name": "account",
							"type": "address"
						}
					],
					"name": "renounceRole",
					"outputs": [],
					"stateMutability": "nonpayable",
					"type": "function"
				},
				{
					"inputs": [
						{
							"internalType": "bytes32",
							"name": "role",
							"type": "bytes32"
						},
						{
							"internalType": "address",
							"name": "account",
							"type": "address"
						}
					],
					"name": "revokeRole",
					"outputs": [],
					"stateMutability": "nonpayable",
					"type": "function"
				},
				{
					"inputs": [
						{
							"internalType": "uint256",
							"name": "percentage",
							"type": "uint256"
						}
					],
					"name": "setArcadeFeePercentage",
					"outputs": [],
					"stateMutability": "nonpayable",
					"type": "function"
				},
				{
					"inputs": [
						{
							"internalType": "address",
							"name": "incoming",
							"type": "address"
						}
					],
					"name": "setMarketMaker",
					"outputs": [],
					"stateMutability": "nonpayable",
					"type": "function"
				},
				{
					"inputs": [
						{
							"internalType": "uint256",
							"name": "game_id",
							"type": "uint256"
						},
						{
							"internalType": "address",
							"name": "winner",
							"type": "address"
						}
					],
					"name": "setWinner",
					"outputs": [],
					"stateMutability": "nonpayable",
					"type": "function"
				},
				{
					"inputs": [
						{
							"internalType": "bytes4",
							"name": "interfaceId",
							"type": "bytes4"
						}
					],
					"name": "supportsInterface",
					"outputs": [
						{
							"internalType": "bool",
							"name": "",
							"type": "bool"
						}
					],
					"stateMutability": "view",
					"type": "function"
				}
			],
			"devdoc": {
				"kind": "dev",
				"methods": {
					"addArcadeToken(address,uint256,bool)": {
						"details": "Adds token to {acceptedArcadeTokens} Require `token_address` for proxy balance exchange.   `redemption_rate` is set and determines the rate that proxy balance is exchanged.   Set `active` to reflect status of exchange."
					},
					"closeGame(uint256)": {
						"details": "Returns {active} for `token_address`."
					},
					"createGame(uint256,uint256,address,uint256,bool)": {
						"details": "Returns {active} for `token_address`."
					},
					"deleteGame(uint256)": {
						"details": "Returns {active} for `token_address`."
					},
					"getRoleAdmin(bytes32)": {
						"details": "Returns the admin role that controls `role`. See {grantRole} and {revokeRole}. To change a role's admin, use {_setRoleAdmin}."
					},
					"getStablecoin(address)": {
						"details": "Returns {Stablecoin} struct for `token_address`."
					},
					"grantRole(bytes32,address)": {
						"details": "Grants `role` to `account`. If `account` had not been already granted `role`, emits a {RoleGranted} event. Requirements: - the caller must have ``role``'s admin role."
					},
					"hasRole(bytes32,address)": {
						"details": "Returns `true` if `account` has been granted `role`."
					},
					"isAccepted(address)": {
						"details": "Returns {active} for `token_address`."
					},
					"openGame(uint256)": {
						"details": "Returns {active} for `token_address`."
					},
					"placePlayer(uint256,address)": {
						"details": "Returns {active} for `token_address`."
					},
					"reconcile(address)": {
						"details": "Returns {active} for `token_address`."
					},
					"refund(uint256,address)": {
						"details": "Returns {active} for `token_address`."
					},
					"register(uint256)": {
						"details": "Returns {active} for `token_address`."
					},
					"removeArcadeToken(address)": {
						"details": "Disable token for proxy balance exchange."
					},
					"removePlayer(uint256,address)": {
						"details": "Returns {active} for `token_address`."
					},
					"renounceRole(bytes32,address)": {
						"details": "Revokes `role` from the calling account. Roles are often managed via {grantRole} and {revokeRole}: this function's purpose is to provide a mechanism for accounts to lose their privileges if they are compromised (such as when a trusted device is misplaced). If the calling account had been revoked `role`, emits a {RoleRevoked} event. Requirements: - the caller must be `account`."
					},
					"revokeRole(bytes32,address)": {
						"details": "Revokes `role` from `account`. If `account` had been granted `role`, emits a {RoleRevoked} event. Requirements: - the caller must have ``role``'s admin role."
					},
					"setArcadeFeePercentage(uint256)": {
						"details": "Returns {active} for `token_address`."
					},
					"setMarketMaker(address)": {
						"details": "Returns {active} for `token_address`."
					},
					"setWinner(uint256,address)": {
						"details": "Returns {active} for `token_address`."
					},
					"supportsInterface(bytes4)": {
						"details": "See {IERC165-supportsInterface}."
					}
				},
				"version": 1
			},
			"evm": {
				"assembly": "    /* \"contracts/Arcade.sol\":263:8954  contract Arcade is AccessControl {... */\n  mstore(0x40, 0x80)\n    /* \"contracts/Arcade.sol\":1438:1440  18 */\n  0x12\n    /* \"contracts/Arcade.sol\":1412:1440  uint256 public decimals = 18 */\n  0x03\n  dup2\n  swap1\n  sstore\n    /* \"contracts/Arcade.sol\":1506:1529  10**(uint256(decimals)) */\n  tag_1\n  swap1\n    /* \"contracts/Arcade.sol\":1506:1508  10 */\n  0x0a\n    /* \"contracts/Arcade.sol\":1506:1529  10**(uint256(decimals)) */\n  tag_2\n  jump\t// in\ntag_1:\n    /* \"contracts/Arcade.sol\":1483:1529  uint256 private base = 10**(uint256(decimals)) */\n  0x05\n  sstore\n    /* \"contracts/Arcade.sol\":1597:1716  constructor() {... */\n  callvalue\n  dup1\n  iszero\n  tag_3\n  jumpi\n  0x00\n  dup1\n  revert\ntag_3:\n  pop\n    /* \"contracts/Arcade.sol\":1621:1626  owner */\n  0x07\n    /* \"contracts/Arcade.sol\":1621:1641  owner = _msgSender() */\n  dup1\n  sload\n    /* \"@openzeppelin/contracts@4.6.0/utils/Context.sol\":719:729  msg.sender */\n  caller\n  not(sub(shl(0xa0, 0x01), 0x01))\n    /* \"contracts/Arcade.sol\":1621:1641  owner = _msgSender() */\n  swap2\n  dup3\n  and\n  dup2\n  or\n  swap1\n  swap3\n  sstore\n    /* \"contracts/Arcade.sol\":1668:1672  1e17 */\n  0x016345785d8a0000\n    /* \"contracts/Arcade.sol\":1651:1665  fee_percentage */\n  0x04\n    /* \"contracts/Arcade.sol\":1651:1672  fee_percentage = 1e17 */\n  sstore\n    /* \"contracts/Arcade.sol\":1682:1694  market_maker */\n  0x06\n    /* \"contracts/Arcade.sol\":1682:1709  market_maker = _msgSender() */\n  dup1\n  sload\n  swap1\n  swap2\n  and\n  swap1\n  swap2\n  or\n  swap1\n  sstore\n    /* \"contracts/Arcade.sol\":263:8954  contract Arcade is AccessControl {... */\n  jump(tag_11)\n    /* \"#utility.yul\":14:436   */\ntag_12:\n    /* \"#utility.yul\":103:104   */\n  0x01\n    /* \"#utility.yul\":146:151   */\n  dup2\n    /* \"#utility.yul\":103:104   */\n  dup2\n    /* \"#utility.yul\":160:430   */\ntag_14:\n    /* \"#utility.yul\":181:188   */\n  dup1\n    /* \"#utility.yul\":171:179   */\n  dup6\n    /* \"#utility.yul\":168:189   */\n  gt\n    /* \"#utility.yul\":160:430   */\n  iszero\n  tag_16\n  jumpi\n    /* \"#utility.yul\":240:244   */\n  dup2\n    /* \"#utility.yul\":236:237   */\n  0x00\n    /* \"#utility.yul\":232:238   */\n  not\n    /* \"#utility.yul\":228:245   */\n  div\n    /* \"#utility.yul\":222:226   */\n  dup3\n    /* \"#utility.yul\":219:246   */\n  gt\n    /* \"#utility.yul\":216:218   */\n  iszero\n  tag_18\n  jumpi\n    /* \"#utility.yul\":249:267   */\n  tag_18\n  tag_19\n  jump\t// in\ntag_18:\n    /* \"#utility.yul\":299:306   */\n  dup1\n    /* \"#utility.yul\":289:297   */\n  dup6\n    /* \"#utility.yul\":285:307   */\n  and\n    /* \"#utility.yul\":282:284   */\n  iszero\n  tag_20\n  jumpi\n    /* \"#utility.yul\":319:335   */\n  swap2\n  dup2\n  mul\n  swap2\n    /* \"#utility.yul\":282:284   */\ntag_20:\n    /* \"#utility.yul\":398:420   */\n  swap4\n  dup5\n  shr\n  swap4\n    /* \"#utility.yul\":358:373   */\n  swap1\n  dup1\n  mul\n  swap1\n    /* \"#utility.yul\":160:430   */\n  jump(tag_14)\ntag_16:\n    /* \"#utility.yul\":164:167   */\n  pop\n    /* \"#utility.yul\":78:436   */\n  swap3\n  pop\n  swap3\n  swap1\n  pop\n  jump\t// out\n    /* \"#utility.yul\":441:572   */\ntag_2:\n    /* \"#utility.yul\":501:506   */\n  0x00\n    /* \"#utility.yul\":530:566   */\n  tag_22\n    /* \"#utility.yul\":557:565   */\n  dup4\n    /* \"#utility.yul\":551:555   */\n  dup4\n    /* \"#utility.yul\":530:566   */\n  tag_23\n  jump\t// in\ntag_22:\n    /* \"#utility.yul\":521:566   */\n  swap4\n    /* \"#utility.yul\":511:572   */\n  swap3\n  pop\n  pop\n  pop\n  jump\t// out\n    /* \"#utility.yul\":577:1383   */\ntag_23:\n    /* \"#utility.yul\":626:631   */\n  0x00\n    /* \"#utility.yul\":656:664   */\n  dup3\n    /* \"#utility.yul\":646:648   */\n  tag_25\n  jumpi\n  pop\n    /* \"#utility.yul\":697:698   */\n  0x01\n    /* \"#utility.yul\":711:716   */\n  jump(tag_24)\n    /* \"#utility.yul\":646:648   */\ntag_25:\n    /* \"#utility.yul\":745:749   */\n  dup2\n    /* \"#utility.yul\":735:737   */\n  tag_26\n  jumpi\n  pop\n    /* \"#utility.yul\":782:783   */\n  0x00\n    /* \"#utility.yul\":796:801   */\n  jump(tag_24)\n    /* \"#utility.yul\":735:737   */\ntag_26:\n    /* \"#utility.yul\":827:831   */\n  dup2\n    /* \"#utility.yul\":845:846   */\n  0x01\n    /* \"#utility.yul\":840:899   */\n  dup2\n  eq\n  tag_28\n  jumpi\n    /* \"#utility.yul\":913:914   */\n  0x02\n    /* \"#utility.yul\":908:1038   */\n  dup2\n  eq\n  tag_29\n  jumpi\n    /* \"#utility.yul\":820:1038   */\n  jump(tag_27)\n    /* \"#utility.yul\":840:899   */\ntag_28:\n    /* \"#utility.yul\":870:871   */\n  0x01\n    /* \"#utility.yul\":861:871   */\n  swap2\n  pop\n    /* \"#utility.yul\":884:889   */\n  pop\n  jump(tag_24)\n    /* \"#utility.yul\":908:1038   */\ntag_29:\n    /* \"#utility.yul\":945:948   */\n  0xff\n    /* \"#utility.yul\":935:943   */\n  dup5\n    /* \"#utility.yul\":932:949   */\n  gt\n    /* \"#utility.yul\":929:931   */\n  iszero\n  tag_31\n  jumpi\n    /* \"#utility.yul\":952:970   */\n  tag_31\n  tag_19\n  jump\t// in\ntag_31:\n  pop\n  pop\n    /* \"#utility.yul\":1008:1009   */\n  0x01\n    /* \"#utility.yul\":994:1010   */\n  dup3\n  shl\n    /* \"#utility.yul\":1023:1028   */\n  jump(tag_24)\n    /* \"#utility.yul\":820:1038   */\ntag_27:\n  pop\n    /* \"#utility.yul\":1122:1124   */\n  0x20\n    /* \"#utility.yul\":1112:1120   */\n  dup4\n    /* \"#utility.yul\":1109:1125   */\n  lt\n    /* \"#utility.yul\":1103:1106   */\n  0x0133\n    /* \"#utility.yul\":1097:1101   */\n  dup4\n    /* \"#utility.yul\":1094:1107   */\n  lt\n    /* \"#utility.yul\":1090:1126   */\n  and\n    /* \"#utility.yul\":1084:1086   */\n  0x4e\n    /* \"#utility.yul\":1074:1082   */\n  dup5\n    /* \"#utility.yul\":1071:1087   */\n  lt\n    /* \"#utility.yul\":1066:1068   */\n  0x0b\n    /* \"#utility.yul\":1060:1064   */\n  dup5\n    /* \"#utility.yul\":1057:1069   */\n  lt\n    /* \"#utility.yul\":1053:1088   */\n  and\n    /* \"#utility.yul\":1050:1127   */\n  or\n    /* \"#utility.yul\":1047:1049   */\n  iszero\n  tag_32\n  jumpi\n  pop\n    /* \"#utility.yul\":1159:1178   */\n  dup2\n  dup2\n  exp\n    /* \"#utility.yul\":1191:1196   */\n  jump(tag_24)\n    /* \"#utility.yul\":1047:1049   */\ntag_32:\n    /* \"#utility.yul\":1238:1272   */\n  tag_33\n    /* \"#utility.yul\":1263:1271   */\n  dup4\n    /* \"#utility.yul\":1257:1261   */\n  dup4\n    /* \"#utility.yul\":1238:1272   */\n  tag_12\n  jump\t// in\ntag_33:\n    /* \"#utility.yul\":1308:1314   */\n  dup1\n    /* \"#utility.yul\":1304:1305   */\n  0x00\n    /* \"#utility.yul\":1300:1306   */\n  not\n    /* \"#utility.yul\":1296:1315   */\n  div\n    /* \"#utility.yul\":1287:1294   */\n  dup3\n    /* \"#utility.yul\":1284:1316   */\n  gt\n    /* \"#utility.yul\":1281:1283   */\n  iszero\n  tag_35\n  jumpi\n    /* \"#utility.yul\":1319:1337   */\n  tag_35\n  tag_19\n  jump\t// in\ntag_35:\n    /* \"#utility.yul\":1357:1377   */\n  mul\n  swap1\n  pop\n    /* \"#utility.yul\":636:1383   */\ntag_24:\n  swap3\n  swap2\n  pop\n  pop\n  jump\t// out\n    /* \"#utility.yul\":1388:1515   */\ntag_19:\n    /* \"#utility.yul\":1449:1459   */\n  0x4e487b71\n    /* \"#utility.yul\":1444:1447   */\n  0xe0\n    /* \"#utility.yul\":1440:1460   */\n  shl\n    /* \"#utility.yul\":1437:1438   */\n  0x00\n    /* \"#utility.yul\":1430:1461   */\n  mstore\n    /* \"#utility.yul\":1480:1484   */\n  0x11\n    /* \"#utility.yul\":1477:1478   */\n  0x04\n    /* \"#utility.yul\":1470:1485   */\n  mstore\n    /* \"#utility.yul\":1504:1508   */\n  0x24\n    /* \"#utility.yul\":1501:1502   */\n  0x00\n    /* \"#utility.yul\":1494:1509   */\n  revert\n    /* \"#utility.yul\":1420:1515   */\ntag_11:\n    /* \"contracts/Arcade.sol\":263:8954  contract Arcade is AccessControl {... */\n  dataSize(sub_0)\n  dup1\n  dataOffset(sub_0)\n  0x00\n  codecopy\n  0x00\n  return\nstop\n\nsub_0: assembly {\n        /* \"contracts/Arcade.sol\":263:8954  contract Arcade is AccessControl {... */\n      mstore(0x40, 0x80)\n      callvalue\n      dup1\n      iszero\n      tag_1\n      jumpi\n      0x00\n      dup1\n      revert\n    tag_1:\n      pop\n      jumpi(tag_2, lt(calldatasize, 0x04))\n      shr(0xe0, calldataload(0x00))\n      dup1\n      0x7ad226dc\n      gt\n      tag_33\n      jumpi\n      dup1\n      0xc46ed45a\n      gt\n      tag_34\n      jumpi\n      dup1\n      0xf0a3a97c\n      gt\n      tag_35\n      jumpi\n      dup1\n      0xf0a3a97c\n      eq\n      tag_29\n      jumpi\n      dup1\n      0xf207564e\n      eq\n      tag_30\n      jumpi\n      dup1\n      0xf336ee3c\n      eq\n      tag_31\n      jumpi\n      dup1\n      0xf54c42d7\n      eq\n      tag_32\n      jumpi\n      0x00\n      dup1\n      revert\n    tag_35:\n      dup1\n      0xc46ed45a\n      eq\n      tag_25\n      jumpi\n      dup1\n      0xccaf237f\n      eq\n      tag_26\n      jumpi\n      dup1\n      0xd547741f\n      eq\n      tag_27\n      jumpi\n      dup1\n      0xe6f091f9\n      eq\n      tag_28\n      jumpi\n      0x00\n      dup1\n      revert\n    tag_34:\n      dup1\n      0x9c623683\n      gt\n      tag_36\n      jumpi\n      dup1\n      0x9c623683\n      eq\n      tag_21\n      jumpi\n      dup1\n      0xa217fddf\n      eq\n      tag_22\n      jumpi\n      dup1\n      0xb22c376d\n      eq\n      tag_23\n      jumpi\n      dup1\n      0xb9888d89\n      eq\n      tag_24\n      jumpi\n      0x00\n      dup1\n      revert\n    tag_36:\n      dup1\n      0x7ad226dc\n      eq\n      tag_18\n      jumpi\n      dup1\n      0x8da5cb5b\n      eq\n      tag_19\n      jumpi\n      dup1\n      0x91d14854\n      eq\n      tag_20\n      jumpi\n      0x00\n      dup1\n      revert\n    tag_33:\n      dup1\n      0x2ba67100\n      gt\n      tag_37\n      jumpi\n      dup1\n      0x36568abe\n      gt\n      tag_38\n      jumpi\n      dup1\n      0x36568abe\n      eq\n      tag_14\n      jumpi\n      dup1\n      0x3e16518f\n      eq\n      tag_15\n      jumpi\n      dup1\n      0x4575624b\n      eq\n      tag_16\n      jumpi\n      dup1\n      0x75ca7603\n      eq\n      tag_17\n      jumpi\n      0x00\n      dup1\n      revert\n    tag_38:\n      dup1\n      0x2ba67100\n      eq\n      tag_10\n      jumpi\n      dup1\n      0x2d6ef310\n      eq\n      tag_11\n      jumpi\n      dup1\n      0x2f2ff15d\n      eq\n      tag_12\n      jumpi\n      dup1\n      0x313ce567\n      eq\n      tag_13\n      jumpi\n      0x00\n      dup1\n      revert\n    tag_37:\n      dup1\n      0x09a18635\n      gt\n      tag_39\n      jumpi\n      dup1\n      0x09a18635\n      eq\n      tag_6\n      jumpi\n      dup1\n      0x248a55a1\n      eq\n      tag_7\n      jumpi\n      dup1\n      0x248a9ca3\n      eq\n      tag_8\n      jumpi\n      dup1\n      0x2ac5016f\n      eq\n      tag_9\n      jumpi\n      0x00\n      dup1\n      revert\n    tag_39:\n      dup1\n      0xf5544f\n      eq\n      tag_3\n      jumpi\n      dup1\n      0x01ffc9a7\n      eq\n      tag_4\n      jumpi\n      dup1\n      0x06602a48\n      eq\n      tag_5\n      jumpi\n    tag_2:\n      0x00\n      dup1\n      revert\n        /* \"contracts/Arcade.sol\":4397:4546  function openGame(uint256 game_id) public onlyRole(DEFAULT_ADMIN_ROLE) {... */\n    tag_3:\n      tag_40\n      tag_41\n      calldatasize\n      0x04\n      tag_63\n      jump\t// in\n    tag_41:\n      tag_43\n      jump\t// in\n    tag_40:\n      stop\n        /* \"@openzeppelin/contracts@4.6.0/access/AccessControl.sol\":2606:2808  function supportsInterface(bytes4 interfaceId) public view virtual override returns (bool) {... */\n    tag_4:\n      tag_44\n      tag_45\n      calldatasize\n      0x04\n      tag_46\n      jump\t// in\n    tag_45:\n      tag_47\n      jump\t// in\n    tag_44:\n      mload(0x40)\n        /* \"#utility.yul\":5223:5237   */\n      swap1\n      iszero\n        /* \"#utility.yul\":5216:5238   */\n      iszero\n        /* \"#utility.yul\":5198:5239   */\n      dup2\n      mstore\n        /* \"#utility.yul\":5186:5188   */\n      0x20\n        /* \"#utility.yul\":5171:5189   */\n      add\n        /* \"@openzeppelin/contracts@4.6.0/access/AccessControl.sol\":2606:2808  function supportsInterface(bytes4 interfaceId) public view virtual override returns (bool) {... */\n    tag_48:\n      mload(0x40)\n      dup1\n      swap2\n      sub\n      swap1\n      return\n        /* \"contracts/Arcade.sol\":2191:2755  function addArcadeToken(address token_address, uint256 redemption_rate, bool _active) public onlyRole(TREASURER_ROLE) {... */\n    tag_5:\n      tag_40\n      tag_51\n      calldatasize\n      0x04\n      tag_52\n      jump\t// in\n    tag_51:\n      tag_53\n      jump\t// in\n        /* \"contracts/Arcade.sol\":4971:5280  function reconcile(address arcade_token) public onlyRole(DEFAULT_ADMIN_ROLE) {... */\n    tag_6:\n      tag_40\n      tag_55\n      calldatasize\n      0x04\n      tag_56\n      jump\t// in\n    tag_55:\n      tag_57\n      jump\t// in\n        /* \"contracts/Arcade.sol\":4176:4325  function deleteGame(uint256 game_id) public onlyRole(DEFAULT_ADMIN_ROLE) {... */\n    tag_7:\n      tag_40\n      tag_59\n      calldatasize\n      0x04\n      tag_63\n      jump\t// in\n    tag_59:\n      tag_60\n      jump\t// in\n        /* \"@openzeppelin/contracts@4.6.0/access/AccessControl.sol\":4391:4520  function getRoleAdmin(bytes32 role) public view virtual override returns (bytes32) {... */\n    tag_8:\n      tag_61\n      tag_62\n      calldatasize\n      0x04\n      tag_63\n      jump\t// in\n    tag_62:\n        /* \"@openzeppelin/contracts@4.6.0/access/AccessControl.sol\":4465:4472  bytes32 */\n      0x00\n        /* \"@openzeppelin/contracts@4.6.0/access/AccessControl.sol\":4491:4503  _roles[role] */\n      swap1\n      dup2\n      mstore\n      0x20\n      dup2\n      swap1\n      mstore\n      0x40\n      swap1\n      keccak256\n        /* \"@openzeppelin/contracts@4.6.0/access/AccessControl.sol\":4491:4513  _roles[role].adminRole */\n      0x01\n      add\n      sload\n      swap1\n        /* \"@openzeppelin/contracts@4.6.0/access/AccessControl.sol\":4391:4520  function getRoleAdmin(bytes32 role) public view virtual override returns (bytes32) {... */\n      jump\n    tag_61:\n      mload(0x40)\n        /* \"#utility.yul\":6307:6332   */\n      swap1\n      dup2\n      mstore\n        /* \"#utility.yul\":6295:6297   */\n      0x20\n        /* \"#utility.yul\":6280:6298   */\n      add\n        /* \"@openzeppelin/contracts@4.6.0/access/AccessControl.sol\":4391:4520  function getRoleAdmin(bytes32 role) public view virtual override returns (bytes32) {... */\n      tag_48\n        /* \"#utility.yul\":6262:6338   */\n      jump\n        /* \"contracts/Arcade.sol\":7692:7824  function setArcadeFeePercentage(uint256 percentage) public onlyRole(DEFAULT_ADMIN_ROLE) {... */\n    tag_9:\n      tag_40\n      tag_68\n      calldatasize\n      0x04\n      tag_63\n      jump\t// in\n    tag_68:\n      tag_69\n      jump\t// in\n        /* \"contracts/Arcade.sol\":7441:7620  function removePlayer(uint256 game_id, address player) public onlyRole(DEFAULT_ADMIN_ROLE) {... */\n    tag_10:\n      tag_40\n      tag_71\n      calldatasize\n      0x04\n      tag_79\n      jump\t// in\n    tag_71:\n      tag_73\n      jump\t// in\n        /* \"contracts/Arcade.sol\":3338:3489  function closeGame(uint256 game_id) public onlyRole(DEFAULT_ADMIN_ROLE) {... */\n    tag_11:\n      tag_40\n      tag_75\n      calldatasize\n      0x04\n      tag_63\n      jump\t// in\n    tag_75:\n      tag_76\n      jump\t// in\n        /* \"@openzeppelin/contracts@4.6.0/access/AccessControl.sol\":4770:4915  function grantRole(bytes32 role, address account) public virtual override onlyRole(getRoleAdmin(role)) {... */\n    tag_12:\n      tag_40\n      tag_78\n      calldatasize\n      0x04\n      tag_79\n      jump\t// in\n    tag_78:\n      tag_80\n      jump\t// in\n        /* \"contracts/Arcade.sol\":1412:1440  uint256 public decimals = 18 */\n    tag_13:\n      tag_61\n      sload(0x03)\n      dup2\n      jump\n        /* \"@openzeppelin/contracts@4.6.0/access/AccessControl.sol\":5787:6001  function renounceRole(bytes32 role, address account) public virtual override {... */\n    tag_14:\n      tag_40\n      tag_86\n      calldatasize\n      0x04\n      tag_79\n      jump\t// in\n    tag_86:\n      tag_87\n      jump\t// in\n        /* \"contracts/Arcade.sol\":2831:2980  function removeArcadeToken(address token_address) public onlyRole(TREASURER_ROLE) {... */\n    tag_15:\n      tag_40\n      tag_89\n      calldatasize\n      0x04\n      tag_56\n      jump\t// in\n    tag_89:\n      tag_90\n      jump\t// in\n        /* \"contracts/Arcade.sol\":3063:3266  function getStablecoin(address token_address) public view returns (bool, uint256) {... */\n    tag_16:\n      tag_91\n      tag_92\n      calldatasize\n      0x04\n      tag_56\n      jump\t// in\n    tag_92:\n      sub(shl(0xa0, 0x01), 0x01)\n        /* \"contracts/Arcade.sol\":3163:3198  acceptedArcadeTokens[token_address] */\n      and\n        /* \"contracts/Arcade.sol\":3130:3134  bool */\n      0x00\n        /* \"contracts/Arcade.sol\":3163:3198  acceptedArcadeTokens[token_address] */\n      swap1\n      dup2\n      mstore\n        /* \"contracts/Arcade.sol\":3163:3183  acceptedArcadeTokens */\n      0x01\n        /* \"contracts/Arcade.sol\":3163:3198  acceptedArcadeTokens[token_address] */\n      0x20\n      dup2\n      swap1\n      mstore\n      0x40\n      swap1\n      swap2\n      keccak256\n        /* \"contracts/Arcade.sol\":3163:3205  acceptedArcadeTokens[token_address].active */\n      dup1\n      sload\n        /* \"contracts/Arcade.sol\":3207:3258  acceptedArcadeTokens[token_address].redemption_rate */\n      swap2\n      add\n      sload\n      shl(0xa0, 0x01)\n        /* \"contracts/Arcade.sol\":3163:3205  acceptedArcadeTokens[token_address].active */\n      swap1\n      swap2\n      div\n      0xff\n      and\n      swap2\n        /* \"contracts/Arcade.sol\":3063:3266  function getStablecoin(address token_address) public view returns (bool, uint256) {... */\n      jump\n    tag_91:\n      0x40\n      dup1\n      mload\n        /* \"#utility.yul\":5443:5457   */\n      swap3\n      iszero\n        /* \"#utility.yul\":5436:5458   */\n      iszero\n        /* \"#utility.yul\":5418:5459   */\n      dup4\n      mstore\n        /* \"#utility.yul\":5490:5492   */\n      0x20\n        /* \"#utility.yul\":5475:5493   */\n      dup4\n      add\n        /* \"#utility.yul\":5468:5502   */\n      swap2\n      swap1\n      swap2\n      mstore\n        /* \"#utility.yul\":5391:5409   */\n      add\n        /* \"contracts/Arcade.sol\":3063:3266  function getStablecoin(address token_address) public view returns (bool, uint256) {... */\n      tag_48\n        /* \"#utility.yul\":5373:5508   */\n      jump\n        /* \"contracts/Arcade.sol\":1536:1563  address public market_maker */\n    tag_17:\n      sload(0x06)\n      tag_96\n      swap1\n      sub(shl(0xa0, 0x01), 0x01)\n      and\n      dup2\n      jump\n    tag_96:\n      mload(0x40)\n      sub(shl(0xa0, 0x01), 0x01)\n        /* \"#utility.yul\":3991:4023   */\n      swap1\n      swap2\n      and\n        /* \"#utility.yul\":3973:4024   */\n      dup2\n      mstore\n        /* \"#utility.yul\":3961:3963   */\n      0x20\n        /* \"#utility.yul\":3946:3964   */\n      add\n        /* \"contracts/Arcade.sol\":1536:1563  address public market_maker */\n      tag_48\n        /* \"#utility.yul\":3928:4030   */\n      jump\n        /* \"contracts/Arcade.sol\":5352:6044  function refund(uint256 game_id, address player) public onlyRole(DEFAULT_ADMIN_ROLE) {... */\n    tag_18:\n      tag_40\n      tag_101\n      calldatasize\n      0x04\n      tag_79\n      jump\t// in\n    tag_101:\n      tag_102\n      jump\t// in\n        /* \"contracts/Arcade.sol\":1570:1590  address public owner */\n    tag_19:\n      sload(0x07)\n      tag_96\n      swap1\n      sub(shl(0xa0, 0x01), 0x01)\n      and\n      dup2\n      jump\n        /* \"@openzeppelin/contracts@4.6.0/access/AccessControl.sol\":2895:3040  function hasRole(bytes32 role, address account) public view virtual override returns (bool) {... */\n    tag_20:\n      tag_44\n      tag_107\n      calldatasize\n      0x04\n      tag_79\n      jump\t// in\n    tag_107:\n      tag_108\n      jump\t// in\n        /* \"contracts/Arcade.sol\":8086:8952  function setWinner(uint256 game_id, address winner) public onlyRole(DEFAULT_ADMIN_ROLE) {... */\n    tag_21:\n      tag_40\n      tag_111\n      calldatasize\n      0x04\n      tag_79\n      jump\t// in\n    tag_111:\n      tag_112\n      jump\t// in\n        /* \"@openzeppelin/contracts@4.6.0/access/AccessControl.sol\":2027:2076  bytes32 public constant DEFAULT_ADMIN_ROLE = 0x00 */\n    tag_22:\n      tag_61\n        /* \"@openzeppelin/contracts@4.6.0/access/AccessControl.sol\":2072:2076  0x00 */\n      0x00\n        /* \"@openzeppelin/contracts@4.6.0/access/AccessControl.sol\":2027:2076  bytes32 public constant DEFAULT_ADMIN_ROLE = 0x00 */\n      dup2\n      jump\n        /* \"contracts/Arcade.sol\":1295:1354  mapping(address => ArcadeToken) public acceptedArcadeTokens */\n    tag_23:\n      tag_116\n      tag_117\n      calldatasize\n      0x04\n      tag_56\n      jump\t// in\n    tag_117:\n      0x01\n      0x20\n      dup2\n      swap1\n      mstore\n      0x00\n      swap2\n      dup3\n      mstore\n      0x40\n      swap1\n      swap2\n      keccak256\n      dup1\n      sload\n      swap2\n      add\n      sload\n      sub(shl(0xa0, 0x01), 0x01)\n      dup3\n      and\n      swap2\n      shl(0xa0, 0x01)\n      swap1\n      div\n      0xff\n      and\n      swap1\n      dup4\n      jump\n    tag_116:\n      0x40\n      dup1\n      mload\n      sub(shl(0xa0, 0x01), 0x01)\n        /* \"#utility.yul\":6572:6604   */\n      swap1\n      swap5\n      and\n        /* \"#utility.yul\":6554:6605   */\n      dup5\n      mstore\n        /* \"#utility.yul\":6648:6662   */\n      swap2\n      iszero\n        /* \"#utility.yul\":6641:6663   */\n      iszero\n        /* \"#utility.yul\":6636:6638   */\n      0x20\n        /* \"#utility.yul\":6621:6639   */\n      dup5\n      add\n        /* \"#utility.yul\":6614:6664   */\n      mstore\n        /* \"#utility.yul\":6680:6698   */\n      swap1\n      dup3\n      add\n        /* \"#utility.yul\":6673:6707   */\n      mstore\n        /* \"#utility.yul\":6542:6544   */\n      0x60\n        /* \"#utility.yul\":6527:6545   */\n      add\n        /* \"contracts/Arcade.sol\":1295:1354  mapping(address => ArcadeToken) public acceptedArcadeTokens */\n      tag_48\n        /* \"#utility.yul\":6509:6713   */\n      jump\n        /* \"contracts/Arcade.sol\":4618:4899  function placePlayer(uint256 game_id, address player) public onlyRole(DEFAULT_ADMIN_ROLE) {... */\n    tag_24:\n      tag_40\n      tag_122\n      calldatasize\n      0x04\n      tag_79\n      jump\t// in\n    tag_122:\n      tag_123\n      jump\t// in\n        /* \"contracts/Arcade.sol\":1447:1476  uint256 public fee_percentage */\n    tag_25:\n      tag_61\n      sload(0x04)\n      dup2\n      jump\n        /* \"contracts/Arcade.sol\":1361:1405  mapping(uint256 => GameInfo) public gameData */\n    tag_26:\n      tag_127\n      tag_128\n      calldatasize\n      0x04\n      tag_63\n      jump\t// in\n    tag_128:\n      0x02\n      0x20\n      dup2\n      swap1\n      mstore\n      0x00\n      swap2\n      dup3\n      mstore\n      0x40\n      swap1\n      swap2\n      keccak256\n      dup1\n      sload\n      0x01\n      dup3\n      add\n      sload\n      swap3\n      dup3\n      add\n      sload\n      0x03\n      dup4\n      add\n      sload\n      0x04\n      dup5\n      add\n      sload\n      0x05\n      dup6\n      add\n      sload\n      0x06\n      swap1\n      swap6\n      add\n      sload\n      0xff\n      swap1\n      swap5\n      and\n      swap6\n      swap5\n      swap3\n      swap4\n      swap2\n      swap3\n      swap1\n      swap2\n      sub(shl(0xa0, 0x01), 0x01)\n      swap1\n      swap2\n      and\n      swap1\n      dup8\n      jump\n    tag_127:\n      0x40\n      dup1\n      mload\n        /* \"#utility.yul\":5847:5861   */\n      swap8\n      iszero\n        /* \"#utility.yul\":5840:5862   */\n      iszero\n        /* \"#utility.yul\":5822:5863   */\n      dup9\n      mstore\n        /* \"#utility.yul\":5894:5896   */\n      0x20\n        /* \"#utility.yul\":5879:5897   */\n      dup9\n      add\n        /* \"#utility.yul\":5872:5906   */\n      swap7\n      swap1\n      swap7\n      mstore\n        /* \"#utility.yul\":5922:5940   */\n      swap5\n      dup7\n      add\n        /* \"#utility.yul\":5915:5949   */\n      swap4\n      swap1\n      swap4\n      mstore\n        /* \"#utility.yul\":5980:5982   */\n      0x60\n        /* \"#utility.yul\":5965:5983   */\n      dup6\n      add\n        /* \"#utility.yul\":5958:5992   */\n      swap2\n      swap1\n      swap2\n      mstore\n        /* \"#utility.yul\":6023:6026   */\n      0x80\n        /* \"#utility.yul\":6008:6027   */\n      dup5\n      add\n        /* \"#utility.yul\":6001:6036   */\n      mstore\n      sub(shl(0xa0, 0x01), 0x01)\n        /* \"#utility.yul\":6073:6105   */\n      and\n        /* \"#utility.yul\":6093:6096   */\n      0xa0\n        /* \"#utility.yul\":6052:6071   */\n      dup4\n      add\n        /* \"#utility.yul\":6045:6106   */\n      mstore\n        /* \"#utility.yul\":6137:6140   */\n      0xc0\n        /* \"#utility.yul\":6122:6141   */\n      dup3\n      add\n        /* \"#utility.yul\":6115:6150   */\n      mstore\n        /* \"#utility.yul\":5809:5812   */\n      0xe0\n        /* \"#utility.yul\":5794:5813   */\n      add\n        /* \"contracts/Arcade.sol\":1361:1405  mapping(uint256 => GameInfo) public gameData */\n      tag_48\n        /* \"#utility.yul\":5776:6156   */\n      jump\n        /* \"@openzeppelin/contracts@4.6.0/access/AccessControl.sol\":5149:5296  function revokeRole(bytes32 role, address account) public virtual override onlyRole(getRoleAdmin(role)) {... */\n    tag_27:\n      tag_40\n      tag_133\n      calldatasize\n      0x04\n      tag_79\n      jump\t// in\n    tag_133:\n      tag_134\n      jump\t// in\n        /* \"contracts/Arcade.sol\":1788:1924  function isAccepted(address token_address) public view returns (bool) {... */\n    tag_28:\n      tag_44\n      tag_136\n      calldatasize\n      0x04\n      tag_56\n      jump\t// in\n    tag_136:\n      sub(shl(0xa0, 0x01), 0x01)\n        /* \"contracts/Arcade.sol\":1875:1910  acceptedArcadeTokens[token_address] */\n      and\n        /* \"contracts/Arcade.sol\":1852:1856  bool */\n      0x00\n        /* \"contracts/Arcade.sol\":1875:1910  acceptedArcadeTokens[token_address] */\n      swap1\n      dup2\n      mstore\n        /* \"contracts/Arcade.sol\":1875:1895  acceptedArcadeTokens */\n      0x01\n        /* \"contracts/Arcade.sol\":1875:1910  acceptedArcadeTokens[token_address] */\n      0x20\n      mstore\n      0x40\n      swap1\n      keccak256\n        /* \"contracts/Arcade.sol\":1875:1917  acceptedArcadeTokens[token_address].active */\n      sload\n      shl(0xa0, 0x01)\n      swap1\n      div\n      0xff\n      and\n      swap1\n        /* \"contracts/Arcade.sol\":1788:1924  function isAccepted(address token_address) public view returns (bool) {... */\n      jump\n        /* \"contracts/Arcade.sol\":745:813  bytes32 public constant TREASURER_ROLE = keccak256(\"TREASURER_ROLE\") */\n    tag_29:\n      tag_61\n        /* \"contracts/Arcade.sol\":786:813  keccak256(\"TREASURER_ROLE\") */\n      0x3496e2e73c4d42b75d702e60d9e48102720b8691234415963a5a857b86425d07\n        /* \"contracts/Arcade.sol\":745:813  bytes32 public constant TREASURER_ROLE = keccak256(\"TREASURER_ROLE\") */\n      dup2\n      jump\n        /* \"contracts/Arcade.sol\":6524:7369  function register(uint256 game_id) public {... */\n    tag_30:\n      tag_40\n      tag_143\n      calldatasize\n      0x04\n      tag_63\n      jump\t// in\n    tag_143:\n      tag_144\n      jump\t// in\n        /* \"contracts/Arcade.sol\":3561:4104  function createGame(uint256 game_id, uint256 registration_fee, address arcade_token, uint256 player_limit, bool exchange) public onlyRole(DEFAULT_ADMIN_ROLE) {... */\n    tag_31:\n      tag_40\n      tag_146\n      calldatasize\n      0x04\n      tag_147\n      jump\t// in\n    tag_146:\n      tag_148\n      jump\t// in\n        /* \"contracts/Arcade.sol\":7896:8014  function setMarketMaker(address incoming) public onlyRole(DEFAULT_ADMIN_ROLE) {... */\n    tag_32:\n      tag_40\n      tag_150\n      calldatasize\n      0x04\n      tag_56\n      jump\t// in\n    tag_150:\n      tag_151\n      jump\t// in\n        /* \"contracts/Arcade.sol\":4397:4546  function openGame(uint256 game_id) public onlyRole(DEFAULT_ADMIN_ROLE) {... */\n    tag_43:\n        /* \"@openzeppelin/contracts@4.6.0/access/AccessControl.sol\":2072:2076  0x00 */\n      0x00\n        /* \"@openzeppelin/contracts@4.6.0/access/AccessControl.sol\":2505:2521  _checkRole(role) */\n      tag_153\n        /* \"@openzeppelin/contracts@4.6.0/access/AccessControl.sol\":2072:2076  0x00 */\n      dup2\n        /* \"@openzeppelin/contracts@4.6.0/access/AccessControl.sol\":2505:2515  _checkRole */\n      tag_154\n        /* \"@openzeppelin/contracts@4.6.0/access/AccessControl.sol\":2505:2521  _checkRole(role) */\n      jump\t// in\n    tag_153:\n        /* \"contracts/Arcade.sol\":4478:4495  gameData[game_id] */\n      0x00\n      dup3\n      dup2\n      mstore\n        /* \"contracts/Arcade.sol\":4478:4486  gameData */\n      0x02\n        /* \"contracts/Arcade.sol\":4478:4495  gameData[game_id] */\n      0x20\n      mstore\n      0x40\n      swap1\n      dup2\n      swap1\n      keccak256\n        /* \"contracts/Arcade.sol\":4505:4506  1 */\n      0x01\n        /* \"contracts/Arcade.sol\":4478:4502  gameData[game_id].status */\n      0x04\n      swap1\n      swap2\n      add\n        /* \"contracts/Arcade.sol\":4478:4506  gameData[game_id].status = 1 */\n      sstore\n        /* \"contracts/Arcade.sol\":4522:4539  OpenGame(game_id) */\n      mload\n      0x651a9760985edc53055bf2462cb4437b9be3de87aa3eecf2c05782e8b58eba19\n      swap1\n      tag_156\n      swap1\n        /* \"contracts/Arcade.sol\":4487:4494  game_id */\n      dup5\n        /* \"#utility.yul\":6307:6332   */\n      dup2\n      mstore\n        /* \"#utility.yul\":6295:6297   */\n      0x20\n        /* \"#utility.yul\":6280:6298   */\n      add\n      swap1\n        /* \"#utility.yul\":6262:6338   */\n      jump\n        /* \"contracts/Arcade.sol\":4522:4539  OpenGame(game_id) */\n    tag_156:\n      mload(0x40)\n      dup1\n      swap2\n      sub\n      swap1\n      log1\n        /* \"contracts/Arcade.sol\":4397:4546  function openGame(uint256 game_id) public onlyRole(DEFAULT_ADMIN_ROLE) {... */\n      pop\n      pop\n      jump\t// out\n        /* \"@openzeppelin/contracts@4.6.0/access/AccessControl.sol\":2606:2808  function supportsInterface(bytes4 interfaceId) public view virtual override returns (bool) {... */\n    tag_47:\n        /* \"@openzeppelin/contracts@4.6.0/access/AccessControl.sol\":2691:2695  bool */\n      0x00\n      not(sub(shl(0xe0, 0x01), 0x01))\n        /* \"@openzeppelin/contracts@4.6.0/access/AccessControl.sol\":2714:2761  interfaceId == type(IAccessControl).interfaceId */\n      dup3\n      and\n      shl(0xe0, 0x7965db0b)\n      eq\n      dup1\n        /* \"@openzeppelin/contracts@4.6.0/access/AccessControl.sol\":2714:2801  interfaceId == type(IAccessControl).interfaceId || super.supportsInterface(interfaceId) */\n      tag_159\n      jumpi\n      pop\n      shl(0xe0, 0x01ffc9a7)\n      not(sub(shl(0xe0, 0x01), 0x01))\n        /* \"@openzeppelin/contracts@4.6.0/utils/introspection/ERC165.sol\":937:977  interfaceId == type(IERC165).interfaceId */\n      dup4\n      and\n      eq\n        /* \"@openzeppelin/contracts@4.6.0/access/AccessControl.sol\":2765:2801  super.supportsInterface(interfaceId) */\n    tag_159:\n        /* \"@openzeppelin/contracts@4.6.0/access/AccessControl.sol\":2707:2801  return interfaceId == type(IAccessControl).interfaceId || super.supportsInterface(interfaceId) */\n      swap3\n        /* \"@openzeppelin/contracts@4.6.0/access/AccessControl.sol\":2606:2808  function supportsInterface(bytes4 interfaceId) public view virtual override returns (bool) {... */\n      swap2\n      pop\n      pop\n      jump\t// out\n        /* \"contracts/Arcade.sol\":2191:2755  function addArcadeToken(address token_address, uint256 redemption_rate, bool _active) public onlyRole(TREASURER_ROLE) {... */\n    tag_53:\n        /* \"contracts/Arcade.sol\":786:813  keccak256(\"TREASURER_ROLE\") */\n      0x3496e2e73c4d42b75d702e60d9e48102720b8691234415963a5a857b86425d07\n        /* \"@openzeppelin/contracts@4.6.0/access/AccessControl.sol\":2505:2521  _checkRole(role) */\n      tag_162\n        /* \"@openzeppelin/contracts@4.6.0/access/AccessControl.sol\":2516:2520  role */\n      dup2\n        /* \"@openzeppelin/contracts@4.6.0/access/AccessControl.sol\":2505:2515  _checkRole */\n      tag_154\n        /* \"@openzeppelin/contracts@4.6.0/access/AccessControl.sol\":2505:2521  _checkRole(role) */\n      jump\t// in\n    tag_162:\n      sub(shl(0xa0, 0x01), 0x01)\n        /* \"contracts/Arcade.sol\":2319:2354  acceptedArcadeTokens[token_address] */\n      dup5\n      and\n      0x00\n      dup2\n      dup2\n      mstore\n        /* \"contracts/Arcade.sol\":2319:2339  acceptedArcadeTokens */\n      0x01\n        /* \"contracts/Arcade.sol\":2319:2354  acceptedArcadeTokens[token_address] */\n      0x20\n      dup2\n      swap1\n      mstore\n      0x40\n      swap1\n      swap2\n      keccak256\n        /* \"contracts/Arcade.sol\":2319:2370  acceptedArcadeTokens[token_address].redemption_rate */\n      swap1\n      dup2\n      add\n        /* \"contracts/Arcade.sol\":2319:2388  acceptedArcadeTokens[token_address].redemption_rate = redemption_rate */\n      dup6\n      swap1\n      sstore\n        /* \"contracts/Arcade.sol\":2398:2450  acceptedArcadeTokens[token_address].active = _active */\n      dup1\n      sload\n      not(sub(shl(0xa8, 0x01), 0x01))\n        /* \"contracts/Arcade.sol\":2517:2588  acceptedArcadeTokens[token_address].native_token = IERC20(tokenAddress) */\n      and\n      shl(0xa0, 0x01)\n        /* \"contracts/Arcade.sol\":2398:2450  acceptedArcadeTokens[token_address].active = _active */\n      dup6\n      iszero\n      iszero\n      mul\n      not(sub(shl(0xa0, 0x01), 0x01))\n        /* \"contracts/Arcade.sol\":2517:2588  acceptedArcadeTokens[token_address].native_token = IERC20(tokenAddress) */\n      and\n      or\n      dup3\n      or\n      swap1\n      sstore\n        /* \"contracts/Arcade.sol\":2319:2354  acceptedArcadeTokens[token_address] */\n      dup5\n      swap1\n        /* \"contracts/Arcade.sol\":2598:2654  acceptedArcadeTokens[token_address].native_token.approve */\n      0x095ea7b3\n        /* \"@openzeppelin/contracts@4.6.0/utils/Context.sol\":719:729  msg.sender */\n      caller\n        /* \"contracts/Arcade.sol\":2598:2748  acceptedArcadeTokens[token_address].native_token.approve(_msgSender(), 115792089237316195423570985008687907853269984665640564039457584007913129639935) */\n      mload(0x40)\n      not(sub(shl(0xe0, 0x01), 0x01))\n      0xe0\n      dup5\n      swap1\n      shl\n      and\n      dup2\n      mstore\n      sub(shl(0xa0, 0x01), 0x01)\n        /* \"#utility.yul\":4692:4724   */\n      swap1\n      swap2\n      and\n        /* \"contracts/Arcade.sol\":2598:2748  acceptedArcadeTokens[token_address].native_token.approve(_msgSender(), 115792089237316195423570985008687907853269984665640564039457584007913129639935) */\n      0x04\n      dup3\n      add\n        /* \"#utility.yul\":4674:4725   */\n      mstore\n      not(0x00)\n        /* \"#utility.yul\":4741:4759   */\n      0x24\n      dup3\n      add\n        /* \"#utility.yul\":4734:4768   */\n      mstore\n        /* \"#utility.yul\":4647:4665   */\n      0x44\n      add\n        /* \"contracts/Arcade.sol\":2598:2748  acceptedArcadeTokens[token_address].native_token.approve(_msgSender(), 115792089237316195423570985008687907853269984665640564039457584007913129639935) */\n      0x20\n      mload(0x40)\n      dup1\n      dup4\n      sub\n      dup2\n      0x00\n      dup8\n      dup1\n      extcodesize\n      iszero\n      dup1\n      iszero\n      tag_168\n      jumpi\n      0x00\n      dup1\n      revert\n    tag_168:\n      pop\n      gas\n      call\n      iszero\n      dup1\n      iszero\n      tag_170\n      jumpi\n      returndatasize\n      0x00\n      dup1\n      returndatacopy\n      revert(0x00, returndatasize)\n    tag_170:\n      pop\n      pop\n      pop\n      pop\n      mload(0x40)\n      returndatasize\n      not(0x1f)\n      0x1f\n      dup3\n      add\n      and\n      dup3\n      add\n      dup1\n      0x40\n      mstore\n      pop\n      dup2\n      add\n      swap1\n      tag_171\n      swap2\n      swap1\n      tag_172\n      jump\t// in\n    tag_171:\n      pop\n        /* \"@openzeppelin/contracts@4.6.0/access/AccessControl.sol\":2531:2532  _ */\n      pop\n        /* \"contracts/Arcade.sol\":2191:2755  function addArcadeToken(address token_address, uint256 redemption_rate, bool _active) public onlyRole(TREASURER_ROLE) {... */\n      pop\n      pop\n      pop\n      pop\n      jump\t// out\n        /* \"contracts/Arcade.sol\":4971:5280  function reconcile(address arcade_token) public onlyRole(DEFAULT_ADMIN_ROLE) {... */\n    tag_57:\n        /* \"@openzeppelin/contracts@4.6.0/access/AccessControl.sol\":2072:2076  0x00 */\n      0x00\n        /* \"@openzeppelin/contracts@4.6.0/access/AccessControl.sol\":2505:2521  _checkRole(role) */\n      tag_174\n        /* \"@openzeppelin/contracts@4.6.0/access/AccessControl.sol\":2072:2076  0x00 */\n      dup2\n        /* \"@openzeppelin/contracts@4.6.0/access/AccessControl.sol\":2505:2515  _checkRole */\n      tag_154\n        /* \"@openzeppelin/contracts@4.6.0/access/AccessControl.sol\":2505:2521  _checkRole(role) */\n      jump\t// in\n    tag_174:\n        /* \"contracts/Arcade.sol\":5076:5097  address(this).balance */\n      selfbalance\n        /* \"contracts/Arcade.sol\":5112:5123  balance > 0 */\n      dup1\n      iszero\n        /* \"contracts/Arcade.sol\":5108:5274  if (balance > 0) {... */\n      tag_176\n      jumpi\n        /* \"contracts/Arcade.sol\":5158:5163  owner */\n      sload(0x07)\n        /* \"contracts/Arcade.sol\":5158:5190  owner.call{ value: balance }(\"\") */\n      mload(0x40)\n        /* \"contracts/Arcade.sol\":5140:5152  bool success */\n      0x00\n      swap2\n      sub(shl(0xa0, 0x01), 0x01)\n        /* \"contracts/Arcade.sol\":5158:5163  owner */\n      and\n      swap1\n        /* \"contracts/Arcade.sol\":5177:5184  balance */\n      dup4\n      swap1\n        /* \"contracts/Arcade.sol\":5140:5152  bool success */\n      dup4\n        /* \"contracts/Arcade.sol\":5158:5190  owner.call{ value: balance }(\"\") */\n      dup2\n        /* \"contracts/Arcade.sol\":5140:5152  bool success */\n      dup2\n        /* \"contracts/Arcade.sol\":5158:5190  owner.call{ value: balance }(\"\") */\n      dup2\n        /* \"contracts/Arcade.sol\":5177:5184  balance */\n      dup6\n        /* \"contracts/Arcade.sol\":5158:5163  owner */\n      dup8\n        /* \"contracts/Arcade.sol\":5158:5190  owner.call{ value: balance }(\"\") */\n      gas\n      call\n      swap3\n      pop\n      pop\n      pop\n      returndatasize\n      dup1\n      0x00\n      dup2\n      eq\n      tag_181\n      jumpi\n      mload(0x40)\n      swap2\n      pop\n      and(add(returndatasize, 0x3f), not(0x1f))\n      dup3\n      add\n      0x40\n      mstore\n      returndatasize\n      dup3\n      mstore\n      returndatasize\n      0x00\n      0x20\n      dup5\n      add\n      returndatacopy\n      jump(tag_180)\n    tag_181:\n      0x60\n      swap2\n      pop\n    tag_180:\n      pop\n        /* \"contracts/Arcade.sol\":5139:5190  (bool success, ) = owner.call{ value: balance }(\"\") */\n      pop\n      swap1\n      pop\n        /* \"contracts/Arcade.sol\":5212:5219  success */\n      dup1\n        /* \"contracts/Arcade.sol\":5204:5263  require(success, \"Trophy King Arcade: Unable to transfer.\") */\n      tag_182\n      jumpi\n      mload(0x40)\n      shl(0xe5, 0x461bcd)\n      dup2\n      mstore\n      0x04\n      add\n      tag_183\n      swap1\n      tag_184\n      jump\t// in\n    tag_183:\n      mload(0x40)\n      dup1\n      swap2\n      sub\n      swap1\n      revert\n    tag_182:\n        /* \"contracts/Arcade.sol\":5108:5274  if (balance > 0) {... */\n      pop\n    tag_176:\n        /* \"@openzeppelin/contracts@4.6.0/access/AccessControl.sol\":2531:2532  _ */\n      pop\n        /* \"contracts/Arcade.sol\":4971:5280  function reconcile(address arcade_token) public onlyRole(DEFAULT_ADMIN_ROLE) {... */\n      pop\n      pop\n      jump\t// out\n        /* \"contracts/Arcade.sol\":4176:4325  function deleteGame(uint256 game_id) public onlyRole(DEFAULT_ADMIN_ROLE) {... */\n    tag_60:\n        /* \"@openzeppelin/contracts@4.6.0/access/AccessControl.sol\":2072:2076  0x00 */\n      0x00\n        /* \"@openzeppelin/contracts@4.6.0/access/AccessControl.sol\":2505:2521  _checkRole(role) */\n      tag_186\n        /* \"@openzeppelin/contracts@4.6.0/access/AccessControl.sol\":2072:2076  0x00 */\n      dup2\n        /* \"@openzeppelin/contracts@4.6.0/access/AccessControl.sol\":2505:2515  _checkRole */\n      tag_154\n        /* \"@openzeppelin/contracts@4.6.0/access/AccessControl.sol\":2505:2521  _checkRole(role) */\n      jump\t// in\n    tag_186:\n        /* \"contracts/Arcade.sol\":4266:4283  gameData[game_id] */\n      0x00\n      dup3\n      dup2\n      mstore\n        /* \"contracts/Arcade.sol\":4266:4274  gameData */\n      0x02\n        /* \"contracts/Arcade.sol\":4266:4283  gameData[game_id] */\n      0x20\n      dup2\n      dup2\n      mstore\n      0x40\n      dup1\n      dup5\n      keccak256\n        /* \"contracts/Arcade.sol\":4259:4283  delete gameData[game_id] */\n      dup1\n      sload\n      not(0xff)\n      and\n      dup2\n      sstore\n      0x01\n      dup2\n      add\n      dup6\n      swap1\n      sstore\n      swap3\n      dup4\n      add\n      dup5\n      swap1\n      sstore\n      0x03\n      dup4\n      add\n      dup5\n      swap1\n      sstore\n      0x04\n      dup4\n      add\n      dup5\n      swap1\n      sstore\n      0x05\n      dup4\n      add\n      dup1\n      sload\n      not(sub(shl(0xa0, 0x01), 0x01))\n      and\n      swap1\n      sstore\n      0x06\n      swap1\n      swap3\n      add\n      swap3\n      swap1\n      swap3\n      sstore\n        /* \"contracts/Arcade.sol\":4299:4318  DeleteGame(game_id) */\n      mload\n        /* \"#utility.yul\":6307:6332   */\n      dup4\n      dup2\n      mstore\n        /* \"contracts/Arcade.sol\":4299:4318  DeleteGame(game_id) */\n      0xd0b153e02e23f4f21d020465b4dac7b1114893d05db395ed2511f879c3ac90b4\n      swap2\n        /* \"#utility.yul\":6280:6298   */\n      add\n        /* \"contracts/Arcade.sol\":4299:4318  DeleteGame(game_id) */\n      tag_156\n        /* \"#utility.yul\":6262:6338   */\n      jump\n        /* \"contracts/Arcade.sol\":7692:7824  function setArcadeFeePercentage(uint256 percentage) public onlyRole(DEFAULT_ADMIN_ROLE) {... */\n    tag_69:\n        /* \"@openzeppelin/contracts@4.6.0/access/AccessControl.sol\":2072:2076  0x00 */\n      0x00\n        /* \"@openzeppelin/contracts@4.6.0/access/AccessControl.sol\":2505:2521  _checkRole(role) */\n      tag_191\n        /* \"@openzeppelin/contracts@4.6.0/access/AccessControl.sol\":2072:2076  0x00 */\n      dup2\n        /* \"@openzeppelin/contracts@4.6.0/access/AccessControl.sol\":2505:2515  _checkRole */\n      tag_154\n        /* \"@openzeppelin/contracts@4.6.0/access/AccessControl.sol\":2505:2521  _checkRole(role) */\n      jump\t// in\n    tag_191:\n      pop\n        /* \"contracts/Arcade.sol\":7790:7804  fee_percentage */\n      0x04\n        /* \"contracts/Arcade.sol\":7790:7817  fee_percentage = percentage */\n      sstore\n        /* \"contracts/Arcade.sol\":7692:7824  function setArcadeFeePercentage(uint256 percentage) public onlyRole(DEFAULT_ADMIN_ROLE) {... */\n      jump\t// out\n        /* \"contracts/Arcade.sol\":7441:7620  function removePlayer(uint256 game_id, address player) public onlyRole(DEFAULT_ADMIN_ROLE) {... */\n    tag_73:\n        /* \"@openzeppelin/contracts@4.6.0/access/AccessControl.sol\":2072:2076  0x00 */\n      0x00\n        /* \"@openzeppelin/contracts@4.6.0/access/AccessControl.sol\":2505:2521  _checkRole(role) */\n      tag_194\n        /* \"@openzeppelin/contracts@4.6.0/access/AccessControl.sol\":2072:2076  0x00 */\n      dup2\n        /* \"@openzeppelin/contracts@4.6.0/access/AccessControl.sol\":2505:2515  _checkRole */\n      tag_154\n        /* \"@openzeppelin/contracts@4.6.0/access/AccessControl.sol\":2505:2521  _checkRole(role) */\n      jump\t// in\n    tag_194:\n        /* \"contracts/Arcade.sol\":7576:7577  0 */\n      0x00\n        /* \"contracts/Arcade.sol\":7542:7559  gameData[game_id] */\n      dup4\n      dup2\n      mstore\n        /* \"contracts/Arcade.sol\":7542:7550  gameData */\n      0x02\n        /* \"contracts/Arcade.sol\":7542:7559  gameData[game_id] */\n      0x20\n      swap1\n      dup2\n      mstore\n      0x40\n      dup1\n      dup4\n      keccak256\n      sub(shl(0xa0, 0x01), 0x01)\n        /* \"contracts/Arcade.sol\":7542:7573  gameData[game_id].seats[player] */\n      dup7\n      and\n      dup1\n      dup6\n      mstore\n        /* \"contracts/Arcade.sol\":7542:7565  gameData[game_id].seats */\n      0x09\n      swap1\n      swap2\n      add\n        /* \"contracts/Arcade.sol\":7542:7573  gameData[game_id].seats[player] */\n      dup4\n      mstore\n      dup2\n      dup5\n      keccak256\n        /* \"contracts/Arcade.sol\":7542:7577  gameData[game_id].seats[player] = 0 */\n      swap4\n      swap1\n      swap4\n      sstore\n        /* \"contracts/Arcade.sol\":7593:7613  RemovePlayer(player) */\n      mload\n        /* \"#utility.yul\":3973:4024   */\n      swap2\n      dup3\n      mstore\n        /* \"contracts/Arcade.sol\":7593:7613  RemovePlayer(player) */\n      0x34aeefd5030be05fe70eebc8866d82f935a308eb9f334cba88f5e3bea1a0cae8\n      swap2\n        /* \"#utility.yul\":3946:3964   */\n      add\n        /* \"contracts/Arcade.sol\":7593:7613  RemovePlayer(player) */\n    tag_196:\n      mload(0x40)\n      dup1\n      swap2\n      sub\n      swap1\n      log1\n        /* \"contracts/Arcade.sol\":7441:7620  function removePlayer(uint256 game_id, address player) public onlyRole(DEFAULT_ADMIN_ROLE) {... */\n      pop\n      pop\n      pop\n      jump\t// out\n        /* \"contracts/Arcade.sol\":3338:3489  function closeGame(uint256 game_id) public onlyRole(DEFAULT_ADMIN_ROLE) {... */\n    tag_76:\n        /* \"@openzeppelin/contracts@4.6.0/access/AccessControl.sol\":2072:2076  0x00 */\n      0x00\n        /* \"@openzeppelin/contracts@4.6.0/access/AccessControl.sol\":2505:2521  _checkRole(role) */\n      tag_198\n        /* \"@openzeppelin/contracts@4.6.0/access/AccessControl.sol\":2072:2076  0x00 */\n      dup2\n        /* \"@openzeppelin/contracts@4.6.0/access/AccessControl.sol\":2505:2515  _checkRole */\n      tag_154\n        /* \"@openzeppelin/contracts@4.6.0/access/AccessControl.sol\":2505:2521  _checkRole(role) */\n      jump\t// in\n    tag_198:\n        /* \"contracts/Arcade.sol\":3447:3448  0 */\n      0x00\n        /* \"contracts/Arcade.sol\":3420:3437  gameData[game_id] */\n      dup3\n      dup2\n      mstore\n        /* \"contracts/Arcade.sol\":3420:3428  gameData */\n      0x02\n        /* \"contracts/Arcade.sol\":3420:3437  gameData[game_id] */\n      0x20\n      mstore\n      0x40\n      dup1\n      dup3\n      keccak256\n        /* \"contracts/Arcade.sol\":3420:3444  gameData[game_id].status */\n      0x04\n      add\n        /* \"contracts/Arcade.sol\":3420:3448  gameData[game_id].status = 0 */\n      swap2\n      swap1\n      swap2\n      sstore\n        /* \"contracts/Arcade.sol\":3464:3482  CloseGame(game_id) */\n      mload\n      0x827e8bff9f46048f8351964d2c871d09e4f4231513cf2fcb786649c68732e24f\n      swap1\n      tag_156\n      swap1\n        /* \"contracts/Arcade.sol\":3429:3436  game_id */\n      dup5\n        /* \"#utility.yul\":6307:6332   */\n      dup2\n      mstore\n        /* \"#utility.yul\":6295:6297   */\n      0x20\n        /* \"#utility.yul\":6280:6298   */\n      add\n      swap1\n        /* \"#utility.yul\":6262:6338   */\n      jump\n        /* \"@openzeppelin/contracts@4.6.0/access/AccessControl.sol\":4770:4915  function grantRole(bytes32 role, address account) public virtual override onlyRole(getRoleAdmin(role)) {... */\n    tag_80:\n        /* \"@openzeppelin/contracts@4.6.0/access/AccessControl.sol\":4465:4472  bytes32 */\n      0x00\n        /* \"@openzeppelin/contracts@4.6.0/access/AccessControl.sol\":4491:4503  _roles[role] */\n      dup3\n      dup2\n      mstore\n      0x20\n      dup2\n      swap1\n      mstore\n      0x40\n      swap1\n      keccak256\n        /* \"@openzeppelin/contracts@4.6.0/access/AccessControl.sol\":4491:4513  _roles[role].adminRole */\n      0x01\n      add\n      sload\n        /* \"@openzeppelin/contracts@4.6.0/access/AccessControl.sol\":2505:2521  _checkRole(role) */\n      tag_203\n        /* \"@openzeppelin/contracts@4.6.0/access/AccessControl.sol\":2516:2520  role */\n      dup2\n        /* \"@openzeppelin/contracts@4.6.0/access/AccessControl.sol\":2505:2515  _checkRole */\n      tag_154\n        /* \"@openzeppelin/contracts@4.6.0/access/AccessControl.sol\":2505:2521  _checkRole(role) */\n      jump\t// in\n    tag_203:\n        /* \"@openzeppelin/contracts@4.6.0/access/AccessControl.sol\":4883:4908  _grantRole(role, account) */\n      tag_176\n        /* \"@openzeppelin/contracts@4.6.0/access/AccessControl.sol\":4894:4898  role */\n      dup4\n        /* \"@openzeppelin/contracts@4.6.0/access/AccessControl.sol\":4900:4907  account */\n      dup4\n        /* \"@openzeppelin/contracts@4.6.0/access/AccessControl.sol\":4883:4893  _grantRole */\n      tag_206\n        /* \"@openzeppelin/contracts@4.6.0/access/AccessControl.sol\":4883:4908  _grantRole(role, account) */\n      jump\t// in\n        /* \"@openzeppelin/contracts@4.6.0/access/AccessControl.sol\":5787:6001  function renounceRole(bytes32 role, address account) public virtual override {... */\n    tag_87:\n      sub(shl(0xa0, 0x01), 0x01)\n        /* \"@openzeppelin/contracts@4.6.0/access/AccessControl.sol\":5882:5905  account == _msgSender() */\n      dup2\n      and\n        /* \"@openzeppelin/contracts@4.6.0/utils/Context.sol\":719:729  msg.sender */\n      caller\n        /* \"@openzeppelin/contracts@4.6.0/access/AccessControl.sol\":5882:5905  account == _msgSender() */\n      eq\n        /* \"@openzeppelin/contracts@4.6.0/access/AccessControl.sol\":5874:5957  require(account == _msgSender(), \"AccessControl: can only renounce roles for self\") */\n      tag_209\n      jumpi\n      mload(0x40)\n      shl(0xe5, 0x461bcd)\n      dup2\n      mstore\n        /* \"#utility.yul\":12124:12126   */\n      0x20\n        /* \"@openzeppelin/contracts@4.6.0/access/AccessControl.sol\":5874:5957  require(account == _msgSender(), \"AccessControl: can only renounce roles for self\") */\n      0x04\n      dup3\n      add\n        /* \"#utility.yul\":12106:12127   */\n      mstore\n        /* \"#utility.yul\":12163:12165   */\n      0x2f\n        /* \"#utility.yul\":12143:12161   */\n      0x24\n      dup3\n      add\n        /* \"#utility.yul\":12136:12166   */\n      mstore\n        /* \"#utility.yul\":12202:12236   */\n      0x416363657373436f6e74726f6c3a2063616e206f6e6c792072656e6f756e6365\n        /* \"#utility.yul\":12182:12200   */\n      0x44\n      dup3\n      add\n        /* \"#utility.yul\":12175:12237   */\n      mstore\n      shl(0x89, 0x103937b632b9903337b91039b2b633)\n        /* \"#utility.yul\":12253:12271   */\n      0x64\n      dup3\n      add\n        /* \"#utility.yul\":12246:12291   */\n      mstore\n        /* \"#utility.yul\":12308:12327   */\n      0x84\n      add\n        /* \"@openzeppelin/contracts@4.6.0/access/AccessControl.sol\":5874:5957  require(account == _msgSender(), \"AccessControl: can only renounce roles for self\") */\n      tag_183\n        /* \"#utility.yul\":12096:12333   */\n      jump\n        /* \"@openzeppelin/contracts@4.6.0/access/AccessControl.sol\":5874:5957  require(account == _msgSender(), \"AccessControl: can only renounce roles for self\") */\n    tag_209:\n        /* \"@openzeppelin/contracts@4.6.0/access/AccessControl.sol\":5968:5994  _revokeRole(role, account) */\n      tag_212\n        /* \"@openzeppelin/contracts@4.6.0/access/AccessControl.sol\":5980:5984  role */\n      dup3\n        /* \"@openzeppelin/contracts@4.6.0/access/AccessControl.sol\":5986:5993  account */\n      dup3\n        /* \"@openzeppelin/contracts@4.6.0/access/AccessControl.sol\":5968:5979  _revokeRole */\n      tag_213\n        /* \"@openzeppelin/contracts@4.6.0/access/AccessControl.sol\":5968:5994  _revokeRole(role, account) */\n      jump\t// in\n    tag_212:\n        /* \"@openzeppelin/contracts@4.6.0/access/AccessControl.sol\":5787:6001  function renounceRole(bytes32 role, address account) public virtual override {... */\n      pop\n      pop\n      jump\t// out\n        /* \"contracts/Arcade.sol\":2831:2980  function removeArcadeToken(address token_address) public onlyRole(TREASURER_ROLE) {... */\n    tag_90:\n        /* \"contracts/Arcade.sol\":786:813  keccak256(\"TREASURER_ROLE\") */\n      0x3496e2e73c4d42b75d702e60d9e48102720b8691234415963a5a857b86425d07\n        /* \"@openzeppelin/contracts@4.6.0/access/AccessControl.sol\":2505:2521  _checkRole(role) */\n      tag_215\n        /* \"@openzeppelin/contracts@4.6.0/access/AccessControl.sol\":2516:2520  role */\n      dup2\n        /* \"@openzeppelin/contracts@4.6.0/access/AccessControl.sol\":2505:2515  _checkRole */\n      tag_154\n        /* \"@openzeppelin/contracts@4.6.0/access/AccessControl.sol\":2505:2521  _checkRole(role) */\n      jump\t// in\n    tag_215:\n      pop\n      sub(shl(0xa0, 0x01), 0x01)\n        /* \"contracts/Arcade.sol\":2923:2958  acceptedArcadeTokens[token_address] */\n      and\n        /* \"contracts/Arcade.sol\":2968:2973  false */\n      0x00\n        /* \"contracts/Arcade.sol\":2923:2958  acceptedArcadeTokens[token_address] */\n      swap1\n      dup2\n      mstore\n        /* \"contracts/Arcade.sol\":2923:2943  acceptedArcadeTokens */\n      0x01\n        /* \"contracts/Arcade.sol\":2923:2958  acceptedArcadeTokens[token_address] */\n      0x20\n      mstore\n      0x40\n      swap1\n      keccak256\n        /* \"contracts/Arcade.sol\":2923:2973  acceptedArcadeTokens[token_address].active = false */\n      dup1\n      sload\n      not(shl(0xa0, 0xff))\n      and\n      swap1\n      sstore\n        /* \"contracts/Arcade.sol\":2831:2980  function removeArcadeToken(address token_address) public onlyRole(TREASURER_ROLE) {... */\n      jump\t// out\n        /* \"contracts/Arcade.sol\":5352:6044  function refund(uint256 game_id, address player) public onlyRole(DEFAULT_ADMIN_ROLE) {... */\n    tag_102:\n        /* \"@openzeppelin/contracts@4.6.0/access/AccessControl.sol\":2072:2076  0x00 */\n      0x00\n        /* \"@openzeppelin/contracts@4.6.0/access/AccessControl.sol\":2505:2521  _checkRole(role) */\n      tag_219\n        /* \"@openzeppelin/contracts@4.6.0/access/AccessControl.sol\":2072:2076  0x00 */\n      dup2\n        /* \"@openzeppelin/contracts@4.6.0/access/AccessControl.sol\":2505:2515  _checkRole */\n      tag_154\n        /* \"@openzeppelin/contracts@4.6.0/access/AccessControl.sol\":2505:2521  _checkRole(role) */\n      jump\t// in\n    tag_219:\n        /* \"contracts/Arcade.sol\":5451:5468  gameData[game_id] */\n      0x00\n      dup4\n      dup2\n      mstore\n        /* \"contracts/Arcade.sol\":5451:5459  gameData */\n      0x02\n        /* \"contracts/Arcade.sol\":5451:5468  gameData[game_id] */\n      0x20\n      mstore\n      0x40\n      swap1\n      keccak256\n        /* \"contracts/Arcade.sol\":5451:5477  gameData[game_id].exchange */\n      sload\n      0xff\n      and\n        /* \"contracts/Arcade.sol\":5447:6038  if (gameData[game_id].exchange == false) {... */\n      tag_176\n      jumpi\n        /* \"contracts/Arcade.sol\":5510:5527  gameData[game_id] */\n      0x00\n      dup4\n      dup2\n      mstore\n        /* \"contracts/Arcade.sol\":5510:5518  gameData */\n      0x02\n        /* \"contracts/Arcade.sol\":5510:5527  gameData[game_id] */\n      0x20\n      swap1\n      dup2\n      mstore\n      0x40\n      dup1\n      dup4\n      keccak256\n      sub(shl(0xa0, 0x01), 0x01)\n        /* \"contracts/Arcade.sol\":5510:5540  gameData[game_id].paid[player] */\n      dup7\n      and\n      dup5\n      mstore\n        /* \"contracts/Arcade.sol\":5510:5532  gameData[game_id].paid */\n      0x08\n      add\n        /* \"contracts/Arcade.sol\":5510:5540  gameData[game_id].paid[player] */\n      swap1\n      swap2\n      mstore\n      swap1\n      keccak256\n      sload\n        /* \"contracts/Arcade.sol\":5544:5545  1 */\n      0x01\n        /* \"contracts/Arcade.sol\":5510:5545  gameData[game_id].paid[player] == 1 */\n      eq\n        /* \"contracts/Arcade.sol\":5502:5599  require(gameData[game_id].paid[player] == 1, \"Trophy King Arcade: Not registered for this game.\") */\n      tag_222\n      jumpi\n      mload(0x40)\n      shl(0xe5, 0x461bcd)\n      dup2\n      mstore\n        /* \"#utility.yul\":11303:11305   */\n      0x20\n        /* \"contracts/Arcade.sol\":5502:5599  require(gameData[game_id].paid[player] == 1, \"Trophy King Arcade: Not registered for this game.\") */\n      0x04\n      dup3\n      add\n        /* \"#utility.yul\":11285:11306   */\n      mstore\n        /* \"#utility.yul\":11342:11344   */\n      0x31\n        /* \"#utility.yul\":11322:11340   */\n      0x24\n      dup3\n      add\n        /* \"#utility.yul\":11315:11345   */\n      mstore\n        /* \"#utility.yul\":11381:11415   */\n      0x54726f706879204b696e67204172636164653a204e6f74207265676973746572\n        /* \"#utility.yul\":11361:11379   */\n      0x44\n      dup3\n      add\n        /* \"#utility.yul\":11354:11416   */\n      mstore\n      shl(0x79, 0x32b2103337b9103a3434b99033b0b6b297)\n        /* \"#utility.yul\":11432:11450   */\n      0x64\n      dup3\n      add\n        /* \"#utility.yul\":11425:11472   */\n      mstore\n        /* \"#utility.yul\":11489:11508   */\n      0x84\n      add\n        /* \"contracts/Arcade.sol\":5502:5599  require(gameData[game_id].paid[player] == 1, \"Trophy King Arcade: Not registered for this game.\") */\n      tag_183\n        /* \"#utility.yul\":11275:11514   */\n      jump\n        /* \"contracts/Arcade.sol\":5502:5599  require(gameData[game_id].paid[player] == 1, \"Trophy King Arcade: Not registered for this game.\") */\n    tag_222:\n        /* \"contracts/Arcade.sol\":5614:5633  GameInfo storage gi */\n      0x00\n        /* \"contracts/Arcade.sol\":5636:5653  gameData[game_id] */\n      dup4\n      dup2\n      mstore\n        /* \"contracts/Arcade.sol\":5636:5644  gameData */\n      0x02\n        /* \"contracts/Arcade.sol\":5636:5653  gameData[game_id] */\n      0x20\n      swap1\n      dup2\n      mstore\n      0x40\n      dup1\n      dup4\n      keccak256\n        /* \"contracts/Arcade.sol\":5698:5713  gi.arcade_token */\n      0x05\n      dup2\n      add\n      sload\n      sub(shl(0xa0, 0x01), 0x01)\n      swap1\n      dup2\n      and\n        /* \"contracts/Arcade.sol\":5676:5715  acceptedArcadeTokens[(gi.arcade_token)] */\n      dup6\n      mstore\n        /* \"contracts/Arcade.sol\":5676:5696  acceptedArcadeTokens */\n      0x01\n        /* \"contracts/Arcade.sol\":5676:5715  acceptedArcadeTokens[(gi.arcade_token)] */\n      swap1\n      swap4\n      mstore\n      swap3\n      keccak256\n        /* \"contracts/Arcade.sol\":5676:5728  acceptedArcadeTokens[(gi.arcade_token)].native_token */\n      sload\n      and\n        /* \"contracts/Arcade.sol\":5676:5737  acceptedArcadeTokens[(gi.arcade_token)].native_token.transfer */\n      0xa9059cbb\n        /* \"@openzeppelin/contracts@4.6.0/utils/Context.sol\":719:729  msg.sender */\n      caller\n        /* \"contracts/Arcade.sol\":5752:5771  gi.registration_fee */\n      0x03\n      dup5\n      add\n      sload\n        /* \"contracts/Arcade.sol\":5676:5772  acceptedArcadeTokens[(gi.arcade_token)].native_token.transfer(_msgSender(), gi.registration_fee) */\n      mload(0x40)\n      not(sub(shl(0xe0, 0x01), 0x01))\n      0xe0\n      dup6\n      swap1\n      shl\n      and\n      dup2\n      mstore\n      sub(shl(0xa0, 0x01), 0x01)\n        /* \"#utility.yul\":4692:4724   */\n      swap1\n      swap3\n      and\n        /* \"contracts/Arcade.sol\":5676:5772  acceptedArcadeTokens[(gi.arcade_token)].native_token.transfer(_msgSender(), gi.registration_fee) */\n      0x04\n      dup4\n      add\n        /* \"#utility.yul\":4674:4725   */\n      mstore\n        /* \"#utility.yul\":4741:4759   */\n      0x24\n      dup3\n      add\n        /* \"#utility.yul\":4734:4768   */\n      mstore\n        /* \"#utility.yul\":4647:4665   */\n      0x44\n      add\n        /* \"contracts/Arcade.sol\":5676:5772  acceptedArcadeTokens[(gi.arcade_token)].native_token.transfer(_msgSender(), gi.registration_fee) */\n      0x20\n      mload(0x40)\n      dup1\n      dup4\n      sub\n      dup2\n      0x00\n      dup8\n      dup1\n      extcodesize\n      iszero\n      dup1\n      iszero\n      tag_228\n      jumpi\n      0x00\n      dup1\n      revert\n    tag_228:\n      pop\n      gas\n      call\n      iszero\n      dup1\n      iszero\n      tag_230\n      jumpi\n      returndatasize\n      0x00\n      dup1\n      returndatacopy\n      revert(0x00, returndatasize)\n    tag_230:\n      pop\n      pop\n      pop\n      pop\n      mload(0x40)\n      returndatasize\n      not(0x1f)\n      0x1f\n      dup3\n      add\n      and\n      dup3\n      add\n      dup1\n      0x40\n      mstore\n      pop\n      dup2\n      add\n      swap1\n      tag_231\n      swap2\n      swap1\n      tag_172\n      jump\t// in\n    tag_231:\n        /* \"contracts/Arcade.sol\":5668:5811  require(acceptedArcadeTokens[(gi.arcade_token)].native_token.transfer(_msgSender(), gi.registration_fee), \"Trophy King Arcade: Refund failed.\") */\n      tag_232\n      jumpi\n      mload(0x40)\n      shl(0xe5, 0x461bcd)\n      dup2\n      mstore\n        /* \"#utility.yul\":11721:11723   */\n      0x20\n        /* \"contracts/Arcade.sol\":5668:5811  require(acceptedArcadeTokens[(gi.arcade_token)].native_token.transfer(_msgSender(), gi.registration_fee), \"Trophy King Arcade: Refund failed.\") */\n      0x04\n      dup3\n      add\n        /* \"#utility.yul\":11703:11724   */\n      mstore\n        /* \"#utility.yul\":11760:11762   */\n      0x22\n        /* \"#utility.yul\":11740:11758   */\n      0x24\n      dup3\n      add\n        /* \"#utility.yul\":11733:11763   */\n      mstore\n        /* \"#utility.yul\":11799:11833   */\n      0x54726f706879204b696e67204172636164653a20526566756e64206661696c65\n        /* \"#utility.yul\":11779:11797   */\n      0x44\n      dup3\n      add\n        /* \"#utility.yul\":11772:11834   */\n      mstore\n      shl(0xf1, 0x3217)\n        /* \"#utility.yul\":11850:11868   */\n      0x64\n      dup3\n      add\n        /* \"#utility.yul\":11843:11875   */\n      mstore\n        /* \"#utility.yul\":11892:11911   */\n      0x84\n      add\n        /* \"contracts/Arcade.sol\":5668:5811  require(acceptedArcadeTokens[(gi.arcade_token)].native_token.transfer(_msgSender(), gi.registration_fee), \"Trophy King Arcade: Refund failed.\") */\n      tag_183\n        /* \"#utility.yul\":11693:11917   */\n      jump\n        /* \"contracts/Arcade.sol\":5668:5811  require(acceptedArcadeTokens[(gi.arcade_token)].native_token.transfer(_msgSender(), gi.registration_fee), \"Trophy King Arcade: Refund failed.\") */\n    tag_232:\n        /* \"contracts/Arcade.sol\":5855:5874  gi.registration_fee */\n      0x03\n      dup2\n      add\n      sload\n        /* \"contracts/Arcade.sol\":5831:5875  Refund(game_id, player, gi.registration_fee) */\n      0x40\n      dup1\n      mload\n        /* \"#utility.yul\":12722:12747   */\n      dup7\n      dup2\n      mstore\n      sub(shl(0xa0, 0x01), 0x01)\n        /* \"#utility.yul\":12783:12815   */\n      dup7\n      and\n        /* \"#utility.yul\":12778:12780   */\n      0x20\n        /* \"#utility.yul\":12763:12781   */\n      dup3\n      add\n        /* \"#utility.yul\":12756:12816   */\n      mstore\n        /* \"#utility.yul\":12832:12850   */\n      dup1\n      dup3\n      add\n        /* \"#utility.yul\":12825:12859   */\n      swap3\n      swap1\n      swap3\n      mstore\n        /* \"contracts/Arcade.sol\":5831:5875  Refund(game_id, player, gi.registration_fee) */\n      mload\n      0x21e12a7cad0da5928167e1084ea4d5fdf8d9af66657a2543a9ac76a0ca081477\n      swap2\n      dup2\n      swap1\n      sub\n        /* \"#utility.yul\":12710:12712   */\n      0x60\n        /* \"contracts/Arcade.sol\":5831:5875  Refund(game_id, player, gi.registration_fee) */\n      add\n      swap1\n      log1\n        /* \"contracts/Arcade.sol\":5907:5909  gi */\n      dup1\n        /* \"contracts/Arcade.sol\":5907:5926  gi.registration_fee */\n      0x03\n      add\n      sload\n        /* \"contracts/Arcade.sol\":5890:5892  gi */\n      dup2\n        /* \"contracts/Arcade.sol\":5890:5902  gi.total_fee */\n      0x06\n      add\n      0x00\n        /* \"contracts/Arcade.sol\":5890:5927  gi.total_fee -= (gi.registration_fee) */\n      dup3\n      dup3\n      sload\n      tag_237\n      swap2\n      swap1\n      tag_238\n      jump\t// in\n    tag_237:\n      swap1\n      swap2\n      sstore\n      pop\n      pop\n      sub(shl(0xa0, 0x01), 0x01)\n        /* \"contracts/Arcade.sol\":5942:5956  gi.fee[player] */\n      dup4\n      and\n        /* \"contracts/Arcade.sol\":5959:5960  0 */\n      0x00\n        /* \"contracts/Arcade.sol\":5942:5956  gi.fee[player] */\n      swap1\n      dup2\n      mstore\n        /* \"contracts/Arcade.sol\":5942:5948  gi.fee */\n      0x07\n      dup3\n      add\n        /* \"contracts/Arcade.sol\":5942:5956  gi.fee[player] */\n      0x20\n      swap1\n      dup2\n      mstore\n      0x40\n      dup1\n      dup4\n      keccak256\n        /* \"contracts/Arcade.sol\":5942:5960  gi.fee[player] = 0 */\n      dup4\n      swap1\n      sstore\n        /* \"contracts/Arcade.sol\":5974:5981  gi.paid */\n      0x08\n      dup5\n      add\n        /* \"contracts/Arcade.sol\":5974:5989  gi.paid[player] */\n      swap1\n      swap2\n      mstore\n      dup2\n      keccak256\n        /* \"contracts/Arcade.sol\":5974:5993  gi.paid[player] = 0 */\n      dup2\n      swap1\n      sstore\n        /* \"contracts/Arcade.sol\":6026:6027  1 */\n      0x01\n        /* \"contracts/Arcade.sol\":6007:6022  gi.player_count */\n      dup1\n      dup4\n      add\n        /* \"contracts/Arcade.sol\":6007:6027  gi.player_count -= 1 */\n      dup1\n      sload\n        /* \"contracts/Arcade.sol\":6026:6027  1 */\n      swap2\n      swap3\n        /* \"contracts/Arcade.sol\":6007:6022  gi.player_count */\n      swap1\n      swap2\n        /* \"contracts/Arcade.sol\":6007:6027  gi.player_count -= 1 */\n      tag_239\n      swap1\n        /* \"contracts/Arcade.sol\":6026:6027  1 */\n      dup5\n      swap1\n        /* \"contracts/Arcade.sol\":6007:6027  gi.player_count -= 1 */\n      tag_238\n      jump\t// in\n    tag_239:\n      swap1\n      swap2\n      sstore\n      pop\n      pop\n      pop\n        /* \"contracts/Arcade.sol\":5352:6044  function refund(uint256 game_id, address player) public onlyRole(DEFAULT_ADMIN_ROLE) {... */\n      pop\n      pop\n      pop\n      jump\t// out\n        /* \"@openzeppelin/contracts@4.6.0/access/AccessControl.sol\":2895:3040  function hasRole(bytes32 role, address account) public view virtual override returns (bool) {... */\n    tag_108:\n        /* \"@openzeppelin/contracts@4.6.0/access/AccessControl.sol\":2981:2985  bool */\n      0x00\n        /* \"@openzeppelin/contracts@4.6.0/access/AccessControl.sol\":3004:3016  _roles[role] */\n      swap2\n      dup3\n      mstore\n      0x20\n      dup3\n      dup2\n      mstore\n      0x40\n      dup1\n      dup5\n      keccak256\n      sub(shl(0xa0, 0x01), 0x01)\n        /* \"@openzeppelin/contracts@4.6.0/access/AccessControl.sol\":3004:3033  _roles[role].members[account] */\n      swap4\n      swap1\n      swap4\n      and\n      dup5\n      mstore\n      swap2\n      swap1\n      mstore\n      swap1\n      keccak256\n      sload\n      0xff\n      and\n      swap1\n        /* \"@openzeppelin/contracts@4.6.0/access/AccessControl.sol\":2895:3040  function hasRole(bytes32 role, address account) public view virtual override returns (bool) {... */\n      jump\t// out\n        /* \"contracts/Arcade.sol\":8086:8952  function setWinner(uint256 game_id, address winner) public onlyRole(DEFAULT_ADMIN_ROLE) {... */\n    tag_112:\n        /* \"@openzeppelin/contracts@4.6.0/access/AccessControl.sol\":2072:2076  0x00 */\n      0x00\n        /* \"@openzeppelin/contracts@4.6.0/access/AccessControl.sol\":2505:2521  _checkRole(role) */\n      tag_242\n        /* \"@openzeppelin/contracts@4.6.0/access/AccessControl.sol\":2072:2076  0x00 */\n      dup2\n        /* \"@openzeppelin/contracts@4.6.0/access/AccessControl.sol\":2505:2515  _checkRole */\n      tag_154\n        /* \"@openzeppelin/contracts@4.6.0/access/AccessControl.sol\":2505:2521  _checkRole(role) */\n      jump\t// in\n    tag_242:\n        /* \"contracts/Arcade.sol\":8188:8205  gameData[game_id] */\n      0x00\n      dup4\n      dup2\n      mstore\n        /* \"contracts/Arcade.sol\":8188:8196  gameData */\n      0x02\n        /* \"contracts/Arcade.sol\":8188:8205  gameData[game_id] */\n      0x20\n      mstore\n      0x40\n      swap1\n      keccak256\n        /* \"contracts/Arcade.sol\":8188:8214  gameData[game_id].exchange */\n      sload\n      0xff\n      and\n        /* \"contracts/Arcade.sol\":8184:8917  if (gameData[game_id].exchange == false) {... */\n      tag_244\n      jumpi\n        /* \"contracts/Arcade.sol\":8248:8265  gameData[game_id] */\n      0x00\n      dup4\n      dup2\n      mstore\n        /* \"contracts/Arcade.sol\":8248:8256  gameData */\n      0x02\n        /* \"contracts/Arcade.sol\":8248:8265  gameData[game_id] */\n      0x20\n      swap1\n      dup2\n      mstore\n      0x40\n      dup1\n      dup4\n      keccak256\n      sub(shl(0xa0, 0x01), 0x01)\n        /* \"contracts/Arcade.sol\":8248:8277  gameData[game_id].fee[winner] */\n      dup7\n      and\n      dup5\n      mstore\n        /* \"contracts/Arcade.sol\":8248:8269  gameData[game_id].fee */\n      0x07\n      add\n        /* \"contracts/Arcade.sol\":8248:8277  gameData[game_id].fee[winner] */\n      dup3\n      mstore\n      swap2\n      dup3\n      swap1\n      keccak256\n      sload\n        /* \"contracts/Arcade.sol\":8244:8278  Fee(gameData[game_id].fee[winner]) */\n      swap2\n      mload\n        /* \"#utility.yul\":6307:6332   */\n      swap2\n      dup3\n      mstore\n        /* \"contracts/Arcade.sol\":8244:8278  Fee(gameData[game_id].fee[winner]) */\n      0x557809284da7314475b1582804ae28e5f1349efc1fe970ea25d50fce75eb4f43\n      swap2\n        /* \"#utility.yul\":6280:6298   */\n      add\n        /* \"contracts/Arcade.sol\":8244:8278  Fee(gameData[game_id].fee[winner]) */\n      mload(0x40)\n      dup1\n      swap2\n      sub\n      swap1\n      log1\n        /* \"contracts/Arcade.sol\":8301:8318  gameData[game_id] */\n      0x00\n      dup4\n      dup2\n      mstore\n        /* \"contracts/Arcade.sol\":8301:8309  gameData */\n      0x02\n        /* \"contracts/Arcade.sol\":8301:8318  gameData[game_id] */\n      0x20\n      swap1\n      dup2\n      mstore\n      0x40\n      dup1\n      dup4\n      keccak256\n      sub(shl(0xa0, 0x01), 0x01)\n        /* \"contracts/Arcade.sol\":8301:8331  gameData[game_id].paid[winner] */\n      dup7\n      and\n      dup5\n      mstore\n        /* \"contracts/Arcade.sol\":8301:8323  gameData[game_id].paid */\n      0x08\n      add\n        /* \"contracts/Arcade.sol\":8301:8331  gameData[game_id].paid[winner] */\n      swap1\n      swap2\n      mstore\n      swap1\n      keccak256\n      sload\n        /* \"contracts/Arcade.sol\":8335:8336  1 */\n      0x01\n        /* \"contracts/Arcade.sol\":8301:8336  gameData[game_id].paid[winner] == 1 */\n      eq\n        /* \"contracts/Arcade.sol\":8293:8389  require(gameData[game_id].paid[winner] == 1, \"Trophy King Arcade: Not registered for this game\") */\n      tag_246\n      jumpi\n      mload(0x40)\n      shl(0xe5, 0x461bcd)\n      dup2\n      mstore\n        /* \"#utility.yul\":9261:9263   */\n      0x20\n        /* \"contracts/Arcade.sol\":8293:8389  require(gameData[game_id].paid[winner] == 1, \"Trophy King Arcade: Not registered for this game\") */\n      0x04\n      dup3\n      add\n        /* \"#utility.yul\":9243:9264   */\n      mstore\n        /* \"#utility.yul\":9300:9302   */\n      0x30\n        /* \"#utility.yul\":9280:9298   */\n      0x24\n      dup3\n      add\n        /* \"#utility.yul\":9273:9303   */\n      mstore\n        /* \"#utility.yul\":9339:9373   */\n      0x54726f706879204b696e67204172636164653a204e6f74207265676973746572\n        /* \"#utility.yul\":9319:9337   */\n      0x44\n      dup3\n      add\n        /* \"#utility.yul\":9312:9374   */\n      mstore\n      shl(0x80, 0x656420666f7220746869732067616d65)\n        /* \"#utility.yul\":9390:9408   */\n      0x64\n      dup3\n      add\n        /* \"#utility.yul\":9383:9429   */\n      mstore\n        /* \"#utility.yul\":9446:9465   */\n      0x84\n      add\n        /* \"contracts/Arcade.sol\":8293:8389  require(gameData[game_id].paid[winner] == 1, \"Trophy King Arcade: Not registered for this game\") */\n      tag_183\n        /* \"#utility.yul\":9233:9471   */\n      jump\n        /* \"contracts/Arcade.sol\":8293:8389  require(gameData[game_id].paid[winner] == 1, \"Trophy King Arcade: Not registered for this game\") */\n    tag_246:\n        /* \"contracts/Arcade.sol\":8481:8485  base */\n      sload(0x05)\n        /* \"contracts/Arcade.sol\":8456:8470  fee_percentage */\n      sload(0x04)\n        /* \"contracts/Arcade.sol\":8404:8422  uint256 arcade_fee */\n      0x00\n        /* \"contracts/Arcade.sol\":8426:8443  gameData[game_id] */\n      dup6\n      dup2\n      mstore\n        /* \"contracts/Arcade.sol\":8426:8434  gameData */\n      0x02\n        /* \"contracts/Arcade.sol\":8426:8443  gameData[game_id] */\n      0x20\n      mstore\n      0x40\n      dup2\n      keccak256\n        /* \"contracts/Arcade.sol\":8426:8453  gameData[game_id].total_fee */\n      0x06\n      add\n      sload\n        /* \"contracts/Arcade.sol\":8404:8422  uint256 arcade_fee */\n      swap1\n      swap3\n        /* \"contracts/Arcade.sol\":8481:8485  base */\n      swap2\n      dup3\n      swap2\n        /* \"contracts/Arcade.sol\":8426:8470  gameData[game_id].total_fee * fee_percentage */\n      tag_249\n      swap2\n        /* \"contracts/Arcade.sol\":8456:8470  fee_percentage */\n      swap1\n        /* \"contracts/Arcade.sol\":8426:8470  gameData[game_id].total_fee * fee_percentage */\n      tag_250\n      jump\t// in\n    tag_249:\n        /* \"contracts/Arcade.sol\":8425:8478  (gameData[game_id].total_fee * fee_percentage) / base */\n      tag_251\n      swap2\n      swap1\n      tag_252\n      jump\t// in\n    tag_251:\n        /* \"contracts/Arcade.sol\":8425:8485  (gameData[game_id].total_fee * fee_percentage) / base / base */\n      tag_253\n      swap2\n      swap1\n      tag_252\n      jump\t// in\n    tag_253:\n        /* \"contracts/Arcade.sol\":8499:8513  uint256 payout */\n      0x00\n        /* \"contracts/Arcade.sol\":8516:8533  gameData[game_id] */\n      dup6\n      dup2\n      mstore\n        /* \"contracts/Arcade.sol\":8516:8524  gameData */\n      0x02\n        /* \"contracts/Arcade.sol\":8516:8533  gameData[game_id] */\n      0x20\n      mstore\n      0x40\n      dup2\n      keccak256\n        /* \"contracts/Arcade.sol\":8516:8543  gameData[game_id].total_fee */\n      0x06\n      add\n      sload\n        /* \"contracts/Arcade.sol\":8404:8485  uint256 arcade_fee = (gameData[game_id].total_fee * fee_percentage) / base / base */\n      swap2\n      swap3\n      pop\n        /* \"contracts/Arcade.sol\":8499:8513  uint256 payout */\n      swap1\n        /* \"contracts/Arcade.sol\":8516:8556  gameData[game_id].total_fee - arcade_fee */\n      tag_254\n      swap1\n        /* \"contracts/Arcade.sol\":8404:8485  uint256 arcade_fee = (gameData[game_id].total_fee * fee_percentage) / base / base */\n      dup4\n      swap1\n        /* \"contracts/Arcade.sol\":8516:8556  gameData[game_id].total_fee - arcade_fee */\n      tag_238\n      jump\t// in\n    tag_254:\n        /* \"contracts/Arcade.sol\":8499:8556  uint256 payout = gameData[game_id].total_fee - arcade_fee */\n      swap1\n      pop\n        /* \"contracts/Arcade.sol\":8597:8618  address(this).balance */\n      selfbalance\n        /* \"contracts/Arcade.sol\":8637:8662  contract_balance < payout */\n      dup2\n      dup2\n      lt\n        /* \"contracts/Arcade.sol\":8633:8722  if (contract_balance < payout) {... */\n      iszero\n      tag_255\n      jumpi\n        /* \"contracts/Arcade.sol\":8691:8707  contract_balance */\n      dup1\n        /* \"contracts/Arcade.sol\":8682:8707  payout = contract_balance */\n      swap2\n      pop\n        /* \"contracts/Arcade.sol\":8633:8722  if (contract_balance < payout) {... */\n    tag_255:\n        /* \"contracts/Arcade.sol\":8737:8749  bool success */\n      0x00\n        /* \"contracts/Arcade.sol\":8755:8761  winner */\n      dup6\n      sub(shl(0xa0, 0x01), 0x01)\n        /* \"contracts/Arcade.sol\":8755:8766  winner.call */\n      and\n        /* \"contracts/Arcade.sol\":8775:8781  payout */\n      dup4\n        /* \"contracts/Arcade.sol\":8755:8787  winner.call{ value: payout }(\"\") */\n      mload(0x40)\n      0x00\n      mload(0x40)\n      dup1\n      dup4\n      sub\n      dup2\n      dup6\n      dup8\n      gas\n      call\n      swap3\n      pop\n      pop\n      pop\n      returndatasize\n      dup1\n      0x00\n      dup2\n      eq\n      tag_259\n      jumpi\n      mload(0x40)\n      swap2\n      pop\n      and(add(returndatasize, 0x3f), not(0x1f))\n      dup3\n      add\n      0x40\n      mstore\n      returndatasize\n      dup3\n      mstore\n      returndatasize\n      0x00\n      0x20\n      dup5\n      add\n      returndatacopy\n      jump(tag_258)\n    tag_259:\n      0x60\n      swap2\n      pop\n    tag_258:\n      pop\n        /* \"contracts/Arcade.sol\":8736:8787  (bool success, ) = winner.call{ value: payout }(\"\") */\n      pop\n      swap1\n      pop\n        /* \"contracts/Arcade.sol\":8809:8816  success */\n      dup1\n        /* \"contracts/Arcade.sol\":8801:8860  require(success, \"Trophy King Arcade: Unable to transfer.\") */\n      tag_260\n      jumpi\n      mload(0x40)\n      shl(0xe5, 0x461bcd)\n      dup2\n      mstore\n      0x04\n      add\n      tag_183\n      swap1\n      tag_184\n      jump\t// in\n    tag_260:\n        /* \"contracts/Arcade.sol\":8892:8906  Payout(payout) */\n      mload(0x40)\n        /* \"#utility.yul\":6307:6332   */\n      dup4\n      dup2\n      mstore\n        /* \"contracts/Arcade.sol\":8892:8906  Payout(payout) */\n      0x22427047e1a674a9aff59700a2c8d00ea96e017ddf9236690bdedf1f21f28d9d\n      swap1\n        /* \"#utility.yul\":6295:6297   */\n      0x20\n        /* \"#utility.yul\":6280:6298   */\n      add\n        /* \"contracts/Arcade.sol\":8892:8906  Payout(payout) */\n      mload(0x40)\n      dup1\n      swap2\n      sub\n      swap1\n      log1\n        /* \"contracts/Arcade.sol\":8184:8917  if (gameData[game_id].exchange == false) {... */\n      pop\n      pop\n      pop\n      pop\n    tag_244:\n        /* \"contracts/Arcade.sol\":8927:8945  closeGame(game_id) */\n      tag_176\n        /* \"contracts/Arcade.sol\":8937:8944  game_id */\n      dup4\n        /* \"contracts/Arcade.sol\":8927:8936  closeGame */\n      tag_76\n        /* \"contracts/Arcade.sol\":8927:8945  closeGame(game_id) */\n      jump\t// in\n        /* \"contracts/Arcade.sol\":4618:4899  function placePlayer(uint256 game_id, address player) public onlyRole(DEFAULT_ADMIN_ROLE) {... */\n    tag_123:\n        /* \"@openzeppelin/contracts@4.6.0/access/AccessControl.sol\":2072:2076  0x00 */\n      0x00\n        /* \"@openzeppelin/contracts@4.6.0/access/AccessControl.sol\":2505:2521  _checkRole(role) */\n      tag_265\n        /* \"@openzeppelin/contracts@4.6.0/access/AccessControl.sol\":2072:2076  0x00 */\n      dup2\n        /* \"@openzeppelin/contracts@4.6.0/access/AccessControl.sol\":2505:2515  _checkRole */\n      tag_154\n        /* \"@openzeppelin/contracts@4.6.0/access/AccessControl.sol\":2505:2521  _checkRole(role) */\n      jump\t// in\n    tag_265:\n        /* \"contracts/Arcade.sol\":4726:4743  gameData[game_id] */\n      0x00\n      dup4\n      dup2\n      mstore\n        /* \"contracts/Arcade.sol\":4726:4734  gameData */\n      0x02\n        /* \"contracts/Arcade.sol\":4726:4743  gameData[game_id] */\n      0x20\n      swap1\n      dup2\n      mstore\n      0x40\n      dup1\n      dup4\n      keccak256\n      sub(shl(0xa0, 0x01), 0x01)\n        /* \"contracts/Arcade.sol\":4726:4757  gameData[game_id].seats[player] */\n      dup7\n      and\n      dup5\n      mstore\n        /* \"contracts/Arcade.sol\":4726:4749  gameData[game_id].seats */\n      0x09\n      add\n        /* \"contracts/Arcade.sol\":4726:4757  gameData[game_id].seats[player] */\n      swap1\n      swap2\n      mstore\n      swap1\n      keccak256\n      sload\n        /* \"contracts/Arcade.sol\":4761:4762  1 */\n      0x01\n        /* \"contracts/Arcade.sol\":4726:4762  gameData[game_id].seats[player] != 1 */\n      eq\n      iszero\n        /* \"contracts/Arcade.sol\":4718:4802  require(gameData[game_id].seats[player] != 1, \"Trophy King Arcade: Already seated.\") */\n      tag_267\n      jumpi\n      mload(0x40)\n      shl(0xe5, 0x461bcd)\n      dup2\n      mstore\n        /* \"#utility.yul\":8857:8859   */\n      0x20\n        /* \"contracts/Arcade.sol\":4718:4802  require(gameData[game_id].seats[player] != 1, \"Trophy King Arcade: Already seated.\") */\n      0x04\n      dup3\n      add\n        /* \"#utility.yul\":8839:8860   */\n      mstore\n        /* \"#utility.yul\":8896:8898   */\n      0x23\n        /* \"#utility.yul\":8876:8894   */\n      0x24\n      dup3\n      add\n        /* \"#utility.yul\":8869:8899   */\n      mstore\n        /* \"#utility.yul\":8935:8969   */\n      0x54726f706879204b696e67204172636164653a20416c72656164792073656174\n        /* \"#utility.yul\":8915:8933   */\n      0x44\n      dup3\n      add\n        /* \"#utility.yul\":8908:8970   */\n      mstore\n      shl(0xe9, 0x32b217)\n        /* \"#utility.yul\":8986:9004   */\n      0x64\n      dup3\n      add\n        /* \"#utility.yul\":8979:9012   */\n      mstore\n        /* \"#utility.yul\":9029:9048   */\n      0x84\n      add\n        /* \"contracts/Arcade.sol\":4718:4802  require(gameData[game_id].seats[player] != 1, \"Trophy King Arcade: Already seated.\") */\n      tag_183\n        /* \"#utility.yul\":8829:9054   */\n      jump\n        /* \"contracts/Arcade.sol\":4718:4802  require(gameData[game_id].seats[player] != 1, \"Trophy King Arcade: Already seated.\") */\n    tag_267:\n        /* \"contracts/Arcade.sol\":4813:4830  gameData[game_id] */\n      0x00\n      dup4\n      dup2\n      mstore\n        /* \"contracts/Arcade.sol\":4813:4821  gameData */\n      0x02\n        /* \"contracts/Arcade.sol\":4813:4830  gameData[game_id] */\n      0x20\n      swap1\n      dup2\n      mstore\n      0x40\n      dup1\n      dup4\n      keccak256\n      sub(shl(0xa0, 0x01), 0x01)\n        /* \"contracts/Arcade.sol\":4813:4844  gameData[game_id].seats[player] */\n      dup7\n      and\n      dup1\n      dup6\n      mstore\n        /* \"contracts/Arcade.sol\":4813:4836  gameData[game_id].seats */\n      0x09\n      swap1\n      swap2\n      add\n        /* \"contracts/Arcade.sol\":4813:4844  gameData[game_id].seats[player] */\n      dup4\n      mstore\n      swap3\n      dup2\n      swap1\n      keccak256\n        /* \"contracts/Arcade.sol\":4847:4848  1 */\n      0x01\n        /* \"contracts/Arcade.sol\":4813:4848  gameData[game_id].seats[player] = 1 */\n      swap1\n      sstore\n        /* \"contracts/Arcade.sol\":4864:4892  PlacePlayer(player, game_id) */\n      dup1\n      mload\n        /* \"#utility.yul\":4674:4725   */\n      swap3\n      dup4\n      mstore\n        /* \"#utility.yul\":4741:4759   */\n      swap1\n      dup3\n      add\n        /* \"#utility.yul\":4734:4768   */\n      dup6\n      swap1\n      mstore\n        /* \"contracts/Arcade.sol\":4864:4892  PlacePlayer(player, game_id) */\n      0x9f2deefff0a36949d580cdd4ba9959b4a94786e786bad5650001b58b625fbbb1\n      swap2\n        /* \"#utility.yul\":4647:4665   */\n      add\n        /* \"contracts/Arcade.sol\":4864:4892  PlacePlayer(player, game_id) */\n      tag_196\n        /* \"#utility.yul\":4629:4774   */\n      jump\n        /* \"@openzeppelin/contracts@4.6.0/access/AccessControl.sol\":5149:5296  function revokeRole(bytes32 role, address account) public virtual override onlyRole(getRoleAdmin(role)) {... */\n    tag_134:\n        /* \"@openzeppelin/contracts@4.6.0/access/AccessControl.sol\":4465:4472  bytes32 */\n      0x00\n        /* \"@openzeppelin/contracts@4.6.0/access/AccessControl.sol\":4491:4503  _roles[role] */\n      dup3\n      dup2\n      mstore\n      0x20\n      dup2\n      swap1\n      mstore\n      0x40\n      swap1\n      keccak256\n        /* \"@openzeppelin/contracts@4.6.0/access/AccessControl.sol\":4491:4513  _roles[role].adminRole */\n      0x01\n      add\n      sload\n        /* \"@openzeppelin/contracts@4.6.0/access/AccessControl.sol\":2505:2521  _checkRole(role) */\n      tag_273\n        /* \"@openzeppelin/contracts@4.6.0/access/AccessControl.sol\":2516:2520  role */\n      dup2\n        /* \"@openzeppelin/contracts@4.6.0/access/AccessControl.sol\":2505:2515  _checkRole */\n      tag_154\n        /* \"@openzeppelin/contracts@4.6.0/access/AccessControl.sol\":2505:2521  _checkRole(role) */\n      jump\t// in\n    tag_273:\n        /* \"@openzeppelin/contracts@4.6.0/access/AccessControl.sol\":5263:5289  _revokeRole(role, account) */\n      tag_176\n        /* \"@openzeppelin/contracts@4.6.0/access/AccessControl.sol\":5275:5279  role */\n      dup4\n        /* \"@openzeppelin/contracts@4.6.0/access/AccessControl.sol\":5281:5288  account */\n      dup4\n        /* \"@openzeppelin/contracts@4.6.0/access/AccessControl.sol\":5263:5274  _revokeRole */\n      tag_213\n        /* \"@openzeppelin/contracts@4.6.0/access/AccessControl.sol\":5263:5289  _revokeRole(role, account) */\n      jump\t// in\n        /* \"contracts/Arcade.sol\":6524:7369  function register(uint256 game_id) public {... */\n    tag_144:\n        /* \"contracts/Arcade.sol\":6584:6601  gameData[game_id] */\n      0x00\n      dup2\n      dup2\n      mstore\n        /* \"contracts/Arcade.sol\":6584:6592  gameData */\n      0x02\n        /* \"contracts/Arcade.sol\":6584:6601  gameData[game_id] */\n      0x20\n      swap1\n      dup2\n      mstore\n      0x40\n      dup1\n      dup4\n      keccak256\n        /* \"contracts/Arcade.sol\":6608:6618  msg.sender */\n      caller\n        /* \"contracts/Arcade.sol\":6584:6619  gameData[game_id].seats[msg.sender] */\n      dup5\n      mstore\n        /* \"contracts/Arcade.sol\":6584:6607  gameData[game_id].seats */\n      0x09\n      add\n        /* \"contracts/Arcade.sol\":6584:6619  gameData[game_id].seats[msg.sender] */\n      swap1\n      swap2\n      mstore\n      swap1\n      keccak256\n      sload\n        /* \"contracts/Arcade.sol\":6623:6624  1 */\n      0x01\n        /* \"contracts/Arcade.sol\":6584:6624  gameData[game_id].seats[msg.sender] == 1 */\n      eq\n        /* \"contracts/Arcade.sol\":6576:6662  require(gameData[game_id].seats[msg.sender] == 1, \"Trophy King Arcade: Unauthorized.\") */\n      tag_278\n      jumpi\n      mload(0x40)\n      shl(0xe5, 0x461bcd)\n      dup2\n      mstore\n        /* \"#utility.yul\":10901:10903   */\n      0x20\n        /* \"contracts/Arcade.sol\":6576:6662  require(gameData[game_id].seats[msg.sender] == 1, \"Trophy King Arcade: Unauthorized.\") */\n      0x04\n      dup3\n      add\n        /* \"#utility.yul\":10883:10904   */\n      mstore\n        /* \"#utility.yul\":10940:10942   */\n      0x21\n        /* \"#utility.yul\":10920:10938   */\n      0x24\n      dup3\n      add\n        /* \"#utility.yul\":10913:10943   */\n      mstore\n        /* \"#utility.yul\":10979:11013   */\n      0x54726f706879204b696e67204172636164653a20556e617574686f72697a6564\n        /* \"#utility.yul\":10959:10977   */\n      0x44\n      dup3\n      add\n        /* \"#utility.yul\":10952:11014   */\n      mstore\n      shl(0xf9, 0x17)\n        /* \"#utility.yul\":11030:11048   */\n      0x64\n      dup3\n      add\n        /* \"#utility.yul\":11023:11054   */\n      mstore\n        /* \"#utility.yul\":11071:11090   */\n      0x84\n      add\n        /* \"contracts/Arcade.sol\":6576:6662  require(gameData[game_id].seats[msg.sender] == 1, \"Trophy King Arcade: Unauthorized.\") */\n      tag_183\n        /* \"#utility.yul\":10873:11096   */\n      jump\n        /* \"contracts/Arcade.sol\":6576:6662  require(gameData[game_id].seats[msg.sender] == 1, \"Trophy King Arcade: Unauthorized.\") */\n    tag_278:\n        /* \"contracts/Arcade.sol\":6680:6697  gameData[game_id] */\n      0x00\n      dup2\n      dup2\n      mstore\n        /* \"contracts/Arcade.sol\":6680:6688  gameData */\n      0x02\n        /* \"contracts/Arcade.sol\":6680:6697  gameData[game_id] */\n      0x20\n      mstore\n      0x40\n      swap1\n      keccak256\n        /* \"contracts/Arcade.sol\":6680:6704  gameData[game_id].status */\n      0x04\n      add\n      sload\n        /* \"contracts/Arcade.sol\":6708:6709  1 */\n      0x01\n        /* \"contracts/Arcade.sol\":6680:6709  gameData[game_id].status == 1 */\n      eq\n        /* \"contracts/Arcade.sol\":6672:6746  require(gameData[game_id].status == 1, \"Trophy King Arcade: Game closed.\") */\n      tag_281\n      jumpi\n      mload(0x40)\n      shl(0xe5, 0x461bcd)\n      dup2\n      mstore\n        /* \"#utility.yul\":7669:7671   */\n      0x20\n        /* \"contracts/Arcade.sol\":6672:6746  require(gameData[game_id].status == 1, \"Trophy King Arcade: Game closed.\") */\n      0x04\n      dup3\n      add\n        /* \"#utility.yul\":7651:7672   */\n      dup2\n      swap1\n      mstore\n        /* \"#utility.yul\":7688:7706   */\n      0x24\n      dup3\n      add\n        /* \"#utility.yul\":7681:7711   */\n      mstore\n        /* \"#utility.yul\":7747:7781   */\n      0x54726f706879204b696e67204172636164653a2047616d6520636c6f7365642e\n        /* \"#utility.yul\":7727:7745   */\n      0x44\n      dup3\n      add\n        /* \"#utility.yul\":7720:7782   */\n      mstore\n        /* \"#utility.yul\":7799:7817   */\n      0x64\n      add\n        /* \"contracts/Arcade.sol\":6672:6746  require(gameData[game_id].status == 1, \"Trophy King Arcade: Game closed.\") */\n      tag_183\n        /* \"#utility.yul\":7641:7823   */\n      jump\n        /* \"contracts/Arcade.sol\":6672:6746  require(gameData[game_id].status == 1, \"Trophy King Arcade: Game closed.\") */\n    tag_281:\n        /* \"contracts/Arcade.sol\":6797:6814  gameData[game_id] */\n      0x00\n      dup2\n      dup2\n      mstore\n        /* \"contracts/Arcade.sol\":6797:6805  gameData */\n      0x02\n        /* \"contracts/Arcade.sol\":6797:6814  gameData[game_id] */\n      0x20\n      dup2\n      swap1\n      mstore\n      0x40\n      swap1\n      swap2\n      keccak256\n        /* \"contracts/Arcade.sol\":6797:6827  gameData[game_id].player_count */\n      0x01\n      dup2\n      add\n      sload\n        /* \"contracts/Arcade.sol\":6764:6794  gameData[game_id].player_limit */\n      swap2\n      add\n      sload\n        /* \"contracts/Arcade.sol\":6764:6827  gameData[game_id].player_limit > gameData[game_id].player_count */\n      gt\n        /* \"contracts/Arcade.sol\":6756:6874  require(gameData[game_id].player_limit > gameData[game_id].player_count, \"Trophy King Arcade: Game full.  Try again.\") */\n      tag_284\n      jumpi\n      mload(0x40)\n      shl(0xe5, 0x461bcd)\n      dup2\n      mstore\n        /* \"#utility.yul\":10086:10088   */\n      0x20\n        /* \"contracts/Arcade.sol\":6756:6874  require(gameData[game_id].player_limit > gameData[game_id].player_count, \"Trophy King Arcade: Game full.  Try again.\") */\n      0x04\n      dup3\n      add\n        /* \"#utility.yul\":10068:10089   */\n      mstore\n        /* \"#utility.yul\":10125:10127   */\n      0x2a\n        /* \"#utility.yul\":10105:10123   */\n      0x24\n      dup3\n      add\n        /* \"#utility.yul\":10098:10128   */\n      mstore\n        /* \"#utility.yul\":10164:10198   */\n      0x54726f706879204b696e67204172636164653a2047616d652066756c6c2e2020\n        /* \"#utility.yul\":10144:10162   */\n      0x44\n      dup3\n      add\n        /* \"#utility.yul\":10137:10199   */\n      mstore\n      shl(0xb1, 0x2a393c9030b3b0b4b717)\n        /* \"#utility.yul\":10215:10233   */\n      0x64\n      dup3\n      add\n        /* \"#utility.yul\":10208:10248   */\n      mstore\n        /* \"#utility.yul\":10265:10284   */\n      0x84\n      add\n        /* \"contracts/Arcade.sol\":6756:6874  require(gameData[game_id].player_limit > gameData[game_id].player_count, \"Trophy King Arcade: Game full.  Try again.\") */\n      tag_183\n        /* \"#utility.yul\":10058:10290   */\n      jump\n        /* \"contracts/Arcade.sol\":6756:6874  require(gameData[game_id].player_limit > gameData[game_id].player_count, \"Trophy King Arcade: Game full.  Try again.\") */\n    tag_284:\n        /* \"contracts/Arcade.sol\":6892:6909  gameData[game_id] */\n      0x00\n      dup2\n      dup2\n      mstore\n        /* \"contracts/Arcade.sol\":6892:6900  gameData */\n      0x02\n        /* \"contracts/Arcade.sol\":6892:6909  gameData[game_id] */\n      0x20\n      swap1\n      dup2\n      mstore\n      0x40\n      dup1\n      dup4\n      keccak256\n        /* \"contracts/Arcade.sol\":6915:6925  msg.sender */\n      caller\n        /* \"contracts/Arcade.sol\":6892:6926  gameData[game_id].paid[msg.sender] */\n      dup5\n      mstore\n        /* \"contracts/Arcade.sol\":6892:6914  gameData[game_id].paid */\n      0x08\n      add\n        /* \"contracts/Arcade.sol\":6892:6926  gameData[game_id].paid[msg.sender] */\n      swap1\n      swap2\n      mstore\n      swap1\n      keccak256\n      sload\n        /* \"contracts/Arcade.sol\":6892:6931  gameData[game_id].paid[msg.sender] == 0 */\n      iszero\n        /* \"contracts/Arcade.sol\":6884:6975  require(gameData[game_id].paid[msg.sender] == 0, \"Trophy King Arcade: Already registered.\") */\n      tag_287\n      jumpi\n      mload(0x40)\n      shl(0xe5, 0x461bcd)\n      dup2\n      mstore\n        /* \"#utility.yul\":8030:8032   */\n      0x20\n        /* \"contracts/Arcade.sol\":6884:6975  require(gameData[game_id].paid[msg.sender] == 0, \"Trophy King Arcade: Already registered.\") */\n      0x04\n      dup3\n      add\n        /* \"#utility.yul\":8012:8033   */\n      mstore\n        /* \"#utility.yul\":8069:8071   */\n      0x27\n        /* \"#utility.yul\":8049:8067   */\n      0x24\n      dup3\n      add\n        /* \"#utility.yul\":8042:8072   */\n      mstore\n        /* \"#utility.yul\":8108:8142   */\n      0x54726f706879204b696e67204172636164653a20416c72656164792072656769\n        /* \"#utility.yul\":8088:8106   */\n      0x44\n      dup3\n      add\n        /* \"#utility.yul\":8081:8143   */\n      mstore\n      shl(0xc9, 0x39ba32b932b217)\n        /* \"#utility.yul\":8159:8177   */\n      0x64\n      dup3\n      add\n        /* \"#utility.yul\":8152:8189   */\n      mstore\n        /* \"#utility.yul\":8206:8225   */\n      0x84\n      add\n        /* \"contracts/Arcade.sol\":6884:6975  require(gameData[game_id].paid[msg.sender] == 0, \"Trophy King Arcade: Already registered.\") */\n      tag_183\n        /* \"#utility.yul\":8002:8231   */\n      jump\n        /* \"contracts/Arcade.sol\":6884:6975  require(gameData[game_id].paid[msg.sender] == 0, \"Trophy King Arcade: Already registered.\") */\n    tag_287:\n        /* \"contracts/Arcade.sol\":7026:7027  0 */\n      0x00\n        /* \"contracts/Arcade.sol\":6993:7010  gameData[game_id] */\n      dup2\n      dup2\n      mstore\n        /* \"contracts/Arcade.sol\":6993:7001  gameData */\n      0x02\n        /* \"contracts/Arcade.sol\":6993:7010  gameData[game_id] */\n      0x20\n      dup2\n      swap1\n      mstore\n      0x40\n      swap1\n      swap2\n      keccak256\n        /* \"contracts/Arcade.sol\":6993:7023  gameData[game_id].player_limit */\n      add\n      sload\n        /* \"contracts/Arcade.sol\":6985:7067  require(gameData[game_id].player_limit > 0, \"Trophy King Arcade: Game not found.\") */\n      tag_290\n      jumpi\n      mload(0x40)\n      shl(0xe5, 0x461bcd)\n      dup2\n      mstore\n        /* \"#utility.yul\":10497:10499   */\n      0x20\n        /* \"contracts/Arcade.sol\":6985:7067  require(gameData[game_id].player_limit > 0, \"Trophy King Arcade: Game not found.\") */\n      0x04\n      dup3\n      add\n        /* \"#utility.yul\":10479:10500   */\n      mstore\n        /* \"#utility.yul\":10536:10538   */\n      0x23\n        /* \"#utility.yul\":10516:10534   */\n      0x24\n      dup3\n      add\n        /* \"#utility.yul\":10509:10539   */\n      mstore\n        /* \"#utility.yul\":10575:10609   */\n      0x54726f706879204b696e67204172636164653a2047616d65206e6f7420666f75\n        /* \"#utility.yul\":10555:10573   */\n      0x44\n      dup3\n      add\n        /* \"#utility.yul\":10548:10610   */\n      mstore\n      shl(0xe9, 0x373217)\n        /* \"#utility.yul\":10626:10644   */\n      0x64\n      dup3\n      add\n        /* \"#utility.yul\":10619:10652   */\n      mstore\n        /* \"#utility.yul\":10669:10688   */\n      0x84\n      add\n        /* \"contracts/Arcade.sol\":6985:7067  require(gameData[game_id].player_limit > 0, \"Trophy King Arcade: Game not found.\") */\n      tag_183\n        /* \"#utility.yul\":10469:10694   */\n      jump\n        /* \"contracts/Arcade.sol\":6985:7067  require(gameData[game_id].player_limit > 0, \"Trophy King Arcade: Game not found.\") */\n    tag_290:\n        /* \"contracts/Arcade.sol\":7085:7139  acceptedArcadeTokens[(gameData[game_id].arcade_token)] */\n      0x00\n        /* \"contracts/Arcade.sol\":7107:7124  gameData[game_id] */\n      dup2\n      dup2\n      mstore\n        /* \"contracts/Arcade.sol\":7107:7115  gameData */\n      0x02\n        /* \"contracts/Arcade.sol\":7107:7124  gameData[game_id] */\n      0x20\n      swap1\n      dup2\n      mstore\n      0x40\n      dup1\n      dup4\n      keccak256\n        /* \"contracts/Arcade.sol\":7107:7137  gameData[game_id].arcade_token */\n      0x05\n      add\n      sload\n      sub(shl(0xa0, 0x01), 0x01)\n      swap1\n      dup2\n      and\n        /* \"contracts/Arcade.sol\":7085:7139  acceptedArcadeTokens[(gameData[game_id].arcade_token)] */\n      dup5\n      mstore\n        /* \"contracts/Arcade.sol\":7085:7105  acceptedArcadeTokens */\n      0x01\n        /* \"contracts/Arcade.sol\":7085:7139  acceptedArcadeTokens[(gameData[game_id].arcade_token)] */\n      swap1\n      swap3\n      mstore\n      swap1\n      swap2\n      keccak256\n        /* \"contracts/Arcade.sol\":7085:7152  acceptedArcadeTokens[(gameData[game_id].arcade_token)].native_token */\n      sload\n      and\n        /* \"contracts/Arcade.sol\":7085:7165  acceptedArcadeTokens[(gameData[game_id].arcade_token)].native_token.transferFrom */\n      0x23b872dd\n        /* \"@openzeppelin/contracts@4.6.0/utils/Context.sol\":719:729  msg.sender */\n      caller\n        /* \"contracts/Arcade.sol\":7195:7212  gameData[game_id] */\n      0x00\n      dup5\n      dup2\n      mstore\n        /* \"contracts/Arcade.sol\":7195:7203  gameData */\n      0x02\n        /* \"contracts/Arcade.sol\":7195:7212  gameData[game_id] */\n      0x20\n      mstore\n      0x40\n      swap1\n      dup2\n      swap1\n      keccak256\n        /* \"contracts/Arcade.sol\":7195:7229  gameData[game_id].registration_fee */\n      0x03\n      add\n      sload\n        /* \"contracts/Arcade.sol\":7085:7230  acceptedArcadeTokens[(gameData[game_id].arcade_token)].native_token.transferFrom(_msgSender(), address(this), gameData[game_id].registration_fee) */\n      swap1\n      mload\n      0xe0\n      dup5\n      swap1\n      shl\n      not(sub(shl(0xe0, 0x01), 0x01))\n      and\n      dup2\n      mstore\n      sub(shl(0xa0, 0x01), 0x01)\n        /* \"#utility.yul\":4293:4308   */\n      swap1\n      swap3\n      and\n        /* \"contracts/Arcade.sol\":7085:7230  acceptedArcadeTokens[(gameData[game_id].arcade_token)].native_token.transferFrom(_msgSender(), address(this), gameData[game_id].registration_fee) */\n      0x04\n      dup4\n      add\n        /* \"#utility.yul\":4275:4309   */\n      mstore\n        /* \"contracts/Arcade.sol\":7188:7192  this */\n      address\n        /* \"#utility.yul\":4325:4343   */\n      0x24\n      dup4\n      add\n        /* \"#utility.yul\":4318:4361   */\n      mstore\n        /* \"#utility.yul\":4377:4395   */\n      0x44\n      dup3\n      add\n        /* \"#utility.yul\":4370:4404   */\n      mstore\n        /* \"#utility.yul\":4210:4228   */\n      0x64\n      add\n        /* \"contracts/Arcade.sol\":7085:7230  acceptedArcadeTokens[(gameData[game_id].arcade_token)].native_token.transferFrom(_msgSender(), address(this), gameData[game_id].registration_fee) */\n      0x20\n      mload(0x40)\n      dup1\n      dup4\n      sub\n      dup2\n      0x00\n      dup8\n      dup1\n      extcodesize\n      iszero\n      dup1\n      iszero\n      tag_296\n      jumpi\n      0x00\n      dup1\n      revert\n    tag_296:\n      pop\n      gas\n      call\n      iszero\n      dup1\n      iszero\n      tag_298\n      jumpi\n      returndatasize\n      0x00\n      dup1\n      returndatacopy\n      revert(0x00, returndatasize)\n    tag_298:\n      pop\n      pop\n      pop\n      pop\n      mload(0x40)\n      returndatasize\n      not(0x1f)\n      0x1f\n      dup3\n      add\n      and\n      dup3\n      add\n      dup1\n      0x40\n      mstore\n      pop\n      dup2\n      add\n      swap1\n      tag_299\n      swap2\n      swap1\n      tag_172\n      jump\t// in\n    tag_299:\n        /* \"contracts/Arcade.sol\":7077:7285  require(acceptedArcadeTokens[(gameData[game_id].arcade_token)].native_token.transferFrom(_msgSender(), address(this), gameData[game_id].registration_fee), \"Trophy King Arcade: Must approve registration fee.\") */\n      tag_300\n      jumpi\n      mload(0x40)\n      shl(0xe5, 0x461bcd)\n      dup2\n      mstore\n        /* \"#utility.yul\":8438:8440   */\n      0x20\n        /* \"contracts/Arcade.sol\":7077:7285  require(acceptedArcadeTokens[(gameData[game_id].arcade_token)].native_token.transferFrom(_msgSender(), address(this), gameData[game_id].registration_fee), \"Trophy King Arcade: Must approve registration fee.\") */\n      0x04\n      dup3\n      add\n        /* \"#utility.yul\":8420:8441   */\n      mstore\n        /* \"#utility.yul\":8477:8479   */\n      0x32\n        /* \"#utility.yul\":8457:8475   */\n      0x24\n      dup3\n      add\n        /* \"#utility.yul\":8450:8480   */\n      mstore\n        /* \"#utility.yul\":8516:8550   */\n      0x54726f706879204b696e67204172636164653a204d75737420617070726f7665\n        /* \"#utility.yul\":8496:8514   */\n      0x44\n      dup3\n      add\n        /* \"#utility.yul\":8489:8551   */\n      mstore\n      shl(0x71, 0x103932b3b4b9ba3930ba34b7b7103332b297)\n        /* \"#utility.yul\":8567:8585   */\n      0x64\n      dup3\n      add\n        /* \"#utility.yul\":8560:8608   */\n      mstore\n        /* \"#utility.yul\":8625:8644   */\n      0x84\n      add\n        /* \"contracts/Arcade.sol\":7077:7285  require(acceptedArcadeTokens[(gameData[game_id].arcade_token)].native_token.transferFrom(_msgSender(), address(this), gameData[game_id].registration_fee), \"Trophy King Arcade: Must approve registration fee.\") */\n      tag_183\n        /* \"#utility.yul\":8410:8650   */\n      jump\n        /* \"contracts/Arcade.sol\":7077:7285  require(acceptedArcadeTokens[(gameData[game_id].arcade_token)].native_token.transferFrom(_msgSender(), address(this), gameData[game_id].registration_fee), \"Trophy King Arcade: Must approve registration fee.\") */\n    tag_300:\n        /* \"contracts/Arcade.sol\":7327:7344  gameData[game_id] */\n      0x00\n      dup2\n      dup2\n      mstore\n        /* \"contracts/Arcade.sol\":7327:7335  gameData */\n      0x02\n        /* \"contracts/Arcade.sol\":7327:7344  gameData[game_id] */\n      0x20\n      mstore\n      0x40\n      swap1\n      keccak256\n        /* \"contracts/Arcade.sol\":7327:7361  gameData[game_id].registration_fee */\n      0x03\n      add\n      sload\n        /* \"contracts/Arcade.sol\":7296:7362  _register(game_id, msg.sender, gameData[game_id].registration_fee) */\n      tag_303\n      swap1\n        /* \"contracts/Arcade.sol\":7306:7313  game_id */\n      dup3\n      swap1\n        /* \"contracts/Arcade.sol\":7315:7325  msg.sender */\n      caller\n      swap1\n        /* \"contracts/Arcade.sol\":7296:7305  _register */\n      tag_304\n        /* \"contracts/Arcade.sol\":7296:7362  _register(game_id, msg.sender, gameData[game_id].registration_fee) */\n      jump\t// in\n    tag_303:\n        /* \"contracts/Arcade.sol\":6524:7369  function register(uint256 game_id) public {... */\n      pop\n      jump\t// out\n        /* \"contracts/Arcade.sol\":3561:4104  function createGame(uint256 game_id, uint256 registration_fee, address arcade_token, uint256 player_limit, bool exchange) public onlyRole(DEFAULT_ADMIN_ROLE) {... */\n    tag_148:\n        /* \"@openzeppelin/contracts@4.6.0/access/AccessControl.sol\":2072:2076  0x00 */\n      0x00\n        /* \"@openzeppelin/contracts@4.6.0/access/AccessControl.sol\":2505:2521  _checkRole(role) */\n      tag_306\n        /* \"@openzeppelin/contracts@4.6.0/access/AccessControl.sol\":2072:2076  0x00 */\n      dup2\n        /* \"@openzeppelin/contracts@4.6.0/access/AccessControl.sol\":2505:2515  _checkRole */\n      tag_154\n        /* \"@openzeppelin/contracts@4.6.0/access/AccessControl.sol\":2505:2521  _checkRole(role) */\n      jump\t// in\n    tag_306:\n        /* \"contracts/Arcade.sol\":3729:3746  gameData[game_id] */\n      0x00\n      dup7\n      dup2\n      mstore\n        /* \"contracts/Arcade.sol\":3729:3737  gameData */\n      0x02\n        /* \"contracts/Arcade.sol\":3729:3746  gameData[game_id] */\n      0x20\n      dup2\n      dup2\n      mstore\n      0x40\n      dup1\n      dup5\n      keccak256\n        /* \"contracts/Arcade.sol\":3756:3757  1 */\n      0x01\n        /* \"contracts/Arcade.sol\":3729:3753  gameData[game_id].status */\n      0x04\n      dup3\n      add\n        /* \"contracts/Arcade.sol\":3729:3757  gameData[game_id].status = 1 */\n      dup2\n      swap1\n      sstore\n        /* \"contracts/Arcade.sol\":3767:3794  gameData[game_id].total_fee */\n      0x06\n      dup3\n      add\n        /* \"contracts/Arcade.sol\":3767:3798  gameData[game_id].total_fee = 0 */\n      dup7\n      swap1\n      sstore\n        /* \"contracts/Arcade.sol\":3808:3842  gameData[game_id].registration_fee */\n      0x03\n      dup3\n      add\n        /* \"contracts/Arcade.sol\":3808:3861  gameData[game_id].registration_fee = registration_fee */\n      dup12\n      swap1\n      sstore\n        /* \"contracts/Arcade.sol\":3871:3901  gameData[game_id].arcade_token */\n      0x05\n      dup3\n      add\n        /* \"contracts/Arcade.sol\":3871:3916  gameData[game_id].arcade_token = arcade_token */\n      dup1\n      sload\n      not(sub(shl(0xa0, 0x01), 0x01))\n      and\n      sub(shl(0xa0, 0x01), 0x01)\n      dup13\n      and\n      or\n      swap1\n      sstore\n        /* \"contracts/Arcade.sol\":3926:3956  gameData[game_id].player_count */\n      dup2\n      add\n        /* \"contracts/Arcade.sol\":3926:3960  gameData[game_id].player_count = 0 */\n      swap5\n      swap1\n      swap5\n      sstore\n        /* \"contracts/Arcade.sol\":3970:4000  gameData[game_id].player_limit */\n      swap2\n      dup4\n      add\n        /* \"contracts/Arcade.sol\":3970:4015  gameData[game_id].player_limit = player_limit */\n      dup7\n      swap1\n      sstore\n        /* \"contracts/Arcade.sol\":4025:4062  gameData[game_id].exchange = exchange */\n      dup3\n      sload\n      not(0xff)\n      and\n      dup6\n      iszero\n      iszero\n      or\n      swap1\n      swap3\n      sstore\n        /* \"contracts/Arcade.sol\":4078:4097  CreateGame(game_id) */\n      mload\n        /* \"#utility.yul\":6307:6332   */\n      dup8\n      dup2\n      mstore\n        /* \"contracts/Arcade.sol\":4078:4097  CreateGame(game_id) */\n      0x9e5237c6a8bb45df74799cf138ebda4fed0574bed906da41387acdc4a3cbe3d8\n      swap2\n        /* \"#utility.yul\":6280:6298   */\n      add\n        /* \"contracts/Arcade.sol\":4078:4097  CreateGame(game_id) */\n      mload(0x40)\n      dup1\n      swap2\n      sub\n      swap1\n      log1\n        /* \"contracts/Arcade.sol\":3561:4104  function createGame(uint256 game_id, uint256 registration_fee, address arcade_token, uint256 player_limit, bool exchange) public onlyRole(DEFAULT_ADMIN_ROLE) {... */\n      pop\n      pop\n      pop\n      pop\n      pop\n      pop\n      jump\t// out\n        /* \"contracts/Arcade.sol\":7896:8014  function setMarketMaker(address incoming) public onlyRole(DEFAULT_ADMIN_ROLE) {... */\n    tag_151:\n        /* \"@openzeppelin/contracts@4.6.0/access/AccessControl.sol\":2072:2076  0x00 */\n      0x00\n        /* \"@openzeppelin/contracts@4.6.0/access/AccessControl.sol\":2505:2521  _checkRole(role) */\n      tag_310\n        /* \"@openzeppelin/contracts@4.6.0/access/AccessControl.sol\":2072:2076  0x00 */\n      dup2\n        /* \"@openzeppelin/contracts@4.6.0/access/AccessControl.sol\":2505:2515  _checkRole */\n      tag_154\n        /* \"@openzeppelin/contracts@4.6.0/access/AccessControl.sol\":2505:2521  _checkRole(role) */\n      jump\t// in\n    tag_310:\n      pop\n        /* \"contracts/Arcade.sol\":7984:7996  market_maker */\n      0x06\n        /* \"contracts/Arcade.sol\":7984:8007  market_maker = incoming */\n      dup1\n      sload\n      not(sub(shl(0xa0, 0x01), 0x01))\n      and\n      sub(shl(0xa0, 0x01), 0x01)\n      swap3\n      swap1\n      swap3\n      and\n      swap2\n      swap1\n      swap2\n      or\n      swap1\n      sstore\n        /* \"contracts/Arcade.sol\":7896:8014  function setMarketMaker(address incoming) public onlyRole(DEFAULT_ADMIN_ROLE) {... */\n      jump\t// out\n        /* \"@openzeppelin/contracts@4.6.0/access/AccessControl.sol\":3334:3437  function _checkRole(bytes32 role) internal view virtual {... */\n    tag_154:\n        /* \"@openzeppelin/contracts@4.6.0/access/AccessControl.sol\":3400:3430  _checkRole(role, _msgSender()) */\n      tag_303\n        /* \"@openzeppelin/contracts@4.6.0/access/AccessControl.sol\":3411:3415  role */\n      dup2\n        /* \"@openzeppelin/contracts@4.6.0/utils/Context.sol\":719:729  msg.sender */\n      caller\n        /* \"@openzeppelin/contracts@4.6.0/access/AccessControl.sol\":3400:3410  _checkRole */\n      tag_315\n        /* \"@openzeppelin/contracts@4.6.0/access/AccessControl.sol\":3400:3430  _checkRole(role, _msgSender()) */\n      jump\t// in\n        /* \"@openzeppelin/contracts@4.6.0/access/AccessControl.sol\":7244:7477  function _grantRole(bytes32 role, address account) internal virtual {... */\n    tag_206:\n        /* \"@openzeppelin/contracts@4.6.0/access/AccessControl.sol\":7327:7349  hasRole(role, account) */\n      tag_319\n        /* \"@openzeppelin/contracts@4.6.0/access/AccessControl.sol\":7335:7339  role */\n      dup3\n        /* \"@openzeppelin/contracts@4.6.0/access/AccessControl.sol\":7341:7348  account */\n      dup3\n        /* \"@openzeppelin/contracts@4.6.0/access/AccessControl.sol\":7327:7334  hasRole */\n      tag_108\n        /* \"@openzeppelin/contracts@4.6.0/access/AccessControl.sol\":7327:7349  hasRole(role, account) */\n      jump\t// in\n    tag_319:\n        /* \"@openzeppelin/contracts@4.6.0/access/AccessControl.sol\":7322:7471  if (!hasRole(role, account)) {... */\n      tag_212\n      jumpi\n        /* \"@openzeppelin/contracts@4.6.0/access/AccessControl.sol\":7365:7371  _roles */\n      0x00\n        /* \"@openzeppelin/contracts@4.6.0/access/AccessControl.sol\":7365:7377  _roles[role] */\n      dup3\n      dup2\n      mstore\n      0x20\n      dup2\n      dup2\n      mstore\n      0x40\n      dup1\n      dup4\n      keccak256\n      sub(shl(0xa0, 0x01), 0x01)\n        /* \"@openzeppelin/contracts@4.6.0/access/AccessControl.sol\":7365:7394  _roles[role].members[account] */\n      dup6\n      and\n      dup5\n      mstore\n      swap1\n      swap2\n      mstore\n      swap1\n      keccak256\n        /* \"@openzeppelin/contracts@4.6.0/access/AccessControl.sol\":7365:7401  _roles[role].members[account] = true */\n      dup1\n      sload\n      not(0xff)\n      and\n        /* \"@openzeppelin/contracts@4.6.0/access/AccessControl.sol\":7397:7401  true */\n      0x01\n        /* \"@openzeppelin/contracts@4.6.0/access/AccessControl.sol\":7365:7401  _roles[role].members[account] = true */\n      or\n      swap1\n      sstore\n        /* \"@openzeppelin/contracts@4.6.0/access/AccessControl.sol\":7447:7459  _msgSender() */\n      tag_321\n        /* \"@openzeppelin/contracts@4.6.0/utils/Context.sol\":719:729  msg.sender */\n      caller\n      swap1\n        /* \"@openzeppelin/contracts@4.6.0/utils/Context.sol\":640:736  function _msgSender() internal view virtual returns (address) {... */\n      jump\n        /* \"@openzeppelin/contracts@4.6.0/access/AccessControl.sol\":7447:7459  _msgSender() */\n    tag_321:\n      sub(shl(0xa0, 0x01), 0x01)\n        /* \"@openzeppelin/contracts@4.6.0/access/AccessControl.sol\":7420:7460  RoleGranted(role, account, _msgSender()) */\n      and\n        /* \"@openzeppelin/contracts@4.6.0/access/AccessControl.sol\":7438:7445  account */\n      dup2\n      sub(shl(0xa0, 0x01), 0x01)\n        /* \"@openzeppelin/contracts@4.6.0/access/AccessControl.sol\":7420:7460  RoleGranted(role, account, _msgSender()) */\n      and\n        /* \"@openzeppelin/contracts@4.6.0/access/AccessControl.sol\":7432:7436  role */\n      dup4\n        /* \"@openzeppelin/contracts@4.6.0/access/AccessControl.sol\":7420:7460  RoleGranted(role, account, _msgSender()) */\n      0x2f8788117e7eff1d82e926ec794901d17c78024a50270940304540a733656f0d\n      mload(0x40)\n      mload(0x40)\n      dup1\n      swap2\n      sub\n      swap1\n      log4\n        /* \"@openzeppelin/contracts@4.6.0/access/AccessControl.sol\":7244:7477  function _grantRole(bytes32 role, address account) internal virtual {... */\n      pop\n      pop\n      jump\t// out\n        /* \"@openzeppelin/contracts@4.6.0/access/AccessControl.sol\":7602:7836  function _revokeRole(bytes32 role, address account) internal virtual {... */\n    tag_213:\n        /* \"@openzeppelin/contracts@4.6.0/access/AccessControl.sol\":7685:7707  hasRole(role, account) */\n      tag_323\n        /* \"@openzeppelin/contracts@4.6.0/access/AccessControl.sol\":7693:7697  role */\n      dup3\n        /* \"@openzeppelin/contracts@4.6.0/access/AccessControl.sol\":7699:7706  account */\n      dup3\n        /* \"@openzeppelin/contracts@4.6.0/access/AccessControl.sol\":7685:7692  hasRole */\n      tag_108\n        /* \"@openzeppelin/contracts@4.6.0/access/AccessControl.sol\":7685:7707  hasRole(role, account) */\n      jump\t// in\n    tag_323:\n        /* \"@openzeppelin/contracts@4.6.0/access/AccessControl.sol\":7681:7830  if (hasRole(role, account)) {... */\n      iszero\n      tag_212\n      jumpi\n        /* \"@openzeppelin/contracts@4.6.0/access/AccessControl.sol\":7755:7760  false */\n      0x00\n        /* \"@openzeppelin/contracts@4.6.0/access/AccessControl.sol\":7723:7735  _roles[role] */\n      dup3\n      dup2\n      mstore\n      0x20\n      dup2\n      dup2\n      mstore\n      0x40\n      dup1\n      dup4\n      keccak256\n      sub(shl(0xa0, 0x01), 0x01)\n        /* \"@openzeppelin/contracts@4.6.0/access/AccessControl.sol\":7723:7752  _roles[role].members[account] */\n      dup6\n      and\n      dup1\n      dup6\n      mstore\n      swap3\n      mstore\n      dup1\n      dup4\n      keccak256\n        /* \"@openzeppelin/contracts@4.6.0/access/AccessControl.sol\":7723:7760  _roles[role].members[account] = false */\n      dup1\n      sload\n      not(0xff)\n      and\n      swap1\n      sstore\n        /* \"@openzeppelin/contracts@4.6.0/access/AccessControl.sol\":7779:7819  RoleRevoked(role, account, _msgSender()) */\n      mload\n        /* \"@openzeppelin/contracts@4.6.0/utils/Context.sol\":719:729  msg.sender */\n      caller\n      swap3\n        /* \"@openzeppelin/contracts@4.6.0/access/AccessControl.sol\":7723:7735  _roles[role] */\n      dup6\n      swap2\n        /* \"@openzeppelin/contracts@4.6.0/access/AccessControl.sol\":7779:7819  RoleRevoked(role, account, _msgSender()) */\n      0xf6391f5c32d9c69d2a47ea670b442974b53935d1edc7fd64eb21e047a839171b\n      swap2\n        /* \"@openzeppelin/contracts@4.6.0/access/AccessControl.sol\":7755:7760  false */\n      swap1\n        /* \"@openzeppelin/contracts@4.6.0/access/AccessControl.sol\":7779:7819  RoleRevoked(role, account, _msgSender()) */\n      log4\n        /* \"@openzeppelin/contracts@4.6.0/access/AccessControl.sol\":7602:7836  function _revokeRole(bytes32 role, address account) internal virtual {... */\n      pop\n      pop\n      jump\t// out\n        /* \"contracts/Arcade.sol\":6117:6452  function _register(uint256 game_id, address player_address, uint256 amount) internal {... */\n    tag_304:\n        /* \"contracts/Arcade.sol\":6212:6231  GameInfo storage gi */\n      0x00\n        /* \"contracts/Arcade.sol\":6234:6251  gameData[game_id] */\n      dup4\n      dup2\n      mstore\n        /* \"contracts/Arcade.sol\":6234:6242  gameData */\n      0x02\n        /* \"contracts/Arcade.sol\":6234:6251  gameData[game_id] */\n      0x20\n      mstore\n      0x40\n      dup2\n      keccak256\n        /* \"contracts/Arcade.sol\":6281:6282  1 */\n      0x01\n        /* \"contracts/Arcade.sol\":6262:6277  gi.player_count */\n      dup1\n      dup3\n      add\n        /* \"contracts/Arcade.sol\":6262:6282  gi.player_count += 1 */\n      dup1\n      sload\n        /* \"contracts/Arcade.sol\":6234:6251  gameData[game_id] */\n      swap3\n      swap4\n        /* \"contracts/Arcade.sol\":6281:6282  1 */\n      swap2\n      swap3\n        /* \"contracts/Arcade.sol\":6262:6277  gi.player_count */\n      swap1\n      swap2\n        /* \"contracts/Arcade.sol\":6212:6231  GameInfo storage gi */\n      swap1\n        /* \"contracts/Arcade.sol\":6262:6282  gi.player_count += 1 */\n      tag_327\n      swap1\n        /* \"contracts/Arcade.sol\":6281:6282  1 */\n      dup5\n      swap1\n        /* \"contracts/Arcade.sol\":6262:6282  gi.player_count += 1 */\n      tag_328\n      jump\t// in\n    tag_327:\n      swap1\n      swap2\n      sstore\n      pop\n      pop\n      sub(shl(0xa0, 0x01), 0x01)\n        /* \"contracts/Arcade.sol\":6292:6314  gi.fee[player_address] */\n      dup4\n      and\n      0x00\n      swap1\n      dup2\n      mstore\n        /* \"contracts/Arcade.sol\":6292:6298  gi.fee */\n      0x07\n      dup3\n      add\n        /* \"contracts/Arcade.sol\":6292:6314  gi.fee[player_address] */\n      0x20\n      swap1\n      dup2\n      mstore\n      0x40\n      dup1\n      dup4\n      keccak256\n        /* \"contracts/Arcade.sol\":6292:6323  gi.fee[player_address] = amount */\n      dup6\n      swap1\n      sstore\n        /* \"contracts/Arcade.sol\":6333:6340  gi.paid */\n      0x08\n      dup5\n      add\n        /* \"contracts/Arcade.sol\":6333:6356  gi.paid[player_address] */\n      swap1\n      swap2\n      mstore\n      dup2\n      keccak256\n        /* \"contracts/Arcade.sol\":6359:6360  1 */\n      0x01\n        /* \"contracts/Arcade.sol\":6333:6360  gi.paid[player_address] = 1 */\n      swap1\n      sstore\n        /* \"contracts/Arcade.sol\":6370:6382  gi.total_fee */\n      0x06\n      dup3\n      add\n        /* \"contracts/Arcade.sol\":6370:6392  gi.total_fee += amount */\n      dup1\n      sload\n        /* \"contracts/Arcade.sol\":6317:6323  amount */\n      dup5\n      swap3\n        /* \"contracts/Arcade.sol\":6292:6314  gi.fee[player_address] */\n      swap1\n        /* \"contracts/Arcade.sol\":6370:6392  gi.total_fee += amount */\n      tag_329\n      swap1\n        /* \"contracts/Arcade.sol\":6317:6323  amount */\n      dup5\n      swap1\n        /* \"contracts/Arcade.sol\":6370:6392  gi.total_fee += amount */\n      tag_328\n      jump\t// in\n    tag_329:\n      swap1\n      swap2\n      sstore\n      pop\n      pop\n        /* \"contracts/Arcade.sol\":6416:6445  Register(msg.sender, game_id) */\n      mload(0x40)\n        /* \"#utility.yul\":6307:6332   */\n      dup5\n      dup2\n      mstore\n        /* \"contracts/Arcade.sol\":6425:6435  msg.sender */\n      caller\n      swap1\n        /* \"contracts/Arcade.sol\":6416:6445  Register(msg.sender, game_id) */\n      0x7dc6ab80cc84c043b7b8d4fcafc802187470087f7ea7fccd2e17aecd0256a1\n      swap1\n        /* \"#utility.yul\":6295:6297   */\n      0x20\n        /* \"#utility.yul\":6280:6298   */\n      add\n        /* \"contracts/Arcade.sol\":6416:6445  Register(msg.sender, game_id) */\n      mload(0x40)\n      dup1\n      swap2\n      sub\n      swap1\n      log2\n        /* \"contracts/Arcade.sol\":6117:6452  function _register(uint256 game_id, address player_address, uint256 amount) internal {... */\n      pop\n      pop\n      pop\n      pop\n      jump\t// out\n        /* \"@openzeppelin/contracts@4.6.0/access/AccessControl.sol\":3718:4210  function _checkRole(bytes32 role, address account) internal view virtual {... */\n    tag_315:\n        /* \"@openzeppelin/contracts@4.6.0/access/AccessControl.sol\":3806:3828  hasRole(role, account) */\n      tag_332\n        /* \"@openzeppelin/contracts@4.6.0/access/AccessControl.sol\":3814:3818  role */\n      dup3\n        /* \"@openzeppelin/contracts@4.6.0/access/AccessControl.sol\":3820:3827  account */\n      dup3\n        /* \"@openzeppelin/contracts@4.6.0/access/AccessControl.sol\":3806:3813  hasRole */\n      tag_108\n        /* \"@openzeppelin/contracts@4.6.0/access/AccessControl.sol\":3806:3828  hasRole(role, account) */\n      jump\t// in\n    tag_332:\n        /* \"@openzeppelin/contracts@4.6.0/access/AccessControl.sol\":3801:4204  if (!hasRole(role, account)) {... */\n      tag_212\n      jumpi\n        /* \"@openzeppelin/contracts@4.6.0/access/AccessControl.sol\":3989:4030  Strings.toHexString(uint160(account), 20) */\n      tag_334\n        /* \"@openzeppelin/contracts@4.6.0/access/AccessControl.sol\":4017:4024  account */\n      dup2\n      sub(shl(0xa0, 0x01), 0x01)\n        /* \"@openzeppelin/contracts@4.6.0/access/AccessControl.sol\":3989:4030  Strings.toHexString(uint160(account), 20) */\n      and\n        /* \"@openzeppelin/contracts@4.6.0/access/AccessControl.sol\":4027:4029  20 */\n      0x14\n        /* \"@openzeppelin/contracts@4.6.0/access/AccessControl.sol\":3989:4008  Strings.toHexString */\n      tag_335\n        /* \"@openzeppelin/contracts@4.6.0/access/AccessControl.sol\":3989:4030  Strings.toHexString(uint160(account), 20) */\n      jump\t// in\n    tag_334:\n        /* \"@openzeppelin/contracts@4.6.0/access/AccessControl.sol\":4101:4139  Strings.toHexString(uint256(role), 32) */\n      tag_336\n        /* \"@openzeppelin/contracts@4.6.0/access/AccessControl.sol\":4129:4133  role */\n      dup4\n        /* \"@openzeppelin/contracts@4.6.0/access/AccessControl.sol\":4136:4138  32 */\n      0x20\n        /* \"@openzeppelin/contracts@4.6.0/access/AccessControl.sol\":4101:4120  Strings.toHexString */\n      tag_335\n        /* \"@openzeppelin/contracts@4.6.0/access/AccessControl.sol\":4101:4139  Strings.toHexString(uint256(role), 32) */\n      jump\t// in\n    tag_336:\n        /* \"@openzeppelin/contracts@4.6.0/access/AccessControl.sol\":3896:4161  abi.encodePacked(... */\n      add(0x20, mload(0x40))\n      tag_337\n      swap3\n      swap2\n      swap1\n      tag_338\n      jump\t// in\n    tag_337:\n      0x40\n      dup1\n      mload\n      not(0x1f)\n      dup2\n      dup5\n      sub\n      add\n      dup2\n      mstore\n      swap1\n      dup3\n      swap1\n      mstore\n      shl(0xe5, 0x461bcd)\n        /* \"@openzeppelin/contracts@4.6.0/access/AccessControl.sol\":3844:4193  revert(... */\n      dup3\n      mstore\n      tag_183\n      swap2\n      0x04\n      add\n      tag_340\n      jump\t// in\n        /* \"@openzeppelin/contracts@4.6.0/utils/Strings.sol\":1588:2029  function toHexString(uint256 value, uint256 length) internal pure returns (string memory) {... */\n    tag_335:\n        /* \"@openzeppelin/contracts@4.6.0/utils/Strings.sol\":1663:1676  string memory */\n      0x60\n        /* \"@openzeppelin/contracts@4.6.0/utils/Strings.sol\":1688:1707  bytes memory buffer */\n      0x00\n        /* \"@openzeppelin/contracts@4.6.0/utils/Strings.sol\":1720:1730  2 * length */\n      tag_342\n        /* \"@openzeppelin/contracts@4.6.0/utils/Strings.sol\":1724:1730  length */\n      dup4\n        /* \"@openzeppelin/contracts@4.6.0/utils/Strings.sol\":1720:1721  2 */\n      0x02\n        /* \"@openzeppelin/contracts@4.6.0/utils/Strings.sol\":1720:1730  2 * length */\n      tag_250\n      jump\t// in\n    tag_342:\n        /* \"@openzeppelin/contracts@4.6.0/utils/Strings.sol\":1720:1734  2 * length + 2 */\n      tag_343\n      swap1\n        /* \"@openzeppelin/contracts@4.6.0/utils/Strings.sol\":1733:1734  2 */\n      0x02\n        /* \"@openzeppelin/contracts@4.6.0/utils/Strings.sol\":1720:1734  2 * length + 2 */\n      tag_328\n      jump\t// in\n    tag_343:\n        /* \"@openzeppelin/contracts@4.6.0/utils/Strings.sol\":1710:1735  new bytes(2 * length + 2) */\n      0xffffffffffffffff\n      dup2\n      gt\n      iszero\n      tag_344\n      jumpi\n      mstore(0x00, shl(0xe0, 0x4e487b71))\n      mstore(0x04, 0x41)\n      revert(0x00, 0x24)\n    tag_344:\n      mload(0x40)\n      swap1\n      dup1\n      dup3\n      mstore\n      dup1\n      0x1f\n      add\n      not(0x1f)\n      and\n      0x20\n      add\n      dup3\n      add\n      0x40\n      mstore\n      dup1\n      iszero\n      tag_345\n      jumpi\n      0x20\n      dup3\n      add\n      dup2\n      dup1\n      calldatasize\n      dup4\n      calldatacopy\n      add\n      swap1\n      pop\n    tag_345:\n      pop\n        /* \"@openzeppelin/contracts@4.6.0/utils/Strings.sol\":1688:1735  bytes memory buffer = new bytes(2 * length + 2) */\n      swap1\n      pop\n      shl(0xfc, 0x03)\n        /* \"@openzeppelin/contracts@4.6.0/utils/Strings.sol\":1745:1751  buffer */\n      dup2\n        /* \"@openzeppelin/contracts@4.6.0/utils/Strings.sol\":1752:1753  0 */\n      0x00\n        /* \"@openzeppelin/contracts@4.6.0/utils/Strings.sol\":1745:1754  buffer[0] */\n      dup2\n      mload\n      dup2\n      lt\n      tag_346\n      jumpi\n      mstore(0x00, shl(0xe0, 0x4e487b71))\n      mstore(0x04, 0x32)\n      revert(0x00, 0x24)\n    tag_346:\n      0x20\n      add\n      add\n        /* \"@openzeppelin/contracts@4.6.0/utils/Strings.sol\":1745:1760  buffer[0] = \"0\" */\n      swap1\n      not(sub(shl(0xf8, 0x01), 0x01))\n      and\n      swap1\n      dup2\n      0x00\n      byte\n      swap1\n      mstore8\n      pop\n      shl(0xfb, 0x0f)\n        /* \"@openzeppelin/contracts@4.6.0/utils/Strings.sol\":1770:1776  buffer */\n      dup2\n        /* \"@openzeppelin/contracts@4.6.0/utils/Strings.sol\":1777:1778  1 */\n      0x01\n        /* \"@openzeppelin/contracts@4.6.0/utils/Strings.sol\":1770:1779  buffer[1] */\n      dup2\n      mload\n      dup2\n      lt\n      tag_347\n      jumpi\n      mstore(0x00, shl(0xe0, 0x4e487b71))\n      mstore(0x04, 0x32)\n      revert(0x00, 0x24)\n    tag_347:\n      0x20\n      add\n      add\n        /* \"@openzeppelin/contracts@4.6.0/utils/Strings.sol\":1770:1785  buffer[1] = \"x\" */\n      swap1\n      not(sub(shl(0xf8, 0x01), 0x01))\n      and\n      swap1\n      dup2\n      0x00\n      byte\n      swap1\n      mstore8\n      pop\n        /* \"@openzeppelin/contracts@4.6.0/utils/Strings.sol\":1800:1809  uint256 i */\n      0x00\n        /* \"@openzeppelin/contracts@4.6.0/utils/Strings.sol\":1812:1822  2 * length */\n      tag_351\n        /* \"@openzeppelin/contracts@4.6.0/utils/Strings.sol\":1816:1822  length */\n      dup5\n        /* \"@openzeppelin/contracts@4.6.0/utils/Strings.sol\":1812:1813  2 */\n      0x02\n        /* \"@openzeppelin/contracts@4.6.0/utils/Strings.sol\":1812:1822  2 * length */\n      tag_250\n      jump\t// in\n    tag_351:\n        /* \"@openzeppelin/contracts@4.6.0/utils/Strings.sol\":1812:1826  2 * length + 1 */\n      tag_352\n      swap1\n        /* \"@openzeppelin/contracts@4.6.0/utils/Strings.sol\":1825:1826  1 */\n      0x01\n        /* \"@openzeppelin/contracts@4.6.0/utils/Strings.sol\":1812:1826  2 * length + 1 */\n      tag_328\n      jump\t// in\n    tag_352:\n        /* \"@openzeppelin/contracts@4.6.0/utils/Strings.sol\":1800:1826  uint256 i = 2 * length + 1 */\n      swap1\n      pop\n        /* \"@openzeppelin/contracts@4.6.0/utils/Strings.sol\":1795:1927  for (uint256 i = 2 * length + 1; i > 1; --i) {... */\n    tag_348:\n        /* \"@openzeppelin/contracts@4.6.0/utils/Strings.sol\":1832:1833  1 */\n      0x01\n        /* \"@openzeppelin/contracts@4.6.0/utils/Strings.sol\":1828:1829  i */\n      dup2\n        /* \"@openzeppelin/contracts@4.6.0/utils/Strings.sol\":1828:1833  i > 1 */\n      gt\n        /* \"@openzeppelin/contracts@4.6.0/utils/Strings.sol\":1795:1927  for (uint256 i = 2 * length + 1; i > 1; --i) {... */\n      iszero\n      tag_349\n      jumpi\n      shl(0x81, 0x181899199a1a9b1b9c1cb0b131b232b3)\n        /* \"@openzeppelin/contracts@4.6.0/utils/Strings.sol\":1879:1884  value */\n      dup6\n        /* \"@openzeppelin/contracts@4.6.0/utils/Strings.sol\":1887:1890  0xf */\n      0x0f\n        /* \"@openzeppelin/contracts@4.6.0/utils/Strings.sol\":1879:1890  value & 0xf */\n      and\n        /* \"@openzeppelin/contracts@4.6.0/utils/Strings.sol\":1866:1891  _HEX_SYMBOLS[value & 0xf] */\n      0x10\n      dup2\n      lt\n      tag_353\n      jumpi\n      mstore(0x00, shl(0xe0, 0x4e487b71))\n      mstore(0x04, 0x32)\n      revert(0x00, 0x24)\n    tag_353:\n      byte\n      0xf8\n      shl\n        /* \"@openzeppelin/contracts@4.6.0/utils/Strings.sol\":1854:1860  buffer */\n      dup3\n        /* \"@openzeppelin/contracts@4.6.0/utils/Strings.sol\":1861:1862  i */\n      dup3\n        /* \"@openzeppelin/contracts@4.6.0/utils/Strings.sol\":1854:1863  buffer[i] */\n      dup2\n      mload\n      dup2\n      lt\n      tag_354\n      jumpi\n      mstore(0x00, shl(0xe0, 0x4e487b71))\n      mstore(0x04, 0x32)\n      revert(0x00, 0x24)\n    tag_354:\n      0x20\n      add\n      add\n        /* \"@openzeppelin/contracts@4.6.0/utils/Strings.sol\":1854:1891  buffer[i] = _HEX_SYMBOLS[value & 0xf] */\n      swap1\n      not(sub(shl(0xf8, 0x01), 0x01))\n      and\n      swap1\n      dup2\n      0x00\n      byte\n      swap1\n      mstore8\n      pop\n        /* \"@openzeppelin/contracts@4.6.0/utils/Strings.sol\":1915:1916  4 */\n      0x04\n        /* \"@openzeppelin/contracts@4.6.0/utils/Strings.sol\":1905:1916  value >>= 4 */\n      swap5\n      swap1\n      swap5\n      shr\n      swap4\n        /* \"@openzeppelin/contracts@4.6.0/utils/Strings.sol\":1835:1838  --i */\n      tag_355\n      dup2\n      tag_356\n      jump\t// in\n    tag_355:\n      swap1\n      pop\n        /* \"@openzeppelin/contracts@4.6.0/utils/Strings.sol\":1795:1927  for (uint256 i = 2 * length + 1; i > 1; --i) {... */\n      jump(tag_348)\n    tag_349:\n      pop\n        /* \"@openzeppelin/contracts@4.6.0/utils/Strings.sol\":1944:1954  value == 0 */\n      dup4\n      iszero\n        /* \"@openzeppelin/contracts@4.6.0/utils/Strings.sol\":1936:1991  require(value == 0, \"Strings: hex length insufficient\") */\n      tag_357\n      jumpi\n      mload(0x40)\n      shl(0xe5, 0x461bcd)\n      dup2\n      mstore\n        /* \"#utility.yul\":7308:7310   */\n      0x20\n        /* \"@openzeppelin/contracts@4.6.0/utils/Strings.sol\":1936:1991  require(value == 0, \"Strings: hex length insufficient\") */\n      0x04\n      dup3\n      add\n        /* \"#utility.yul\":7290:7311   */\n      dup2\n      swap1\n      mstore\n        /* \"#utility.yul\":7327:7345   */\n      0x24\n      dup3\n      add\n        /* \"#utility.yul\":7320:7350   */\n      mstore\n        /* \"#utility.yul\":7386:7420   */\n      0x537472696e67733a20686578206c656e67746820696e73756666696369656e74\n        /* \"#utility.yul\":7366:7384   */\n      0x44\n      dup3\n      add\n        /* \"#utility.yul\":7359:7421   */\n      mstore\n        /* \"#utility.yul\":7438:7456   */\n      0x64\n      add\n        /* \"@openzeppelin/contracts@4.6.0/utils/Strings.sol\":1936:1991  require(value == 0, \"Strings: hex length insufficient\") */\n      tag_183\n        /* \"#utility.yul\":7280:7462   */\n      jump\n        /* \"@openzeppelin/contracts@4.6.0/utils/Strings.sol\":1936:1991  require(value == 0, \"Strings: hex length insufficient\") */\n    tag_357:\n        /* \"@openzeppelin/contracts@4.6.0/utils/Strings.sol\":2015:2021  buffer */\n      swap4\n        /* \"@openzeppelin/contracts@4.6.0/utils/Strings.sol\":1588:2029  function toHexString(uint256 value, uint256 length) internal pure returns (string memory) {... */\n      swap3\n      pop\n      pop\n      pop\n      jump\t// out\n        /* \"#utility.yul\":14:187   */\n    tag_361:\n        /* \"#utility.yul\":82:102   */\n      dup1\n      calldataload\n      sub(shl(0xa0, 0x01), 0x01)\n        /* \"#utility.yul\":131:162   */\n      dup2\n      and\n        /* \"#utility.yul\":121:163   */\n      dup2\n      eq\n        /* \"#utility.yul\":111:113   */\n      tag_363\n      jumpi\n        /* \"#utility.yul\":177:178   */\n      0x00\n        /* \"#utility.yul\":174:175   */\n      dup1\n        /* \"#utility.yul\":167:179   */\n      revert\n        /* \"#utility.yul\":111:113   */\n    tag_363:\n        /* \"#utility.yul\":63:187   */\n      swap2\n      swap1\n      pop\n      jump\t// out\n        /* \"#utility.yul\":192:388   */\n    tag_56:\n        /* \"#utility.yul\":251:257   */\n      0x00\n        /* \"#utility.yul\":304:306   */\n      0x20\n        /* \"#utility.yul\":292:301   */\n      dup3\n        /* \"#utility.yul\":283:290   */\n      dup5\n        /* \"#utility.yul\":279:302   */\n      sub\n        /* \"#utility.yul\":275:307   */\n      slt\n        /* \"#utility.yul\":272:274   */\n      iszero\n      tag_365\n      jumpi\n        /* \"#utility.yul\":325:331   */\n      dup1\n        /* \"#utility.yul\":317:323   */\n      dup2\n        /* \"#utility.yul\":310:332   */\n      revert\n        /* \"#utility.yul\":272:274   */\n    tag_365:\n        /* \"#utility.yul\":353:382   */\n      tag_357\n        /* \"#utility.yul\":372:381   */\n      dup3\n        /* \"#utility.yul\":353:382   */\n      tag_361\n      jump\t// in\n        /* \"#utility.yul\":393:786   */\n    tag_52:\n        /* \"#utility.yul\":467:473   */\n      0x00\n        /* \"#utility.yul\":475:481   */\n      dup1\n        /* \"#utility.yul\":483:489   */\n      0x00\n        /* \"#utility.yul\":536:538   */\n      0x60\n        /* \"#utility.yul\":524:533   */\n      dup5\n        /* \"#utility.yul\":515:522   */\n      dup7\n        /* \"#utility.yul\":511:534   */\n      sub\n        /* \"#utility.yul\":507:539   */\n      slt\n        /* \"#utility.yul\":504:506   */\n      iszero\n      tag_368\n      jumpi\n        /* \"#utility.yul\":557:563   */\n      dup2\n        /* \"#utility.yul\":549:555   */\n      dup3\n        /* \"#utility.yul\":542:564   */\n      revert\n        /* \"#utility.yul\":504:506   */\n    tag_368:\n        /* \"#utility.yul\":585:614   */\n      tag_369\n        /* \"#utility.yul\":604:613   */\n      dup5\n        /* \"#utility.yul\":585:614   */\n      tag_361\n      jump\t// in\n    tag_369:\n        /* \"#utility.yul\":575:614   */\n      swap3\n      pop\n        /* \"#utility.yul\":661:663   */\n      0x20\n        /* \"#utility.yul\":650:659   */\n      dup5\n        /* \"#utility.yul\":646:664   */\n      add\n        /* \"#utility.yul\":633:665   */\n      calldataload\n        /* \"#utility.yul\":623:665   */\n      swap2\n      pop\n        /* \"#utility.yul\":715:717   */\n      0x40\n        /* \"#utility.yul\":704:713   */\n      dup5\n        /* \"#utility.yul\":700:718   */\n      add\n        /* \"#utility.yul\":687:719   */\n      calldataload\n        /* \"#utility.yul\":728:756   */\n      tag_370\n        /* \"#utility.yul\":750:755   */\n      dup2\n        /* \"#utility.yul\":728:756   */\n      tag_371\n      jump\t// in\n    tag_370:\n        /* \"#utility.yul\":775:780   */\n      dup1\n        /* \"#utility.yul\":765:780   */\n      swap2\n      pop\n      pop\n        /* \"#utility.yul\":494:786   */\n      swap3\n      pop\n      swap3\n      pop\n      swap3\n      jump\t// out\n        /* \"#utility.yul\":791:1046   */\n    tag_172:\n        /* \"#utility.yul\":858:864   */\n      0x00\n        /* \"#utility.yul\":911:913   */\n      0x20\n        /* \"#utility.yul\":899:908   */\n      dup3\n        /* \"#utility.yul\":890:897   */\n      dup5\n        /* \"#utility.yul\":886:909   */\n      sub\n        /* \"#utility.yul\":882:914   */\n      slt\n        /* \"#utility.yul\":879:881   */\n      iszero\n      tag_373\n      jumpi\n        /* \"#utility.yul\":932:938   */\n      dup1\n        /* \"#utility.yul\":924:930   */\n      dup2\n        /* \"#utility.yul\":917:939   */\n      revert\n        /* \"#utility.yul\":879:881   */\n    tag_373:\n        /* \"#utility.yul\":969:978   */\n      dup2\n        /* \"#utility.yul\":963:979   */\n      mload\n        /* \"#utility.yul\":988:1016   */\n      tag_357\n        /* \"#utility.yul\":1010:1015   */\n      dup2\n        /* \"#utility.yul\":988:1016   */\n      tag_371\n      jump\t// in\n        /* \"#utility.yul\":1051:1241   */\n    tag_63:\n        /* \"#utility.yul\":1110:1116   */\n      0x00\n        /* \"#utility.yul\":1163:1165   */\n      0x20\n        /* \"#utility.yul\":1151:1160   */\n      dup3\n        /* \"#utility.yul\":1142:1149   */\n      dup5\n        /* \"#utility.yul\":1138:1161   */\n      sub\n        /* \"#utility.yul\":1134:1166   */\n      slt\n        /* \"#utility.yul\":1131:1133   */\n      iszero\n      tag_376\n      jumpi\n        /* \"#utility.yul\":1184:1190   */\n      dup1\n        /* \"#utility.yul\":1176:1182   */\n      dup2\n        /* \"#utility.yul\":1169:1191   */\n      revert\n        /* \"#utility.yul\":1131:1133   */\n    tag_376:\n      pop\n        /* \"#utility.yul\":1212:1235   */\n      calldataload\n      swap2\n        /* \"#utility.yul\":1121:1241   */\n      swap1\n      pop\n      jump\t// out\n        /* \"#utility.yul\":1246:1510   */\n    tag_79:\n        /* \"#utility.yul\":1314:1320   */\n      0x00\n        /* \"#utility.yul\":1322:1328   */\n      dup1\n        /* \"#utility.yul\":1375:1377   */\n      0x40\n        /* \"#utility.yul\":1363:1372   */\n      dup4\n        /* \"#utility.yul\":1354:1361   */\n      dup6\n        /* \"#utility.yul\":1350:1373   */\n      sub\n        /* \"#utility.yul\":1346:1378   */\n      slt\n        /* \"#utility.yul\":1343:1345   */\n      iszero\n      tag_378\n      jumpi\n        /* \"#utility.yul\":1396:1402   */\n      dup2\n        /* \"#utility.yul\":1388:1394   */\n      dup3\n        /* \"#utility.yul\":1381:1403   */\n      revert\n        /* \"#utility.yul\":1343:1345   */\n    tag_378:\n        /* \"#utility.yul\":1437:1446   */\n      dup3\n        /* \"#utility.yul\":1424:1447   */\n      calldataload\n        /* \"#utility.yul\":1414:1447   */\n      swap2\n      pop\n        /* \"#utility.yul\":1466:1504   */\n      tag_379\n        /* \"#utility.yul\":1500:1502   */\n      0x20\n        /* \"#utility.yul\":1489:1498   */\n      dup5\n        /* \"#utility.yul\":1485:1503   */\n      add\n        /* \"#utility.yul\":1466:1504   */\n      tag_361\n      jump\t// in\n    tag_379:\n        /* \"#utility.yul\":1456:1504   */\n      swap1\n      pop\n        /* \"#utility.yul\":1333:1510   */\n      swap3\n      pop\n      swap3\n      swap1\n      pop\n      jump\t// out\n        /* \"#utility.yul\":1515:1821   */\n    tag_46:\n        /* \"#utility.yul\":1573:1579   */\n      0x00\n        /* \"#utility.yul\":1626:1628   */\n      0x20\n        /* \"#utility.yul\":1614:1623   */\n      dup3\n        /* \"#utility.yul\":1605:1612   */\n      dup5\n        /* \"#utility.yul\":1601:1624   */\n      sub\n        /* \"#utility.yul\":1597:1629   */\n      slt\n        /* \"#utility.yul\":1594:1596   */\n      iszero\n      tag_381\n      jumpi\n        /* \"#utility.yul\":1647:1653   */\n      dup1\n        /* \"#utility.yul\":1639:1645   */\n      dup2\n        /* \"#utility.yul\":1632:1654   */\n      revert\n        /* \"#utility.yul\":1594:1596   */\n    tag_381:\n        /* \"#utility.yul\":1678:1701   */\n      dup2\n      calldataload\n      not(sub(shl(0xe0, 0x01), 0x01))\n        /* \"#utility.yul\":1730:1762   */\n      dup2\n      and\n        /* \"#utility.yul\":1720:1763   */\n      dup2\n      eq\n        /* \"#utility.yul\":1710:1712   */\n      tag_357\n      jumpi\n        /* \"#utility.yul\":1782:1788   */\n      dup2\n        /* \"#utility.yul\":1774:1780   */\n      dup3\n        /* \"#utility.yul\":1767:1789   */\n      revert\n        /* \"#utility.yul\":2290:2821   */\n    tag_147:\n        /* \"#utility.yul\":2382:2388   */\n      0x00\n        /* \"#utility.yul\":2390:2396   */\n      dup1\n        /* \"#utility.yul\":2398:2404   */\n      0x00\n        /* \"#utility.yul\":2406:2412   */\n      dup1\n        /* \"#utility.yul\":2414:2420   */\n      0x00\n        /* \"#utility.yul\":2467:2470   */\n      0xa0\n        /* \"#utility.yul\":2455:2464   */\n      dup7\n        /* \"#utility.yul\":2446:2453   */\n      dup9\n        /* \"#utility.yul\":2442:2465   */\n      sub\n        /* \"#utility.yul\":2438:2471   */\n      slt\n        /* \"#utility.yul\":2435:2437   */\n      iszero\n      tag_389\n      jumpi\n        /* \"#utility.yul\":2489:2495   */\n      dup1\n        /* \"#utility.yul\":2481:2487   */\n      dup2\n        /* \"#utility.yul\":2474:2496   */\n      revert\n        /* \"#utility.yul\":2435:2437   */\n    tag_389:\n        /* \"#utility.yul\":2530:2539   */\n      dup6\n        /* \"#utility.yul\":2517:2540   */\n      calldataload\n        /* \"#utility.yul\":2507:2540   */\n      swap5\n      pop\n        /* \"#utility.yul\":2587:2589   */\n      0x20\n        /* \"#utility.yul\":2576:2585   */\n      dup7\n        /* \"#utility.yul\":2572:2590   */\n      add\n        /* \"#utility.yul\":2559:2591   */\n      calldataload\n        /* \"#utility.yul\":2549:2591   */\n      swap4\n      pop\n        /* \"#utility.yul\":2610:2648   */\n      tag_390\n        /* \"#utility.yul\":2644:2646   */\n      0x40\n        /* \"#utility.yul\":2633:2642   */\n      dup8\n        /* \"#utility.yul\":2629:2647   */\n      add\n        /* \"#utility.yul\":2610:2648   */\n      tag_361\n      jump\t// in\n    tag_390:\n        /* \"#utility.yul\":2600:2648   */\n      swap3\n      pop\n        /* \"#utility.yul\":2695:2697   */\n      0x60\n        /* \"#utility.yul\":2684:2693   */\n      dup7\n        /* \"#utility.yul\":2680:2698   */\n      add\n        /* \"#utility.yul\":2667:2699   */\n      calldataload\n        /* \"#utility.yul\":2657:2699   */\n      swap2\n      pop\n        /* \"#utility.yul\":2749:2752   */\n      0x80\n        /* \"#utility.yul\":2738:2747   */\n      dup7\n        /* \"#utility.yul\":2734:2753   */\n      add\n        /* \"#utility.yul\":2721:2754   */\n      calldataload\n        /* \"#utility.yul\":2763:2791   */\n      tag_391\n        /* \"#utility.yul\":2785:2790   */\n      dup2\n        /* \"#utility.yul\":2763:2791   */\n      tag_371\n      jump\t// in\n    tag_391:\n        /* \"#utility.yul\":2810:2815   */\n      dup1\n        /* \"#utility.yul\":2800:2815   */\n      swap2\n      pop\n      pop\n        /* \"#utility.yul\":2425:2821   */\n      swap3\n      swap6\n      pop\n      swap3\n      swap6\n      swap1\n      swap4\n      pop\n      jump\t// out\n        /* \"#utility.yul\":3036:3822   */\n    tag_338:\n        /* \"#utility.yul\":3447:3472   */\n      0x416363657373436f6e74726f6c3a206163636f756e7420000000000000000000\n        /* \"#utility.yul\":3442:3445   */\n      dup2\n        /* \"#utility.yul\":3435:3473   */\n      mstore\n        /* \"#utility.yul\":3417:3420   */\n      0x00\n        /* \"#utility.yul\":3502:3508   */\n      dup4\n        /* \"#utility.yul\":3496:3509   */\n      mload\n        /* \"#utility.yul\":3518:3580   */\n      tag_394\n        /* \"#utility.yul\":3573:3579   */\n      dup2\n        /* \"#utility.yul\":3568:3570   */\n      0x17\n        /* \"#utility.yul\":3563:3566   */\n      dup6\n        /* \"#utility.yul\":3559:3571   */\n      add\n        /* \"#utility.yul\":3552:3556   */\n      0x20\n        /* \"#utility.yul\":3544:3550   */\n      dup9\n        /* \"#utility.yul\":3540:3557   */\n      add\n        /* \"#utility.yul\":3518:3580   */\n      tag_395\n      jump\t// in\n    tag_394:\n      shl(0x7d, 0x01034b99036b4b9b9b4b733903937b6329)\n        /* \"#utility.yul\":3639:3641   */\n      0x17\n        /* \"#utility.yul\":3599:3615   */\n      swap2\n      dup5\n      add\n        /* \"#utility.yul\":3631:3642   */\n      swap2\n      dup3\n      add\n        /* \"#utility.yul\":3624:3664   */\n      mstore\n        /* \"#utility.yul\":3689:3702   */\n      dup4\n      mload\n        /* \"#utility.yul\":3711:3774   */\n      tag_396\n        /* \"#utility.yul\":3689:3702   */\n      dup2\n        /* \"#utility.yul\":3760:3762   */\n      0x28\n        /* \"#utility.yul\":3752:3763   */\n      dup5\n      add\n        /* \"#utility.yul\":3745:3749   */\n      0x20\n        /* \"#utility.yul\":3733:3750   */\n      dup9\n      add\n        /* \"#utility.yul\":3711:3774   */\n      tag_395\n      jump\t// in\n    tag_396:\n        /* \"#utility.yul\":3794:3811   */\n      add\n        /* \"#utility.yul\":3813:3815   */\n      0x28\n        /* \"#utility.yul\":3790:3816   */\n      add\n      swap5\n        /* \"#utility.yul\":3425:3822   */\n      swap4\n      pop\n      pop\n      pop\n      pop\n      jump\t// out\n        /* \"#utility.yul\":6718:7101   */\n    tag_340:\n        /* \"#utility.yul\":6867:6869   */\n      0x20\n        /* \"#utility.yul\":6856:6865   */\n      dup2\n        /* \"#utility.yul\":6849:6870   */\n      mstore\n        /* \"#utility.yul\":6830:6834   */\n      0x00\n        /* \"#utility.yul\":6899:6905   */\n      dup3\n        /* \"#utility.yul\":6893:6906   */\n      mload\n        /* \"#utility.yul\":6942:6948   */\n      dup1\n        /* \"#utility.yul\":6937:6939   */\n      0x20\n        /* \"#utility.yul\":6926:6935   */\n      dup5\n        /* \"#utility.yul\":6922:6940   */\n      add\n        /* \"#utility.yul\":6915:6949   */\n      mstore\n        /* \"#utility.yul\":6958:7024   */\n      tag_407\n        /* \"#utility.yul\":7017:7023   */\n      dup2\n        /* \"#utility.yul\":7012:7014   */\n      0x40\n        /* \"#utility.yul\":7001:7010   */\n      dup6\n        /* \"#utility.yul\":6997:7015   */\n      add\n        /* \"#utility.yul\":6992:6994   */\n      0x20\n        /* \"#utility.yul\":6984:6990   */\n      dup8\n        /* \"#utility.yul\":6980:6995   */\n      add\n        /* \"#utility.yul\":6958:7024   */\n      tag_395\n      jump\t// in\n    tag_407:\n        /* \"#utility.yul\":7085:7087   */\n      0x1f\n        /* \"#utility.yul\":7064:7079   */\n      add\n      not(0x1f)\n        /* \"#utility.yul\":7060:7089   */\n      and\n        /* \"#utility.yul\":7045:7090   */\n      swap2\n      swap1\n      swap2\n      add\n        /* \"#utility.yul\":7092:7094   */\n      0x40\n        /* \"#utility.yul\":7041:7095   */\n      add\n      swap3\n        /* \"#utility.yul\":6839:7101   */\n      swap2\n      pop\n      pop\n      jump\t// out\n        /* \"#utility.yul\":9476:9879   */\n    tag_184:\n        /* \"#utility.yul\":9678:9680   */\n      0x20\n        /* \"#utility.yul\":9660:9681   */\n      dup1\n      dup3\n      mstore\n        /* \"#utility.yul\":9717:9719   */\n      0x27\n        /* \"#utility.yul\":9697:9715   */\n      swap1\n      dup3\n      add\n        /* \"#utility.yul\":9690:9720   */\n      mstore\n        /* \"#utility.yul\":9756:9790   */\n      0x54726f706879204b696e67204172636164653a20556e61626c6520746f207472\n        /* \"#utility.yul\":9751:9753   */\n      0x40\n        /* \"#utility.yul\":9736:9754   */\n      dup3\n      add\n        /* \"#utility.yul\":9729:9791   */\n      mstore\n      shl(0xc9, 0x30b739b332b917)\n        /* \"#utility.yul\":9822:9824   */\n      0x60\n        /* \"#utility.yul\":9807:9825   */\n      dup3\n      add\n        /* \"#utility.yul\":9800:9837   */\n      mstore\n        /* \"#utility.yul\":9869:9872   */\n      0x80\n        /* \"#utility.yul\":9854:9873   */\n      add\n      swap1\n        /* \"#utility.yul\":9650:9879   */\n      jump\t// out\n        /* \"#utility.yul\":12870:12998   */\n    tag_328:\n        /* \"#utility.yul\":12910:12913   */\n      0x00\n        /* \"#utility.yul\":12941:12942   */\n      dup3\n        /* \"#utility.yul\":12937:12943   */\n      not\n        /* \"#utility.yul\":12934:12935   */\n      dup3\n        /* \"#utility.yul\":12931:12944   */\n      gt\n        /* \"#utility.yul\":12928:12930   */\n      iszero\n      tag_425\n      jumpi\n        /* \"#utility.yul\":12947:12965   */\n      tag_425\n      tag_426\n      jump\t// in\n    tag_425:\n      pop\n        /* \"#utility.yul\":12983:12992   */\n      add\n      swap1\n        /* \"#utility.yul\":12918:12998   */\n      jump\t// out\n        /* \"#utility.yul\":13003:13220   */\n    tag_252:\n        /* \"#utility.yul\":13043:13044   */\n      0x00\n        /* \"#utility.yul\":13069:13070   */\n      dup3\n        /* \"#utility.yul\":13059:13061   */\n      tag_428\n      jumpi\n      shl(0xe0, 0x4e487b71)\n        /* \"#utility.yul\":13094:13125   */\n      dup2\n      mstore\n        /* \"#utility.yul\":13148:13152   */\n      0x12\n        /* \"#utility.yul\":13145:13146   */\n      0x04\n        /* \"#utility.yul\":13138:13153   */\n      mstore\n        /* \"#utility.yul\":13176:13180   */\n      0x24\n        /* \"#utility.yul\":13101:13102   */\n      dup2\n        /* \"#utility.yul\":13166:13181   */\n      revert\n        /* \"#utility.yul\":13059:13061   */\n    tag_428:\n      pop\n        /* \"#utility.yul\":13205:13214   */\n      div\n      swap1\n        /* \"#utility.yul\":13049:13220   */\n      jump\t// out\n        /* \"#utility.yul\":13225:13393   */\n    tag_250:\n        /* \"#utility.yul\":13265:13272   */\n      0x00\n        /* \"#utility.yul\":13331:13332   */\n      dup2\n        /* \"#utility.yul\":13327:13328   */\n      0x00\n        /* \"#utility.yul\":13323:13329   */\n      not\n        /* \"#utility.yul\":13319:13333   */\n      div\n        /* \"#utility.yul\":13316:13317   */\n      dup4\n        /* \"#utility.yul\":13313:13334   */\n      gt\n        /* \"#utility.yul\":13308:13309   */\n      dup3\n        /* \"#utility.yul\":13301:13310   */\n      iszero\n        /* \"#utility.yul\":13294:13311   */\n      iszero\n        /* \"#utility.yul\":13290:13335   */\n      and\n        /* \"#utility.yul\":13287:13289   */\n      iszero\n      tag_431\n      jumpi\n        /* \"#utility.yul\":13338:13356   */\n      tag_431\n      tag_426\n      jump\t// in\n    tag_431:\n      pop\n        /* \"#utility.yul\":13378:13387   */\n      mul\n      swap1\n        /* \"#utility.yul\":13277:13393   */\n      jump\t// out\n        /* \"#utility.yul\":13398:13523   */\n    tag_238:\n        /* \"#utility.yul\":13438:13442   */\n      0x00\n        /* \"#utility.yul\":13466:13467   */\n      dup3\n        /* \"#utility.yul\":13463:13464   */\n      dup3\n        /* \"#utility.yul\":13460:13468   */\n      lt\n        /* \"#utility.yul\":13457:13459   */\n      iszero\n      tag_434\n      jumpi\n        /* \"#utility.yul\":13471:13489   */\n      tag_434\n      tag_426\n      jump\t// in\n    tag_434:\n      pop\n        /* \"#utility.yul\":13508:13517   */\n      sub\n      swap1\n        /* \"#utility.yul\":13447:13523   */\n      jump\t// out\n        /* \"#utility.yul\":13528:13786   */\n    tag_395:\n        /* \"#utility.yul\":13600:13601   */\n      0x00\n        /* \"#utility.yul\":13610:13723   */\n    tag_436:\n        /* \"#utility.yul\":13624:13630   */\n      dup4\n        /* \"#utility.yul\":13621:13622   */\n      dup2\n        /* \"#utility.yul\":13618:13631   */\n      lt\n        /* \"#utility.yul\":13610:13723   */\n      iszero\n      tag_438\n      jumpi\n        /* \"#utility.yul\":13700:13711   */\n      dup2\n      dup2\n      add\n        /* \"#utility.yul\":13694:13712   */\n      mload\n        /* \"#utility.yul\":13681:13692   */\n      dup4\n      dup3\n      add\n        /* \"#utility.yul\":13674:13713   */\n      mstore\n        /* \"#utility.yul\":13646:13648   */\n      0x20\n        /* \"#utility.yul\":13639:13649   */\n      add\n        /* \"#utility.yul\":13610:13723   */\n      jump(tag_436)\n    tag_438:\n        /* \"#utility.yul\":13741:13747   */\n      dup4\n        /* \"#utility.yul\":13738:13739   */\n      dup2\n        /* \"#utility.yul\":13735:13748   */\n      gt\n        /* \"#utility.yul\":13732:13734   */\n      iszero\n      tag_182\n      jumpi\n      pop\n      pop\n        /* \"#utility.yul\":13776:13777   */\n      0x00\n        /* \"#utility.yul\":13758:13774   */\n      swap2\n      add\n        /* \"#utility.yul\":13751:13778   */\n      mstore\n        /* \"#utility.yul\":13581:13786   */\n      jump\t// out\n        /* \"#utility.yul\":13791:13927   */\n    tag_356:\n        /* \"#utility.yul\":13830:13833   */\n      0x00\n        /* \"#utility.yul\":13858:13863   */\n      dup2\n        /* \"#utility.yul\":13848:13850   */\n      tag_442\n      jumpi\n        /* \"#utility.yul\":13867:13885   */\n      tag_442\n      tag_426\n      jump\t// in\n    tag_442:\n      pop\n      not(0x00)\n        /* \"#utility.yul\":13903:13921   */\n      add\n      swap1\n        /* \"#utility.yul\":13838:13927   */\n      jump\t// out\n        /* \"#utility.yul\":13932:14059   */\n    tag_426:\n        /* \"#utility.yul\":13993:14003   */\n      0x4e487b71\n        /* \"#utility.yul\":13988:13991   */\n      0xe0\n        /* \"#utility.yul\":13984:14004   */\n      shl\n        /* \"#utility.yul\":13981:13982   */\n      0x00\n        /* \"#utility.yul\":13974:14005   */\n      mstore\n        /* \"#utility.yul\":14024:14028   */\n      0x11\n        /* \"#utility.yul\":14021:14022   */\n      0x04\n        /* \"#utility.yul\":14014:14029   */\n      mstore\n        /* \"#utility.yul\":14048:14052   */\n      0x24\n        /* \"#utility.yul\":14045:14046   */\n      0x00\n        /* \"#utility.yul\":14038:14053   */\n      revert\n        /* \"#utility.yul\":14064:14182   */\n    tag_371:\n        /* \"#utility.yul\":14150:14155   */\n      dup1\n        /* \"#utility.yul\":14143:14156   */\n      iszero\n        /* \"#utility.yul\":14136:14157   */\n      iszero\n        /* \"#utility.yul\":14129:14134   */\n      dup2\n        /* \"#utility.yul\":14126:14158   */\n      eq\n        /* \"#utility.yul\":14116:14118   */\n      tag_303\n      jumpi\n        /* \"#utility.yul\":14172:14173   */\n      0x00\n        /* \"#utility.yul\":14169:14170   */\n      dup1\n        /* \"#utility.yul\":14162:14174   */\n      revert\n\n    auxdata: 0xa26469706673582212208564532c308c96978e015f4f36a7e5a5b571f7337b9058c15915c0356a64f38464736f6c63430008040033\n}\n",
				"bytecode": {
					"linkReferences": {},
					"object": "6080604052601260038190556200001890600a620000a6565b6005553480156200002857600080fd5b5060078054336001600160a01b0319918216811790925567016345785d8a000060045560068054909116909117905562000187565b600181815b808511156200009e57816000190482111562000082576200008262000171565b808516156200009057918102915b93841c939080029062000062565b509250929050565b6000620000b48383620000bb565b9392505050565b600082620000cc575060016200016b565b81620000db575060006200016b565b8160018114620000f45760028114620000ff576200011f565b60019150506200016b565b60ff84111562000113576200011362000171565b50506001821b6200016b565b5060208310610133831016604e8410600b841016171562000144575081810a6200016b565b6200015083836200005d565b806000190482111562000167576200016762000171565b0290505b92915050565b634e487b7160e01b600052601160045260246000fd5b611b5e80620001976000396000f3fe608060405234801561001057600080fd5b50600436106101d95760003560e01c80637ad226dc11610104578063c46ed45a116100a2578063f0a3a97c11610071578063f0a3a97c14610530578063f207564e14610557578063f336ee3c1461056a578063f54c42d71461057d57600080fd5b8063c46ed45a14610446578063ccaf237f1461044f578063d547741f146104ea578063e6f091f9146104fd57600080fd5b80639c623683116100de5780639c623683146103b6578063a217fddf146103c9578063b22c376d146103d1578063b9888d891461043357600080fd5b80637ad226dc1461037d5780638da5cb5b1461039057806391d14854146103a357600080fd5b80632ba671001161017c57806336568abe1161014b57806336568abe146102da5780633e16518f146102ed5780634575624b1461030057806375ca76031461035257600080fd5b80632ba67100146102985780632d6ef310146102ab5780632f2ff15d146102be578063313ce567146102d157600080fd5b806309a18635116101b857806309a186351461022e578063248a55a114610241578063248a9ca3146102545780632ac5016f1461028557600080fd5b8062f5544f146101de57806301ffc9a7146101f357806306602a481461021b575b600080fd5b6101f16101ec3660046118a6565b610590565b005b6102066102013660046118e9565b6105ef565b60405190151581526020015b60405180910390f35b6101f161022936600461184b565b610626565b6101f161023c366004611831565b610726565b6101f161024f3660046118a6565b6107bb565b6102776102623660046118a6565b60009081526020819052604090206001015490565b604051908152602001610212565b6101f16102933660046118a6565b610841565b6101f16102a63660046118be565b610852565b6101f16102b93660046118a6565b6108be565b6101f16102cc3660046118be565b61090f565b61027760035481565b6101f16102e83660046118be565b610934565b6101f16102fb366004611831565b6109b2565b61033b61030e366004611831565b6001600160a01b031660009081526001602081905260409091208054910154600160a01b90910460ff1691565b604080519215158352602083019190915201610212565b600654610365906001600160a01b031681565b6040516001600160a01b039091168152602001610212565b6101f161038b3660046118be565b610a01565b600754610365906001600160a01b031681565b6102066103b13660046118be565b610c74565b6101f16103c43660046118be565b610c9d565b610277600081565b61040e6103df366004611831565b600160208190526000918252604090912080549101546001600160a01b03821691600160a01b900460ff169083565b604080516001600160a01b039094168452911515602084015290820152606001610212565b6101f16104413660046118be565b610ec2565b61027760045481565b6104aa61045d3660046118a6565b6002602081905260009182526040909120805460018201549282015460038301546004840154600585015460069095015460ff90941695949293919290916001600160a01b039091169087565b604080519715158852602088019690965294860193909352606085019190915260808401526001600160a01b031660a083015260c082015260e001610212565b6101f16104f83660046118be565b610faf565b61020661050b366004611831565b6001600160a01b0316600090815260016020526040902054600160a01b900460ff1690565b6102777f3496e2e73c4d42b75d702e60d9e48102720b8691234415963a5a857b86425d0781565b6101f16105653660046118a6565b610fd4565b6101f1610578366004611911565b61135b565b6101f161058b366004611831565b6113fb565b600061059b81611429565b600082815260026020526040908190206001600490910155517f651a9760985edc53055bf2462cb4437b9be3de87aa3eecf2c05782e8b58eba19906105e39084815260200190565b60405180910390a15050565b60006001600160e01b03198216637965db0b60e01b148061062057506301ffc9a760e01b6001600160e01b03198316145b92915050565b7f3496e2e73c4d42b75d702e60d9e48102720b8691234415963a5a857b86425d0761065081611429565b6001600160a01b038416600081815260016020819052604090912090810185905580546001600160a81b031916600160a01b851515026001600160a01b0319161782179055849063095ea7b3336040516001600160e01b031960e084901b1681526001600160a01b0390911660048201526000196024820152604401602060405180830381600087803b1580156106e657600080fd5b505af11580156106fa573d6000803e3d6000fd5b505050506040513d601f19601f8201168201806040525081019061071e919061188a565b505050505050565b600061073181611429565b4780156107b6576007546040516000916001600160a01b03169083908381818185875af1925050503d8060008114610785576040519150601f19603f3d011682016040523d82523d6000602084013e61078a565b606091505b50509050806107b45760405162461bcd60e51b81526004016107ab90611a0c565b60405180910390fd5b505b505050565b60006107c681611429565b6000828152600260208181526040808420805460ff191681556001810185905592830184905560038301849055600483018490556005830180546001600160a01b0319169055600690920192909255518381527fd0b153e02e23f4f21d020465b4dac7b1114893d05db395ed2511f879c3ac90b491016105e3565b600061084c81611429565b50600455565b600061085d81611429565b60008381526002602090815260408083206001600160a01b0386168085526009909101835281842093909355519182527f34aeefd5030be05fe70eebc8866d82f935a308eb9f334cba88f5e3bea1a0cae891015b60405180910390a1505050565b60006108c981611429565b60008281526002602052604080822060040191909155517f827e8bff9f46048f8351964d2c871d09e4f4231513cf2fcb786649c68732e24f906105e39084815260200190565b60008281526020819052604090206001015461092a81611429565b6107b68383611433565b6001600160a01b03811633146109a45760405162461bcd60e51b815260206004820152602f60248201527f416363657373436f6e74726f6c3a2063616e206f6e6c792072656e6f756e636560448201526e103937b632b9903337b91039b2b63360891b60648201526084016107ab565b6109ae82826114b7565b5050565b7f3496e2e73c4d42b75d702e60d9e48102720b8691234415963a5a857b86425d076109dc81611429565b506001600160a01b03166000908152600160205260409020805460ff60a01b19169055565b6000610a0c81611429565b60008381526002602052604090205460ff166107b65760008381526002602090815260408083206001600160a01b0386168452600801909152902054600114610ab15760405162461bcd60e51b815260206004820152603160248201527f54726f706879204b696e67204172636164653a204e6f7420726567697374657260448201527032b2103337b9103a3434b99033b0b6b29760791b60648201526084016107ab565b600083815260026020908152604080832060058101546001600160a01b03908116855260019093529220541663a9059cbb3360038401546040516001600160e01b031960e085901b1681526001600160a01b0390921660048301526024820152604401602060405180830381600087803b158015610b2e57600080fd5b505af1158015610b42573d6000803e3d6000fd5b505050506040513d601f19601f82011682018060405250810190610b66919061188a565b610bbd5760405162461bcd60e51b815260206004820152602260248201527f54726f706879204b696e67204172636164653a20526566756e64206661696c65604482015261321760f11b60648201526084016107ab565b6003810154604080518681526001600160a01b038616602082015280820192909252517f21e12a7cad0da5928167e1084ea4d5fdf8d9af66657a2543a9ac76a0ca0814779181900360600190a18060030154816006016000828254610c229190611aaa565b90915550506001600160a01b038316600090815260078201602090815260408083208390556008840190915281208190556001808301805491929091610c69908490611aaa565b909155505050505050565b6000918252602082815260408084206001600160a01b0393909316845291905290205460ff1690565b6000610ca881611429565b60008381526002602052604090205460ff16610eb95760008381526002602090815260408083206001600160a01b03861684526007018252918290205491519182527f557809284da7314475b1582804ae28e5f1349efc1fe970ea25d50fce75eb4f43910160405180910390a160008381526002602090815260408083206001600160a01b0386168452600801909152902054600114610da35760405162461bcd60e51b815260206004820152603060248201527f54726f706879204b696e67204172636164653a204e6f7420726567697374657260448201526f656420666f7220746869732067616d6560801b60648201526084016107ab565b6005546004546000858152600260205260408120600601549092918291610dca9190611a8b565b610dd49190611a6b565b610dde9190611a6b565b60008581526002602052604081206006015491925090610dff908390611aaa565b90504781811015610e0e578091505b6000856001600160a01b03168360405160006040518083038185875af1925050503d8060008114610e5b576040519150601f19603f3d011682016040523d82523d6000602084013e610e60565b606091505b5050905080610e815760405162461bcd60e51b81526004016107ab90611a0c565b6040518381527f22427047e1a674a9aff59700a2c8d00ea96e017ddf9236690bdedf1f21f28d9d9060200160405180910390a1505050505b6107b6836108be565b6000610ecd81611429565b60008381526002602090815260408083206001600160a01b038616845260090190915290205460011415610f4f5760405162461bcd60e51b815260206004820152602360248201527f54726f706879204b696e67204172636164653a20416c7265616479207365617460448201526232b21760e91b60648201526084016107ab565b60008381526002602090815260408083206001600160a01b03861680855260099091018352928190206001905580519283529082018590527f9f2deefff0a36949d580cdd4ba9959b4a94786e786bad5650001b58b625fbbb191016108b1565b600082815260208190526040902060010154610fca81611429565b6107b683836114b7565b600081815260026020908152604080832033845260090190915290205460011461104a5760405162461bcd60e51b815260206004820152602160248201527f54726f706879204b696e67204172636164653a20556e617574686f72697a65646044820152601760f91b60648201526084016107ab565b6000818152600260205260409020600401546001146110ab5760405162461bcd60e51b815260206004820181905260248201527f54726f706879204b696e67204172636164653a2047616d6520636c6f7365642e60448201526064016107ab565b60008181526002602081905260409091206001810154910154116111245760405162461bcd60e51b815260206004820152602a60248201527f54726f706879204b696e67204172636164653a2047616d652066756c6c2e20206044820152692a393c9030b3b0b4b71760b11b60648201526084016107ab565b60008181526002602090815260408083203384526008019091529020541561119e5760405162461bcd60e51b815260206004820152602760248201527f54726f706879204b696e67204172636164653a20416c7265616479207265676960448201526639ba32b932b21760c91b60648201526084016107ab565b600081815260026020819052604090912001546112095760405162461bcd60e51b815260206004820152602360248201527f54726f706879204b696e67204172636164653a2047616d65206e6f7420666f7560448201526237321760e91b60648201526084016107ab565b6000818152600260209081526040808320600501546001600160a01b039081168452600190925290912054166323b872dd336000848152600260205260409081902060030154905160e084901b6001600160e01b03191681526001600160a01b0390921660048301523060248301526044820152606401602060405180830381600087803b15801561129a57600080fd5b505af11580156112ae573d6000803e3d6000fd5b505050506040513d601f19601f820116820180604052508101906112d2919061188a565b6113395760405162461bcd60e51b815260206004820152603260248201527f54726f706879204b696e67204172636164653a204d75737420617070726f7665604482015271103932b3b4b9ba3930ba34b7b7103332b29760711b60648201526084016107ab565b600081815260026020526040902060030154611358908290339061151c565b50565b600061136681611429565b600086815260026020818152604080842060016004820181905560068201869055600382018b90556005820180546001600160a01b0319166001600160a01b038c16179055810194909455918301869055825460ff191685151517909255518781527f9e5237c6a8bb45df74799cf138ebda4fed0574bed906da41387acdc4a3cbe3d8910160405180910390a1505050505050565b600061140681611429565b50600680546001600160a01b0319166001600160a01b0392909216919091179055565b61135881336115c8565b61143d8282610c74565b6109ae576000828152602081815260408083206001600160a01b03851684529091529020805460ff191660011790556114733390565b6001600160a01b0316816001600160a01b0316837f2f8788117e7eff1d82e926ec794901d17c78024a50270940304540a733656f0d60405160405180910390a45050565b6114c18282610c74565b156109ae576000828152602081815260408083206001600160a01b0385168085529252808320805460ff1916905551339285917ff6391f5c32d9c69d2a47ea670b442974b53935d1edc7fd64eb21e047a839171b9190a45050565b60008381526002602052604081206001808201805492939192909190611543908490611a53565b90915550506001600160a01b0383166000908152600782016020908152604080832085905560088401909152812060019055600682018054849290611589908490611a53565b909155505060405184815233907e7dc6ab80cc84c043b7b8d4fcafc802187470087f7ea7fccd2e17aecd0256a19060200160405180910390a250505050565b6115d28282610c74565b6109ae576115ea816001600160a01b0316601461162c565b6115f583602061162c565b604051602001611606929190611964565b60408051601f198184030181529082905262461bcd60e51b82526107ab916004016119d9565b6060600061163b836002611a8b565b611646906002611a53565b67ffffffffffffffff81111561166c57634e487b7160e01b600052604160045260246000fd5b6040519080825280601f01601f191660200182016040528015611696576020820181803683370190505b509050600360fc1b816000815181106116bf57634e487b7160e01b600052603260045260246000fd5b60200101906001600160f81b031916908160001a905350600f60fb1b816001815181106116fc57634e487b7160e01b600052603260045260246000fd5b60200101906001600160f81b031916908160001a9053506000611720846002611a8b565b61172b906001611a53565b90505b60018111156117bf576f181899199a1a9b1b9c1cb0b131b232b360811b85600f166010811061176d57634e487b7160e01b600052603260045260246000fd5b1a60f81b82828151811061179157634e487b7160e01b600052603260045260246000fd5b60200101906001600160f81b031916908160001a90535060049490941c936117b881611aed565b905061172e565b50831561180e5760405162461bcd60e51b815260206004820181905260248201527f537472696e67733a20686578206c656e67746820696e73756666696369656e7460448201526064016107ab565b9392505050565b80356001600160a01b038116811461182c57600080fd5b919050565b600060208284031215611842578081fd5b61180e82611815565b60008060006060848603121561185f578182fd5b61186884611815565b925060208401359150604084013561187f81611b1a565b809150509250925092565b60006020828403121561189b578081fd5b815161180e81611b1a565b6000602082840312156118b7578081fd5b5035919050565b600080604083850312156118d0578182fd5b823591506118e060208401611815565b90509250929050565b6000602082840312156118fa578081fd5b81356001600160e01b03198116811461180e578182fd5b600080600080600060a08688031215611928578081fd5b853594506020860135935061193f60408701611815565b925060608601359150608086013561195681611b1a565b809150509295509295909350565b7f416363657373436f6e74726f6c3a206163636f756e742000000000000000000081526000835161199c816017850160208801611ac1565b7001034b99036b4b9b9b4b733903937b6329607d1b60179184019182015283516119cd816028840160208801611ac1565b01602801949350505050565b60208152600082518060208401526119f8816040850160208701611ac1565b601f01601f19169190910160400192915050565b60208082526027908201527f54726f706879204b696e67204172636164653a20556e61626c6520746f20747260408201526630b739b332b91760c91b606082015260800190565b60008219821115611a6657611a66611b04565b500190565b600082611a8657634e487b7160e01b81526012600452602481fd5b500490565b6000816000190483118215151615611aa557611aa5611b04565b500290565b600082821015611abc57611abc611b04565b500390565b60005b83811015611adc578181015183820152602001611ac4565b838111156107b45750506000910152565b600081611afc57611afc611b04565b506000190190565b634e487b7160e01b600052601160045260246000fd5b801515811461135857600080fdfea26469706673582212208564532c308c96978e015f4f36a7e5a5b571f7337b9058c15915c0356a64f38464736f6c63430008040033",
					"opcodes": "PUSH1 0x80 PUSH1 0x40 MSTORE PUSH1 0x12 PUSH1 0x3 DUP2 SWAP1 SSTORE PUSH3 0x18 SWAP1 PUSH1 0xA PUSH3 0xA6 JUMP JUMPDEST PUSH1 0x5 SSTORE CALLVALUE DUP1 ISZERO PUSH3 0x28 JUMPI PUSH1 0x0 DUP1 REVERT JUMPDEST POP PUSH1 0x7 DUP1 SLOAD CALLER PUSH1 0x1 PUSH1 0x1 PUSH1 0xA0 SHL SUB NOT SWAP2 DUP3 AND DUP2 OR SWAP1 SWAP3 SSTORE PUSH8 0x16345785D8A0000 PUSH1 0x4 SSTORE PUSH1 0x6 DUP1 SLOAD SWAP1 SWAP2 AND SWAP1 SWAP2 OR SWAP1 SSTORE PUSH3 0x187 JUMP JUMPDEST PUSH1 0x1 DUP2 DUP2 JUMPDEST DUP1 DUP6 GT ISZERO PUSH3 0x9E JUMPI DUP2 PUSH1 0x0 NOT DIV DUP3 GT ISZERO PUSH3 0x82 JUMPI PUSH3 0x82 PUSH3 0x171 JUMP JUMPDEST DUP1 DUP6 AND ISZERO PUSH3 0x90 JUMPI SWAP2 DUP2 MUL SWAP2 JUMPDEST SWAP4 DUP5 SHR SWAP4 SWAP1 DUP1 MUL SWAP1 PUSH3 0x62 JUMP JUMPDEST POP SWAP3 POP SWAP3 SWAP1 POP JUMP JUMPDEST PUSH1 0x0 PUSH3 0xB4 DUP4 DUP4 PUSH3 0xBB JUMP JUMPDEST SWAP4 SWAP3 POP POP POP JUMP JUMPDEST PUSH1 0x0 DUP3 PUSH3 0xCC JUMPI POP PUSH1 0x1 PUSH3 0x16B JUMP JUMPDEST DUP2 PUSH3 0xDB JUMPI POP PUSH1 0x0 PUSH3 0x16B JUMP JUMPDEST DUP2 PUSH1 0x1 DUP2 EQ PUSH3 0xF4 JUMPI PUSH1 0x2 DUP2 EQ PUSH3 0xFF JUMPI PUSH3 0x11F JUMP JUMPDEST PUSH1 0x1 SWAP2 POP POP PUSH3 0x16B JUMP JUMPDEST PUSH1 0xFF DUP5 GT ISZERO PUSH3 0x113 JUMPI PUSH3 0x113 PUSH3 0x171 JUMP JUMPDEST POP POP PUSH1 0x1 DUP3 SHL PUSH3 0x16B JUMP JUMPDEST POP PUSH1 0x20 DUP4 LT PUSH2 0x133 DUP4 LT AND PUSH1 0x4E DUP5 LT PUSH1 0xB DUP5 LT AND OR ISZERO PUSH3 0x144 JUMPI POP DUP2 DUP2 EXP PUSH3 0x16B JUMP JUMPDEST PUSH3 0x150 DUP4 DUP4 PUSH3 0x5D JUMP JUMPDEST DUP1 PUSH1 0x0 NOT DIV DUP3 GT ISZERO PUSH3 0x167 JUMPI PUSH3 0x167 PUSH3 0x171 JUMP JUMPDEST MUL SWAP1 POP JUMPDEST SWAP3 SWAP2 POP POP JUMP JUMPDEST PUSH4 0x4E487B71 PUSH1 0xE0 SHL PUSH1 0x0 MSTORE PUSH1 0x11 PUSH1 0x4 MSTORE PUSH1 0x24 PUSH1 0x0 REVERT JUMPDEST PUSH2 0x1B5E DUP1 PUSH3 0x197 PUSH1 0x0 CODECOPY PUSH1 0x0 RETURN INVALID PUSH1 0x80 PUSH1 0x40 MSTORE CALLVALUE DUP1 ISZERO PUSH2 0x10 JUMPI PUSH1 0x0 DUP1 REVERT JUMPDEST POP PUSH1 0x4 CALLDATASIZE LT PUSH2 0x1D9 JUMPI PUSH1 0x0 CALLDATALOAD PUSH1 0xE0 SHR DUP1 PUSH4 0x7AD226DC GT PUSH2 0x104 JUMPI DUP1 PUSH4 0xC46ED45A GT PUSH2 0xA2 JUMPI DUP1 PUSH4 0xF0A3A97C GT PUSH2 0x71 JUMPI DUP1 PUSH4 0xF0A3A97C EQ PUSH2 0x530 JUMPI DUP1 PUSH4 0xF207564E EQ PUSH2 0x557 JUMPI DUP1 PUSH4 0xF336EE3C EQ PUSH2 0x56A JUMPI DUP1 PUSH4 0xF54C42D7 EQ PUSH2 0x57D JUMPI PUSH1 0x0 DUP1 REVERT JUMPDEST DUP1 PUSH4 0xC46ED45A EQ PUSH2 0x446 JUMPI DUP1 PUSH4 0xCCAF237F EQ PUSH2 0x44F JUMPI DUP1 PUSH4 0xD547741F EQ PUSH2 0x4EA JUMPI DUP1 PUSH4 0xE6F091F9 EQ PUSH2 0x4FD JUMPI PUSH1 0x0 DUP1 REVERT JUMPDEST DUP1 PUSH4 0x9C623683 GT PUSH2 0xDE JUMPI DUP1 PUSH4 0x9C623683 EQ PUSH2 0x3B6 JUMPI DUP1 PUSH4 0xA217FDDF EQ PUSH2 0x3C9 JUMPI DUP1 PUSH4 0xB22C376D EQ PUSH2 0x3D1 JUMPI DUP1 PUSH4 0xB9888D89 EQ PUSH2 0x433 JUMPI PUSH1 0x0 DUP1 REVERT JUMPDEST DUP1 PUSH4 0x7AD226DC EQ PUSH2 0x37D JUMPI DUP1 PUSH4 0x8DA5CB5B EQ PUSH2 0x390 JUMPI DUP1 PUSH4 0x91D14854 EQ PUSH2 0x3A3 JUMPI PUSH1 0x0 DUP1 REVERT JUMPDEST DUP1 PUSH4 0x2BA67100 GT PUSH2 0x17C JUMPI DUP1 PUSH4 0x36568ABE GT PUSH2 0x14B JUMPI DUP1 PUSH4 0x36568ABE EQ PUSH2 0x2DA JUMPI DUP1 PUSH4 0x3E16518F EQ PUSH2 0x2ED JUMPI DUP1 PUSH4 0x4575624B EQ PUSH2 0x300 JUMPI DUP1 PUSH4 0x75CA7603 EQ PUSH2 0x352 JUMPI PUSH1 0x0 DUP1 REVERT JUMPDEST DUP1 PUSH4 0x2BA67100 EQ PUSH2 0x298 JUMPI DUP1 PUSH4 0x2D6EF310 EQ PUSH2 0x2AB JUMPI DUP1 PUSH4 0x2F2FF15D EQ PUSH2 0x2BE JUMPI DUP1 PUSH4 0x313CE567 EQ PUSH2 0x2D1 JUMPI PUSH1 0x0 DUP1 REVERT JUMPDEST DUP1 PUSH4 0x9A18635 GT PUSH2 0x1B8 JUMPI DUP1 PUSH4 0x9A18635 EQ PUSH2 0x22E JUMPI DUP1 PUSH4 0x248A55A1 EQ PUSH2 0x241 JUMPI DUP1 PUSH4 0x248A9CA3 EQ PUSH2 0x254 JUMPI DUP1 PUSH4 0x2AC5016F EQ PUSH2 0x285 JUMPI PUSH1 0x0 DUP1 REVERT JUMPDEST DUP1 PUSH3 0xF5544F EQ PUSH2 0x1DE JUMPI DUP1 PUSH4 0x1FFC9A7 EQ PUSH2 0x1F3 JUMPI DUP1 PUSH4 0x6602A48 EQ PUSH2 0x21B JUMPI JUMPDEST PUSH1 0x0 DUP1 REVERT JUMPDEST PUSH2 0x1F1 PUSH2 0x1EC CALLDATASIZE PUSH1 0x4 PUSH2 0x18A6 JUMP JUMPDEST PUSH2 0x590 JUMP JUMPDEST STOP JUMPDEST PUSH2 0x206 PUSH2 0x201 CALLDATASIZE PUSH1 0x4 PUSH2 0x18E9 JUMP JUMPDEST PUSH2 0x5EF JUMP JUMPDEST PUSH1 0x40 MLOAD SWAP1 ISZERO ISZERO DUP2 MSTORE PUSH1 0x20 ADD JUMPDEST PUSH1 0x40 MLOAD DUP1 SWAP2 SUB SWAP1 RETURN JUMPDEST PUSH2 0x1F1 PUSH2 0x229 CALLDATASIZE PUSH1 0x4 PUSH2 0x184B JUMP JUMPDEST PUSH2 0x626 JUMP JUMPDEST PUSH2 0x1F1 PUSH2 0x23C CALLDATASIZE PUSH1 0x4 PUSH2 0x1831 JUMP JUMPDEST PUSH2 0x726 JUMP JUMPDEST PUSH2 0x1F1 PUSH2 0x24F CALLDATASIZE PUSH1 0x4 PUSH2 0x18A6 JUMP JUMPDEST PUSH2 0x7BB JUMP JUMPDEST PUSH2 0x277 PUSH2 0x262 CALLDATASIZE PUSH1 0x4 PUSH2 0x18A6 JUMP JUMPDEST PUSH1 0x0 SWAP1 DUP2 MSTORE PUSH1 0x20 DUP2 SWAP1 MSTORE PUSH1 0x40 SWAP1 KECCAK256 PUSH1 0x1 ADD SLOAD SWAP1 JUMP JUMPDEST PUSH1 0x40 MLOAD SWAP1 DUP2 MSTORE PUSH1 0x20 ADD PUSH2 0x212 JUMP JUMPDEST PUSH2 0x1F1 PUSH2 0x293 CALLDATASIZE PUSH1 0x4 PUSH2 0x18A6 JUMP JUMPDEST PUSH2 0x841 JUMP JUMPDEST PUSH2 0x1F1 PUSH2 0x2A6 CALLDATASIZE PUSH1 0x4 PUSH2 0x18BE JUMP JUMPDEST PUSH2 0x852 JUMP JUMPDEST PUSH2 0x1F1 PUSH2 0x2B9 CALLDATASIZE PUSH1 0x4 PUSH2 0x18A6 JUMP JUMPDEST PUSH2 0x8BE JUMP JUMPDEST PUSH2 0x1F1 PUSH2 0x2CC CALLDATASIZE PUSH1 0x4 PUSH2 0x18BE JUMP JUMPDEST PUSH2 0x90F JUMP JUMPDEST PUSH2 0x277 PUSH1 0x3 SLOAD DUP2 JUMP JUMPDEST PUSH2 0x1F1 PUSH2 0x2E8 CALLDATASIZE PUSH1 0x4 PUSH2 0x18BE JUMP JUMPDEST PUSH2 0x934 JUMP JUMPDEST PUSH2 0x1F1 PUSH2 0x2FB CALLDATASIZE PUSH1 0x4 PUSH2 0x1831 JUMP JUMPDEST PUSH2 0x9B2 JUMP JUMPDEST PUSH2 0x33B PUSH2 0x30E CALLDATASIZE PUSH1 0x4 PUSH2 0x1831 JUMP JUMPDEST PUSH1 0x1 PUSH1 0x1 PUSH1 0xA0 SHL SUB AND PUSH1 0x0 SWAP1 DUP2 MSTORE PUSH1 0x1 PUSH1 0x20 DUP2 SWAP1 MSTORE PUSH1 0x40 SWAP1 SWAP2 KECCAK256 DUP1 SLOAD SWAP2 ADD SLOAD PUSH1 0x1 PUSH1 0xA0 SHL SWAP1 SWAP2 DIV PUSH1 0xFF AND SWAP2 JUMP JUMPDEST PUSH1 0x40 DUP1 MLOAD SWAP3 ISZERO ISZERO DUP4 MSTORE PUSH1 0x20 DUP4 ADD SWAP2 SWAP1 SWAP2 MSTORE ADD PUSH2 0x212 JUMP JUMPDEST PUSH1 0x6 SLOAD PUSH2 0x365 SWAP1 PUSH1 0x1 PUSH1 0x1 PUSH1 0xA0 SHL SUB AND DUP2 JUMP JUMPDEST PUSH1 0x40 MLOAD PUSH1 0x1 PUSH1 0x1 PUSH1 0xA0 SHL SUB SWAP1 SWAP2 AND DUP2 MSTORE PUSH1 0x20 ADD PUSH2 0x212 JUMP JUMPDEST PUSH2 0x1F1 PUSH2 0x38B CALLDATASIZE PUSH1 0x4 PUSH2 0x18BE JUMP JUMPDEST PUSH2 0xA01 JUMP JUMPDEST PUSH1 0x7 SLOAD PUSH2 0x365 SWAP1 PUSH1 0x1 PUSH1 0x1 PUSH1 0xA0 SHL SUB AND DUP2 JUMP JUMPDEST PUSH2 0x206 PUSH2 0x3B1 CALLDATASIZE PUSH1 0x4 PUSH2 0x18BE JUMP JUMPDEST PUSH2 0xC74 JUMP JUMPDEST PUSH2 0x1F1 PUSH2 0x3C4 CALLDATASIZE PUSH1 0x4 PUSH2 0x18BE JUMP JUMPDEST PUSH2 0xC9D JUMP JUMPDEST PUSH2 0x277 PUSH1 0x0 DUP2 JUMP JUMPDEST PUSH2 0x40E PUSH2 0x3DF CALLDATASIZE PUSH1 0x4 PUSH2 0x1831 JUMP JUMPDEST PUSH1 0x1 PUSH1 0x20 DUP2 SWAP1 MSTORE PUSH1 0x0 SWAP2 DUP3 MSTORE PUSH1 0x40 SWAP1 SWAP2 KECCAK256 DUP1 SLOAD SWAP2 ADD SLOAD PUSH1 0x1 PUSH1 0x1 PUSH1 0xA0 SHL SUB DUP3 AND SWAP2 PUSH1 0x1 PUSH1 0xA0 SHL SWAP1 DIV PUSH1 0xFF AND SWAP1 DUP4 JUMP JUMPDEST PUSH1 0x40 DUP1 MLOAD PUSH1 0x1 PUSH1 0x1 PUSH1 0xA0 SHL SUB SWAP1 SWAP5 AND DUP5 MSTORE SWAP2 ISZERO ISZERO PUSH1 0x20 DUP5 ADD MSTORE SWAP1 DUP3 ADD MSTORE PUSH1 0x60 ADD PUSH2 0x212 JUMP JUMPDEST PUSH2 0x1F1 PUSH2 0x441 CALLDATASIZE PUSH1 0x4 PUSH2 0x18BE JUMP JUMPDEST PUSH2 0xEC2 JUMP JUMPDEST PUSH2 0x277 PUSH1 0x4 SLOAD DUP2 JUMP JUMPDEST PUSH2 0x4AA PUSH2 0x45D CALLDATASIZE PUSH1 0x4 PUSH2 0x18A6 JUMP JUMPDEST PUSH1 0x2 PUSH1 0x20 DUP2 SWAP1 MSTORE PUSH1 0x0 SWAP2 DUP3 MSTORE PUSH1 0x40 SWAP1 SWAP2 KECCAK256 DUP1 SLOAD PUSH1 0x1 DUP3 ADD SLOAD SWAP3 DUP3 ADD SLOAD PUSH1 0x3 DUP4 ADD SLOAD PUSH1 0x4 DUP5 ADD SLOAD PUSH1 0x5 DUP6 ADD SLOAD PUSH1 0x6 SWAP1 SWAP6 ADD SLOAD PUSH1 0xFF SWAP1 SWAP5 AND SWAP6 SWAP5 SWAP3 SWAP4 SWAP2 SWAP3 SWAP1 SWAP2 PUSH1 0x1 PUSH1 0x1 PUSH1 0xA0 SHL SUB SWAP1 SWAP2 AND SWAP1 DUP8 JUMP JUMPDEST PUSH1 0x40 DUP1 MLOAD SWAP8 ISZERO ISZERO DUP9 MSTORE PUSH1 0x20 DUP9 ADD SWAP7 SWAP1 SWAP7 MSTORE SWAP5 DUP7 ADD SWAP4 SWAP1 SWAP4 MSTORE PUSH1 0x60 DUP6 ADD SWAP2 SWAP1 SWAP2 MSTORE PUSH1 0x80 DUP5 ADD MSTORE PUSH1 0x1 PUSH1 0x1 PUSH1 0xA0 SHL SUB AND PUSH1 0xA0 DUP4 ADD MSTORE PUSH1 0xC0 DUP3 ADD MSTORE PUSH1 0xE0 ADD PUSH2 0x212 JUMP JUMPDEST PUSH2 0x1F1 PUSH2 0x4F8 CALLDATASIZE PUSH1 0x4 PUSH2 0x18BE JUMP JUMPDEST PUSH2 0xFAF JUMP JUMPDEST PUSH2 0x206 PUSH2 0x50B CALLDATASIZE PUSH1 0x4 PUSH2 0x1831 JUMP JUMPDEST PUSH1 0x1 PUSH1 0x1 PUSH1 0xA0 SHL SUB AND PUSH1 0x0 SWAP1 DUP2 MSTORE PUSH1 0x1 PUSH1 0x20 MSTORE PUSH1 0x40 SWAP1 KECCAK256 SLOAD PUSH1 0x1 PUSH1 0xA0 SHL SWAP1 DIV PUSH1 0xFF AND SWAP1 JUMP JUMPDEST PUSH2 0x277 PUSH32 0x3496E2E73C4D42B75D702E60D9E48102720B8691234415963A5A857B86425D07 DUP2 JUMP JUMPDEST PUSH2 0x1F1 PUSH2 0x565 CALLDATASIZE PUSH1 0x4 PUSH2 0x18A6 JUMP JUMPDEST PUSH2 0xFD4 JUMP JUMPDEST PUSH2 0x1F1 PUSH2 0x578 CALLDATASIZE PUSH1 0x4 PUSH2 0x1911 JUMP JUMPDEST PUSH2 0x135B JUMP JUMPDEST PUSH2 0x1F1 PUSH2 0x58B CALLDATASIZE PUSH1 0x4 PUSH2 0x1831 JUMP JUMPDEST PUSH2 0x13FB JUMP JUMPDEST PUSH1 0x0 PUSH2 0x59B DUP2 PUSH2 0x1429 JUMP JUMPDEST PUSH1 0x0 DUP3 DUP2 MSTORE PUSH1 0x2 PUSH1 0x20 MSTORE PUSH1 0x40 SWAP1 DUP2 SWAP1 KECCAK256 PUSH1 0x1 PUSH1 0x4 SWAP1 SWAP2 ADD SSTORE MLOAD PUSH32 0x651A9760985EDC53055BF2462CB4437B9BE3DE87AA3EECF2C05782E8B58EBA19 SWAP1 PUSH2 0x5E3 SWAP1 DUP5 DUP2 MSTORE PUSH1 0x20 ADD SWAP1 JUMP JUMPDEST PUSH1 0x40 MLOAD DUP1 SWAP2 SUB SWAP1 LOG1 POP POP JUMP JUMPDEST PUSH1 0x0 PUSH1 0x1 PUSH1 0x1 PUSH1 0xE0 SHL SUB NOT DUP3 AND PUSH4 0x7965DB0B PUSH1 0xE0 SHL EQ DUP1 PUSH2 0x620 JUMPI POP PUSH4 0x1FFC9A7 PUSH1 0xE0 SHL PUSH1 0x1 PUSH1 0x1 PUSH1 0xE0 SHL SUB NOT DUP4 AND EQ JUMPDEST SWAP3 SWAP2 POP POP JUMP JUMPDEST PUSH32 0x3496E2E73C4D42B75D702E60D9E48102720B8691234415963A5A857B86425D07 PUSH2 0x650 DUP2 PUSH2 0x1429 JUMP JUMPDEST PUSH1 0x1 PUSH1 0x1 PUSH1 0xA0 SHL SUB DUP5 AND PUSH1 0x0 DUP2 DUP2 MSTORE PUSH1 0x1 PUSH1 0x20 DUP2 SWAP1 MSTORE PUSH1 0x40 SWAP1 SWAP2 KECCAK256 SWAP1 DUP2 ADD DUP6 SWAP1 SSTORE DUP1 SLOAD PUSH1 0x1 PUSH1 0x1 PUSH1 0xA8 SHL SUB NOT AND PUSH1 0x1 PUSH1 0xA0 SHL DUP6 ISZERO ISZERO MUL PUSH1 0x1 PUSH1 0x1 PUSH1 0xA0 SHL SUB NOT AND OR DUP3 OR SWAP1 SSTORE DUP5 SWAP1 PUSH4 0x95EA7B3 CALLER PUSH1 0x40 MLOAD PUSH1 0x1 PUSH1 0x1 PUSH1 0xE0 SHL SUB NOT PUSH1 0xE0 DUP5 SWAP1 SHL AND DUP2 MSTORE PUSH1 0x1 PUSH1 0x1 PUSH1 0xA0 SHL SUB SWAP1 SWAP2 AND PUSH1 0x4 DUP3 ADD MSTORE PUSH1 0x0 NOT PUSH1 0x24 DUP3 ADD MSTORE PUSH1 0x44 ADD PUSH1 0x20 PUSH1 0x40 MLOAD DUP1 DUP4 SUB DUP2 PUSH1 0x0 DUP8 DUP1 EXTCODESIZE ISZERO DUP1 ISZERO PUSH2 0x6E6 JUMPI PUSH1 0x0 DUP1 REVERT JUMPDEST POP GAS CALL ISZERO DUP1 ISZERO PUSH2 0x6FA JUMPI RETURNDATASIZE PUSH1 0x0 DUP1 RETURNDATACOPY RETURNDATASIZE PUSH1 0x0 REVERT JUMPDEST POP POP POP POP PUSH1 0x40 MLOAD RETURNDATASIZE PUSH1 0x1F NOT PUSH1 0x1F DUP3 ADD AND DUP3 ADD DUP1 PUSH1 0x40 MSTORE POP DUP2 ADD SWAP1 PUSH2 0x71E SWAP2 SWAP1 PUSH2 0x188A JUMP JUMPDEST POP POP POP POP POP POP JUMP JUMPDEST PUSH1 0x0 PUSH2 0x731 DUP2 PUSH2 0x1429 JUMP JUMPDEST SELFBALANCE DUP1 ISZERO PUSH2 0x7B6 JUMPI PUSH1 0x7 SLOAD PUSH1 0x40 MLOAD PUSH1 0x0 SWAP2 PUSH1 0x1 PUSH1 0x1 PUSH1 0xA0 SHL SUB AND SWAP1 DUP4 SWAP1 DUP4 DUP2 DUP2 DUP2 DUP6 DUP8 GAS CALL SWAP3 POP POP POP RETURNDATASIZE DUP1 PUSH1 0x0 DUP2 EQ PUSH2 0x785 JUMPI PUSH1 0x40 MLOAD SWAP2 POP PUSH1 0x1F NOT PUSH1 0x3F RETURNDATASIZE ADD AND DUP3 ADD PUSH1 0x40 MSTORE RETURNDATASIZE DUP3 MSTORE RETURNDATASIZE PUSH1 0x0 PUSH1 0x20 DUP5 ADD RETURNDATACOPY PUSH2 0x78A JUMP JUMPDEST PUSH1 0x60 SWAP2 POP JUMPDEST POP POP SWAP1 POP DUP1 PUSH2 0x7B4 JUMPI PUSH1 0x40 MLOAD PUSH3 0x461BCD PUSH1 0xE5 SHL DUP2 MSTORE PUSH1 0x4 ADD PUSH2 0x7AB SWAP1 PUSH2 0x1A0C JUMP JUMPDEST PUSH1 0x40 MLOAD DUP1 SWAP2 SUB SWAP1 REVERT JUMPDEST POP JUMPDEST POP POP POP JUMP JUMPDEST PUSH1 0x0 PUSH2 0x7C6 DUP2 PUSH2 0x1429 JUMP JUMPDEST PUSH1 0x0 DUP3 DUP2 MSTORE PUSH1 0x2 PUSH1 0x20 DUP2 DUP2 MSTORE PUSH1 0x40 DUP1 DUP5 KECCAK256 DUP1 SLOAD PUSH1 0xFF NOT AND DUP2 SSTORE PUSH1 0x1 DUP2 ADD DUP6 SWAP1 SSTORE SWAP3 DUP4 ADD DUP5 SWAP1 SSTORE PUSH1 0x3 DUP4 ADD DUP5 SWAP1 SSTORE PUSH1 0x4 DUP4 ADD DUP5 SWAP1 SSTORE PUSH1 0x5 DUP4 ADD DUP1 SLOAD PUSH1 0x1 PUSH1 0x1 PUSH1 0xA0 SHL SUB NOT AND SWAP1 SSTORE PUSH1 0x6 SWAP1 SWAP3 ADD SWAP3 SWAP1 SWAP3 SSTORE MLOAD DUP4 DUP2 MSTORE PUSH32 0xD0B153E02E23F4F21D020465B4DAC7B1114893D05DB395ED2511F879C3AC90B4 SWAP2 ADD PUSH2 0x5E3 JUMP JUMPDEST PUSH1 0x0 PUSH2 0x84C DUP2 PUSH2 0x1429 JUMP JUMPDEST POP PUSH1 0x4 SSTORE JUMP JUMPDEST PUSH1 0x0 PUSH2 0x85D DUP2 PUSH2 0x1429 JUMP JUMPDEST PUSH1 0x0 DUP4 DUP2 MSTORE PUSH1 0x2 PUSH1 0x20 SWAP1 DUP2 MSTORE PUSH1 0x40 DUP1 DUP4 KECCAK256 PUSH1 0x1 PUSH1 0x1 PUSH1 0xA0 SHL SUB DUP7 AND DUP1 DUP6 MSTORE PUSH1 0x9 SWAP1 SWAP2 ADD DUP4 MSTORE DUP2 DUP5 KECCAK256 SWAP4 SWAP1 SWAP4 SSTORE MLOAD SWAP2 DUP3 MSTORE PUSH32 0x34AEEFD5030BE05FE70EEBC8866D82F935A308EB9F334CBA88F5E3BEA1A0CAE8 SWAP2 ADD JUMPDEST PUSH1 0x40 MLOAD DUP1 SWAP2 SUB SWAP1 LOG1 POP POP POP JUMP JUMPDEST PUSH1 0x0 PUSH2 0x8C9 DUP2 PUSH2 0x1429 JUMP JUMPDEST PUSH1 0x0 DUP3 DUP2 MSTORE PUSH1 0x2 PUSH1 0x20 MSTORE PUSH1 0x40 DUP1 DUP3 KECCAK256 PUSH1 0x4 ADD SWAP2 SWAP1 SWAP2 SSTORE MLOAD PUSH32 0x827E8BFF9F46048F8351964D2C871D09E4F4231513CF2FCB786649C68732E24F SWAP1 PUSH2 0x5E3 SWAP1 DUP5 DUP2 MSTORE PUSH1 0x20 ADD SWAP1 JUMP JUMPDEST PUSH1 0x0 DUP3 DUP2 MSTORE PUSH1 0x20 DUP2 SWAP1 MSTORE PUSH1 0x40 SWAP1 KECCAK256 PUSH1 0x1 ADD SLOAD PUSH2 0x92A DUP2 PUSH2 0x1429 JUMP JUMPDEST PUSH2 0x7B6 DUP4 DUP4 PUSH2 0x1433 JUMP JUMPDEST PUSH1 0x1 PUSH1 0x1 PUSH1 0xA0 SHL SUB DUP2 AND CALLER EQ PUSH2 0x9A4 JUMPI PUSH1 0x40 MLOAD PUSH3 0x461BCD PUSH1 0xE5 SHL DUP2 MSTORE PUSH1 0x20 PUSH1 0x4 DUP3 ADD MSTORE PUSH1 0x2F PUSH1 0x24 DUP3 ADD MSTORE PUSH32 0x416363657373436F6E74726F6C3A2063616E206F6E6C792072656E6F756E6365 PUSH1 0x44 DUP3 ADD MSTORE PUSH15 0x103937B632B9903337B91039B2B633 PUSH1 0x89 SHL PUSH1 0x64 DUP3 ADD MSTORE PUSH1 0x84 ADD PUSH2 0x7AB JUMP JUMPDEST PUSH2 0x9AE DUP3 DUP3 PUSH2 0x14B7 JUMP JUMPDEST POP POP JUMP JUMPDEST PUSH32 0x3496E2E73C4D42B75D702E60D9E48102720B8691234415963A5A857B86425D07 PUSH2 0x9DC DUP2 PUSH2 0x1429 JUMP JUMPDEST POP PUSH1 0x1 PUSH1 0x1 PUSH1 0xA0 SHL SUB AND PUSH1 0x0 SWAP1 DUP2 MSTORE PUSH1 0x1 PUSH1 0x20 MSTORE PUSH1 0x40 SWAP1 KECCAK256 DUP1 SLOAD PUSH1 0xFF PUSH1 0xA0 SHL NOT AND SWAP1 SSTORE JUMP JUMPDEST PUSH1 0x0 PUSH2 0xA0C DUP2 PUSH2 0x1429 JUMP JUMPDEST PUSH1 0x0 DUP4 DUP2 MSTORE PUSH1 0x2 PUSH1 0x20 MSTORE PUSH1 0x40 SWAP1 KECCAK256 SLOAD PUSH1 0xFF AND PUSH2 0x7B6 JUMPI PUSH1 0x0 DUP4 DUP2 MSTORE PUSH1 0x2 PUSH1 0x20 SWAP1 DUP2 MSTORE PUSH1 0x40 DUP1 DUP4 KECCAK256 PUSH1 0x1 PUSH1 0x1 PUSH1 0xA0 SHL SUB DUP7 AND DUP5 MSTORE PUSH1 0x8 ADD SWAP1 SWAP2 MSTORE SWAP1 KECCAK256 SLOAD PUSH1 0x1 EQ PUSH2 0xAB1 JUMPI PUSH1 0x40 MLOAD PUSH3 0x461BCD PUSH1 0xE5 SHL DUP2 MSTORE PUSH1 0x20 PUSH1 0x4 DUP3 ADD MSTORE PUSH1 0x31 PUSH1 0x24 DUP3 ADD MSTORE PUSH32 0x54726F706879204B696E67204172636164653A204E6F74207265676973746572 PUSH1 0x44 DUP3 ADD MSTORE PUSH17 0x32B2103337B9103A3434B99033B0B6B297 PUSH1 0x79 SHL PUSH1 0x64 DUP3 ADD MSTORE PUSH1 0x84 ADD PUSH2 0x7AB JUMP JUMPDEST PUSH1 0x0 DUP4 DUP2 MSTORE PUSH1 0x2 PUSH1 0x20 SWAP1 DUP2 MSTORE PUSH1 0x40 DUP1 DUP4 KECCAK256 PUSH1 0x5 DUP2 ADD SLOAD PUSH1 0x1 PUSH1 0x1 PUSH1 0xA0 SHL SUB SWAP1 DUP2 AND DUP6 MSTORE PUSH1 0x1 SWAP1 SWAP4 MSTORE SWAP3 KECCAK256 SLOAD AND PUSH4 0xA9059CBB CALLER PUSH1 0x3 DUP5 ADD SLOAD PUSH1 0x40 MLOAD PUSH1 0x1 PUSH1 0x1 PUSH1 0xE0 SHL SUB NOT PUSH1 0xE0 DUP6 SWAP1 SHL AND DUP2 MSTORE PUSH1 0x1 PUSH1 0x1 PUSH1 0xA0 SHL SUB SWAP1 SWAP3 AND PUSH1 0x4 DUP4 ADD MSTORE PUSH1 0x24 DUP3 ADD MSTORE PUSH1 0x44 ADD PUSH1 0x20 PUSH1 0x40 MLOAD DUP1 DUP4 SUB DUP2 PUSH1 0x0 DUP8 DUP1 EXTCODESIZE ISZERO DUP1 ISZERO PUSH2 0xB2E JUMPI PUSH1 0x0 DUP1 REVERT JUMPDEST POP GAS CALL ISZERO DUP1 ISZERO PUSH2 0xB42 JUMPI RETURNDATASIZE PUSH1 0x0 DUP1 RETURNDATACOPY RETURNDATASIZE PUSH1 0x0 REVERT JUMPDEST POP POP POP POP PUSH1 0x40 MLOAD RETURNDATASIZE PUSH1 0x1F NOT PUSH1 0x1F DUP3 ADD AND DUP3 ADD DUP1 PUSH1 0x40 MSTORE POP DUP2 ADD SWAP1 PUSH2 0xB66 SWAP2 SWAP1 PUSH2 0x188A JUMP JUMPDEST PUSH2 0xBBD JUMPI PUSH1 0x40 MLOAD PUSH3 0x461BCD PUSH1 0xE5 SHL DUP2 MSTORE PUSH1 0x20 PUSH1 0x4 DUP3 ADD MSTORE PUSH1 0x22 PUSH1 0x24 DUP3 ADD MSTORE PUSH32 0x54726F706879204B696E67204172636164653A20526566756E64206661696C65 PUSH1 0x44 DUP3 ADD MSTORE PUSH2 0x3217 PUSH1 0xF1 SHL PUSH1 0x64 DUP3 ADD MSTORE PUSH1 0x84 ADD PUSH2 0x7AB JUMP JUMPDEST PUSH1 0x3 DUP2 ADD SLOAD PUSH1 0x40 DUP1 MLOAD DUP7 DUP2 MSTORE PUSH1 0x1 PUSH1 0x1 PUSH1 0xA0 SHL SUB DUP7 AND PUSH1 0x20 DUP3 ADD MSTORE DUP1 DUP3 ADD SWAP3 SWAP1 SWAP3 MSTORE MLOAD PUSH32 0x21E12A7CAD0DA5928167E1084EA4D5FDF8D9AF66657A2543A9AC76A0CA081477 SWAP2 DUP2 SWAP1 SUB PUSH1 0x60 ADD SWAP1 LOG1 DUP1 PUSH1 0x3 ADD SLOAD DUP2 PUSH1 0x6 ADD PUSH1 0x0 DUP3 DUP3 SLOAD PUSH2 0xC22 SWAP2 SWAP1 PUSH2 0x1AAA JUMP JUMPDEST SWAP1 SWAP2 SSTORE POP POP PUSH1 0x1 PUSH1 0x1 PUSH1 0xA0 SHL SUB DUP4 AND PUSH1 0x0 SWAP1 DUP2 MSTORE PUSH1 0x7 DUP3 ADD PUSH1 0x20 SWAP1 DUP2 MSTORE PUSH1 0x40 DUP1 DUP4 KECCAK256 DUP4 SWAP1 SSTORE PUSH1 0x8 DUP5 ADD SWAP1 SWAP2 MSTORE DUP2 KECCAK256 DUP2 SWAP1 SSTORE PUSH1 0x1 DUP1 DUP4 ADD DUP1 SLOAD SWAP2 SWAP3 SWAP1 SWAP2 PUSH2 0xC69 SWAP1 DUP5 SWAP1 PUSH2 0x1AAA JUMP JUMPDEST SWAP1 SWAP2 SSTORE POP POP POP POP POP POP JUMP JUMPDEST PUSH1 0x0 SWAP2 DUP3 MSTORE PUSH1 0x20 DUP3 DUP2 MSTORE PUSH1 0x40 DUP1 DUP5 KECCAK256 PUSH1 0x1 PUSH1 0x1 PUSH1 0xA0 SHL SUB SWAP4 SWAP1 SWAP4 AND DUP5 MSTORE SWAP2 SWAP1 MSTORE SWAP1 KECCAK256 SLOAD PUSH1 0xFF AND SWAP1 JUMP JUMPDEST PUSH1 0x0 PUSH2 0xCA8 DUP2 PUSH2 0x1429 JUMP JUMPDEST PUSH1 0x0 DUP4 DUP2 MSTORE PUSH1 0x2 PUSH1 0x20 MSTORE PUSH1 0x40 SWAP1 KECCAK256 SLOAD PUSH1 0xFF AND PUSH2 0xEB9 JUMPI PUSH1 0x0 DUP4 DUP2 MSTORE PUSH1 0x2 PUSH1 0x20 SWAP1 DUP2 MSTORE PUSH1 0x40 DUP1 DUP4 KECCAK256 PUSH1 0x1 PUSH1 0x1 PUSH1 0xA0 SHL SUB DUP7 AND DUP5 MSTORE PUSH1 0x7 ADD DUP3 MSTORE SWAP2 DUP3 SWAP1 KECCAK256 SLOAD SWAP2 MLOAD SWAP2 DUP3 MSTORE PUSH32 0x557809284DA7314475B1582804AE28E5F1349EFC1FE970EA25D50FCE75EB4F43 SWAP2 ADD PUSH1 0x40 MLOAD DUP1 SWAP2 SUB SWAP1 LOG1 PUSH1 0x0 DUP4 DUP2 MSTORE PUSH1 0x2 PUSH1 0x20 SWAP1 DUP2 MSTORE PUSH1 0x40 DUP1 DUP4 KECCAK256 PUSH1 0x1 PUSH1 0x1 PUSH1 0xA0 SHL SUB DUP7 AND DUP5 MSTORE PUSH1 0x8 ADD SWAP1 SWAP2 MSTORE SWAP1 KECCAK256 SLOAD PUSH1 0x1 EQ PUSH2 0xDA3 JUMPI PUSH1 0x40 MLOAD PUSH3 0x461BCD PUSH1 0xE5 SHL DUP2 MSTORE PUSH1 0x20 PUSH1 0x4 DUP3 ADD MSTORE PUSH1 0x30 PUSH1 0x24 DUP3 ADD MSTORE PUSH32 0x54726F706879204B696E67204172636164653A204E6F74207265676973746572 PUSH1 0x44 DUP3 ADD MSTORE PUSH16 0x656420666F7220746869732067616D65 PUSH1 0x80 SHL PUSH1 0x64 DUP3 ADD MSTORE PUSH1 0x84 ADD PUSH2 0x7AB JUMP JUMPDEST PUSH1 0x5 SLOAD PUSH1 0x4 SLOAD PUSH1 0x0 DUP6 DUP2 MSTORE PUSH1 0x2 PUSH1 0x20 MSTORE PUSH1 0x40 DUP2 KECCAK256 PUSH1 0x6 ADD SLOAD SWAP1 SWAP3 SWAP2 DUP3 SWAP2 PUSH2 0xDCA SWAP2 SWAP1 PUSH2 0x1A8B JUMP JUMPDEST PUSH2 0xDD4 SWAP2 SWAP1 PUSH2 0x1A6B JUMP JUMPDEST PUSH2 0xDDE SWAP2 SWAP1 PUSH2 0x1A6B JUMP JUMPDEST PUSH1 0x0 DUP6 DUP2 MSTORE PUSH1 0x2 PUSH1 0x20 MSTORE PUSH1 0x40 DUP2 KECCAK256 PUSH1 0x6 ADD SLOAD SWAP2 SWAP3 POP SWAP1 PUSH2 0xDFF SWAP1 DUP4 SWAP1 PUSH2 0x1AAA JUMP JUMPDEST SWAP1 POP SELFBALANCE DUP2 DUP2 LT ISZERO PUSH2 0xE0E JUMPI DUP1 SWAP2 POP JUMPDEST PUSH1 0x0 DUP6 PUSH1 0x1 PUSH1 0x1 PUSH1 0xA0 SHL SUB AND DUP4 PUSH1 0x40 MLOAD PUSH1 0x0 PUSH1 0x40 MLOAD DUP1 DUP4 SUB DUP2 DUP6 DUP8 GAS CALL SWAP3 POP POP POP RETURNDATASIZE DUP1 PUSH1 0x0 DUP2 EQ PUSH2 0xE5B JUMPI PUSH1 0x40 MLOAD SWAP2 POP PUSH1 0x1F NOT PUSH1 0x3F RETURNDATASIZE ADD AND DUP3 ADD PUSH1 0x40 MSTORE RETURNDATASIZE DUP3 MSTORE RETURNDATASIZE PUSH1 0x0 PUSH1 0x20 DUP5 ADD RETURNDATACOPY PUSH2 0xE60 JUMP JUMPDEST PUSH1 0x60 SWAP2 POP JUMPDEST POP POP SWAP1 POP DUP1 PUSH2 0xE81 JUMPI PUSH1 0x40 MLOAD PUSH3 0x461BCD PUSH1 0xE5 SHL DUP2 MSTORE PUSH1 0x4 ADD PUSH2 0x7AB SWAP1 PUSH2 0x1A0C JUMP JUMPDEST PUSH1 0x40 MLOAD DUP4 DUP2 MSTORE PUSH32 0x22427047E1A674A9AFF59700A2C8D00EA96E017DDF9236690BDEDF1F21F28D9D SWAP1 PUSH1 0x20 ADD PUSH1 0x40 MLOAD DUP1 SWAP2 SUB SWAP1 LOG1 POP POP POP POP JUMPDEST PUSH2 0x7B6 DUP4 PUSH2 0x8BE JUMP JUMPDEST PUSH1 0x0 PUSH2 0xECD DUP2 PUSH2 0x1429 JUMP JUMPDEST PUSH1 0x0 DUP4 DUP2 MSTORE PUSH1 0x2 PUSH1 0x20 SWAP1 DUP2 MSTORE PUSH1 0x40 DUP1 DUP4 KECCAK256 PUSH1 0x1 PUSH1 0x1 PUSH1 0xA0 SHL SUB DUP7 AND DUP5 MSTORE PUSH1 0x9 ADD SWAP1 SWAP2 MSTORE SWAP1 KECCAK256 SLOAD PUSH1 0x1 EQ ISZERO PUSH2 0xF4F JUMPI PUSH1 0x40 MLOAD PUSH3 0x461BCD PUSH1 0xE5 SHL DUP2 MSTORE PUSH1 0x20 PUSH1 0x4 DUP3 ADD MSTORE PUSH1 0x23 PUSH1 0x24 DUP3 ADD MSTORE PUSH32 0x54726F706879204B696E67204172636164653A20416C72656164792073656174 PUSH1 0x44 DUP3 ADD MSTORE PUSH3 0x32B217 PUSH1 0xE9 SHL PUSH1 0x64 DUP3 ADD MSTORE PUSH1 0x84 ADD PUSH2 0x7AB JUMP JUMPDEST PUSH1 0x0 DUP4 DUP2 MSTORE PUSH1 0x2 PUSH1 0x20 SWAP1 DUP2 MSTORE PUSH1 0x40 DUP1 DUP4 KECCAK256 PUSH1 0x1 PUSH1 0x1 PUSH1 0xA0 SHL SUB DUP7 AND DUP1 DUP6 MSTORE PUSH1 0x9 SWAP1 SWAP2 ADD DUP4 MSTORE SWAP3 DUP2 SWAP1 KECCAK256 PUSH1 0x1 SWAP1 SSTORE DUP1 MLOAD SWAP3 DUP4 MSTORE SWAP1 DUP3 ADD DUP6 SWAP1 MSTORE PUSH32 0x9F2DEEFFF0A36949D580CDD4BA9959B4A94786E786BAD5650001B58B625FBBB1 SWAP2 ADD PUSH2 0x8B1 JUMP JUMPDEST PUSH1 0x0 DUP3 DUP2 MSTORE PUSH1 0x20 DUP2 SWAP1 MSTORE PUSH1 0x40 SWAP1 KECCAK256 PUSH1 0x1 ADD SLOAD PUSH2 0xFCA DUP2 PUSH2 0x1429 JUMP JUMPDEST PUSH2 0x7B6 DUP4 DUP4 PUSH2 0x14B7 JUMP JUMPDEST PUSH1 0x0 DUP2 DUP2 MSTORE PUSH1 0x2 PUSH1 0x20 SWAP1 DUP2 MSTORE PUSH1 0x40 DUP1 DUP4 KECCAK256 CALLER DUP5 MSTORE PUSH1 0x9 ADD SWAP1 SWAP2 MSTORE SWAP1 KECCAK256 SLOAD PUSH1 0x1 EQ PUSH2 0x104A JUMPI PUSH1 0x40 MLOAD PUSH3 0x461BCD PUSH1 0xE5 SHL DUP2 MSTORE PUSH1 0x20 PUSH1 0x4 DUP3 ADD MSTORE PUSH1 0x21 PUSH1 0x24 DUP3 ADD MSTORE PUSH32 0x54726F706879204B696E67204172636164653A20556E617574686F72697A6564 PUSH1 0x44 DUP3 ADD MSTORE PUSH1 0x17 PUSH1 0xF9 SHL PUSH1 0x64 DUP3 ADD MSTORE PUSH1 0x84 ADD PUSH2 0x7AB JUMP JUMPDEST PUSH1 0x0 DUP2 DUP2 MSTORE PUSH1 0x2 PUSH1 0x20 MSTORE PUSH1 0x40 SWAP1 KECCAK256 PUSH1 0x4 ADD SLOAD PUSH1 0x1 EQ PUSH2 0x10AB JUMPI PUSH1 0x40 MLOAD PUSH3 0x461BCD PUSH1 0xE5 SHL DUP2 MSTORE PUSH1 0x20 PUSH1 0x4 DUP3 ADD DUP2 SWAP1 MSTORE PUSH1 0x24 DUP3 ADD MSTORE PUSH32 0x54726F706879204B696E67204172636164653A2047616D6520636C6F7365642E PUSH1 0x44 DUP3 ADD MSTORE PUSH1 0x64 ADD PUSH2 0x7AB JUMP JUMPDEST PUSH1 0x0 DUP2 DUP2 MSTORE PUSH1 0x2 PUSH1 0x20 DUP2 SWAP1 MSTORE PUSH1 0x40 SWAP1 SWAP2 KECCAK256 PUSH1 0x1 DUP2 ADD SLOAD SWAP2 ADD SLOAD GT PUSH2 0x1124 JUMPI PUSH1 0x40 MLOAD PUSH3 0x461BCD PUSH1 0xE5 SHL DUP2 MSTORE PUSH1 0x20 PUSH1 0x4 DUP3 ADD MSTORE PUSH1 0x2A PUSH1 0x24 DUP3 ADD MSTORE PUSH32 0x54726F706879204B696E67204172636164653A2047616D652066756C6C2E2020 PUSH1 0x44 DUP3 ADD MSTORE PUSH10 0x2A393C9030B3B0B4B717 PUSH1 0xB1 SHL PUSH1 0x64 DUP3 ADD MSTORE PUSH1 0x84 ADD PUSH2 0x7AB JUMP JUMPDEST PUSH1 0x0 DUP2 DUP2 MSTORE PUSH1 0x2 PUSH1 0x20 SWAP1 DUP2 MSTORE PUSH1 0x40 DUP1 DUP4 KECCAK256 CALLER DUP5 MSTORE PUSH1 0x8 ADD SWAP1 SWAP2 MSTORE SWAP1 KECCAK256 SLOAD ISZERO PUSH2 0x119E JUMPI PUSH1 0x40 MLOAD PUSH3 0x461BCD PUSH1 0xE5 SHL DUP2 MSTORE PUSH1 0x20 PUSH1 0x4 DUP3 ADD MSTORE PUSH1 0x27 PUSH1 0x24 DUP3 ADD MSTORE PUSH32 0x54726F706879204B696E67204172636164653A20416C72656164792072656769 PUSH1 0x44 DUP3 ADD MSTORE PUSH7 0x39BA32B932B217 PUSH1 0xC9 SHL PUSH1 0x64 DUP3 ADD MSTORE PUSH1 0x84 ADD PUSH2 0x7AB JUMP JUMPDEST PUSH1 0x0 DUP2 DUP2 MSTORE PUSH1 0x2 PUSH1 0x20 DUP2 SWAP1 MSTORE PUSH1 0x40 SWAP1 SWAP2 KECCAK256 ADD SLOAD PUSH2 0x1209 JUMPI PUSH1 0x40 MLOAD PUSH3 0x461BCD PUSH1 0xE5 SHL DUP2 MSTORE PUSH1 0x20 PUSH1 0x4 DUP3 ADD MSTORE PUSH1 0x23 PUSH1 0x24 DUP3 ADD MSTORE PUSH32 0x54726F706879204B696E67204172636164653A2047616D65206E6F7420666F75 PUSH1 0x44 DUP3 ADD MSTORE PUSH3 0x373217 PUSH1 0xE9 SHL PUSH1 0x64 DUP3 ADD MSTORE PUSH1 0x84 ADD PUSH2 0x7AB JUMP JUMPDEST PUSH1 0x0 DUP2 DUP2 MSTORE PUSH1 0x2 PUSH1 0x20 SWAP1 DUP2 MSTORE PUSH1 0x40 DUP1 DUP4 KECCAK256 PUSH1 0x5 ADD SLOAD PUSH1 0x1 PUSH1 0x1 PUSH1 0xA0 SHL SUB SWAP1 DUP2 AND DUP5 MSTORE PUSH1 0x1 SWAP1 SWAP3 MSTORE SWAP1 SWAP2 KECCAK256 SLOAD AND PUSH4 0x23B872DD CALLER PUSH1 0x0 DUP5 DUP2 MSTORE PUSH1 0x2 PUSH1 0x20 MSTORE PUSH1 0x40 SWAP1 DUP2 SWAP1 KECCAK256 PUSH1 0x3 ADD SLOAD SWAP1 MLOAD PUSH1 0xE0 DUP5 SWAP1 SHL PUSH1 0x1 PUSH1 0x1 PUSH1 0xE0 SHL SUB NOT AND DUP2 MSTORE PUSH1 0x1 PUSH1 0x1 PUSH1 0xA0 SHL SUB SWAP1 SWAP3 AND PUSH1 0x4 DUP4 ADD MSTORE ADDRESS PUSH1 0x24 DUP4 ADD MSTORE PUSH1 0x44 DUP3 ADD MSTORE PUSH1 0x64 ADD PUSH1 0x20 PUSH1 0x40 MLOAD DUP1 DUP4 SUB DUP2 PUSH1 0x0 DUP8 DUP1 EXTCODESIZE ISZERO DUP1 ISZERO PUSH2 0x129A JUMPI PUSH1 0x0 DUP1 REVERT JUMPDEST POP GAS CALL ISZERO DUP1 ISZERO PUSH2 0x12AE JUMPI RETURNDATASIZE PUSH1 0x0 DUP1 RETURNDATACOPY RETURNDATASIZE PUSH1 0x0 REVERT JUMPDEST POP POP POP POP PUSH1 0x40 MLOAD RETURNDATASIZE PUSH1 0x1F NOT PUSH1 0x1F DUP3 ADD AND DUP3 ADD DUP1 PUSH1 0x40 MSTORE POP DUP2 ADD SWAP1 PUSH2 0x12D2 SWAP2 SWAP1 PUSH2 0x188A JUMP JUMPDEST PUSH2 0x1339 JUMPI PUSH1 0x40 MLOAD PUSH3 0x461BCD PUSH1 0xE5 SHL DUP2 MSTORE PUSH1 0x20 PUSH1 0x4 DUP3 ADD MSTORE PUSH1 0x32 PUSH1 0x24 DUP3 ADD MSTORE PUSH32 0x54726F706879204B696E67204172636164653A204D75737420617070726F7665 PUSH1 0x44 DUP3 ADD MSTORE PUSH18 0x103932B3B4B9BA3930BA34B7B7103332B297 PUSH1 0x71 SHL PUSH1 0x64 DUP3 ADD MSTORE PUSH1 0x84 ADD PUSH2 0x7AB JUMP JUMPDEST PUSH1 0x0 DUP2 DUP2 MSTORE PUSH1 0x2 PUSH1 0x20 MSTORE PUSH1 0x40 SWAP1 KECCAK256 PUSH1 0x3 ADD SLOAD PUSH2 0x1358 SWAP1 DUP3 SWAP1 CALLER SWAP1 PUSH2 0x151C JUMP JUMPDEST POP JUMP JUMPDEST PUSH1 0x0 PUSH2 0x1366 DUP2 PUSH2 0x1429 JUMP JUMPDEST PUSH1 0x0 DUP7 DUP2 MSTORE PUSH1 0x2 PUSH1 0x20 DUP2 DUP2 MSTORE PUSH1 0x40 DUP1 DUP5 KECCAK256 PUSH1 0x1 PUSH1 0x4 DUP3 ADD DUP2 SWAP1 SSTORE PUSH1 0x6 DUP3 ADD DUP7 SWAP1 SSTORE PUSH1 0x3 DUP3 ADD DUP12 SWAP1 SSTORE PUSH1 0x5 DUP3 ADD DUP1 SLOAD PUSH1 0x1 PUSH1 0x1 PUSH1 0xA0 SHL SUB NOT AND PUSH1 0x1 PUSH1 0x1 PUSH1 0xA0 SHL SUB DUP13 AND OR SWAP1 SSTORE DUP2 ADD SWAP5 SWAP1 SWAP5 SSTORE SWAP2 DUP4 ADD DUP7 SWAP1 SSTORE DUP3 SLOAD PUSH1 0xFF NOT AND DUP6 ISZERO ISZERO OR SWAP1 SWAP3 SSTORE MLOAD DUP8 DUP2 MSTORE PUSH32 0x9E5237C6A8BB45DF74799CF138EBDA4FED0574BED906DA41387ACDC4A3CBE3D8 SWAP2 ADD PUSH1 0x40 MLOAD DUP1 SWAP2 SUB SWAP1 LOG1 POP POP POP POP POP POP JUMP JUMPDEST PUSH1 0x0 PUSH2 0x1406 DUP2 PUSH2 0x1429 JUMP JUMPDEST POP PUSH1 0x6 DUP1 SLOAD PUSH1 0x1 PUSH1 0x1 PUSH1 0xA0 SHL SUB NOT AND PUSH1 0x1 PUSH1 0x1 PUSH1 0xA0 SHL SUB SWAP3 SWAP1 SWAP3 AND SWAP2 SWAP1 SWAP2 OR SWAP1 SSTORE JUMP JUMPDEST PUSH2 0x1358 DUP2 CALLER PUSH2 0x15C8 JUMP JUMPDEST PUSH2 0x143D DUP3 DUP3 PUSH2 0xC74 JUMP JUMPDEST PUSH2 0x9AE JUMPI PUSH1 0x0 DUP3 DUP2 MSTORE PUSH1 0x20 DUP2 DUP2 MSTORE PUSH1 0x40 DUP1 DUP4 KECCAK256 PUSH1 0x1 PUSH1 0x1 PUSH1 0xA0 SHL SUB DUP6 AND DUP5 MSTORE SWAP1 SWAP2 MSTORE SWAP1 KECCAK256 DUP1 SLOAD PUSH1 0xFF NOT AND PUSH1 0x1 OR SWAP1 SSTORE PUSH2 0x1473 CALLER SWAP1 JUMP JUMPDEST PUSH1 0x1 PUSH1 0x1 PUSH1 0xA0 SHL SUB AND DUP2 PUSH1 0x1 PUSH1 0x1 PUSH1 0xA0 SHL SUB AND DUP4 PUSH32 0x2F8788117E7EFF1D82E926EC794901D17C78024A50270940304540A733656F0D PUSH1 0x40 MLOAD PUSH1 0x40 MLOAD DUP1 SWAP2 SUB SWAP1 LOG4 POP POP JUMP JUMPDEST PUSH2 0x14C1 DUP3 DUP3 PUSH2 0xC74 JUMP JUMPDEST ISZERO PUSH2 0x9AE JUMPI PUSH1 0x0 DUP3 DUP2 MSTORE PUSH1 0x20 DUP2 DUP2 MSTORE PUSH1 0x40 DUP1 DUP4 KECCAK256 PUSH1 0x1 PUSH1 0x1 PUSH1 0xA0 SHL SUB DUP6 AND DUP1 DUP6 MSTORE SWAP3 MSTORE DUP1 DUP4 KECCAK256 DUP1 SLOAD PUSH1 0xFF NOT AND SWAP1 SSTORE MLOAD CALLER SWAP3 DUP6 SWAP2 PUSH32 0xF6391F5C32D9C69D2A47EA670B442974B53935D1EDC7FD64EB21E047A839171B SWAP2 SWAP1 LOG4 POP POP JUMP JUMPDEST PUSH1 0x0 DUP4 DUP2 MSTORE PUSH1 0x2 PUSH1 0x20 MSTORE PUSH1 0x40 DUP2 KECCAK256 PUSH1 0x1 DUP1 DUP3 ADD DUP1 SLOAD SWAP3 SWAP4 SWAP2 SWAP3 SWAP1 SWAP2 SWAP1 PUSH2 0x1543 SWAP1 DUP5 SWAP1 PUSH2 0x1A53 JUMP JUMPDEST SWAP1 SWAP2 SSTORE POP POP PUSH1 0x1 PUSH1 0x1 PUSH1 0xA0 SHL SUB DUP4 AND PUSH1 0x0 SWAP1 DUP2 MSTORE PUSH1 0x7 DUP3 ADD PUSH1 0x20 SWAP1 DUP2 MSTORE PUSH1 0x40 DUP1 DUP4 KECCAK256 DUP6 SWAP1 SSTORE PUSH1 0x8 DUP5 ADD SWAP1 SWAP2 MSTORE DUP2 KECCAK256 PUSH1 0x1 SWAP1 SSTORE PUSH1 0x6 DUP3 ADD DUP1 SLOAD DUP5 SWAP3 SWAP1 PUSH2 0x1589 SWAP1 DUP5 SWAP1 PUSH2 0x1A53 JUMP JUMPDEST SWAP1 SWAP2 SSTORE POP POP PUSH1 0x40 MLOAD DUP5 DUP2 MSTORE CALLER SWAP1 PUSH31 0x7DC6AB80CC84C043B7B8D4FCAFC802187470087F7EA7FCCD2E17AECD0256A1 SWAP1 PUSH1 0x20 ADD PUSH1 0x40 MLOAD DUP1 SWAP2 SUB SWAP1 LOG2 POP POP POP POP JUMP JUMPDEST PUSH2 0x15D2 DUP3 DUP3 PUSH2 0xC74 JUMP JUMPDEST PUSH2 0x9AE JUMPI PUSH2 0x15EA DUP2 PUSH1 0x1 PUSH1 0x1 PUSH1 0xA0 SHL SUB AND PUSH1 0x14 PUSH2 0x162C JUMP JUMPDEST PUSH2 0x15F5 DUP4 PUSH1 0x20 PUSH2 0x162C JUMP JUMPDEST PUSH1 0x40 MLOAD PUSH1 0x20 ADD PUSH2 0x1606 SWAP3 SWAP2 SWAP1 PUSH2 0x1964 JUMP JUMPDEST PUSH1 0x40 DUP1 MLOAD PUSH1 0x1F NOT DUP2 DUP5 SUB ADD DUP2 MSTORE SWAP1 DUP3 SWAP1 MSTORE PUSH3 0x461BCD PUSH1 0xE5 SHL DUP3 MSTORE PUSH2 0x7AB SWAP2 PUSH1 0x4 ADD PUSH2 0x19D9 JUMP JUMPDEST PUSH1 0x60 PUSH1 0x0 PUSH2 0x163B DUP4 PUSH1 0x2 PUSH2 0x1A8B JUMP JUMPDEST PUSH2 0x1646 SWAP1 PUSH1 0x2 PUSH2 0x1A53 JUMP JUMPDEST PUSH8 0xFFFFFFFFFFFFFFFF DUP2 GT ISZERO PUSH2 0x166C JUMPI PUSH4 0x4E487B71 PUSH1 0xE0 SHL PUSH1 0x0 MSTORE PUSH1 0x41 PUSH1 0x4 MSTORE PUSH1 0x24 PUSH1 0x0 REVERT JUMPDEST PUSH1 0x40 MLOAD SWAP1 DUP1 DUP3 MSTORE DUP1 PUSH1 0x1F ADD PUSH1 0x1F NOT AND PUSH1 0x20 ADD DUP3 ADD PUSH1 0x40 MSTORE DUP1 ISZERO PUSH2 0x1696 JUMPI PUSH1 0x20 DUP3 ADD DUP2 DUP1 CALLDATASIZE DUP4 CALLDATACOPY ADD SWAP1 POP JUMPDEST POP SWAP1 POP PUSH1 0x3 PUSH1 0xFC SHL DUP2 PUSH1 0x0 DUP2 MLOAD DUP2 LT PUSH2 0x16BF JUMPI PUSH4 0x4E487B71 PUSH1 0xE0 SHL PUSH1 0x0 MSTORE PUSH1 0x32 PUSH1 0x4 MSTORE PUSH1 0x24 PUSH1 0x0 REVERT JUMPDEST PUSH1 0x20 ADD ADD SWAP1 PUSH1 0x1 PUSH1 0x1 PUSH1 0xF8 SHL SUB NOT AND SWAP1 DUP2 PUSH1 0x0 BYTE SWAP1 MSTORE8 POP PUSH1 0xF PUSH1 0xFB SHL DUP2 PUSH1 0x1 DUP2 MLOAD DUP2 LT PUSH2 0x16FC JUMPI PUSH4 0x4E487B71 PUSH1 0xE0 SHL PUSH1 0x0 MSTORE PUSH1 0x32 PUSH1 0x4 MSTORE PUSH1 0x24 PUSH1 0x0 REVERT JUMPDEST PUSH1 0x20 ADD ADD SWAP1 PUSH1 0x1 PUSH1 0x1 PUSH1 0xF8 SHL SUB NOT AND SWAP1 DUP2 PUSH1 0x0 BYTE SWAP1 MSTORE8 POP PUSH1 0x0 PUSH2 0x1720 DUP5 PUSH1 0x2 PUSH2 0x1A8B JUMP JUMPDEST PUSH2 0x172B SWAP1 PUSH1 0x1 PUSH2 0x1A53 JUMP JUMPDEST SWAP1 POP JUMPDEST PUSH1 0x1 DUP2 GT ISZERO PUSH2 0x17BF JUMPI PUSH16 0x181899199A1A9B1B9C1CB0B131B232B3 PUSH1 0x81 SHL DUP6 PUSH1 0xF AND PUSH1 0x10 DUP2 LT PUSH2 0x176D JUMPI PUSH4 0x4E487B71 PUSH1 0xE0 SHL PUSH1 0x0 MSTORE PUSH1 0x32 PUSH1 0x4 MSTORE PUSH1 0x24 PUSH1 0x0 REVERT JUMPDEST BYTE PUSH1 0xF8 SHL DUP3 DUP3 DUP2 MLOAD DUP2 LT PUSH2 0x1791 JUMPI PUSH4 0x4E487B71 PUSH1 0xE0 SHL PUSH1 0x0 MSTORE PUSH1 0x32 PUSH1 0x4 MSTORE PUSH1 0x24 PUSH1 0x0 REVERT JUMPDEST PUSH1 0x20 ADD ADD SWAP1 PUSH1 0x1 PUSH1 0x1 PUSH1 0xF8 SHL SUB NOT AND SWAP1 DUP2 PUSH1 0x0 BYTE SWAP1 MSTORE8 POP PUSH1 0x4 SWAP5 SWAP1 SWAP5 SHR SWAP4 PUSH2 0x17B8 DUP2 PUSH2 0x1AED JUMP JUMPDEST SWAP1 POP PUSH2 0x172E JUMP JUMPDEST POP DUP4 ISZERO PUSH2 0x180E JUMPI PUSH1 0x40 MLOAD PUSH3 0x461BCD PUSH1 0xE5 SHL DUP2 MSTORE PUSH1 0x20 PUSH1 0x4 DUP3 ADD DUP2 SWAP1 MSTORE PUSH1 0x24 DUP3 ADD MSTORE PUSH32 0x537472696E67733A20686578206C656E67746820696E73756666696369656E74 PUSH1 0x44 DUP3 ADD MSTORE PUSH1 0x64 ADD PUSH2 0x7AB JUMP JUMPDEST SWAP4 SWAP3 POP POP POP JUMP JUMPDEST DUP1 CALLDATALOAD PUSH1 0x1 PUSH1 0x1 PUSH1 0xA0 SHL SUB DUP2 AND DUP2 EQ PUSH2 0x182C JUMPI PUSH1 0x0 DUP1 REVERT JUMPDEST SWAP2 SWAP1 POP JUMP JUMPDEST PUSH1 0x0 PUSH1 0x20 DUP3 DUP5 SUB SLT ISZERO PUSH2 0x1842 JUMPI DUP1 DUP2 REVERT JUMPDEST PUSH2 0x180E DUP3 PUSH2 0x1815 JUMP JUMPDEST PUSH1 0x0 DUP1 PUSH1 0x0 PUSH1 0x60 DUP5 DUP7 SUB SLT ISZERO PUSH2 0x185F JUMPI DUP2 DUP3 REVERT JUMPDEST PUSH2 0x1868 DUP5 PUSH2 0x1815 JUMP JUMPDEST SWAP3 POP PUSH1 0x20 DUP5 ADD CALLDATALOAD SWAP2 POP PUSH1 0x40 DUP5 ADD CALLDATALOAD PUSH2 0x187F DUP2 PUSH2 0x1B1A JUMP JUMPDEST DUP1 SWAP2 POP POP SWAP3 POP SWAP3 POP SWAP3 JUMP JUMPDEST PUSH1 0x0 PUSH1 0x20 DUP3 DUP5 SUB SLT ISZERO PUSH2 0x189B JUMPI DUP1 DUP2 REVERT JUMPDEST DUP2 MLOAD PUSH2 0x180E DUP2 PUSH2 0x1B1A JUMP JUMPDEST PUSH1 0x0 PUSH1 0x20 DUP3 DUP5 SUB SLT ISZERO PUSH2 0x18B7 JUMPI DUP1 DUP2 REVERT JUMPDEST POP CALLDATALOAD SWAP2 SWAP1 POP JUMP JUMPDEST PUSH1 0x0 DUP1 PUSH1 0x40 DUP4 DUP6 SUB SLT ISZERO PUSH2 0x18D0 JUMPI DUP2 DUP3 REVERT JUMPDEST DUP3 CALLDATALOAD SWAP2 POP PUSH2 0x18E0 PUSH1 0x20 DUP5 ADD PUSH2 0x1815 JUMP JUMPDEST SWAP1 POP SWAP3 POP SWAP3 SWAP1 POP JUMP JUMPDEST PUSH1 0x0 PUSH1 0x20 DUP3 DUP5 SUB SLT ISZERO PUSH2 0x18FA JUMPI DUP1 DUP2 REVERT JUMPDEST DUP2 CALLDATALOAD PUSH1 0x1 PUSH1 0x1 PUSH1 0xE0 SHL SUB NOT DUP2 AND DUP2 EQ PUSH2 0x180E JUMPI DUP2 DUP3 REVERT JUMPDEST PUSH1 0x0 DUP1 PUSH1 0x0 DUP1 PUSH1 0x0 PUSH1 0xA0 DUP7 DUP9 SUB SLT ISZERO PUSH2 0x1928 JUMPI DUP1 DUP2 REVERT JUMPDEST DUP6 CALLDATALOAD SWAP5 POP PUSH1 0x20 DUP7 ADD CALLDATALOAD SWAP4 POP PUSH2 0x193F PUSH1 0x40 DUP8 ADD PUSH2 0x1815 JUMP JUMPDEST SWAP3 POP PUSH1 0x60 DUP7 ADD CALLDATALOAD SWAP2 POP PUSH1 0x80 DUP7 ADD CALLDATALOAD PUSH2 0x1956 DUP2 PUSH2 0x1B1A JUMP JUMPDEST DUP1 SWAP2 POP POP SWAP3 SWAP6 POP SWAP3 SWAP6 SWAP1 SWAP4 POP JUMP JUMPDEST PUSH32 0x416363657373436F6E74726F6C3A206163636F756E7420000000000000000000 DUP2 MSTORE PUSH1 0x0 DUP4 MLOAD PUSH2 0x199C DUP2 PUSH1 0x17 DUP6 ADD PUSH1 0x20 DUP9 ADD PUSH2 0x1AC1 JUMP JUMPDEST PUSH17 0x1034B99036B4B9B9B4B733903937B6329 PUSH1 0x7D SHL PUSH1 0x17 SWAP2 DUP5 ADD SWAP2 DUP3 ADD MSTORE DUP4 MLOAD PUSH2 0x19CD DUP2 PUSH1 0x28 DUP5 ADD PUSH1 0x20 DUP9 ADD PUSH2 0x1AC1 JUMP JUMPDEST ADD PUSH1 0x28 ADD SWAP5 SWAP4 POP POP POP POP JUMP JUMPDEST PUSH1 0x20 DUP2 MSTORE PUSH1 0x0 DUP3 MLOAD DUP1 PUSH1 0x20 DUP5 ADD MSTORE PUSH2 0x19F8 DUP2 PUSH1 0x40 DUP6 ADD PUSH1 0x20 DUP8 ADD PUSH2 0x1AC1 JUMP JUMPDEST PUSH1 0x1F ADD PUSH1 0x1F NOT AND SWAP2 SWAP1 SWAP2 ADD PUSH1 0x40 ADD SWAP3 SWAP2 POP POP JUMP JUMPDEST PUSH1 0x20 DUP1 DUP3 MSTORE PUSH1 0x27 SWAP1 DUP3 ADD MSTORE PUSH32 0x54726F706879204B696E67204172636164653A20556E61626C6520746F207472 PUSH1 0x40 DUP3 ADD MSTORE PUSH7 0x30B739B332B917 PUSH1 0xC9 SHL PUSH1 0x60 DUP3 ADD MSTORE PUSH1 0x80 ADD SWAP1 JUMP JUMPDEST PUSH1 0x0 DUP3 NOT DUP3 GT ISZERO PUSH2 0x1A66 JUMPI PUSH2 0x1A66 PUSH2 0x1B04 JUMP JUMPDEST POP ADD SWAP1 JUMP JUMPDEST PUSH1 0x0 DUP3 PUSH2 0x1A86 JUMPI PUSH4 0x4E487B71 PUSH1 0xE0 SHL DUP2 MSTORE PUSH1 0x12 PUSH1 0x4 MSTORE PUSH1 0x24 DUP2 REVERT JUMPDEST POP DIV SWAP1 JUMP JUMPDEST PUSH1 0x0 DUP2 PUSH1 0x0 NOT DIV DUP4 GT DUP3 ISZERO ISZERO AND ISZERO PUSH2 0x1AA5 JUMPI PUSH2 0x1AA5 PUSH2 0x1B04 JUMP JUMPDEST POP MUL SWAP1 JUMP JUMPDEST PUSH1 0x0 DUP3 DUP3 LT ISZERO PUSH2 0x1ABC JUMPI PUSH2 0x1ABC PUSH2 0x1B04 JUMP JUMPDEST POP SUB SWAP1 JUMP JUMPDEST PUSH1 0x0 JUMPDEST DUP4 DUP2 LT ISZERO PUSH2 0x1ADC JUMPI DUP2 DUP2 ADD MLOAD DUP4 DUP3 ADD MSTORE PUSH1 0x20 ADD PUSH2 0x1AC4 JUMP JUMPDEST DUP4 DUP2 GT ISZERO PUSH2 0x7B4 JUMPI POP POP PUSH1 0x0 SWAP2 ADD MSTORE JUMP JUMPDEST PUSH1 0x0 DUP2 PUSH2 0x1AFC JUMPI PUSH2 0x1AFC PUSH2 0x1B04 JUMP JUMPDEST POP PUSH1 0x0 NOT ADD SWAP1 JUMP JUMPDEST PUSH4 0x4E487B71 PUSH1 0xE0 SHL PUSH1 0x0 MSTORE PUSH1 0x11 PUSH1 0x4 MSTORE PUSH1 0x24 PUSH1 0x0 REVERT JUMPDEST DUP1 ISZERO ISZERO DUP2 EQ PUSH2 0x1358 JUMPI PUSH1 0x0 DUP1 REVERT INVALID LOG2 PUSH5 0x6970667358 0x22 SLT KECCAK256 DUP6 PUSH5 0x532C308C96 SWAP8 DUP15 ADD 0x5F 0x4F CALLDATASIZE 0xA7 0xE5 0xA5 0xB5 PUSH18 0xF7337B9058C15915C0356A64F38464736F6C PUSH4 0x43000804 STOP CALLER "
				},
				"gasEstimates": {
					"creation": {
						"codeDepositCost": "1401200",
						"executionCost": "103489",
						"totalCost": "1504689"
					},
					"external": {
						"DEFAULT_ADMIN_ROLE()": "262",
						"TREASURER_ROLE()": "239",
						"acceptedArcadeTokens(address)": "2239",
						"addArcadeToken(address,uint256,bool)": "infinite",
						"closeGame(uint256)": "infinite",
						"createGame(uint256,uint256,address,uint256,bool)": "infinite",
						"decimals()": "1107",
						"deleteGame(uint256)": "infinite",
						"fee_percentage()": "1040",
						"gameData(uint256)": "6281",
						"getRoleAdmin(bytes32)": "1237",
						"getStablecoin(address)": "2200",
						"grantRole(bytes32,address)": "infinite",
						"hasRole(bytes32,address)": "1441",
						"isAccepted(address)": "1366",
						"market_maker()": "1148",
						"openGame(uint256)": "infinite",
						"owner()": "1105",
						"placePlayer(uint256,address)": "infinite",
						"reconcile(address)": "infinite",
						"refund(uint256,address)": "infinite",
						"register(uint256)": "infinite",
						"removeArcadeToken(address)": "infinite",
						"removePlayer(uint256,address)": "infinite",
						"renounceRole(bytes32,address)": "24340",
						"revokeRole(bytes32,address)": "infinite",
						"setArcadeFeePercentage(uint256)": "infinite",
						"setMarketMaker(address)": "infinite",
						"setWinner(uint256,address)": "infinite",
						"supportsInterface(bytes4)": "495"
					},
					"internal": {
						"_register(uint256,address,uint256)": "infinite"
					}
				},
				"methodIdentifiers": {
					"DEFAULT_ADMIN_ROLE()": "a217fddf",
					"TREASURER_ROLE()": "f0a3a97c",
					"acceptedArcadeTokens(address)": "b22c376d",
					"addArcadeToken(address,uint256,bool)": "06602a48",
					"closeGame(uint256)": "2d6ef310",
					"createGame(uint256,uint256,address,uint256,bool)": "f336ee3c",
					"decimals()": "313ce567",
					"deleteGame(uint256)": "248a55a1",
					"fee_percentage()": "c46ed45a",
					"gameData(uint256)": "ccaf237f",
					"getRoleAdmin(bytes32)": "248a9ca3",
					"getStablecoin(address)": "4575624b",
					"grantRole(bytes32,address)": "2f2ff15d",
					"hasRole(bytes32,address)": "91d14854",
					"isAccepted(address)": "e6f091f9",
					"market_maker()": "75ca7603",
					"openGame(uint256)": "00f5544f",
					"owner()": "8da5cb5b",
					"placePlayer(uint256,address)": "b9888d89",
					"reconcile(address)": "09a18635",
					"refund(uint256,address)": "7ad226dc",
					"register(uint256)": "f207564e",
					"removeArcadeToken(address)": "3e16518f",
					"removePlayer(uint256,address)": "2ba67100",
					"renounceRole(bytes32,address)": "36568abe",
					"revokeRole(bytes32,address)": "d547741f",
					"setArcadeFeePercentage(uint256)": "2ac5016f",
					"setMarketMaker(address)": "f54c42d7",
					"setWinner(uint256,address)": "9c623683",
					"supportsInterface(bytes4)": "01ffc9a7"
				}
			},
			"storageLayout": {
				"storage": [
					{
						"astId": 24,
						"contract": "contracts/Arcade.sol:Arcade",
						"label": "_roles",
						"offset": 0,
						"slot": "0",
						"type": "t_mapping(t_bytes32,t_struct(RoleData)19_storage)"
					},
					{
						"astId": 1757,
						"contract": "contracts/Arcade.sol:Arcade",
						"label": "acceptedArcadeTokens",
						"offset": 0,
						"slot": "1",
						"type": "t_mapping(t_address,t_struct(ArcadeToken)1752_storage)"
					},
					{
						"astId": 1762,
						"contract": "contracts/Arcade.sol:Arcade",
						"label": "gameData",
						"offset": 0,
						"slot": "2",
						"type": "t_mapping(t_uint256,t_struct(GameInfo)1744_storage)"
					},
					{
						"astId": 1765,
						"contract": "contracts/Arcade.sol:Arcade",
						"label": "decimals",
						"offset": 0,
						"slot": "3",
						"type": "t_uint256"
					},
					{
						"astId": 1767,
						"contract": "contracts/Arcade.sol:Arcade",
						"label": "fee_percentage",
						"offset": 0,
						"slot": "4",
						"type": "t_uint256"
					},
					{
						"astId": 1776,
						"contract": "contracts/Arcade.sol:Arcade",
						"label": "base",
						"offset": 0,
						"slot": "5",
						"type": "t_uint256"
					},
					{
						"astId": 1778,
						"contract": "contracts/Arcade.sol:Arcade",
						"label": "market_maker",
						"offset": 0,
						"slot": "6",
						"type": "t_address"
					},
					{
						"astId": 1780,
						"contract": "contracts/Arcade.sol:Arcade",
						"label": "owner",
						"offset": 0,
						"slot": "7",
						"type": "t_address"
					}
				],
				"types": {
					"t_address": {
						"encoding": "inplace",
						"label": "address",
						"numberOfBytes": "20"
					},
					"t_bool": {
						"encoding": "inplace",
						"label": "bool",
						"numberOfBytes": "1"
					},
					"t_bytes32": {
						"encoding": "inplace",
						"label": "bytes32",
						"numberOfBytes": "32"
					},
					"t_contract(IERC20)1056": {
						"encoding": "inplace",
						"label": "contract IERC20",
						"numberOfBytes": "20"
					},
					"t_mapping(t_address,t_bool)": {
						"encoding": "mapping",
						"key": "t_address",
						"label": "mapping(address => bool)",
						"numberOfBytes": "32",
						"value": "t_bool"
					},
					"t_mapping(t_address,t_struct(ArcadeToken)1752_storage)": {
						"encoding": "mapping",
						"key": "t_address",
						"label": "mapping(address => struct Arcade.ArcadeToken)",
						"numberOfBytes": "32",
						"value": "t_struct(ArcadeToken)1752_storage"
					},
					"t_mapping(t_address,t_uint256)": {
						"encoding": "mapping",
						"key": "t_address",
						"label": "mapping(address => uint256)",
						"numberOfBytes": "32",
						"value": "t_uint256"
					},
					"t_mapping(t_bytes32,t_struct(RoleData)19_storage)": {
						"encoding": "mapping",
						"key": "t_bytes32",
						"label": "mapping(bytes32 => struct AccessControl.RoleData)",
						"numberOfBytes": "32",
						"value": "t_struct(RoleData)19_storage"
					},
					"t_mapping(t_uint256,t_struct(GameInfo)1744_storage)": {
						"encoding": "mapping",
						"key": "t_uint256",
						"label": "mapping(uint256 => struct Arcade.GameInfo)",
						"numberOfBytes": "32",
						"value": "t_struct(GameInfo)1744_storage"
					},
					"t_struct(ArcadeToken)1752_storage": {
						"encoding": "inplace",
						"label": "struct Arcade.ArcadeToken",
						"members": [
							{
								"astId": 1747,
								"contract": "contracts/Arcade.sol:Arcade",
								"label": "native_token",
								"offset": 0,
								"slot": "0",
								"type": "t_contract(IERC20)1056"
							},
							{
								"astId": 1749,
								"contract": "contracts/Arcade.sol:Arcade",
								"label": "active",
								"offset": 20,
								"slot": "0",
								"type": "t_bool"
							},
							{
								"astId": 1751,
								"contract": "contracts/Arcade.sol:Arcade",
								"label": "redemption_rate",
								"offset": 0,
								"slot": "1",
								"type": "t_uint256"
							}
						],
						"numberOfBytes": "64"
					},
					"t_struct(GameInfo)1744_storage": {
						"encoding": "inplace",
						"label": "struct Arcade.GameInfo",
						"members": [
							{
								"astId": 1719,
								"contract": "contracts/Arcade.sol:Arcade",
								"label": "exchange",
								"offset": 0,
								"slot": "0",
								"type": "t_bool"
							},
							{
								"astId": 1721,
								"contract": "contracts/Arcade.sol:Arcade",
								"label": "player_count",
								"offset": 0,
								"slot": "1",
								"type": "t_uint256"
							},
							{
								"astId": 1723,
								"contract": "contracts/Arcade.sol:Arcade",
								"label": "player_limit",
								"offset": 0,
								"slot": "2",
								"type": "t_uint256"
							},
							{
								"astId": 1725,
								"contract": "contracts/Arcade.sol:Arcade",
								"label": "registration_fee",
								"offset": 0,
								"slot": "3",
								"type": "t_uint256"
							},
							{
								"astId": 1727,
								"contract": "contracts/Arcade.sol:Arcade",
								"label": "status",
								"offset": 0,
								"slot": "4",
								"type": "t_uint256"
							},
							{
								"astId": 1729,
								"contract": "contracts/Arcade.sol:Arcade",
								"label": "arcade_token",
								"offset": 0,
								"slot": "5",
								"type": "t_address"
							},
							{
								"astId": 1731,
								"contract": "contracts/Arcade.sol:Arcade",
								"label": "total_fee",
								"offset": 0,
								"slot": "6",
								"type": "t_uint256"
							},
							{
								"astId": 1735,
								"contract": "contracts/Arcade.sol:Arcade",
								"label": "fee",
								"offset": 0,
								"slot": "7",
								"type": "t_mapping(t_address,t_uint256)"
							},
							{
								"astId": 1739,
								"contract": "contracts/Arcade.sol:Arcade",
								"label": "paid",
								"offset": 0,
								"slot": "8",
								"type": "t_mapping(t_address,t_uint256)"
							},
							{
								"astId": 1743,
								"contract": "contracts/Arcade.sol:Arcade",
								"label": "seats",
								"offset": 0,
								"slot": "9",
								"type": "t_mapping(t_address,t_uint256)"
							}
						],
						"numberOfBytes": "320"
					},
					"t_struct(RoleData)19_storage": {
						"encoding": "inplace",
						"label": "struct AccessControl.RoleData",
						"members": [
							{
								"astId": 16,
								"contract": "contracts/Arcade.sol:Arcade",
								"label": "members",
								"offset": 0,
								"slot": "0",
								"type": "t_mapping(t_address,t_bool)"
							},
							{
								"astId": 18,
								"contract": "contracts/Arcade.sol:Arcade",
								"label": "adminRole",
								"offset": 0,
								"slot": "1",
								"type": "t_bytes32"
							}
						],
						"numberOfBytes": "64"
					},
					"t_uint256": {
						"encoding": "inplace",
						"label": "uint256",
						"numberOfBytes": "32"
					}
				}
			},
			"userdoc": {
				"kind": "user",
				"methods": {},
				"version": 1
			}
		}
	}
}