{
	"data": {
		"bytecode": {
			"linkReferences": {},
			"object": "6080604052601260038190556200001890600a620001af565b6005553480156200002857600080fd5b5062000036600033620000b2565b620000627f3131fc8beb48b895197ad34f21c86afdf6a989a5cd911181952dbf8dfcf1819233620000b2565b6200008e7f3c13b5abbc85050d426f9500a16cfd9f7d94261c880b9a4e03d584d28c06059c33620000b2565b600680546001600160a01b0319163317905567016345785d8a00006004556200028e565b620000be82826200013b565b62000137576000828152602081815260408083206001600160a01b03851684529091529020805460ff19166001179055620000f63390565b6001600160a01b0316816001600160a01b0316837f2f8788117e7eff1d82e926ec794901d17c78024a50270940304540a733656f0d60405160405180910390a45b5050565b6000828152602081815260408083206001600160a01b038516845290915290205460ff165b92915050565b600181815b80851115620001a75781600019048211156200018b576200018b62000278565b808516156200019957918102915b93841c93908002906200016b565b509250929050565b6000620001bd8383620001c4565b9392505050565b600082620001d55750600162000160565b81620001e45750600062000160565b8160018114620001fd5760028114620002085762000228565b600191505062000160565b60ff8411156200021c576200021c62000278565b50506001821b62000160565b5060208310610133831016604e8410600b84101617156200024d575081810a62000160565b62000259838362000166565b806000190482111562000270576200027062000278565b029392505050565b634e487b7160e01b600052601160045260246000fd5b611e5e806200029e6000396000f3fe608060405234801561001057600080fd5b50600436106101d95760003560e01c806391d1485411610104578063b9888d89116100a2578063d547741f11610071578063d547741f14610514578063e6f091f914610527578063f207564e1461055a578063f336ee3c1461056d57600080fd5b8063b9888d8914610448578063c18e397e1461045b578063c46ed45a14610470578063ccaf237f1461047957600080fd5b80639d00c61e116100de5780639d00c61e146103795780639f512e22146103cb578063a217fddf146103de578063b22c376d146103e657600080fd5b806391d148541461033e57806399597b70146103515780639c6236831461036657600080fd5b80632ba671001161017c57806336568abe1161014b57806336568abe146102da5780633e16518f146102ed5780637ad226dc146103005780638da5cb5b1461031357600080fd5b80632ba67100146102985780632d6ef310146102ab5780632f2ff15d146102be578063313ce567146102d157600080fd5b806309a18635116101b857806309a186351461022e578063248a55a114610241578063248a9ca3146102545780632ac5016f1461028557600080fd5b8062f5544f146101de57806301ffc9a7146101f357806306602a481461021b575b600080fd5b6101f16101ec366004611b91565b610580565b005b610206610201366004611bd4565b6105ec565b60405190151581526020015b60405180910390f35b6101f1610229366004611b36565b610623565b6101f161023c366004611b1c565b610711565b6101f161024f366004611b91565b6108b8565b610277610262366004611b91565b60009081526020819052604090206001015490565b604051908152602001610212565b6101f1610293366004611b91565b61094b565b6101f16102a6366004611ba9565b610969565b6101f16102b9366004611b91565b6109e1565b6101f16102cc366004611ba9565b610a3f565b61027760035481565b6101f16102e8366004611ba9565b610a64565b6101f16102fb366004611b1c565b610ae2565b6101f161030e366004611ba9565b610b1f565b600654610326906001600160a01b031681565b6040516001600160a01b039091168152602001610212565b61020661034c366004611ba9565b610d97565b610277600080516020611e0983398151915281565b6101f1610374366004611ba9565b610dc0565b6103b4610387366004611b1c565b6001600160a01b031660009081526001602081905260409091208054910154600160a01b90910460ff1691565b604080519215158352602083019190915201610212565b6101f16103d9366004611b91565b61114a565b610277600081565b6104236103f4366004611b1c565b600160208190526000918252604090912080549101546001600160a01b03821691600160a01b900460ff169083565b604080516001600160a01b039094168452911515602084015290820152606001610212565b610206610456366004611ba9565b6111a0565b610277600080516020611de983398151915281565b61027760045481565b6104d4610487366004611b91565b6002602081905260009182526040909120805460018201549282015460038301546004840154600585015460069095015460ff90941695949293919290916001600160a01b039091169087565b604080519715158852602088019690965294860193909352606085019190915260808401526001600160a01b031660a083015260c082015260e001610212565b6101f1610522366004611ba9565b6112af565b610206610535366004611b1c565b6001600160a01b0316600090815260016020526040902054600160a01b900460ff1690565b6101f1610568366004611b91565b6112d4565b6101f161057b366004611c14565b61165b565b600080516020611e0983398151915261059881611708565b600082815260026020526040908190206001600490910155517f651a9760985edc53055bf2462cb4437b9be3de87aa3eecf2c05782e8b58eba19906105e09084815260200190565b60405180910390a15050565b60006001600160e01b03198216637965db0b60e01b148061061d57506301ffc9a760e01b6001600160e01b03198316145b92915050565b600080516020611de983398151915261063b81611708565b6001600160a01b038416600081815260016020819052604090912090810185905580546001600160a81b031916600160a01b851515026001600160a01b0319161782179055849063095ea7b3336040516001600160e01b031960e084901b1681526001600160a01b0390911660048201526000196024820152604401602060405180830381600087803b1580156106d157600080fd5b505af11580156106e5573d6000803e3d6000fd5b505050506040513d601f19601f820116820180604052508101906107099190611b75565b505050505050565b600061071c81611708565b6001600160a01b038281166000908152600160205260408082205490516370a0823160e01b8152306004820152919216906370a082319060240160206040518083038186803b15801561076e57600080fd5b505afa158015610782573d6000803e3d6000fd5b505050506040513d601f19601f820116820180604052508101906107a69190611bfc565b905080156108b3576001600160a01b038381166000908152600160205260409020541663a9059cbb336040516001600160e01b031960e084901b1681526001600160a01b03909116600482015260248101849052604401602060405180830381600087803b15801561081757600080fd5b505af115801561082b573d6000803e3d6000fd5b505050506040513d601f19601f8201168201806040525081019061084f9190611b75565b6108b35760405162461bcd60e51b815260206004820152602a60248201527f54726f706879204b696e67204172636164653a205265636f6e63696c6961746960448201526937b7103330b4b632b21760b11b60648201526084015b60405180910390fd5b505050565b600080516020611e098339815191526108d081611708565b6000828152600260208181526040808420805460ff191681556001810185905592830184905560038301849055600483018490556005830180546001600160a01b0319169055600690920192909255518381527fd0b153e02e23f4f21d020465b4dac7b1114893d05db395ed2511f879c3ac90b491016105e0565b600080516020611de983398151915261096381611708565b50600455565b600080516020611e0983398151915261098181611708565b60008381526002602090815260408083206001600160a01b0386168085526009909101835281842093909355519182527f34aeefd5030be05fe70eebc8866d82f935a308eb9f334cba88f5e3bea1a0cae8910160405180910390a1505050565b600080516020611e098339815191526109f981611708565b60008281526002602052604080822060040191909155517f827e8bff9f46048f8351964d2c871d09e4f4231513cf2fcb786649c68732e24f906105e09084815260200190565b600082815260208190526040902060010154610a5a81611708565b6108b38383611712565b6001600160a01b0381163314610ad45760405162461bcd60e51b815260206004820152602f60248201527f416363657373436f6e74726f6c3a2063616e206f6e6c792072656e6f756e636560448201526e103937b632b9903337b91039b2b63360891b60648201526084016108aa565b610ade8282611796565b5050565b600080516020611de9833981519152610afa81611708565b506001600160a01b03166000908152600160205260409020805460ff60a01b19169055565b600080516020611e09833981519152610b3781611708565b60008381526002602052604090205460ff166108b35760008381526002602090815260408083206001600160a01b0386168452600801909152902054600114610bdc5760405162461bcd60e51b815260206004820152603160248201527f54726f706879204b696e67204172636164653a204e6f7420726567697374657260448201527032b2103337b9103a3434b99033b0b6b29760791b60648201526084016108aa565b600083815260026020908152604080832060058101546001600160a01b039081168552600190935292819020546003840154915163a9059cbb60e01b8152868416600482015260248101929092529091169063a9059cbb90604401602060405180830381600087803b158015610c5157600080fd5b505af1158015610c65573d6000803e3d6000fd5b505050506040513d601f19601f82011682018060405250810190610c899190611b75565b610ce05760405162461bcd60e51b815260206004820152602260248201527f54726f706879204b696e67204172636164653a20526566756e64206661696c65604482015261321760f11b60648201526084016108aa565b8060030154816006016000828254610cf89190611d66565b90915550506001600160a01b038316600090815260078201602090815260408083208390556008840190915281208190556001808301805491929091610d3f908490611d66565b90915550506003810154604080518681526001600160a01b038616602082015280820192909252517f21e12a7cad0da5928167e1084ea4d5fdf8d9af66657a2543a9ac76a0ca0814779181900360600190a150505050565b6000918252602082815260408084206001600160a01b0393909316845291905290205460ff1690565b600080516020611e09833981519152610dd881611708565b60008381526002602052604090205460ff166111415760008381526002602090815260408083206001600160a01b0386168452600801909152902054600114610e7c5760405162461bcd60e51b815260206004820152603060248201527f54726f706879204b696e67204172636164653a204e6f7420726567697374657260448201526f656420666f7220746869732067616d6560801b60648201526084016108aa565b600580546004546000868152600260209081526040808320909501546001600160a01b03168252600190819052938120909301548291610ebb91611d0f565b600087815260026020526040902060060154610ed79190611d47565b610ee19190611d27565b610eeb9190611d27565b60008581526002602052604081206006015491925090610f0b90836117fb565b6000868152600260209081526040808320600501546001600160a01b03908116845260019092528083205490516370a0823160e01b815230600482015293945091929116906370a082319060240160206040518083038186803b158015610f7157600080fd5b505afa158015610f85573d6000803e3d6000fd5b505050506040513d601f19601f82011682018060405250810190610fa99190611bfc565b905081811015610fb7578091505b6000868152600260209081526040808320600501546001600160a01b03908116845260019092529182902054915163a9059cbb60e01b815287821660048201526024810185905291169063a9059cbb90604401602060405180830381600087803b15801561102457600080fd5b505af1158015611038573d6000803e3d6000fd5b505050506040513d601f19601f8201168201806040525081019061105c9190611b75565b6110b35760405162461bcd60e51b815260206004820152602260248201527f54726f706879204b696e67204172636164653a205061796f7574206661696c65604482015261321760f11b60648201526084016108aa565b60008681526002602090815260408083206001600160a01b03891684526007018252918290205491519182527f557809284da7314475b1582804ae28e5f1349efc1fe970ea25d50fce75eb4f43910160405180910390a16040518281527f22427047e1a674a9aff59700a2c8d00ea96e017ddf9236690bdedf1f21f28d9d9060200160405180910390a15050505b6108b3836109e1565b60008181526002602090815260408083203380855260099091018352818420939093558051928352517f34aeefd5030be05fe70eebc8866d82f935a308eb9f334cba88f5e3bea1a0cae89281900390910190a150565b6000600080516020611e098339815191526111ba81611708565b60008481526002602090815260408083206001600160a01b038716845260090190915290205460011461125a5760008481526002602090815260408083206001600160a01b038716808552600990910183529281902060019081905581519384529183018790528201527f5621c8071929c7265ce41857be957499346fcbd5c32e82130f48e0907449d1e69060600160405180910390a1600191506112a8565b604080516001600160a01b03851681526020810186905260008183015290517f5621c8071929c7265ce41857be957499346fcbd5c32e82130f48e0907449d1e69181900360600190a1600091505b5092915050565b6000828152602081905260409020600101546112ca81611708565b6108b38383611796565b600081815260026020908152604080832033845260090190915290205460011461134a5760405162461bcd60e51b815260206004820152602160248201527f54726f706879204b696e67204172636164653a20556e617574686f72697a65646044820152601760f91b60648201526084016108aa565b6000818152600260205260409020600401546001146113ab5760405162461bcd60e51b815260206004820181905260248201527f54726f706879204b696e67204172636164653a2047616d6520636c6f7365642e60448201526064016108aa565b60008181526002602081905260409091206001810154910154116114245760405162461bcd60e51b815260206004820152602a60248201527f54726f706879204b696e67204172636164653a2047616d652066756c6c2e20206044820152692a393c9030b3b0b4b71760b11b60648201526084016108aa565b60008181526002602090815260408083203384526008019091529020541561149e5760405162461bcd60e51b815260206004820152602760248201527f54726f706879204b696e67204172636164653a20416c7265616479207265676960448201526639ba32b932b21760c91b60648201526084016108aa565b600081815260026020819052604090912001546115095760405162461bcd60e51b815260206004820152602360248201527f54726f706879204b696e67204172636164653a2047616d65206e6f7420666f7560448201526237321760e91b60648201526084016108aa565b6000818152600260209081526040808320600501546001600160a01b039081168452600190925290912054166323b872dd336000848152600260205260409081902060030154905160e084901b6001600160e01b03191681526001600160a01b0390921660048301523060248301526044820152606401602060405180830381600087803b15801561159a57600080fd5b505af11580156115ae573d6000803e3d6000fd5b505050506040513d601f19601f820116820180604052508101906115d29190611b75565b6116395760405162461bcd60e51b815260206004820152603260248201527f54726f706879204b696e67204172636164653a204d75737420617070726f7665604482015271103932b3b4b9ba3930ba34b7b7103332b29760711b60648201526084016108aa565b600081815260026020526040902060030154611658908290339061180e565b50565b600080516020611e0983398151915261167381611708565b600086815260026020818152604080842060016004820181905560068201869055600382018b90556005820180546001600160a01b0319166001600160a01b038c16179055810194909455918301869055825460ff191685151517909255518781527f9e5237c6a8bb45df74799cf138ebda4fed0574bed906da41387acdc4a3cbe3d8910160405180910390a1505050505050565b61165881336118ba565b61171c8282610d97565b610ade576000828152602081815260408083206001600160a01b03851684529091529020805460ff191660011790556117523390565b6001600160a01b0316816001600160a01b0316837f2f8788117e7eff1d82e926ec794901d17c78024a50270940304540a733656f0d60405160405180910390a45050565b6117a08282610d97565b15610ade576000828152602081815260408083206001600160a01b0385168085529252808320805460ff1916905551339285917ff6391f5c32d9c69d2a47ea670b442974b53935d1edc7fd64eb21e047a839171b9190a45050565b60006118078284611d66565b9392505050565b60008381526002602052604081206001808201805492939192909190611835908490611d0f565b90915550506001600160a01b038316600090815260078201602090815260408083208590556008840190915281206001905560068201805484929061187b908490611d0f565b909155505060405184815233907e7dc6ab80cc84c043b7b8d4fcafc802187470087f7ea7fccd2e17aecd0256a19060200160405180910390a250505050565b6118c48282610d97565b610ade576118dc816001600160a01b0316601461191e565b6118e783602061191e565b6040516020016118f8929190611c67565b60408051601f198184030181529082905262461bcd60e51b82526108aa91600401611cdc565b6060600061192d836002611d47565b611938906002611d0f565b67ffffffffffffffff81111561195e57634e487b7160e01b600052604160045260246000fd5b6040519080825280601f01601f191660200182016040528015611988576020820181803683370190505b509050600360fc1b816000815181106119b157634e487b7160e01b600052603260045260246000fd5b60200101906001600160f81b031916908160001a905350600f60fb1b816001815181106119ee57634e487b7160e01b600052603260045260246000fd5b60200101906001600160f81b031916908160001a9053506000611a12846002611d47565b611a1d906001611d0f565b90505b6001811115611ab1576f181899199a1a9b1b9c1cb0b131b232b360811b85600f1660108110611a5f57634e487b7160e01b600052603260045260246000fd5b1a60f81b828281518110611a8357634e487b7160e01b600052603260045260246000fd5b60200101906001600160f81b031916908160001a90535060049490941c93611aaa81611dad565b9050611a20565b5083156118075760405162461bcd60e51b815260206004820181905260248201527f537472696e67733a20686578206c656e67746820696e73756666696369656e7460448201526064016108aa565b80356001600160a01b0381168114611b1757600080fd5b919050565b600060208284031215611b2d578081fd5b61180782611b00565b600080600060608486031215611b4a578182fd5b611b5384611b00565b9250602084013591506040840135611b6a81611dda565b809150509250925092565b600060208284031215611b86578081fd5b815161180781611dda565b600060208284031215611ba2578081fd5b5035919050565b60008060408385031215611bbb578182fd5b82359150611bcb60208401611b00565b90509250929050565b600060208284031215611be5578081fd5b81356001600160e01b031981168114611807578182fd5b600060208284031215611c0d578081fd5b5051919050565b600080600080600060a08688031215611c2b578081fd5b8535945060208601359350611c4260408701611b00565b9250606086013591506080860135611c5981611dda565b809150509295509295909350565b7f416363657373436f6e74726f6c3a206163636f756e7420000000000000000000815260008351611c9f816017850160208801611d7d565b7001034b99036b4b9b9b4b733903937b6329607d1b6017918401918201528351611cd0816028840160208801611d7d565b01602801949350505050565b6020815260008251806020840152611cfb816040850160208701611d7d565b601f01601f19169190910160400192915050565b60008219821115611d2257611d22611dc4565b500190565b600082611d4257634e487b7160e01b81526012600452602481fd5b500490565b6000816000190483118215151615611d6157611d61611dc4565b500290565b600082821015611d7857611d78611dc4565b500390565b60005b83811015611d98578181015183820152602001611d80565b83811115611da7576000848401525b50505050565b600081611dbc57611dbc611dc4565b506000190190565b634e487b7160e01b600052601160045260246000fd5b801515811461165857600080fdfe3131fc8beb48b895197ad34f21c86afdf6a989a5cd911181952dbf8dfcf181923c13b5abbc85050d426f9500a16cfd9f7d94261c880b9a4e03d584d28c06059ca264697066735822122028ba609cb92e170949b2720f9b6760aaa336c13fe7580e96efe3d7f2b5974a0364736f6c63430008040033",
			"opcodes": "PUSH1 0x80 PUSH1 0x40 MSTORE PUSH1 0x12 PUSH1 0x3 DUP2 SWAP1 SSTORE PUSH3 0x18 SWAP1 PUSH1 0xA PUSH3 0x1AF JUMP JUMPDEST PUSH1 0x5 SSTORE CALLVALUE DUP1 ISZERO PUSH3 0x28 JUMPI PUSH1 0x0 DUP1 REVERT JUMPDEST POP PUSH3 0x36 PUSH1 0x0 CALLER PUSH3 0xB2 JUMP JUMPDEST PUSH3 0x62 PUSH32 0x3131FC8BEB48B895197AD34F21C86AFDF6A989A5CD911181952DBF8DFCF18192 CALLER PUSH3 0xB2 JUMP JUMPDEST PUSH3 0x8E PUSH32 0x3C13B5ABBC85050D426F9500A16CFD9F7D94261C880B9A4E03D584D28C06059C CALLER PUSH3 0xB2 JUMP JUMPDEST PUSH1 0x6 DUP1 SLOAD PUSH1 0x1 PUSH1 0x1 PUSH1 0xA0 SHL SUB NOT AND CALLER OR SWAP1 SSTORE PUSH8 0x16345785D8A0000 PUSH1 0x4 SSTORE PUSH3 0x28E JUMP JUMPDEST PUSH3 0xBE DUP3 DUP3 PUSH3 0x13B JUMP JUMPDEST PUSH3 0x137 JUMPI PUSH1 0x0 DUP3 DUP2 MSTORE PUSH1 0x20 DUP2 DUP2 MSTORE PUSH1 0x40 DUP1 DUP4 KECCAK256 PUSH1 0x1 PUSH1 0x1 PUSH1 0xA0 SHL SUB DUP6 AND DUP5 MSTORE SWAP1 SWAP2 MSTORE SWAP1 KECCAK256 DUP1 SLOAD PUSH1 0xFF NOT AND PUSH1 0x1 OR SWAP1 SSTORE PUSH3 0xF6 CALLER SWAP1 JUMP JUMPDEST PUSH1 0x1 PUSH1 0x1 PUSH1 0xA0 SHL SUB AND DUP2 PUSH1 0x1 PUSH1 0x1 PUSH1 0xA0 SHL SUB AND DUP4 PUSH32 0x2F8788117E7EFF1D82E926EC794901D17C78024A50270940304540A733656F0D PUSH1 0x40 MLOAD PUSH1 0x40 MLOAD DUP1 SWAP2 SUB SWAP1 LOG4 JUMPDEST POP POP JUMP JUMPDEST PUSH1 0x0 DUP3 DUP2 MSTORE PUSH1 0x20 DUP2 DUP2 MSTORE PUSH1 0x40 DUP1 DUP4 KECCAK256 PUSH1 0x1 PUSH1 0x1 PUSH1 0xA0 SHL SUB DUP6 AND DUP5 MSTORE SWAP1 SWAP2 MSTORE SWAP1 KECCAK256 SLOAD PUSH1 0xFF AND JUMPDEST SWAP3 SWAP2 POP POP JUMP JUMPDEST PUSH1 0x1 DUP2 DUP2 JUMPDEST DUP1 DUP6 GT ISZERO PUSH3 0x1A7 JUMPI DUP2 PUSH1 0x0 NOT DIV DUP3 GT ISZERO PUSH3 0x18B JUMPI PUSH3 0x18B PUSH3 0x278 JUMP JUMPDEST DUP1 DUP6 AND ISZERO PUSH3 0x199 JUMPI SWAP2 DUP2 MUL SWAP2 JUMPDEST SWAP4 DUP5 SHR SWAP4 SWAP1 DUP1 MUL SWAP1 PUSH3 0x16B JUMP JUMPDEST POP SWAP3 POP SWAP3 SWAP1 POP JUMP JUMPDEST PUSH1 0x0 PUSH3 0x1BD DUP4 DUP4 PUSH3 0x1C4 JUMP JUMPDEST SWAP4 SWAP3 POP POP POP JUMP JUMPDEST PUSH1 0x0 DUP3 PUSH3 0x1D5 JUMPI POP PUSH1 0x1 PUSH3 0x160 JUMP JUMPDEST DUP2 PUSH3 0x1E4 JUMPI POP PUSH1 0x0 PUSH3 0x160 JUMP JUMPDEST DUP2 PUSH1 0x1 DUP2 EQ PUSH3 0x1FD JUMPI PUSH1 0x2 DUP2 EQ PUSH3 0x208 JUMPI PUSH3 0x228 JUMP JUMPDEST PUSH1 0x1 SWAP2 POP POP PUSH3 0x160 JUMP JUMPDEST PUSH1 0xFF DUP5 GT ISZERO PUSH3 0x21C JUMPI PUSH3 0x21C PUSH3 0x278 JUMP JUMPDEST POP POP PUSH1 0x1 DUP3 SHL PUSH3 0x160 JUMP JUMPDEST POP PUSH1 0x20 DUP4 LT PUSH2 0x133 DUP4 LT AND PUSH1 0x4E DUP5 LT PUSH1 0xB DUP5 LT AND OR ISZERO PUSH3 0x24D JUMPI POP DUP2 DUP2 EXP PUSH3 0x160 JUMP JUMPDEST PUSH3 0x259 DUP4 DUP4 PUSH3 0x166 JUMP JUMPDEST DUP1 PUSH1 0x0 NOT DIV DUP3 GT ISZERO PUSH3 0x270 JUMPI PUSH3 0x270 PUSH3 0x278 JUMP JUMPDEST MUL SWAP4 SWAP3 POP POP POP JUMP JUMPDEST PUSH4 0x4E487B71 PUSH1 0xE0 SHL PUSH1 0x0 MSTORE PUSH1 0x11 PUSH1 0x4 MSTORE PUSH1 0x24 PUSH1 0x0 REVERT JUMPDEST PUSH2 0x1E5E DUP1 PUSH3 0x29E PUSH1 0x0 CODECOPY PUSH1 0x0 RETURN INVALID PUSH1 0x80 PUSH1 0x40 MSTORE CALLVALUE DUP1 ISZERO PUSH2 0x10 JUMPI PUSH1 0x0 DUP1 REVERT JUMPDEST POP PUSH1 0x4 CALLDATASIZE LT PUSH2 0x1D9 JUMPI PUSH1 0x0 CALLDATALOAD PUSH1 0xE0 SHR DUP1 PUSH4 0x91D14854 GT PUSH2 0x104 JUMPI DUP1 PUSH4 0xB9888D89 GT PUSH2 0xA2 JUMPI DUP1 PUSH4 0xD547741F GT PUSH2 0x71 JUMPI DUP1 PUSH4 0xD547741F EQ PUSH2 0x514 JUMPI DUP1 PUSH4 0xE6F091F9 EQ PUSH2 0x527 JUMPI DUP1 PUSH4 0xF207564E EQ PUSH2 0x55A JUMPI DUP1 PUSH4 0xF336EE3C EQ PUSH2 0x56D JUMPI PUSH1 0x0 DUP1 REVERT JUMPDEST DUP1 PUSH4 0xB9888D89 EQ PUSH2 0x448 JUMPI DUP1 PUSH4 0xC18E397E EQ PUSH2 0x45B JUMPI DUP1 PUSH4 0xC46ED45A EQ PUSH2 0x470 JUMPI DUP1 PUSH4 0xCCAF237F EQ PUSH2 0x479 JUMPI PUSH1 0x0 DUP1 REVERT JUMPDEST DUP1 PUSH4 0x9D00C61E GT PUSH2 0xDE JUMPI DUP1 PUSH4 0x9D00C61E EQ PUSH2 0x379 JUMPI DUP1 PUSH4 0x9F512E22 EQ PUSH2 0x3CB JUMPI DUP1 PUSH4 0xA217FDDF EQ PUSH2 0x3DE JUMPI DUP1 PUSH4 0xB22C376D EQ PUSH2 0x3E6 JUMPI PUSH1 0x0 DUP1 REVERT JUMPDEST DUP1 PUSH4 0x91D14854 EQ PUSH2 0x33E JUMPI DUP1 PUSH4 0x99597B70 EQ PUSH2 0x351 JUMPI DUP1 PUSH4 0x9C623683 EQ PUSH2 0x366 JUMPI PUSH1 0x0 DUP1 REVERT JUMPDEST DUP1 PUSH4 0x2BA67100 GT PUSH2 0x17C JUMPI DUP1 PUSH4 0x36568ABE GT PUSH2 0x14B JUMPI DUP1 PUSH4 0x36568ABE EQ PUSH2 0x2DA JUMPI DUP1 PUSH4 0x3E16518F EQ PUSH2 0x2ED JUMPI DUP1 PUSH4 0x7AD226DC EQ PUSH2 0x300 JUMPI DUP1 PUSH4 0x8DA5CB5B EQ PUSH2 0x313 JUMPI PUSH1 0x0 DUP1 REVERT JUMPDEST DUP1 PUSH4 0x2BA67100 EQ PUSH2 0x298 JUMPI DUP1 PUSH4 0x2D6EF310 EQ PUSH2 0x2AB JUMPI DUP1 PUSH4 0x2F2FF15D EQ PUSH2 0x2BE JUMPI DUP1 PUSH4 0x313CE567 EQ PUSH2 0x2D1 JUMPI PUSH1 0x0 DUP1 REVERT JUMPDEST DUP1 PUSH4 0x9A18635 GT PUSH2 0x1B8 JUMPI DUP1 PUSH4 0x9A18635 EQ PUSH2 0x22E JUMPI DUP1 PUSH4 0x248A55A1 EQ PUSH2 0x241 JUMPI DUP1 PUSH4 0x248A9CA3 EQ PUSH2 0x254 JUMPI DUP1 PUSH4 0x2AC5016F EQ PUSH2 0x285 JUMPI PUSH1 0x0 DUP1 REVERT JUMPDEST DUP1 PUSH3 0xF5544F EQ PUSH2 0x1DE JUMPI DUP1 PUSH4 0x1FFC9A7 EQ PUSH2 0x1F3 JUMPI DUP1 PUSH4 0x6602A48 EQ PUSH2 0x21B JUMPI JUMPDEST PUSH1 0x0 DUP1 REVERT JUMPDEST PUSH2 0x1F1 PUSH2 0x1EC CALLDATASIZE PUSH1 0x4 PUSH2 0x1B91 JUMP JUMPDEST PUSH2 0x580 JUMP JUMPDEST STOP JUMPDEST PUSH2 0x206 PUSH2 0x201 CALLDATASIZE PUSH1 0x4 PUSH2 0x1BD4 JUMP JUMPDEST PUSH2 0x5EC JUMP JUMPDEST PUSH1 0x40 MLOAD SWAP1 ISZERO ISZERO DUP2 MSTORE PUSH1 0x20 ADD JUMPDEST PUSH1 0x40 MLOAD DUP1 SWAP2 SUB SWAP1 RETURN JUMPDEST PUSH2 0x1F1 PUSH2 0x229 CALLDATASIZE PUSH1 0x4 PUSH2 0x1B36 JUMP JUMPDEST PUSH2 0x623 JUMP JUMPDEST PUSH2 0x1F1 PUSH2 0x23C CALLDATASIZE PUSH1 0x4 PUSH2 0x1B1C JUMP JUMPDEST PUSH2 0x711 JUMP JUMPDEST PUSH2 0x1F1 PUSH2 0x24F CALLDATASIZE PUSH1 0x4 PUSH2 0x1B91 JUMP JUMPDEST PUSH2 0x8B8 JUMP JUMPDEST PUSH2 0x277 PUSH2 0x262 CALLDATASIZE PUSH1 0x4 PUSH2 0x1B91 JUMP JUMPDEST PUSH1 0x0 SWAP1 DUP2 MSTORE PUSH1 0x20 DUP2 SWAP1 MSTORE PUSH1 0x40 SWAP1 KECCAK256 PUSH1 0x1 ADD SLOAD SWAP1 JUMP JUMPDEST PUSH1 0x40 MLOAD SWAP1 DUP2 MSTORE PUSH1 0x20 ADD PUSH2 0x212 JUMP JUMPDEST PUSH2 0x1F1 PUSH2 0x293 CALLDATASIZE PUSH1 0x4 PUSH2 0x1B91 JUMP JUMPDEST PUSH2 0x94B JUMP JUMPDEST PUSH2 0x1F1 PUSH2 0x2A6 CALLDATASIZE PUSH1 0x4 PUSH2 0x1BA9 JUMP JUMPDEST PUSH2 0x969 JUMP JUMPDEST PUSH2 0x1F1 PUSH2 0x2B9 CALLDATASIZE PUSH1 0x4 PUSH2 0x1B91 JUMP JUMPDEST PUSH2 0x9E1 JUMP JUMPDEST PUSH2 0x1F1 PUSH2 0x2CC CALLDATASIZE PUSH1 0x4 PUSH2 0x1BA9 JUMP JUMPDEST PUSH2 0xA3F JUMP JUMPDEST PUSH2 0x277 PUSH1 0x3 SLOAD DUP2 JUMP JUMPDEST PUSH2 0x1F1 PUSH2 0x2E8 CALLDATASIZE PUSH1 0x4 PUSH2 0x1BA9 JUMP JUMPDEST PUSH2 0xA64 JUMP JUMPDEST PUSH2 0x1F1 PUSH2 0x2FB CALLDATASIZE PUSH1 0x4 PUSH2 0x1B1C JUMP JUMPDEST PUSH2 0xAE2 JUMP JUMPDEST PUSH2 0x1F1 PUSH2 0x30E CALLDATASIZE PUSH1 0x4 PUSH2 0x1BA9 JUMP JUMPDEST PUSH2 0xB1F JUMP JUMPDEST PUSH1 0x6 SLOAD PUSH2 0x326 SWAP1 PUSH1 0x1 PUSH1 0x1 PUSH1 0xA0 SHL SUB AND DUP2 JUMP JUMPDEST PUSH1 0x40 MLOAD PUSH1 0x1 PUSH1 0x1 PUSH1 0xA0 SHL SUB SWAP1 SWAP2 AND DUP2 MSTORE PUSH1 0x20 ADD PUSH2 0x212 JUMP JUMPDEST PUSH2 0x206 PUSH2 0x34C CALLDATASIZE PUSH1 0x4 PUSH2 0x1BA9 JUMP JUMPDEST PUSH2 0xD97 JUMP JUMPDEST PUSH2 0x277 PUSH1 0x0 DUP1 MLOAD PUSH1 0x20 PUSH2 0x1E09 DUP4 CODECOPY DUP2 MLOAD SWAP2 MSTORE DUP2 JUMP JUMPDEST PUSH2 0x1F1 PUSH2 0x374 CALLDATASIZE PUSH1 0x4 PUSH2 0x1BA9 JUMP JUMPDEST PUSH2 0xDC0 JUMP JUMPDEST PUSH2 0x3B4 PUSH2 0x387 CALLDATASIZE PUSH1 0x4 PUSH2 0x1B1C JUMP JUMPDEST PUSH1 0x1 PUSH1 0x1 PUSH1 0xA0 SHL SUB AND PUSH1 0x0 SWAP1 DUP2 MSTORE PUSH1 0x1 PUSH1 0x20 DUP2 SWAP1 MSTORE PUSH1 0x40 SWAP1 SWAP2 KECCAK256 DUP1 SLOAD SWAP2 ADD SLOAD PUSH1 0x1 PUSH1 0xA0 SHL SWAP1 SWAP2 DIV PUSH1 0xFF AND SWAP2 JUMP JUMPDEST PUSH1 0x40 DUP1 MLOAD SWAP3 ISZERO ISZERO DUP4 MSTORE PUSH1 0x20 DUP4 ADD SWAP2 SWAP1 SWAP2 MSTORE ADD PUSH2 0x212 JUMP JUMPDEST PUSH2 0x1F1 PUSH2 0x3D9 CALLDATASIZE PUSH1 0x4 PUSH2 0x1B91 JUMP JUMPDEST PUSH2 0x114A JUMP JUMPDEST PUSH2 0x277 PUSH1 0x0 DUP2 JUMP JUMPDEST PUSH2 0x423 PUSH2 0x3F4 CALLDATASIZE PUSH1 0x4 PUSH2 0x1B1C JUMP JUMPDEST PUSH1 0x1 PUSH1 0x20 DUP2 SWAP1 MSTORE PUSH1 0x0 SWAP2 DUP3 MSTORE PUSH1 0x40 SWAP1 SWAP2 KECCAK256 DUP1 SLOAD SWAP2 ADD SLOAD PUSH1 0x1 PUSH1 0x1 PUSH1 0xA0 SHL SUB DUP3 AND SWAP2 PUSH1 0x1 PUSH1 0xA0 SHL SWAP1 DIV PUSH1 0xFF AND SWAP1 DUP4 JUMP JUMPDEST PUSH1 0x40 DUP1 MLOAD PUSH1 0x1 PUSH1 0x1 PUSH1 0xA0 SHL SUB SWAP1 SWAP5 AND DUP5 MSTORE SWAP2 ISZERO ISZERO PUSH1 0x20 DUP5 ADD MSTORE SWAP1 DUP3 ADD MSTORE PUSH1 0x60 ADD PUSH2 0x212 JUMP JUMPDEST PUSH2 0x206 PUSH2 0x456 CALLDATASIZE PUSH1 0x4 PUSH2 0x1BA9 JUMP JUMPDEST PUSH2 0x11A0 JUMP JUMPDEST PUSH2 0x277 PUSH1 0x0 DUP1 MLOAD PUSH1 0x20 PUSH2 0x1DE9 DUP4 CODECOPY DUP2 MLOAD SWAP2 MSTORE DUP2 JUMP JUMPDEST PUSH2 0x277 PUSH1 0x4 SLOAD DUP2 JUMP JUMPDEST PUSH2 0x4D4 PUSH2 0x487 CALLDATASIZE PUSH1 0x4 PUSH2 0x1B91 JUMP JUMPDEST PUSH1 0x2 PUSH1 0x20 DUP2 SWAP1 MSTORE PUSH1 0x0 SWAP2 DUP3 MSTORE PUSH1 0x40 SWAP1 SWAP2 KECCAK256 DUP1 SLOAD PUSH1 0x1 DUP3 ADD SLOAD SWAP3 DUP3 ADD SLOAD PUSH1 0x3 DUP4 ADD SLOAD PUSH1 0x4 DUP5 ADD SLOAD PUSH1 0x5 DUP6 ADD SLOAD PUSH1 0x6 SWAP1 SWAP6 ADD SLOAD PUSH1 0xFF SWAP1 SWAP5 AND SWAP6 SWAP5 SWAP3 SWAP4 SWAP2 SWAP3 SWAP1 SWAP2 PUSH1 0x1 PUSH1 0x1 PUSH1 0xA0 SHL SUB SWAP1 SWAP2 AND SWAP1 DUP8 JUMP JUMPDEST PUSH1 0x40 DUP1 MLOAD SWAP8 ISZERO ISZERO DUP9 MSTORE PUSH1 0x20 DUP9 ADD SWAP7 SWAP1 SWAP7 MSTORE SWAP5 DUP7 ADD SWAP4 SWAP1 SWAP4 MSTORE PUSH1 0x60 DUP6 ADD SWAP2 SWAP1 SWAP2 MSTORE PUSH1 0x80 DUP5 ADD MSTORE PUSH1 0x1 PUSH1 0x1 PUSH1 0xA0 SHL SUB AND PUSH1 0xA0 DUP4 ADD MSTORE PUSH1 0xC0 DUP3 ADD MSTORE PUSH1 0xE0 ADD PUSH2 0x212 JUMP JUMPDEST PUSH2 0x1F1 PUSH2 0x522 CALLDATASIZE PUSH1 0x4 PUSH2 0x1BA9 JUMP JUMPDEST PUSH2 0x12AF JUMP JUMPDEST PUSH2 0x206 PUSH2 0x535 CALLDATASIZE PUSH1 0x4 PUSH2 0x1B1C JUMP JUMPDEST PUSH1 0x1 PUSH1 0x1 PUSH1 0xA0 SHL SUB AND PUSH1 0x0 SWAP1 DUP2 MSTORE PUSH1 0x1 PUSH1 0x20 MSTORE PUSH1 0x40 SWAP1 KECCAK256 SLOAD PUSH1 0x1 PUSH1 0xA0 SHL SWAP1 DIV PUSH1 0xFF AND SWAP1 JUMP JUMPDEST PUSH2 0x1F1 PUSH2 0x568 CALLDATASIZE PUSH1 0x4 PUSH2 0x1B91 JUMP JUMPDEST PUSH2 0x12D4 JUMP JUMPDEST PUSH2 0x1F1 PUSH2 0x57B CALLDATASIZE PUSH1 0x4 PUSH2 0x1C14 JUMP JUMPDEST PUSH2 0x165B JUMP JUMPDEST PUSH1 0x0 DUP1 MLOAD PUSH1 0x20 PUSH2 0x1E09 DUP4 CODECOPY DUP2 MLOAD SWAP2 MSTORE PUSH2 0x598 DUP2 PUSH2 0x1708 JUMP JUMPDEST PUSH1 0x0 DUP3 DUP2 MSTORE PUSH1 0x2 PUSH1 0x20 MSTORE PUSH1 0x40 SWAP1 DUP2 SWAP1 KECCAK256 PUSH1 0x1 PUSH1 0x4 SWAP1 SWAP2 ADD SSTORE MLOAD PUSH32 0x651A9760985EDC53055BF2462CB4437B9BE3DE87AA3EECF2C05782E8B58EBA19 SWAP1 PUSH2 0x5E0 SWAP1 DUP5 DUP2 MSTORE PUSH1 0x20 ADD SWAP1 JUMP JUMPDEST PUSH1 0x40 MLOAD DUP1 SWAP2 SUB SWAP1 LOG1 POP POP JUMP JUMPDEST PUSH1 0x0 PUSH1 0x1 PUSH1 0x1 PUSH1 0xE0 SHL SUB NOT DUP3 AND PUSH4 0x7965DB0B PUSH1 0xE0 SHL EQ DUP1 PUSH2 0x61D JUMPI POP PUSH4 0x1FFC9A7 PUSH1 0xE0 SHL PUSH1 0x1 PUSH1 0x1 PUSH1 0xE0 SHL SUB NOT DUP4 AND EQ JUMPDEST SWAP3 SWAP2 POP POP JUMP JUMPDEST PUSH1 0x0 DUP1 MLOAD PUSH1 0x20 PUSH2 0x1DE9 DUP4 CODECOPY DUP2 MLOAD SWAP2 MSTORE PUSH2 0x63B DUP2 PUSH2 0x1708 JUMP JUMPDEST PUSH1 0x1 PUSH1 0x1 PUSH1 0xA0 SHL SUB DUP5 AND PUSH1 0x0 DUP2 DUP2 MSTORE PUSH1 0x1 PUSH1 0x20 DUP2 SWAP1 MSTORE PUSH1 0x40 SWAP1 SWAP2 KECCAK256 SWAP1 DUP2 ADD DUP6 SWAP1 SSTORE DUP1 SLOAD PUSH1 0x1 PUSH1 0x1 PUSH1 0xA8 SHL SUB NOT AND PUSH1 0x1 PUSH1 0xA0 SHL DUP6 ISZERO ISZERO MUL PUSH1 0x1 PUSH1 0x1 PUSH1 0xA0 SHL SUB NOT AND OR DUP3 OR SWAP1 SSTORE DUP5 SWAP1 PUSH4 0x95EA7B3 CALLER PUSH1 0x40 MLOAD PUSH1 0x1 PUSH1 0x1 PUSH1 0xE0 SHL SUB NOT PUSH1 0xE0 DUP5 SWAP1 SHL AND DUP2 MSTORE PUSH1 0x1 PUSH1 0x1 PUSH1 0xA0 SHL SUB SWAP1 SWAP2 AND PUSH1 0x4 DUP3 ADD MSTORE PUSH1 0x0 NOT PUSH1 0x24 DUP3 ADD MSTORE PUSH1 0x44 ADD PUSH1 0x20 PUSH1 0x40 MLOAD DUP1 DUP4 SUB DUP2 PUSH1 0x0 DUP8 DUP1 EXTCODESIZE ISZERO DUP1 ISZERO PUSH2 0x6D1 JUMPI PUSH1 0x0 DUP1 REVERT JUMPDEST POP GAS CALL ISZERO DUP1 ISZERO PUSH2 0x6E5 JUMPI RETURNDATASIZE PUSH1 0x0 DUP1 RETURNDATACOPY RETURNDATASIZE PUSH1 0x0 REVERT JUMPDEST POP POP POP POP PUSH1 0x40 MLOAD RETURNDATASIZE PUSH1 0x1F NOT PUSH1 0x1F DUP3 ADD AND DUP3 ADD DUP1 PUSH1 0x40 MSTORE POP DUP2 ADD SWAP1 PUSH2 0x709 SWAP2 SWAP1 PUSH2 0x1B75 JUMP JUMPDEST POP POP POP POP POP POP JUMP JUMPDEST PUSH1 0x0 PUSH2 0x71C DUP2 PUSH2 0x1708 JUMP JUMPDEST PUSH1 0x1 PUSH1 0x1 PUSH1 0xA0 SHL SUB DUP3 DUP2 AND PUSH1 0x0 SWAP1 DUP2 MSTORE PUSH1 0x1 PUSH1 0x20 MSTORE PUSH1 0x40 DUP1 DUP3 KECCAK256 SLOAD SWAP1 MLOAD PUSH4 0x70A08231 PUSH1 0xE0 SHL DUP2 MSTORE ADDRESS PUSH1 0x4 DUP3 ADD MSTORE SWAP2 SWAP3 AND SWAP1 PUSH4 0x70A08231 SWAP1 PUSH1 0x24 ADD PUSH1 0x20 PUSH1 0x40 MLOAD DUP1 DUP4 SUB DUP2 DUP7 DUP1 EXTCODESIZE ISZERO DUP1 ISZERO PUSH2 0x76E JUMPI PUSH1 0x0 DUP1 REVERT JUMPDEST POP GAS STATICCALL ISZERO DUP1 ISZERO PUSH2 0x782 JUMPI RETURNDATASIZE PUSH1 0x0 DUP1 RETURNDATACOPY RETURNDATASIZE PUSH1 0x0 REVERT JUMPDEST POP POP POP POP PUSH1 0x40 MLOAD RETURNDATASIZE PUSH1 0x1F NOT PUSH1 0x1F DUP3 ADD AND DUP3 ADD DUP1 PUSH1 0x40 MSTORE POP DUP2 ADD SWAP1 PUSH2 0x7A6 SWAP2 SWAP1 PUSH2 0x1BFC JUMP JUMPDEST SWAP1 POP DUP1 ISZERO PUSH2 0x8B3 JUMPI PUSH1 0x1 PUSH1 0x1 PUSH1 0xA0 SHL SUB DUP4 DUP2 AND PUSH1 0x0 SWAP1 DUP2 MSTORE PUSH1 0x1 PUSH1 0x20 MSTORE PUSH1 0x40 SWAP1 KECCAK256 SLOAD AND PUSH4 0xA9059CBB CALLER PUSH1 0x40 MLOAD PUSH1 0x1 PUSH1 0x1 PUSH1 0xE0 SHL SUB NOT PUSH1 0xE0 DUP5 SWAP1 SHL AND DUP2 MSTORE PUSH1 0x1 PUSH1 0x1 PUSH1 0xA0 SHL SUB SWAP1 SWAP2 AND PUSH1 0x4 DUP3 ADD MSTORE PUSH1 0x24 DUP2 ADD DUP5 SWAP1 MSTORE PUSH1 0x44 ADD PUSH1 0x20 PUSH1 0x40 MLOAD DUP1 DUP4 SUB DUP2 PUSH1 0x0 DUP8 DUP1 EXTCODESIZE ISZERO DUP1 ISZERO PUSH2 0x817 JUMPI PUSH1 0x0 DUP1 REVERT JUMPDEST POP GAS CALL ISZERO DUP1 ISZERO PUSH2 0x82B JUMPI RETURNDATASIZE PUSH1 0x0 DUP1 RETURNDATACOPY RETURNDATASIZE PUSH1 0x0 REVERT JUMPDEST POP POP POP POP PUSH1 0x40 MLOAD RETURNDATASIZE PUSH1 0x1F NOT PUSH1 0x1F DUP3 ADD AND DUP3 ADD DUP1 PUSH1 0x40 MSTORE POP DUP2 ADD SWAP1 PUSH2 0x84F SWAP2 SWAP1 PUSH2 0x1B75 JUMP JUMPDEST PUSH2 0x8B3 JUMPI PUSH1 0x40 MLOAD PUSH3 0x461BCD PUSH1 0xE5 SHL DUP2 MSTORE PUSH1 0x20 PUSH1 0x4 DUP3 ADD MSTORE PUSH1 0x2A PUSH1 0x24 DUP3 ADD MSTORE PUSH32 0x54726F706879204B696E67204172636164653A205265636F6E63696C69617469 PUSH1 0x44 DUP3 ADD MSTORE PUSH10 0x37B7103330B4B632B217 PUSH1 0xB1 SHL PUSH1 0x64 DUP3 ADD MSTORE PUSH1 0x84 ADD JUMPDEST PUSH1 0x40 MLOAD DUP1 SWAP2 SUB SWAP1 REVERT JUMPDEST POP POP POP JUMP JUMPDEST PUSH1 0x0 DUP1 MLOAD PUSH1 0x20 PUSH2 0x1E09 DUP4 CODECOPY DUP2 MLOAD SWAP2 MSTORE PUSH2 0x8D0 DUP2 PUSH2 0x1708 JUMP JUMPDEST PUSH1 0x0 DUP3 DUP2 MSTORE PUSH1 0x2 PUSH1 0x20 DUP2 DUP2 MSTORE PUSH1 0x40 DUP1 DUP5 KECCAK256 DUP1 SLOAD PUSH1 0xFF NOT AND DUP2 SSTORE PUSH1 0x1 DUP2 ADD DUP6 SWAP1 SSTORE SWAP3 DUP4 ADD DUP5 SWAP1 SSTORE PUSH1 0x3 DUP4 ADD DUP5 SWAP1 SSTORE PUSH1 0x4 DUP4 ADD DUP5 SWAP1 SSTORE PUSH1 0x5 DUP4 ADD DUP1 SLOAD PUSH1 0x1 PUSH1 0x1 PUSH1 0xA0 SHL SUB NOT AND SWAP1 SSTORE PUSH1 0x6 SWAP1 SWAP3 ADD SWAP3 SWAP1 SWAP3 SSTORE MLOAD DUP4 DUP2 MSTORE PUSH32 0xD0B153E02E23F4F21D020465B4DAC7B1114893D05DB395ED2511F879C3AC90B4 SWAP2 ADD PUSH2 0x5E0 JUMP JUMPDEST PUSH1 0x0 DUP1 MLOAD PUSH1 0x20 PUSH2 0x1DE9 DUP4 CODECOPY DUP2 MLOAD SWAP2 MSTORE PUSH2 0x963 DUP2 PUSH2 0x1708 JUMP JUMPDEST POP PUSH1 0x4 SSTORE JUMP JUMPDEST PUSH1 0x0 DUP1 MLOAD PUSH1 0x20 PUSH2 0x1E09 DUP4 CODECOPY DUP2 MLOAD SWAP2 MSTORE PUSH2 0x981 DUP2 PUSH2 0x1708 JUMP JUMPDEST PUSH1 0x0 DUP4 DUP2 MSTORE PUSH1 0x2 PUSH1 0x20 SWAP1 DUP2 MSTORE PUSH1 0x40 DUP1 DUP4 KECCAK256 PUSH1 0x1 PUSH1 0x1 PUSH1 0xA0 SHL SUB DUP7 AND DUP1 DUP6 MSTORE PUSH1 0x9 SWAP1 SWAP2 ADD DUP4 MSTORE DUP2 DUP5 KECCAK256 SWAP4 SWAP1 SWAP4 SSTORE MLOAD SWAP2 DUP3 MSTORE PUSH32 0x34AEEFD5030BE05FE70EEBC8866D82F935A308EB9F334CBA88F5E3BEA1A0CAE8 SWAP2 ADD PUSH1 0x40 MLOAD DUP1 SWAP2 SUB SWAP1 LOG1 POP POP POP JUMP JUMPDEST PUSH1 0x0 DUP1 MLOAD PUSH1 0x20 PUSH2 0x1E09 DUP4 CODECOPY DUP2 MLOAD SWAP2 MSTORE PUSH2 0x9F9 DUP2 PUSH2 0x1708 JUMP JUMPDEST PUSH1 0x0 DUP3 DUP2 MSTORE PUSH1 0x2 PUSH1 0x20 MSTORE PUSH1 0x40 DUP1 DUP3 KECCAK256 PUSH1 0x4 ADD SWAP2 SWAP1 SWAP2 SSTORE MLOAD PUSH32 0x827E8BFF9F46048F8351964D2C871D09E4F4231513CF2FCB786649C68732E24F SWAP1 PUSH2 0x5E0 SWAP1 DUP5 DUP2 MSTORE PUSH1 0x20 ADD SWAP1 JUMP JUMPDEST PUSH1 0x0 DUP3 DUP2 MSTORE PUSH1 0x20 DUP2 SWAP1 MSTORE PUSH1 0x40 SWAP1 KECCAK256 PUSH1 0x1 ADD SLOAD PUSH2 0xA5A DUP2 PUSH2 0x1708 JUMP JUMPDEST PUSH2 0x8B3 DUP4 DUP4 PUSH2 0x1712 JUMP JUMPDEST PUSH1 0x1 PUSH1 0x1 PUSH1 0xA0 SHL SUB DUP2 AND CALLER EQ PUSH2 0xAD4 JUMPI PUSH1 0x40 MLOAD PUSH3 0x461BCD PUSH1 0xE5 SHL DUP2 MSTORE PUSH1 0x20 PUSH1 0x4 DUP3 ADD MSTORE PUSH1 0x2F PUSH1 0x24 DUP3 ADD MSTORE PUSH32 0x416363657373436F6E74726F6C3A2063616E206F6E6C792072656E6F756E6365 PUSH1 0x44 DUP3 ADD MSTORE PUSH15 0x103937B632B9903337B91039B2B633 PUSH1 0x89 SHL PUSH1 0x64 DUP3 ADD MSTORE PUSH1 0x84 ADD PUSH2 0x8AA JUMP JUMPDEST PUSH2 0xADE DUP3 DUP3 PUSH2 0x1796 JUMP JUMPDEST POP POP JUMP JUMPDEST PUSH1 0x0 DUP1 MLOAD PUSH1 0x20 PUSH2 0x1DE9 DUP4 CODECOPY DUP2 MLOAD SWAP2 MSTORE PUSH2 0xAFA DUP2 PUSH2 0x1708 JUMP JUMPDEST POP PUSH1 0x1 PUSH1 0x1 PUSH1 0xA0 SHL SUB AND PUSH1 0x0 SWAP1 DUP2 MSTORE PUSH1 0x1 PUSH1 0x20 MSTORE PUSH1 0x40 SWAP1 KECCAK256 DUP1 SLOAD PUSH1 0xFF PUSH1 0xA0 SHL NOT AND SWAP1 SSTORE JUMP JUMPDEST PUSH1 0x0 DUP1 MLOAD PUSH1 0x20 PUSH2 0x1E09 DUP4 CODECOPY DUP2 MLOAD SWAP2 MSTORE PUSH2 0xB37 DUP2 PUSH2 0x1708 JUMP JUMPDEST PUSH1 0x0 DUP4 DUP2 MSTORE PUSH1 0x2 PUSH1 0x20 MSTORE PUSH1 0x40 SWAP1 KECCAK256 SLOAD PUSH1 0xFF AND PUSH2 0x8B3 JUMPI PUSH1 0x0 DUP4 DUP2 MSTORE PUSH1 0x2 PUSH1 0x20 SWAP1 DUP2 MSTORE PUSH1 0x40 DUP1 DUP4 KECCAK256 PUSH1 0x1 PUSH1 0x1 PUSH1 0xA0 SHL SUB DUP7 AND DUP5 MSTORE PUSH1 0x8 ADD SWAP1 SWAP2 MSTORE SWAP1 KECCAK256 SLOAD PUSH1 0x1 EQ PUSH2 0xBDC JUMPI PUSH1 0x40 MLOAD PUSH3 0x461BCD PUSH1 0xE5 SHL DUP2 MSTORE PUSH1 0x20 PUSH1 0x4 DUP3 ADD MSTORE PUSH1 0x31 PUSH1 0x24 DUP3 ADD MSTORE PUSH32 0x54726F706879204B696E67204172636164653A204E6F74207265676973746572 PUSH1 0x44 DUP3 ADD MSTORE PUSH17 0x32B2103337B9103A3434B99033B0B6B297 PUSH1 0x79 SHL PUSH1 0x64 DUP3 ADD MSTORE PUSH1 0x84 ADD PUSH2 0x8AA JUMP JUMPDEST PUSH1 0x0 DUP4 DUP2 MSTORE PUSH1 0x2 PUSH1 0x20 SWAP1 DUP2 MSTORE PUSH1 0x40 DUP1 DUP4 KECCAK256 PUSH1 0x5 DUP2 ADD SLOAD PUSH1 0x1 PUSH1 0x1 PUSH1 0xA0 SHL SUB SWAP1 DUP2 AND DUP6 MSTORE PUSH1 0x1 SWAP1 SWAP4 MSTORE SWAP3 DUP2 SWAP1 KECCAK256 SLOAD PUSH1 0x3 DUP5 ADD SLOAD SWAP2 MLOAD PUSH4 0xA9059CBB PUSH1 0xE0 SHL DUP2 MSTORE DUP7 DUP5 AND PUSH1 0x4 DUP3 ADD MSTORE PUSH1 0x24 DUP2 ADD SWAP3 SWAP1 SWAP3 MSTORE SWAP1 SWAP2 AND SWAP1 PUSH4 0xA9059CBB SWAP1 PUSH1 0x44 ADD PUSH1 0x20 PUSH1 0x40 MLOAD DUP1 DUP4 SUB DUP2 PUSH1 0x0 DUP8 DUP1 EXTCODESIZE ISZERO DUP1 ISZERO PUSH2 0xC51 JUMPI PUSH1 0x0 DUP1 REVERT JUMPDEST POP GAS CALL ISZERO DUP1 ISZERO PUSH2 0xC65 JUMPI RETURNDATASIZE PUSH1 0x0 DUP1 RETURNDATACOPY RETURNDATASIZE PUSH1 0x0 REVERT JUMPDEST POP POP POP POP PUSH1 0x40 MLOAD RETURNDATASIZE PUSH1 0x1F NOT PUSH1 0x1F DUP3 ADD AND DUP3 ADD DUP1 PUSH1 0x40 MSTORE POP DUP2 ADD SWAP1 PUSH2 0xC89 SWAP2 SWAP1 PUSH2 0x1B75 JUMP JUMPDEST PUSH2 0xCE0 JUMPI PUSH1 0x40 MLOAD PUSH3 0x461BCD PUSH1 0xE5 SHL DUP2 MSTORE PUSH1 0x20 PUSH1 0x4 DUP3 ADD MSTORE PUSH1 0x22 PUSH1 0x24 DUP3 ADD MSTORE PUSH32 0x54726F706879204B696E67204172636164653A20526566756E64206661696C65 PUSH1 0x44 DUP3 ADD MSTORE PUSH2 0x3217 PUSH1 0xF1 SHL PUSH1 0x64 DUP3 ADD MSTORE PUSH1 0x84 ADD PUSH2 0x8AA JUMP JUMPDEST DUP1 PUSH1 0x3 ADD SLOAD DUP2 PUSH1 0x6 ADD PUSH1 0x0 DUP3 DUP3 SLOAD PUSH2 0xCF8 SWAP2 SWAP1 PUSH2 0x1D66 JUMP JUMPDEST SWAP1 SWAP2 SSTORE POP POP PUSH1 0x1 PUSH1 0x1 PUSH1 0xA0 SHL SUB DUP4 AND PUSH1 0x0 SWAP1 DUP2 MSTORE PUSH1 0x7 DUP3 ADD PUSH1 0x20 SWAP1 DUP2 MSTORE PUSH1 0x40 DUP1 DUP4 KECCAK256 DUP4 SWAP1 SSTORE PUSH1 0x8 DUP5 ADD SWAP1 SWAP2 MSTORE DUP2 KECCAK256 DUP2 SWAP1 SSTORE PUSH1 0x1 DUP1 DUP4 ADD DUP1 SLOAD SWAP2 SWAP3 SWAP1 SWAP2 PUSH2 0xD3F SWAP1 DUP5 SWAP1 PUSH2 0x1D66 JUMP JUMPDEST SWAP1 SWAP2 SSTORE POP POP PUSH1 0x3 DUP2 ADD SLOAD PUSH1 0x40 DUP1 MLOAD DUP7 DUP2 MSTORE PUSH1 0x1 PUSH1 0x1 PUSH1 0xA0 SHL SUB DUP7 AND PUSH1 0x20 DUP3 ADD MSTORE DUP1 DUP3 ADD SWAP3 SWAP1 SWAP3 MSTORE MLOAD PUSH32 0x21E12A7CAD0DA5928167E1084EA4D5FDF8D9AF66657A2543A9AC76A0CA081477 SWAP2 DUP2 SWAP1 SUB PUSH1 0x60 ADD SWAP1 LOG1 POP POP POP POP JUMP JUMPDEST PUSH1 0x0 SWAP2 DUP3 MSTORE PUSH1 0x20 DUP3 DUP2 MSTORE PUSH1 0x40 DUP1 DUP5 KECCAK256 PUSH1 0x1 PUSH1 0x1 PUSH1 0xA0 SHL SUB SWAP4 SWAP1 SWAP4 AND DUP5 MSTORE SWAP2 SWAP1 MSTORE SWAP1 KECCAK256 SLOAD PUSH1 0xFF AND SWAP1 JUMP JUMPDEST PUSH1 0x0 DUP1 MLOAD PUSH1 0x20 PUSH2 0x1E09 DUP4 CODECOPY DUP2 MLOAD SWAP2 MSTORE PUSH2 0xDD8 DUP2 PUSH2 0x1708 JUMP JUMPDEST PUSH1 0x0 DUP4 DUP2 MSTORE PUSH1 0x2 PUSH1 0x20 MSTORE PUSH1 0x40 SWAP1 KECCAK256 SLOAD PUSH1 0xFF AND PUSH2 0x1141 JUMPI PUSH1 0x0 DUP4 DUP2 MSTORE PUSH1 0x2 PUSH1 0x20 SWAP1 DUP2 MSTORE PUSH1 0x40 DUP1 DUP4 KECCAK256 PUSH1 0x1 PUSH1 0x1 PUSH1 0xA0 SHL SUB DUP7 AND DUP5 MSTORE PUSH1 0x8 ADD SWAP1 SWAP2 MSTORE SWAP1 KECCAK256 SLOAD PUSH1 0x1 EQ PUSH2 0xE7C JUMPI PUSH1 0x40 MLOAD PUSH3 0x461BCD PUSH1 0xE5 SHL DUP2 MSTORE PUSH1 0x20 PUSH1 0x4 DUP3 ADD MSTORE PUSH1 0x30 PUSH1 0x24 DUP3 ADD MSTORE PUSH32 0x54726F706879204B696E67204172636164653A204E6F74207265676973746572 PUSH1 0x44 DUP3 ADD MSTORE PUSH16 0x656420666F7220746869732067616D65 PUSH1 0x80 SHL PUSH1 0x64 DUP3 ADD MSTORE PUSH1 0x84 ADD PUSH2 0x8AA JUMP JUMPDEST PUSH1 0x5 DUP1 SLOAD PUSH1 0x4 SLOAD PUSH1 0x0 DUP7 DUP2 MSTORE PUSH1 0x2 PUSH1 0x20 SWAP1 DUP2 MSTORE PUSH1 0x40 DUP1 DUP4 KECCAK256 SWAP1 SWAP6 ADD SLOAD PUSH1 0x1 PUSH1 0x1 PUSH1 0xA0 SHL SUB AND DUP3 MSTORE PUSH1 0x1 SWAP1 DUP2 SWAP1 MSTORE SWAP4 DUP2 KECCAK256 SWAP1 SWAP4 ADD SLOAD DUP3 SWAP2 PUSH2 0xEBB SWAP2 PUSH2 0x1D0F JUMP JUMPDEST PUSH1 0x0 DUP8 DUP2 MSTORE PUSH1 0x2 PUSH1 0x20 MSTORE PUSH1 0x40 SWAP1 KECCAK256 PUSH1 0x6 ADD SLOAD PUSH2 0xED7 SWAP2 SWAP1 PUSH2 0x1D47 JUMP JUMPDEST PUSH2 0xEE1 SWAP2 SWAP1 PUSH2 0x1D27 JUMP JUMPDEST PUSH2 0xEEB SWAP2 SWAP1 PUSH2 0x1D27 JUMP JUMPDEST PUSH1 0x0 DUP6 DUP2 MSTORE PUSH1 0x2 PUSH1 0x20 MSTORE PUSH1 0x40 DUP2 KECCAK256 PUSH1 0x6 ADD SLOAD SWAP2 SWAP3 POP SWAP1 PUSH2 0xF0B SWAP1 DUP4 PUSH2 0x17FB JUMP JUMPDEST PUSH1 0x0 DUP7 DUP2 MSTORE PUSH1 0x2 PUSH1 0x20 SWAP1 DUP2 MSTORE PUSH1 0x40 DUP1 DUP4 KECCAK256 PUSH1 0x5 ADD SLOAD PUSH1 0x1 PUSH1 0x1 PUSH1 0xA0 SHL SUB SWAP1 DUP2 AND DUP5 MSTORE PUSH1 0x1 SWAP1 SWAP3 MSTORE DUP1 DUP4 KECCAK256 SLOAD SWAP1 MLOAD PUSH4 0x70A08231 PUSH1 0xE0 SHL DUP2 MSTORE ADDRESS PUSH1 0x4 DUP3 ADD MSTORE SWAP4 SWAP5 POP SWAP2 SWAP3 SWAP2 AND SWAP1 PUSH4 0x70A08231 SWAP1 PUSH1 0x24 ADD PUSH1 0x20 PUSH1 0x40 MLOAD DUP1 DUP4 SUB DUP2 DUP7 DUP1 EXTCODESIZE ISZERO DUP1 ISZERO PUSH2 0xF71 JUMPI PUSH1 0x0 DUP1 REVERT JUMPDEST POP GAS STATICCALL ISZERO DUP1 ISZERO PUSH2 0xF85 JUMPI RETURNDATASIZE PUSH1 0x0 DUP1 RETURNDATACOPY RETURNDATASIZE PUSH1 0x0 REVERT JUMPDEST POP POP POP POP PUSH1 0x40 MLOAD RETURNDATASIZE PUSH1 0x1F NOT PUSH1 0x1F DUP3 ADD AND DUP3 ADD DUP1 PUSH1 0x40 MSTORE POP DUP2 ADD SWAP1 PUSH2 0xFA9 SWAP2 SWAP1 PUSH2 0x1BFC JUMP JUMPDEST SWAP1 POP DUP2 DUP2 LT ISZERO PUSH2 0xFB7 JUMPI DUP1 SWAP2 POP JUMPDEST PUSH1 0x0 DUP7 DUP2 MSTORE PUSH1 0x2 PUSH1 0x20 SWAP1 DUP2 MSTORE PUSH1 0x40 DUP1 DUP4 KECCAK256 PUSH1 0x5 ADD SLOAD PUSH1 0x1 PUSH1 0x1 PUSH1 0xA0 SHL SUB SWAP1 DUP2 AND DUP5 MSTORE PUSH1 0x1 SWAP1 SWAP3 MSTORE SWAP2 DUP3 SWAP1 KECCAK256 SLOAD SWAP2 MLOAD PUSH4 0xA9059CBB PUSH1 0xE0 SHL DUP2 MSTORE DUP8 DUP3 AND PUSH1 0x4 DUP3 ADD MSTORE PUSH1 0x24 DUP2 ADD DUP6 SWAP1 MSTORE SWAP2 AND SWAP1 PUSH4 0xA9059CBB SWAP1 PUSH1 0x44 ADD PUSH1 0x20 PUSH1 0x40 MLOAD DUP1 DUP4 SUB DUP2 PUSH1 0x0 DUP8 DUP1 EXTCODESIZE ISZERO DUP1 ISZERO PUSH2 0x1024 JUMPI PUSH1 0x0 DUP1 REVERT JUMPDEST POP GAS CALL ISZERO DUP1 ISZERO PUSH2 0x1038 JUMPI RETURNDATASIZE PUSH1 0x0 DUP1 RETURNDATACOPY RETURNDATASIZE PUSH1 0x0 REVERT JUMPDEST POP POP POP POP PUSH1 0x40 MLOAD RETURNDATASIZE PUSH1 0x1F NOT PUSH1 0x1F DUP3 ADD AND DUP3 ADD DUP1 PUSH1 0x40 MSTORE POP DUP2 ADD SWAP1 PUSH2 0x105C SWAP2 SWAP1 PUSH2 0x1B75 JUMP JUMPDEST PUSH2 0x10B3 JUMPI PUSH1 0x40 MLOAD PUSH3 0x461BCD PUSH1 0xE5 SHL DUP2 MSTORE PUSH1 0x20 PUSH1 0x4 DUP3 ADD MSTORE PUSH1 0x22 PUSH1 0x24 DUP3 ADD MSTORE PUSH32 0x54726F706879204B696E67204172636164653A205061796F7574206661696C65 PUSH1 0x44 DUP3 ADD MSTORE PUSH2 0x3217 PUSH1 0xF1 SHL PUSH1 0x64 DUP3 ADD MSTORE PUSH1 0x84 ADD PUSH2 0x8AA JUMP JUMPDEST PUSH1 0x0 DUP7 DUP2 MSTORE PUSH1 0x2 PUSH1 0x20 SWAP1 DUP2 MSTORE PUSH1 0x40 DUP1 DUP4 KECCAK256 PUSH1 0x1 PUSH1 0x1 PUSH1 0xA0 SHL SUB DUP10 AND DUP5 MSTORE PUSH1 0x7 ADD DUP3 MSTORE SWAP2 DUP3 SWAP1 KECCAK256 SLOAD SWAP2 MLOAD SWAP2 DUP3 MSTORE PUSH32 0x557809284DA7314475B1582804AE28E5F1349EFC1FE970EA25D50FCE75EB4F43 SWAP2 ADD PUSH1 0x40 MLOAD DUP1 SWAP2 SUB SWAP1 LOG1 PUSH1 0x40 MLOAD DUP3 DUP2 MSTORE PUSH32 0x22427047E1A674A9AFF59700A2C8D00EA96E017DDF9236690BDEDF1F21F28D9D SWAP1 PUSH1 0x20 ADD PUSH1 0x40 MLOAD DUP1 SWAP2 SUB SWAP1 LOG1 POP POP POP JUMPDEST PUSH2 0x8B3 DUP4 PUSH2 0x9E1 JUMP JUMPDEST PUSH1 0x0 DUP2 DUP2 MSTORE PUSH1 0x2 PUSH1 0x20 SWAP1 DUP2 MSTORE PUSH1 0x40 DUP1 DUP4 KECCAK256 CALLER DUP1 DUP6 MSTORE PUSH1 0x9 SWAP1 SWAP2 ADD DUP4 MSTORE DUP2 DUP5 KECCAK256 SWAP4 SWAP1 SWAP4 SSTORE DUP1 MLOAD SWAP3 DUP4 MSTORE MLOAD PUSH32 0x34AEEFD5030BE05FE70EEBC8866D82F935A308EB9F334CBA88F5E3BEA1A0CAE8 SWAP3 DUP2 SWAP1 SUB SWAP1 SWAP2 ADD SWAP1 LOG1 POP JUMP JUMPDEST PUSH1 0x0 PUSH1 0x0 DUP1 MLOAD PUSH1 0x20 PUSH2 0x1E09 DUP4 CODECOPY DUP2 MLOAD SWAP2 MSTORE PUSH2 0x11BA DUP2 PUSH2 0x1708 JUMP JUMPDEST PUSH1 0x0 DUP5 DUP2 MSTORE PUSH1 0x2 PUSH1 0x20 SWAP1 DUP2 MSTORE PUSH1 0x40 DUP1 DUP4 KECCAK256 PUSH1 0x1 PUSH1 0x1 PUSH1 0xA0 SHL SUB DUP8 AND DUP5 MSTORE PUSH1 0x9 ADD SWAP1 SWAP2 MSTORE SWAP1 KECCAK256 SLOAD PUSH1 0x1 EQ PUSH2 0x125A JUMPI PUSH1 0x0 DUP5 DUP2 MSTORE PUSH1 0x2 PUSH1 0x20 SWAP1 DUP2 MSTORE PUSH1 0x40 DUP1 DUP4 KECCAK256 PUSH1 0x1 PUSH1 0x1 PUSH1 0xA0 SHL SUB DUP8 AND DUP1 DUP6 MSTORE PUSH1 0x9 SWAP1 SWAP2 ADD DUP4 MSTORE SWAP3 DUP2 SWAP1 KECCAK256 PUSH1 0x1 SWAP1 DUP2 SWAP1 SSTORE DUP2 MLOAD SWAP4 DUP5 MSTORE SWAP2 DUP4 ADD DUP8 SWAP1 MSTORE DUP3 ADD MSTORE PUSH32 0x5621C8071929C7265CE41857BE957499346FCBD5C32E82130F48E0907449D1E6 SWAP1 PUSH1 0x60 ADD PUSH1 0x40 MLOAD DUP1 SWAP2 SUB SWAP1 LOG1 PUSH1 0x1 SWAP2 POP PUSH2 0x12A8 JUMP JUMPDEST PUSH1 0x40 DUP1 MLOAD PUSH1 0x1 PUSH1 0x1 PUSH1 0xA0 SHL SUB DUP6 AND DUP2 MSTORE PUSH1 0x20 DUP2 ADD DUP7 SWAP1 MSTORE PUSH1 0x0 DUP2 DUP4 ADD MSTORE SWAP1 MLOAD PUSH32 0x5621C8071929C7265CE41857BE957499346FCBD5C32E82130F48E0907449D1E6 SWAP2 DUP2 SWAP1 SUB PUSH1 0x60 ADD SWAP1 LOG1 PUSH1 0x0 SWAP2 POP JUMPDEST POP SWAP3 SWAP2 POP POP JUMP JUMPDEST PUSH1 0x0 DUP3 DUP2 MSTORE PUSH1 0x20 DUP2 SWAP1 MSTORE PUSH1 0x40 SWAP1 KECCAK256 PUSH1 0x1 ADD SLOAD PUSH2 0x12CA DUP2 PUSH2 0x1708 JUMP JUMPDEST PUSH2 0x8B3 DUP4 DUP4 PUSH2 0x1796 JUMP JUMPDEST PUSH1 0x0 DUP2 DUP2 MSTORE PUSH1 0x2 PUSH1 0x20 SWAP1 DUP2 MSTORE PUSH1 0x40 DUP1 DUP4 KECCAK256 CALLER DUP5 MSTORE PUSH1 0x9 ADD SWAP1 SWAP2 MSTORE SWAP1 KECCAK256 SLOAD PUSH1 0x1 EQ PUSH2 0x134A JUMPI PUSH1 0x40 MLOAD PUSH3 0x461BCD PUSH1 0xE5 SHL DUP2 MSTORE PUSH1 0x20 PUSH1 0x4 DUP3 ADD MSTORE PUSH1 0x21 PUSH1 0x24 DUP3 ADD MSTORE PUSH32 0x54726F706879204B696E67204172636164653A20556E617574686F72697A6564 PUSH1 0x44 DUP3 ADD MSTORE PUSH1 0x17 PUSH1 0xF9 SHL PUSH1 0x64 DUP3 ADD MSTORE PUSH1 0x84 ADD PUSH2 0x8AA JUMP JUMPDEST PUSH1 0x0 DUP2 DUP2 MSTORE PUSH1 0x2 PUSH1 0x20 MSTORE PUSH1 0x40 SWAP1 KECCAK256 PUSH1 0x4 ADD SLOAD PUSH1 0x1 EQ PUSH2 0x13AB JUMPI PUSH1 0x40 MLOAD PUSH3 0x461BCD PUSH1 0xE5 SHL DUP2 MSTORE PUSH1 0x20 PUSH1 0x4 DUP3 ADD DUP2 SWAP1 MSTORE PUSH1 0x24 DUP3 ADD MSTORE PUSH32 0x54726F706879204B696E67204172636164653A2047616D6520636C6F7365642E PUSH1 0x44 DUP3 ADD MSTORE PUSH1 0x64 ADD PUSH2 0x8AA JUMP JUMPDEST PUSH1 0x0 DUP2 DUP2 MSTORE PUSH1 0x2 PUSH1 0x20 DUP2 SWAP1 MSTORE PUSH1 0x40 SWAP1 SWAP2 KECCAK256 PUSH1 0x1 DUP2 ADD SLOAD SWAP2 ADD SLOAD GT PUSH2 0x1424 JUMPI PUSH1 0x40 MLOAD PUSH3 0x461BCD PUSH1 0xE5 SHL DUP2 MSTORE PUSH1 0x20 PUSH1 0x4 DUP3 ADD MSTORE PUSH1 0x2A PUSH1 0x24 DUP3 ADD MSTORE PUSH32 0x54726F706879204B696E67204172636164653A2047616D652066756C6C2E2020 PUSH1 0x44 DUP3 ADD MSTORE PUSH10 0x2A393C9030B3B0B4B717 PUSH1 0xB1 SHL PUSH1 0x64 DUP3 ADD MSTORE PUSH1 0x84 ADD PUSH2 0x8AA JUMP JUMPDEST PUSH1 0x0 DUP2 DUP2 MSTORE PUSH1 0x2 PUSH1 0x20 SWAP1 DUP2 MSTORE PUSH1 0x40 DUP1 DUP4 KECCAK256 CALLER DUP5 MSTORE PUSH1 0x8 ADD SWAP1 SWAP2 MSTORE SWAP1 KECCAK256 SLOAD ISZERO PUSH2 0x149E JUMPI PUSH1 0x40 MLOAD PUSH3 0x461BCD PUSH1 0xE5 SHL DUP2 MSTORE PUSH1 0x20 PUSH1 0x4 DUP3 ADD MSTORE PUSH1 0x27 PUSH1 0x24 DUP3 ADD MSTORE PUSH32 0x54726F706879204B696E67204172636164653A20416C72656164792072656769 PUSH1 0x44 DUP3 ADD MSTORE PUSH7 0x39BA32B932B217 PUSH1 0xC9 SHL PUSH1 0x64 DUP3 ADD MSTORE PUSH1 0x84 ADD PUSH2 0x8AA JUMP JUMPDEST PUSH1 0x0 DUP2 DUP2 MSTORE PUSH1 0x2 PUSH1 0x20 DUP2 SWAP1 MSTORE PUSH1 0x40 SWAP1 SWAP2 KECCAK256 ADD SLOAD PUSH2 0x1509 JUMPI PUSH1 0x40 MLOAD PUSH3 0x461BCD PUSH1 0xE5 SHL DUP2 MSTORE PUSH1 0x20 PUSH1 0x4 DUP3 ADD MSTORE PUSH1 0x23 PUSH1 0x24 DUP3 ADD MSTORE PUSH32 0x54726F706879204B696E67204172636164653A2047616D65206E6F7420666F75 PUSH1 0x44 DUP3 ADD MSTORE PUSH3 0x373217 PUSH1 0xE9 SHL PUSH1 0x64 DUP3 ADD MSTORE PUSH1 0x84 ADD PUSH2 0x8AA JUMP JUMPDEST PUSH1 0x0 DUP2 DUP2 MSTORE PUSH1 0x2 PUSH1 0x20 SWAP1 DUP2 MSTORE PUSH1 0x40 DUP1 DUP4 KECCAK256 PUSH1 0x5 ADD SLOAD PUSH1 0x1 PUSH1 0x1 PUSH1 0xA0 SHL SUB SWAP1 DUP2 AND DUP5 MSTORE PUSH1 0x1 SWAP1 SWAP3 MSTORE SWAP1 SWAP2 KECCAK256 SLOAD AND PUSH4 0x23B872DD CALLER PUSH1 0x0 DUP5 DUP2 MSTORE PUSH1 0x2 PUSH1 0x20 MSTORE PUSH1 0x40 SWAP1 DUP2 SWAP1 KECCAK256 PUSH1 0x3 ADD SLOAD SWAP1 MLOAD PUSH1 0xE0 DUP5 SWAP1 SHL PUSH1 0x1 PUSH1 0x1 PUSH1 0xE0 SHL SUB NOT AND DUP2 MSTORE PUSH1 0x1 PUSH1 0x1 PUSH1 0xA0 SHL SUB SWAP1 SWAP3 AND PUSH1 0x4 DUP4 ADD MSTORE ADDRESS PUSH1 0x24 DUP4 ADD MSTORE PUSH1 0x44 DUP3 ADD MSTORE PUSH1 0x64 ADD PUSH1 0x20 PUSH1 0x40 MLOAD DUP1 DUP4 SUB DUP2 PUSH1 0x0 DUP8 DUP1 EXTCODESIZE ISZERO DUP1 ISZERO PUSH2 0x159A JUMPI PUSH1 0x0 DUP1 REVERT JUMPDEST POP GAS CALL ISZERO DUP1 ISZERO PUSH2 0x15AE JUMPI RETURNDATASIZE PUSH1 0x0 DUP1 RETURNDATACOPY RETURNDATASIZE PUSH1 0x0 REVERT JUMPDEST POP POP POP POP PUSH1 0x40 MLOAD RETURNDATASIZE PUSH1 0x1F NOT PUSH1 0x1F DUP3 ADD AND DUP3 ADD DUP1 PUSH1 0x40 MSTORE POP DUP2 ADD SWAP1 PUSH2 0x15D2 SWAP2 SWAP1 PUSH2 0x1B75 JUMP JUMPDEST PUSH2 0x1639 JUMPI PUSH1 0x40 MLOAD PUSH3 0x461BCD PUSH1 0xE5 SHL DUP2 MSTORE PUSH1 0x20 PUSH1 0x4 DUP3 ADD MSTORE PUSH1 0x32 PUSH1 0x24 DUP3 ADD MSTORE PUSH32 0x54726F706879204B696E67204172636164653A204D75737420617070726F7665 PUSH1 0x44 DUP3 ADD MSTORE PUSH18 0x103932B3B4B9BA3930BA34B7B7103332B297 PUSH1 0x71 SHL PUSH1 0x64 DUP3 ADD MSTORE PUSH1 0x84 ADD PUSH2 0x8AA JUMP JUMPDEST PUSH1 0x0 DUP2 DUP2 MSTORE PUSH1 0x2 PUSH1 0x20 MSTORE PUSH1 0x40 SWAP1 KECCAK256 PUSH1 0x3 ADD SLOAD PUSH2 0x1658 SWAP1 DUP3 SWAP1 CALLER SWAP1 PUSH2 0x180E JUMP JUMPDEST POP JUMP JUMPDEST PUSH1 0x0 DUP1 MLOAD PUSH1 0x20 PUSH2 0x1E09 DUP4 CODECOPY DUP2 MLOAD SWAP2 MSTORE PUSH2 0x1673 DUP2 PUSH2 0x1708 JUMP JUMPDEST PUSH1 0x0 DUP7 DUP2 MSTORE PUSH1 0x2 PUSH1 0x20 DUP2 DUP2 MSTORE PUSH1 0x40 DUP1 DUP5 KECCAK256 PUSH1 0x1 PUSH1 0x4 DUP3 ADD DUP2 SWAP1 SSTORE PUSH1 0x6 DUP3 ADD DUP7 SWAP1 SSTORE PUSH1 0x3 DUP3 ADD DUP12 SWAP1 SSTORE PUSH1 0x5 DUP3 ADD DUP1 SLOAD PUSH1 0x1 PUSH1 0x1 PUSH1 0xA0 SHL SUB NOT AND PUSH1 0x1 PUSH1 0x1 PUSH1 0xA0 SHL SUB DUP13 AND OR SWAP1 SSTORE DUP2 ADD SWAP5 SWAP1 SWAP5 SSTORE SWAP2 DUP4 ADD DUP7 SWAP1 SSTORE DUP3 SLOAD PUSH1 0xFF NOT AND DUP6 ISZERO ISZERO OR SWAP1 SWAP3 SSTORE MLOAD DUP8 DUP2 MSTORE PUSH32 0x9E5237C6A8BB45DF74799CF138EBDA4FED0574BED906DA41387ACDC4A3CBE3D8 SWAP2 ADD PUSH1 0x40 MLOAD DUP1 SWAP2 SUB SWAP1 LOG1 POP POP POP POP POP POP JUMP JUMPDEST PUSH2 0x1658 DUP2 CALLER PUSH2 0x18BA JUMP JUMPDEST PUSH2 0x171C DUP3 DUP3 PUSH2 0xD97 JUMP JUMPDEST PUSH2 0xADE JUMPI PUSH1 0x0 DUP3 DUP2 MSTORE PUSH1 0x20 DUP2 DUP2 MSTORE PUSH1 0x40 DUP1 DUP4 KECCAK256 PUSH1 0x1 PUSH1 0x1 PUSH1 0xA0 SHL SUB DUP6 AND DUP5 MSTORE SWAP1 SWAP2 MSTORE SWAP1 KECCAK256 DUP1 SLOAD PUSH1 0xFF NOT AND PUSH1 0x1 OR SWAP1 SSTORE PUSH2 0x1752 CALLER SWAP1 JUMP JUMPDEST PUSH1 0x1 PUSH1 0x1 PUSH1 0xA0 SHL SUB AND DUP2 PUSH1 0x1 PUSH1 0x1 PUSH1 0xA0 SHL SUB AND DUP4 PUSH32 0x2F8788117E7EFF1D82E926EC794901D17C78024A50270940304540A733656F0D PUSH1 0x40 MLOAD PUSH1 0x40 MLOAD DUP1 SWAP2 SUB SWAP1 LOG4 POP POP JUMP JUMPDEST PUSH2 0x17A0 DUP3 DUP3 PUSH2 0xD97 JUMP JUMPDEST ISZERO PUSH2 0xADE JUMPI PUSH1 0x0 DUP3 DUP2 MSTORE PUSH1 0x20 DUP2 DUP2 MSTORE PUSH1 0x40 DUP1 DUP4 KECCAK256 PUSH1 0x1 PUSH1 0x1 PUSH1 0xA0 SHL SUB DUP6 AND DUP1 DUP6 MSTORE SWAP3 MSTORE DUP1 DUP4 KECCAK256 DUP1 SLOAD PUSH1 0xFF NOT AND SWAP1 SSTORE MLOAD CALLER SWAP3 DUP6 SWAP2 PUSH32 0xF6391F5C32D9C69D2A47EA670B442974B53935D1EDC7FD64EB21E047A839171B SWAP2 SWAP1 LOG4 POP POP JUMP JUMPDEST PUSH1 0x0 PUSH2 0x1807 DUP3 DUP5 PUSH2 0x1D66 JUMP JUMPDEST SWAP4 SWAP3 POP POP POP JUMP JUMPDEST PUSH1 0x0 DUP4 DUP2 MSTORE PUSH1 0x2 PUSH1 0x20 MSTORE PUSH1 0x40 DUP2 KECCAK256 PUSH1 0x1 DUP1 DUP3 ADD DUP1 SLOAD SWAP3 SWAP4 SWAP2 SWAP3 SWAP1 SWAP2 SWAP1 PUSH2 0x1835 SWAP1 DUP5 SWAP1 PUSH2 0x1D0F JUMP JUMPDEST SWAP1 SWAP2 SSTORE POP POP PUSH1 0x1 PUSH1 0x1 PUSH1 0xA0 SHL SUB DUP4 AND PUSH1 0x0 SWAP1 DUP2 MSTORE PUSH1 0x7 DUP3 ADD PUSH1 0x20 SWAP1 DUP2 MSTORE PUSH1 0x40 DUP1 DUP4 KECCAK256 DUP6 SWAP1 SSTORE PUSH1 0x8 DUP5 ADD SWAP1 SWAP2 MSTORE DUP2 KECCAK256 PUSH1 0x1 SWAP1 SSTORE PUSH1 0x6 DUP3 ADD DUP1 SLOAD DUP5 SWAP3 SWAP1 PUSH2 0x187B SWAP1 DUP5 SWAP1 PUSH2 0x1D0F JUMP JUMPDEST SWAP1 SWAP2 SSTORE POP POP PUSH1 0x40 MLOAD DUP5 DUP2 MSTORE CALLER SWAP1 PUSH31 0x7DC6AB80CC84C043B7B8D4FCAFC802187470087F7EA7FCCD2E17AECD0256A1 SWAP1 PUSH1 0x20 ADD PUSH1 0x40 MLOAD DUP1 SWAP2 SUB SWAP1 LOG2 POP POP POP POP JUMP JUMPDEST PUSH2 0x18C4 DUP3 DUP3 PUSH2 0xD97 JUMP JUMPDEST PUSH2 0xADE JUMPI PUSH2 0x18DC DUP2 PUSH1 0x1 PUSH1 0x1 PUSH1 0xA0 SHL SUB AND PUSH1 0x14 PUSH2 0x191E JUMP JUMPDEST PUSH2 0x18E7 DUP4 PUSH1 0x20 PUSH2 0x191E JUMP JUMPDEST PUSH1 0x40 MLOAD PUSH1 0x20 ADD PUSH2 0x18F8 SWAP3 SWAP2 SWAP1 PUSH2 0x1C67 JUMP JUMPDEST PUSH1 0x40 DUP1 MLOAD PUSH1 0x1F NOT DUP2 DUP5 SUB ADD DUP2 MSTORE SWAP1 DUP3 SWAP1 MSTORE PUSH3 0x461BCD PUSH1 0xE5 SHL DUP3 MSTORE PUSH2 0x8AA SWAP2 PUSH1 0x4 ADD PUSH2 0x1CDC JUMP JUMPDEST PUSH1 0x60 PUSH1 0x0 PUSH2 0x192D DUP4 PUSH1 0x2 PUSH2 0x1D47 JUMP JUMPDEST PUSH2 0x1938 SWAP1 PUSH1 0x2 PUSH2 0x1D0F JUMP JUMPDEST PUSH8 0xFFFFFFFFFFFFFFFF DUP2 GT ISZERO PUSH2 0x195E JUMPI PUSH4 0x4E487B71 PUSH1 0xE0 SHL PUSH1 0x0 MSTORE PUSH1 0x41 PUSH1 0x4 MSTORE PUSH1 0x24 PUSH1 0x0 REVERT JUMPDEST PUSH1 0x40 MLOAD SWAP1 DUP1 DUP3 MSTORE DUP1 PUSH1 0x1F ADD PUSH1 0x1F NOT AND PUSH1 0x20 ADD DUP3 ADD PUSH1 0x40 MSTORE DUP1 ISZERO PUSH2 0x1988 JUMPI PUSH1 0x20 DUP3 ADD DUP2 DUP1 CALLDATASIZE DUP4 CALLDATACOPY ADD SWAP1 POP JUMPDEST POP SWAP1 POP PUSH1 0x3 PUSH1 0xFC SHL DUP2 PUSH1 0x0 DUP2 MLOAD DUP2 LT PUSH2 0x19B1 JUMPI PUSH4 0x4E487B71 PUSH1 0xE0 SHL PUSH1 0x0 MSTORE PUSH1 0x32 PUSH1 0x4 MSTORE PUSH1 0x24 PUSH1 0x0 REVERT JUMPDEST PUSH1 0x20 ADD ADD SWAP1 PUSH1 0x1 PUSH1 0x1 PUSH1 0xF8 SHL SUB NOT AND SWAP1 DUP2 PUSH1 0x0 BYTE SWAP1 MSTORE8 POP PUSH1 0xF PUSH1 0xFB SHL DUP2 PUSH1 0x1 DUP2 MLOAD DUP2 LT PUSH2 0x19EE JUMPI PUSH4 0x4E487B71 PUSH1 0xE0 SHL PUSH1 0x0 MSTORE PUSH1 0x32 PUSH1 0x4 MSTORE PUSH1 0x24 PUSH1 0x0 REVERT JUMPDEST PUSH1 0x20 ADD ADD SWAP1 PUSH1 0x1 PUSH1 0x1 PUSH1 0xF8 SHL SUB NOT AND SWAP1 DUP2 PUSH1 0x0 BYTE SWAP1 MSTORE8 POP PUSH1 0x0 PUSH2 0x1A12 DUP5 PUSH1 0x2 PUSH2 0x1D47 JUMP JUMPDEST PUSH2 0x1A1D SWAP1 PUSH1 0x1 PUSH2 0x1D0F JUMP JUMPDEST SWAP1 POP JUMPDEST PUSH1 0x1 DUP2 GT ISZERO PUSH2 0x1AB1 JUMPI PUSH16 0x181899199A1A9B1B9C1CB0B131B232B3 PUSH1 0x81 SHL DUP6 PUSH1 0xF AND PUSH1 0x10 DUP2 LT PUSH2 0x1A5F JUMPI PUSH4 0x4E487B71 PUSH1 0xE0 SHL PUSH1 0x0 MSTORE PUSH1 0x32 PUSH1 0x4 MSTORE PUSH1 0x24 PUSH1 0x0 REVERT JUMPDEST BYTE PUSH1 0xF8 SHL DUP3 DUP3 DUP2 MLOAD DUP2 LT PUSH2 0x1A83 JUMPI PUSH4 0x4E487B71 PUSH1 0xE0 SHL PUSH1 0x0 MSTORE PUSH1 0x32 PUSH1 0x4 MSTORE PUSH1 0x24 PUSH1 0x0 REVERT JUMPDEST PUSH1 0x20 ADD ADD SWAP1 PUSH1 0x1 PUSH1 0x1 PUSH1 0xF8 SHL SUB NOT AND SWAP1 DUP2 PUSH1 0x0 BYTE SWAP1 MSTORE8 POP PUSH1 0x4 SWAP5 SWAP1 SWAP5 SHR SWAP4 PUSH2 0x1AAA DUP2 PUSH2 0x1DAD JUMP JUMPDEST SWAP1 POP PUSH2 0x1A20 JUMP JUMPDEST POP DUP4 ISZERO PUSH2 0x1807 JUMPI PUSH1 0x40 MLOAD PUSH3 0x461BCD PUSH1 0xE5 SHL DUP2 MSTORE PUSH1 0x20 PUSH1 0x4 DUP3 ADD DUP2 SWAP1 MSTORE PUSH1 0x24 DUP3 ADD MSTORE PUSH32 0x537472696E67733A20686578206C656E67746820696E73756666696369656E74 PUSH1 0x44 DUP3 ADD MSTORE PUSH1 0x64 ADD PUSH2 0x8AA JUMP JUMPDEST DUP1 CALLDATALOAD PUSH1 0x1 PUSH1 0x1 PUSH1 0xA0 SHL SUB DUP2 AND DUP2 EQ PUSH2 0x1B17 JUMPI PUSH1 0x0 DUP1 REVERT JUMPDEST SWAP2 SWAP1 POP JUMP JUMPDEST PUSH1 0x0 PUSH1 0x20 DUP3 DUP5 SUB SLT ISZERO PUSH2 0x1B2D JUMPI DUP1 DUP2 REVERT JUMPDEST PUSH2 0x1807 DUP3 PUSH2 0x1B00 JUMP JUMPDEST PUSH1 0x0 DUP1 PUSH1 0x0 PUSH1 0x60 DUP5 DUP7 SUB SLT ISZERO PUSH2 0x1B4A JUMPI DUP2 DUP3 REVERT JUMPDEST PUSH2 0x1B53 DUP5 PUSH2 0x1B00 JUMP JUMPDEST SWAP3 POP PUSH1 0x20 DUP5 ADD CALLDATALOAD SWAP2 POP PUSH1 0x40 DUP5 ADD CALLDATALOAD PUSH2 0x1B6A DUP2 PUSH2 0x1DDA JUMP JUMPDEST DUP1 SWAP2 POP POP SWAP3 POP SWAP3 POP SWAP3 JUMP JUMPDEST PUSH1 0x0 PUSH1 0x20 DUP3 DUP5 SUB SLT ISZERO PUSH2 0x1B86 JUMPI DUP1 DUP2 REVERT JUMPDEST DUP2 MLOAD PUSH2 0x1807 DUP2 PUSH2 0x1DDA JUMP JUMPDEST PUSH1 0x0 PUSH1 0x20 DUP3 DUP5 SUB SLT ISZERO PUSH2 0x1BA2 JUMPI DUP1 DUP2 REVERT JUMPDEST POP CALLDATALOAD SWAP2 SWAP1 POP JUMP JUMPDEST PUSH1 0x0 DUP1 PUSH1 0x40 DUP4 DUP6 SUB SLT ISZERO PUSH2 0x1BBB JUMPI DUP2 DUP3 REVERT JUMPDEST DUP3 CALLDATALOAD SWAP2 POP PUSH2 0x1BCB PUSH1 0x20 DUP5 ADD PUSH2 0x1B00 JUMP JUMPDEST SWAP1 POP SWAP3 POP SWAP3 SWAP1 POP JUMP JUMPDEST PUSH1 0x0 PUSH1 0x20 DUP3 DUP5 SUB SLT ISZERO PUSH2 0x1BE5 JUMPI DUP1 DUP2 REVERT JUMPDEST DUP2 CALLDATALOAD PUSH1 0x1 PUSH1 0x1 PUSH1 0xE0 SHL SUB NOT DUP2 AND DUP2 EQ PUSH2 0x1807 JUMPI DUP2 DUP3 REVERT JUMPDEST PUSH1 0x0 PUSH1 0x20 DUP3 DUP5 SUB SLT ISZERO PUSH2 0x1C0D JUMPI DUP1 DUP2 REVERT JUMPDEST POP MLOAD SWAP2 SWAP1 POP JUMP JUMPDEST PUSH1 0x0 DUP1 PUSH1 0x0 DUP1 PUSH1 0x0 PUSH1 0xA0 DUP7 DUP9 SUB SLT ISZERO PUSH2 0x1C2B JUMPI DUP1 DUP2 REVERT JUMPDEST DUP6 CALLDATALOAD SWAP5 POP PUSH1 0x20 DUP7 ADD CALLDATALOAD SWAP4 POP PUSH2 0x1C42 PUSH1 0x40 DUP8 ADD PUSH2 0x1B00 JUMP JUMPDEST SWAP3 POP PUSH1 0x60 DUP7 ADD CALLDATALOAD SWAP2 POP PUSH1 0x80 DUP7 ADD CALLDATALOAD PUSH2 0x1C59 DUP2 PUSH2 0x1DDA JUMP JUMPDEST DUP1 SWAP2 POP POP SWAP3 SWAP6 POP SWAP3 SWAP6 SWAP1 SWAP4 POP JUMP JUMPDEST PUSH32 0x416363657373436F6E74726F6C3A206163636F756E7420000000000000000000 DUP2 MSTORE PUSH1 0x0 DUP4 MLOAD PUSH2 0x1C9F DUP2 PUSH1 0x17 DUP6 ADD PUSH1 0x20 DUP9 ADD PUSH2 0x1D7D JUMP JUMPDEST PUSH17 0x1034B99036B4B9B9B4B733903937B6329 PUSH1 0x7D SHL PUSH1 0x17 SWAP2 DUP5 ADD SWAP2 DUP3 ADD MSTORE DUP4 MLOAD PUSH2 0x1CD0 DUP2 PUSH1 0x28 DUP5 ADD PUSH1 0x20 DUP9 ADD PUSH2 0x1D7D JUMP JUMPDEST ADD PUSH1 0x28 ADD SWAP5 SWAP4 POP POP POP POP JUMP JUMPDEST PUSH1 0x20 DUP2 MSTORE PUSH1 0x0 DUP3 MLOAD DUP1 PUSH1 0x20 DUP5 ADD MSTORE PUSH2 0x1CFB DUP2 PUSH1 0x40 DUP6 ADD PUSH1 0x20 DUP8 ADD PUSH2 0x1D7D JUMP JUMPDEST PUSH1 0x1F ADD PUSH1 0x1F NOT AND SWAP2 SWAP1 SWAP2 ADD PUSH1 0x40 ADD SWAP3 SWAP2 POP POP JUMP JUMPDEST PUSH1 0x0 DUP3 NOT DUP3 GT ISZERO PUSH2 0x1D22 JUMPI PUSH2 0x1D22 PUSH2 0x1DC4 JUMP JUMPDEST POP ADD SWAP1 JUMP JUMPDEST PUSH1 0x0 DUP3 PUSH2 0x1D42 JUMPI PUSH4 0x4E487B71 PUSH1 0xE0 SHL DUP2 MSTORE PUSH1 0x12 PUSH1 0x4 MSTORE PUSH1 0x24 DUP2 REVERT JUMPDEST POP DIV SWAP1 JUMP JUMPDEST PUSH1 0x0 DUP2 PUSH1 0x0 NOT DIV DUP4 GT DUP3 ISZERO ISZERO AND ISZERO PUSH2 0x1D61 JUMPI PUSH2 0x1D61 PUSH2 0x1DC4 JUMP JUMPDEST POP MUL SWAP1 JUMP JUMPDEST PUSH1 0x0 DUP3 DUP3 LT ISZERO PUSH2 0x1D78 JUMPI PUSH2 0x1D78 PUSH2 0x1DC4 JUMP JUMPDEST POP SUB SWAP1 JUMP JUMPDEST PUSH1 0x0 JUMPDEST DUP4 DUP2 LT ISZERO PUSH2 0x1D98 JUMPI DUP2 DUP2 ADD MLOAD DUP4 DUP3 ADD MSTORE PUSH1 0x20 ADD PUSH2 0x1D80 JUMP JUMPDEST DUP4 DUP2 GT ISZERO PUSH2 0x1DA7 JUMPI PUSH1 0x0 DUP5 DUP5 ADD MSTORE JUMPDEST POP POP POP POP JUMP JUMPDEST PUSH1 0x0 DUP2 PUSH2 0x1DBC JUMPI PUSH2 0x1DBC PUSH2 0x1DC4 JUMP JUMPDEST POP PUSH1 0x0 NOT ADD SWAP1 JUMP JUMPDEST PUSH4 0x4E487B71 PUSH1 0xE0 SHL PUSH1 0x0 MSTORE PUSH1 0x11 PUSH1 0x4 MSTORE PUSH1 0x24 PUSH1 0x0 REVERT JUMPDEST DUP1 ISZERO ISZERO DUP2 EQ PUSH2 0x1658 JUMPI PUSH1 0x0 DUP1 REVERT INVALID BALANCE BALANCE 0xFC DUP12 0xEB 0x48 0xB8 SWAP6 NOT PUSH27 0xD34F21C86AFDF6A989A5CD911181952DBF8DFCF181923C13B5ABBC DUP6 SDIV 0xD TIMESTAMP PUSH16 0x9500A16CFD9F7D94261C880B9A4E03D5 DUP5 0xD2 DUP13 MOD SDIV SWAP13 LOG2 PUSH5 0x6970667358 0x22 SLT KECCAK256 0x28 0xBA PUSH1 0x9C 0xB9 0x2E OR MULMOD 0x49 0xB2 PUSH19 0xF9B6760AAA336C13FE7580E96EFE3D7F2B597 0x4A SUB PUSH5 0x736F6C6343 STOP ADDMOD DIV STOP CALLER "
		},
		"gasEstimates": {
			"creation": {
				"codeDepositCost": "1554800",
				"executionCost": "infinite",
				"totalCost": "infinite"
			},
			"external": {
				"ARCADE_MANAGER()": "infinite",
				"DEFAULT_ADMIN_ROLE()": "284",
				"GAME_MASTER()": "infinite",
				"acceptedArcadeTokens(address)": "2261",
				"addArcadeToken(address,uint256,bool)": "infinite",
				"arcadeToken(address)": "2156",
				"closeGame(uint256)": "infinite",
				"createGame(uint256,uint256,address,uint256,bool)": "infinite",
				"decimals()": "1107",
				"deleteGame(uint256)": "infinite",
				"fee_percentage()": "1084",
				"gameData(uint256)": "6325",
				"getRoleAdmin(bytes32)": "1237",
				"grantRole(bytes32,address)": "infinite",
				"hasRole(bytes32,address)": "1397",
				"isAccepted(address)": "1321",
				"leaveMatch(uint256)": "6511",
				"openGame(uint256)": "infinite",
				"owner()": "1148",
				"placePlayer(uint256,address)": "infinite",
				"reconcile(address)": "infinite",
				"refund(uint256,address)": "infinite",
				"register(uint256)": "infinite",
				"removeArcadeToken(address)": "infinite",
				"removePlayer(uint256,address)": "infinite",
				"renounceRole(bytes32,address)": "24340",
				"revokeRole(bytes32,address)": "infinite",
				"setArcadeFeePercentage(uint256)": "infinite",
				"setWinner(uint256,address)": "infinite",
				"supportsInterface(bytes4)": "495"
			},
			"internal": {
				"_register(uint256,address,uint256)": "infinite"
			}
		},
		"methodIdentifiers": {
			"ARCADE_MANAGER()": "c18e397e",
			"DEFAULT_ADMIN_ROLE()": "a217fddf",
			"GAME_MASTER()": "99597b70",
			"acceptedArcadeTokens(address)": "b22c376d",
			"addArcadeToken(address,uint256,bool)": "06602a48",
			"arcadeToken(address)": "9d00c61e",
			"closeGame(uint256)": "2d6ef310",
			"createGame(uint256,uint256,address,uint256,bool)": "f336ee3c",
			"decimals()": "313ce567",
			"deleteGame(uint256)": "248a55a1",
			"fee_percentage()": "c46ed45a",
			"gameData(uint256)": "ccaf237f",
			"getRoleAdmin(bytes32)": "248a9ca3",
			"grantRole(bytes32,address)": "2f2ff15d",
			"hasRole(bytes32,address)": "91d14854",
			"isAccepted(address)": "e6f091f9",
			"leaveMatch(uint256)": "9f512e22",
			"openGame(uint256)": "00f5544f",
			"owner()": "8da5cb5b",
			"placePlayer(uint256,address)": "b9888d89",
			"reconcile(address)": "09a18635",
			"refund(uint256,address)": "7ad226dc",
			"register(uint256)": "f207564e",
			"removeArcadeToken(address)": "3e16518f",
			"removePlayer(uint256,address)": "2ba67100",
			"renounceRole(bytes32,address)": "36568abe",
			"revokeRole(bytes32,address)": "d547741f",
			"setArcadeFeePercentage(uint256)": "2ac5016f",
			"setWinner(uint256,address)": "9c623683",
			"supportsInterface(bytes4)": "01ffc9a7"
		}
	},
	"abi": [
		{
			"inputs": [],
			"stateMutability": "nonpayable",
			"type": "constructor"
		},
		{
			"anonymous": false,
			"inputs": [
				{
					"indexed": false,
					"internalType": "uint256",
					"name": "id",
					"type": "uint256"
				}
			],
			"name": "CloseGame",
			"type": "event"
		},
		{
			"anonymous": false,
			"inputs": [
				{
					"indexed": false,
					"internalType": "uint256",
					"name": "id",
					"type": "uint256"
				}
			],
			"name": "CreateGame",
			"type": "event"
		},
		{
			"anonymous": false,
			"inputs": [
				{
					"indexed": false,
					"internalType": "uint256",
					"name": "id",
					"type": "uint256"
				}
			],
			"name": "DeleteGame",
			"type": "event"
		},
		{
			"anonymous": false,
			"inputs": [
				{
					"indexed": false,
					"internalType": "uint256",
					"name": "fee",
					"type": "uint256"
				}
			],
			"name": "Fee",
			"type": "event"
		},
		{
			"anonymous": false,
			"inputs": [
				{
					"indexed": false,
					"internalType": "uint256",
					"name": "id",
					"type": "uint256"
				}
			],
			"name": "OpenGame",
			"type": "event"
		},
		{
			"anonymous": false,
			"inputs": [
				{
					"indexed": false,
					"internalType": "uint256",
					"name": "payout",
					"type": "uint256"
				}
			],
			"name": "Payout",
			"type": "event"
		},
		{
			"anonymous": false,
			"inputs": [
				{
					"indexed": false,
					"internalType": "address",
					"name": "player",
					"type": "address"
				},
				{
					"indexed": false,
					"internalType": "uint256",
					"name": "id",
					"type": "uint256"
				},
				{
					"indexed": false,
					"internalType": "bool",
					"name": "status",
					"type": "bool"
				}
			],
			"name": "PlacePlayer",
			"type": "event"
		},
		{
			"anonymous": false,
			"inputs": [
				{
					"indexed": false,
					"internalType": "uint256",
					"name": "id",
					"type": "uint256"
				},
				{
					"indexed": false,
					"internalType": "address",
					"name": "player",
					"type": "address"
				},
				{
					"indexed": false,
					"internalType": "uint256",
					"name": "amount",
					"type": "uint256"
				}
			],
			"name": "Refund",
			"type": "event"
		},
		{
			"anonymous": false,
			"inputs": [
				{
					"indexed": true,
					"internalType": "address",
					"name": "_player",
					"type": "address"
				},
				{
					"indexed": false,
					"internalType": "uint256",
					"name": "id",
					"type": "uint256"
				}
			],
			"name": "Register",
			"type": "event"
		},
		{
			"anonymous": false,
			"inputs": [
				{
					"indexed": false,
					"internalType": "address",
					"name": "player",
					"type": "address"
				}
			],
			"name": "RemovePlayer",
			"type": "event"
		},
		{
			"anonymous": false,
			"inputs": [
				{
					"indexed": true,
					"internalType": "bytes32",
					"name": "role",
					"type": "bytes32"
				},
				{
					"indexed": true,
					"internalType": "bytes32",
					"name": "previousAdminRole",
					"type": "bytes32"
				},
				{
					"indexed": true,
					"internalType": "bytes32",
					"name": "newAdminRole",
					"type": "bytes32"
				}
			],
			"name": "RoleAdminChanged",
			"type": "event"
		},
		{
			"anonymous": false,
			"inputs": [
				{
					"indexed": true,
					"internalType": "bytes32",
					"name": "role",
					"type": "bytes32"
				},
				{
					"indexed": true,
					"internalType": "address",
					"name": "account",
					"type": "address"
				},
				{
					"indexed": true,
					"internalType": "address",
					"name": "sender",
					"type": "address"
				}
			],
			"name": "RoleGranted",
			"type": "event"
		},
		{
			"anonymous": false,
			"inputs": [
				{
					"indexed": true,
					"internalType": "bytes32",
					"name": "role",
					"type": "bytes32"
				},
				{
					"indexed": true,
					"internalType": "address",
					"name": "account",
					"type": "address"
				},
				{
					"indexed": true,
					"internalType": "address",
					"name": "sender",
					"type": "address"
				}
			],
			"name": "RoleRevoked",
			"type": "event"
		},
		{
			"inputs": [],
			"name": "ARCADE_MANAGER",
			"outputs": [
				{
					"internalType": "bytes32",
					"name": "",
					"type": "bytes32"
				}
			],
			"stateMutability": "view",
			"type": "function"
		},
		{
			"inputs": [],
			"name": "DEFAULT_ADMIN_ROLE",
			"outputs": [
				{
					"internalType": "bytes32",
					"name": "",
					"type": "bytes32"
				}
			],
			"stateMutability": "view",
			"type": "function"
		},
		{
			"inputs": [],
			"name": "GAME_MASTER",
			"outputs": [
				{
					"internalType": "bytes32",
					"name": "",
					"type": "bytes32"
				}
			],
			"stateMutability": "view",
			"type": "function"
		},
		{
			"inputs": [
				{
					"internalType": "address",
					"name": "",
					"type": "address"
				}
			],
			"name": "acceptedArcadeTokens",
			"outputs": [
				{
					"internalType": "contract IERC20",
					"name": "native_token",
					"type": "address"
				},
				{
					"internalType": "bool",
					"name": "active",
					"type": "bool"
				},
				{
					"internalType": "uint256",
					"name": "redemption_rate",
					"type": "uint256"
				}
			],
			"stateMutability": "view",
			"type": "function"
		},
		{
			"inputs": [
				{
					"internalType": "address",
					"name": "token_address",
					"type": "address"
				},
				{
					"internalType": "uint256",
					"name": "redemption_rate",
					"type": "uint256"
				},
				{
					"internalType": "bool",
					"name": "_active",
					"type": "bool"
				}
			],
			"name": "addArcadeToken",
			"outputs": [],
			"stateMutability": "nonpayable",
			"type": "function"
		},
		{
			"inputs": [
				{
					"internalType": "address",
					"name": "token_address",
					"type": "address"
				}
			],
			"name": "arcadeToken",
			"outputs": [
				{
					"internalType": "bool",
					"name": "",
					"type": "bool"
				},
				{
					"internalType": "uint256",
					"name": "",
					"type": "uint256"
				}
			],
			"stateMutability": "view",
			"type": "function"
		},
		{
			"inputs": [
				{
					"internalType": "uint256",
					"name": "game_id",
					"type": "uint256"
				}
			],
			"name": "closeGame",
			"outputs": [],
			"stateMutability": "nonpayable",
			"type": "function"
		},
		{
			"inputs": [
				{
					"internalType": "uint256",
					"name": "game_id",
					"type": "uint256"
				},
				{
					"internalType": "uint256",
					"name": "registration_fee",
					"type": "uint256"
				},
				{
					"internalType": "address",
					"name": "arcade_token",
					"type": "address"
				},
				{
					"internalType": "uint256",
					"name": "player_limit",
					"type": "uint256"
				},
				{
					"internalType": "bool",
					"name": "exchange",
					"type": "bool"
				}
			],
			"name": "createGame",
			"outputs": [],
			"stateMutability": "nonpayable",
			"type": "function"
		},
		{
			"inputs": [],
			"name": "decimals",
			"outputs": [
				{
					"internalType": "uint256",
					"name": "",
					"type": "uint256"
				}
			],
			"stateMutability": "view",
			"type": "function"
		},
		{
			"inputs": [
				{
					"internalType": "uint256",
					"name": "game_id",
					"type": "uint256"
				}
			],
			"name": "deleteGame",
			"outputs": [],
			"stateMutability": "nonpayable",
			"type": "function"
		},
		{
			"inputs": [],
			"name": "fee_percentage",
			"outputs": [
				{
					"internalType": "uint256",
					"name": "",
					"type": "uint256"
				}
			],
			"stateMutability": "view",
			"type": "function"
		},
		{
			"inputs": [
				{
					"internalType": "uint256",
					"name": "",
					"type": "uint256"
				}
			],
			"name": "gameData",
			"outputs": [
				{
					"internalType": "bool",
					"name": "exchange",
					"type": "bool"
				},
				{
					"internalType": "uint256",
					"name": "player_count",
					"type": "uint256"
				},
				{
					"internalType": "uint256",
					"name": "player_limit",
					"type": "uint256"
				},
				{
					"internalType": "uint256",
					"name": "registration_fee",
					"type": "uint256"
				},
				{
					"internalType": "uint256",
					"name": "status",
					"type": "uint256"
				},
				{
					"internalType": "address",
					"name": "arcade_token",
					"type": "address"
				},
				{
					"internalType": "uint256",
					"name": "total_fee",
					"type": "uint256"
				}
			],
			"stateMutability": "view",
			"type": "function"
		},
		{
			"inputs": [
				{
					"internalType": "bytes32",
					"name": "role",
					"type": "bytes32"
				}
			],
			"name": "getRoleAdmin",
			"outputs": [
				{
					"internalType": "bytes32",
					"name": "",
					"type": "bytes32"
				}
			],
			"stateMutability": "view",
			"type": "function"
		},
		{
			"inputs": [
				{
					"internalType": "bytes32",
					"name": "role",
					"type": "bytes32"
				},
				{
					"internalType": "address",
					"name": "account",
					"type": "address"
				}
			],
			"name": "grantRole",
			"outputs": [],
			"stateMutability": "nonpayable",
			"type": "function"
		},
		{
			"inputs": [
				{
					"internalType": "bytes32",
					"name": "role",
					"type": "bytes32"
				},
				{
					"internalType": "address",
					"name": "account",
					"type": "address"
				}
			],
			"name": "hasRole",
			"outputs": [
				{
					"internalType": "bool",
					"name": "",
					"type": "bool"
				}
			],
			"stateMutability": "view",
			"type": "function"
		},
		{
			"inputs": [
				{
					"internalType": "address",
					"name": "token_address",
					"type": "address"
				}
			],
			"name": "isAccepted",
			"outputs": [
				{
					"internalType": "bool",
					"name": "",
					"type": "bool"
				}
			],
			"stateMutability": "view",
			"type": "function"
		},
		{
			"inputs": [
				{
					"internalType": "uint256",
					"name": "game_id",
					"type": "uint256"
				}
			],
			"name": "leaveMatch",
			"outputs": [],
			"stateMutability": "nonpayable",
			"type": "function"
		},
		{
			"inputs": [
				{
					"internalType": "uint256",
					"name": "game_id",
					"type": "uint256"
				}
			],
			"name": "openGame",
			"outputs": [],
			"stateMutability": "nonpayable",
			"type": "function"
		},
		{
			"inputs": [],
			"name": "owner",
			"outputs": [
				{
					"internalType": "address",
					"name": "",
					"type": "address"
				}
			],
			"stateMutability": "view",
			"type": "function"
		},
		{
			"inputs": [
				{
					"internalType": "uint256",
					"name": "game_id",
					"type": "uint256"
				},
				{
					"internalType": "address",
					"name": "player",
					"type": "address"
				}
			],
			"name": "placePlayer",
			"outputs": [
				{
					"internalType": "bool",
					"name": "",
					"type": "bool"
				}
			],
			"stateMutability": "nonpayable",
			"type": "function"
		},
		{
			"inputs": [
				{
					"internalType": "address",
					"name": "arcade_token",
					"type": "address"
				}
			],
			"name": "reconcile",
			"outputs": [],
			"stateMutability": "nonpayable",
			"type": "function"
		},
		{
			"inputs": [
				{
					"internalType": "uint256",
					"name": "game_id",
					"type": "uint256"
				},
				{
					"internalType": "address",
					"name": "player",
					"type": "address"
				}
			],
			"name": "refund",
			"outputs": [],
			"stateMutability": "nonpayable",
			"type": "function"
		},
		{
			"inputs": [
				{
					"internalType": "uint256",
					"name": "game_id",
					"type": "uint256"
				}
			],
			"name": "register",
			"outputs": [],
			"stateMutability": "nonpayable",
			"type": "function"
		},
		{
			"inputs": [
				{
					"internalType": "address",
					"name": "token_address",
					"type": "address"
				}
			],
			"name": "removeArcadeToken",
			"outputs": [],
			"stateMutability": "nonpayable",
			"type": "function"
		},
		{
			"inputs": [
				{
					"internalType": "uint256",
					"name": "game_id",
					"type": "uint256"
				},
				{
					"internalType": "address",
					"name": "player",
					"type": "address"
				}
			],
			"name": "removePlayer",
			"outputs": [],
			"stateMutability": "nonpayable",
			"type": "function"
		},
		{
			"inputs": [
				{
					"internalType": "bytes32",
					"name": "role",
					"type": "bytes32"
				},
				{
					"internalType": "address",
					"name": "account",
					"type": "address"
				}
			],
			"name": "renounceRole",
			"outputs": [],
			"stateMutability": "nonpayable",
			"type": "function"
		},
		{
			"inputs": [
				{
					"internalType": "bytes32",
					"name": "role",
					"type": "bytes32"
				},
				{
					"internalType": "address",
					"name": "account",
					"type": "address"
				}
			],
			"name": "revokeRole",
			"outputs": [],
			"stateMutability": "nonpayable",
			"type": "function"
		},
		{
			"inputs": [
				{
					"internalType": "uint256",
					"name": "percentage",
					"type": "uint256"
				}
			],
			"name": "setArcadeFeePercentage",
			"outputs": [],
			"stateMutability": "nonpayable",
			"type": "function"
		},
		{
			"inputs": [
				{
					"internalType": "uint256",
					"name": "game_id",
					"type": "uint256"
				},
				{
					"internalType": "address",
					"name": "winner",
					"type": "address"
				}
			],
			"name": "setWinner",
			"outputs": [],
			"stateMutability": "nonpayable",
			"type": "function"
		},
		{
			"inputs": [
				{
					"internalType": "bytes4",
					"name": "interfaceId",
					"type": "bytes4"
				}
			],
			"name": "supportsInterface",
			"outputs": [
				{
					"internalType": "bool",
					"name": "",
					"type": "bool"
				}
			],
			"stateMutability": "view",
			"type": "function"
		}
	]
}